{"abi":[{"type":"constructor","inputs":[{"name":"_underlyingToken","type":"address","internalType":"contract IERC20"},{"name":"name","type":"string","internalType":"string"},{"name":"symbol","type":"string","internalType":"string"}],"stateMutability":"nonpayable"},{"type":"function","name":"allowance","inputs":[{"name":"owner","type":"address","internalType":"address"},{"name":"spender","type":"address","internalType":"address"}],"outputs":[{"name":"","type":"uint256","internalType":"uint256"}],"stateMutability":"view"},{"type":"function","name":"approve","inputs":[{"name":"spender","type":"address","internalType":"address"},{"name":"amount","type":"uint256","internalType":"uint256"}],"outputs":[{"name":"","type":"bool","internalType":"bool"}],"stateMutability":"nonpayable"},{"type":"function","name":"balanceOf","inputs":[{"name":"account","type":"address","internalType":"address"}],"outputs":[{"name":"","type":"uint256","internalType":"uint256"}],"stateMutability":"view"},{"type":"function","name":"decimals","inputs":[],"outputs":[{"name":"","type":"uint8","internalType":"uint8"}],"stateMutability":"view"},{"type":"function","name":"decreaseAllowance","inputs":[{"name":"spender","type":"address","internalType":"address"},{"name":"subtractedValue","type":"uint256","internalType":"uint256"}],"outputs":[{"name":"","type":"bool","internalType":"bool"}],"stateMutability":"nonpayable"},{"type":"function","name":"depositFor","inputs":[{"name":"account","type":"address","internalType":"address"},{"name":"amount","type":"uint256","internalType":"uint256"}],"outputs":[{"name":"","type":"bool","internalType":"bool"}],"stateMutability":"nonpayable"},{"type":"function","name":"increaseAllowance","inputs":[{"name":"spender","type":"address","internalType":"address"},{"name":"addedValue","type":"uint256","internalType":"uint256"}],"outputs":[{"name":"","type":"bool","internalType":"bool"}],"stateMutability":"nonpayable"},{"type":"function","name":"name","inputs":[],"outputs":[{"name":"","type":"string","internalType":"string"}],"stateMutability":"view"},{"type":"function","name":"recover","inputs":[{"name":"account","type":"address","internalType":"address"}],"outputs":[{"name":"","type":"uint256","internalType":"uint256"}],"stateMutability":"nonpayable"},{"type":"function","name":"symbol","inputs":[],"outputs":[{"name":"","type":"string","internalType":"string"}],"stateMutability":"view"},{"type":"function","name":"totalSupply","inputs":[],"outputs":[{"name":"","type":"uint256","internalType":"uint256"}],"stateMutability":"view"},{"type":"function","name":"transfer","inputs":[{"name":"recipient","type":"address","internalType":"address"},{"name":"amount","type":"uint256","internalType":"uint256"}],"outputs":[{"name":"","type":"bool","internalType":"bool"}],"stateMutability":"nonpayable"},{"type":"function","name":"transferFrom","inputs":[{"name":"sender","type":"address","internalType":"address"},{"name":"recipient","type":"address","internalType":"address"},{"name":"amount","type":"uint256","internalType":"uint256"}],"outputs":[{"name":"","type":"bool","internalType":"bool"}],"stateMutability":"nonpayable"},{"type":"function","name":"underlying","inputs":[],"outputs":[{"name":"","type":"address","internalType":"contract IERC20"}],"stateMutability":"view"},{"type":"function","name":"withdrawTo","inputs":[{"name":"account","type":"address","internalType":"address"},{"name":"amount","type":"uint256","internalType":"uint256"}],"outputs":[{"name":"","type":"bool","internalType":"bool"}],"stateMutability":"nonpayable"},{"type":"event","name":"Approval","inputs":[{"name":"owner","type":"address","indexed":true,"internalType":"address"},{"name":"spender","type":"address","indexed":true,"internalType":"address"},{"name":"value","type":"uint256","indexed":false,"internalType":"uint256"}],"anonymous":false},{"type":"event","name":"Transfer","inputs":[{"name":"from","type":"address","indexed":true,"internalType":"address"},{"name":"to","type":"address","indexed":true,"internalType":"address"},{"name":"value","type":"uint256","indexed":false,"internalType":"uint256"}],"anonymous":false}],"bytecode":{"object":"0x60a06040523461034d576113c38038038061001981610351565b92833981019060608183031261034d578051906001600160a01b038216820361034d5760208101516001600160401b03811161034d578361005b918301610376565b60408201519093906001600160401b03811161034d5761007b9201610376565b82519091906001600160401b03811161025e57600354600181811c91168015610343575b602082101461024057601f81116102e0575b506020601f821160011461027d57819293945f92610272575b50508160011b915f199060031b1c1916176003555b81516001600160401b03811161025e57600454600181811c91168015610254575b602082101461024057601f81116101dd575b50602092601f821160011461017c57928192935f92610171575b50508160011b915f199060031b1c1916176004555b608052604051610ffb90816103c882396080518181816102bc01528181610426015281816105da01526106990152f35b015190505f8061012c565b601f1982169360045f52805f20915f5b8681106101c557508360019596106101ad575b505050811b01600455610141565b01515f1960f88460031b161c191690555f808061019f565b9192602060018192868501518155019401920161018c565b60045f527f8a35acfbc15ff81a39ae7d344fd709f28e8600b4aa8c65c6b64bfe7fe36bd19b601f830160051c81019160208410610236575b601f0160051c01905b81811061022b5750610112565b5f815560010161021e565b9091508190610215565b634e487b7160e01b5f52602260045260245ffd5b90607f1690610100565b634e487b7160e01b5f52604160045260245ffd5b015190505f806100ca565b601f1982169060035f52805f20915f5b8181106102c8575095836001959697106102b0575b505050811b016003556100df565b01515f1960f88460031b161c191690555f80806102a2565b9192602060018192868b01518155019401920161028d565b60035f527fc2575a0e9e593c00f959f8c92f12db2869c3395a3b0502d05e2516446f71f85b601f830160051c81019160208410610339575b601f0160051c01905b81811061032e57506100b1565b5f8155600101610321565b9091508190610318565b90607f169061009f565b5f80fd5b6040519190601f01601f191682016001600160401b0381118382101761025e57604052565b81601f8201121561034d578051906001600160401b03821161025e576103a5601f8301601f1916602001610351565b928284526020838301011161034d57815f9260208093018386015e830101529056fe60806040526004361015610011575f80fd5b5f3560e01c806306fdde0314610104578063095ea7b3146100ff5780630cd865ec146100fa57806318160ddd146100f5578063205c2878146100f057806323b872dd146100eb5780632f4f21e2146100e6578063313ce567146100e157806339509351146100dc5780636f307dc3146100d757806370a08231146100d257806395d89b41146100cd578063a457c2d7146100c8578063a9059cbb146100c35763dd62ed3e146100be575f80fd5b610892565b61086c565b6107a9565b6106f4565b6106bd565b61067a565b61061e565b610603565b610584565b6104a5565b610376565b610359565b610287565b610256565b610133565b602060409281835280519182918282860152018484015e5f828201840152601f01601f1916010190565b34610226575f366003190112610226576040515f6003548060011c906001811690811561021c575b6020831082146102085782855260208501919081156101ef575060011461019d575b6101998461018d818603826108ff565b60405191829182610109565b0390f35b60035f9081529250907fc2575a0e9e593c00f959f8c92f12db2869c3395a3b0502d05e2516446f71f85b5b8184106101db5750500161018d8261017d565b8054848401526020909301926001016101c8565b60ff191682525090151560051b01905061018d8261017d565b634e487b7160e01b5f52602260045260245ffd5b91607f169161015b565b5f80fd5b600435906001600160a01b038216820361022657565b602435906001600160a01b038216820361022657565b346102265760403660031901126102265761027c61027261022a565b6024359033610947565b602060405160018152f35b34610226576020366003190112610226576102a061022a565b6040516370a0823160e01b8152306004820152906020826024817f00000000000000000000000000000000000000000000000000000000000000006001600160a01b03165afa801561034e5761030861030f91610199945f9161031f575b5060025490610a8a565b8092610d29565b6040519081529081906020820190565b610341915060203d602011610347575b61033981836108ff565b810190610a7b565b5f6102fe565b503d61032f565b6040513d5f823e3d90fd5b34610226575f366003190112610226576020600254604051908152f35b346102265760403660031901126102265761038f61022a565b60243533156104565761044a91816103b7336001600160a01b03165f525f60205260405f2090565b546103c482821015610a97565b036103df336001600160a01b03165f525f60205260405f2090565b556103f46103ef83600254610a8a565b600255565b6040518281525f9033907fddf252ad1be2c89b69c2b068fc378daa952ba7f163c4a11628f55a4df523b3ef90602090a37f0000000000000000000000000000000000000000000000000000000000000000610aee565b60405160018152602090f35b60405162461bcd60e51b815260206004820152602160248201527f45524332303a206275726e2066726f6d20746865207a65726f206164647265736044820152607360f81b6064820152608490fd5b34610226576060366003190112610226576104be61022a565b6104c6610240565b906104d5604435809383610bf6565b6001600160a01b0381165f52600160205261050360405f20336001600160a01b03165f5260205260405f2090565b54918083106105195761044a9203903390610947565b60405162461bcd60e51b815260206004820152602860248201527f45524332303a207472616e7366657220616d6f756e742065786365656473206160448201527f6c6c6f77616e63650000000000000000000000000000000000000000000000006064820152608490fd5b346102265760403660031901126102265761044a6105a061022a565b602435906105fe6040516323b872dd60e01b6020820152336024820152306044820152836064820152606481526105d86084826108ff565b7f0000000000000000000000000000000000000000000000000000000000000000610e77565b610d29565b34610226575f36600319011261022657602060405160128152f35b346102265760403660031901126102265761063761022a565b602435335f5260016020526106608260405f20906001600160a01b03165f5260205260405f2090565b549081018091116106755761027c9133610947565b610926565b34610226575f3660031901126102265760206040516001600160a01b037f0000000000000000000000000000000000000000000000000000000000000000168152f35b34610226576020366003190112610226576001600160a01b036106de61022a565b165f525f602052602060405f2054604051908152f35b34610226575f366003190112610226576040515f6004548060011c906001811690811561079f575b6020831082146102085782855260208501919081156101ef575060011461074d576101998461018d818603826108ff565b60045f9081529250907f8a35acfbc15ff81a39ae7d344fd709f28e8600b4aa8c65c6b64bfe7fe36bd19b5b81841061078b5750500161018d8261017d565b805484840152602090930192600101610778565b91607f169161071c565b34610226576040366003190112610226576107c261022a565b60243590335f5260016020526107ec8160405f20906001600160a01b03165f5260205260405f2090565b54918083106108015761044a92039033610947565b60405162461bcd60e51b815260206004820152602560248201527f45524332303a2064656372656173656420616c6c6f77616e63652062656c6f7760448201527f207a65726f0000000000000000000000000000000000000000000000000000006064820152608490fd5b346102265760403660031901126102265761027c61088861022a565b6024359033610bf6565b346102265760403660031901126102265760206108e26108b061022a565b6001600160a01b036108c0610240565b91165f526001835260405f20906001600160a01b03165f5260205260405f2090565b54604051908152f35b634e487b7160e01b5f52604160045260245ffd5b90601f8019910116810190811067ffffffffffffffff82111761092157604052565b6108eb565b634e487b7160e01b5f52601160045260245ffd5b9190820180921161067557565b906001600160a01b038216918215610a2a576001600160a01b0382169384156109da57806109c47f8c5be1e5ebec7d5bd14f71427d1e84f3dd0314c0f7b2291e5b200ac8c7c3b925946109ae6109d5956001600160a01b03165f52600160205260405f2090565b906001600160a01b03165f5260205260405f2090565b556040519081529081906020820190565b0390a3565b60405162461bcd60e51b815260206004820152602260248201527f45524332303a20617070726f766520746f20746865207a65726f206164647265604482015261737360f01b6064820152608490fd5b60405162461bcd60e51b8152602060048201526024808201527f45524332303a20617070726f76652066726f6d20746865207a65726f206164646044820152637265737360e01b6064820152608490fd5b90816020910312610226575190565b9190820391821161067557565b15610a9e57565b60405162461bcd60e51b815260206004820152602260248201527f45524332303a206275726e20616d6f756e7420657863656564732062616c616e604482015261636560f01b6064820152608490fd5b610b2a926001600160a01b036040519363a9059cbb60e01b6020860152166024840152604483015260448252610b256064836108ff565b610e77565b565b15610b3357565b60405162461bcd60e51b815260206004820152602360248201527f45524332303a207472616e7366657220746f20746865207a65726f206164647260448201526265737360e81b6064820152608490fd5b15610b8b57565b60405162461bcd60e51b815260206004820152602660248201527f45524332303a207472616e7366657220616d6f756e742065786365656473206260448201527f616c616e636500000000000000000000000000000000000000000000000000006064820152608490fd5b916001600160a01b038316918215610cbe577fddf252ad1be2c89b69c2b068fc378daa952ba7f163c4a11628f55a4df523b3ef91610ca1826001600160a01b036109d5941696610c47881515610b2c565b610c8a84610c65836001600160a01b03165f525f60205260405f2090565b54610c7282821015610b84565b03916001600160a01b03165f525f60205260405f2090565b556001600160a01b03165f525f60205260405f2090565b610cac82825461093a565b90556040519081529081906020820190565b60405162461bcd60e51b815260206004820152602560248201527f45524332303a207472616e736665722066726f6d20746865207a65726f20616460448201527f64726573730000000000000000000000000000000000000000000000000000006064820152608490fd5b906001600160a01b038216918215610da8576002549082820180921161067557610d66916002556001600160a01b03165f525f60205260405f2090565b80549082820180921161067557556040519081525f907fddf252ad1be2c89b69c2b068fc378daa952ba7f163c4a11628f55a4df523b3ef9080602081016109d5565b60405162461bcd60e51b815260206004820152601f60248201527f45524332303a206d696e7420746f20746865207a65726f2061646472657373006044820152606490fd5b90816020910312610226575180151581036102265790565b15610e0c57565b60405162461bcd60e51b815260206004820152602a60248201527f5361666545524332303a204552433230206f7065726174696f6e20646964206e60448201527f6f742073756363656564000000000000000000000000000000000000000000006064820152608490fd5b6001600160a01b03169060405190610e906040836108ff565b602082527f5361666545524332303a206c6f772d6c6576656c2063616c6c206661696c65646020830152823b15610f05575f81610ee0948260208195519301915af1610eda610f4a565b90610f89565b805180610eeb575050565b81602080610f0093610b2a9501019101610ded565b610e05565b60405162461bcd60e51b815260206004820152601d60248201527f416464726573733a2063616c6c20746f206e6f6e2d636f6e74726163740000006044820152606490fd5b3d15610f84573d9067ffffffffffffffff82116109215760405191610f79601f8201601f1916602001846108ff565b82523d5f602084013e565b606090565b90919015610f95575090565b815115610fa55750805190602001fd5b60405162461bcd60e51b8152908190610fc19060048301610109565b0390fdfea264697066735822122080695028021abdee318908a633b88a99b79f460fb47a03bfe43e289ff24c501464736f6c634300081a0033","linkReferences":{}},"methodIdentifiers":{"allowance(address,address)":"dd62ed3e","approve(address,uint256)":"095ea7b3","balanceOf(address)":"70a08231","decimals()":"313ce567","decreaseAllowance(address,uint256)":"a457c2d7","depositFor(address,uint256)":"2f4f21e2","increaseAllowance(address,uint256)":"39509351","name()":"06fdde03","recover(address)":"0cd865ec","symbol()":"95d89b41","totalSupply()":"18160ddd","transfer(address,uint256)":"a9059cbb","transferFrom(address,address,uint256)":"23b872dd","underlying()":"6f307dc3","withdrawTo(address,uint256)":"205c2878"},"id":182}