{"abi":[{"type":"function","name":"allowance","inputs":[{"name":"holder","type":"address","internalType":"address"},{"name":"spender","type":"address","internalType":"address"}],"outputs":[{"name":"","type":"uint256","internalType":"uint256"}],"stateMutability":"view"},{"type":"function","name":"approve","inputs":[{"name":"spender","type":"address","internalType":"address"},{"name":"value","type":"uint256","internalType":"uint256"}],"outputs":[{"name":"","type":"bool","internalType":"bool"}],"stateMutability":"nonpayable"},{"type":"function","name":"authorizeOperator","inputs":[{"name":"operator","type":"address","internalType":"address"}],"outputs":[],"stateMutability":"nonpayable"},{"type":"function","name":"balanceOf","inputs":[{"name":"tokenHolder","type":"address","internalType":"address"}],"outputs":[{"name":"","type":"uint256","internalType":"uint256"}],"stateMutability":"view"},{"type":"function","name":"burn","inputs":[{"name":"amount","type":"uint256","internalType":"uint256"},{"name":"data","type":"bytes","internalType":"bytes"}],"outputs":[],"stateMutability":"nonpayable"},{"type":"function","name":"decimals","inputs":[],"outputs":[{"name":"","type":"uint8","internalType":"uint8"}],"stateMutability":"pure"},{"type":"function","name":"defaultOperators","inputs":[],"outputs":[{"name":"","type":"address[]","internalType":"address[]"}],"stateMutability":"view"},{"type":"function","name":"granularity","inputs":[],"outputs":[{"name":"","type":"uint256","internalType":"uint256"}],"stateMutability":"view"},{"type":"function","name":"initialize","inputs":[{"name":"name","type":"string","internalType":"string"},{"name":"symbol","type":"string","internalType":"string"},{"name":"defaultOperators","type":"address[]","internalType":"address[]"},{"name":"initialSupply","type":"uint256","internalType":"uint256"},{"name":"owner","type":"address","internalType":"address"}],"outputs":[],"stateMutability":"nonpayable"},{"type":"function","name":"isOperatorFor","inputs":[{"name":"operator","type":"address","internalType":"address"},{"name":"tokenHolder","type":"address","internalType":"address"}],"outputs":[{"name":"","type":"bool","internalType":"bool"}],"stateMutability":"view"},{"type":"function","name":"name","inputs":[],"outputs":[{"name":"","type":"string","internalType":"string"}],"stateMutability":"view"},{"type":"function","name":"operatorBurn","inputs":[{"name":"account","type":"address","internalType":"address"},{"name":"amount","type":"uint256","internalType":"uint256"},{"name":"data","type":"bytes","internalType":"bytes"},{"name":"operatorData","type":"bytes","internalType":"bytes"}],"outputs":[],"stateMutability":"nonpayable"},{"type":"function","name":"operatorSend","inputs":[{"name":"sender","type":"address","internalType":"address"},{"name":"recipient","type":"address","internalType":"address"},{"name":"amount","type":"uint256","internalType":"uint256"},{"name":"data","type":"bytes","internalType":"bytes"},{"name":"operatorData","type":"bytes","internalType":"bytes"}],"outputs":[],"stateMutability":"nonpayable"},{"type":"function","name":"revokeOperator","inputs":[{"name":"operator","type":"address","internalType":"address"}],"outputs":[],"stateMutability":"nonpayable"},{"type":"function","name":"send","inputs":[{"name":"recipient","type":"address","internalType":"address"},{"name":"amount","type":"uint256","internalType":"uint256"},{"name":"data","type":"bytes","internalType":"bytes"}],"outputs":[],"stateMutability":"nonpayable"},{"type":"function","name":"symbol","inputs":[],"outputs":[{"name":"","type":"string","internalType":"string"}],"stateMutability":"view"},{"type":"function","name":"totalSupply","inputs":[],"outputs":[{"name":"","type":"uint256","internalType":"uint256"}],"stateMutability":"view"},{"type":"function","name":"transfer","inputs":[{"name":"recipient","type":"address","internalType":"address"},{"name":"amount","type":"uint256","internalType":"uint256"}],"outputs":[{"name":"","type":"bool","internalType":"bool"}],"stateMutability":"nonpayable"},{"type":"function","name":"transferFrom","inputs":[{"name":"holder","type":"address","internalType":"address"},{"name":"recipient","type":"address","internalType":"address"},{"name":"amount","type":"uint256","internalType":"uint256"}],"outputs":[{"name":"","type":"bool","internalType":"bool"}],"stateMutability":"nonpayable"},{"type":"event","name":"Approval","inputs":[{"name":"owner","type":"address","indexed":true,"internalType":"address"},{"name":"spender","type":"address","indexed":true,"internalType":"address"},{"name":"value","type":"uint256","indexed":false,"internalType":"uint256"}],"anonymous":false},{"type":"event","name":"AuthorizedOperator","inputs":[{"name":"operator","type":"address","indexed":true,"internalType":"address"},{"name":"tokenHolder","type":"address","indexed":true,"internalType":"address"}],"anonymous":false},{"type":"event","name":"Burned","inputs":[{"name":"operator","type":"address","indexed":true,"internalType":"address"},{"name":"from","type":"address","indexed":true,"internalType":"address"},{"name":"amount","type":"uint256","indexed":false,"internalType":"uint256"},{"name":"data","type":"bytes","indexed":false,"internalType":"bytes"},{"name":"operatorData","type":"bytes","indexed":false,"internalType":"bytes"}],"anonymous":false},{"type":"event","name":"Minted","inputs":[{"name":"operator","type":"address","indexed":true,"internalType":"address"},{"name":"to","type":"address","indexed":true,"internalType":"address"},{"name":"amount","type":"uint256","indexed":false,"internalType":"uint256"},{"name":"data","type":"bytes","indexed":false,"internalType":"bytes"},{"name":"operatorData","type":"bytes","indexed":false,"internalType":"bytes"}],"anonymous":false},{"type":"event","name":"RevokedOperator","inputs":[{"name":"operator","type":"address","indexed":true,"internalType":"address"},{"name":"tokenHolder","type":"address","indexed":true,"internalType":"address"}],"anonymous":false},{"type":"event","name":"Sent","inputs":[{"name":"operator","type":"address","indexed":true,"internalType":"address"},{"name":"from","type":"address","indexed":true,"internalType":"address"},{"name":"to","type":"address","indexed":true,"internalType":"address"},{"name":"amount","type":"uint256","indexed":false,"internalType":"uint256"},{"name":"data","type":"bytes","indexed":false,"internalType":"bytes"},{"name":"operatorData","type":"bytes","indexed":false,"internalType":"bytes"}],"anonymous":false},{"type":"event","name":"Transfer","inputs":[{"name":"from","type":"address","indexed":true,"internalType":"address"},{"name":"to","type":"address","indexed":true,"internalType":"address"},{"name":"value","type":"uint256","indexed":false,"internalType":"uint256"}],"anonymous":false}],"bytecode":{"object":"0x6080806040523460155761225a908161001a8239f35b5f80fdfe6080806040526004361015610012575f80fd5b5f905f3560e01c90816306e485381461152a5750806306fdde0314611460578063095ea7b31461142f57806318160ddd1461141257806323b872dd14611230578063313ce56714611215578063556f0dc7146111fa57806362ad1b831461117c57806370a0823114611144578063768f950a1461064f578063959b8c3f1461055157806395d89b411461046a5780639bd9bbc614610410578063a9059cbb1461034c578063d95b637114610315578063dd62ed3e146102c7578063fad8b32a146101cb578063fc673c4f146101485763fe9d9303146100ef575f80fd5b346101455760403660031901126101455760243567ffffffffffffffff81116101415761012361013e913690600401611661565b6040519061013260208361163f565b83825260043533611fd0565b80f35b5080fd5b80fd5b503461014557608036600319011261014557610162611613565b60443567ffffffffffffffff81116101c757610182903690600401611661565b906064359167ffffffffffffffff83116101c3576101a761013e933690600401611661565b916101ba6101b5823361184a565b611766565b60243590611fd0565b8380fd5b8280fd5b5034610145576020366003190112610145576001600160a01b036101ed611613565b16338114610278578082526038602052604082205460ff161561025557338252603a60205260408220815f5260205260405f20600160ff198254161790555b33907f50546e66e5f44d728365dc3908c63bc5cfeeab470722c1677e3073a6ac294aa18380a380f35b338252603960205260408220815f5260205260405f2060ff19815416905561022c565b60405162461bcd60e51b815260206004820152602160248201527f4552433737373a207265766f6b696e672073656c66206173206f70657261746f6044820152603960f91b6064820152608490fd5b5034610145576040366003190112610145576001600160a01b0360406102eb611613565b92826102f5611629565b94168152603b6020522091165f52602052602060405f2054604051908152f35b5034610145576040366003190112610145576020610342610334611613565b61033c611629565b9061184a565b6040519015158152f35b503461014557604036600319011261014557610407610369611613565b91602435926103826001600160a01b03821615156116ed565b6020936103b2604051610395878261163f565b848152604051906103a6888361163f565b85825283853333611a57565b6103df6040516103c2878261163f565b848152604051906103d3888361163f565b85825283853333611b8e565b604051916103ed868461163f565b838352604051936103fe878661163f565b84523333611cb8565b60405160018152f35b50346101455760603660031901126101455761042a611613565b6044359067ffffffffffffffff82116101c75761044e61013e923690600401611661565b6040519161045d60208461163f565b8483526024359033611da0565b503461014557806003193601126101455760405190806036549061048d826116b5565b808552916001811690811561052a57506001146104cd575b6104c9846104b58186038261163f565b6040519182916020835260208301906115ef565b0390f35b603681527f4a11f94e20a93c79f6ec743a1954ec4fc2c08429ae2122118bf234b2185c81b8939250905b808210610510575090915081016020016104b5826104a5565b9192600181602092548385880101520191019092916104f7565b60ff191660208087019190915292151560051b850190920192506104b591508390506104a5565b5034610145576020366003190112610145576001600160a01b03610573611613565b168033146105fe578082526038602052604082205460ff16156105d857338252603a60205260408220815f5260205260405f2060ff1981541690555b33907ff4caeb2d6ca8932a215a353d0703c326ec2d81fc68170f320eb2ab49e9df61f98380a380f35b338252603960205260408220815f5260205260405f20600160ff198254161790556105af565b60405162461bcd60e51b8152602060048201526024808201527f4552433737373a20617574686f72697a696e672073656c66206173206f70657260448201526330ba37b960e11b6064820152608490fd5b5034610dad5760a0366003190112610dad5760043567ffffffffffffffff8111610dad57610681903690600401611661565b60243567ffffffffffffffff8111610dad576106a1903690600401611661565b9160443567ffffffffffffffff8111610dad5736602382011215610dad5780600401359367ffffffffffffffff8511610e42578460051b91604051956106ea602085018861163f565b865260208601906024829482010190368211610dad57602401915b818310611124575050506064356084356001600160a01b03811690818103610dad575f549460ff8660081c16958615809781611119575b610745906117d8565b611107575b505f549460ff8660081c169586158097816110fc575b610769906117d8565b6110ea575b505f5460ff8160081c169081158092816110df575b61078c906117d8565b6110cd575b506110bf575b5f549860ff8a60081c16998a15809b816110b4575b6107b5906117d8565b6110a2575b5080519067ffffffffffffffff8211610e425781906107da6035546116b5565b601f811161100b575b50602090601f8311600114610f87575f92610f7c575b50508160011b915f199060031b1c1916176035555b80519067ffffffffffffffff8211610e4257819061082d6036546116b5565b601f8111610ee5575b50602090601f8311600114610e61575f92610e56575b50508160011b915f199060031b1c1916176036555b88519067ffffffffffffffff8211610e4257680100000000000000008211610e425760375482603755808310610dee575b5060375f525f5b828110610db1575050505f5b88518110156108df576001906001600160a01b0360208260051b8c010151165f52603860205260405f208260ff19825416179055016108a5565b5086731820a4b7618bde71dce8cdc73aab6c95905fad243b15610dad576040516329965a1d60e01b815230600482018190527fac7fbab5f54a3ca8194167523c6753bfeb96a445279294b6125b68cce2177054602483015260448201525f8160648183731820a4b7618bde71dce8cdc73aab6c95905fad245af18015610da257610d8d575b50731820a4b7618bde71dce8cdc73aab6c95905fad243b15610be757866040516329965a1d60e01b81523060048201527faea199e31a596269b42cdafd93407f14436db6e4cad65417994c2eb37381e05a6024820152306044820152818160648183731820a4b7618bde71dce8cdc73aab6c95905fad245af18015610d8257610d6d575b5050610d5f575b85549260ff8460081c16938415809581610d54575b610a0d906117d8565b610d43575b5060209060405192610a24838561163f565b88845260405190610a35848361163f565b8982528515610d0057908291610a508b969594603454611b56565b6034558686526033845260408620610a69848254611b56565b905560405163555ddc6560e11b8152600481018890527fb281fc8c12954d22544db45de3159a39272895b169a852b314f9cc762e44c53b60248201528481604481731820a4b7618bde71dce8cdc73aab6c95905fad245afa8015610cf5576001600160a01b03918891610cc8575b50168015610beb57803b15610be75785879185838695610b0e604051988996879586946223de2960e01b8652863360048801611a0a565b03925af18015610bdc5787928791610bbd575b5050937f2fe5be0146f74c5bce36c0b80911af6c7d86ff27e89d5cfa61fc681327954e5d610b7a7fddf252ad1be2c89b69c2b068fc378daa952ba7f163c4a11628f55a4df523b3ef965b60405191829133958884611b63565b0390a3604051908152a3610baf575b610ba1575b610b955780f35b805461ff001916815580f35b815461ff0019168255610b8e565b825461ff0019168355610b89565b8192935090610bcb9161163f565b610bd8578590858c610b21565b8480fd5b6040513d88823e3d90fd5b8680fd5b509091939294503b610c475791848994927f2fe5be0146f74c5bce36c0b80911af6c7d86ff27e89d5cfa61fc681327954e5d610b7a7fddf252ad1be2c89b69c2b068fc378daa952ba7f163c4a11628f55a4df523b3ef96610b6b565b60405162461bcd60e51b815260048101859052604d60248201527f4552433737373a20746f6b656e20726563697069656e7420636f6e747261637460448201527f20686173206e6f20696d706c656d656e74657220666f7220455243373737546f60648201526c1ad95b9cd49958da5c1a595b9d609a1b608482015260a490fd5b610ce89150863d8811610cee575b610ce0818361163f565b8101906119eb565b8d610ad7565b503d610cd6565b6040513d89823e3d90fd5b6064846040519062461bcd60e51b825280600483015260248201527f4552433737373a206d696e7420746f20746865207a65726f20616464726573736044820152fd5b61ffff191661010117875587610a12565b5060ff821615610a04565b855461ff00191686556109ef565b81610d779161163f565b610be75786886109e8565b6040513d84823e3d90fd5b610d9a9197505f9061163f565b5f9587610964565b6040513d5f823e3d90fd5b5f80fd5b60019060206001600160a01b03845116930192817f42a7b7dd785cd69714a189dffb3fd7d7174edc9ece837694ce50f7078f7c31ae015501610899565b610e3c907f42a7b7dd785cd69714a189dffb3fd7d7174edc9ece837694ce50f7078f7c31ae01837f42a7b7dd785cd69714a189dffb3fd7d7174edc9ece837694ce50f7078f7c31ae0161220e565b5f610892565b634e487b7160e01b5f52604160045260245ffd5b015190505f8061084c565b60365f9081527f4a11f94e20a93c79f6ec743a1954ec4fc2c08429ae2122118bf234b2185c81b89350601f198516905b818110610ecd5750908460019594939210610eb5575b505050811b01603655610861565b01515f1960f88460031b161c191690555f8080610ea7565b92936020600181928786015181550195019301610e91565b610f4e9060365f52601f840160051c7f4a11f94e20a93c79f6ec743a1954ec4fc2c08429ae2122118bf234b2185c81b8019060208510610f54575b601f0160051c7f4a11f94e20a93c79f6ec743a1954ec4fc2c08429ae2122118bf234b2185c81b8019061220e565b5f610836565b7f4a11f94e20a93c79f6ec743a1954ec4fc2c08429ae2122118bf234b2185c81b89150610f20565b015190505f806107f9565b60355f9081527fcfa4bec1d3298408bb5afcfcd9c430549c5b31f8aa5c5848151c0a55f473c34d9350601f198516905b818110610ff35750908460019594939210610fdb575b505050811b0160355561080e565b01515f1960f88460031b161c191690555f8080610fcd565b92936020600181928786015181550195019301610fb7565b6110749060355f52601f840160051c7fcfa4bec1d3298408bb5afcfcd9c430549c5b31f8aa5c5848151c0a55f473c34d01906020851061107a575b601f0160051c7fcfa4bec1d3298408bb5afcfcd9c430549c5b31f8aa5c5848151c0a55f473c34d019061220e565b5f6107e3565b7fcfa4bec1d3298408bb5afcfcd9c430549c5b31f8aa5c5848151c0a55f473c34d9150611046565b61ffff1916610101175f9081556107ba565b5060ff8216156107ac565b61ff00195f54165f55610797565b61ffff1916610101175f908155610791565b5060ff821615610783565b61ffff1916610101175f90815561076e565b5060ff821615610760565b61ffff1916610101175f90815561074a565b5060ff82161561073c565b82356001600160a01b0381168103610dad57815260209283019201610705565b34610dad576020366003190112610dad576001600160a01b03611165611613565b165f526033602052602060405f2054604051908152f35b34610dad5760a0366003190112610dad57611195611613565b61119d611629565b60643567ffffffffffffffff8111610dad576111bd903690600401611661565b6084359267ffffffffffffffff8411610dad576111e16111f8943690600401611661565b926111ef6101b5833361184a565b60443591611da0565b005b34610dad575f366003190112610dad57602060405160018152f35b34610dad575f366003190112610dad57602060405160128152f35b34610dad576060366003190112610dad57611249611613565b611251611629565b604435916112696001600160a01b03831615156116ed565b6001600160a01b0381169182156113a7576020926112aa60405161128d868261163f565b5f81526040519061129e878361163f565b5f825287858733611a57565b6112d76040516112ba868261163f565b5f8152604051906112cb878361163f565b5f825287858733611b8e565b5f52603b835260405f206001600160a01b0333165f52835260405f20549380851061133c5761131461130d826104079697611745565b33856118cc565b60405191611322868461163f565b5f835260405193611333878661163f565b5f855233611cb8565b60405162461bcd60e51b815260048101859052602960248201527f4552433737373a207472616e7366657220616d6f756e7420657863656564732060448201527f616c6c6f77616e636500000000000000000000000000000000000000000000006064820152608490fd5b60405162461bcd60e51b815260206004820152602660248201527f4552433737373a207472616e736665722066726f6d20746865207a65726f206160448201527f64647265737300000000000000000000000000000000000000000000000000006064820152608490fd5b34610dad575f366003190112610dad576020603454604051908152f35b34610dad576040366003190112610dad5761145561144b611613565b60243590336118cc565b602060405160018152f35b34610dad575f366003190112610dad576040515f603554611480816116b5565b808452906001811690811561150657506001146114a8575b6104c9836104b58185038261163f565b91905060355f527fcfa4bec1d3298408bb5afcfcd9c430549c5b31f8aa5c5848151c0a55f473c34d915f905b8082106114ec575090915081016020016104b5611498565b9192600181602092548385880101520191019092916114d4565b60ff191660208086019190915291151560051b840190910191506104b59050611498565b34610dad575f366003190112610dad576037549081815260208101809260375f527f42a7b7dd785cd69714a189dffb3fd7d7174edc9ece837694ce50f7078f7c31ae905f5b8181106115d0575050508161158591038261163f565b604051918291602083019060208452518091526040830191905f5b8181106115ae575050500390f35b82516001600160a01b03168452859450602093840193909201916001016115a0565b82546001600160a01b031684526020909301926001928301920161156f565b805180835260209291819084018484015e5f828201840152601f01601f1916010190565b600435906001600160a01b0382168203610dad57565b602435906001600160a01b0382168203610dad57565b90601f8019910116810190811067ffffffffffffffff821117610e4257604052565b81601f82011215610dad5760208135910167ffffffffffffffff8211610e425760405192611699601f8401601f19166020018561163f565b82845282820111610dad57815f92602092838601378301015290565b90600182811c921680156116e3575b60208310146116cf57565b634e487b7160e01b5f52602260045260245ffd5b91607f16916116c4565b156116f457565b60405162461bcd60e51b8152602060048201526024808201527f4552433737373a207472616e7366657220746f20746865207a65726f206164646044820152637265737360e01b6064820152608490fd5b9190820391821161175257565b634e487b7160e01b5f52601160045260245ffd5b1561176d57565b60405162461bcd60e51b815260206004820152602c60248201527f4552433737373a2063616c6c6572206973206e6f7420616e206f70657261746f60448201527f7220666f7220686f6c64657200000000000000000000000000000000000000006064820152608490fd5b156117df57565b60405162461bcd60e51b815260206004820152602e60248201527f496e697469616c697a61626c653a20636f6e747261637420697320616c72656160448201527f647920696e697469616c697a65640000000000000000000000000000000000006064820152608490fd5b906001600160a01b03809116911681811491821561188d575b821561186e57505090565b9091505f52603960205260405f20905f5260205260ff60405f20541690565b9150805f52603860205260ff60405f205416806118ab575b91611863565b50815f52603a60205260405f20815f5260205260ff60405f205416156118a5565b6001600160a01b0316908115611980576001600160a01b031691821561192f5760207f8c5be1e5ebec7d5bd14f71427d1e84f3dd0314c0f7b2291e5b200ac8c7c3b92591835f52603b825260405f20855f5282528060405f2055604051908152a3565b60405162461bcd60e51b815260206004820152602360248201527f4552433737373a20617070726f766520746f20746865207a65726f206164647260448201526265737360e81b6064820152608490fd5b60405162461bcd60e51b815260206004820152602560248201527f4552433737373a20617070726f76652066726f6d20746865207a65726f20616460448201527f64726573730000000000000000000000000000000000000000000000000000006064820152608490fd5b90816020910312610dad57516001600160a01b0381168103610dad5790565b9491611a46936001600160a01b03809281611a549a9895168952166020880152166040860152606085015260c0608085015260c08401906115ef565b9160a08184039101526115ef565b90565b91929460405163555ddc6560e11b81526001600160a01b03831660048201527f29ddb589b1fb5fc7cf394961c1adf5f8c6454761adf795e67fe149f658abe8956024820152602081604481731820a4b7618bde71dce8cdc73aab6c95905fad245afa8015610da2576001600160a01b03915f91611b37575b50169283611ae1575b50505050505050565b833b15610dad57611b0d5f96928793604051998a9889978896633ad5cbc160e11b885260048801611a0a565b03925af18015610da257611b27575b808080808080611ad8565b5f611b319161163f565b5f611b1c565b611b50915060203d602011610cee57610ce0818361163f565b5f611acf565b9190820180921161175257565b91611b8090611a54949284526060602085015260608401906115ef565b9160408184039101526115ef565b92906001600160a01b03909594951693845f52603360205260405f205493828510611c4d57611c41967f06b541ddaa720db2b10a4d0cdac39b8d360425fc073085fac19bc826146779876001600160a01b03889381602098887fddf252ad1be2c89b69c2b068fc378daa952ba7f163c4a11628f55a4df523b3ef9b885f5260338c520360405f2055169a8b96875f5260338a5260405f20611c308a8254611b56565b905560405193849316958984611b63565b0390a4604051908152a3565b60405162461bcd60e51b815260206004820152602760248201527f4552433737373a207472616e7366657220616d6f756e7420657863656564732060448201527f62616c616e6365000000000000000000000000000000000000000000000000006064820152608490fd5b91929460405163555ddc6560e11b81526001600160a01b03851660048201527fb281fc8c12954d22544db45de3159a39272895b169a852b314f9cc762e44c53b6024820152602081604481731820a4b7618bde71dce8cdc73aab6c95905fad245afa8015610da2576001600160a01b03915f91611d81575b5016928315611ad857833b15610dad57611d645f96928793604051998a98899788966223de2960e01b885260048801611a0a565b03925af18015610da257611d755750565b5f611d7f9161163f565b565b611d9a915060203d602011610cee57610ce0818361163f565b5f611d30565b9293906001600160a01b03841615611f80576001600160a01b03811615611f3c57611dcf828685848833611a57565b611ddd828685848833611b8e565b60405163555ddc6560e11b81526001600160a01b03821660048201527fb281fc8c12954d22544db45de3159a39272895b169a852b314f9cc762e44c53b6024820152602081604481731820a4b7618bde71dce8cdc73aab6c95905fad245afa8015610da2576001600160a01b03915f91611f1d575b5016918215611e8657823b15610dad575f94611d648692604051988997889687956223de2960e01b87523360048801611a0a565b5093505050506001611e955750565b3b611e9c57565b60405162461bcd60e51b815260206004820152604d60248201527f4552433737373a20746f6b656e20726563697069656e7420636f6e747261637460448201527f20686173206e6f20696d706c656d656e74657220666f7220455243373737546f60648201526c1ad95b9cd49958da5c1a595b9d609a1b608482015260a490fd5b611f36915060203d602011610cee57610ce0818361163f565b5f611e52565b606460405162461bcd60e51b815260206004820152602060248201527f4552433737373a2073656e6420746f20746865207a65726f20616464726573736044820152fd5b60405162461bcd60e51b815260206004820152602260248201527f4552433737373a2073656e642066726f6d20746865207a65726f206164647265604482015261737360f01b6064820152608490fd5b9190925f936001600160a01b0384169384156121be5760405163555ddc6560e11b8152600481018690527f29ddb589b1fb5fc7cf394961c1adf5f8c6454761adf795e67fe149f658abe8956024820152602081604481731820a4b7618bde71dce8cdc73aab6c95905fad245afa8015610da2576001600160a01b03915f9161219f575b501680612145575b5050838552603360205260408520548181106120f4577fddf252ad1be2c89b69c2b068fc378daa952ba7f163c4a11628f55a4df523b3ef937fa78a9be3a7b862d26933ad85fb11d80ef66b8f972d7cbba06621d583943a40986120e8602095858995868c52603389520360408b20556120d686603454611745565b60345560405191829133958884611b63565b0390a3604051908152a3565b60405162461bcd60e51b815260206004820152602360248201527f4552433737373a206275726e20616d6f756e7420657863656564732062616c616044820152626e636560e81b6064820152608490fd5b803b15610dad57825f91828088956121758960405198899788968795633ad5cbc160e11b87523360048801611a0a565b03925af18015610da25761218a575b8061205b565b6121979195505f9061163f565b5f935f612184565b6121b8915060203d602011610cee57610ce0818361163f565b5f612053565b60405162461bcd60e51b815260206004820152602260248201527f4552433737373a206275726e2066726f6d20746865207a65726f206164647265604482015261737360f01b6064820152608490fd5b818110612219575050565b5f815560010161220e56fea26469706673582212208f2984f20c1e4169ec31002e77a92aef310e07233d2507c56aa703c86c594e2e64736f6c634300081a0033","linkReferences":{}},"methodIdentifiers":{"allowance(address,address)":"dd62ed3e","approve(address,uint256)":"095ea7b3","authorizeOperator(address)":"959b8c3f","balanceOf(address)":"70a08231","burn(uint256,bytes)":"fe9d9303","decimals()":"313ce567","defaultOperators()":"06e48538","granularity()":"556f0dc7","initialize(string,string,address[],uint256,address)":"768f950a","isOperatorFor(address,address)":"d95b6371","name()":"06fdde03","operatorBurn(address,uint256,bytes,bytes)":"fc673c4f","operatorSend(address,address,uint256,bytes,bytes)":"62ad1b83","revokeOperator(address)":"fad8b32a","send(address,uint256,bytes)":"9bd9bbc6","symbol()":"95d89b41","totalSupply()":"18160ddd","transfer(address,uint256)":"a9059cbb","transferFrom(address,address,uint256)":"23b872dd"},"id":437}