{"abi":[{"type":"fallback","stateMutability":"payable"},{"type":"receive","stateMutability":"payable"},{"type":"function","name":"claimGift","inputs":[],"outputs":[],"stateMutability":"nonpayable"}],"bytecode":{"object":"0x6080806040523460155761016b908161001a8239f35b5f80fdfe60806040526004361015610018575b361561001657005b005b5f3560e01c638f7c8d100361000e57346100c0575f3660031901126100c0575f5c6100c05760015f5d670de0b6b3a764000047106100c057335f525f60205260ff60405f2054166100c0576100845f808080670de0b6b3a7640000335af161007e6100df565b506100c4565b6100bb6100ae3373ffffffffffffffffffffffffffffffffffffffff165f525f60205260405f2090565b805460ff19166001179055565b5f805d005b5f80fd5b156100c057565b634e487b7160e01b5f52604160045260245ffd5b3d15610130573d9067ffffffffffffffff821161012b5760405191601f8101601f19908116603f0116830167ffffffffffffffff81118482101761012b5760405282523d5f602084013e565b6100cb565b60609056fea2646970667358221220eb493ad69043052166e71eda80d4ea61e31b16351cff541e11b0107cf6dc46d764736f6c634300081a0033","linkReferences":{}},"methodIdentifiers":{"claimGift()":"8f7c8d10"},"id":123}