{"abi":[{"type":"constructor","inputs":[{"name":"_poolManager","type":"address","internalType":"contract IPoolManager"},{"name":"_verifier","type":"address","internalType":"contract IPureFiVerifier"},{"name":"_tokenA","type":"address","internalType":"contract IERC20"},{"name":"_tokenB","type":"address","internalType":"contract IERC20"},{"name":"_whitelist","type":"address","internalType":"contract PureFiMMWhitelist"}],"stateMutability":"nonpayable"},{"type":"function","name":"MAX_PRICE_LIMIT","inputs":[],"outputs":[{"name":"","type":"uint160","internalType":"uint160"}],"stateMutability":"view"},{"type":"function","name":"MIN_PRICE_LIMIT","inputs":[],"outputs":[{"name":"","type":"uint160","internalType":"uint160"}],"stateMutability":"view"},{"type":"function","name":"isExpectedRule","inputs":[{"name":"ruleId","type":"uint256","internalType":"uint256"}],"outputs":[{"name":"","type":"bool","internalType":"bool"}],"stateMutability":"view"},{"type":"function","name":"manager","inputs":[],"outputs":[{"name":"","type":"address","internalType":"contract IPoolManager"}],"stateMutability":"view"},{"type":"function","name":"owner","inputs":[],"outputs":[{"name":"","type":"address","internalType":"address"}],"stateMutability":"view"},{"type":"function","name":"renounceOwnership","inputs":[],"outputs":[],"stateMutability":"nonpayable"},{"type":"function","name":"setExpectedRuleIds","inputs":[{"name":"ruleIds","type":"uint256[]","internalType":"uint256[]"}],"outputs":[],"stateMutability":"nonpayable"},{"type":"function","name":"swap","inputs":[{"name":"key","type":"tuple","internalType":"struct PoolKey","components":[{"name":"currency0","type":"address","internalType":"Currency"},{"name":"currency1","type":"address","internalType":"Currency"},{"name":"fee","type":"uint24","internalType":"uint24"},{"name":"tickSpacing","type":"int24","internalType":"int24"},{"name":"hooks","type":"address","internalType":"contract IHooks"}]},{"name":"params","type":"tuple","internalType":"struct IPoolManager.SwapParams","components":[{"name":"zeroForOne","type":"bool","internalType":"bool"},{"name":"amountSpecified","type":"int256","internalType":"int256"},{"name":"sqrtPriceLimitX96","type":"uint160","internalType":"uint160"}]},{"name":"testSettings","type":"tuple","internalType":"struct PureFiSwapRouter.TestSettings","components":[{"name":"takeClaims","type":"bool","internalType":"bool"},{"name":"settleUsingBurn","type":"bool","internalType":"bool"}]},{"name":"hookData","type":"bytes","internalType":"bytes"}],"outputs":[{"name":"delta","type":"int256","internalType":"BalanceDelta"}],"stateMutability":"payable"},{"type":"function","name":"transferOwnership","inputs":[{"name":"newOwner","type":"address","internalType":"address"}],"outputs":[],"stateMutability":"nonpayable"},{"type":"function","name":"unlockCallback","inputs":[{"name":"rawData","type":"bytes","internalType":"bytes"}],"outputs":[{"name":"","type":"bytes","internalType":"bytes"}],"stateMutability":"nonpayable"},{"type":"function","name":"unsetExpectedRuleId","inputs":[{"name":"ruleIds","type":"uint256[]","internalType":"uint256[]"}],"outputs":[],"stateMutability":"nonpayable"},{"type":"function","name":"verifier","inputs":[],"outputs":[{"name":"","type":"address","internalType":"contract IPureFiVerifier"}],"stateMutability":"view"},{"type":"event","name":"OwnershipTransferred","inputs":[{"name":"previousOwner","type":"address","indexed":true,"internalType":"address"},{"name":"newOwner","type":"address","indexed":true,"internalType":"address"}],"anonymous":false},{"type":"error","name":"InvalidTokenAddress","inputs":[]},{"type":"error","name":"MessageSenderMismatch","inputs":[]},{"type":"error","name":"NoSwapOccurred","inputs":[]},{"type":"error","name":"OwnableInvalidOwner","inputs":[{"name":"owner","type":"address","internalType":"address"}]},{"type":"error","name":"OwnableUnauthorizedAccount","inputs":[{"name":"account","type":"address","internalType":"address"}]},{"type":"error","name":"UnexpectedRule","inputs":[]},{"type":"error","name":"WrongAmountSpecifiedExactInput","inputs":[{"name":"input","type":"uint160","internalType":"uint160"},{"name":"packageAmount","type":"uint160","internalType":"uint160"}]},{"type":"error","name":"WrongAmountSpecifiedExactOutput","inputs":[{"name":"input","type":"uint160","internalType":"uint160"},{"name":"packageAmount","type":"uint160","internalType":"uint160"}]},{"type":"error","name":"WrongPureFiPackage","inputs":[{"name":"packageType","type":"uint8","internalType":"uint8"}]}],"bytecode":{"object":"0x6101203461018057601f611db338819003918201601f19168301916001600160401b038311848410176101845780849260a094604052833981010312610180578051906001600160a01b0382168203610180576020810151906001600160a01b03821682036101805761007460408201610198565b608061008260608401610198565b920151926001600160a01b038416840361018057331561016d575f8054336001600160a01b0319821681178355604051979290916001600160a01b0316907f8be0079c531659141344cd1fd0a4f28419497f9722a3daafe3b4186f6b6457e09080a360805260a05260e0526101005260c052611c0690816101ad823960805181818161025301528181610cbd01528181610f9001528181611514015281816115d10152818161167c015281816116e50152818161187801526118e9015260a051818181610d0001526119fc015260c05181611989015260e051816114060152610100518161149c0152f35b631e4fbdf760e01b5f525f60045260245ffd5b5f80fd5b634e487b7160e01b5f52604160045260245ffd5b51906001600160a01b03821682036101805756fe60806040526004361015610011575f80fd5b5f3560e01c80632229d0b414610d245780632b7ac3f314610ce1578063481c6a7514610c9e578063542524dd14610c70578063715018a614610c0c578063823226a414610ba75780638da5cb5b14610b8257806391dd7346146101f85780639263aeff146101b7578063c7b8e15d14610198578063ddf11005146101345763f2fde38b1461009d575f80fd5b34610130576020366003190112610130576004356001600160a01b038116809103610130576100ca6114d6565b801561011d576001600160a01b035f548273ffffffffffffffffffffffffffffffffffffffff198216175f55167f8be0079c531659141344cd1fd0a4f28419497f9722a3daafe3b4186f6b6457e05f80a3005b631e4fbdf760e01b5f525f60045260245ffd5b5f80fd5b346101305761014236611199565b9061014b6114d6565b5f5b82811061015657005b806101646001928585611266565b3560081c8260ff610176848888611266565b3516825f528160205260405f2054925f52816020521b1760405f20550161014d565b34610130575f3660031901126101305760206040516401000276a48152f35b346101305760203660031901126101305760206101ee6004358060081c5f526001602052600160ff60405f205492161b8091161490565b6040519015158152f35b346101305760203660031901126101305760043567ffffffffffffffff8111610130573660238201121561013057806004013567ffffffffffffffff8111610130578101906024820191368311610130576001600160a01b037f00000000000000000000000000000000000000000000000000000000000000001691823303610130576020818303126101305760248101359067ffffffffffffffff82116101305701926101808483031261013057604051906102b48261106f565b6102c060248601611116565b82526040601f19868503011261013057604051946102dd866110bb565b6102e96044820161112a565b86526102f76064820161112a565b60208701526020830195865260a0602460831983870301011261013057604051936103218561106f565b61032d60848301611116565b855261033b60a48301611116565b602086015260c482013562ffffff8116810361013057604086015260e48201358060020b81036101305760608601526101048201356001600160a01b03811681036101305760808601526040840194855260609082900360ff19011261013057604051916103a88361109f565b6103b5610124830161112a565b835261014482013560208401526101648201356001600160a01b0381168103610130576040840152606084019283526101848201359167ffffffffffffffff8311610130576104079201602401611153565b93608083019485526104306001600160a01b03855151166001600160a01b0385511630916114fc565b9150506104586001600160a01b036020875101511630906001600160a01b03875116906114fc565b92915050610b3d57610af8576104fa946020916104d35f875161050e875195516040519b8c9788968795633cf3645360e21b875260048701906001600160a01b036080809282815116855282602082015116602086015262ffffff6040820151166040860152606081015160020b6060860152015116910152565b8051151560a4860152602081015160c4860152604001516001600160a01b031660e4850152565b6101206101048401526101248301906111ed565b03925af1938415610aed575f94610ab9575b506105436001600160a01b038451511630906001600160a01b03855116906114fc565b9691505061056c6001600160a01b036020865101511630906001600160a01b03865116906114fc565b84518051919593509150156108a057505f602082510151125f146107945751602001518612610719576105a6868660801d600f0b1461128a565b5f82126106be57610601955b5f8112610696575b5f831261065c575b5f811361062f575b505f8213610605575b8585604051906020820152602081526105ed6040826110f4565b6040519182916020835260208301906111ed565b0390f35b6001600160a01b038060206106269651015116935116905151151592611867565b828080806105d3565b610656906001600160a01b0386515116906001600160a01b03865116845151151592611867565b866105ca565b6106916001600160a01b03602087510151166001600160a01b038651166106828661136e565b906020865101511515926115c0565b6105c2565b6106b96001600160a01b03865151166001600160a01b038651166106828461136e565b6105ba565b60405162461bcd60e51b815260206004820152602d60248201527f64656c7461416674657231206973206e6f742067726561746572207468616e2060448201526c06f7220657175616c20746f203609c1b6064820152608490fd5b60405162461bcd60e51b815260206004820152604760248201527f64656c7461416674657230206973206e6f742067726561746572207468616e2060448201527f6f7220657175616c20746f20646174612e706172616d732e616d6f756e7453706064820152661958da599a595960ca1b608482015260a490fd5b5f8713610835576020906107ac8488600f0b146112fc565b51015182136107be57610601956105b2565b60a460405162461bcd60e51b815260206004820152604460248201527f64656c7461416674657231206973206e6f74206c657373207468616e206f722060448201527f657175616c20746f20646174612e706172616d732e616d6f756e745370656369606482015263199a595960e21b6084820152fd5b60405162461bcd60e51b815260206004820152602d60248201527f64656c7461416674657230206973206e6f74206c657373207468616e206f722060448201527f657175616c20746f207a65726f000000000000000000000000000000000000006064820152608490fd5b602001515f13156109aa575160200151821261092f576108c48286600f0b146112fc565b5f86126108d457610601956105b2565b60405162461bcd60e51b815260206004820152602d60248201527f64656c7461416674657230206973206e6f742067726561746572207468616e2060448201526c06f7220657175616c20746f203609c1b6064820152608490fd5b60405162461bcd60e51b815260206004820152604760248201527f64656c7461416674657231206973206e6f742067726561746572207468616e2060448201527f6f7220657175616c20746f20646174612e706172616d732e616d6f756e7453706064820152661958da599a595960ca1b608482015260a490fd5b5f8313610a4e576020906109c5888860801d600f0b1461128a565b51015186136109d757610601956105b2565b60a460405162461bcd60e51b815260206004820152604460248201527f64656c7461416674657230206973206e6f74206c657373207468616e206f722060448201527f657175616c20746f20646174612e706172616d732e616d6f756e745370656369606482015263199a595960e21b6084820152fd5b60405162461bcd60e51b815260206004820152602a60248201527f64656c7461416674657231206973206e6f74206c657373207468616e206f722060448201527f657175616c20746f2030000000000000000000000000000000000000000000006064820152608490fd5b9093506020813d602011610ae5575b81610ad5602093836110f4565b8101031261013057519285610520565b3d9150610ac8565b6040513d5f823e3d90fd5b60405162461bcd60e51b815260206004820152601e60248201527f64656c74614265666f726531206973206e6f7420657175616c20746f203000006044820152606490fd5b60405162461bcd60e51b815260206004820152601e60248201527f64656c74614265666f726530206973206e6f7420657175616c20746f203000006044820152606490fd5b34610130575f3660031901126101305760206001600160a01b035f5416604051908152f35b3461013057610bb536611199565b90610bbe6114d6565b5f5b828110610bc957005b80610bd76001928585611266565b3560081c8260ff610be9848888611266565b3516825f528160205260405f2054925f52816020521b191660405f205501610bc0565b34610130575f36600319011261013057610c246114d6565b5f6001600160a01b03815473ffffffffffffffffffffffffffffffffffffffff1981168355167f8be0079c531659141344cd1fd0a4f28419497f9722a3daafe3b4186f6b6457e08280a3005b34610130575f36600319011261013057602060405173fffd8963efd1fc6a506488495d951d5263988d258152f35b34610130575f3660031901126101305760206040516001600160a01b037f0000000000000000000000000000000000000000000000000000000000000000168152f35b34610130575f3660031901126101305760206040516001600160a01b037f0000000000000000000000000000000000000000000000000000000000000000168152f35b366003190161016081126101305760a01361013057604051610d458161106f565b6004356001600160a01b03811681036101305781526024356001600160a01b038116810361013057602082015260443562ffffff811681036101305760408201526064358060020b81036101305760608201526084356001600160a01b038116810361013057608082015260603660a319011261013057604051610dc88161109f565b60a435801515810361013057815260c435602082015260e4356001600160a01b03811681036101305760408201526040610103193601126101305760405191610e10836110bb565b6101043580151581036101305783526101243580151581036101305760208401526101443567ffffffffffffffff811161013057610f8393610f536001600160a01b0393610f3e5f96610f13610e6d610f61973690600401611153565b93610e7885846113ce565b50602060405197610e888961106f565b3389528189019081526040890192835260608901948552608089019687526040519a8b9983808c0152511660408a0152518051151560608a01520151151560808801525160a08701906001600160a01b036080809282815116855282602082015116602086015262ffffff6040820151166040860152606081015160020b6060860152015116910152565b51805115156101408601526020810151610160860152604001516001600160a01b0316610180850152565b516101806101a08401526101c08301906111ed565b03601f1981018352826110f4565b604051809381926348c8949160e01b83526020600484015260248301906111ed565b0381836001600160a01b037f0000000000000000000000000000000000000000000000000000000000000000165af1908115610aed575f91611031575b506020815191818082019384920101031261013057514780610fe8575b602082604051908152f35b5f80808093335af115610ffb5781610fdd565b3d60405190638549db5960e01b825233600483015260406024830152806044830152805f606484013e601f801991011660640190fd5b90503d805f833e61104281836110f4565b810160208282031261013057815167ffffffffffffffff8111610130576110699201611211565b81610fc0565b60a0810190811067ffffffffffffffff82111761108b57604052565b634e487b7160e01b5f52604160045260245ffd5b6060810190811067ffffffffffffffff82111761108b57604052565b6040810190811067ffffffffffffffff82111761108b57604052565b610100810190811067ffffffffffffffff82111761108b57604052565b90601f8019910116810190811067ffffffffffffffff82111761108b57604052565b35906001600160a01b038216820361013057565b3590811515820361013057565b67ffffffffffffffff811161108b57601f01601f191660200190565b81601f820112156101305780359061116a82611137565b9261117860405194856110f4565b8284526020838301011161013057815f926020809301838601378301015290565b9060206003198301126101305760043567ffffffffffffffff811161013057826023820112156101305780600401359267ffffffffffffffff84116101305760248460051b83010111610130576024019190565b805180835260209291819084018484015e5f828201840152601f01601f1916010190565b81601f820112156101305780519061122882611137565b9261123660405194856110f4565b8284526020838301011161013057815f9260208093018386015e8301015290565b90816020910312610130575190565b91908110156112765760051b0190565b634e487b7160e01b5f52603260045260245ffd5b1561129157565b60405162461bcd60e51b815260206004820152602b60248201527f64656c74612e616d6f756e74302829206973206e6f7420657175616c20746f2060448201527f64656c74614166746572300000000000000000000000000000000000000000006064820152608490fd5b1561130357565b60405162461bcd60e51b815260206004820152602b60248201527f64656c74612e616d6f756e74312829206973206e6f7420657175616c20746f2060448201527f64656c74614166746572310000000000000000000000000000000000000000006064820152608490fd5b600160ff1b811461137e575f0390565b634e487b7160e01b5f52601160045260245ffd5b6040519061139f826110d7565b606060e0835f81525f60208201525f60408201525f838201525f60808201525f60a08201525f60c08201520152565b91906113e2906113dc611392565b50611966565b9160ff835116156114d35760ff835116600281036114c157508051156114985760207f0000000000000000000000000000000000000000000000000000000000000000915b019081515f81125f146114925761143d9061136e565b905b6001600160a01b038060a0870151169116036114835760c0840151109081611478575b5061146957565b6308f81c4f60e21b5f5260045ffd5b5f915051125f611462565b630f58058360e11b5f5260045ffd5b9061143f565b60207f000000000000000000000000000000000000000000000000000000000000000091611427565b63c28070a760e01b5f5260045260245ffd5b50565b6001600160a01b035f541633036114e957565b63118cdaa760e01b5f523360045260245ffd5b92906115089084611b83565b926001600160a01b03807f00000000000000000000000000000000000000000000000000000000000000001691816115408483611b83565b95165f5216602052602060405f2060246040518094819363789add5560e11b835260048301525afa908115610aed575f91611579575090565b90506020813d6020116115a0575b81611594602093836110f4565b81010312610130575190565b3d9150611587565b90816020910312610130575180151581036101305790565b919215611650576001600160a01b037f000000000000000000000000000000000000000000000000000000000000000016803b1561013057604051637a94c56560e11b81526001600160a01b0392831660048201529290911660248301526044820192909252905f908290818381606481015b03925af18015610aed576116445750565b5f61164e916110f4565b565b91906001600160a01b0316806116db5750604051630476982d60e21b81529150602090829060049082907f00000000000000000000000000000000000000000000000000000000000000006001600160a01b03165af18015610aed576116b35750565b6114d39060203d6020116116d4575b6116cc81836110f4565b810190611257565b503d6116c2565b6001600160a01b037f00000000000000000000000000000000000000000000000000000000000000001691823b1561013057604051632961046560e21b8152600481018390525f9490858160248183895af18015610aed5761184b575b506001600160a01b0316843082146117f0576020929160649160405195869485936323b872dd60e01b8552600485015288602485015260448401525af180156117e5579160209184936117b8575b505b600460405180958193630476982d60e21b83525af19081156117ac57506116b35750565b604051903d90823e3d90fd5b6117d790833d85116117de575b6117cf81836110f4565b8101906115a8565b505f611786565b503d6117c5565b6040513d85823e3d90fd5b9290506044602092604051948593849263a9059cbb60e01b845288600485015260248401525af180156117e55791602091849361182e575b50611788565b61184490833d85116117de576117cf81836110f4565b505f611828565b6118589195505f906110f4565b5f936001600160a01b03611738565b9192156118de576001600160a01b037f000000000000000000000000000000000000000000000000000000000000000016803b1561013057604051630ab714fb60e11b81526001600160a01b0392831660048201529290911660248301526044820192909252905f90829081838160648101611633565b916001600160a01b037f000000000000000000000000000000000000000000000000000000000000000016803b15610130575f92836064926001600160a01b0394856040519889978896630b0d9c0960e01b885216600487015216602485015260448401525af18015610aed576116445750565b51906001600160a01b038216820361013057565b61196e611392565b6040516301fd3f7760e71b81523360048201526020816024817f00000000000000000000000000000000000000000000000000000000000000006001600160a01b03165afa908115610aed575f91611b64575b50611b5f5750905f6119ef9260405180948192630efd9c3b60e21b83526020600484015260248301906111ed565b0381836001600160a01b037f0000000000000000000000000000000000000000000000000000000000000000165af1918215610aed575f92611a8c575b5081611a5460408201518060081c5f526001602052600160ff60405f205492161b8091161490565b15611a7d576001600160a01b036060339201511603611a6f57565b62d9c83560e81b5f5260045ffd5b6382a96de560e01b5f5260045ffd5b9091503d805f833e611a9e81836110f4565b8101906020818303126101305780519067ffffffffffffffff82116101305701610100818303126101305760405191611ad6836110d7565b815160ff811681036101305783526020820151602084015260408201516040840152611b0460608301611952565b6060840152611b1560808301611952565b6080840152611b2660a08301611952565b60a084015260c082015160c084015260e082015167ffffffffffffffff811161013057611b539201611211565b60e0820152905f611a2c565b905090565b611b7d915060203d6020116117de576117cf81836110f4565b5f6119c1565b6001600160a01b031680611b9657503190565b6040516370a0823160e01b81526001600160a01b039092166004830152602090829060249082905afa908115610aed575f9161157957509056fea2646970667358221220f5f02ac67910cf1418a3b026d1ee49fd3ff3cfddc69a956df53331108c46fa2764736f6c634300081a0033","linkReferences":{}},"methodIdentifiers":{"MAX_PRICE_LIMIT()":"542524dd","MIN_PRICE_LIMIT()":"c7b8e15d","isExpectedRule(uint256)":"9263aeff","manager()":"481c6a75","owner()":"8da5cb5b","renounceOwnership()":"715018a6","setExpectedRuleIds(uint256[])":"ddf11005","swap((address,address,uint24,int24,address),(bool,int256,uint160),(bool,bool),bytes)":"2229d0b4","transferOwnership(address)":"f2fde38b","unlockCallback(bytes)":"91dd7346","unsetExpectedRuleId(uint256[])":"823226a4","verifier()":"2b7ac3f3"},"id":120}