{"abi":[{"type":"function","name":"approve","inputs":[{"name":"to","type":"address","internalType":"address"},{"name":"tokenId","type":"uint256","internalType":"uint256"}],"outputs":[],"stateMutability":"nonpayable"},{"type":"function","name":"balanceOf","inputs":[{"name":"owner","type":"address","internalType":"address"}],"outputs":[{"name":"","type":"uint256","internalType":"uint256"}],"stateMutability":"view"},{"type":"function","name":"baseURI","inputs":[],"outputs":[{"name":"","type":"string","internalType":"string"}],"stateMutability":"view"},{"type":"function","name":"burn","inputs":[{"name":"tokenId","type":"uint256","internalType":"uint256"}],"outputs":[],"stateMutability":"nonpayable"},{"type":"function","name":"exists","inputs":[{"name":"tokenId","type":"uint256","internalType":"uint256"}],"outputs":[{"name":"","type":"bool","internalType":"bool"}],"stateMutability":"view"},{"type":"function","name":"getApproved","inputs":[{"name":"tokenId","type":"uint256","internalType":"uint256"}],"outputs":[{"name":"","type":"address","internalType":"address"}],"stateMutability":"view"},{"type":"function","name":"isApprovedForAll","inputs":[{"name":"owner","type":"address","internalType":"address"},{"name":"operator","type":"address","internalType":"address"}],"outputs":[{"name":"","type":"bool","internalType":"bool"}],"stateMutability":"view"},{"type":"function","name":"mint","inputs":[{"name":"to","type":"address","internalType":"address"},{"name":"tokenId","type":"uint256","internalType":"uint256"}],"outputs":[],"stateMutability":"nonpayable"},{"type":"function","name":"name","inputs":[],"outputs":[{"name":"","type":"string","internalType":"string"}],"stateMutability":"view"},{"type":"function","name":"ownerOf","inputs":[{"name":"tokenId","type":"uint256","internalType":"uint256"}],"outputs":[{"name":"","type":"address","internalType":"address"}],"stateMutability":"view"},{"type":"function","name":"safeMint","inputs":[{"name":"to","type":"address","internalType":"address"},{"name":"tokenId","type":"uint256","internalType":"uint256"},{"name":"_data","type":"bytes","internalType":"bytes"}],"outputs":[],"stateMutability":"nonpayable"},{"type":"function","name":"safeMint","inputs":[{"name":"to","type":"address","internalType":"address"},{"name":"tokenId","type":"uint256","internalType":"uint256"}],"outputs":[],"stateMutability":"nonpayable"},{"type":"function","name":"safeTransferFrom","inputs":[{"name":"from","type":"address","internalType":"address"},{"name":"to","type":"address","internalType":"address"},{"name":"tokenId","type":"uint256","internalType":"uint256"}],"outputs":[],"stateMutability":"nonpayable"},{"type":"function","name":"safeTransferFrom","inputs":[{"name":"from","type":"address","internalType":"address"},{"name":"to","type":"address","internalType":"address"},{"name":"tokenId","type":"uint256","internalType":"uint256"},{"name":"_data","type":"bytes","internalType":"bytes"}],"outputs":[],"stateMutability":"nonpayable"},{"type":"function","name":"setApprovalForAll","inputs":[{"name":"operator","type":"address","internalType":"address"},{"name":"approved","type":"bool","internalType":"bool"}],"outputs":[],"stateMutability":"nonpayable"},{"type":"function","name":"supportsInterface","inputs":[{"name":"interfaceId","type":"bytes4","internalType":"bytes4"}],"outputs":[{"name":"","type":"bool","internalType":"bool"}],"stateMutability":"view"},{"type":"function","name":"symbol","inputs":[],"outputs":[{"name":"","type":"string","internalType":"string"}],"stateMutability":"view"},{"type":"function","name":"tokenURI","inputs":[{"name":"tokenId","type":"uint256","internalType":"uint256"}],"outputs":[{"name":"","type":"string","internalType":"string"}],"stateMutability":"view"},{"type":"function","name":"transferFrom","inputs":[{"name":"from","type":"address","internalType":"address"},{"name":"to","type":"address","internalType":"address"},{"name":"tokenId","type":"uint256","internalType":"uint256"}],"outputs":[],"stateMutability":"nonpayable"},{"type":"event","name":"Approval","inputs":[{"name":"owner","type":"address","indexed":true,"internalType":"address"},{"name":"approved","type":"address","indexed":true,"internalType":"address"},{"name":"tokenId","type":"uint256","indexed":true,"internalType":"uint256"}],"anonymous":false},{"type":"event","name":"ApprovalForAll","inputs":[{"name":"owner","type":"address","indexed":true,"internalType":"address"},{"name":"operator","type":"address","indexed":true,"internalType":"address"},{"name":"approved","type":"bool","indexed":false,"internalType":"bool"}],"anonymous":false},{"type":"event","name":"Transfer","inputs":[{"name":"from","type":"address","indexed":true,"internalType":"address"},{"name":"to","type":"address","indexed":true,"internalType":"address"},{"name":"tokenId","type":"uint256","indexed":true,"internalType":"uint256"}],"anonymous":false}],"bytecode":{"object":"0x60808060405234601557611625908161001a8239f35b5f80fdfe60806040526004361015610011575f80fd5b5f3560e01c806301ffc9a71461014457806306fdde031461013f578063081812fc1461013a578063095ea7b31461013557806323b872dd1461013057806340c10f191461012b57806342842e0e1461012657806342966c68146101215780634f558e791461011c5780636352211e146101175780636c0360eb1461011257806370a082311461010d5780638832e6e31461010857806395d89b4114610103578063a1448194146100fe578063a22cb465146100f9578063b88d4fde146100f4578063c87b56dd146100ef5763e985e9c5146100ea575f80fd5b610b08565b610a0b565b6109bc565b6108d3565b610895565b6107e0565b610786565b610636565b6105fe565b6105e0565b6105a3565b610512565b6104e9565b6104c4565b61049b565b61036b565b610310565b61021d565b610177565b7fffffffff0000000000000000000000000000000000000000000000000000000081160361017357565b5f80fd5b3461017357602036600319011261017357602060043561019681610149565b63ffffffff60e01b166380ac58cd60e01b81149081156101d4575b81156101c3575b506040519015158152f35b6301ffc9a760e01b1490505f6101b8565b635b5e139f60e01b811491506101b1565b805180835260209291819084018484015e5f828201840152601f01601f1916010190565b90602061021a9281815201906101e5565b90565b34610173575f366003190112610173576040515f6065548060011c9060018116908115610306575b6020831082146102f25782855260208501919081156102d95750600114610287575b61028384610277818603826106fd565b60405191829182610209565b0390f35b60655f9081529250907f8ff97419363ffd7000167f130ef7168fbea05faf9251824ca5043f113cc6a7c75b8184106102c55750500161027782610267565b8054848401526020909301926001016102b2565b60ff191682525090151560051b01905061027782610267565b634e487b7160e01b5f52602260045260245ffd5b91607f1691610245565b3461017357602036600319011261017357602061032e600435610b66565b6001600160a01b0360405191168152f35b600435906001600160a01b038216820361017357565b602435906001600160a01b038216820361017357565b346101735760403660031901126101735761038461033f565b60243561039081610cf3565b916001600160a01b038316806001600160a01b03831614610412576103c8936103c39133149081156103ca575b50610bfb565b610e0a565b005b61040c9150610405906103ef33916001600160a01b03165f52606a60205260405f2090565b906001600160a01b03165f5260205260405f2090565b5460ff1690565b5f6103bd565b60405162461bcd60e51b815260206004820152602160248201527f4552433732313a20617070726f76616c20746f2063757272656e74206f776e656044820152603960f91b6064820152608490fd5b6060906003190112610173576004356001600160a01b038116810361017357906024356001600160a01b0381168103610173579060443590565b34610173576103c86104ac36610461565b916104bf6104ba8433610e71565b610c6d565b610ffb565b34610173576040366003190112610173576103c86104e061033f565b60243590611148565b34610173576103c86104fa36610461565b906040519261050a6020856106fd565b5f8452610d7c565b34610173576020366003190112610173576004356001600160a01b0361053782610cf3565b61054083610db7565b16805f52606860205260405f209081545f19810190811161059e575f92558282526067602052604082206001600160a01b031981541690557fddf252ad1be2c89b69c2b068fc378daa952ba7f163c4a11628f55a4df523b3ef8280a4005b610fbd565b346101735760203660031901126101735760206105d66004355f5260676020526001600160a01b0360405f205416151590565b6040519015158152f35b3461017357602036600319011261017357602061032e600435610cf3565b34610173575f3660031901126101735761028360405161061f6020826106fd565b5f81526040519182916020835260208301906101e5565b34610173576020366003190112610173576001600160a01b0361065761033f565b16801561067e575f52606860205261028360405f2054604051918291829190602083019252565b60405162461bcd60e51b815260206004820152602a60248201527f4552433732313a2062616c616e636520717565727920666f7220746865207a6560448201527f726f2061646472657373000000000000000000000000000000000000000000006064820152608490fd5b634e487b7160e01b5f52604160045260245ffd5b90601f8019910116810190811067ffffffffffffffff82111761071f57604052565b6106e9565b67ffffffffffffffff811161071f57601f01601f191660200190565b81601f820112156101735780359061075782610724565b9261076560405194856106fd565b8284526020838301011161017357815f926020809301838601378301015290565b346101735760603660031901126101735761079f61033f565b602435906044359067ffffffffffffffff8211610173576103c8926107cb6107db933690600401610740565b916107d68282611148565b61147f565b611268565b34610173575f366003190112610173576040515f6066548060011c906001811690811561088b575b6020831082146102f25782855260208501919081156102d957506001146108395761028384610277818603826106fd565b60665f9081529250907f46501879b8ca8525e8c2fd519e2fbfcfa2ebea26501294aa02cbfcfb12e943545b8184106108775750500161027782610267565b805484840152602090930192600101610864565b91607f1691610808565b34610173576040366003190112610173576103c86107db6108b461033f565b602435604051916108c66020846106fd565b5f83526107d68282611148565b34610173576040366003190112610173576108ec61033f565b6024358015158103610173576001600160a01b03821691338314610977578161093461094592335f52606a60205260405f20906001600160a01b03165f5260205260405f2090565b9060ff801983541691151516179055565b604051901515815233907f17307eab39ab6107e8899845ad3d59bd9653f200f220920489ca2b5937696c3190602090a3005b60405162461bcd60e51b815260206004820152601960248201527f4552433732313a20617070726f766520746f2063616c6c6572000000000000006044820152606490fd5b34610173576080366003190112610173576109d561033f565b6109dd610355565b906044356064359267ffffffffffffffff841161017357610a056103c8943690600401610740565b92610d7c565b3461017357602036600319011261017357600435610a3d815f5260676020526001600160a01b0360405f205416151590565b15610a9d57610a4a610cdf565b805115610a8b57610277610a7791610a7d610a676102839561133f565b6040519485936020850190610da5565b90610da5565b03601f1981018352826106fd565b5050610283610a98610cdf565b610277565b60405162461bcd60e51b815260206004820152602f60248201527f4552433732314d657461646174613a2055524920717565727920666f72206e6f60448201527f6e6578697374656e7420746f6b656e00000000000000000000000000000000006064820152608490fd5b3461017357604036600319011261017357602060ff610b5a610b2861033f565b6001600160a01b03610b38610355565b91165f52606a845260405f20906001600160a01b03165f5260205260405f2090565b54166040519015158152f35b610b84815f5260676020526001600160a01b0360405f205416151590565b15610ba1575f5260696020526001600160a01b0360405f20541690565b60405162461bcd60e51b815260206004820152602c60248201527f4552433732313a20617070726f76656420717565727920666f72206e6f6e657860448201526b34b9ba32b73a103a37b5b2b760a11b6064820152608490fd5b15610c0257565b60405162461bcd60e51b815260206004820152603860248201527f4552433732313a20617070726f76652063616c6c6572206973206e6f74206f7760448201527f6e6572206e6f7220617070726f76656420666f7220616c6c00000000000000006064820152608490fd5b15610c7457565b60405162461bcd60e51b815260206004820152603160248201527f4552433732313a207472616e736665722063616c6c6572206973206e6f74206f60448201527f776e6572206e6f7220617070726f7665640000000000000000000000000000006064820152608490fd5b60405190610cee6020836106fd565b5f8252565b5f5260676020526001600160a01b0360405f2054168015610d115790565b60405162461bcd60e51b815260206004820152602960248201527f4552433732313a206f776e657220717565727920666f72206e6f6e657869737460448201527f656e7420746f6b656e00000000000000000000000000000000000000000000006064820152608490fd5b91610da393916107db93610d936104ba8433610e71565b610d9e838383610ffb565b6115ae565b565b805191908290602001825e015f815290565b805f52606960205260405f206001600160a01b031981541690555f6001600160a01b03610de383610cf3565b167f8c5be1e5ebec7d5bd14f71427d1e84f3dd0314c0f7b2291e5b200ac8c7c3b9258280a4565b815f526069602052610e358160405f20906001600160a01b03166001600160a01b0319825416179055565b6001600160a01b0380610e4784610cf3565b169116907f8c5be1e5ebec7d5bd14f71427d1e84f3dd0314c0f7b2291e5b200ac8c7c3b9255f80a4565b610e8f825f5260676020526001600160a01b0360405f205416151590565b15610f0b57610e9d82610cf3565b6001600160a01b0382166001600160a01b0382168114938415610eec575b50508215610ec857505090565b61021a9250906103ef610405926001600160a01b03165f52606a60205260405f2090565b6001600160a01b0391929450610f0190610b66565b1614915f80610ebb565b60405162461bcd60e51b815260206004820152602c60248201527f4552433732313a206f70657261746f7220717565727920666f72206e6f6e657860448201526b34b9ba32b73a103a37b5b2b760a11b6064820152608490fd5b15610f6c57565b60405162461bcd60e51b8152602060048201526024808201527f4552433732313a207472616e7366657220746f20746865207a65726f206164646044820152637265737360e01b6064820152608490fd5b634e487b7160e01b5f52601160045260245ffd5b5f1981019190821161059e57565b906001820180921161059e57565b603001908160301161059e57565b906001600160a01b039061100e84610cf3565b82841692839116036110dd57806110576001600160a01b036110b7931694611037861515610f65565b61104087610db7565b6001600160a01b03165f52606860205260405f2090565b6110618154610fd1565b905561107e816001600160a01b03165f52606860205260405f2090565b6110888154610fdf565b905561109c855f52606760205260405f2090565b906001600160a01b03166001600160a01b0319825416179055565b7fddf252ad1be2c89b69c2b068fc378daa952ba7f163c4a11628f55a4df523b3ef5f80a4565b60405162461bcd60e51b815260206004820152602960248201527f4552433732313a207472616e73666572206f6620746f6b656e2074686174206960448201527f73206e6f74206f776e00000000000000000000000000000000000000000000006064820152608490fd5b6001600160a01b03811690811561122457611177835f5260676020526001600160a01b0360405f205416151590565b6111df578061119a6111b8926001600160a01b03165f52606860205260405f2090565b6111a48154610fdf565b905561109c845f52606760205260405f2090565b5f7fddf252ad1be2c89b69c2b068fc378daa952ba7f163c4a11628f55a4df523b3ef8180a4565b60405162461bcd60e51b815260206004820152601c60248201527f4552433732313a20746f6b656e20616c7265616479206d696e746564000000006044820152606490fd5b606460405162461bcd60e51b815260206004820152602060248201527f4552433732313a206d696e7420746f20746865207a65726f20616464726573736044820152fd5b1561126f57565b60405162461bcd60e51b815260206004820152603260248201527f4552433732313a207472616e7366657220746f206e6f6e20455243373231526560448201527f63656976657220696d706c656d656e74657200000000000000000000000000006064820152608490fd5b5f19811461059e5760010190565b906112f282610724565b6112ff60405191826106fd565b8281528092611310601f1991610724565b0190602036910137565b90815181101561132b570160200190565b634e487b7160e01b5f52603260045260245ffd5b9081156113ec575f82805b6113cd57508061135a84926112e8565b915b61136557509150565b6113716113c691610fd1565b936113b261138a611384600a8406610fed565b60ff1690565b60f81b7fff000000000000000000000000000000000000000000000000000000000000001690565b5f1a6113be868561131a565b53600a900490565b928361135c565b92906113db6113e3916112da565b93600a900490565b8093919361134a565b90506040516113fc6040826106fd565b60018152600360fc1b602082015290565b90816020910312610173575161021a81610149565b90926001600160a01b036080938161021a9796168452166020830152604082015281606082015201906101e5565b3d1561147a573d9061146182610724565b9161146f60405193846106fd565b82523d5f602084013e565b606090565b91823b156115a6576114b5926020925f6001600160a01b03604051809781968295630a85bd0160e11b8452853360048601611422565b0393165af15f9181611575575b50611547576114cf611450565b805190816115425760405162461bcd60e51b815260206004820152603260248201527f4552433732313a207472616e7366657220746f206e6f6e20455243373231526560448201527f63656976657220696d706c656d656e74657200000000000000000000000000006064820152608490fd5b602001fd5b7fffffffff0000000000000000000000000000000000000000000000000000000016630a85bd0160e11b1490565b61159891925060203d60201161159f575b61159081836106fd565b81019061140d565b905f6114c2565b503d611586565b505050600190565b919290803b156115e6576114b5935f6001600160a01b0360209560405197889687958693630a85bd0160e11b85523360048601611422565b5050505060019056fea2646970667358221220fe210337e0ece646c31f5ba1d613f89fe4b284bfa611bd7e2beb8b0a2bae6ece64736f6c634300081a0033","linkReferences":{}},"methodIdentifiers":{"approve(address,uint256)":"095ea7b3","balanceOf(address)":"70a08231","baseURI()":"6c0360eb","burn(uint256)":"42966c68","exists(uint256)":"4f558e79","getApproved(uint256)":"081812fc","isApprovedForAll(address,address)":"e985e9c5","mint(address,uint256)":"40c10f19","name()":"06fdde03","ownerOf(uint256)":"6352211e","safeMint(address,uint256)":"a1448194","safeMint(address,uint256,bytes)":"8832e6e3","safeTransferFrom(address,address,uint256)":"42842e0e","safeTransferFrom(address,address,uint256,bytes)":"b88d4fde","setApprovalForAll(address,bool)":"a22cb465","supportsInterface(bytes4)":"01ffc9a7","symbol()":"95d89b41","tokenURI(uint256)":"c87b56dd","transferFrom(address,address,uint256)":"23b872dd"},"id":356}