{"abi":[{"type":"constructor","inputs":[{"name":"_poolManager","type":"address","internalType":"contract IPoolManager"},{"name":"_verifier","type":"address","internalType":"contract IPureFiVerifier"},{"name":"_tokenA","type":"address","internalType":"contract IERC20"},{"name":"_tokenB","type":"address","internalType":"contract IERC20"},{"name":"_whitelist","type":"address","internalType":"contract PureFiMMWhitelist"}],"stateMutability":"nonpayable"},{"type":"function","name":"MAX_PRICE_LIMIT","inputs":[],"outputs":[{"name":"","type":"uint160","internalType":"uint160"}],"stateMutability":"view"},{"type":"function","name":"MIN_PRICE_LIMIT","inputs":[],"outputs":[{"name":"","type":"uint160","internalType":"uint160"}],"stateMutability":"view"},{"type":"function","name":"isExpectedRule","inputs":[{"name":"ruleId","type":"uint256","internalType":"uint256"}],"outputs":[{"name":"","type":"bool","internalType":"bool"}],"stateMutability":"view"},{"type":"function","name":"manager","inputs":[],"outputs":[{"name":"","type":"address","internalType":"contract IPoolManager"}],"stateMutability":"view"},{"type":"function","name":"msgSender","inputs":[],"outputs":[{"name":"","type":"address","internalType":"address"}],"stateMutability":"view"},{"type":"function","name":"owner","inputs":[],"outputs":[{"name":"","type":"address","internalType":"address"}],"stateMutability":"view"},{"type":"function","name":"poolManager","inputs":[],"outputs":[{"name":"","type":"address","internalType":"contract IPoolManager"}],"stateMutability":"view"},{"type":"function","name":"renounceOwnership","inputs":[],"outputs":[],"stateMutability":"nonpayable"},{"type":"function","name":"setExpectedRuleIds","inputs":[{"name":"ruleIds","type":"uint256[]","internalType":"uint256[]"}],"outputs":[],"stateMutability":"nonpayable"},{"type":"function","name":"swap","inputs":[{"name":"key","type":"tuple","internalType":"struct PoolKey","components":[{"name":"currency0","type":"address","internalType":"Currency"},{"name":"currency1","type":"address","internalType":"Currency"},{"name":"fee","type":"uint24","internalType":"uint24"},{"name":"tickSpacing","type":"int24","internalType":"int24"},{"name":"hooks","type":"address","internalType":"contract IHooks"}]},{"name":"params","type":"tuple","internalType":"struct IPoolManager.SwapParams","components":[{"name":"zeroForOne","type":"bool","internalType":"bool"},{"name":"amountSpecified","type":"int256","internalType":"int256"},{"name":"sqrtPriceLimitX96","type":"uint160","internalType":"uint160"}]},{"name":"testSettings","type":"tuple","internalType":"struct PureFiSwapV4Router.TestSettings","components":[{"name":"takeClaims","type":"bool","internalType":"bool"},{"name":"settleUsingBurn","type":"bool","internalType":"bool"}]},{"name":"hookData","type":"bytes","internalType":"bytes"}],"outputs":[{"name":"delta","type":"int256","internalType":"BalanceDelta"}],"stateMutability":"payable"},{"type":"function","name":"transferOwnership","inputs":[{"name":"newOwner","type":"address","internalType":"address"}],"outputs":[],"stateMutability":"nonpayable"},{"type":"function","name":"unlockCallback","inputs":[{"name":"data","type":"bytes","internalType":"bytes"}],"outputs":[{"name":"","type":"bytes","internalType":"bytes"}],"stateMutability":"nonpayable"},{"type":"function","name":"unsetExpectedRuleId","inputs":[{"name":"ruleIds","type":"uint256[]","internalType":"uint256[]"}],"outputs":[],"stateMutability":"nonpayable"},{"type":"function","name":"verifier","inputs":[],"outputs":[{"name":"","type":"address","internalType":"contract IPureFiVerifier"}],"stateMutability":"view"},{"type":"event","name":"OwnershipTransferred","inputs":[{"name":"previousOwner","type":"address","indexed":true,"internalType":"address"},{"name":"newOwner","type":"address","indexed":true,"internalType":"address"}],"anonymous":false},{"type":"error","name":"DeltaNotNegative","inputs":[{"name":"currency","type":"address","internalType":"Currency"}]},{"type":"error","name":"DeltaNotPositive","inputs":[{"name":"currency","type":"address","internalType":"Currency"}]},{"type":"error","name":"InputLengthMismatch","inputs":[]},{"type":"error","name":"InvalidBips","inputs":[]},{"type":"error","name":"MessageSenderMismatch","inputs":[]},{"type":"error","name":"NoSwapOccurred","inputs":[]},{"type":"error","name":"NotPoolManager","inputs":[]},{"type":"error","name":"UnexpectedRule","inputs":[]},{"type":"error","name":"UnsupportedAction","inputs":[{"name":"action","type":"uint256","internalType":"uint256"}]},{"type":"error","name":"V4TooLittleReceived","inputs":[]},{"type":"error","name":"V4TooMuchRequested","inputs":[]}],"bytecode":{"object":"0x6101403461017757601f611fd138819003918201601f19168301916001600160401b0383118484101761017b5780849260a094604052833981010312610177578051906001600160a01b0382168203610177576020810151906001600160a01b0382168203610177576100746040820161018f565b60806100826060840161018f565b920151926001600160a01b03841684036101775760808590525f8054336001600160a01b0319821681178355604051979290916001600160a01b0316907f8be0079c531659141344cd1fd0a4f28419497f9722a3daafe3b4186f6b6457e09080a360a05260c052610100526101205260e052611e2d90816101a4823960805181818161023f0152818161033501528181611584015281816115dc015281816116bd01528181611726015281816119400152611beb015260a051818181610a880152610da5015260c051818181610acb015261138c015260e05181611319015261010051816111710152610120518161125d0152f35b5f80fd5b634e487b7160e01b5f52604160045260245ffd5b51906001600160a01b03821682036101775756fe60806040526004361015610011575f80fd5b5f3560e01c80632229d0b414610aef5780632b7ac3f314610aac578063481c6a7514610a69578063542524dd14610a3b578063715018a6146109ca578063823226a4146109585780638da5cb5b1461093357806391dd7346146102dd5780639263aeff1461029c578063c7b8e15d1461027d578063d737d0c714610263578063dc4c90d314610220578063ddf11005146101af5763f2fde38b146100b3575f80fd5b346101ab5760203660031901126101ab576004356001600160a01b0381168091036101ab576100ed6001600160a01b035f54163314611094565b8015610140576001600160a01b035f548273ffffffffffffffffffffffffffffffffffffffff198216175f55167f8be0079c531659141344cd1fd0a4f28419497f9722a3daafe3b4186f6b6457e05f80a3005b60405162461bcd60e51b815260206004820152602660248201527f4f776e61626c653a206e6577206f776e657220697320746865207a65726f206160448201527f64647265737300000000000000000000000000000000000000000000000000006064820152608490fd5b5f80fd5b346101ab576101bd36610fc7565b906101d36001600160a01b035f54163314611094565b5f5b8281106101de57005b806101ec60019285856110df565b3560081c8260ff6101fe8488886110df565b3516825f528160205260405f2054925f52816020521b1760405f2055016101d5565b346101ab575f3660031901126101ab5760206040516001600160a01b037f0000000000000000000000000000000000000000000000000000000000000000168152f35b346101ab575f3660031901126101ab576020604051338152f35b346101ab575f3660031901126101ab5760206040516401000276a48152f35b346101ab5760203660031901126101ab5760206102d36004358060081c5f526001602052600160ff60405f205492161b8091161490565b6040519015158152f35b346101ab5760203660031901126101ab5760043567ffffffffffffffff81116101ab57366023820112156101ab57806004013567ffffffffffffffff81116101ab5736602482840101116101ab576001600160a01b037f00000000000000000000000000000000000000000000000000000000000000001633036109245760248281013583018082013593604480820135820193840135949084019291840385016020011161091557838503610906575f5b858110156108da576044828201013560f81c858210156108c6576103bc6044600584901b87010185611523565b5090600981101561074557600581036104d4575080350160208101906103e282826119e7565b5f9391506103ef836119b3565b6103fb6040850161199f565b906001600160801b038216156104bb575b5f9392915b8285106104535750505050506001600160801b03610432606082930161199f565b16911610610444576001905b0161038f565b6313ecbcff60e31b5f5260045ffd5b8496506001600160801b0361049f9161048661047f87986104796104a49798998c6119e7565b90611a1d565b9586611d0a565b6104936080880188611523565b949093165f0391611af5565b611ce5565b9460016104b187936119b3565b9101939291610411565b90506104ce6104c98261157d565b611de3565b9061040c565b600481036105e057508035016104ec60c0820161199f565b6001600160801b03811615610574575b6001600160801b0361056360e061055c61049f849561052b8661052160a08b01611992565b9216600f0b6119c7565b600f0b9061053c6101008a016119b3565b61054a6101208b018b611523565b939092610557368d610f2e565b611c7f565b940161199f565b16911610610444576001905b61043e565b5061058160a08201611992565b156105ba576001600160801b038061056360e061055c61049f6105ae6104c96105a9896119b3565b61157d565b955050505050506104fc565b6001600160801b038061056360e061055c61049f6105ae6104c96105a960208a016119b3565b600781036106c5575080350160208101906105fb82826119e7565b90505f9261060b6040840161199f565b90610615846119b3565b9291825b61065557505050506001600160801b03610636606082930161199f565b169116116106465760019061043e565b6364b1e96360e11b5f5260045ffd5b81929395506001600160801b036106a49161068a6106836106796106ae968a6119e7565b5f198a0191611a1d565b9889611d0a565b9061069860808b018b611523565b94909316911590611af5565b5f03600f0b611ce5565b936106b985916119b3565b925f1901919082610619565b6006810361073357508035016001600160801b038061063660e061055c61049f61072e6106f460a08901611992565b8661070160c08b0161199f565b16600f0b906107136101008b016119b3565b6107216101208c018c611523565b939092610557368e610f2e565b6119c7565b635cda29d760e01b5f5260045260245ffd5b90919060168103610784575061056f826107736020600195359201359161076b81611939565b903390611690565b61077c8161157d565b9033906115d0565b601081036107b157508135602061079a82611939565b93013583116106465760019261056f913390611690565b601381036107de5750813560206107c78261157d565b93013583106104445760019261056f9133906115d0565b6009810361081e575061056f82600193359060408101355f146108115761080b82602033935b0135611666565b91611690565b61080b8260203093610804565b60128103610851575061056f82600193359061084b8260406108436020850135611556565b930135611651565b916115d0565b60148103610733575081359161086f60206040830135920135611556565b926108798161157d565b61271083116108b7578281029281840414901517156108a35760019361271061056f9304916115d0565b634e487b7160e01b5f52601160045260245ffd5b636f5500f360e11b5f5260045ffd5b634e487b7160e01b5f52603260045260245ffd5b6109026040516108eb602082610ef8565b5f815260405191829160208352602083019061101b565b0390f35b63aaad13f760e01b5f5260045ffd5b633b99b53d60e01b5f5260045ffd5b63570c108560e11b5f5260045ffd5b346101ab575f3660031901126101ab5760206001600160a01b035f5416604051908152f35b346101ab5761096636610fc7565b9061097c6001600160a01b035f54163314611094565b5f5b82811061098757005b8061099560019285856110df565b3560081c8260ff6109a78488886110df565b3516825f528160205260405f2054925f52816020521b191660405f20550161097e565b346101ab575f3660031901126101ab576109ef6001600160a01b035f54163314611094565b5f6001600160a01b03815473ffffffffffffffffffffffffffffffffffffffff1981168355167f8be0079c531659141344cd1fd0a4f28419497f9722a3daafe3b4186f6b6457e08280a3005b346101ab575f3660031901126101ab57602060405173fffd8963efd1fc6a506488495d951d5263988d258152f35b346101ab575f3660031901126101ab5760206040516001600160a01b037f0000000000000000000000000000000000000000000000000000000000000000168152f35b346101ab575f3660031901126101ab5760206040516001600160a01b037f0000000000000000000000000000000000000000000000000000000000000000168152f35b366003190161016081126101ab5760a0136101ab57604051610b1081610ebf565b6004356001600160a01b03811681036101ab5781526024356001600160a01b03811681036101ab57602082015260443562ffffff811681036101ab5760408201526064358060020b81036101ab5760608201526084356001600160a01b03811681036101ab57608082015260603660a31901126101ab57604051610b9381610ea3565b60a43580151581036101ab57815260c435602082015260e4356001600160a01b03811681036101ab5760408201526040610103193601126101ab57604051906040820182811067ffffffffffffffff821117610e8f576040526101043580151581036101ab5782526101243580151581036101ab5760208301526101443567ffffffffffffffff81116101ab57366023820112156101ab57806004013592610c3a84610fab565b94610c486040519687610ef8565b84865236602486850101116101ab57610d9895610d536001600160a01b0395610d28610d68945f60208b829c6024610d769c01838a013787010152610c8d858461113b565b50602060405197610c9d89610ebf565b3389528189019081526040890192835260608901948552608089019687526040519a8b9983808c0152511660408a0152518051151560608a01520151151560808801525160a08701906001600160a01b036080809282815116855282602082015116602086015262ffffff6040820151166040860152606081015160020b6060860152015116910152565b51805115156101408601526020810151610160860152604001516001600160a01b0316610180850152565b516101806101a08401526101c083019061101b565b03601f198101835282610ef8565b604051809381926348c8949160e01b835260206004840152602483019061101b565b0381836001600160a01b037f0000000000000000000000000000000000000000000000000000000000000000165af1908115610e84575f91610e46575b50602081519181808201938492010103126101ab57514780610dfd575b602082604051908152f35b5f80808093335af115610e105781610df2565b3d60405190638549db5960e01b825233600483015260406024830152806044830152805f606484013e601f801991011660640190fd5b90503d805f833e610e578183610ef8565b81016020828203126101ab57815167ffffffffffffffff81116101ab57610e7e920161103f565b81610dd5565b6040513d5f823e3d90fd5b634e487b7160e01b5f52604160045260245ffd5b6060810190811067ffffffffffffffff821117610e8f57604052565b60a0810190811067ffffffffffffffff821117610e8f57604052565b610100810190811067ffffffffffffffff821117610e8f57604052565b90601f8019910116810190811067ffffffffffffffff821117610e8f57604052565b35906001600160a01b03821682036101ab57565b91908260a09103126101ab57604051610f4681610ebf565b8092610f5181610f1a565b8252610f5f60208201610f1a565b6020830152604081013562ffffff811681036101ab5760408301526060810135908160020b82036101ab5760809160608401520135906001600160a01b03821682036101ab5760800152565b67ffffffffffffffff8111610e8f57601f01601f191660200190565b9060206003198301126101ab5760043567ffffffffffffffff81116101ab57826023820112156101ab5780600401359267ffffffffffffffff84116101ab5760248460051b830101116101ab576024019190565b805180835260209291819084018484015e5f828201840152601f01601f1916010190565b81601f820112156101ab5780519061105682610fab565b926110646040519485610ef8565b828452602083830101116101ab57815f9260208093018386015e8301015290565b908160209103126101ab575190565b1561109b57565b606460405162461bcd60e51b815260206004820152602060248201527f4f776e61626c653a2063616c6c6572206973206e6f7420746865206f776e65726044820152fd5b91908110156108c65760051b0190565b604051906110fc82610edb565b606060e0835f81525f60208201525f60408201525f838201525f60808201525f60a08201525f60c08201520152565b600160ff1b81146108a3575f0390565b919061114f906111496110ef565b506112f6565b9160ff835116156112c757600260ff84511603611282578051156112595760207f0000000000000000000000000000000000000000000000000000000000000000915b01515f811215611253576111a59061112b565b905b6001600160a01b038060a08601511691160361120e5760c0830151106111c957565b60405162461bcd60e51b815260206004820152600560248201527f50463030340000000000000000000000000000000000000000000000000000006044820152606490fd5b60405162461bcd60e51b815260206004820152600560248201527f50463030330000000000000000000000000000000000000000000000000000006044820152606490fd5b906111a7565b60207f000000000000000000000000000000000000000000000000000000000000000091611192565b60405162461bcd60e51b815260206004820152600560248201527f50463030350000000000000000000000000000000000000000000000000000006044820152606490fd5b50565b908160209103126101ab575180151581036101ab5790565b51906001600160a01b03821682036101ab57565b6112fe6110ef565b6040516301fd3f7760e71b81523360048201526020816024817f00000000000000000000000000000000000000000000000000000000000000006001600160a01b03165afa908115610e84575f916114f4575b506114ef5750905f61137f9260405180948192630efd9c3b60e21b835260206004840152602483019061101b565b0381836001600160a01b037f0000000000000000000000000000000000000000000000000000000000000000165af1918215610e84575f9261141c575b50816113e460408201518060081c5f526001602052600160ff60405f205492161b8091161490565b1561140d576001600160a01b0360603392015116036113ff57565b62d9c83560e81b5f5260045ffd5b6382a96de560e01b5f5260045ffd5b9091503d805f833e61142e8183610ef8565b8101906020818303126101ab5780519067ffffffffffffffff82116101ab5701610100818303126101ab576040519161146683610edb565b815160ff811681036101ab5783526020820151602084015260408201516040840152611494606083016112e2565b60608401526114a5608083016112e2565b60808401526114b660a083016112e2565b60a084015260c082015160c084015260e082015167ffffffffffffffff81116101ab576114e3920161103f565b60e0820152905f6113bc565b905090565b611516915060203d60201161151c575b61150e8183610ef8565b8101906112ca565b5f611351565b503d611504565b903590601e19813603018212156101ab570180359067ffffffffffffffff82116101ab576020019181360383136101ab57565b6001600160a01b0381166001810361156e5750503390565b60020361157a57503090565b90565b6115a881307f0000000000000000000000000000000000000000000000000000000000000000611a3f565b905f82126115b4575090565b6001600160a01b0390634c085bf160e01b5f521660045260245ffd5b90916001600160a01b037f000000000000000000000000000000000000000000000000000000000000000016803b156101ab575f92836064926001600160a01b0394856040519889978896630b0d9c0960e01b885216600487015216602485015260448401525af18015610e84576116455750565b5f61164f91610ef8565b565b90811561165c575090565b61157a915061157d565b90600160ff1b820361167c5761157a9150611ab3565b8115611686575090565b61157a9150611939565b9091906001600160a01b03168061171c5750604051630476982d60e21b81529150602090829060049082907f00000000000000000000000000000000000000000000000000000000000000006001600160a01b03165af18015610e84576116f45750565b6112c79060203d602011611715575b61170d8183610ef8565b810190611085565b503d611703565b6001600160a01b037f00000000000000000000000000000000000000000000000000000000000000001690813b156101ab57604051632961046560e21b8152600481018290525f9390848160248183885af18015610e845761191a575b509293919284926001600160a01b031630810361186e5750906044602092604051948593849263a9059cbb60e01b845288600485015260248401525af1908115611863578391611844575b50156117ff57602082915b600460405180958193630476982d60e21b83525af19081156117f357506116f45750565b604051903d90823e3d90fd5b60405162461bcd60e51b815260206004820152600f60248201527f5472616e73666572206661696c656400000000000000000000000000000000006044820152606490fd5b61185d915060203d60201161151c5761150e8183610ef8565b5f6117c4565b6040513d85823e3d90fd5b6064906020939460405195869485936323b872dd60e01b8552600485015288602485015260448401525af19081156118635783916118fb575b50156118b657602082916117cf565b60405162461bcd60e51b815260206004820152601360248201527f5472616e7366657246726f6d206661696c6564000000000000000000000000006044820152606490fd5b611914915060203d60201161151c5761150e8183610ef8565b5f6118a7565b6001600160a01b03959394505f61193091610ef8565b5f939294611779565b61196481307f0000000000000000000000000000000000000000000000000000000000000000611a3f565b905f8213611976575061157a9061112b565b6001600160a01b039063019a8d9360e51b5f521660045260245ffd5b3580151581036101ab5790565b356001600160801b03811681036101ab5790565b356001600160a01b03811681036101ab5790565b600f0b6f7fffffffffffffffffffffffffffffff1981146108a3575f0390565b903590601e19813603018212156101ab570180359067ffffffffffffffff82116101ab57602001918160051b360383136101ab57565b91908110156108c65760051b81013590609e19813603018212156101ab570190565b6001600160a01b03809381602094165f52168252602460405f20604051948593849263789add5560e11b84526004840152165afa908115610e84575f91611a84575090565b90506020813d602011611aab575b81611a9f60209383610ef8565b810103126101ab575190565b3d9150611a92565b6001600160a01b031680611ac657504790565b6020602491604051928380926370a0823160e01b82523060048301525afa908115610e84575f91611a84575090565b610144611b929160209396875f14611c6357806401000276a4975b6001600160a01b036040519a611b258c610ea3565b1515998a8c5289898d01521660408b0152611bb96040519a8b978896633cf3645360e21b885260048801906001600160a01b036080809282815116855282602082015116602086015262ffffff6040820151166040860152606081015160020b6060860152015116910152565b8051151560a4870152602081015160c4870152604001516001600160a01b031660e4860152565b61012061010485015281610124850152848401375f838284010152601f801991011681010301815f6001600160a01b037f0000000000000000000000000000000000000000000000000000000000000000165af1928315610e84575f93611c2f575b505f1303611c2957600f0b90565b60801d90565b9092506020813d602011611c5b575b81611c4b60209383610ef8565b810103126101ab5751915f611c1b565b3d9150611c3e565b8073fffd8963efd1fc6a506488495d951d5263988d2597611b10565b6101449086611b929397602095966001600160a01b038116155f14611cdf5750508715611cc457806401000276a45b976001600160a01b036040519a611b258c610ea3565b8073fffd8963efd1fc6a506488495d951d5263988d25611cae565b97611b10565b5f81600f0b12611cfb576001600160801b031690565b6393dafdf160e01b5f5260045ffd5b905f6080604051611d1a81610ebf565b8281528260208201528260408201528260608201520152611d3a826119b3565b6001600160a01b038216916001600160a01b0382168084105f14611dd157506001600160a01b03905b1680921492602081013562ffffff81168091036101ab576040820135918260020b8093036101ab5760600135926001600160a01b0384168094036101ab576001600160a01b039060405195611db787610ebf565b865216602085015260408401526060830152608082015291565b9150506001600160a01b038291611d63565b906001600160801b038216809203611cfb5756fea2646970667358221220d79081e46eb50f07becedc122a276f04acf2e1e9e2bf5e2b55f9bb4f0a99d48564736f6c634300081a0033","linkReferences":{}},"methodIdentifiers":{"MAX_PRICE_LIMIT()":"542524dd","MIN_PRICE_LIMIT()":"c7b8e15d","isExpectedRule(uint256)":"9263aeff","manager()":"481c6a75","msgSender()":"d737d0c7","owner()":"8da5cb5b","poolManager()":"dc4c90d3","renounceOwnership()":"715018a6","setExpectedRuleIds(uint256[])":"ddf11005","swap((address,address,uint24,int24,address),(bool,int256,uint160),(bool,bool),bytes)":"2229d0b4","transferOwnership(address)":"f2fde38b","unlockCallback(bytes)":"91dd7346","unsetExpectedRuleId(uint256[])":"823226a4","verifier()":"2b7ac3f3"},"id":129}