{"abi":[{"type":"function","name":"allowance","inputs":[{"name":"owner","type":"address","internalType":"address"},{"name":"spender","type":"address","internalType":"address"}],"outputs":[{"name":"","type":"uint256","internalType":"uint256"}],"stateMutability":"view"},{"type":"function","name":"approve","inputs":[{"name":"spender","type":"address","internalType":"address"},{"name":"amount","type":"uint256","internalType":"uint256"}],"outputs":[{"name":"","type":"bool","internalType":"bool"}],"stateMutability":"nonpayable"},{"type":"function","name":"balanceOf","inputs":[{"name":"account","type":"address","internalType":"address"}],"outputs":[{"name":"","type":"uint256","internalType":"uint256"}],"stateMutability":"view"},{"type":"function","name":"decimals","inputs":[],"outputs":[{"name":"","type":"uint8","internalType":"uint8"}],"stateMutability":"view"},{"type":"function","name":"decreaseAllowance","inputs":[{"name":"spender","type":"address","internalType":"address"},{"name":"subtractedValue","type":"uint256","internalType":"uint256"}],"outputs":[{"name":"","type":"bool","internalType":"bool"}],"stateMutability":"nonpayable"},{"type":"function","name":"depositFor","inputs":[{"name":"account","type":"address","internalType":"address"},{"name":"amount","type":"uint256","internalType":"uint256"}],"outputs":[{"name":"","type":"bool","internalType":"bool"}],"stateMutability":"nonpayable"},{"type":"function","name":"increaseAllowance","inputs":[{"name":"spender","type":"address","internalType":"address"},{"name":"addedValue","type":"uint256","internalType":"uint256"}],"outputs":[{"name":"","type":"bool","internalType":"bool"}],"stateMutability":"nonpayable"},{"type":"function","name":"name","inputs":[],"outputs":[{"name":"","type":"string","internalType":"string"}],"stateMutability":"view"},{"type":"function","name":"recover","inputs":[{"name":"account","type":"address","internalType":"address"}],"outputs":[{"name":"","type":"uint256","internalType":"uint256"}],"stateMutability":"nonpayable"},{"type":"function","name":"symbol","inputs":[],"outputs":[{"name":"","type":"string","internalType":"string"}],"stateMutability":"view"},{"type":"function","name":"totalSupply","inputs":[],"outputs":[{"name":"","type":"uint256","internalType":"uint256"}],"stateMutability":"view"},{"type":"function","name":"transfer","inputs":[{"name":"recipient","type":"address","internalType":"address"},{"name":"amount","type":"uint256","internalType":"uint256"}],"outputs":[{"name":"","type":"bool","internalType":"bool"}],"stateMutability":"nonpayable"},{"type":"function","name":"transferFrom","inputs":[{"name":"sender","type":"address","internalType":"address"},{"name":"recipient","type":"address","internalType":"address"},{"name":"amount","type":"uint256","internalType":"uint256"}],"outputs":[{"name":"","type":"bool","internalType":"bool"}],"stateMutability":"nonpayable"},{"type":"function","name":"underlying","inputs":[],"outputs":[{"name":"","type":"address","internalType":"contract IERC20Upgradeable"}],"stateMutability":"view"},{"type":"function","name":"withdrawTo","inputs":[{"name":"account","type":"address","internalType":"address"},{"name":"amount","type":"uint256","internalType":"uint256"}],"outputs":[{"name":"","type":"bool","internalType":"bool"}],"stateMutability":"nonpayable"},{"type":"event","name":"Approval","inputs":[{"name":"owner","type":"address","indexed":true,"internalType":"address"},{"name":"spender","type":"address","indexed":true,"internalType":"address"},{"name":"value","type":"uint256","indexed":false,"internalType":"uint256"}],"anonymous":false},{"type":"event","name":"Transfer","inputs":[{"name":"from","type":"address","indexed":true,"internalType":"address"},{"name":"to","type":"address","indexed":true,"internalType":"address"},{"name":"value","type":"uint256","indexed":false,"internalType":"uint256"}],"anonymous":false}],"bytecode":{"object":"0x60808060405234601557610f9f908161001a8239f35b5f80fdfe60806040526004361015610011575f80fd5b5f3560e01c806306fdde0314610104578063095ea7b3146100ff5780630cd865ec146100fa57806318160ddd146100f5578063205c2878146100f057806323b872dd146100eb5780632f4f21e2146100e6578063313ce567146100e157806339509351146100dc5780636f307dc3146100d757806370a08231146100d257806395d89b41146100cd578063a457c2d7146100c8578063a9059cbb146100c35763dd62ed3e146100be575f80fd5b61082c565b610806565b610743565b61068e565b610656565b610630565b6105d4565b6105b9565b61054e565b61046f565b610353565b610336565b610287565b610256565b610133565b602060409281835280519182918282860152018484015e5f828201840152601f01601f1916010190565b34610226575f366003190112610226576040515f6036548060011c906001811690811561021c575b6020831082146102085782855260208501919081156101ef575060011461019d575b6101998461018d81860382610899565b60405191829182610109565b0390f35b60365f9081529250907f4a11f94e20a93c79f6ec743a1954ec4fc2c08429ae2122118bf234b2185c81b85b8184106101db5750500161018d8261017d565b8054848401526020909301926001016101c8565b60ff191682525090151560051b01905061018d8261017d565b634e487b7160e01b5f52602260045260245ffd5b91607f169161015b565b5f80fd5b600435906001600160a01b038216820361022657565b602435906001600160a01b038216820361022657565b346102265760403660031901126102265761027c61027261022a565b60243590336108e1565b602060405160018152f35b346102265760203660031901126102265760246102a261022a565b60206001600160a01b0360655416604051938480926370a0823160e01b82523060048301525afa8015610331576102eb6102f291610199945f91610302575b5060355490610a2f565b8092610ccc565b6040519081529081906020820190565b610324915060203d60201161032a575b61031c8183610899565b810190610a15565b5f6102e1565b503d610312565b610a24565b34610226575f366003190112610226576020603554604051908152f35b346102265760403660031901126102265761036c61022a565b6024353315610420576104149181610395336001600160a01b03165f52603360205260405f2090565b546103a282821015610a3c565b036103be336001600160a01b03165f52603360205260405f2090565b556103d36103ce83603554610a2f565b603555565b6040518281525f9033907fddf252ad1be2c89b69c2b068fc378daa952ba7f163c4a11628f55a4df523b3ef90602090a36065546001600160a01b0316610a93565b60405160018152602090f35b60405162461bcd60e51b815260206004820152602160248201527f45524332303a206275726e2066726f6d20746865207a65726f206164647265736044820152607360f81b6064820152608490fd5b346102265760603660031901126102265761048861022a565b610490610240565b9061049f604435809383610b96565b6001600160a01b0381165f5260346020526104cd60405f20336001600160a01b03165f5260205260405f2090565b54918083106104e35761041492039033906108e1565b60405162461bcd60e51b815260206004820152602860248201527f45524332303a207472616e7366657220616d6f756e742065786365656473206160448201527f6c6c6f77616e63650000000000000000000000000000000000000000000000006064820152608490fd5b346102265760403660031901126102265761041461056a61022a565b602435906105b46001600160a01b0360655416604051906323b872dd60e01b6020830152336024830152306044830152846064830152606482526105af608483610899565b610e1b565b610ccc565b34610226575f36600319011261022657602060405160128152f35b34610226576040366003190112610226576105ed61022a565b602435335f5260346020526106168260405f20906001600160a01b03165f5260205260405f2090565b5490810180911161062b5761027c91336108e1565b6108c0565b34610226575f3660031901126102265760206001600160a01b0360655416604051908152f35b34610226576020366003190112610226576001600160a01b0361067761022a565b165f526033602052602060405f2054604051908152f35b34610226575f366003190112610226576040515f6037548060011c9060018116908115610739575b6020831082146102085782855260208501919081156101ef57506001146106e7576101998461018d81860382610899565b60375f9081529250907f42a7b7dd785cd69714a189dffb3fd7d7174edc9ece837694ce50f7078f7c31ae5b8184106107255750500161018d8261017d565b805484840152602090930192600101610712565b91607f16916106b6565b346102265760403660031901126102265761075c61022a565b60243590335f5260346020526107868160405f20906001600160a01b03165f5260205260405f2090565b549180831061079b57610414920390336108e1565b60405162461bcd60e51b815260206004820152602560248201527f45524332303a2064656372656173656420616c6c6f77616e63652062656c6f7760448201527f207a65726f0000000000000000000000000000000000000000000000000000006064820152608490fd5b346102265760403660031901126102265761027c61082261022a565b6024359033610b96565b3461022657604036600319011261022657602061087c61084a61022a565b6001600160a01b0361085a610240565b91165f526034835260405f20906001600160a01b03165f5260205260405f2090565b54604051908152f35b634e487b7160e01b5f52604160045260245ffd5b90601f8019910116810190811067ffffffffffffffff8211176108bb57604052565b610885565b634e487b7160e01b5f52601160045260245ffd5b9190820180921161062b57565b906001600160a01b0382169182156109c4576001600160a01b038216938415610974578061095e7f8c5be1e5ebec7d5bd14f71427d1e84f3dd0314c0f7b2291e5b200ac8c7c3b9259461094861096f956001600160a01b03165f52603460205260405f2090565b906001600160a01b03165f5260205260405f2090565b556040519081529081906020820190565b0390a3565b60405162461bcd60e51b815260206004820152602260248201527f45524332303a20617070726f766520746f20746865207a65726f206164647265604482015261737360f01b6064820152608490fd5b60405162461bcd60e51b8152602060048201526024808201527f45524332303a20617070726f76652066726f6d20746865207a65726f206164646044820152637265737360e01b6064820152608490fd5b90816020910312610226575190565b6040513d5f823e3d90fd5b9190820391821161062b57565b15610a4357565b60405162461bcd60e51b815260206004820152602260248201527f45524332303a206275726e20616d6f756e7420657863656564732062616c616e604482015261636560f01b6064820152608490fd5b610aca926001600160a01b036040519363a9059cbb60e01b60208601521660248401526044830152604482526105af606483610899565b565b15610ad357565b60405162461bcd60e51b815260206004820152602360248201527f45524332303a207472616e7366657220746f20746865207a65726f206164647260448201526265737360e81b6064820152608490fd5b15610b2b57565b60405162461bcd60e51b815260206004820152602660248201527f45524332303a207472616e7366657220616d6f756e742065786365656473206260448201527f616c616e636500000000000000000000000000000000000000000000000000006064820152608490fd5b916001600160a01b038316918215610c61577fddf252ad1be2c89b69c2b068fc378daa952ba7f163c4a11628f55a4df523b3ef91610c44826001600160a01b0361096f941696610be7881515610acc565b610c2c84610c06836001600160a01b03165f52603360205260405f2090565b54610c1382821015610b24565b03916001600160a01b03165f52603360205260405f2090565b556001600160a01b03165f52603360205260405f2090565b610c4f8282546108d4565b90556040519081529081906020820190565b60405162461bcd60e51b815260206004820152602560248201527f45524332303a207472616e736665722066726f6d20746865207a65726f20616460448201527f64726573730000000000000000000000000000000000000000000000000000006064820152608490fd5b906001600160a01b038216918215610d4c576035549082820180921161062b57610d0a916035556001600160a01b03165f52603360205260405f2090565b80549082820180921161062b57556040519081525f907fddf252ad1be2c89b69c2b068fc378daa952ba7f163c4a11628f55a4df523b3ef90806020810161096f565b60405162461bcd60e51b815260206004820152601f60248201527f45524332303a206d696e7420746f20746865207a65726f2061646472657373006044820152606490fd5b90816020910312610226575180151581036102265790565b15610db057565b60405162461bcd60e51b815260206004820152602a60248201527f5361666545524332303a204552433230206f7065726174696f6e20646964206e60448201527f6f742073756363656564000000000000000000000000000000000000000000006064820152608490fd5b6001600160a01b03169060405190610e34604083610899565b602082527f5361666545524332303a206c6f772d6c6576656c2063616c6c206661696c65646020830152823b15610ea9575f81610e84948260208195519301915af1610e7e610eee565b90610f2d565b805180610e8f575050565b81602080610ea493610aca9501019101610d91565b610da9565b60405162461bcd60e51b815260206004820152601d60248201527f416464726573733a2063616c6c20746f206e6f6e2d636f6e74726163740000006044820152606490fd5b3d15610f28573d9067ffffffffffffffff82116108bb5760405191610f1d601f8201601f191660200184610899565b82523d5f602084013e565b606090565b90919015610f39575090565b815115610f495750805190602001fd5b60405162461bcd60e51b8152908190610f659060048301610109565b0390fdfea26469706673582212207f25fa402af7013af86ffa0a324d16441b8ebae4bef5050c2cd81ed5df6ca25064736f6c634300081a0033","linkReferences":{}},"methodIdentifiers":{"allowance(address,address)":"dd62ed3e","approve(address,uint256)":"095ea7b3","balanceOf(address)":"70a08231","decimals()":"313ce567","decreaseAllowance(address,uint256)":"a457c2d7","depositFor(address,uint256)":"2f4f21e2","increaseAllowance(address,uint256)":"39509351","name()":"06fdde03","recover(address)":"0cd865ec","symbol()":"95d89b41","totalSupply()":"18160ddd","transfer(address,uint256)":"a9059cbb","transferFrom(address,address,uint256)":"23b872dd","underlying()":"6f307dc3","withdrawTo(address,uint256)":"205c2878"},"id":351}