{"abi":[{"type":"function","name":"at","inputs":[{"name":"index","type":"uint256","internalType":"uint256"}],"outputs":[{"name":"key","type":"uint256","internalType":"uint256"},{"name":"value","type":"address","internalType":"address"}],"stateMutability":"view"},{"type":"function","name":"contains","inputs":[{"name":"key","type":"uint256","internalType":"uint256"}],"outputs":[{"name":"","type":"bool","internalType":"bool"}],"stateMutability":"view"},{"type":"function","name":"get","inputs":[{"name":"key","type":"uint256","internalType":"uint256"}],"outputs":[{"name":"","type":"address","internalType":"address"}],"stateMutability":"view"},{"type":"function","name":"getWithMessage","inputs":[{"name":"key","type":"uint256","internalType":"uint256"},{"name":"errorMessage","type":"string","internalType":"string"}],"outputs":[{"name":"","type":"address","internalType":"address"}],"stateMutability":"view"},{"type":"function","name":"length","inputs":[],"outputs":[{"name":"","type":"uint256","internalType":"uint256"}],"stateMutability":"view"},{"type":"function","name":"remove","inputs":[{"name":"key","type":"uint256","internalType":"uint256"}],"outputs":[],"stateMutability":"nonpayable"},{"type":"function","name":"set","inputs":[{"name":"key","type":"uint256","internalType":"uint256"},{"name":"value","type":"address","internalType":"address"}],"outputs":[],"stateMutability":"nonpayable"},{"type":"function","name":"tryGet","inputs":[{"name":"key","type":"uint256","internalType":"uint256"}],"outputs":[{"name":"","type":"bool","internalType":"bool"},{"name":"","type":"address","internalType":"address"}],"stateMutability":"view"},{"type":"event","name":"OperationResult","inputs":[{"name":"result","type":"bool","indexed":false,"internalType":"bool"}],"anonymous":false}],"bytecode":{"object":"0x608080604052346015576105c3908161001a8239f35b5f80fdfe6080806040526004361015610012575f80fd5b5f3560e01c9081631f7b6d32146103ef575080632f30c6f61461038d5780634cc8221514610336578063871394d9146102ff5780639507d39a14610257578063c051a3a614610127578063c34052e0146100f35763e0886f9014610074575f80fd5b346100ef5760203660031901126100ef576004355f548110156100db577f290decd9548b62a8d60345a988386fc84ba6bc95484008f6362f93160ef3e56301545f818152600260209081526040918290205482519384526001600160a01b03169083015290f35b634e487b7160e01b5f52603260045260245ffd5b5f80fd5b346100ef5760203660031901126100ef57602061011d6004355f52600160205260405f2054151590565b6040519015158152f35b346100ef5760403660031901126100ef5760243560043567ffffffffffffffff82116100ef57366023830112156100ef57816004013567ffffffffffffffff81116100ef5736602482850101116100ef5760405190601f8101601f19908116603f0116820167ffffffffffffffff811183821017610243575f916020916040528084528060248386019701873783010152815f52600260205260405f205491821590811591610227575b50156101eb576020826001600160a01b0360405191168152f35b6044915060405192839162461bcd60e51b8352602060048401525180918160248501528484015e5f828201840152601f01601f19168101030190fd5b61023d91505f52600160205260405f2054151590565b846101d1565b634e487b7160e01b5f52604160045260245ffd5b346100ef5760203660031901126100ef57600435805f52600260205260405f2054908115908115916102e3575b501561029e576020906001600160a01b0360405191168152f35b60405162461bcd60e51b815260206004820152601e60248201527f456e756d657261626c654d61703a206e6f6e6578697374656e74206b657900006044820152606490fd5b6102f991505f52600160205260405f2054151590565b82610284565b346100ef5760203660031901126100ef5760406001600160a01b03610325600435610408565b835191151582529091166020820152f35b346100ef5760203660031901126100ef577fed9840e0775590557ad736875d96c95cf1458b766335f74339951a32c82a9e336020610382600435805f52600283525f60408120556104ba565b6040519015158152a1005b346100ef5760403660031901126100ef57600435602435906001600160a01b0382168092036100ef57610382817fed9840e0775590557ad736875d96c95cf1458b766335f74339951a32c82a9e33936020935f526002845260405f205561044e565b346100ef575f3660031901126100ef576020905f548152f35b805f52600260205260405f205480155f1461043157505f52600160205260405f20541515905f90565b600192909150565b80548210156100db575f5260205f2001905f90565b805f52600160205260405f2054155f146104b5575f54680100000000000000008110156102435761049f6104898260018594015f555f610439565b819391549060031b91821b915f19901b19161790565b90555f54905f52600160205260405f2055600190565b505f90565b5f818152600160205260409020548015610587575f198101818111610573575f545f198101919082116105735780820361053d575b5050505f548015610529575f1901610507815f610439565b8154905f199060031b1b191690555f555f5260016020525f6040812055600190565b634e487b7160e01b5f52603160045260245ffd5b61055d61054d610489935f610439565b90549060031b1c9283925f610439565b90555f52600160205260405f20555f80806104ef565b634e487b7160e01b5f52601160045260245ffd5b50505f9056fea2646970667358221220ced9642e308953c7348b32d56ae8a9ba4b8c66e008a58ff9bd062d89c243184164736f6c634300081a0033","linkReferences":{}},"methodIdentifiers":{"at(uint256)":"e0886f90","contains(uint256)":"c34052e0","get(uint256)":"9507d39a","getWithMessage(uint256,string)":"c051a3a6","length()":"1f7b6d32","remove(uint256)":"4cc82215","set(uint256,address)":"2f30c6f6","tryGet(uint256)":"871394d9"},"id":193}