{"abi":[{"type":"function","name":"getAmount0ForLiquidity","inputs":[{"name":"sqrtPriceAX96","type":"uint160","internalType":"uint160"},{"name":"sqrtPriceBX96","type":"uint160","internalType":"uint160"},{"name":"liquidity","type":"uint128","internalType":"uint128"}],"outputs":[{"name":"amount0","type":"uint256","internalType":"uint256"}],"stateMutability":"pure"},{"type":"function","name":"getAmount1ForLiquidity","inputs":[{"name":"sqrtPriceAX96","type":"uint160","internalType":"uint160"},{"name":"sqrtPriceBX96","type":"uint160","internalType":"uint160"},{"name":"liquidity","type":"uint128","internalType":"uint128"}],"outputs":[{"name":"amount1","type":"uint256","internalType":"uint256"}],"stateMutability":"pure"},{"type":"function","name":"getAmountsForLiquidity","inputs":[{"name":"sqrtPriceX96","type":"uint160","internalType":"uint160"},{"name":"sqrtPriceAX96","type":"uint160","internalType":"uint160"},{"name":"sqrtPriceBX96","type":"uint160","internalType":"uint160"},{"name":"liquidity","type":"uint128","internalType":"uint128"}],"outputs":[{"name":"amount0","type":"uint256","internalType":"uint256"},{"name":"amount1","type":"uint256","internalType":"uint256"}],"stateMutability":"pure"},{"type":"function","name":"getLiquidityForAmount0","inputs":[{"name":"sqrtPriceAX96","type":"uint160","internalType":"uint160"},{"name":"sqrtPriceBX96","type":"uint160","internalType":"uint160"},{"name":"amount0","type":"uint256","internalType":"uint256"}],"outputs":[{"name":"liquidity","type":"uint128","internalType":"uint128"}],"stateMutability":"pure"},{"type":"function","name":"getLiquidityForAmount1","inputs":[{"name":"sqrtPriceAX96","type":"uint160","internalType":"uint160"},{"name":"sqrtPriceBX96","type":"uint160","internalType":"uint160"},{"name":"amount1","type":"uint256","internalType":"uint256"}],"outputs":[{"name":"liquidity","type":"uint128","internalType":"uint128"}],"stateMutability":"pure"},{"type":"function","name":"getLiquidityForAmounts","inputs":[{"name":"sqrtPriceX96","type":"uint160","internalType":"uint160"},{"name":"sqrtPriceAX96","type":"uint160","internalType":"uint160"},{"name":"sqrtPriceBX96","type":"uint160","internalType":"uint160"},{"name":"amount0","type":"uint256","internalType":"uint256"},{"name":"amount1","type":"uint256","internalType":"uint256"}],"outputs":[{"name":"liquidity","type":"uint128","internalType":"uint128"}],"stateMutability":"pure"},{"type":"function","name":"toUint128","inputs":[{"name":"x","type":"uint256","internalType":"uint256"}],"outputs":[{"name":"y","type":"uint128","internalType":"uint128"}],"stateMutability":"pure"}],"bytecode":{"object":"0x608080604052346015576106c0908161001a8239f35b5f80fdfe60806040526004361015610011575f80fd5b5f3560e01c806308c0f795146102d057806329e24cb71461029c5780636098fd4a146101bf57806367df6e89146101a65780636ac69a8e1461016a578063809fdd331461013b5763c72e160b14610066575f80fd5b346101375760803660031901126101375761007f6102e9565b6100876102ff565b90610090610315565b916064356001600160801b0381168103610137576040935f928382826001600160a01b038083169082161161012c575b50506001600160a01b0386811690831681116100f15750506100e3939450610469565b905b82519182526020820152f35b919450906001600160a01b03831611156101215750926101168261011c949583610469565b936103e8565b6100e5565b935061011c926103e8565b935091505f806100c0565b5f80fd5b346101375760203660031901126101375760206101596004356104e0565b6001600160801b0360405191168152f35b3461013757606036600319011261013757602061019e6101886102e9565b6101906102ff565b610198610365565b91610469565b604051908152f35b346101375760206101596101b93661032b565b91610419565b346101375760a03660031901126101375760206101da6102e9565b6101e26102ff565b6101ea610315565b6064359160843582826001600160a01b0382166001600160a01b03821611610291575b50506001600160a01b038581169590831686116102305750506101599350610419565b92909391946001600160a01b038216115f146102855782916102569161025c9594610419565b936103af565b6001600160801b0381166001600160801b038316105f1461027e57505b610159565b9050610159565b915050610279926103af565b93509150868061020d565b3461013757606036600319011261013757602061019e6102ba6102e9565b6102c26102ff565b6102ca610365565b916103e8565b346101375760206101596102e33661032b565b916103af565b600435906001600160a01b038216820361013757565b602435906001600160a01b038216820361013757565b604435906001600160a01b038216820361013757565b6060906003190112610137576004356001600160a01b038116810361013757906024356001600160a01b0381168103610137579060443590565b604435906001600160801b038216820361013757565b906001600160a01b03809116911603906001600160a01b03821161039b57565b634e487b7160e01b5f52601160045260245ffd5b916001600160a01b036103d36103df946103da94838116848316116103e25761037b565b1690610539565b6104e0565b90565b9061037b565b6001600160a01b036104116001600160801b03926103df9594838116848316116103e25761037b565b1691166105c1565b916103da916103df936001600160a01b0382166001600160a01b03821611610463575b61045c6001600160a01b03916104568385168483166105c1565b9361037b565b169161060a565b9061043c565b916104b9906001600160a01b0392838116848616116104da575b7bffffffffffffffffffffffffffffffff00000000000000000000000084806104ac888561037b565b1692169260601b1661060a565b91169081156104c6570490565b634e487b7160e01b5f52601260045260245ffd5b93610483565b906001600160801b0382169182036104f457565b60405162461bcd60e51b815260206004820152601260248201527f6c6971756964697479206f766572666c6f7700000000000000000000000000006044820152606490fd5b908160601b905f19600160601b84099282808510940393808503948584111561013757146105ba57600160601b82910981805f03168092046002816003021880820260020302808202600203028082026002030280820260020302808202600203028091026002030293600183805f03040190848311900302920304170290565b5091500490565b81810291905f1982820991838084109303928084039384600160601b1115610137571461060157600160601b910990828211900360a01b910360601c1790565b50505060601c90565b91818302915f19818509938380861095039480860395868511156101375714610682579082910981805f03168092046002816003021880820260020302808202600203028082026002030280820260020302808202600203028091026002030293600183805f03040190848311900302920304170290565b50509150049056fea2646970667358221220ecf99c2d32f14c09005ec2483a1afa69d435047adc24099d84bfbf4fd039a25264736f6c634300081a0033","linkReferences":{}},"methodIdentifiers":{"getAmount0ForLiquidity(uint160,uint160,uint128)":"6ac69a8e","getAmount1ForLiquidity(uint160,uint160,uint128)":"29e24cb7","getAmountsForLiquidity(uint160,uint160,uint160,uint128)":"c72e160b","getLiquidityForAmount0(uint160,uint160,uint256)":"67df6e89","getLiquidityForAmount1(uint160,uint160,uint256)":"08c0f795","getLiquidityForAmounts(uint160,uint160,uint160,uint256,uint256)":"6098fd4a","toUint128(uint256)":"809fdd33"},"id":2}