{"abi":[{"type":"constructor","inputs":[{"name":"name","type":"string","internalType":"string"},{"name":"symbol","type":"string","internalType":"string"}],"stateMutability":"nonpayable"},{"type":"function","name":"approve","inputs":[{"name":"to","type":"address","internalType":"address"},{"name":"tokenId","type":"uint256","internalType":"uint256"}],"outputs":[],"stateMutability":"nonpayable"},{"type":"function","name":"balanceOf","inputs":[{"name":"owner","type":"address","internalType":"address"}],"outputs":[{"name":"","type":"uint256","internalType":"uint256"}],"stateMutability":"view"},{"type":"function","name":"burn","inputs":[{"name":"tokenId","type":"uint256","internalType":"uint256"}],"outputs":[],"stateMutability":"nonpayable"},{"type":"function","name":"exists","inputs":[{"name":"tokenId","type":"uint256","internalType":"uint256"}],"outputs":[{"name":"","type":"bool","internalType":"bool"}],"stateMutability":"view"},{"type":"function","name":"getApproved","inputs":[{"name":"tokenId","type":"uint256","internalType":"uint256"}],"outputs":[{"name":"","type":"address","internalType":"address"}],"stateMutability":"view"},{"type":"function","name":"isApprovedForAll","inputs":[{"name":"owner","type":"address","internalType":"address"},{"name":"operator","type":"address","internalType":"address"}],"outputs":[{"name":"","type":"bool","internalType":"bool"}],"stateMutability":"view"},{"type":"function","name":"mint","inputs":[{"name":"to","type":"address","internalType":"address"},{"name":"tokenId","type":"uint256","internalType":"uint256"}],"outputs":[],"stateMutability":"nonpayable"},{"type":"function","name":"name","inputs":[],"outputs":[{"name":"","type":"string","internalType":"string"}],"stateMutability":"view"},{"type":"function","name":"ownerOf","inputs":[{"name":"tokenId","type":"uint256","internalType":"uint256"}],"outputs":[{"name":"","type":"address","internalType":"address"}],"stateMutability":"view"},{"type":"function","name":"pause","inputs":[],"outputs":[],"stateMutability":"nonpayable"},{"type":"function","name":"paused","inputs":[],"outputs":[{"name":"","type":"bool","internalType":"bool"}],"stateMutability":"view"},{"type":"function","name":"safeMint","inputs":[{"name":"to","type":"address","internalType":"address"},{"name":"tokenId","type":"uint256","internalType":"uint256"},{"name":"_data","type":"bytes","internalType":"bytes"}],"outputs":[],"stateMutability":"nonpayable"},{"type":"function","name":"safeMint","inputs":[{"name":"to","type":"address","internalType":"address"},{"name":"tokenId","type":"uint256","internalType":"uint256"}],"outputs":[],"stateMutability":"nonpayable"},{"type":"function","name":"safeTransferFrom","inputs":[{"name":"from","type":"address","internalType":"address"},{"name":"to","type":"address","internalType":"address"},{"name":"tokenId","type":"uint256","internalType":"uint256"}],"outputs":[],"stateMutability":"nonpayable"},{"type":"function","name":"safeTransferFrom","inputs":[{"name":"from","type":"address","internalType":"address"},{"name":"to","type":"address","internalType":"address"},{"name":"tokenId","type":"uint256","internalType":"uint256"},{"name":"_data","type":"bytes","internalType":"bytes"}],"outputs":[],"stateMutability":"nonpayable"},{"type":"function","name":"setApprovalForAll","inputs":[{"name":"operator","type":"address","internalType":"address"},{"name":"approved","type":"bool","internalType":"bool"}],"outputs":[],"stateMutability":"nonpayable"},{"type":"function","name":"supportsInterface","inputs":[{"name":"interfaceId","type":"bytes4","internalType":"bytes4"}],"outputs":[{"name":"","type":"bool","internalType":"bool"}],"stateMutability":"view"},{"type":"function","name":"symbol","inputs":[],"outputs":[{"name":"","type":"string","internalType":"string"}],"stateMutability":"view"},{"type":"function","name":"tokenURI","inputs":[{"name":"tokenId","type":"uint256","internalType":"uint256"}],"outputs":[{"name":"","type":"string","internalType":"string"}],"stateMutability":"view"},{"type":"function","name":"transferFrom","inputs":[{"name":"from","type":"address","internalType":"address"},{"name":"to","type":"address","internalType":"address"},{"name":"tokenId","type":"uint256","internalType":"uint256"}],"outputs":[],"stateMutability":"nonpayable"},{"type":"function","name":"unpause","inputs":[],"outputs":[],"stateMutability":"nonpayable"},{"type":"event","name":"Approval","inputs":[{"name":"owner","type":"address","indexed":true,"internalType":"address"},{"name":"approved","type":"address","indexed":true,"internalType":"address"},{"name":"tokenId","type":"uint256","indexed":true,"internalType":"uint256"}],"anonymous":false},{"type":"event","name":"ApprovalForAll","inputs":[{"name":"owner","type":"address","indexed":true,"internalType":"address"},{"name":"operator","type":"address","indexed":true,"internalType":"address"},{"name":"approved","type":"bool","indexed":false,"internalType":"bool"}],"anonymous":false},{"type":"event","name":"Paused","inputs":[{"name":"account","type":"address","indexed":false,"internalType":"address"}],"anonymous":false},{"type":"event","name":"Transfer","inputs":[{"name":"from","type":"address","indexed":true,"internalType":"address"},{"name":"to","type":"address","indexed":true,"internalType":"address"},{"name":"tokenId","type":"uint256","indexed":true,"internalType":"uint256"}],"anonymous":false},{"type":"event","name":"Unpaused","inputs":[{"name":"account","type":"address","indexed":false,"internalType":"address"}],"anonymous":false}],"bytecode":{"object":"0x60806040523461031557611b8f8038038061001981610319565b9283398101906040818303126103155780516001600160401b038111610315578261004591830161033e565b60208201519092906001600160401b03811161031557610065920161033e565b81516001600160401b03811161022b575f54600181811c9116801561030b575b602082101461020d57601f81116102a9575b50602092601f821160011461024a57928192935f9261023f575b50508160011b915f199060031b1c1916175f555b80516001600160401b03811161022b57600154600181811c91168015610221575b602082101461020d57601f81116101aa575b50602091601f821160011461014a579181925f9261013f575b50508160011b915f199060031b1c1916176001555b60ff19600654166006556040516117ff90816103908239f35b015190505f80610111565b601f1982169260015f52805f20915f5b8581106101925750836001951061017a575b505050811b01600155610126565b01515f1960f88460031b161c191690555f808061016c565b9192602060018192868501518155019401920161015a565b60015f527fb10e2d527612073b26eecdfd717e6a320cf44b4afac2b0732d9fcbe2b7fa0cf6601f830160051c81019160208410610203575b601f0160051c01905b8181106101f857506100f8565b5f81556001016101eb565b90915081906101e2565b634e487b7160e01b5f52602260045260245ffd5b90607f16906100e6565b634e487b7160e01b5f52604160045260245ffd5b015190505f806100b1565b601f198216935f8052805f20915f5b8681106102915750836001959610610279575b505050811b015f556100c5565b01515f1960f88460031b161c191690555f808061026c565b91926020600181928685015181550194019201610259565b5f80527f290decd9548b62a8d60345a988386fc84ba6bc95484008f6362f93160ef3e563601f830160051c81019160208410610301575b601f0160051c01905b8181106102f65750610097565b5f81556001016102e9565b90915081906102e0565b90607f1690610085565b5f80fd5b6040519190601f01601f191682016001600160401b0381118382101761022b57604052565b81601f82011215610315578051906001600160401b03821161022b5761036d601f8301601f1916602001610319565b928284526020838301011161031557815f9260208093018386015e830101529056fe60806040526004361015610011575f80fd5b5f3560e01c806301ffc9a71461016457806306fdde031461015f578063081812fc1461015a578063095ea7b31461015557806323b872dd146101505780633f4ba83a1461014b57806340c10f191461014657806342842e0e1461014157806342966c681461013c5780634f558e79146101375780635c975abb146101325780636352211e1461012d57806370a08231146101285780638456cb59146101235780638832e6e31461011e57806395d89b4114610119578063a144819414610114578063a22cb4651461010f578063b88d4fde1461010a578063c87b56dd146101055763e985e9c514610100575f80fd5b610cc1565b610bc4565b610b75565b610a8c565b610a4e565b610999565b61093f565b61080b565b610758565b61073a565b610718565b6106db565b6105c3565b61059a565b610575565b6104e1565b6104b8565b610388565b61032d565b61023d565b610197565b7fffffffff0000000000000000000000000000000000000000000000000000000081160361019357565b5f80fd5b346101935760203660031901126101935760206004356101b681610169565b63ffffffff60e01b166380ac58cd60e01b81149081156101f4575b81156101e3575b506040519015158152f35b6301ffc9a760e01b1490505f6101d8565b635b5e139f60e01b811491506101d1565b805180835260209291819084018484015e5f828201840152601f01601f1916010190565b90602061023a928181520190610205565b90565b34610193575f366003190112610193576040515f80548060011c9060018116908115610323575b60208310821461030f5782855260208501919081156102f657506001146102a6575b6102a284610296818603826108b6565b60405191829182610229565b0390f35b5f8080529250907f290decd9548b62a8d60345a988386fc84ba6bc95484008f6362f93160ef3e5635b8184106102e25750500161029682610286565b8054848401526020909301926001016102cf565b60ff191682525090151560051b01905061029682610286565b634e487b7160e01b5f52602260045260245ffd5b91607f1691610264565b3461019357602036600319011261019357602061034b600435610d1f565b6001600160a01b0360405191168152f35b600435906001600160a01b038216820361019357565b602435906001600160a01b038216820361019357565b34610193576040366003190112610193576103a161035c565b6024356103ad81610eac565b916001600160a01b038316806001600160a01b0383161461042f576103e5936103e09133149081156103e7575b50610db4565b610fc3565b005b61042991506104229061040c33916001600160a01b03165f52600560205260405f2090565b906001600160a01b03165f5260205260405f2090565b5460ff1690565b5f6103da565b60405162461bcd60e51b815260206004820152602160248201527f4552433732313a20617070726f76616c20746f2063757272656e74206f776e656044820152603960f91b6064820152608490fd5b6060906003190112610193576004356001600160a01b038116810361019357906024356001600160a01b0381168103610193579060443590565b34610193576103e56104c93661047e565b916104dc6104d7843361102a565b610e26565b6111b9565b34610193575f3660031901126101935760065460ff8116156105305760ff19166006557f5db9ee0a495bf2e6ff9c91a7834c1ba4fdd244a5e8aa4e537bd38aeae4b073aa6020604051338152a1005b60405162461bcd60e51b815260206004820152601460248201527f5061757361626c653a206e6f74207061757365640000000000000000000000006044820152606490fd5b34610193576040366003190112610193576103e561059161035c565b6024359061130e565b34610193576103e56105ab3661047e565b90604051926105bb6020856108b6565b5f8452610f35565b34610193576020366003190112610193576004356105e081610eac565b60ff60065416610670576001600160a01b035f916105fd84610f70565b610618816001600160a01b03165f52600360205260405f2090565b610622815461118a565b9055610649610639855f52600260205260405f2090565b6001600160a01b03198154169055565b167fddf252ad1be2c89b69c2b068fc378daa952ba7f163c4a11628f55a4df523b3ef8280a4005b60405162461bcd60e51b815260206004820152602b60248201527f4552433732315061757361626c653a20746f6b656e207472616e73666572207760448201527f68696c65207061757365640000000000000000000000000000000000000000006064820152608490fd5b3461019357602036600319011261019357602061070e6004355f5260026020526001600160a01b0360405f205416151590565b6040519015158152f35b34610193575f36600319011261019357602060ff600654166040519015158152f35b3461019357602036600319011261019357602061034b600435610eac565b34610193576020366003190112610193576001600160a01b0361077961035c565b1680156107a0575f5260036020526102a260405f2054604051918291829190602083019252565b60405162461bcd60e51b815260206004820152602a60248201527f4552433732313a2062616c616e636520717565727920666f7220746865207a6560448201527f726f2061646472657373000000000000000000000000000000000000000000006064820152608490fd5b34610193575f3660031901126101935760065460ff811661085d5760019060ff1916176006557f62e78cea01bee320cd4e420270b5ea74000d11b0c9f74754ebdbfc544b05a2586020604051338152a1005b60405162461bcd60e51b815260206004820152601060248201527f5061757361626c653a20706175736564000000000000000000000000000000006044820152606490fd5b634e487b7160e01b5f52604160045260245ffd5b90601f8019910116810190811067ffffffffffffffff8211176108d857604052565b6108a2565b67ffffffffffffffff81116108d857601f01601f191660200190565b81601f8201121561019357803590610910826108dd565b9261091e60405194856108b6565b8284526020838301011161019357815f926020809301838601378301015290565b346101935760603660031901126101935761095861035c565b602435906044359067ffffffffffffffff8211610193576103e5926109846109949336906004016108f9565b9161098f828261130e565b611659565b611436565b34610193575f366003190112610193576040515f6001548060011c9060018116908115610a44575b60208310821461030f5782855260208501919081156102f657506001146109f2576102a284610296818603826108b6565b60015f9081529250907fb10e2d527612073b26eecdfd717e6a320cf44b4afac2b0732d9fcbe2b7fa0cf65b818410610a305750500161029682610286565b805484840152602090930192600101610a1d565b91607f16916109c1565b34610193576040366003190112610193576103e5610994610a6d61035c565b60243560405191610a7f6020846108b6565b5f835261098f828261130e565b3461019357604036600319011261019357610aa561035c565b6024358015158103610193576001600160a01b03821691338314610b305781610aed610afe92335f52600560205260405f20906001600160a01b03165f5260205260405f2090565b9060ff801983541691151516179055565b604051901515815233907f17307eab39ab6107e8899845ad3d59bd9653f200f220920489ca2b5937696c3190602090a3005b60405162461bcd60e51b815260206004820152601960248201527f4552433732313a20617070726f766520746f2063616c6c6572000000000000006044820152606490fd5b3461019357608036600319011261019357610b8e61035c565b610b96610372565b906044356064359267ffffffffffffffff841161019357610bbe6103e59436906004016108f9565b92610f35565b3461019357602036600319011261019357600435610bf6815f5260026020526001600160a01b0360405f205416151590565b15610c5657610c03610e98565b805115610c4457610296610c3091610c36610c206102a29561150d565b6040519485936020850190610f5e565b90610f5e565b03601f1981018352826108b6565b50506102a2610c51610e98565b610296565b60405162461bcd60e51b815260206004820152602f60248201527f4552433732314d657461646174613a2055524920717565727920666f72206e6f60448201527f6e6578697374656e7420746f6b656e00000000000000000000000000000000006064820152608490fd5b3461019357604036600319011261019357602060ff610d13610ce161035c565b6001600160a01b03610cf1610372565b91165f526005845260405f20906001600160a01b03165f5260205260405f2090565b54166040519015158152f35b610d3d815f5260026020526001600160a01b0360405f205416151590565b15610d5a575f5260046020526001600160a01b0360405f20541690565b60405162461bcd60e51b815260206004820152602c60248201527f4552433732313a20617070726f76656420717565727920666f72206e6f6e657860448201526b34b9ba32b73a103a37b5b2b760a11b6064820152608490fd5b15610dbb57565b60405162461bcd60e51b815260206004820152603860248201527f4552433732313a20617070726f76652063616c6c6572206973206e6f74206f7760448201527f6e6572206e6f7220617070726f76656420666f7220616c6c00000000000000006064820152608490fd5b15610e2d57565b60405162461bcd60e51b815260206004820152603160248201527f4552433732313a207472616e736665722063616c6c6572206973206e6f74206f60448201527f776e6572206e6f7220617070726f7665640000000000000000000000000000006064820152608490fd5b60405190610ea76020836108b6565b5f8252565b5f5260026020526001600160a01b0360405f2054168015610eca5790565b60405162461bcd60e51b815260206004820152602960248201527f4552433732313a206f776e657220717565727920666f72206e6f6e657869737460448201527f656e7420746f6b656e00000000000000000000000000000000000000000000006064820152608490fd5b91610f5c939161099493610f4c6104d7843361102a565b610f578383836111b9565b611788565b565b805191908290602001825e015f815290565b805f52600460205260405f206001600160a01b031981541690555f6001600160a01b03610f9c83610eac565b167f8c5be1e5ebec7d5bd14f71427d1e84f3dd0314c0f7b2291e5b200ac8c7c3b9258280a4565b815f526004602052610fee8160405f20906001600160a01b03166001600160a01b0319825416179055565b6001600160a01b038061100084610eac565b169116907f8c5be1e5ebec7d5bd14f71427d1e84f3dd0314c0f7b2291e5b200ac8c7c3b9255f80a4565b611048825f5260026020526001600160a01b0360405f205416151590565b156110c45761105682610eac565b6001600160a01b0382166001600160a01b03821681149384156110a5575b5050821561108157505090565b61023a92509061040c610422926001600160a01b03165f52600560205260405f2090565b6001600160a01b03919294506110ba90610d1f565b1614915f80611074565b60405162461bcd60e51b815260206004820152602c60248201527f4552433732313a206f70657261746f7220717565727920666f72206e6f6e657860448201526b34b9ba32b73a103a37b5b2b760a11b6064820152608490fd5b1561112557565b60405162461bcd60e51b8152602060048201526024808201527f4552433732313a207472616e7366657220746f20746865207a65726f206164646044820152637265737360e01b6064820152608490fd5b634e487b7160e01b5f52601160045260245ffd5b5f1981019190821161119857565b611176565b906001820180921161119857565b603001908160301161119857565b906001600160a01b03906111cc84610eac565b82841692839116036112a3578061121d6001600160a01b0361127d9316946111f586151561111e565b6111fd6115db565b61120687610f70565b6001600160a01b03165f52600360205260405f2090565b611227815461118a565b9055611244816001600160a01b03165f52600360205260405f2090565b61124e815461119d565b9055611262855f52600260205260405f2090565b906001600160a01b03166001600160a01b0319825416179055565b7fddf252ad1be2c89b69c2b068fc378daa952ba7f163c4a11628f55a4df523b3ef5f80a4565b60405162461bcd60e51b815260206004820152602960248201527f4552433732313a207472616e73666572206f6620746f6b656e2074686174206960448201527f73206e6f74206f776e00000000000000000000000000000000000000000000006064820152608490fd5b6001600160a01b0381169081156113f25761133d835f5260026020526001600160a01b0360405f205416151590565b6113ad576113869061134d6115db565b611368816001600160a01b03165f52600360205260405f2090565b611372815461119d565b9055611262845f52600260205260405f2090565b5f7fddf252ad1be2c89b69c2b068fc378daa952ba7f163c4a11628f55a4df523b3ef8180a4565b60405162461bcd60e51b815260206004820152601c60248201527f4552433732313a20746f6b656e20616c7265616479206d696e746564000000006044820152606490fd5b606460405162461bcd60e51b815260206004820152602060248201527f4552433732313a206d696e7420746f20746865207a65726f20616464726573736044820152fd5b1561143d57565b60405162461bcd60e51b815260206004820152603260248201527f4552433732313a207472616e7366657220746f206e6f6e20455243373231526560448201527f63656976657220696d706c656d656e74657200000000000000000000000000006064820152608490fd5b5f1981146111985760010190565b906114c0826108dd565b6114cd60405191826108b6565b82815280926114de601f19916108dd565b0190602036910137565b9081518110156114f9570160200190565b634e487b7160e01b5f52603260045260245ffd5b9081156115ba575f82805b61159b57508061152884926114b6565b915b61153357509150565b61153f6115949161118a565b93611580611558611552600a84066111ab565b60ff1690565b60f81b7fff000000000000000000000000000000000000000000000000000000000000001690565b5f1a61158c86856114e8565b53600a900490565b928361152a565b92906115a96115b1916114a8565b93600a900490565b80939193611518565b90506040516115ca6040826108b6565b60018152600360fc1b602082015290565b60ff6006541661067057565b90816020910312610193575161023a81610169565b90926001600160a01b036080938161023a979616845216602083015260408201528160608201520190610205565b3d15611654573d9061163b826108dd565b9161164960405193846108b6565b82523d5f602084013e565b606090565b91823b156117805761168f926020925f6001600160a01b03604051809781968295630a85bd0160e11b84528533600486016115fc565b0393165af15f918161174f575b50611721576116a961162a565b8051908161171c5760405162461bcd60e51b815260206004820152603260248201527f4552433732313a207472616e7366657220746f206e6f6e20455243373231526560448201527f63656976657220696d706c656d656e74657200000000000000000000000000006064820152608490fd5b602001fd5b7fffffffff0000000000000000000000000000000000000000000000000000000016630a85bd0160e11b1490565b61177291925060203d602011611779575b61176a81836108b6565b8101906115e7565b905f61169c565b503d611760565b505050600190565b919290803b156117c05761168f935f6001600160a01b0360209560405197889687958693630a85bd0160e11b855233600486016115fc565b5050505060019056fea26469706673582212205bcb03a252add457c27b4b4e4775d50d48c8777a788afc9f99769f2804a3ce6a64736f6c634300081a0033","linkReferences":{}},"methodIdentifiers":{"approve(address,uint256)":"095ea7b3","balanceOf(address)":"70a08231","burn(uint256)":"42966c68","exists(uint256)":"4f558e79","getApproved(uint256)":"081812fc","isApprovedForAll(address,address)":"e985e9c5","mint(address,uint256)":"40c10f19","name()":"06fdde03","ownerOf(uint256)":"6352211e","pause()":"8456cb59","paused()":"5c975abb","safeMint(address,uint256)":"a1448194","safeMint(address,uint256,bytes)":"8832e6e3","safeTransferFrom(address,address,uint256)":"42842e0e","safeTransferFrom(address,address,uint256,bytes)":"b88d4fde","setApprovalForAll(address,bool)":"a22cb465","supportsInterface(bytes4)":"01ffc9a7","symbol()":"95d89b41","tokenURI(uint256)":"c87b56dd","transferFrom(address,address,uint256)":"23b872dd","unpause()":"3f4ba83a"},"id":188}