{"abi":[{"type":"function","name":"allowance","inputs":[{"name":"owner","type":"address","internalType":"address"},{"name":"spender","type":"address","internalType":"address"}],"outputs":[{"name":"","type":"uint256","internalType":"uint256"}],"stateMutability":"view"},{"type":"function","name":"approve","inputs":[{"name":"spender","type":"address","internalType":"address"},{"name":"amount","type":"uint256","internalType":"uint256"}],"outputs":[{"name":"","type":"bool","internalType":"bool"}],"stateMutability":"nonpayable"},{"type":"function","name":"balanceOf","inputs":[{"name":"account","type":"address","internalType":"address"}],"outputs":[{"name":"","type":"uint256","internalType":"uint256"}],"stateMutability":"view"},{"type":"function","name":"burn","inputs":[{"name":"amount","type":"uint256","internalType":"uint256"}],"outputs":[],"stateMutability":"nonpayable"},{"type":"function","name":"burnFrom","inputs":[{"name":"account","type":"address","internalType":"address"},{"name":"amount","type":"uint256","internalType":"uint256"}],"outputs":[],"stateMutability":"nonpayable"},{"type":"function","name":"decimals","inputs":[],"outputs":[{"name":"","type":"uint8","internalType":"uint8"}],"stateMutability":"view"},{"type":"function","name":"decreaseAllowance","inputs":[{"name":"spender","type":"address","internalType":"address"},{"name":"subtractedValue","type":"uint256","internalType":"uint256"}],"outputs":[{"name":"","type":"bool","internalType":"bool"}],"stateMutability":"nonpayable"},{"type":"function","name":"increaseAllowance","inputs":[{"name":"spender","type":"address","internalType":"address"},{"name":"addedValue","type":"uint256","internalType":"uint256"}],"outputs":[{"name":"","type":"bool","internalType":"bool"}],"stateMutability":"nonpayable"},{"type":"function","name":"initialize","inputs":[{"name":"name","type":"string","internalType":"string"},{"name":"symbol","type":"string","internalType":"string"},{"name":"initialSupply","type":"uint256","internalType":"uint256"},{"name":"owner","type":"address","internalType":"address"}],"outputs":[],"stateMutability":"nonpayable"},{"type":"function","name":"name","inputs":[],"outputs":[{"name":"","type":"string","internalType":"string"}],"stateMutability":"view"},{"type":"function","name":"symbol","inputs":[],"outputs":[{"name":"","type":"string","internalType":"string"}],"stateMutability":"view"},{"type":"function","name":"totalSupply","inputs":[],"outputs":[{"name":"","type":"uint256","internalType":"uint256"}],"stateMutability":"view"},{"type":"function","name":"transfer","inputs":[{"name":"recipient","type":"address","internalType":"address"},{"name":"amount","type":"uint256","internalType":"uint256"}],"outputs":[{"name":"","type":"bool","internalType":"bool"}],"stateMutability":"nonpayable"},{"type":"function","name":"transferFrom","inputs":[{"name":"sender","type":"address","internalType":"address"},{"name":"recipient","type":"address","internalType":"address"},{"name":"amount","type":"uint256","internalType":"uint256"}],"outputs":[{"name":"","type":"bool","internalType":"bool"}],"stateMutability":"nonpayable"},{"type":"event","name":"Approval","inputs":[{"name":"owner","type":"address","indexed":true,"internalType":"address"},{"name":"spender","type":"address","indexed":true,"internalType":"address"},{"name":"value","type":"uint256","indexed":false,"internalType":"uint256"}],"anonymous":false},{"type":"event","name":"Transfer","inputs":[{"name":"from","type":"address","indexed":true,"internalType":"address"},{"name":"to","type":"address","indexed":true,"internalType":"address"},{"name":"value","type":"uint256","indexed":false,"internalType":"uint256"}],"anonymous":false}],"bytecode":{"object":"0x6080806040523460155761117b908161001a8239f35b5f80fdfe6080806040526004361015610012575f80fd5b5f3560e01c90816306fdde0314610af457508063095ea7b314610ace57806318160ddd14610ab157806323b872dd146109d8578063313ce567146109bd578063395093511461096e57806342966c681461095157806370a082311461091957806379cc67901461086457806395d89b411461078a578063a457c2d7146106ce578063a9059cbb1461069d578063bd3a13f61461010e5763dd62ed3e146100b6575f80fd5b3461010a57604036600319011261010a576100cf610bc0565b6001600160a01b036100df610bd6565b91165f5260346020526001600160a01b0360405f2091165f52602052602060405f2054604051908152f35b5f80fd5b3461010a57608036600319011261010a5760043567ffffffffffffffff811161010a5761013f903690600401610c0e565b60243567ffffffffffffffff811161010a5761015f903690600401610c0e565b6044356064356001600160a01b03811680910361010a575f549360ff8560081c16948515809681610692575b61019490610cbd565b610681575b505f549360ff8560081c16948515809681610676575b6101b890610cbd565b610665575b506101c66110f4565b5f549160ff8360081c1692831580948161065a575b6101e490610cbd565b610649575b5080519067ffffffffffffffff82116104fb578190610209603654610c64565b601f811161059e575b50602090601f831160011461051a575f9261050f575b50508160011b915f199060031b1c1916176036555b80519067ffffffffffffffff82116104fb57819061025c603754610c64565b601f8111610450575b50602090601f83116001146103cc575f926103c1575b50508160011b915f199060031b1c1916176037555b6103b3575b61029d6110f4565b5f549160ff8360081c169283158094816103a8575b6102bb90610cbd565b610397575b508115610352577fddf252ad1be2c89b69c2b068fc378daa952ba7f163c4a11628f55a4df523b3ef6020826102f85f94603554610c9c565b6035558484526033825260408420610311828254610c9c565b9055604051908152a3610344575b610336575b61032a57005b5f805461ff0019169055005b61ff00195f54165f55610324565b61ff00195f54165f5561031f565b60405162461bcd60e51b815260206004820152601f60248201527f45524332303a206d696e7420746f20746865207a65726f2061646472657373006044820152606490fd5b61ffff1916610101175f55856102c0565b5060ff8216156102b2565b61ff00195f54165f55610295565b01519050878061027b565b60375f9081527f42a7b7dd785cd69714a189dffb3fd7d7174edc9ece837694ce50f7078f7c31ae9350601f198516905b8181106104385750908460019594939210610420575b505050811b01603755610290565b01515f1960f88460031b161c19169055878080610412565b929360206001819287860151815501950193016103fc565b90915060375f52601f830160051c7f42a7b7dd785cd69714a189dffb3fd7d7174edc9ece837694ce50f7078f7c31ae0190602084106104d3575b90601f8493920160051c7f42a7b7dd785cd69714a189dffb3fd7d7174edc9ece837694ce50f7078f7c31ae01905b8181106104c55750610265565b5f81558493506001016104b8565b7f42a7b7dd785cd69714a189dffb3fd7d7174edc9ece837694ce50f7078f7c31ae915061048a565b634e487b7160e01b5f52604160045260245ffd5b015190508880610228565b60365f9081527f4a11f94e20a93c79f6ec743a1954ec4fc2c08429ae2122118bf234b2185c81b89350601f198516905b818110610586575090846001959493921061056e575b505050811b0160365561023d565b01515f1960f88460031b161c19169055888080610560565b9293602060018192878601518155019501930161054a565b90915060365f52601f830160051c7f4a11f94e20a93c79f6ec743a1954ec4fc2c08429ae2122118bf234b2185c81b8019060208410610621575b90601f8493920160051c7f4a11f94e20a93c79f6ec743a1954ec4fc2c08429ae2122118bf234b2185c81b801905b8181106106135750610212565b5f8155849350600101610606565b7f4a11f94e20a93c79f6ec743a1954ec4fc2c08429ae2122118bf234b2185c81b891506105d8565b61ffff1916610101175f55876101e9565b5060ff8216156101db565b61ffff1916610101175f55866101bd565b5060ff8216156101af565b61ffff1916610101175f5585610199565b5060ff82161561018b565b3461010a57604036600319011261010a576106c36106b9610bc0565b6024359033610e33565b602060405160018152f35b3461010a57604036600319011261010a576106e7610bc0565b60243590335f52603460205260405f206001600160a01b0382165f5260205260405f20549180831061071f576106c392039033610d2f565b60405162461bcd60e51b815260206004820152602560248201527f45524332303a2064656372656173656420616c6c6f77616e63652062656c6f7760448201527f207a65726f0000000000000000000000000000000000000000000000000000006064820152608490fd5b3461010a575f36600319011261010a576040515f6037546107aa81610c64565b808452906001811690811561084057506001146107e2575b6107de836107d281850382610bec565b60405191829182610b96565b0390f35b91905060375f527f42a7b7dd785cd69714a189dffb3fd7d7174edc9ece837694ce50f7078f7c31ae915f905b808210610826575090915081016020016107d26107c2565b91926001816020925483858801015201910190929161080e565b60ff191660208086019190915291151560051b840190910191506107d290506107c2565b3461010a57604036600319011261010a5761087d610bc0565b6024356001600160a01b0382165f52603460205260405f206001600160a01b0333165f5260205260405f2054918183106108c8576108c1826108c694033383610d2f565b610fe2565b005b60405162461bcd60e51b8152602060048201526024808201527f45524332303a206275726e20616d6f756e74206578636565647320616c6c6f77604482015263616e636560e01b6064820152608490fd5b3461010a57602036600319011261010a576001600160a01b0361093a610bc0565b165f526033602052602060405f2054604051908152f35b3461010a57602036600319011261010a576108c660043533610fe2565b3461010a57604036600319011261010a576106c361098a610bc0565b335f52603460205260405f206001600160a01b0382165f526020526109b660405f206024359054610c9c565b9033610d2f565b3461010a575f36600319011261010a57602060405160128152f35b3461010a57606036600319011261010a576109f1610bc0565b6109f9610bd6565b90610a08604435809383610e33565b6001600160a01b0381165f52603460205260405f206001600160a01b0333165f5260205260405f205491808310610a46576106c39203903390610d2f565b60405162461bcd60e51b815260206004820152602860248201527f45524332303a207472616e7366657220616d6f756e742065786365656473206160448201527f6c6c6f77616e63650000000000000000000000000000000000000000000000006064820152608490fd5b3461010a575f36600319011261010a576020603554604051908152f35b3461010a57604036600319011261010a576106c3610aea610bc0565b6024359033610d2f565b3461010a575f36600319011261010a575f603654610b1181610c64565b80845290600181169081156108405750600114610b38576107de836107d281850382610bec565b91905060365f527f4a11f94e20a93c79f6ec743a1954ec4fc2c08429ae2122118bf234b2185c81b8915f905b808210610b7c575090915081016020016107d26107c2565b919260018160209254838588010152019101909291610b64565b602060409281835280519182918282860152018484015e5f828201840152601f01601f1916010190565b600435906001600160a01b038216820361010a57565b602435906001600160a01b038216820361010a57565b90601f8019910116810190811067ffffffffffffffff8211176104fb57604052565b81601f8201121561010a5780359067ffffffffffffffff82116104fb5760405192610c43601f8401601f191660200185610bec565b8284526020838301011161010a57815f926020809301838601378301015290565b90600182811c92168015610c92575b6020831014610c7e57565b634e487b7160e01b5f52602260045260245ffd5b91607f1691610c73565b91908201809211610ca957565b634e487b7160e01b5f52601160045260245ffd5b15610cc457565b60405162461bcd60e51b815260206004820152602e60248201527f496e697469616c697a61626c653a20636f6e747261637420697320616c72656160448201527f647920696e697469616c697a65640000000000000000000000000000000000006064820152608490fd5b6001600160a01b0316908115610de2576001600160a01b0316918215610d925760207f8c5be1e5ebec7d5bd14f71427d1e84f3dd0314c0f7b2291e5b200ac8c7c3b92591835f526034825260405f20855f5282528060405f2055604051908152a3565b60405162461bcd60e51b815260206004820152602260248201527f45524332303a20617070726f766520746f20746865207a65726f206164647265604482015261737360f01b6064820152608490fd5b60405162461bcd60e51b8152602060048201526024808201527f45524332303a20617070726f76652066726f6d20746865207a65726f206164646044820152637265737360e01b6064820152608490fd5b6001600160a01b0316908115610f77576001600160a01b0316918215610f2657815f52603360205260405f2054818110610ebb57817fddf252ad1be2c89b69c2b068fc378daa952ba7f163c4a11628f55a4df523b3ef92602092855f52603384520360405f2055845f526033825260405f20610eb0828254610c9c565b9055604051908152a3565b60405162461bcd60e51b815260206004820152602660248201527f45524332303a207472616e7366657220616d6f756e742065786365656473206260448201527f616c616e636500000000000000000000000000000000000000000000000000006064820152608490fd5b60405162461bcd60e51b815260206004820152602360248201527f45524332303a207472616e7366657220746f20746865207a65726f206164647260448201526265737360e81b6064820152608490fd5b60405162461bcd60e51b815260206004820152602560248201527f45524332303a207472616e736665722066726f6d20746865207a65726f20616460448201527f64726573730000000000000000000000000000000000000000000000000000006064820152608490fd5b6001600160a01b031680156110a557805f52603360205260405f2054828110611055578290825f5260336020520360405f205560355491808303928311610ca95760207fddf252ad1be2c89b69c2b068fc378daa952ba7f163c4a11628f55a4df523b3ef915f94603555604051908152a3565b60405162461bcd60e51b815260206004820152602260248201527f45524332303a206275726e20616d6f756e7420657863656564732062616c616e604482015261636560f01b6064820152608490fd5b60405162461bcd60e51b815260206004820152602160248201527f45524332303a206275726e2066726f6d20746865207a65726f206164647265736044820152607360f81b6064820152608490fd5b5f5460ff8160081c1690811580928161113a575b61111190610cbd565b611128575b5061111d57565b61ff00195f54165f55565b61ffff1916610101175f908155611116565b5060ff82161561110856fea26469706673582212207bda7823e348163e858f7cd45da2f5029bbf7244ff737d6c1fd7495d53881b9264736f6c634300081a0033","linkReferences":{}},"methodIdentifiers":{"allowance(address,address)":"dd62ed3e","approve(address,uint256)":"095ea7b3","balanceOf(address)":"70a08231","burn(uint256)":"42966c68","burnFrom(address,uint256)":"79cc6790","decimals()":"313ce567","decreaseAllowance(address,uint256)":"a457c2d7","increaseAllowance(address,uint256)":"39509351","initialize(string,string,uint256,address)":"bd3a13f6","name()":"06fdde03","symbol()":"95d89b41","totalSupply()":"18160ddd","transfer(address,uint256)":"a9059cbb","transferFrom(address,address,uint256)":"23b872dd"},"id":418}