{"abi":[{"type":"constructor","inputs":[],"stateMutability":"nonpayable"},{"type":"function","name":"DEFAULT_ADMIN_ROLE","inputs":[],"outputs":[{"name":"","type":"bytes32","internalType":"bytes32"}],"stateMutability":"view"},{"type":"function","name":"getRoleAdmin","inputs":[{"name":"role","type":"bytes32","internalType":"bytes32"}],"outputs":[{"name":"","type":"bytes32","internalType":"bytes32"}],"stateMutability":"view"},{"type":"function","name":"getRoleMember","inputs":[{"name":"role","type":"bytes32","internalType":"bytes32"},{"name":"index","type":"uint256","internalType":"uint256"}],"outputs":[{"name":"","type":"address","internalType":"address"}],"stateMutability":"view"},{"type":"function","name":"getRoleMemberCount","inputs":[{"name":"role","type":"bytes32","internalType":"bytes32"}],"outputs":[{"name":"","type":"uint256","internalType":"uint256"}],"stateMutability":"view"},{"type":"function","name":"grantRole","inputs":[{"name":"role","type":"bytes32","internalType":"bytes32"},{"name":"account","type":"address","internalType":"address"}],"outputs":[],"stateMutability":"nonpayable"},{"type":"function","name":"hasRole","inputs":[{"name":"role","type":"bytes32","internalType":"bytes32"},{"name":"account","type":"address","internalType":"address"}],"outputs":[{"name":"","type":"bool","internalType":"bool"}],"stateMutability":"view"},{"type":"function","name":"renounceRole","inputs":[{"name":"role","type":"bytes32","internalType":"bytes32"},{"name":"account","type":"address","internalType":"address"}],"outputs":[],"stateMutability":"nonpayable"},{"type":"function","name":"revokeRole","inputs":[{"name":"role","type":"bytes32","internalType":"bytes32"},{"name":"account","type":"address","internalType":"address"}],"outputs":[],"stateMutability":"nonpayable"},{"type":"function","name":"senderProtected","inputs":[{"name":"roleId","type":"bytes32","internalType":"bytes32"}],"outputs":[],"stateMutability":"nonpayable"},{"type":"function","name":"setRoleAdmin","inputs":[{"name":"roleId","type":"bytes32","internalType":"bytes32"},{"name":"adminRoleId","type":"bytes32","internalType":"bytes32"}],"outputs":[],"stateMutability":"nonpayable"},{"type":"function","name":"supportsInterface","inputs":[{"name":"interfaceId","type":"bytes4","internalType":"bytes4"}],"outputs":[{"name":"","type":"bool","internalType":"bool"}],"stateMutability":"view"},{"type":"event","name":"RoleAdminChanged","inputs":[{"name":"role","type":"bytes32","indexed":true,"internalType":"bytes32"},{"name":"previousAdminRole","type":"bytes32","indexed":true,"internalType":"bytes32"},{"name":"newAdminRole","type":"bytes32","indexed":true,"internalType":"bytes32"}],"anonymous":false},{"type":"event","name":"RoleGranted","inputs":[{"name":"role","type":"bytes32","indexed":true,"internalType":"bytes32"},{"name":"account","type":"address","indexed":true,"internalType":"address"},{"name":"sender","type":"address","indexed":true,"internalType":"address"}],"anonymous":false},{"type":"event","name":"RoleRevoked","inputs":[{"name":"role","type":"bytes32","indexed":true,"internalType":"bytes32"},{"name":"account","type":"address","indexed":true,"internalType":"address"},{"name":"sender","type":"address","indexed":true,"internalType":"address"}],"anonymous":false}],"bytecode":{"object":"0x6080604052346100bf57335f9081525f80516020610abb833981519152602052604090205460ff161561006f575b5f8052600160205261005f337fa6eef7e35abe7026729641147f7915573c7e97b47efa546f5f6e3230263bcb496100c3565b5060405161097390816101488239f35b335f8181525f80516020610abb83398151915260205260408120805460ff1916600117905581907f2f8788117e7eff1d82e926ec794901d17c78024a50270940304540a733656f0d8180a461002d565b5f80fd5b6001810190825f528160205260405f2054155f146101405780546801000000000000000081101561012c5760018101808355811015610118578390825f5260205f20015554915f5260205260405f2055600190565b634e487b7160e01b5f52603260045260245ffd5b634e487b7160e01b5f52604160045260245ffd5b5050505f9056fe6080806040526004361015610012575f80fd5b5f3560e01c90816301ffc9a7146103dc575080631e4e009114610378578063248a9ca3146103465780632f2ff15d1461027b57806336568abe146101d25780634b9304a4146101b55780639010d07c1461017157806391d1485414610135578063a217fddf1461011b578063ca15c873146100f15763d547741f14610095575f80fd5b346100ed576100eb6100a636610449565b906100c66100bf825f525f602052600160405f20015490565b33906104a5565b6100d082826107c9565b5f5260016020526001600160a01b0360405f2091169061084b565b005b5f80fd5b346100ed5760203660031901126100ed576004355f526001602052602060405f2054604051908152f35b346100ed575f3660031901126100ed5760206040515f8152f35b346100ed5761014336610449565b905f525f6020526001600160a01b0360405f2091165f52602052602060ff60405f2054166040519015158152f35b346100ed5760403660031901126100ed576004355f52600160205260206001600160a01b036101a560243560405f20610745565b90549060031b1c16604051908152f35b346100ed5760203660031901126100ed576100eb336004356104a5565b346100ed576101e036610449565b906001600160a01b03821690338203610210576102006100eb93826107c9565b5f52600160205260405f2061084b565b60405162461bcd60e51b815260206004820152602f60248201527f416363657373436f6e74726f6c3a2063616e206f6e6c792072656e6f756e636560448201527f20726f6c657320666f722073656c6600000000000000000000000000000000006064820152608490fd5b346100ed576100eb61028c36610449565b906102a56100bf825f525f602052600160405f20015490565b805f525f60205260405f206001600160a01b0383165f5260205260ff60405f205416156102e8575b5f5260016020526001600160a01b0360405f2091169061075a565b805f525f60205260405f206001600160a01b0383165f5260205260405f20600160ff19825416179055336001600160a01b038316827f2f8788117e7eff1d82e926ec794901d17c78024a50270940304540a733656f0d5f80a46102cd565b346100ed5760203660031901126100ed5760206103706004355f525f602052600160405f20015490565b604051908152f35b346100ed5760403660031901126100ed57600435602435906103a5815f525f602052600160405f20015490565b90805f525f60205282600160405f2001557fbd79b86ffe0ab8e8776151514217cd7cacd52c909f66475c3af44e129f0b00ff5f80a4005b346100ed5760203660031901126100ed576004359063ffffffff60e01b82168092036100ed57602091635a05180f60e01b811490811561041e575b5015158152f35b637965db0b60e01b811491508115610438575b5083610417565b6301ffc9a760e01b14905083610431565b60409060031901126100ed57600435906024356001600160a01b03811681036100ed5790565b90601f8019910116810190811067ffffffffffffffff82111761049157604052565b634e487b7160e01b5f52604160045260245ffd5b90815f525f60205260405f206001600160a01b0382165f5260205260ff60405f205416156104d1575050565b6001600160a01b03166104e4602a610910565b916104f2604051938461046f565b602a8352610500602a610910565b602084019290601f19013684378351156106f057603083538351600110156106f0576078602185015360295b60018111610704575061065757906105446042610910565b90610552604051928361046f565b604282526105606042610910565b602083019390601f19013685378251156106f057603084538251600110156106f0576078602184015360415b6001811161069b575061065757601161061f91603760449560405195869360208501997f416363657373436f6e74726f6c3a206163636f756e74200000000000000000008b525180918587015e8401907f206973206d697373696e6720726f6c652000000000000000000000000000000084830152518092604883015e01015f838201520301601f19810183528261046f565b60405192839162461bcd60e51b8352602060048401525180918160248501528484015e5f828201840152601f01601f19168101030190fd5b606460405162461bcd60e51b815260206004820152602060248201527f537472696e67733a20686578206c656e67746820696e73756666696369656e746044820152fd5b90600f811660108110156106f0576f181899199a1a9b1b9c1cb0b131b232b360811b901a6106c9838661092c565b5360041c9080156106dc575f190161058c565b634e487b7160e01b5f52601160045260245ffd5b634e487b7160e01b5f52603260045260245ffd5b90600f811660108110156106f0576f181899199a1a9b1b9c1cb0b131b232b360811b901a610732838761092c565b5360041c9080156106dc575f190161052c565b80548210156106f0575f5260205f2001905f90565b6001810190825f528160205260405f2054155f146107c257805468010000000000000000811015610491576107af610799826001879401855584610745565b819391549060031b91821b915f19901b19161790565b905554915f5260205260405f2055600190565b5050505f90565b805f525f60205260405f206001600160a01b0383165f5260205260ff60405f2054166107f3575050565b805f525f60205260405f206001600160a01b0383165f5260205260405f2060ff1981541690556001600160a01b03339216907ff6391f5c32d9c69d2a47ea670b442974b53935d1edc7fd64eb21e047a839171b5f80a4565b906001820191815f528260205260405f20548015155f14610908575f1981018181116106dc5782545f198101919082116106dc578082036108d3575b505050805480156108bf575f1901906108a08282610745565b8154905f199060031b1b19169055555f526020525f6040812055600190565b634e487b7160e01b5f52603160045260245ffd5b6108f36108e36107999386610745565b90549060031b1c92839286610745565b90555f528360205260405f20555f8080610887565b505050505f90565b67ffffffffffffffff811161049157601f01601f191660200190565b9081518110156106f057016020019056fea2646970667358221220625a0480d21c0b15e24377ba7276304f020674a07b5d33a894d4ad1b32d6206c64736f6c634300081a0033ad3228b676f7d3cd4284a5443f17f1962b36e491b30a40b2405849e597ba5fb5","linkReferences":{}},"methodIdentifiers":{"DEFAULT_ADMIN_ROLE()":"a217fddf","getRoleAdmin(bytes32)":"248a9ca3","getRoleMember(bytes32,uint256)":"9010d07c","getRoleMemberCount(bytes32)":"ca15c873","grantRole(bytes32,address)":"2f2ff15d","hasRole(bytes32,address)":"91d14854","renounceRole(bytes32,address)":"36568abe","revokeRole(bytes32,address)":"d547741f","senderProtected(bytes32)":"4b9304a4","setRoleAdmin(bytes32,bytes32)":"1e4e0091","supportsInterface(bytes4)":"01ffc9a7"},"id":143}