{"abi":[{"type":"function","name":"INTERFACE_ID_ERC165","inputs":[],"outputs":[{"name":"","type":"bytes4","internalType":"bytes4"}],"stateMutability":"view"},{"type":"function","name":"supportsInterface","inputs":[{"name":"interfaceId","type":"bytes4","internalType":"bytes4"}],"outputs":[{"name":"","type":"bool","internalType":"bool"}],"stateMutability":"view"}],"bytecode":{"object":"0x6080806040523460135760c3908160188239f35b5f80fdfe60808060405260043610156011575f80fd5b5f3560e01c90816301ffc9a714605357506334d7006c14602f575f80fd5b34604f575f366003190112604f576040516301ffc9a760e01b8152602090f35b5f80fd5b34604f576020366003190112604f576004359063ffffffff60e01b8216809203604f576020915f526001825260ff60405f20541615158152f3fea2646970667358221220031fc66e351bbbd3257e6a551d1e98a809e58930e28a280c53d77d1a4a5567b164736f6c634300081a0033","linkReferences":{}},"methodIdentifiers":{"INTERFACE_ID_ERC165()":"34d7006c","supportsInterface(bytes4)":"01ffc9a7"},"id":334}