{"abi":[{"type":"function","name":"current","inputs":[],"outputs":[{"name":"","type":"uint256","internalType":"uint256"}],"stateMutability":"view"},{"type":"function","name":"decrement","inputs":[],"outputs":[],"stateMutability":"nonpayable"},{"type":"function","name":"increment","inputs":[],"outputs":[],"stateMutability":"nonpayable"},{"type":"function","name":"reset","inputs":[],"outputs":[],"stateMutability":"nonpayable"},{"type":"function","name":"upgradeTo","inputs":[{"name":"newImplementation","type":"address","internalType":"address"}],"outputs":[],"stateMutability":"nonpayable"},{"type":"function","name":"upgradeToAndCall","inputs":[{"name":"newImplementation","type":"address","internalType":"address"},{"name":"data","type":"bytes","internalType":"bytes"}],"outputs":[],"stateMutability":"payable"},{"type":"event","name":"AdminChanged","inputs":[{"name":"previousAdmin","type":"address","indexed":false,"internalType":"address"},{"name":"newAdmin","type":"address","indexed":false,"internalType":"address"}],"anonymous":false},{"type":"event","name":"BeaconUpgraded","inputs":[{"name":"beacon","type":"address","indexed":true,"internalType":"address"}],"anonymous":false},{"type":"event","name":"Upgraded","inputs":[{"name":"implementation","type":"address","indexed":true,"internalType":"address"}],"anonymous":false}],"bytecode":{"object":"0x6080806040523460155761083a908161001a8239f35b5f80fdfe60806040526004361015610011575f80fd5b5f3560e01c80632baeceb7146100745780633659cfe61461006f5780634f1ef2861461006a5780639fa6a6e314610065578063d09de08a146100605763d826f88f1461005b575f80fd5b6103f8565b6103de565b6103c2565b61034b565b6100eb565b346100d1575f3660031901126100d1575f548015610093575f19015f55005b62461bcd60e51b6080526020608452601b60a4527f436f756e7465723a2064656372656d656e74206f766572666c6f77000000000060c45260646080fd5b5f80fd5b600435906001600160a01b03821682036100d157565b346100d15760203660031901126100d1576101046100d5565b60405190610113602083610308565b5f82527f360894a13ba1a3210667c828492db98dca3e2076cc3735a920a3ca505d382bbc546001600160a01b03169161014b8261056f565b8051158015906102ed575b6102d3575b5061018e61018a7f4910fdfa16fed3260ed0e7147f7cc6da11a60208b5b9406d12a635614ffd91435460ff1690565b1590565b61019457005b6102cc6102d1926101eb600160ff197f4910fdfa16fed3260ed0e7147f7cc6da11a60208b5b9406d12a635614ffd91435416177f4910fdfa16fed3260ed0e7147f7cc6da11a60208b5b9406d12a635614ffd914355565b604051631b2ce7f360e11b60208201526001600160a01b038216602480830191909152815261022e9061021f604482610308565b610227610653565b90856106ed565b5061027c60ff197f4910fdfa16fed3260ed0e7147f7cc6da11a60208b5b9406d12a635614ffd914354167f4910fdfa16fed3260ed0e7147f7cc6da11a60208b5b9406d12a635614ffd914355565b6001600160a01b036102c46102b86001600160a01b037f360894a13ba1a3210667c828492db98dca3e2076cc3735a920a3ca505d382bbc541690565b6001600160a01b031690565b91161461040d565b6106b4565b005b6102e6906102df610653565b90836106ed565b505f61015b565b505f610156565b634e487b7160e01b5f52604160045260245ffd5b90601f8019910116810190811067ffffffffffffffff82111761032a57604052565b6102f4565b67ffffffffffffffff811161032a57601f01601f191660200190565b60403660031901126100d15761035f6100d5565b6024359067ffffffffffffffff82116100d157366023830112156100d15781600401359061038c8261032f565b9161039a6040519384610308565b80835236602482860101116100d1576020815f9260246102d19701838701378401015261047f565b346100d1575f3660031901126100d15760205f54604051908152f35b346100d1575f3660031901126100d1575f80546001019055005b346100d1575f3660031901126100d1575f8055005b1561041457565b60405162461bcd60e51b815260206004820152602f60248201527f45524331393637557067726164653a207570677261646520627265616b73206660448201527f75727468657220757067726164657300000000000000000000000000000000006064820152608490fd5b7f360894a13ba1a3210667c828492db98dca3e2076cc3735a920a3ca505d382bbc546001600160a01b0316916104b48261056f565b805115801590610567575b610554575b506104f361018a7f4910fdfa16fed3260ed0e7147f7cc6da11a60208b5b9406d12a635614ffd91435460ff1690565b6104fb575050565b6102cc610552926101eb600160ff197f4910fdfa16fed3260ed0e7147f7cc6da11a60208b5b9406d12a635614ffd91435416177f4910fdfa16fed3260ed0e7147f7cc6da11a60208b5b9406d12a635614ffd914355565b565b610560906102df610653565b505f6104c4565b5060016104bf565b803b156105e8576001600160a01b03167fffffffffffffffffffffffff00000000000000000000000000000000000000007f360894a13ba1a3210667c828492db98dca3e2076cc3735a920a3ca505d382bbc5416177f360894a13ba1a3210667c828492db98dca3e2076cc3735a920a3ca505d382bbc55565b60405162461bcd60e51b815260206004820152602d60248201527f455243313936373a206e657720696d706c656d656e746174696f6e206973206e60448201527f6f74206120636f6e7472616374000000000000000000000000000000000000006064820152608490fd5b60405190610662606083610308565b602782527f206661696c6564000000000000000000000000000000000000000000000000006040837f416464726573733a206c6f772d6c6576656c2064656c65676174652063616c6c60208201520152565b6001600160a01b03906106c68161056f565b167fbc7cd75a20ee27fd9adebab32041f755214dbc6bffa90cc0225b39da2e5c2d3b5f80a2565b9190823b1561073e575f816107339460208394519201905af43d15610736573d906107178261032f565b916107256040519384610308565b82523d5f602084013e6107a9565b90565b6060906107a9565b60405162461bcd60e51b815260206004820152602660248201527f416464726573733a2064656c65676174652063616c6c20746f206e6f6e2d636f60448201527f6e747261637400000000000000000000000000000000000000000000000000006064820152608490fd5b909190156107b5575090565b8151156107c55750805190602001fd5b604460209160405192839162461bcd60e51b83528160048401528051918291826024860152018484015e5f828201840152601f01601f19168101030190fdfea2646970667358221220b09506ce97e8a842919d0f837e9f1e11815b70653266fae9ee7906ffa5a1220864736f6c634300081a0033","linkReferences":{}},"methodIdentifiers":{"current()":"9fa6a6e3","decrement()":"2baeceb7","increment()":"d09de08a","reset()":"d826f88f","upgradeTo(address)":"3659cfe6","upgradeToAndCall(address,bytes)":"4f1ef286"},"id":216}