{"abi":[{"type":"function","name":"MAX_SQRT_PRICE","inputs":[],"outputs":[{"name":"","type":"uint160","internalType":"uint160"}],"stateMutability":"view"},{"type":"function","name":"MAX_SQRT_PRICE_MINUS_MIN_SQRT_PRICE_MINUS_ONE","inputs":[],"outputs":[{"name":"","type":"uint160","internalType":"uint160"}],"stateMutability":"view"},{"type":"function","name":"MAX_TICK","inputs":[],"outputs":[{"name":"","type":"int24","internalType":"int24"}],"stateMutability":"view"},{"type":"function","name":"MAX_TICK_SPACING","inputs":[],"outputs":[{"name":"","type":"int24","internalType":"int24"}],"stateMutability":"view"},{"type":"function","name":"MIN_SQRT_PRICE","inputs":[],"outputs":[{"name":"","type":"uint160","internalType":"uint160"}],"stateMutability":"view"},{"type":"function","name":"MIN_TICK","inputs":[],"outputs":[{"name":"","type":"int24","internalType":"int24"}],"stateMutability":"view"},{"type":"function","name":"MIN_TICK_SPACING","inputs":[],"outputs":[{"name":"","type":"int24","internalType":"int24"}],"stateMutability":"view"},{"type":"function","name":"getSqrtPriceAtTick","inputs":[{"name":"tick","type":"int24","internalType":"int24"}],"outputs":[{"name":"sqrtPriceX96","type":"uint160","internalType":"uint160"}],"stateMutability":"pure"},{"type":"function","name":"getTickAtSqrtPrice","inputs":[{"name":"sqrtPriceX96","type":"uint160","internalType":"uint160"}],"outputs":[{"name":"tick","type":"int24","internalType":"int24"}],"stateMutability":"pure"},{"type":"function","name":"maxUsableTick","inputs":[{"name":"tickSpacing","type":"int24","internalType":"int24"}],"outputs":[{"name":"","type":"int24","internalType":"int24"}],"stateMutability":"pure"},{"type":"function","name":"minUsableTick","inputs":[{"name":"tickSpacing","type":"int24","internalType":"int24"}],"outputs":[{"name":"","type":"int24","internalType":"int24"}],"stateMutability":"pure"},{"type":"error","name":"InvalidSqrtPrice","inputs":[{"name":"sqrtPriceX96","type":"uint160","internalType":"uint160"}]},{"type":"error","name":"InvalidTick","inputs":[{"name":"tick","type":"int24","internalType":"int24"}]}],"bytecode":{"object":"0x608080604052346015576108b3908161001a8239f35b5f80fdfe6080806040526004361015610012575f80fd5b5f3560e01c90816307eff0dd1461052a57508063083666e41461050b5780631b8986d3146102115780633029618a146101e3578063422e1d66146101b557806360460f06146101995780636882a8881461017c5780638147b13b146101425780639ecaed4814610106578063a1634b14146100e85763ef675edd14610095575f80fd5b346100e45760203660031901126100e4576004358060020b908181036100e45781156100d057602091620d89e80590604051910260020b8152f35b634e487b7160e01b5f52601260045260245ffd5b5f80fd5b346100e4575f3660031901126100e4576020604051620d89e7198152f35b346100e45760203660031901126100e4576004358060020b908181036100e45781156100d057602091620d89e7190590604051910260020b8152f35b346100e45760203660031901126100e4576004358060020b81036100e45761016b602091610543565b6001600160a01b0360405191168152f35b346100e4575f3660031901126100e4576020604051620d89e88152f35b346100e4575f3660031901126100e4576020604051617fff8152f35b346100e4575f3660031901126100e457602060405173fffd8963efd1fc6a506488495d951d51639616828152f35b346100e4575f3660031901126100e457602060405173fffd8963efd1fc6a506488495d951d5263988d268152f35b346100e45760203660031901126100e4576004356001600160a01b038116908181036100e45773fffd8963efd1fc6a506488495d951d51639616826401000276a21982016001600160a01b0316116104f85777ffffffffffffffffffffffffffffffffffffffff000000009060201b16806fffffffffffffffffffffffffffffffff811160071b90811c67ffffffffffffffff811160061b90811c63ffffffff811160051b90811c61ffff811160041b90811c9060ff821160031b91821c92600f841160021b93841c94600160038711811b96871c1196171717171717179060808210155f146104ee57607e1982011c5b800280607f1c8160ff1c1c800280607f1c8160ff1c1c800280607f1c8160ff1c1c800280607f1c8160ff1c1c800280607f1c8160ff1c1c800280607f1c8160ff1c1c80029081607f1c8260ff1c1c80029283607f1c8460ff1c1c80029485607f1c8660ff1c1c80029687607f1c8860ff1c1c80029889607f1c8a60ff1c1c80029a8b607f1c8c60ff1c1c80029c8d80607f1c9060ff1c1c800260cd1c6604000000000000169d60cc1c6608000000000000169c60cb1c6610000000000000169b60ca1c6620000000000000169a60c91c6640000000000000169960c81c6680000000000000169860c71c670100000000000000169760c61c670200000000000000169660c51c670400000000000000169560c41c670800000000000000169460c31c671000000000000000169360c21c672000000000000000169260c11c674000000000000000169160c01c6780000000000000001690607f190160401b1717171717171717171717171717693627a301d71055774c85026f028f6481ab7f045a5af012a19d003aa919810160801d60020b906fdb2df09e81959a81455e260799a0632f0160801d60020b908181145f14926020936104ca575090505b6040519060020b8152f35b6001600160a01b036104db84610543565b16116104e757506104bf565b90506104bf565b81607f031b610302565b506318521d4960e21b5f5260045260245ffd5b346100e4575f3660031901126100e45760206040516401000276a38152f35b346100e4575f3660031901126100e45780600160209252f35b60020b908160ff1d82810118620d89e8811161086a5763ffffffff9192600182167001fffcb933bd6fad37aa2d162d1a5940010270010000000000000000000000000000000018916002811661084e575b60048116610832575b60088116610816575b601081166107fa575b602081166107de575b604081166107c2575b608081166107a6575b610100811661078a575b610200811661076e575b6104008116610752575b6108008116610736575b611000811661071a575b61200081166106fe575b61400081166106e2575b61800081166106c6575b6201000081166106aa575b62020000811661068f575b620400008116610674575b620800001661065b575b5f12610653575b0160201c90565b5f190461064c565b6b048a170391f7dc42444e8fa290910260801c90610645565b6d2216e584f5fa1ea926041bedfe9890920260801c9161063b565b916e5d6af8dedb81196699c329225ee6040260801c91610630565b916f09aa508b5b7a84e1c677de54f3e99bc90260801c91610625565b916f31be135f97d08fd981231505542fcfa60260801c9161061a565b916f70d869a156d2a1b890bb3df62baf32f70260801c91610610565b916fa9f746462d870fdf8a65dc1f90e061e50260801c91610606565b916fd097f3bdfd2022b8845ad8f792aa58250260801c916105fc565b916fe7159475a2c29b7443b29c7fa6e889d90260801c916105f2565b916ff3392b0822b70005940c7a398e4b70f30260801c916105e8565b916ff987a7253ac413176f2b074cf7815e540260801c916105de565b916ffcbe86c7900a88aedcffc83b479aa3a40260801c916105d4565b916ffe5dee046a99a2a811c461f1969c30530260801c916105ca565b916fff2ea16466c96a3843ec78b326b528610260801c916105c1565b916fff973b41fa98c081472e6896dfb254c00260801c916105b8565b916fffcb9843d60f6159c9db58835c9266440260801c916105af565b916fffe5caca7e10e4e61c3624eaa0941cd00260801c916105a6565b916ffff2e50f5f656932ef12357cf3c7fdcc0260801c9161059d565b916ffff97272373d413259a46990580e213a0260801c91610594565b826345c3193d60e11b5f5260045260245ffdfea2646970667358221220119a6e45c3a6c2297effaf3edd33a9ddd725c4a4616c2d05fd24fe5db9ea81d564736f6c634300081a0033","linkReferences":{}},"methodIdentifiers":{"MAX_SQRT_PRICE()":"3029618a","MAX_SQRT_PRICE_MINUS_MIN_SQRT_PRICE_MINUS_ONE()":"422e1d66","MAX_TICK()":"6882a888","MAX_TICK_SPACING()":"60460f06","MIN_SQRT_PRICE()":"083666e4","MIN_TICK()":"a1634b14","MIN_TICK_SPACING()":"07eff0dd","getSqrtPriceAtTick(int24)":"8147b13b","getTickAtSqrtPrice(uint160)":"1b8986d3","maxUsableTick(int24)":"ef675edd","minUsableTick(int24)":"9ecaed48"},"id":21}