{"abi":[{"type":"constructor","inputs":[{"name":"name","type":"string","internalType":"string"},{"name":"symbol","type":"string","internalType":"string"}],"stateMutability":"nonpayable"},{"type":"function","name":"approve","inputs":[{"name":"to","type":"address","internalType":"address"},{"name":"tokenId","type":"uint256","internalType":"uint256"}],"outputs":[],"stateMutability":"nonpayable"},{"type":"function","name":"balanceOf","inputs":[{"name":"owner","type":"address","internalType":"address"}],"outputs":[{"name":"","type":"uint256","internalType":"uint256"}],"stateMutability":"view"},{"type":"function","name":"burn","inputs":[{"name":"tokenId","type":"uint256","internalType":"uint256"}],"outputs":[],"stateMutability":"nonpayable"},{"type":"function","name":"exists","inputs":[{"name":"tokenId","type":"uint256","internalType":"uint256"}],"outputs":[{"name":"","type":"bool","internalType":"bool"}],"stateMutability":"view"},{"type":"function","name":"getApproved","inputs":[{"name":"tokenId","type":"uint256","internalType":"uint256"}],"outputs":[{"name":"","type":"address","internalType":"address"}],"stateMutability":"view"},{"type":"function","name":"isApprovedForAll","inputs":[{"name":"owner","type":"address","internalType":"address"},{"name":"operator","type":"address","internalType":"address"}],"outputs":[{"name":"","type":"bool","internalType":"bool"}],"stateMutability":"view"},{"type":"function","name":"mint","inputs":[{"name":"to","type":"address","internalType":"address"},{"name":"tokenId","type":"uint256","internalType":"uint256"}],"outputs":[],"stateMutability":"nonpayable"},{"type":"function","name":"name","inputs":[],"outputs":[{"name":"","type":"string","internalType":"string"}],"stateMutability":"view"},{"type":"function","name":"ownerOf","inputs":[{"name":"tokenId","type":"uint256","internalType":"uint256"}],"outputs":[{"name":"","type":"address","internalType":"address"}],"stateMutability":"view"},{"type":"function","name":"safeMint","inputs":[{"name":"to","type":"address","internalType":"address"},{"name":"tokenId","type":"uint256","internalType":"uint256"},{"name":"_data","type":"bytes","internalType":"bytes"}],"outputs":[],"stateMutability":"nonpayable"},{"type":"function","name":"safeMint","inputs":[{"name":"to","type":"address","internalType":"address"},{"name":"tokenId","type":"uint256","internalType":"uint256"}],"outputs":[],"stateMutability":"nonpayable"},{"type":"function","name":"safeTransferFrom","inputs":[{"name":"from","type":"address","internalType":"address"},{"name":"to","type":"address","internalType":"address"},{"name":"tokenId","type":"uint256","internalType":"uint256"}],"outputs":[],"stateMutability":"nonpayable"},{"type":"function","name":"safeTransferFrom","inputs":[{"name":"from","type":"address","internalType":"address"},{"name":"to","type":"address","internalType":"address"},{"name":"tokenId","type":"uint256","internalType":"uint256"},{"name":"_data","type":"bytes","internalType":"bytes"}],"outputs":[],"stateMutability":"nonpayable"},{"type":"function","name":"setApprovalForAll","inputs":[{"name":"operator","type":"address","internalType":"address"},{"name":"approved","type":"bool","internalType":"bool"}],"outputs":[],"stateMutability":"nonpayable"},{"type":"function","name":"supportsInterface","inputs":[{"name":"interfaceId","type":"bytes4","internalType":"bytes4"}],"outputs":[{"name":"","type":"bool","internalType":"bool"}],"stateMutability":"view"},{"type":"function","name":"symbol","inputs":[],"outputs":[{"name":"","type":"string","internalType":"string"}],"stateMutability":"view"},{"type":"function","name":"tokenURI","inputs":[{"name":"tokenId","type":"uint256","internalType":"uint256"}],"outputs":[{"name":"","type":"string","internalType":"string"}],"stateMutability":"view"},{"type":"function","name":"transferFrom","inputs":[{"name":"from","type":"address","internalType":"address"},{"name":"to","type":"address","internalType":"address"},{"name":"tokenId","type":"uint256","internalType":"uint256"}],"outputs":[],"stateMutability":"nonpayable"},{"type":"event","name":"Approval","inputs":[{"name":"owner","type":"address","indexed":true,"internalType":"address"},{"name":"approved","type":"address","indexed":true,"internalType":"address"},{"name":"tokenId","type":"uint256","indexed":true,"internalType":"uint256"}],"anonymous":false},{"type":"event","name":"ApprovalForAll","inputs":[{"name":"owner","type":"address","indexed":true,"internalType":"address"},{"name":"operator","type":"address","indexed":true,"internalType":"address"},{"name":"approved","type":"bool","indexed":false,"internalType":"bool"}],"anonymous":false},{"type":"event","name":"Transfer","inputs":[{"name":"from","type":"address","indexed":true,"internalType":"address"},{"name":"to","type":"address","indexed":true,"internalType":"address"},{"name":"tokenId","type":"uint256","indexed":true,"internalType":"uint256"}],"anonymous":false}],"bytecode":{"object":"0x60806040523461030b576119da803803806100198161030f565b92833981019060408183031261030b5780516001600160401b03811161030b5782610045918301610334565b60208201519092906001600160401b03811161030b576100659201610334565b81516001600160401b038111610221575f54600181811c91168015610301575b602082101461020357601f811161029f575b50602092601f821160011461024057928192935f92610235575b50508160011b915f199060031b1c1916175f555b80516001600160401b03811161022157600154600181811c91168015610217575b602082101461020357601f81116101a0575b50602091601f8211600114610140579181925f92610135575b50508160011b915f199060031b1c1916176001555b60405161165490816103868239f35b015190505f80610111565b601f1982169260015f52805f20915f5b85811061018857508360019510610170575b505050811b01600155610126565b01515f1960f88460031b161c191690555f8080610162565b91926020600181928685015181550194019201610150565b60015f527fb10e2d527612073b26eecdfd717e6a320cf44b4afac2b0732d9fcbe2b7fa0cf6601f830160051c810191602084106101f9575b601f0160051c01905b8181106101ee57506100f8565b5f81556001016101e1565b90915081906101d8565b634e487b7160e01b5f52602260045260245ffd5b90607f16906100e6565b634e487b7160e01b5f52604160045260245ffd5b015190505f806100b1565b601f198216935f8052805f20915f5b868110610287575083600195961061026f575b505050811b015f556100c5565b01515f1960f88460031b161c191690555f8080610262565b9192602060018192868501518155019401920161024f565b5f80527f290decd9548b62a8d60345a988386fc84ba6bc95484008f6362f93160ef3e563601f830160051c810191602084106102f7575b601f0160051c01905b8181106102ec5750610097565b5f81556001016102df565b90915081906102d6565b90607f1690610085565b5f80fd5b6040519190601f01601f191682016001600160401b0381118382101761022157604052565b81601f8201121561030b578051906001600160401b03821161022157610363601f8301601f191660200161030f565b928284526020838301011161030b57815f9260208093018386015e830101529056fe60806040526004361015610011575f80fd5b5f3560e01c806301ffc9a71461013457806306fdde031461012f578063081812fc1461012a578063095ea7b31461012557806323b872dd1461012057806340c10f191461011b57806342842e0e1461011657806342966c68146101115780634f558e791461010c5780636352211e1461010757806370a08231146101025780638832e6e3146100fd57806395d89b41146100f8578063a1448194146100f3578063a22cb465146100ee578063b88d4fde146100e9578063c87b56dd146100e45763e985e9c5146100df575f80fd5b610b37565b610a3a565b6109eb565b610902565b6108c4565b61080f565b6107b5565b610665565b610647565b61060a565b6104ff565b6104d6565b6104b1565b610488565b610358565b6102fd565b61020d565b610167565b7fffffffff0000000000000000000000000000000000000000000000000000000081160361016357565b5f80fd5b3461016357602036600319011261016357602060043561018681610139565b63ffffffff60e01b166380ac58cd60e01b81149081156101c4575b81156101b3575b506040519015158152f35b6301ffc9a760e01b1490505f6101a8565b635b5e139f60e01b811491506101a1565b805180835260209291819084018484015e5f828201840152601f01601f1916010190565b90602061020a9281815201906101d5565b90565b34610163575f366003190112610163576040515f80548060011c90600181169081156102f3575b6020831082146102df5782855260208501919081156102c65750600114610276575b610272846102668186038261072c565b604051918291826101f9565b0390f35b5f8080529250907f290decd9548b62a8d60345a988386fc84ba6bc95484008f6362f93160ef3e5635b8184106102b25750500161026682610256565b80548484015260209093019260010161029f565b60ff191682525090151560051b01905061026682610256565b634e487b7160e01b5f52602260045260245ffd5b91607f1691610234565b3461016357602036600319011261016357602061031b600435610b95565b6001600160a01b0360405191168152f35b600435906001600160a01b038216820361016357565b602435906001600160a01b038216820361016357565b346101635760403660031901126101635761037161032c565b60243561037d81610d22565b916001600160a01b038316806001600160a01b038316146103ff576103b5936103b09133149081156103b7575b50610c2a565b610e39565b005b6103f991506103f2906103dc33916001600160a01b03165f52600560205260405f2090565b906001600160a01b03165f5260205260405f2090565b5460ff1690565b5f6103aa565b60405162461bcd60e51b815260206004820152602160248201527f4552433732313a20617070726f76616c20746f2063757272656e74206f776e656044820152603960f91b6064820152608490fd5b6060906003190112610163576004356001600160a01b038116810361016357906024356001600160a01b0381168103610163579060443590565b34610163576103b56104993661044e565b916104ac6104a78433610ea0565b610c9c565b61102a565b34610163576040366003190112610163576103b56104cd61032c565b60243590611177565b34610163576103b56104e73661044e565b90604051926104f760208561072c565b5f8452610dab565b346101635760203660031901126101635760043561051d8133610ea0565b1561059f576001600160a01b0361053382610d22565b61053c83610de6565b16805f52600360205260405f209081545f19810190811161059a575f92558282526002602052604082206001600160a01b031981541690557fddf252ad1be2c89b69c2b068fc378daa952ba7f163c4a11628f55a4df523b3ef8280a4005b610fec565b60405162461bcd60e51b815260206004820152603060248201527f4552433732314275726e61626c653a2063616c6c6572206973206e6f74206f7760448201527f6e6572206e6f7220617070726f766564000000000000000000000000000000006064820152608490fd5b3461016357602036600319011261016357602061063d6004355f5260026020526001600160a01b0360405f205416151590565b6040519015158152f35b3461016357602036600319011261016357602061031b600435610d22565b34610163576020366003190112610163576001600160a01b0361068661032c565b1680156106ad575f52600360205261027260405f2054604051918291829190602083019252565b60405162461bcd60e51b815260206004820152602a60248201527f4552433732313a2062616c616e636520717565727920666f7220746865207a6560448201527f726f2061646472657373000000000000000000000000000000000000000000006064820152608490fd5b634e487b7160e01b5f52604160045260245ffd5b90601f8019910116810190811067ffffffffffffffff82111761074e57604052565b610718565b67ffffffffffffffff811161074e57601f01601f191660200190565b81601f820112156101635780359061078682610753565b92610794604051948561072c565b8284526020838301011161016357815f926020809301838601378301015290565b34610163576060366003190112610163576107ce61032c565b602435906044359067ffffffffffffffff8211610163576103b5926107fa61080a93369060040161076f565b916108058282611177565b6114ae565b611297565b34610163575f366003190112610163576040515f6001548060011c90600181169081156108ba575b6020831082146102df5782855260208501919081156102c6575060011461086857610272846102668186038261072c565b60015f9081529250907fb10e2d527612073b26eecdfd717e6a320cf44b4afac2b0732d9fcbe2b7fa0cf65b8184106108a65750500161026682610256565b805484840152602090930192600101610893565b91607f1691610837565b34610163576040366003190112610163576103b561080a6108e361032c565b602435604051916108f560208461072c565b5f83526108058282611177565b346101635760403660031901126101635761091b61032c565b6024358015158103610163576001600160a01b038216913383146109a6578161096361097492335f52600560205260405f20906001600160a01b03165f5260205260405f2090565b9060ff801983541691151516179055565b604051901515815233907f17307eab39ab6107e8899845ad3d59bd9653f200f220920489ca2b5937696c3190602090a3005b60405162461bcd60e51b815260206004820152601960248201527f4552433732313a20617070726f766520746f2063616c6c6572000000000000006044820152606490fd5b3461016357608036600319011261016357610a0461032c565b610a0c610342565b906044356064359267ffffffffffffffff841161016357610a346103b594369060040161076f565b92610dab565b3461016357602036600319011261016357600435610a6c815f5260026020526001600160a01b0360405f205416151590565b15610acc57610a79610d0e565b805115610aba57610266610aa691610aac610a966102729561136e565b6040519485936020850190610dd4565b90610dd4565b03601f19810183528261072c565b5050610272610ac7610d0e565b610266565b60405162461bcd60e51b815260206004820152602f60248201527f4552433732314d657461646174613a2055524920717565727920666f72206e6f60448201527f6e6578697374656e7420746f6b656e00000000000000000000000000000000006064820152608490fd5b3461016357604036600319011261016357602060ff610b89610b5761032c565b6001600160a01b03610b67610342565b91165f526005845260405f20906001600160a01b03165f5260205260405f2090565b54166040519015158152f35b610bb3815f5260026020526001600160a01b0360405f205416151590565b15610bd0575f5260046020526001600160a01b0360405f20541690565b60405162461bcd60e51b815260206004820152602c60248201527f4552433732313a20617070726f76656420717565727920666f72206e6f6e657860448201526b34b9ba32b73a103a37b5b2b760a11b6064820152608490fd5b15610c3157565b60405162461bcd60e51b815260206004820152603860248201527f4552433732313a20617070726f76652063616c6c6572206973206e6f74206f7760448201527f6e6572206e6f7220617070726f76656420666f7220616c6c00000000000000006064820152608490fd5b15610ca357565b60405162461bcd60e51b815260206004820152603160248201527f4552433732313a207472616e736665722063616c6c6572206973206e6f74206f60448201527f776e6572206e6f7220617070726f7665640000000000000000000000000000006064820152608490fd5b60405190610d1d60208361072c565b5f8252565b5f5260026020526001600160a01b0360405f2054168015610d405790565b60405162461bcd60e51b815260206004820152602960248201527f4552433732313a206f776e657220717565727920666f72206e6f6e657869737460448201527f656e7420746f6b656e00000000000000000000000000000000000000000000006064820152608490fd5b91610dd2939161080a93610dc26104a78433610ea0565b610dcd83838361102a565b6115dd565b565b805191908290602001825e015f815290565b805f52600460205260405f206001600160a01b031981541690555f6001600160a01b03610e1283610d22565b167f8c5be1e5ebec7d5bd14f71427d1e84f3dd0314c0f7b2291e5b200ac8c7c3b9258280a4565b815f526004602052610e648160405f20906001600160a01b03166001600160a01b0319825416179055565b6001600160a01b0380610e7684610d22565b169116907f8c5be1e5ebec7d5bd14f71427d1e84f3dd0314c0f7b2291e5b200ac8c7c3b9255f80a4565b610ebe825f5260026020526001600160a01b0360405f205416151590565b15610f3a57610ecc82610d22565b6001600160a01b0382166001600160a01b0382168114938415610f1b575b50508215610ef757505090565b61020a9250906103dc6103f2926001600160a01b03165f52600560205260405f2090565b6001600160a01b0391929450610f3090610b95565b1614915f80610eea565b60405162461bcd60e51b815260206004820152602c60248201527f4552433732313a206f70657261746f7220717565727920666f72206e6f6e657860448201526b34b9ba32b73a103a37b5b2b760a11b6064820152608490fd5b15610f9b57565b60405162461bcd60e51b8152602060048201526024808201527f4552433732313a207472616e7366657220746f20746865207a65726f206164646044820152637265737360e01b6064820152608490fd5b634e487b7160e01b5f52601160045260245ffd5b5f1981019190821161059a57565b906001820180921161059a57565b603001908160301161059a57565b906001600160a01b039061103d84610d22565b828416928391160361110c57806110866001600160a01b036110e6931694611066861515610f94565b61106f87610de6565b6001600160a01b03165f52600360205260405f2090565b6110908154611000565b90556110ad816001600160a01b03165f52600360205260405f2090565b6110b7815461100e565b90556110cb855f52600260205260405f2090565b906001600160a01b03166001600160a01b0319825416179055565b7fddf252ad1be2c89b69c2b068fc378daa952ba7f163c4a11628f55a4df523b3ef5f80a4565b60405162461bcd60e51b815260206004820152602960248201527f4552433732313a207472616e73666572206f6620746f6b656e2074686174206960448201527f73206e6f74206f776e00000000000000000000000000000000000000000000006064820152608490fd5b6001600160a01b038116908115611253576111a6835f5260026020526001600160a01b0360405f205416151590565b61120e57806111c96111e7926001600160a01b03165f52600360205260405f2090565b6111d3815461100e565b90556110cb845f52600260205260405f2090565b5f7fddf252ad1be2c89b69c2b068fc378daa952ba7f163c4a11628f55a4df523b3ef8180a4565b60405162461bcd60e51b815260206004820152601c60248201527f4552433732313a20746f6b656e20616c7265616479206d696e746564000000006044820152606490fd5b606460405162461bcd60e51b815260206004820152602060248201527f4552433732313a206d696e7420746f20746865207a65726f20616464726573736044820152fd5b1561129e57565b60405162461bcd60e51b815260206004820152603260248201527f4552433732313a207472616e7366657220746f206e6f6e20455243373231526560448201527f63656976657220696d706c656d656e74657200000000000000000000000000006064820152608490fd5b5f19811461059a5760010190565b9061132182610753565b61132e604051918261072c565b828152809261133f601f1991610753565b0190602036910137565b90815181101561135a570160200190565b634e487b7160e01b5f52603260045260245ffd5b90811561141b575f82805b6113fc5750806113898492611317565b915b61139457509150565b6113a06113f591611000565b936113e16113b96113b3600a840661101c565b60ff1690565b60f81b7fff000000000000000000000000000000000000000000000000000000000000001690565b5f1a6113ed8685611349565b53600a900490565b928361138b565b929061140a61141291611309565b93600a900490565b80939193611379565b905060405161142b60408261072c565b60018152600360fc1b602082015290565b90816020910312610163575161020a81610139565b90926001600160a01b036080938161020a9796168452166020830152604082015281606082015201906101d5565b3d156114a9573d9061149082610753565b9161149e604051938461072c565b82523d5f602084013e565b606090565b91823b156115d5576114e4926020925f6001600160a01b03604051809781968295630a85bd0160e11b8452853360048601611451565b0393165af15f91816115a4575b50611576576114fe61147f565b805190816115715760405162461bcd60e51b815260206004820152603260248201527f4552433732313a207472616e7366657220746f206e6f6e20455243373231526560448201527f63656976657220696d706c656d656e74657200000000000000000000000000006064820152608490fd5b602001fd5b7fffffffff0000000000000000000000000000000000000000000000000000000016630a85bd0160e11b1490565b6115c791925060203d6020116115ce575b6115bf818361072c565b81019061143c565b905f6114f1565b503d6115b5565b505050600190565b919290803b15611615576114e4935f6001600160a01b0360209560405197889687958693630a85bd0160e11b85523360048601611451565b5050505060019056fea264697066735822122085413a0436bd7843473854db639ebc8746218c16635c14d1e5bb19c16157c4f964736f6c634300081a0033","linkReferences":{}},"methodIdentifiers":{"approve(address,uint256)":"095ea7b3","balanceOf(address)":"70a08231","burn(uint256)":"42966c68","exists(uint256)":"4f558e79","getApproved(uint256)":"081812fc","isApprovedForAll(address,address)":"e985e9c5","mint(address,uint256)":"40c10f19","name()":"06fdde03","ownerOf(uint256)":"6352211e","safeMint(address,uint256)":"a1448194","safeMint(address,uint256,bytes)":"8832e6e3","safeTransferFrom(address,address,uint256)":"42842e0e","safeTransferFrom(address,address,uint256,bytes)":"b88d4fde","setApprovalForAll(address,bool)":"a22cb465","supportsInterface(bytes4)":"01ffc9a7","symbol()":"95d89b41","tokenURI(uint256)":"c87b56dd","transferFrom(address,address,uint256)":"23b872dd"},"id":185}