{"abi":[{"type":"constructor","inputs":[{"name":"name","type":"string","internalType":"string"},{"name":"symbol","type":"string","internalType":"string"}],"stateMutability":"nonpayable"},{"type":"function","name":"approve","inputs":[{"name":"to","type":"address","internalType":"address"},{"name":"tokenId","type":"uint256","internalType":"uint256"}],"outputs":[],"stateMutability":"nonpayable"},{"type":"function","name":"balanceOf","inputs":[{"name":"owner","type":"address","internalType":"address"}],"outputs":[{"name":"","type":"uint256","internalType":"uint256"}],"stateMutability":"view"},{"type":"function","name":"baseURI","inputs":[],"outputs":[{"name":"","type":"string","internalType":"string"}],"stateMutability":"view"},{"type":"function","name":"burn","inputs":[{"name":"tokenId","type":"uint256","internalType":"uint256"}],"outputs":[],"stateMutability":"nonpayable"},{"type":"function","name":"exists","inputs":[{"name":"tokenId","type":"uint256","internalType":"uint256"}],"outputs":[{"name":"","type":"bool","internalType":"bool"}],"stateMutability":"view"},{"type":"function","name":"getApproved","inputs":[{"name":"tokenId","type":"uint256","internalType":"uint256"}],"outputs":[{"name":"","type":"address","internalType":"address"}],"stateMutability":"view"},{"type":"function","name":"isApprovedForAll","inputs":[{"name":"owner","type":"address","internalType":"address"},{"name":"operator","type":"address","internalType":"address"}],"outputs":[{"name":"","type":"bool","internalType":"bool"}],"stateMutability":"view"},{"type":"function","name":"mint","inputs":[{"name":"to","type":"address","internalType":"address"},{"name":"tokenId","type":"uint256","internalType":"uint256"}],"outputs":[],"stateMutability":"nonpayable"},{"type":"function","name":"name","inputs":[],"outputs":[{"name":"","type":"string","internalType":"string"}],"stateMutability":"view"},{"type":"function","name":"ownerOf","inputs":[{"name":"tokenId","type":"uint256","internalType":"uint256"}],"outputs":[{"name":"","type":"address","internalType":"address"}],"stateMutability":"view"},{"type":"function","name":"safeMint","inputs":[{"name":"to","type":"address","internalType":"address"},{"name":"tokenId","type":"uint256","internalType":"uint256"},{"name":"_data","type":"bytes","internalType":"bytes"}],"outputs":[],"stateMutability":"nonpayable"},{"type":"function","name":"safeMint","inputs":[{"name":"to","type":"address","internalType":"address"},{"name":"tokenId","type":"uint256","internalType":"uint256"}],"outputs":[],"stateMutability":"nonpayable"},{"type":"function","name":"safeTransferFrom","inputs":[{"name":"from","type":"address","internalType":"address"},{"name":"to","type":"address","internalType":"address"},{"name":"tokenId","type":"uint256","internalType":"uint256"}],"outputs":[],"stateMutability":"nonpayable"},{"type":"function","name":"safeTransferFrom","inputs":[{"name":"from","type":"address","internalType":"address"},{"name":"to","type":"address","internalType":"address"},{"name":"tokenId","type":"uint256","internalType":"uint256"},{"name":"_data","type":"bytes","internalType":"bytes"}],"outputs":[],"stateMutability":"nonpayable"},{"type":"function","name":"setApprovalForAll","inputs":[{"name":"operator","type":"address","internalType":"address"},{"name":"approved","type":"bool","internalType":"bool"}],"outputs":[],"stateMutability":"nonpayable"},{"type":"function","name":"setBaseURI","inputs":[{"name":"newBaseTokenURI","type":"string","internalType":"string"}],"outputs":[],"stateMutability":"nonpayable"},{"type":"function","name":"setTokenURI","inputs":[{"name":"tokenId","type":"uint256","internalType":"uint256"},{"name":"_tokenURI","type":"string","internalType":"string"}],"outputs":[],"stateMutability":"nonpayable"},{"type":"function","name":"supportsInterface","inputs":[{"name":"interfaceId","type":"bytes4","internalType":"bytes4"}],"outputs":[{"name":"","type":"bool","internalType":"bool"}],"stateMutability":"view"},{"type":"function","name":"symbol","inputs":[],"outputs":[{"name":"","type":"string","internalType":"string"}],"stateMutability":"view"},{"type":"function","name":"tokenURI","inputs":[{"name":"tokenId","type":"uint256","internalType":"uint256"}],"outputs":[{"name":"","type":"string","internalType":"string"}],"stateMutability":"view"},{"type":"function","name":"transferFrom","inputs":[{"name":"from","type":"address","internalType":"address"},{"name":"to","type":"address","internalType":"address"},{"name":"tokenId","type":"uint256","internalType":"uint256"}],"outputs":[],"stateMutability":"nonpayable"},{"type":"event","name":"Approval","inputs":[{"name":"owner","type":"address","indexed":true,"internalType":"address"},{"name":"approved","type":"address","indexed":true,"internalType":"address"},{"name":"tokenId","type":"uint256","indexed":true,"internalType":"uint256"}],"anonymous":false},{"type":"event","name":"ApprovalForAll","inputs":[{"name":"owner","type":"address","indexed":true,"internalType":"address"},{"name":"operator","type":"address","indexed":true,"internalType":"address"},{"name":"approved","type":"bool","indexed":false,"internalType":"bool"}],"anonymous":false},{"type":"event","name":"Transfer","inputs":[{"name":"from","type":"address","indexed":true,"internalType":"address"},{"name":"to","type":"address","indexed":true,"internalType":"address"},{"name":"tokenId","type":"uint256","indexed":true,"internalType":"uint256"}],"anonymous":false}],"bytecode":{"object":"0x60806040523461030b57612021803803806100198161030f565b92833981019060408183031261030b5780516001600160401b03811161030b5782610045918301610334565b60208201519092906001600160401b03811161030b576100659201610334565b81516001600160401b038111610221575f54600181811c91168015610301575b602082101461020357601f811161029f575b50602092601f821160011461024057928192935f92610235575b50508160011b915f199060031b1c1916175f555b80516001600160401b03811161022157600154600181811c91168015610217575b602082101461020357601f81116101a0575b50602091601f8211600114610140579181925f92610135575b50508160011b915f199060031b1c1916176001555b604051611c9b90816103868239f35b015190505f80610111565b601f1982169260015f52805f20915f5b85811061018857508360019510610170575b505050811b01600155610126565b01515f1960f88460031b161c191690555f8080610162565b91926020600181928685015181550194019201610150565b60015f527fb10e2d527612073b26eecdfd717e6a320cf44b4afac2b0732d9fcbe2b7fa0cf6601f830160051c810191602084106101f9575b601f0160051c01905b8181106101ee57506100f8565b5f81556001016101e1565b90915081906101d8565b634e487b7160e01b5f52602260045260245ffd5b90607f16906100e6565b634e487b7160e01b5f52604160045260245ffd5b015190505f806100b1565b601f198216935f8052805f20915f5b868110610287575083600195961061026f575b505050811b015f556100c5565b01515f1960f88460031b161c191690555f8080610262565b9192602060018192868501518155019401920161024f565b5f80527f290decd9548b62a8d60345a988386fc84ba6bc95484008f6362f93160ef3e563601f830160051c810191602084106102f7575b601f0160051c01905b8181106102ec5750610097565b5f81556001016102df565b90915081906102d6565b90607f1690610085565b5f80fd5b6040519190601f01601f191682016001600160401b0381118382101761022157604052565b81601f8201121561030b578051906001600160401b03821161022157610363601f8301601f191660200161030f565b928284526020838301011161030b57815f9260208093018386015e830101529056fe60806040526004361015610011575f80fd5b5f3560e01c806301ffc9a71461016457806306fdde031461015f578063081812fc1461015a578063095ea7b314610155578063162094c41461015057806323b872dd1461014b57806340c10f191461014657806342842e0e1461014157806342966c681461013c5780634f558e791461013757806355f804b3146101325780636352211e1461012d5780636c0360eb1461012857806370a08231146101235780638832e6e31461011e57806395d89b4114610119578063a144819414610114578063a22cb4651461010f578063b88d4fde1461010a578063c87b56dd146101055763e985e9c514610100575f80fd5b610d2e565b610d0f565b610cc0565b610bd7565b610b99565b610af4565b610a9a565b6109cc565b61099d565b61097f565b610851565b610814565b610749565b610720565b6106fb565b6106d2565b6104f2565b61036f565b610314565b61023d565b610197565b7fffffffff0000000000000000000000000000000000000000000000000000000081160361019357565b5f80fd5b346101935760203660031901126101935760206004356101b681610169565b63ffffffff60e01b166380ac58cd60e01b81149081156101f4575b81156101e3575b506040519015158152f35b6301ffc9a760e01b1490505f6101d8565b635b5e139f60e01b811491506101d1565b805180835260209291819084018484015e5f828201840152601f01601f1916010190565b90602061023a928181520190610205565b90565b34610193575f366003190112610193576040515f805461025c81610d8c565b80845290600181169081156102f05750600114610294575b6102908361028481850382610479565b60405191829182610229565b0390f35b5f8080527f290decd9548b62a8d60345a988386fc84ba6bc95484008f6362f93160ef3e563939250905b8082106102d657509091508101602001610284610274565b9192600181602092548385880101520191019092916102be565b60ff191660208086019190915291151560051b840190910191506102849050610274565b34610193576020366003190112610193576020610332600435610f19565b6001600160a01b0360405191168152f35b600435906001600160a01b038216820361019357565b602435906001600160a01b038216820361019357565b3461019357604036600319011261019357610388610343565b60243561039481611137565b916001600160a01b038316806001600160a01b03831614610416576103cc936103c79133149081156103ce575b50610fae565b61134a565b005b6104109150610409906103f333916001600160a01b03165f52600560205260405f2090565b906001600160a01b03165f5260205260405f2090565b5460ff1690565b5f6103c1565b60405162461bcd60e51b815260206004820152602160248201527f4552433732313a20617070726f76616c20746f2063757272656e74206f776e656044820152603960f91b6064820152608490fd5b634e487b7160e01b5f52604160045260245ffd5b90601f8019910116810190811067ffffffffffffffff82111761049b57604052565b610465565b67ffffffffffffffff811161049b57601f01601f191660200190565b9291926104c8826104a0565b916104d66040519384610479565b829481845281830111610193578281602093845f960137010152565b346101935760403660031901126101935760043560243567ffffffffffffffff81116101935736602382011215610193576105379036906024816004013591016104bc565b90610556815f5260026020526001600160a01b0360405f205416151590565b1561062d575f52600660205260405f20815167ffffffffffffffff811161049b5761058b816105858454610d8c565b846110ff565b602092601f82116001146105ca576105bb929382915f926105bf575b50508160011b915f199060031b1c19161790565b9055005b015190505f806105a7565b601f198216936105dd845f5260205f2090565b915f5b86811061061557508360019596106105fd575b505050811b019055005b01515f1960f88460031b161c191690555f80806105f3565b919260206001819286850151815501940192016105e0565b60405162461bcd60e51b815260206004820152602e60248201527f45524337323155524953746f726167653a2055524920736574206f66206e6f6e60448201527f6578697374656e7420746f6b656e0000000000000000000000000000000000006064820152608490fd5b6060906003190112610193576004356001600160a01b038116810361019357906024356001600160a01b0381168103610193579060443590565b34610193576103cc6106e336610698565b916106f66106f184336113b1565b611020565b61153b565b34610193576040366003190112610193576103cc610717610343565b60243590611688565b34610193576103cc61073136610698565b9060405192610741602085610479565b5f84526111c0565b34610193576020366003190112610193576004356001600160a01b0361076e82611137565b610777836112f7565b16805f52600360205260405f208054915f19830192831161080f5783925f92558282526002602052604082206001600160a01b031981541690557fddf252ad1be2c89b69c2b068fc378daa952ba7f163c4a11628f55a4df523b3ef8280a46107ef6107ea825f52600660205260405f2090565b6117a8565b6107f557005b61080a6103cc915f52600660205260405f2090565b6117b2565b6114fd565b346101935760203660031901126101935760206108476004355f5260026020526001600160a01b0360405f205416151590565b6040519015158152f35b346101935760203660031901126101935760043567ffffffffffffffff811161019357366023820112156101935780600401359067ffffffffffffffff8211610193573660248383010111610193576024019067ffffffffffffffff811161049b576108c7816108c2600754610d8c565b6110bc565b5f601f82116001146109035781906108f3935f926108f85750508160011b915f199060031b1c19161790565b600755005b013590505f806105a7565b60075f52601f198216927fa66cc928b5edb82af9bd49922954155ab7b0942694bea4ce44661d9a8736c688915f5b8581106109675750836001951061094e575b505050811b01600755005b01355f19600384901b60f8161c191690555f8080610943565b90926020600181928686013581550194019101610931565b34610193576020366003190112610193576020610332600435611137565b34610193575f366003190112610193576102906109b8610dc4565b604051918291602083526020830190610205565b34610193576020366003190112610193576001600160a01b036109ed610343565b168015610a14575f52600360205261029060405f2054604051918291829190602083019252565b60405162461bcd60e51b815260206004820152602a60248201527f4552433732313a2062616c616e636520717565727920666f7220746865207a6560448201527f726f2061646472657373000000000000000000000000000000000000000000006064820152608490fd5b9080601f830112156101935781602061023a933591016104bc565b3461019357606036600319011261019357610ab3610343565b602435906044359067ffffffffffffffff8211610193576103cc92610adf610aef933690600401610a7f565b91610aea8282611688565b6119c2565b611811565b34610193575f366003190112610193576040515f600154610b1481610d8c565b80845290600181169081156102f05750600114610b3b576102908361028481850382610479565b60015f9081527fb10e2d527612073b26eecdfd717e6a320cf44b4afac2b0732d9fcbe2b7fa0cf6939250905b808210610b7f57509091508101602001610284610274565b919260018160209254838588010152019101909291610b67565b34610193576040366003190112610193576103cc610aef610bb8610343565b60243560405191610bca602084610479565b5f8352610aea8282611688565b3461019357604036600319011261019357610bf0610343565b6024358015158103610193576001600160a01b03821691338314610c7b5781610c38610c4992335f52600560205260405f20906001600160a01b03165f5260205260405f2090565b9060ff801983541691151516179055565b604051901515815233907f17307eab39ab6107e8899845ad3d59bd9653f200f220920489ca2b5937696c3190602090a3005b60405162461bcd60e51b815260206004820152601960248201527f4552433732313a20617070726f766520746f2063616c6c6572000000000000006044820152606490fd5b3461019357608036600319011261019357610cd9610343565b610ce1610359565b906044356064359267ffffffffffffffff841161019357610d096103cc943690600401610a7f565b926111c0565b34610193576020366003190112610193576102906109b86004356111f9565b3461019357604036600319011261019357602060ff610d80610d4e610343565b6001600160a01b03610d5e610359565b91165f526005845260405f20906001600160a01b03165f5260205260405f2090565b54166040519015158152f35b90600182811c92168015610dba575b6020831014610da657565b634e487b7160e01b5f52602260045260245ffd5b91607f1691610d9b565b604051905f8260075491610dd783610d8c565b8083529260018116908115610e5c5750600114610dfd575b610dfb92500383610479565b565b5060075f90815290917fa66cc928b5edb82af9bd49922954155ab7b0942694bea4ce44661d9a8736c6885b818310610e40575050906020610dfb92820101610def565b6020919350806001915483858901015201910190918492610e28565b60209250610dfb94915060ff191682840152151560051b820101610def565b9060405191825f825492610e8e84610d8c565b8084529360018116908115610ef75750600114610eb3575b50610dfb92500383610479565b90505f9291925260205f20905f915b818310610edb575050906020610dfb928201015f610ea6565b6020919350806001915483858901015201910190918492610ec2565b905060209250610dfb94915060ff191682840152151560051b8201015f610ea6565b610f37815f5260026020526001600160a01b0360405f205416151590565b15610f54575f5260046020526001600160a01b0360405f20541690565b60405162461bcd60e51b815260206004820152602c60248201527f4552433732313a20617070726f76656420717565727920666f72206e6f6e657860448201526b34b9ba32b73a103a37b5b2b760a11b6064820152608490fd5b15610fb557565b60405162461bcd60e51b815260206004820152603860248201527f4552433732313a20617070726f76652063616c6c6572206973206e6f74206f7760448201527f6e6572206e6f7220617070726f76656420666f7220616c6c00000000000000006064820152608490fd5b1561102757565b60405162461bcd60e51b815260206004820152603160248201527f4552433732313a207472616e736665722063616c6c6572206973206e6f74206f60448201527f776e6572206e6f7220617070726f7665640000000000000000000000000000006064820152608490fd5b604051906110a1602083610479565b5f8252565b8181106110b1575050565b5f81556001016110a6565b90601f82116110c9575050565b610dfb9160075f5260205f20906020601f840160051c830193106110f5575b601f0160051c01906110a6565b90915081906110e8565b9190601f811161110e57505050565b610dfb925f5260205f20906020601f840160051c830193106110f557601f0160051c01906110a6565b5f5260026020526001600160a01b0360405f20541680156111555790565b60405162461bcd60e51b815260206004820152602960248201527f4552433732313a206f776e657220717565727920666f72206e6f6e657869737460448201527f656e7420746f6b656e00000000000000000000000000000000000000000000006064820152608490fd5b91610dfb9391610aef936111d76106f184336113b1565b6111e283838361153b565b611af1565b805191908290602001825e015f815290565b611217815f5260026020526001600160a01b0360405f205416151590565b1561128c57611236611231825f52600660205260405f2090565b610e7b565b9061123f610dc4565b805115611287578251611257575061023a9150611883565b61023a91506112796112739360405194859360208501906111e7565b906111e7565b03601f198101835282610479565b505090565b60405162461bcd60e51b815260206004820152603160248201527f45524337323155524953746f726167653a2055524920717565727920666f722060448201527f6e6f6e6578697374656e7420746f6b656e0000000000000000000000000000006064820152608490fd5b805f52600460205260405f206001600160a01b031981541690555f6001600160a01b0361132383611137565b167f8c5be1e5ebec7d5bd14f71427d1e84f3dd0314c0f7b2291e5b200ac8c7c3b9258280a4565b815f5260046020526113758160405f20906001600160a01b03166001600160a01b0319825416179055565b6001600160a01b038061138784611137565b169116907f8c5be1e5ebec7d5bd14f71427d1e84f3dd0314c0f7b2291e5b200ac8c7c3b9255f80a4565b6113cf825f5260026020526001600160a01b0360405f205416151590565b1561144b576113dd82611137565b6001600160a01b0382166001600160a01b038216811493841561142c575b5050821561140857505090565b61023a9250906103f3610409926001600160a01b03165f52600560205260405f2090565b6001600160a01b039192945061144190610f19565b1614915f806113fb565b60405162461bcd60e51b815260206004820152602c60248201527f4552433732313a206f70657261746f7220717565727920666f72206e6f6e657860448201526b34b9ba32b73a103a37b5b2b760a11b6064820152608490fd5b156114ac57565b60405162461bcd60e51b8152602060048201526024808201527f4552433732313a207472616e7366657220746f20746865207a65726f206164646044820152637265737360e01b6064820152608490fd5b634e487b7160e01b5f52601160045260245ffd5b5f1981019190821161080f57565b906001820180921161080f57565b603001908160301161080f57565b906001600160a01b039061154e84611137565b828416928391160361161d57806115976001600160a01b036115f79316946115778615156114a5565b611580876112f7565b6001600160a01b03165f52600360205260405f2090565b6115a18154611511565b90556115be816001600160a01b03165f52600360205260405f2090565b6115c8815461151f565b90556115dc855f52600260205260405f2090565b906001600160a01b03166001600160a01b0319825416179055565b7fddf252ad1be2c89b69c2b068fc378daa952ba7f163c4a11628f55a4df523b3ef5f80a4565b60405162461bcd60e51b815260206004820152602960248201527f4552433732313a207472616e73666572206f6620746f6b656e2074686174206960448201527f73206e6f74206f776e00000000000000000000000000000000000000000000006064820152608490fd5b6001600160a01b038116908115611764576116b7835f5260026020526001600160a01b0360405f205416151590565b61171f57806116da6116f8926001600160a01b03165f52600360205260405f2090565b6116e4815461151f565b90556115dc845f52600260205260405f2090565b5f7fddf252ad1be2c89b69c2b068fc378daa952ba7f163c4a11628f55a4df523b3ef8180a4565b60405162461bcd60e51b815260206004820152601c60248201527f4552433732313a20746f6b656e20616c7265616479206d696e746564000000006044820152606490fd5b606460405162461bcd60e51b815260206004820152602060248201527f4552433732313a206d696e7420746f20746865207a65726f20616464726573736044820152fd5b61023a9054610d8c565b6117bc8154610d8c565b90816117c6575050565b81601f5f93116001146117d7575055565b818352602083206117f391601f0160051c8101906001016110a6565b808252602082209081548360011b9084198560031b1c191617905555565b1561181857565b60405162461bcd60e51b815260206004820152603260248201527f4552433732313a207472616e7366657220746f206e6f6e20455243373231526560448201527f63656976657220696d706c656d656e74657200000000000000000000000000006064820152608490fd5b6118a1815f5260026020526001600160a01b0360405f205416151590565b156118e5576118ae610dc4565b8051909190156118db57611273916112796118cb61023a93611b97565b60405194859360208501906111e7565b505061023a611092565b60405162461bcd60e51b815260206004820152602f60248201527f4552433732314d657461646174613a2055524920717565727920666f72206e6f60448201527f6e6578697374656e7420746f6b656e00000000000000000000000000000000006064820152608490fd5b90816020910312610193575161023a81610169565b90926001600160a01b036080938161023a979616845216602083015260408201528160608201520190610205565b3d156119bd573d906119a4826104a0565b916119b26040519384610479565b82523d5f602084013e565b606090565b91823b15611ae9576119f8926020925f6001600160a01b03604051809781968295630a85bd0160e11b8452853360048601611965565b0393165af15f9181611ab8575b50611a8a57611a12611993565b80519081611a855760405162461bcd60e51b815260206004820152603260248201527f4552433732313a207472616e7366657220746f206e6f6e20455243373231526560448201527f63656976657220696d706c656d656e74657200000000000000000000000000006064820152608490fd5b602001fd5b7fffffffff0000000000000000000000000000000000000000000000000000000016630a85bd0160e11b1490565b611adb91925060203d602011611ae2575b611ad38183610479565b810190611950565b905f611a05565b503d611ac9565b505050600190565b919290803b15611b29576119f8935f6001600160a01b0360209560405197889687958693630a85bd0160e11b85523360048601611965565b50505050600190565b5f19811461080f5760010190565b90611b4a826104a0565b611b576040519182610479565b8281528092611b68601f19916104a0565b0190602036910137565b908151811015611b83570160200190565b634e487b7160e01b5f52603260045260245ffd5b908115611c44575f82805b611c25575080611bb28492611b40565b915b611bbd57509150565b611bc9611c1e91611511565b93611c0a611be2611bdc600a840661152d565b60ff1690565b60f81b7fff000000000000000000000000000000000000000000000000000000000000001690565b5f1a611c168685611b72565b53600a900490565b9283611bb4565b9290611c33611c3b91611b32565b93600a900490565b80939193611ba2565b9050604051611c54604082610479565b60018152600360fc1b60208201529056fea26469706673582212205d8fd40dc9f496e5e71790f37f4d2021f280cb5e3728041acfa877af71e7bfa864736f6c634300081a0033","linkReferences":{}},"methodIdentifiers":{"approve(address,uint256)":"095ea7b3","balanceOf(address)":"70a08231","baseURI()":"6c0360eb","burn(uint256)":"42966c68","exists(uint256)":"4f558e79","getApproved(uint256)":"081812fc","isApprovedForAll(address,address)":"e985e9c5","mint(address,uint256)":"40c10f19","name()":"06fdde03","ownerOf(uint256)":"6352211e","safeMint(address,uint256)":"a1448194","safeMint(address,uint256,bytes)":"8832e6e3","safeTransferFrom(address,address,uint256)":"42842e0e","safeTransferFrom(address,address,uint256,bytes)":"b88d4fde","setApprovalForAll(address,bool)":"a22cb465","setBaseURI(string)":"55f804b3","setTokenURI(uint256,string)":"162094c4","supportsInterface(bytes4)":"01ffc9a7","symbol()":"95d89b41","tokenURI(uint256)":"c87b56dd","transferFrom(address,address,uint256)":"23b872dd"},"id":190}