{"abi":[{"type":"constructor","inputs":[],"stateMutability":"payable"},{"type":"function","name":"callTransfer","inputs":[{"name":"dest","type":"address","internalType":"address"},{"name":"amount","type":"uint256","internalType":"uint256"}],"outputs":[],"stateMutability":"nonpayable"},{"type":"function","name":"payments","inputs":[{"name":"dest","type":"address","internalType":"address"}],"outputs":[{"name":"","type":"uint256","internalType":"uint256"}],"stateMutability":"view"},{"type":"function","name":"withdrawPayments","inputs":[{"name":"payee","type":"address","internalType":"address payable"}],"outputs":[],"stateMutability":"nonpayable"}],"bytecode":{"object":"0x60a060408190526105368082016001600160401b038111838210176060578291610332833903905ff080156055576080526040516102bd9081610075823960805181818160840152818161012c01526101d00152f35b6040513d5f823e3d90fd5b634e487b7160e01b5f52604160045260245ffdfe6080806040526004361015610012575f80fd5b5f905f3560e01c90816331b3eb941461019f57508063d4440991146101075763e2982c211461003f575f80fd5b346101045760203660031901126101045761005861023b565b6001600160a01b03604051916371d4ed8d60e11b83521660048201526020816024816001600160a01b037f0000000000000000000000000000000000000000000000000000000000000000165afa9081156100f95782916100bf575b602082604051908152f35b90506020813d6020116100f1575b816100da60209383610251565b810103126100ed5760209150515f6100b4565b5080fd5b3d91506100cd565b6040513d84823e3d90fd5b80fd5b5034610104576040366003190112610104578061012261023b565b6001600160a01b037f00000000000000000000000000000000000000000000000000000000000000001690813b1561019b576001600160a01b0360248492604051948593849263f340fa0160e01b84521660048301528235905af180156100f95761018a5750f35b8161019491610251565b6101045780f35b5050fd5b905034610237576020366003190112610237576004356001600160a01b038116809103610237576001600160a01b037f000000000000000000000000000000000000000000000000000000000000000016803b15610237576024835f819381956351cff8d960e01b845260048401525af1801561022c5761021e575080f35b61022a91505f90610251565b005b6040513d5f823e3d90fd5b5f80fd5b600435906001600160a01b038216820361023757565b90601f8019910116810190811067ffffffffffffffff82111761027357604052565b634e487b7160e01b5f52604160045260245ffdfea26469706673582212203f12ac3cb89c5b31a684255f6f60f4dee8600a324ab373856df7b83d9d5e4e6b64736f6c634300081a0033608080604052346059575f8054336001600160a01b0319821681178355916001600160a01b03909116907f8be0079c531659141344cd1fd0a4f28419497f9722a3daafe3b4186f6b6457e09080a36104d8908161005e8239f35b5f80fdfe60806040526004361015610011575f80fd5b5f3560e01c806351cff8d9146102b7578063715018a6146102465780638da5cb5b14610221578063e3a9db1a146101e6578063f2fde38b146100ee5763f340fa011461005b575f80fd5b60203660031901126100ea576004356001600160a01b0381168091036100ea576100906001600160a01b035f54163314610457565b805f52600160205260405f208054903482018092116100d657557f2da466a7b24304f47e87fa2e1e5a81b9831ce54fec19055ce277ca2f39ba42c46020604051348152a2005b634e487b7160e01b5f52601160045260245ffd5b5f80fd5b346100ea5760203660031901126100ea576004356001600160a01b0381168091036100ea576101286001600160a01b035f54163314610457565b801561017b576001600160a01b035f548273ffffffffffffffffffffffffffffffffffffffff198216175f55167f8be0079c531659141344cd1fd0a4f28419497f9722a3daafe3b4186f6b6457e05f80a3005b60405162461bcd60e51b815260206004820152602660248201527f4f776e61626c653a206e6577206f776e657220697320746865207a65726f206160448201527f64647265737300000000000000000000000000000000000000000000000000006064820152608490fd5b346100ea5760203660031901126100ea576004356001600160a01b0381168091036100ea575f526001602052602060405f2054604051908152f35b346100ea575f3660031901126100ea5760206001600160a01b035f5416604051908152f35b346100ea575f3660031901126100ea5761026b6001600160a01b035f54163314610457565b5f6001600160a01b03815473ffffffffffffffffffffffffffffffffffffffff1981168355167f8be0079c531659141344cd1fd0a4f28419497f9722a3daafe3b4186f6b6457e08280a3005b346100ea5760203660031901126100ea576004356001600160a01b0381168091036100ea576102f16001600160a01b035f54163314610457565b5f8181526001602052604081208054919055478111610412575f80808084865af13d1561040d573d67ffffffffffffffff81116103f95760405190601f8101601f19908116603f0116820167ffffffffffffffff8111838210176103f95760405281525f60203d92013e5b1561038e5760207f7084f5476618d8e60b11ef0d7d3f06914655adb8793e28ff7f018d4c76d505d591604051908152a2005b60405162461bcd60e51b815260206004820152603a60248201527f416464726573733a20756e61626c6520746f2073656e642076616c75652c207260448201527f6563697069656e74206d617920686176652072657665727465640000000000006064820152608490fd5b634e487b7160e01b5f52604160045260245ffd5b61035c565b60405162461bcd60e51b815260206004820152601d60248201527f416464726573733a20696e73756666696369656e742062616c616e63650000006044820152606490fd5b1561045e57565b606460405162461bcd60e51b815260206004820152602060248201527f4f776e61626c653a2063616c6c6572206973206e6f7420746865206f776e65726044820152fdfea2646970667358221220251dca4bd8c93eafc67036fb010c182eb48b92698cc506eebffeb917a4b59f0e64736f6c634300081a0033","linkReferences":{}},"methodIdentifiers":{"callTransfer(address,uint256)":"d4440991","payments(address)":"e2982c21","withdrawPayments(address)":"31b3eb94"},"id":204}