{"abi":[{"type":"function","name":"balanceOf","inputs":[{"name":"account","type":"address","internalType":"address"},{"name":"id","type":"uint256","internalType":"uint256"}],"outputs":[{"name":"","type":"uint256","internalType":"uint256"}],"stateMutability":"view"},{"type":"function","name":"balanceOfBatch","inputs":[{"name":"accounts","type":"address[]","internalType":"address[]"},{"name":"ids","type":"uint256[]","internalType":"uint256[]"}],"outputs":[{"name":"","type":"uint256[]","internalType":"uint256[]"}],"stateMutability":"view"},{"type":"function","name":"burn","inputs":[{"name":"owner","type":"address","internalType":"address"},{"name":"id","type":"uint256","internalType":"uint256"},{"name":"value","type":"uint256","internalType":"uint256"}],"outputs":[],"stateMutability":"nonpayable"},{"type":"function","name":"burnBatch","inputs":[{"name":"owner","type":"address","internalType":"address"},{"name":"ids","type":"uint256[]","internalType":"uint256[]"},{"name":"values","type":"uint256[]","internalType":"uint256[]"}],"outputs":[],"stateMutability":"nonpayable"},{"type":"function","name":"exists","inputs":[{"name":"id","type":"uint256","internalType":"uint256"}],"outputs":[{"name":"","type":"bool","internalType":"bool"}],"stateMutability":"view"},{"type":"function","name":"isApprovedForAll","inputs":[{"name":"account","type":"address","internalType":"address"},{"name":"operator","type":"address","internalType":"address"}],"outputs":[{"name":"","type":"bool","internalType":"bool"}],"stateMutability":"view"},{"type":"function","name":"mint","inputs":[{"name":"to","type":"address","internalType":"address"},{"name":"id","type":"uint256","internalType":"uint256"},{"name":"value","type":"uint256","internalType":"uint256"},{"name":"data","type":"bytes","internalType":"bytes"}],"outputs":[],"stateMutability":"nonpayable"},{"type":"function","name":"mintBatch","inputs":[{"name":"to","type":"address","internalType":"address"},{"name":"ids","type":"uint256[]","internalType":"uint256[]"},{"name":"values","type":"uint256[]","internalType":"uint256[]"},{"name":"data","type":"bytes","internalType":"bytes"}],"outputs":[],"stateMutability":"nonpayable"},{"type":"function","name":"safeBatchTransferFrom","inputs":[{"name":"from","type":"address","internalType":"address"},{"name":"to","type":"address","internalType":"address"},{"name":"ids","type":"uint256[]","internalType":"uint256[]"},{"name":"amounts","type":"uint256[]","internalType":"uint256[]"},{"name":"data","type":"bytes","internalType":"bytes"}],"outputs":[],"stateMutability":"nonpayable"},{"type":"function","name":"safeTransferFrom","inputs":[{"name":"from","type":"address","internalType":"address"},{"name":"to","type":"address","internalType":"address"},{"name":"id","type":"uint256","internalType":"uint256"},{"name":"amount","type":"uint256","internalType":"uint256"},{"name":"data","type":"bytes","internalType":"bytes"}],"outputs":[],"stateMutability":"nonpayable"},{"type":"function","name":"setApprovalForAll","inputs":[{"name":"operator","type":"address","internalType":"address"},{"name":"approved","type":"bool","internalType":"bool"}],"outputs":[],"stateMutability":"nonpayable"},{"type":"function","name":"setURI","inputs":[{"name":"newuri","type":"string","internalType":"string"}],"outputs":[],"stateMutability":"nonpayable"},{"type":"function","name":"supportsInterface","inputs":[{"name":"interfaceId","type":"bytes4","internalType":"bytes4"}],"outputs":[{"name":"","type":"bool","internalType":"bool"}],"stateMutability":"view"},{"type":"function","name":"totalSupply","inputs":[{"name":"id","type":"uint256","internalType":"uint256"}],"outputs":[{"name":"","type":"uint256","internalType":"uint256"}],"stateMutability":"view"},{"type":"function","name":"uri","inputs":[{"name":"","type":"uint256","internalType":"uint256"}],"outputs":[{"name":"","type":"string","internalType":"string"}],"stateMutability":"view"},{"type":"event","name":"ApprovalForAll","inputs":[{"name":"account","type":"address","indexed":true,"internalType":"address"},{"name":"operator","type":"address","indexed":true,"internalType":"address"},{"name":"approved","type":"bool","indexed":false,"internalType":"bool"}],"anonymous":false},{"type":"event","name":"TransferBatch","inputs":[{"name":"operator","type":"address","indexed":true,"internalType":"address"},{"name":"from","type":"address","indexed":true,"internalType":"address"},{"name":"to","type":"address","indexed":true,"internalType":"address"},{"name":"ids","type":"uint256[]","indexed":false,"internalType":"uint256[]"},{"name":"values","type":"uint256[]","indexed":false,"internalType":"uint256[]"}],"anonymous":false},{"type":"event","name":"TransferSingle","inputs":[{"name":"operator","type":"address","indexed":true,"internalType":"address"},{"name":"from","type":"address","indexed":true,"internalType":"address"},{"name":"to","type":"address","indexed":true,"internalType":"address"},{"name":"id","type":"uint256","indexed":false,"internalType":"uint256"},{"name":"value","type":"uint256","indexed":false,"internalType":"uint256"}],"anonymous":false},{"type":"event","name":"URI","inputs":[{"name":"value","type":"string","indexed":false,"internalType":"string"},{"name":"id","type":"uint256","indexed":true,"internalType":"uint256"}],"anonymous":false}],"bytecode":{"object":"0x608080604052346015576119c2908161001a8239f35b5f80fdfe60806040526004361015610011575f80fd5b5f3560e01c8062fdd58e1461135d57806301ffc9a7146112ef57806302fe53051461111c5780630e89341c1461103d5780631f7fdffa14610e275780632eb2c2d614610b545780634e1273f41461099f5780634f558e79146109735780636b20c45414610805578063731133e914610689578063a22cb46514610595578063bd85b0391461056b578063e985e9c514610512578063f242432a146101a05763f5298aca146100bd575f80fd5b3461019c57606036600319011261019c576100d661138c565b60c96024356001600160a01b036044359316906100f48215156118dc565b6100fd8161185f565b506101078461185f565b505f6020928160405161011a86826113b8565b5282825260658452604082208183528452604082205461013c87821015611934565b8383526065855260408320828452855286604084209103905560405183815286858201527fc3d58168c5ae7397731d063d5bbf3d657854427343f4c083240f7aacaa2d0f6260403392a45f525261019860405f20918254611852565b9055005b5f80fd5b3461019c5760a036600319011261019c576101b961138c565b6101c16113a2565b604435906064359060843567ffffffffffffffff811161019c576101f16001600160a01b039136906004016114b9565b94169233841480156104e9575b1561047e576001600160a01b03821691610219831515611679565b6102228261185f565b5061022c8461185f565b50815f52606560205260405f20855f5260205260405f2054610250858210156116eb565b5f8381526065602090815260408083208984529091528082209287900390925584815220805461028190869061175d565b905582856040518481528660208201527fc3d58168c5ae7397731d063d5bbf3d657854427343f4c083240f7aacaa2d0f6260403392a43b6102be57005b5f6020946102ff6040519788968795869463f23a6e6160e01b865233600487015260248601526044850152606484015260a0608484015260a4830190611420565b03925af15f918161044d575b506103c9576103186117c3565b6308c379a014610392575b60405162461bcd60e51b815260206004820152603460248201527f455243313135353a207472616e7366657220746f206e6f6e204552433131353560448201527f526563656976657220696d706c656d656e7465720000000000000000000000006064820152608490fd5b0390fd5b61039a6117de565b806103a55750610323565b60405162461bcd60e51b81526020600482015290819061038e906024830190611420565b6001600160e01b031916630dc5919f60e01b016103e257005b60405162461bcd60e51b815260206004820152602860248201527f455243313135353a204552433131353552656365697665722072656a6563746560448201527f6420746f6b656e730000000000000000000000000000000000000000000000006064820152608490fd5b61047091925060203d602011610477575b61046881836113b8565b8101906117a3565b908261030b565b503d61045e565b60405162461bcd60e51b815260206004820152602960248201527f455243313135353a2063616c6c6572206973206e6f74206f776e6572206e6f7260448201527f20617070726f76656400000000000000000000000000000000000000000000006064820152608490fd5b50835f52606660205260405f206001600160a01b0333165f5260205260ff60405f2054166101fe565b3461019c57604036600319011261019c5761052b61138c565b6001600160a01b0361053b6113a2565b91165f5260666020526001600160a01b0360405f2091165f52602052602060ff60405f2054166040519015158152f35b3461019c57602036600319011261019c576004355f5260c9602052602060405f2054604051908152f35b3461019c57604036600319011261019c576105ae61138c565b6024359081151580920361019c576001600160a01b03169081331461061e57335f52606660205260405f20825f5260205260405f2060ff1981541660ff83161790556040519081527f17307eab39ab6107e8899845ad3d59bd9653f200f220920489ca2b5937696c3160203392a3005b60405162461bcd60e51b815260206004820152602960248201527f455243313135353a2073657474696e6720617070726f76616c2073746174757360448201527f20666f722073656c6600000000000000000000000000000000000000000000006064820152608490fd5b3461019c57608036600319011261019c576106a261138c565b6024356044359160643567ffffffffffffffff811161019c576106c99036906004016114b9565b906001600160a01b038116906106e0821515611886565b6106e98461185f565b506106f38561185f565b50835f52606560205260405f20825f5260205260405f2061071586825461175d565b9055815f6040518681528760208201527fc3d58168c5ae7397731d063d5bbf3d657854427343f4c083240f7aacaa2d0f6260403392a43b610769575b50505f5260c960205261019860405f2091825461175d565b6107ad6020915f9360405194858094819363f23a6e6160e01b83523360048401528360248401528960448401528a606484015260a0608484015260a4830190611420565b03925af15f91816107e4575b506107c6576103186117c3565b6001600160e01b031916630dc5919f60e01b016103e2578280610751565b6107fe91925060203d6020116104775761046881836113b8565b90846107b9565b3461019c57606036600319011261019c5761081e61138c565b60243567ffffffffffffffff811161019c5761083e90369060040161145c565b9060443567ffffffffffffffff811161019c576108676001600160a01b0391369060040161145c565b9116906108758215156118dc565b6108828351825114611607565b60205f60405161089283826113b8565b525f5b84518110156108f657806108ab600192876115df565b516108b682866115df565b51815f526065855260405f20875f52855260405f2054916108d982841015611934565b5f526065855260405f20875f52855260405f209103905501610895565b50915f84916040517f4a39dc06d4c0dbc64b70af90fd698a233a518aa5d07e595d983b8c0526c8f7fb33918061092d88888361177e565b0390a45f5b81518110156109715780610948600192856115df565b5161095382856115df565b515f5260c9865261096960405f20918254611852565b905501610932565b005b3461019c57602036600319011261019c576004355f5260c9602052602060405f20541515604051908152f35b3461019c57604036600319011261019c5760043567ffffffffffffffff811161019c573660238201121561019c5780600401356109db81611444565b916109e960405193846113b8565b8183526024602084019260051b8201019036821161019c57602401915b818310610b34578360243567ffffffffffffffff811161019c57610a2e90369060040161145c565b908051825103610ac957805191610a4483611444565b92610a5260405194856113b8565b808452610a61601f1991611444565b013660208501375f5b8251811015610aaf5780610a9e6001600160a01b03610a8b600194876115df565b5116610a9783866115df565b519061150a565b610aa882876115df565b5201610a6a565b60405160208082528190610ac5908201876114d7565b0390f35b60405162461bcd60e51b815260206004820152602960248201527f455243313135353a206163636f756e747320616e6420696473206c656e67746860448201527f206d69736d6174636800000000000000000000000000000000000000000000006064820152608490fd5b82356001600160a01b038116810361019c57815260209283019201610a06565b3461019c5760a036600319011261019c57610b6d61138c565b610b756113a2565b60443567ffffffffffffffff811161019c57610b9590369060040161145c565b60643567ffffffffffffffff811161019c57610bb590369060040161145c565b9260843567ffffffffffffffff811161019c57610bde6001600160a01b039136906004016114b9565b9116913383148015610dfe575b15610d9357610bfd8151865114611607565b6001600160a01b03841691610c13831515611679565b5f5b8251811015610c9e5780610c2b600192856115df565b51610c36828a6115df565b5190805f52606560205260405f20885f5260205260405f2054610c5b838210156116eb565b815f52606560205260405f20895f526020528260405f20910390555f52606560205260405f20865f52602052610c9660405f2091825461175d565b905501610c15565b509382846040517f4a39dc06d4c0dbc64b70af90fd698a233a518aa5d07e595d983b8c0526c8f7fb339180610cd48c898361177e565b0390a43b610cde57005b5f610d1c93610d40602096610d2e604051998a988997889663bc197c8160e01b8852336004890152602488015260a0604488015260a48701906114d7565b858103600319016064870152906114d7565b83810360031901608485015290611420565b03925af15f9181610d72575b50610d59576103186117c3565b6001600160e01b0319166343e6837f60e01b016103e257005b610d8c91925060203d6020116104775761046881836113b8565b9082610d4c565b60405162461bcd60e51b815260206004820152603260248201527f455243313135353a207472616e736665722063616c6c6572206973206e6f742060448201527f6f776e6572206e6f7220617070726f76656400000000000000000000000000006064820152608490fd5b50825f52606660205260405f206001600160a01b0333165f5260205260ff60405f205416610beb565b3461019c57608036600319011261019c57610e4061138c565b60243567ffffffffffffffff811161019c57610e6090369060040161145c565b9060443567ffffffffffffffff811161019c57610e8190369060040161145c565b9160643567ffffffffffffffff811161019c57610ea29036906004016114b9565b6001600160a01b03831690610eb8821515611886565b610ec58351865114611607565b5f5b8351811015610f115780610edd600192886115df565b51610ee882876115df565b515f52606560205260405f20855f52602052610f0960405f2091825461175d565b905501610ec7565b509192815f6040517f4a39dc06d4c0dbc64b70af90fd698a233a518aa5d07e595d983b8c0526c8f7fb339180610f488b8b8361177e565b0390a43b610f95575b50505f5b81518110156109715780610f6b600192856115df565b51610f7682856115df565b515f5260c9602052610f8d60405f2091825461175d565b905501610f55565b610fe56020915f9360405194858094819363bc197c8160e01b835233600484015283602484015260a06044840152610d2e610fd360a485018c6114d7565b8481036003190160648601528c6114d7565b03925af15f918161101c575b50610ffe576103186117c3565b6001600160e01b0319166343e6837f60e01b016103e2578280610f51565b61103691925060203d6020116104775761046881836113b8565b9084610ff1565b3461019c57602036600319011261019c576040515f60675461105e816115a7565b80845290600181169081156110f8575060011461109a575b610ac583611086818503826113b8565b604051918291602083526020830190611420565b91905060675f527f9787eeb91fe3101235e4a76063c7023ecb40f923f97916639c598592fa30d6ae915f905b8082106110de57509091508101602001611086611076565b9192600181602092548385880101520191019092916110c6565b60ff191660208086019190915291151560051b840190910191506110869050611076565b3461019c57602036600319011261019c5760043567ffffffffffffffff811161019c573660238201121561019c5761115e9036906024816004013591016113da565b805167ffffffffffffffff81116112db5761117a6067546115a7565b601f811161123a575b50602091601f82116001146111bf579181925f926111b4575b50505f19600383901b1c191660019190911b17606755005b01519050828061119c565b601f1982169260675f527f9787eeb91fe3101235e4a76063c7023ecb40f923f97916639c598592fa30d6ae915f5b8581106112225750836001951061120a575b505050811b01606755005b01515f1960f88460031b161c191690558280806111ff565b919260206001819286850151815501940192016111ed565b60675f52601f820160051c7f9787eeb91fe3101235e4a76063c7023ecb40f923f97916639c598592fa30d6ae0190602083106112b3575b601f0160051c7f9787eeb91fe3101235e4a76063c7023ecb40f923f97916639c598592fa30d6ae01905b8181106112a85750611183565b5f815560010161129b565b7f9787eeb91fe3101235e4a76063c7023ecb40f923f97916639c598592fa30d6ae9150611271565b634e487b7160e01b5f52604160045260245ffd5b3461019c57602036600319011261019c5760043563ffffffff60e01b811680910361019c57602090636cdb3d1360e11b811490811561134c575b811561133b575b506040519015158152f35b6301ffc9a760e01b14905082611330565b6303a24d0760e21b81149150611329565b3461019c57604036600319011261019c57602061138461137b61138c565b6024359061150a565b604051908152f35b600435906001600160a01b038216820361019c57565b602435906001600160a01b038216820361019c57565b90601f8019910116810190811067ffffffffffffffff8211176112db57604052565b92919267ffffffffffffffff82116112db5760405191611404601f8201601f1916602001846113b8565b82948184528183011161019c578281602093845f960137010152565b805180835260209291819084018484015e5f828201840152601f01601f1916010190565b67ffffffffffffffff81116112db5760051b60200190565b9080601f8301121561019c57813561147381611444565b9261148160405194856113b8565b81845260208085019260051b82010192831161019c57602001905b8282106114a95750505090565b813581526020918201910161149c565b9080601f8301121561019c578160206114d4933591016113da565b90565b90602080835192838152019201905f5b8181106114f45750505090565b82518452602093840193909201916001016114e7565b906001600160a01b0382161561153c575f5260656020526001600160a01b0360405f2091165f5260205260405f205490565b60405162461bcd60e51b815260206004820152602b60248201527f455243313135353a2062616c616e636520717565727920666f7220746865207a60448201527f65726f20616464726573730000000000000000000000000000000000000000006064820152608490fd5b90600182811c921680156115d5575b60208310146115c157565b634e487b7160e01b5f52602260045260245ffd5b91607f16916115b6565b80518210156115f35760209160051b010190565b634e487b7160e01b5f52603260045260245ffd5b1561160e57565b60405162461bcd60e51b815260206004820152602860248201527f455243313135353a2069647320616e6420616d6f756e7473206c656e6774682060448201527f6d69736d617463680000000000000000000000000000000000000000000000006064820152608490fd5b1561168057565b60405162461bcd60e51b815260206004820152602560248201527f455243313135353a207472616e7366657220746f20746865207a65726f20616460448201527f64726573730000000000000000000000000000000000000000000000000000006064820152608490fd5b156116f257565b60405162461bcd60e51b815260206004820152602a60248201527f455243313135353a20696e73756666696369656e742062616c616e636520666f60448201527f72207472616e73666572000000000000000000000000000000000000000000006064820152608490fd5b9190820180921161176a57565b634e487b7160e01b5f52601160045260245ffd5b90916117956114d4936040845260408401906114d7565b9160208184039101526114d7565b9081602091031261019c57516001600160e01b03198116810361019c5790565b5f9060033d116117cf57565b905060045f803e5f5160e01c90565b5f60443d106114d4576040513d600319016004823e8051913d602484011167ffffffffffffffff84111761184c578282019283519167ffffffffffffffff8311611844573d8401600319018584016020011161184457506114d4929101602001906113b8565b949350505050565b92915050565b9190820391821161176a57565b6040519061186e6040836113b8565b600182526020808301903682378251156115f3575290565b1561188d57565b60405162461bcd60e51b815260206004820152602160248201527f455243313135353a206d696e7420746f20746865207a65726f206164647265736044820152607360f81b6064820152608490fd5b156118e357565b60405162461bcd60e51b815260206004820152602360248201527f455243313135353a206275726e2066726f6d20746865207a65726f206164647260448201526265737360e81b6064820152608490fd5b1561193b57565b60405162461bcd60e51b8152602060048201526024808201527f455243313135353a206275726e20616d6f756e7420657863656564732062616c604482015263616e636560e01b6064820152608490fdfea264697066735822122075e41432227fc40dac454cf7973a359b2740f4e48c22835f8dd51cc0077ab57164736f6c634300081a0033","linkReferences":{}},"methodIdentifiers":{"balanceOf(address,uint256)":"00fdd58e","balanceOfBatch(address[],uint256[])":"4e1273f4","burn(address,uint256,uint256)":"f5298aca","burnBatch(address,uint256[],uint256[])":"6b20c454","exists(uint256)":"4f558e79","isApprovedForAll(address,address)":"e985e9c5","mint(address,uint256,uint256,bytes)":"731133e9","mintBatch(address,uint256[],uint256[],bytes)":"1f7fdffa","safeBatchTransferFrom(address,address,uint256[],uint256[],bytes)":"2eb2c2d6","safeTransferFrom(address,address,uint256,uint256,bytes)":"f242432a","setApprovalForAll(address,bool)":"a22cb465","setURI(string)":"02fe5305","supportsInterface(bytes4)":"01ffc9a7","totalSupply(uint256)":"bd85b039","uri(uint256)":"0e89341c"},"id":332}