{"abi":[{"type":"constructor","inputs":[{"name":"name","type":"string","internalType":"string"},{"name":"symbol","type":"string","internalType":"string"}],"stateMutability":"nonpayable"},{"type":"function","name":"DOMAIN_SEPARATOR","inputs":[],"outputs":[{"name":"","type":"bytes32","internalType":"bytes32"}],"stateMutability":"view"},{"type":"function","name":"allowance","inputs":[{"name":"owner","type":"address","internalType":"address"},{"name":"spender","type":"address","internalType":"address"}],"outputs":[{"name":"","type":"uint256","internalType":"uint256"}],"stateMutability":"view"},{"type":"function","name":"approve","inputs":[{"name":"spender","type":"address","internalType":"address"},{"name":"amount","type":"uint256","internalType":"uint256"}],"outputs":[{"name":"","type":"bool","internalType":"bool"}],"stateMutability":"nonpayable"},{"type":"function","name":"balanceOf","inputs":[{"name":"account","type":"address","internalType":"address"}],"outputs":[{"name":"","type":"uint256","internalType":"uint256"}],"stateMutability":"view"},{"type":"function","name":"burn","inputs":[{"name":"account","type":"address","internalType":"address"},{"name":"amount","type":"uint256","internalType":"uint256"}],"outputs":[],"stateMutability":"nonpayable"},{"type":"function","name":"checkpoints","inputs":[{"name":"account","type":"address","internalType":"address"},{"name":"pos","type":"uint32","internalType":"uint32"}],"outputs":[{"name":"","type":"tuple","internalType":"struct ERC20Votes.Checkpoint","components":[{"name":"fromBlock","type":"uint32","internalType":"uint32"},{"name":"votes","type":"uint224","internalType":"uint224"}]}],"stateMutability":"view"},{"type":"function","name":"decimals","inputs":[],"outputs":[{"name":"","type":"uint8","internalType":"uint8"}],"stateMutability":"view"},{"type":"function","name":"decreaseAllowance","inputs":[{"name":"spender","type":"address","internalType":"address"},{"name":"subtractedValue","type":"uint256","internalType":"uint256"}],"outputs":[{"name":"","type":"bool","internalType":"bool"}],"stateMutability":"nonpayable"},{"type":"function","name":"delegate","inputs":[{"name":"delegatee","type":"address","internalType":"address"}],"outputs":[],"stateMutability":"nonpayable"},{"type":"function","name":"delegateBySig","inputs":[{"name":"delegatee","type":"address","internalType":"address"},{"name":"nonce","type":"uint256","internalType":"uint256"},{"name":"expiry","type":"uint256","internalType":"uint256"},{"name":"v","type":"uint8","internalType":"uint8"},{"name":"r","type":"bytes32","internalType":"bytes32"},{"name":"s","type":"bytes32","internalType":"bytes32"}],"outputs":[],"stateMutability":"nonpayable"},{"type":"function","name":"delegates","inputs":[{"name":"account","type":"address","internalType":"address"}],"outputs":[{"name":"","type":"address","internalType":"address"}],"stateMutability":"view"},{"type":"function","name":"getChainId","inputs":[],"outputs":[{"name":"","type":"uint256","internalType":"uint256"}],"stateMutability":"view"},{"type":"function","name":"getPastTotalSupply","inputs":[{"name":"blockNumber","type":"uint256","internalType":"uint256"}],"outputs":[{"name":"","type":"uint256","internalType":"uint256"}],"stateMutability":"view"},{"type":"function","name":"getPastVotes","inputs":[{"name":"account","type":"address","internalType":"address"},{"name":"blockNumber","type":"uint256","internalType":"uint256"}],"outputs":[{"name":"","type":"uint256","internalType":"uint256"}],"stateMutability":"view"},{"type":"function","name":"getVotes","inputs":[{"name":"account","type":"address","internalType":"address"}],"outputs":[{"name":"","type":"uint256","internalType":"uint256"}],"stateMutability":"view"},{"type":"function","name":"increaseAllowance","inputs":[{"name":"spender","type":"address","internalType":"address"},{"name":"addedValue","type":"uint256","internalType":"uint256"}],"outputs":[{"name":"","type":"bool","internalType":"bool"}],"stateMutability":"nonpayable"},{"type":"function","name":"mint","inputs":[{"name":"account","type":"address","internalType":"address"},{"name":"amount","type":"uint256","internalType":"uint256"}],"outputs":[],"stateMutability":"nonpayable"},{"type":"function","name":"name","inputs":[],"outputs":[{"name":"","type":"string","internalType":"string"}],"stateMutability":"view"},{"type":"function","name":"nonces","inputs":[{"name":"owner","type":"address","internalType":"address"}],"outputs":[{"name":"","type":"uint256","internalType":"uint256"}],"stateMutability":"view"},{"type":"function","name":"numCheckpoints","inputs":[{"name":"account","type":"address","internalType":"address"}],"outputs":[{"name":"","type":"uint32","internalType":"uint32"}],"stateMutability":"view"},{"type":"function","name":"permit","inputs":[{"name":"owner","type":"address","internalType":"address"},{"name":"spender","type":"address","internalType":"address"},{"name":"value","type":"uint256","internalType":"uint256"},{"name":"deadline","type":"uint256","internalType":"uint256"},{"name":"v","type":"uint8","internalType":"uint8"},{"name":"r","type":"bytes32","internalType":"bytes32"},{"name":"s","type":"bytes32","internalType":"bytes32"}],"outputs":[],"stateMutability":"nonpayable"},{"type":"function","name":"symbol","inputs":[],"outputs":[{"name":"","type":"string","internalType":"string"}],"stateMutability":"view"},{"type":"function","name":"totalSupply","inputs":[],"outputs":[{"name":"","type":"uint256","internalType":"uint256"}],"stateMutability":"view"},{"type":"function","name":"transfer","inputs":[{"name":"recipient","type":"address","internalType":"address"},{"name":"amount","type":"uint256","internalType":"uint256"}],"outputs":[{"name":"","type":"bool","internalType":"bool"}],"stateMutability":"nonpayable"},{"type":"function","name":"transferFrom","inputs":[{"name":"sender","type":"address","internalType":"address"},{"name":"recipient","type":"address","internalType":"address"},{"name":"amount","type":"uint256","internalType":"uint256"}],"outputs":[{"name":"","type":"bool","internalType":"bool"}],"stateMutability":"nonpayable"},{"type":"event","name":"Approval","inputs":[{"name":"owner","type":"address","indexed":true,"internalType":"address"},{"name":"spender","type":"address","indexed":true,"internalType":"address"},{"name":"value","type":"uint256","indexed":false,"internalType":"uint256"}],"anonymous":false},{"type":"event","name":"DelegateChanged","inputs":[{"name":"delegator","type":"address","indexed":true,"internalType":"address"},{"name":"fromDelegate","type":"address","indexed":true,"internalType":"address"},{"name":"toDelegate","type":"address","indexed":true,"internalType":"address"}],"anonymous":false},{"type":"event","name":"DelegateVotesChanged","inputs":[{"name":"delegate","type":"address","indexed":true,"internalType":"address"},{"name":"previousBalance","type":"uint256","indexed":false,"internalType":"uint256"},{"name":"newBalance","type":"uint256","indexed":false,"internalType":"uint256"}],"anonymous":false},{"type":"event","name":"Transfer","inputs":[{"name":"from","type":"address","indexed":true,"internalType":"address"},{"name":"to","type":"address","indexed":true,"internalType":"address"},{"name":"value","type":"uint256","indexed":false,"internalType":"uint256"}],"anonymous":false}],"bytecode":{"object":"0x610140806040523461040d576121ac803803809161001d8285610411565b833981019060408183031261040d5780516001600160401b03811161040d5782610048918301610434565b60208201519092906001600160401b03811161040d576100689201610434565b906040918251916100798484610411565b60018352603160f81b6020840190815281519092906001600160401b03811161031d57600354600181811c91168015610403575b60208210146102ff57601f81116103a0575b50806020601f821160011461033c575f91610331575b508160011b915f199060031b1c1916176003555b8051906001600160401b03821161031d5760045490600182811c92168015610313575b60208310146102ff5781601f849311610291575b50602090601f831160011461022b575f92610220575b50508160011b915f199060031b1c1916176004555b60208151910120915190208160c0528060e0524660a05282519060208201925f8051602061218c83398151915284528483015260608201524660808201523060a082015260a0815261019e60c082610411565b5190206080525f8051602061218c833981519152610100527f6e71edae12b1b97f4d1f60370fef10105fa2faae0126114a169c64845d6126c96101205251611d02908161048a823960805181611589015260a05181611563015260c051816115d8015260e051816115fe015261010051816115b5015261012051816102930152f35b015190505f80610136565b60045f9081528281209350601f198516905b8181106102795750908460019594939210610261575b505050811b0160045561014b565b01515f1960f88460031b161c191690555f8080610253565b9293602060018192878601518155019501930161023d565b60045f529091507f8a35acfbc15ff81a39ae7d344fd709f28e8600b4aa8c65c6b64bfe7fe36bd19b601f840160051c810191602085106102f5575b90601f859493920160051c01905b8181106102e75750610120565b5f81558493506001016102da565b90915081906102cc565b634e487b7160e01b5f52602260045260245ffd5b91607f169161010c565b634e487b7160e01b5f52604160045260245ffd5b90508301515f6100d5565b60035f9081528181209250601f198416905b81811061038857509083600194939210610370575b5050811b016003556100e9565b8501515f1960f88460031b161c191690555f80610363565b9192602060018192868a01518155019401920161034e565b60035f527fc2575a0e9e593c00f959f8c92f12db2869c3395a3b0502d05e2516446f71f85b601f830160051c810191602084106103f9575b601f0160051c01905b8181106103ee57506100bf565b5f81556001016103e1565b90915081906103d8565b90607f16906100ad565b5f80fd5b601f909101601f19168101906001600160401b0382119082101761031d57604052565b81601f8201121561040d578051906001600160401b03821161031d5760405192610468601f8401601f191660200185610411565b8284526020838301011161040d57815f9260208093018386015e830101529056fe6080806040526004361015610012575f80fd5b5f3560e01c90816306fdde031461109d57508063095ea7b31461107757806318160ddd1461105a57806323b872dd14610f81578063313ce56714610f665780633408e47014610f4c5780633644e51514610f2a5780633950935114610edb5780633a46b1a814610e0457806340c10f1914610c30578063587cde1e14610bef5780635c19a95c14610bcd5780636fcfff4514610b8757806370a0823114610b505780637ecebe0014610b185780638e539e8c14610a3257806395d89b411461092e5780639ab24eb0146108b45780639dc29fac146105e2578063a457c2d714610526578063a9059cbb146104f5578063c3cda52014610398578063d505accf1461021b578063dd62ed3e146101c75763f1127ed81461012f575f80fd5b346101c35760403660031901126101c35761014861117f565b6024359063ffffffff821682036101c3576040916001600160a01b0361018b925f60208651610176816111ab565b8281520152165f526007602052825f2061124f565b506001600160e01b038251916101a0836111ab565b54602063ffffffff821693848152019060201c8152835192835251166020820152f35b5f80fd5b346101c35760403660031901126101c3576101e061117f565b6001600160a01b036101f0611195565b91165f5260016020526001600160a01b0360405f2091165f52602052602060405f2054604051908152f35b346101c35760e03660031901126101c35761023461117f565b61023c611195565b6044359060843560643560ff821682036101c357804211610353576102fd6001600160a01b0391610287876001600160a01b03165f52600560205260405f2090815491600183019055565b936040519060208201927f00000000000000000000000000000000000000000000000000000000000000008452858a1696876040850152868916606085015289608085015260a084015260c083015260c082526102e560e0836111c7565b6102f860c4359360a4359351902061175e565b611791565b160361030e5761030c92611278565b005b60405162461bcd60e51b815260206004820152601e60248201527f45524332305065726d69743a20696e76616c6964207369676e617475726500006044820152606490fd5b60405162461bcd60e51b815260206004820152601d60248201527f45524332305065726d69743a206578706972656420646561646c696e650000006044820152606490fd5b346101c35760c03660031901126101c3576103b161117f565b6024359060643560443560ff821682036101c3578042116104b057610438916040519060208201927fe48329057bfd03d55e49b547132e39cffd9c1820ad7b9d4c5307691425d15adf84526001600160a01b038616604084015286606084015260808301526080825261042560a0836111c7565b6102f860a435936084359351902061175e565b9161045d836001600160a01b03165f52600560205260405f2090815491600183019055565b0361046b5761030c91611643565b60405162461bcd60e51b815260206004820152601960248201527f4552433230566f7465733a20696e76616c6964206e6f6e6365000000000000006044820152606490fd5b60405162461bcd60e51b815260206004820152601d60248201527f4552433230566f7465733a207369676e617475726520657870697265640000006044820152606490fd5b346101c35760403660031901126101c35761051b61051161117f565b602435903361137c565b602060405160018152f35b346101c35760403660031901126101c35761053f61117f565b60243590335f52600160205260405f206001600160a01b0382165f5260205260405f2054918083106105775761051b92039033611278565b60405162461bcd60e51b815260206004820152602560248201527f45524332303a2064656372656173656420616c6c6f77616e63652062656c6f7760448201527f207a65726f0000000000000000000000000000000000000000000000000000006064820152608490fd5b346101c35760403660031901126101c3576105fb61117f565b6001600160a01b036024359116801561086557805f525f60205260405f2054828110610815578290825f525f6020520360405f205561063c82600254611242565b6002555f817fddf252ad1be2c89b69c2b068fc378daa952ba7f163c4a11628f55a4df523b3ef6020604051868152a35f5260066020526106a0816001600160a01b0360405f2054165f805260066020526001600160a01b0360405f20541690611903565b6008549081159081156107e9576106c1906001600160e01b035f5b16611242565b9015806107c3575b1561071c576106d790611c47565b5f198201918211610708576106f061030c92600861124f565b509063ffffffff82549181199060201b169116179055565b634e487b7160e01b5f52601160045260245ffd5b61072e610728436116df565b91611c47565b9163ffffffff60405192610741846111ab565b1682526001600160e01b036020830193168352680100000000000000008110156107af578060016107779201600855600861124f565b91909161079c5751915160201b63ffffffff191663ffffffff92909216919091179055005b634e487b7160e01b5f525f60045260245ffd5b634e487b7160e01b5f52604160045260245ffd5b505f198201828111610708576107df63ffffffff91600861124f565b50541643146106c9565b5f19830190838211610708576001600160e01b0361080b6106c193600861124f565b505460201c6106bb565b60405162461bcd60e51b815260206004820152602260248201527f45524332303a206275726e20616d6f756e7420657863656564732062616c616e604482015261636560f01b6064820152608490fd5b60405162461bcd60e51b815260206004820152602160248201527f45524332303a206275726e2066726f6d20746865207a65726f206164647265736044820152607360f81b6064820152608490fd5b346101c35760203660031901126101c3576001600160a01b036108d561117f565b16805f52600760205260405f20549081155f1461090357505060205f5b6001600160e01b0360405191168152f35b5f52600760205260405f205f198201918211610708576020916109259161124f565b5054811c6108f2565b346101c3575f3660031901126101c3576040515f6004548060011c90600181168015610a28575b602083108114610a14578285529081156109f05750600114610992575b61098e83610982818503826111c7565b60405191829182611155565b0390f35b91905060045f527f8a35acfbc15ff81a39ae7d344fd709f28e8600b4aa8c65c6b64bfe7fe36bd19b915f905b8082106109d657509091508101602001610982610972565b9192600181602092548385880101520191019092916109be565b60ff191660208086019190915291151560051b840190910191506109829050610972565b634e487b7160e01b5f52602260045260245ffd5b91607f1691610955565b346101c35760203660031901126101c357600435610a514382106111f6565b600854905f905b828210610aa4578280610a7b575060206001600160e01b035f5b16604051908152f35b5f198101908111610708576001600160e01b03610a9b602092600861124f565b5054821c610a72565b9091610ad2610ab98260011c8560011c6111e9565b610ac960018416600187166111e9565b60011c906111e9565b908263ffffffff610ae484600861124f565b5054161115610af65750915b90610a58565b92506001810180911115610af057634e487b7160e01b5f52601160045260245ffd5b346101c35760203660031901126101c3576001600160a01b03610b3961117f565b165f526005602052602060405f2054604051908152f35b346101c35760203660031901126101c3576001600160a01b03610b7161117f565b165f525f602052602060405f2054604051908152f35b346101c35760203660031901126101c3576001600160a01b03610ba861117f565b165f5260076020526020610bbf60405f20546116df565b63ffffffff60405191168152f35b346101c35760203660031901126101c35761030c610be961117f565b33611643565b346101c35760203660031901126101c3576001600160a01b03610c1061117f565b165f52600660205260206001600160a01b0360405f205416604051908152f35b346101c35760403660031901126101c357610c4961117f565b6001600160a01b0360243591168015610dbf5781610cf791610c6d826002546111e9565b600255805f525f60205260405f20610c868382546111e9565b9055805f7fddf252ad1be2c89b69c2b068fc378daa952ba7f163c4a11628f55a4df523b3ef6020604051868152a360066020527f54cdd369e4e8a8515e52ca72ec816c2101831ad1f18bf44102ed171459c9b4f8545f9182526040909120546001600160a01b039081169116611903565b6001600160e01b0360025411610d5457600854908115908115610d28576106c1906001600160e01b035f5b166111e9565b5f19830190838211610708576001600160e01b03610d4a6106c193600861124f565b505460201c610d22565b60405162461bcd60e51b815260206004820152603060248201527f4552433230566f7465733a20746f74616c20737570706c79207269736b73206f60448201527f766572666c6f77696e6720766f746573000000000000000000000000000000006064820152608490fd5b60405162461bcd60e51b815260206004820152601f60248201527f45524332303a206d696e7420746f20746865207a65726f2061646472657373006044820152606490fd5b346101c35760403660031901126101c357610e1d61117f565b6001600160a01b0360243591610e344384106111f6565b165f52600760205260405f20908154905f905b828210610e8157505080610e625750506040515f8152602090f35b5f19810190811161070857610a9b6001600160e01b039160209361124f565b9091610e96610ab98260011c8560011c6111e9565b908263ffffffff610ea7848861124f565b5054161115610eb95750915b90610e47565b92506001810180911115610eb357634e487b7160e01b5f52601160045260245ffd5b346101c35760403660031901126101c35761051b610ef761117f565b335f52600160205260405f206001600160a01b0382165f52602052610f2360405f2060243590546111e9565b9033611278565b346101c3575f3660031901126101c3576020610f44611560565b604051908152f35b346101c3575f3660031901126101c3576020604051468152f35b346101c3575f3660031901126101c357602060405160128152f35b346101c35760603660031901126101c357610f9a61117f565b610fa2611195565b90610fb160443580938361137c565b6001600160a01b0381165f52600160205260405f206001600160a01b0333165f5260205260405f205491808310610fef5761051b9203903390611278565b60405162461bcd60e51b815260206004820152602860248201527f45524332303a207472616e7366657220616d6f756e742065786365656473206160448201527f6c6c6f77616e63650000000000000000000000000000000000000000000000006064820152608490fd5b346101c3575f3660031901126101c3576020600254604051908152f35b346101c35760403660031901126101c35761051b61109361117f565b6024359033611278565b346101c3575f3660031901126101c3575f6003548060011c9060018116801561114b575b602083108114610a14578285529081156109f057506001146110ed5761098e83610982818503826111c7565b91905060035f527fc2575a0e9e593c00f959f8c92f12db2869c3395a3b0502d05e2516446f71f85b915f905b80821061113157509091508101602001610982610972565b919260018160209254838588010152019101909291611119565b91607f16916110c1565b602060409281835280519182918282860152018484015e5f828201840152601f01601f1916010190565b600435906001600160a01b03821682036101c357565b602435906001600160a01b03821682036101c357565b6040810190811067ffffffffffffffff8211176107af57604052565b90601f8019910116810190811067ffffffffffffffff8211176107af57604052565b9190820180921161070857565b156111fd57565b60405162461bcd60e51b815260206004820152601f60248201527f4552433230566f7465733a20626c6f636b206e6f7420796574206d696e6564006044820152606490fd5b9190820391821161070857565b8054821015611264575f5260205f2001905f90565b634e487b7160e01b5f52603260045260245ffd5b6001600160a01b031690811561132b576001600160a01b03169182156112db5760207f8c5be1e5ebec7d5bd14f71427d1e84f3dd0314c0f7b2291e5b200ac8c7c3b92591835f526001825260405f20855f5282528060405f2055604051908152a3565b60405162461bcd60e51b815260206004820152602260248201527f45524332303a20617070726f766520746f20746865207a65726f206164647265604482015261737360f01b6064820152608490fd5b60405162461bcd60e51b8152602060048201526024808201527f45524332303a20617070726f76652066726f6d20746865207a65726f206164646044820152637265737360e01b6064820152608490fd5b6001600160a01b0316919082156114f5576001600160a01b031680156114a457825f525f60205260405f205492828410611439578261143794825f525f6020520360405f2055815f525f60205260405f206113d88482546111e9565b905581817fddf252ad1be2c89b69c2b068fc378daa952ba7f163c4a11628f55a4df523b3ef6020604051878152a35f5260066020526001600160a01b0360405f205416905f5260066020526001600160a01b0360405f20541690611903565b565b60405162461bcd60e51b815260206004820152602660248201527f45524332303a207472616e7366657220616d6f756e742065786365656473206260448201527f616c616e636500000000000000000000000000000000000000000000000000006064820152608490fd5b60405162461bcd60e51b815260206004820152602360248201527f45524332303a207472616e7366657220746f20746865207a65726f206164647260448201526265737360e81b6064820152608490fd5b60405162461bcd60e51b815260206004820152602560248201527f45524332303a207472616e736665722066726f6d20746865207a65726f20616460448201527f64726573730000000000000000000000000000000000000000000000000000006064820152608490fd5b467f0000000000000000000000000000000000000000000000000000000000000000036115ab577f000000000000000000000000000000000000000000000000000000000000000090565b60405160208101907f000000000000000000000000000000000000000000000000000000000000000082527f000000000000000000000000000000000000000000000000000000000000000060408201527f000000000000000000000000000000000000000000000000000000000000000060608201524660808201523060a082015260a0815261163d60c0826111c7565b51902090565b906001600160a01b03611437921690815f5260066020526001600160a01b0360405f205416825f525f60205260405f205492805f5260066020528160405f20916001600160a01b03851692837fffffffffffffffffffffffff00000000000000000000000000000000000000008254161790557f3134e8a2e6d97e929a7e54011ea5485d7d196dd5f0ba4d4ef95803e8e3fc257f5f80a4611903565b63ffffffff81116116f35763ffffffff1690565b60405162461bcd60e51b815260206004820152602660248201527f53616665436173743a2076616c756520646f65736e27742066697420696e203360448201527f32206269747300000000000000000000000000000000000000000000000000006064820152608490fd5b611766611560565b9060405190602082019261190160f01b8452602283015260428201526042815261163d6062826111c7565b907f7fffffffffffffffffffffffffffffff5d576e7357a4501ddfe92f46681b20a084116118b35760ff1690601b821480156118a9575b15611859576020935f93608093604051938452868401526040830152606082015282805260015afa1561184e575f516001600160a01b038116156118095790565b60405162461bcd60e51b815260206004820152601860248201527f45434453413a20696e76616c6964207369676e617475726500000000000000006044820152606490fd5b6040513d5f823e3d90fd5b60405162461bcd60e51b815260206004820152602260248201527f45434453413a20696e76616c6964207369676e6174757265202776272076616c604482015261756560f01b6064820152608490fd5b50601c82146117c8565b60405162461bcd60e51b815260206004820152602260248201527f45434453413a20696e76616c6964207369676e6174757265202773272076616c604482015261756560f01b6064820152608490fd5b6001600160a01b039182169291168083141580611c3e575b61192457505050565b80611ab8575b5081611934575050565b815f52600760205260405f208054918215805f14611a8e576119616001600160e01b035f5b1692836111e9565b901580611a69575b156119c15761197781611c47565b935f198101908111610708577fdec2bacdd2f05b59de34da9b523dff8be42e5e38e818c82fdb0bae774387a724946106f06119b49260409661124f565b82519182526020820152a2565b6119ca436116df565b926119d482611c47565b9463ffffffff604051956119e7876111ab565b1685526001600160e01b036020860196168652680100000000000000008110156107af57611a1a9160018201815561124f565b94909461079c579251925160201b63ffffffff191663ffffffff93909316929092179092557fdec2bacdd2f05b59de34da9b523dff8be42e5e38e818c82fdb0bae774387a724916040916119b4565b505f19840184811161070857611a8463ffffffff918561124f565b5054164314611969565b5f198401848111610708576001600160e01b03611aae611961928661124f565b505460201c611959565b805f52600760205260405f208054908115805f14611c17576001600160e01b035f5b1690611ae68683611242565b901580611bf2575b15611b4a57611afc81611c47565b935f198101908111610708577fdec2bacdd2f05b59de34da9b523dff8be42e5e38e818c82fdb0bae774387a724946106f0611b399260409661124f565b82519182526020820152a25f61192a565b611b53436116df565b92611b5d82611c47565b9463ffffffff60405195611b70876111ab565b1685526001600160e01b036020860196168652680100000000000000008110156107af57611ba39160018201815561124f565b94909461079c579251925160201b63ffffffff191663ffffffff93909316929092179092557fdec2bacdd2f05b59de34da9b523dff8be42e5e38e818c82fdb0bae774387a72491604091611b39565b505f19840184811161070857611c0d63ffffffff918561124f565b5054164314611aee565b5f19830183811161070857611c346001600160e01b03918461124f565b505460201c611ada565b5081151561191b565b6001600160e01b038111611c61576001600160e01b031690565b60405162461bcd60e51b815260206004820152602760248201527f53616665436173743a2076616c756520646f65736e27742066697420696e203260448201527f32342062697473000000000000000000000000000000000000000000000000006064820152608490fdfea264697066735822122042b0bbfe4425131468fc3b9cf17c91fd2d3d4a27712da000d5011a0992a016f764736f6c634300081a00338b73c3c69bb8fe3d512ecc4cf759cc79239f7b179b0ffacaa9a75d522b39400f","linkReferences":{}},"methodIdentifiers":{"DOMAIN_SEPARATOR()":"3644e515","allowance(address,address)":"dd62ed3e","approve(address,uint256)":"095ea7b3","balanceOf(address)":"70a08231","burn(address,uint256)":"9dc29fac","checkpoints(address,uint32)":"f1127ed8","decimals()":"313ce567","decreaseAllowance(address,uint256)":"a457c2d7","delegate(address)":"5c19a95c","delegateBySig(address,uint256,uint256,uint8,bytes32,bytes32)":"c3cda520","delegates(address)":"587cde1e","getChainId()":"3408e470","getPastTotalSupply(uint256)":"8e539e8c","getPastVotes(address,uint256)":"3a46b1a8","getVotes(address)":"9ab24eb0","increaseAllowance(address,uint256)":"39509351","mint(address,uint256)":"40c10f19","name()":"06fdde03","nonces(address)":"7ecebe00","numCheckpoints(address)":"6fcfff45","permit(address,address,uint256,uint256,uint8,bytes32,bytes32)":"d505accf","symbol()":"95d89b41","totalSupply()":"18160ddd","transfer(address,uint256)":"a9059cbb","transferFrom(address,address,uint256)":"23b872dd"},"id":181}