{"abi":[{"type":"function","name":"addDelta","inputs":[{"name":"x","type":"uint128","internalType":"uint128"},{"name":"y","type":"int128","internalType":"int128"}],"outputs":[{"name":"z","type":"uint128","internalType":"uint128"}],"stateMutability":"pure"},{"type":"function","name":"calculateLiquidityExactAmount0","inputs":[{"name":"tick","type":"int24","internalType":"int24"},{"name":"sqrtPriceX96","type":"uint160","internalType":"uint160"},{"name":"token0Amount","type":"uint256","internalType":"uint256"},{"name":"tickLower","type":"int24","internalType":"int24"},{"name":"tickUpper","type":"int24","internalType":"int24"}],"outputs":[{"name":"liquidity","type":"uint128","internalType":"uint128"},{"name":"amount0","type":"int128","internalType":"int128"},{"name":"amount1","type":"int128","internalType":"int128"}],"stateMutability":"pure"},{"type":"function","name":"calculateLiquidityExactAmount1","inputs":[{"name":"tick","type":"int24","internalType":"int24"},{"name":"sqrtPriceX96","type":"uint160","internalType":"uint160"},{"name":"token1Amount","type":"uint256","internalType":"uint256"},{"name":"tickLower","type":"int24","internalType":"int24"},{"name":"tickUpper","type":"int24","internalType":"int24"}],"outputs":[{"name":"liquidity","type":"uint128","internalType":"uint128"},{"name":"amount0","type":"int128","internalType":"int128"},{"name":"amount1","type":"int128","internalType":"int128"}],"stateMutability":"pure"},{"type":"function","name":"getAmount0ForLiquidity","inputs":[{"name":"sqrtPriceAX96","type":"uint160","internalType":"uint160"},{"name":"sqrtPriceBX96","type":"uint160","internalType":"uint160"},{"name":"liquidity","type":"uint128","internalType":"uint128"}],"outputs":[{"name":"amount0","type":"uint256","internalType":"uint256"}],"stateMutability":"pure"},{"type":"function","name":"getAmount1ForLiquidity","inputs":[{"name":"sqrtPriceAX96","type":"uint160","internalType":"uint160"},{"name":"sqrtPriceBX96","type":"uint160","internalType":"uint160"},{"name":"liquidity","type":"uint128","internalType":"uint128"}],"outputs":[{"name":"amount1","type":"uint256","internalType":"uint256"}],"stateMutability":"pure"},{"type":"function","name":"getAmountsForLiquidity","inputs":[{"name":"sqrtPriceX96","type":"uint160","internalType":"uint160"},{"name":"sqrtPriceAX96","type":"uint160","internalType":"uint160"},{"name":"sqrtPriceBX96","type":"uint160","internalType":"uint160"},{"name":"liquidity","type":"uint128","internalType":"uint128"}],"outputs":[{"name":"amount0","type":"uint256","internalType":"uint256"},{"name":"amount1","type":"uint256","internalType":"uint256"}],"stateMutability":"pure"},{"type":"function","name":"getLiquidityForAmount0","inputs":[{"name":"sqrtPriceAX96","type":"uint160","internalType":"uint160"},{"name":"sqrtPriceBX96","type":"uint160","internalType":"uint160"},{"name":"amount0","type":"uint256","internalType":"uint256"}],"outputs":[{"name":"liquidity","type":"uint128","internalType":"uint128"}],"stateMutability":"pure"},{"type":"function","name":"getLiquidityForAmount1","inputs":[{"name":"sqrtPriceAX96","type":"uint160","internalType":"uint160"},{"name":"sqrtPriceBX96","type":"uint160","internalType":"uint160"},{"name":"amount1","type":"uint256","internalType":"uint256"}],"outputs":[{"name":"liquidity","type":"uint128","internalType":"uint128"}],"stateMutability":"pure"},{"type":"function","name":"getLiquidityForAmounts","inputs":[{"name":"sqrtPriceX96","type":"uint160","internalType":"uint160"},{"name":"sqrtPriceAX96","type":"uint160","internalType":"uint160"},{"name":"sqrtPriceBX96","type":"uint160","internalType":"uint160"},{"name":"amount0","type":"uint256","internalType":"uint256"},{"name":"amount1","type":"uint256","internalType":"uint256"}],"outputs":[{"name":"liquidity","type":"uint128","internalType":"uint128"}],"stateMutability":"pure"},{"type":"function","name":"toUint128","inputs":[{"name":"x","type":"uint256","internalType":"uint256"}],"outputs":[{"name":"y","type":"uint128","internalType":"uint128"}],"stateMutability":"pure"}],"bytecode":{"object":"0x60808060405234601557610ed8908161001a8239f35b5f80fdfe60806040526004361015610011575f80fd5b5f3560e01c806308c0f7951461056e5780631e2d34111461048857806329e24cb714610454578063402d44fb146103f65780636098fd4a1461031957806367df6e89146103005780636ac69a8e146102c4578063809fdd3314610295578063c72e160b146101c45763d12f135a14610087575f80fd5b346101c05761009536610603565b919392916100a282610977565b926100ac82610977565b945f906100b888610cb1565b5060020b8460020b81125f14610119575050505050826100e1926100db92610707565b91610cb1565b906101155f5b60405193849384919260409194936001600160801b036060850196168452600f0b6020840152600f0b910152565b0390f35b8360029895989792939694970b135f146101815750508261014d61014761017c946101159661016c9561069d565b95610977565b9061017761017161016c6001600160801b038916600f0b809585610d73565b610d65565b97610977565b610cde565b6100e7565b61011594506101a76101a161017c956101ad9361016c969a99959a61069d565b96610977565b91610977565b6001600160801b038616600f0b91610cde565b5f80fd5b346101c05760803660031901126101c0576101dd610587565b6101e561059d565b906101ee6105b3565b916064356001600160801b03811681036101c0576040935f928382826001600160a01b038083169082161161028a575b50506001600160a01b03868116908316811161024f575050610241939450610775565b905b82519182526020820152f35b919450906001600160a01b038316111561027f5750926102748261027a949583610775565b936106d6565b610243565b935061027a926106d6565b93509150878061021e565b346101c05760203660031901126101c05760206102b36004356107cd565b6001600160801b0360405191168152f35b346101c05760603660031901126101c05760206102f86102e2610587565b6102ea61059d565b6102f2610653565b91610775565b604051908152f35b346101c05760206102b3610313366105c9565b91610707565b346101c05760a03660031901126101c0576020610334610587565b61033c61059d565b6103446105b3565b6064359160843582826001600160a01b0382166001600160a01b038216116103eb575b50506001600160a01b0385811695908316861161038a5750506102b39350610707565b92909391946001600160a01b038216115f146103df5782916103b0916103b69594610707565b9361069d565b6001600160801b0381166001600160801b038316105f146103d857505b6102b3565b90506102b3565b9150506103d39261069d565b935091508680610367565b346101c05760403660031901126101c0576004356001600160801b0381168091036101c0576024359081600f0b8092036101c057018060801c610447576020906001600160801b0360405191168152f35b6393dafdf15f526004601cfd5b346101c05760603660031901126101c05760206102f8610472610587565b61047a61059d565b610482610653565b916106d6565b346101c05761049636610603565b90939291906104a485610977565b6104ad82610977565b915f946104b985610cb1565b9660020b8860020b81125f1461050d5750505061011593949550906104de9291610707565b9160405193849384919260409194936001600160801b036060850196168452600f0b6020840152600f0b910152565b91965094508560020b135f1461053657508261014d61014761017c9461016c9461011597610707565b61016c93506101476105639593610550936101a79361069d565b6001600160801b038516600f0b91610cde565b906101155f926100e7565b346101c05760206102b3610581366105c9565b9161069d565b600435906001600160a01b03821682036101c057565b602435906001600160a01b03821682036101c057565b604435906001600160a01b03821682036101c057565b60609060031901126101c0576004356001600160a01b03811681036101c057906024356001600160a01b03811681036101c0579060443590565b60a09060031901126101c0576004358060020b81036101c057906024356001600160a01b03811681036101c05790604435906064358060020b81036101c057906084358060020b81036101c05790565b604435906001600160801b03821682036101c057565b906001600160a01b03809116911603906001600160a01b03821161068957565b634e487b7160e01b5f52601160045260245ffd5b916001600160a01b036106c16106cd946106c894838116848316116106d057610669565b1690610826565b6107cd565b90565b90610669565b6001600160a01b036106ff6001600160801b03926106cd9594838116848316116106d057610669565b1691166108ae565b916106c8916106cd936001600160a01b0382166001600160a01b03821611610751575b61074a6001600160a01b03916107448385168483166108ae565b93610669565b16916108f7565b9061072a565b8115610761570490565b634e487b7160e01b5f52601260045260245ffd5b906107bf6106cd936001600160a01b0392838116848616116107c7575b6fffffffffffffffffffffffffffffffff60601b84806107b28885610669565b1692169260601b166108f7565b911690610757565b93610792565b906001600160801b0382169182036107e157565b60405162461bcd60e51b815260206004820152601260248201527f6c6971756964697479206f766572666c6f7700000000000000000000000000006044820152606490fd5b908160601b905f19600160601b8409928280851094039380850394858411156101c057146108a757600160601b82910981805f03168092046002816003021880820260020302808202600203028082026002030280820260020302808202600203028091026002030293600183805f03040190848311900302920304170290565b5091500490565b81810291905f1982820991838084109303928084039384600160601b11156101c057146108ee57600160601b910990828211900360a01b910360601c1790565b50505060601c90565b91818302915f19818509938380861095039480860395868511156101c0571461096f579082910981805f03168092046002816003021880820260020302808202600203028082026002030280820260020302808202600203028091026002030293600183805f03040190848311900302920304170290565b505091500490565b60020b908160ff1d82810118620d89e88111610c9e5763ffffffff9192600182167001fffcb933bd6fad37aa2d162d1a59400102700100000000000000000000000000000000189160028116610c82575b60048116610c66575b60088116610c4a575b60108116610c2e575b60208116610c12575b60408116610bf6575b60808116610bda575b6101008116610bbe575b6102008116610ba2575b6104008116610b86575b6108008116610b6a575b6110008116610b4e575b6120008116610b32575b6140008116610b16575b6180008116610afa575b620100008116610ade575b620200008116610ac3575b620400008116610aa8575b6208000016610a8f575b5f12610a87575b0160201c90565b5f1904610a80565b6b048a170391f7dc42444e8fa290910260801c90610a79565b6d2216e584f5fa1ea926041bedfe9890920260801c91610a6f565b916e5d6af8dedb81196699c329225ee6040260801c91610a64565b916f09aa508b5b7a84e1c677de54f3e99bc90260801c91610a59565b916f31be135f97d08fd981231505542fcfa60260801c91610a4e565b916f70d869a156d2a1b890bb3df62baf32f70260801c91610a44565b916fa9f746462d870fdf8a65dc1f90e061e50260801c91610a3a565b916fd097f3bdfd2022b8845ad8f792aa58250260801c91610a30565b916fe7159475a2c29b7443b29c7fa6e889d90260801c91610a26565b916ff3392b0822b70005940c7a398e4b70f30260801c91610a1c565b916ff987a7253ac413176f2b074cf7815e540260801c91610a12565b916ffcbe86c7900a88aedcffc83b479aa3a40260801c91610a08565b916ffe5dee046a99a2a811c461f1969c30530260801c916109fe565b916fff2ea16466c96a3843ec78b326b528610260801c916109f5565b916fff973b41fa98c081472e6896dfb254c00260801c916109ec565b916fffcb9843d60f6159c9db58835c9266440260801c916109e3565b916fffe5caca7e10e4e61c3624eaa0941cd00260801c916109da565b916ffff2e50f5f656932ef12357cf3c7fdcc0260801c916109d1565b916ffff97272373d413259a46990580e213a0260801c916109c8565b826345c3193d60e11b5f5260045260245ffd5b6f80000000000000000000000000000000811015610ccf57600f0b90565b6393dafdf160e01b5f5260045ffd5b9190915f82600f0b125f14610d21576001600160a01b0380610d1794169116038060ff1d90810118905f036001600160801b03166108ae565b5f8112610ccf5790565b600160601b906001600160a01b03806001946001600160801b031695169116038060ff1d90810118610d5381856108ae565b9309151516015f8112610ccf575f0390565b9081600f0b918203610ccf57565b5f83600f0b125f14610e025781816001600160a01b0382166001600160a01b03821611610df7575b50506001600160a01b038116918215610deb57610d17936fffffffffffffffffffffffffffffffff60601b806001600160a01b03610de695818616950316925f0360601b16166108f7565b610757565b62bfc9215f526004601cfd5b925090505f80610d9b565b919080836001600160a01b0382166001600160a01b03821611610e97575b50506001600160a01b038316918215610deb5760601b6fffffffffffffffffffffffffffffffff60601b16926001600160a01b03828116929190910316610e688282866108f7565b9382156107615709610e89575b80820615159104015f8112610ccf575f0390565b906001019081610e75575f80fd5b915092505f80610e2056fea2646970667358221220161095748293e1928107c67a365fb27c26ffef75167cc51c52051b23cef6575564736f6c634300081a0033","linkReferences":{}},"methodIdentifiers":{"addDelta(uint128,int128)":"402d44fb","calculateLiquidityExactAmount0(int24,uint160,uint256,int24,int24)":"1e2d3411","calculateLiquidityExactAmount1(int24,uint160,uint256,int24,int24)":"d12f135a","getAmount0ForLiquidity(uint160,uint160,uint128)":"6ac69a8e","getAmount1ForLiquidity(uint160,uint160,uint128)":"29e24cb7","getAmountsForLiquidity(uint160,uint160,uint160,uint128)":"c72e160b","getLiquidityForAmount0(uint160,uint160,uint256)":"67df6e89","getLiquidityForAmount1(uint160,uint160,uint256)":"08c0f795","getLiquidityForAmounts(uint160,uint160,uint160,uint256,uint256)":"6098fd4a","toUint128(uint256)":"809fdd33"},"id":44}