{"abi":[{"type":"function","name":"DEFAULT_ADMIN_ROLE","inputs":[],"outputs":[{"name":"","type":"bytes32","internalType":"bytes32"}],"stateMutability":"view"},{"type":"function","name":"getRoleAdmin","inputs":[{"name":"role","type":"bytes32","internalType":"bytes32"}],"outputs":[{"name":"","type":"bytes32","internalType":"bytes32"}],"stateMutability":"view"},{"type":"function","name":"grantRole","inputs":[{"name":"role","type":"bytes32","internalType":"bytes32"},{"name":"account","type":"address","internalType":"address"}],"outputs":[],"stateMutability":"nonpayable"},{"type":"function","name":"hasRole","inputs":[{"name":"role","type":"bytes32","internalType":"bytes32"},{"name":"account","type":"address","internalType":"address"}],"outputs":[{"name":"","type":"bool","internalType":"bool"}],"stateMutability":"view"},{"type":"function","name":"renounceRole","inputs":[{"name":"role","type":"bytes32","internalType":"bytes32"},{"name":"account","type":"address","internalType":"address"}],"outputs":[],"stateMutability":"nonpayable"},{"type":"function","name":"revokeRole","inputs":[{"name":"role","type":"bytes32","internalType":"bytes32"},{"name":"account","type":"address","internalType":"address"}],"outputs":[],"stateMutability":"nonpayable"},{"type":"function","name":"senderProtected","inputs":[{"name":"roleId","type":"bytes32","internalType":"bytes32"}],"outputs":[],"stateMutability":"nonpayable"},{"type":"function","name":"setRoleAdmin","inputs":[{"name":"roleId","type":"bytes32","internalType":"bytes32"},{"name":"adminRoleId","type":"bytes32","internalType":"bytes32"}],"outputs":[],"stateMutability":"nonpayable"},{"type":"function","name":"supportsInterface","inputs":[{"name":"interfaceId","type":"bytes4","internalType":"bytes4"}],"outputs":[{"name":"","type":"bool","internalType":"bool"}],"stateMutability":"view"},{"type":"event","name":"RoleAdminChanged","inputs":[{"name":"role","type":"bytes32","indexed":true,"internalType":"bytes32"},{"name":"previousAdminRole","type":"bytes32","indexed":true,"internalType":"bytes32"},{"name":"newAdminRole","type":"bytes32","indexed":true,"internalType":"bytes32"}],"anonymous":false},{"type":"event","name":"RoleGranted","inputs":[{"name":"role","type":"bytes32","indexed":true,"internalType":"bytes32"},{"name":"account","type":"address","indexed":true,"internalType":"address"},{"name":"sender","type":"address","indexed":true,"internalType":"address"}],"anonymous":false},{"type":"event","name":"RoleRevoked","inputs":[{"name":"role","type":"bytes32","indexed":true,"internalType":"bytes32"},{"name":"account","type":"address","indexed":true,"internalType":"address"},{"name":"sender","type":"address","indexed":true,"internalType":"address"}],"anonymous":false}],"bytecode":{"object":"0x60808060405234601557610740908161001a8239f35b5f80fdfe6080806040526004361015610012575f80fd5b5f3560e01c90816301ffc9a714610309575080631e4e0091146102a3578063248a9ca3146102705780632f2ff15d146101c257806336568abe146101305780634b9304a41461011357806391d14854146100d6578063a217fddf146100bc5763d547741f1461007f575f80fd5b346100b8576100b66100903661035c565b906100b16100aa825f526065602052600160405f20015490565b33906103b8565b610659565b005b5f80fd5b346100b8575f3660031901126100b85760206040515f8152f35b346100b8576100e43661035c565b905f5260656020526001600160a01b0360405f2091165f52602052602060ff60405f2054166040519015158152f35b346100b85760203660031901126100b8576100b6336004356103b8565b346100b85761013e3661035c565b336001600160a01b03821603610157576100b691610659565b60405162461bcd60e51b815260206004820152602f60248201527f416363657373436f6e74726f6c3a2063616e206f6e6c792072656e6f756e636560448201527f20726f6c657320666f722073656c6600000000000000000000000000000000006064820152608490fd5b346100b8576101d03661035c565b906101ea6100aa825f526065602052600160405f20015490565b805f52606560205260405f206001600160a01b0383165f5260205260ff60405f2054161561021457005b805f52606560205260405f206001600160a01b0383165f5260205260405f20600160ff198254161790556001600160a01b03339216907f2f8788117e7eff1d82e926ec794901d17c78024a50270940304540a733656f0d5f80a4005b346100b85760203660031901126100b857602061029b6004355f526065602052600160405f20015490565b604051908152f35b346100b85760403660031901126100b857600435602435906102d1815f526065602052600160405f20015490565b90805f52606560205282600160405f2001557fbd79b86ffe0ab8e8776151514217cd7cacd52c909f66475c3af44e129f0b00ff5f80a4005b346100b85760203660031901126100b8576004359063ffffffff60e01b82168092036100b857602091637965db0b60e01b811490811561034b575b5015158152f35b6301ffc9a760e01b14905083610344565b60409060031901126100b857600435906024356001600160a01b03811681036100b85790565b90601f8019910116810190811067ffffffffffffffff8211176103a457604052565b634e487b7160e01b5f52604160045260245ffd5b90815f52606560205260405f206001600160a01b0382165f5260205260ff60405f205416156103e5575050565b6001600160a01b03166103f8602a6106dd565b916104066040519384610382565b602a8352610414602a6106dd565b602084019290601f19013684378351156106045760308353835160011015610604576078602185015360295b60018111610618575061056b579061045860426106dd565b906104666040519283610382565b6042825261047460426106dd565b602083019390601f19013685378251156106045760308453825160011015610604576078602184015360415b600181116105af575061056b57601161053391603760449560405195869360208501997f416363657373436f6e74726f6c3a206163636f756e74200000000000000000008b525180918587015e8401907f206973206d697373696e6720726f6c652000000000000000000000000000000084830152518092604883015e01015f838201520301601f198101835282610382565b60405192839162461bcd60e51b8352602060048401525180918160248501528484015e5f828201840152601f01601f19168101030190fd5b606460405162461bcd60e51b815260206004820152602060248201527f537472696e67733a20686578206c656e67746820696e73756666696369656e746044820152fd5b90600f81166010811015610604576f181899199a1a9b1b9c1cb0b131b232b360811b901a6105dd83866106f9565b5360041c9080156105f0575f19016104a0565b634e487b7160e01b5f52601160045260245ffd5b634e487b7160e01b5f52603260045260245ffd5b90600f81166010811015610604576f181899199a1a9b1b9c1cb0b131b232b360811b901a61064683876106f9565b5360041c9080156105f0575f1901610440565b805f52606560205260405f206001600160a01b0383165f5260205260ff60405f205416610684575050565b805f52606560205260405f206001600160a01b0383165f5260205260405f2060ff1981541690556001600160a01b03339216907ff6391f5c32d9c69d2a47ea670b442974b53935d1edc7fd64eb21e047a839171b5f80a4565b67ffffffffffffffff81116103a457601f01601f191660200190565b90815181101561060457016020019056fea2646970667358221220324d2b5153748519904231e9f8fc67c48a7247fd073b3cb8f8c2622d507d650164736f6c634300081a0033","linkReferences":{}},"methodIdentifiers":{"DEFAULT_ADMIN_ROLE()":"a217fddf","getRoleAdmin(bytes32)":"248a9ca3","grantRole(bytes32,address)":"2f2ff15d","hasRole(bytes32,address)":"91d14854","renounceRole(bytes32,address)":"36568abe","revokeRole(bytes32,address)":"d547741f","senderProtected(bytes32)":"4b9304a4","setRoleAdmin(bytes32,bytes32)":"1e4e0091","supportsInterface(bytes4)":"01ffc9a7"},"id":313}