{"abi":[{"type":"function","name":"mockFunction","inputs":[],"outputs":[{"name":"","type":"string","internalType":"string"}],"stateMutability":"payable"},{"type":"function","name":"mockFunctionNonPayable","inputs":[],"outputs":[{"name":"","type":"string","internalType":"string"}],"stateMutability":"nonpayable"},{"type":"function","name":"mockFunctionOutOfGas","inputs":[],"outputs":[],"stateMutability":"payable"},{"type":"function","name":"mockFunctionRevertsNoReason","inputs":[],"outputs":[],"stateMutability":"payable"},{"type":"function","name":"mockFunctionRevertsReason","inputs":[],"outputs":[],"stateMutability":"payable"},{"type":"function","name":"mockFunctionThrows","inputs":[],"outputs":[],"stateMutability":"payable"},{"type":"function","name":"mockFunctionWritesStorage","inputs":[],"outputs":[{"name":"","type":"string","internalType":"string"}],"stateMutability":"nonpayable"},{"type":"function","name":"mockStaticFunction","inputs":[],"outputs":[{"name":"","type":"string","internalType":"string"}],"stateMutability":"pure"},{"type":"function","name":"sharedAnswer","inputs":[],"outputs":[{"name":"","type":"string","internalType":"string"}],"stateMutability":"view"},{"type":"event","name":"MockFunctionCalled","inputs":[],"anonymous":false}],"bytecode":{"object":"0x608080604052346015576104b5908161001a8239f35b5f80fdfe6080806040526004361015610012575f80fd5b5f3560e01c9081630c03496814610386575080630f63e42c146103475780632c81d638146103385780633bcfaa14146103195780633e6fec04146102df578063a793ab4714610252578063aa04f77e1461019b578063c8fc7696146101745763fc40cf731461007f575f80fd5b34610170575f366003190112610170576040515f805461009e816103fd565b80845290600181169081156101545750600114610100575b50819003601f01601f191681019067ffffffffffffffff8211818310176100ec57604082905281906100e890826103d3565b0390f35b634e487b7160e01b5f52604160045260245ffd5b90505f80527f290decd9548b62a8d60345a988386fc84ba6bc95484008f6362f93160ef3e5635f905b82821061013e5750602091508201015f6100b6565b6001816020925483858801015201910190610129565b90506020925060ff191682840152151560051b8201015f6100b6565b5f80fd5b34610170575f366003190112610170576100e861018f610435565b604051918291826103d3565b34610170575f366003190112610170576101b55f546103fd565b601f81116101ec575b7f34320000000000000000000000000000000000000000000000000000000000045f556100e861018f610435565b601f905f80520160051c7f290decd9548b62a8d60345a988386fc84ba6bc95484008f6362f93160ef3e563017f290decd9548b62a8d60345a988386fc84ba6bc95484008f6362f93160ef3e5635b81811061024757506101be565b5f815560010161023a565b5f366003190112610170575f5b600154680100000000000000008110156100ec5760018101806001558110156102cb577fb10e2d527612073b26eecdfd717e6a320cf44b4afac2b0732d9fcbe2b7fa0cf6018190555f1981146102b75760010161025f565b634e487b7160e01b5f52601160045260245ffd5b634e487b7160e01b5f52603260045260245ffd5b5f366003190112610170577f52c66ed6ec9ca819cba26fe2b2650059270d8981b295af300187a964f54a8c235f80a16100e861018f610435565b5f36600319011261017057634e487b7160e01b5f52600160045260245ffd5b5f366003190112610170575f80fd5b34610170575f366003190112610170577f52c66ed6ec9ca819cba26fe2b2650059270d8981b295af300187a964f54a8c235f80a16100e861018f610435565b5f3660031901126101705762461bcd60e51b815260206004820152601b60248201527f43616c6c52656365697665724d6f636b3a20726576657274696e6700000000006044820152606490fd5b602060409281835280519182918282860152018484015e5f828201840152601f01601f1916010190565b90600182811c9216801561042b575b602083101461041757565b634e487b7160e01b5f52602260045260245ffd5b91607f169161040c565b604051906040820182811067ffffffffffffffff8211176100ec57604052600682527f3078313233340000000000000000000000000000000000000000000000000000602083015256fea264697066735822122035b28738dc51cf9c5a2a2f0f4d4e18ace695d8a60e0825c5543984eaa106f6cf64736f6c634300081a0033","linkReferences":{}},"methodIdentifiers":{"mockFunction()":"3e6fec04","mockFunctionNonPayable()":"0f63e42c","mockFunctionOutOfGas()":"a793ab47","mockFunctionRevertsNoReason()":"2c81d638","mockFunctionRevertsReason()":"0c034968","mockFunctionThrows()":"3bcfaa14","mockFunctionWritesStorage()":"aa04f77e","mockStaticFunction()":"c8fc7696","sharedAnswer()":"fc40cf73"},"id":149}