{"abi":[{"type":"function","name":"mockFunction","inputs":[],"outputs":[{"name":"","type":"string","internalType":"string"}],"stateMutability":"payable"},{"type":"function","name":"mockFunctionNonPayable","inputs":[],"outputs":[{"name":"","type":"string","internalType":"string"}],"stateMutability":"nonpayable"},{"type":"function","name":"mockFunctionOutOfGas","inputs":[],"outputs":[],"stateMutability":"payable"},{"type":"function","name":"mockFunctionRevertsNoReason","inputs":[],"outputs":[],"stateMutability":"payable"},{"type":"function","name":"mockFunctionRevertsReason","inputs":[],"outputs":[],"stateMutability":"payable"},{"type":"function","name":"mockFunctionThrows","inputs":[],"outputs":[],"stateMutability":"payable"},{"type":"function","name":"mockFunctionWritesStorage","inputs":[],"outputs":[{"name":"","type":"string","internalType":"string"}],"stateMutability":"nonpayable"},{"type":"function","name":"mockStaticFunction","inputs":[],"outputs":[{"name":"","type":"string","internalType":"string"}],"stateMutability":"pure"},{"type":"function","name":"sharedAnswer","inputs":[],"outputs":[{"name":"","type":"string","internalType":"string"}],"stateMutability":"view"},{"type":"event","name":"MockFunctionCalled","inputs":[],"anonymous":false}],"bytecode":{"object":"0x608080604052346015576104ba908161001a8239f35b5f80fdfe6080806040526004361015610012575f80fd5b5f3560e01c9081630c0349681461038b575080630f63e42c1461034c5780632c81d6381461033d5780633bcfaa141461031e5780633e6fec04146102e4578063a793ab4714610257578063aa04f77e1461019d578063c8fc7696146101765763fc40cf731461007f575f80fd5b34610172575f366003190112610172576040515f60015461009f81610402565b80845290600181169081156101565750600114610101575b50819003601f01601f191681019067ffffffffffffffff8211818310176100ed57604082905281906100e990826103d8565b0390f35b634e487b7160e01b5f52604160045260245ffd5b905060015f527fb10e2d527612073b26eecdfd717e6a320cf44b4afac2b0732d9fcbe2b7fa0cf65f905b8282106101405750602091508201015f6100b7565b600181602092548385880101520191019061012b565b90506020925060ff191682840152151560051b8201015f6100b7565b5f80fd5b34610172575f366003190112610172576100e961019161043a565b604051918291826103d8565b34610172575f366003190112610172576101b8600154610402565b601f81116101f0575b7f34320000000000000000000000000000000000000000000000000000000000046001556100e961019161043a565b601f9060015f520160051c7fb10e2d527612073b26eecdfd717e6a320cf44b4afac2b0732d9fcbe2b7fa0cf6017fb10e2d527612073b26eecdfd717e6a320cf44b4afac2b0732d9fcbe2b7fa0cf65b81811061024c57506101c1565b5f815560010161023f565b5f366003190112610172575f5b600254680100000000000000008110156100ed5760018101806002558110156102d0577f405787fa12a823e0f2b7631cc41b3ba8828b3321ca811111fa75cd3aa3bb5ace018190555f1981146102bc57600101610264565b634e487b7160e01b5f52601160045260245ffd5b634e487b7160e01b5f52603260045260245ffd5b5f366003190112610172577f52c66ed6ec9ca819cba26fe2b2650059270d8981b295af300187a964f54a8c235f80a16100e961019161043a565b5f36600319011261017257634e487b7160e01b5f52600160045260245ffd5b5f366003190112610172575f80fd5b34610172575f366003190112610172577f52c66ed6ec9ca819cba26fe2b2650059270d8981b295af300187a964f54a8c235f80a16100e961019161043a565b5f3660031901126101725762461bcd60e51b815260206004820152601b60248201527f43616c6c52656365697665724d6f636b3a20726576657274696e6700000000006044820152606490fd5b602060409281835280519182918282860152018484015e5f828201840152601f01601f1916010190565b90600182811c92168015610430575b602083101461041c57565b634e487b7160e01b5f52602260045260245ffd5b91607f1691610411565b604051906040820182811067ffffffffffffffff8211176100ed57604052600682527f3078313233340000000000000000000000000000000000000000000000000000602083015256fea2646970667358221220f6ae150c5b2619e01331a07bbd48ea99c9e01cdb0f3d70767226d702182aa3b164736f6c634300081a0033","linkReferences":{}},"methodIdentifiers":{"mockFunction()":"3e6fec04","mockFunctionNonPayable()":"0f63e42c","mockFunctionOutOfGas()":"a793ab47","mockFunctionRevertsNoReason()":"2c81d638","mockFunctionRevertsReason()":"0c034968","mockFunctionThrows()":"3bcfaa14","mockFunctionWritesStorage()":"aa04f77e","mockStaticFunction()":"c8fc7696","sharedAnswer()":"fc40cf73"},"id":318}