{"abi":[{"type":"constructor","inputs":[{"name":"name","type":"string","internalType":"string"},{"name":"version","type":"string","internalType":"string"}],"stateMutability":"nonpayable"},{"type":"function","name":"domainSeparator","inputs":[],"outputs":[{"name":"","type":"bytes32","internalType":"bytes32"}],"stateMutability":"view"},{"type":"function","name":"getChainId","inputs":[],"outputs":[{"name":"","type":"uint256","internalType":"uint256"}],"stateMutability":"view"},{"type":"function","name":"verify","inputs":[{"name":"signature","type":"bytes","internalType":"bytes"},{"name":"signer","type":"address","internalType":"address"},{"name":"mailTo","type":"address","internalType":"address"},{"name":"mailContents","type":"string","internalType":"string"}],"outputs":[],"stateMutability":"view"}],"bytecode":{"object":"0x6101208060405234610117576107b9803803809161001d828561011b565b83398101906040818303126101175780516001600160401b0381116101175782610048918301610152565b60208201519092906001600160401b038111610117576100689201610152565b906020815191012090602081519101208160c0528060e0524660a0526040519060208201925f805160206107998339815191528452604083015260608201524660808201523060a082015260a081526100c260c08261011b565b5190206080525f80516020610799833981519152610100526040516105f190816101a8823960805181610328015260a05181610302015260c05181610377015260e0518161039d015261010051816103540152f35b5f80fd5b601f909101601f19168101906001600160401b0382119082101761013e57604052565b634e487b7160e01b5f52604160045260245ffd5b81601f82011215610117578051906001600160401b03821161013e5760405192610186601f8401601f19166020018561011b565b8284526020838301011161011757815f9260208093018386015e830101529056fe60806040526004361015610011575f80fd5b5f3560e01c806308c6e079146100445780633408e4701461003f5763f698da251461003a575f80fd5b61019f565b610185565b346100d45760803660031901126100d45760043567ffffffffffffffff81116100d457366023820112156100d457610086903690602481600401359101610113565b61008e610159565b9061009761016f565b6064359267ffffffffffffffff84116100d457366023850112156100d4576100cc6100d2943690602481600401359101610113565b926101c8565b005b5f80fd5b634e487b7160e01b5f52604160045260245ffd5b90601f8019910116810190811067ffffffffffffffff82111761010e57604052565b6100d8565b92919267ffffffffffffffff821161010e576040519161013d601f8201601f1916602001846100ec565b8294818452818301116100d4578281602093845f960137010152565b602435906001600160a01b03821682036100d457565b604435906001600160a01b03821682036100d457565b346100d4575f3660031901126100d4576020604051468152f35b346100d4575f3660031901126100d45760206101b96102ff565b604051908152f35b156100d457565b6102686001600160a01b0392939183926102729660208151910120604051908560208301937f847fc9da8ec3c72cae85ca691245eaeb0a4a1e74f77c3a919c43afda231d39ba855216604083015260608201526060815261022a6080826100ec565b5190206102356102ff565b9060405190602082019261190160f01b845260228301526042820152604281526102606062826100ec565b519020610274565b92169116146101c1565b565b81516041810361029f57509061029c91602082015190606060408401519301515f1a906104c6565b90565b6040036102ba57816040602061029c940151910151916103e2565b60405162461bcd60e51b815260206004820152601f60248201527f45434453413a20696e76616c6964207369676e6174757265206c656e677468006044820152606490fd5b467f00000000000000000000000000000000000000000000000000000000000000000361034a577f000000000000000000000000000000000000000000000000000000000000000090565b60405160208101907f000000000000000000000000000000000000000000000000000000000000000082527f000000000000000000000000000000000000000000000000000000000000000060408201527f000000000000000000000000000000000000000000000000000000000000000060608201524660808201523060a082015260a081526103dc60c0826100ec565b51902090565b9061029c9291601b7f7fffffffffffffffffffffffffffffffffffffffffffffffffffffffffffffff84169360ff1c01906104c6565b1561041f57565b60405162461bcd60e51b815260206004820152602260248201527f45434453413a20696e76616c6964207369676e6174757265202776272076616c604482015261756560f01b6064820152608490fd5b6040513d5f823e3d90fd5b1561048157565b60405162461bcd60e51b815260206004820152601860248201527f45434453413a20696e76616c6964207369676e617475726500000000000000006044820152606490fd5b9291927f7fffffffffffffffffffffffffffffff5d576e7357a4501ddfe92f46681b20a0831161056b576105375f9360209561051160ff8616601b8114908115610560575b50610418565b604051948594859094939260ff6060936080840197845216602083015260408201520152565b838052039060015afa1561055b575f5161029c6001600160a01b038216151561047a565b61046f565b601c9150145f61050b565b60405162461bcd60e51b815260206004820152602260248201527f45434453413a20696e76616c6964207369676e6174757265202773272076616c604482015261756560f01b6064820152608490fdfea2646970667358221220f4aeab5bda17ace40cfe85eb77be4764a0589775ddfb5c296a912f5c527d8a2864736f6c634300081a00338b73c3c69bb8fe3d512ecc4cf759cc79239f7b179b0ffacaa9a75d522b39400f","linkReferences":{}},"methodIdentifiers":{"domainSeparator()":"f698da25","getChainId()":"3408e470","verify(bytes,address,address,string)":"08c6e079"},"id":158}