{"abi":[{"type":"function","name":"canImplementInterfaceForAddress","inputs":[{"name":"interfaceHash","type":"bytes32","internalType":"bytes32"},{"name":"account","type":"address","internalType":"address"}],"outputs":[{"name":"","type":"bytes32","internalType":"bytes32"}],"stateMutability":"view"},{"type":"function","name":"registerInterfaceForAddress","inputs":[{"name":"interfaceHash","type":"bytes32","internalType":"bytes32"},{"name":"account","type":"address","internalType":"address"}],"outputs":[],"stateMutability":"nonpayable"}],"bytecode":{"object":"0x6080806040523460155761015d908161001a8239f35b5f80fdfe60806040526004361015610011575f80fd5b5f3560e01c8063249cb3fa1461007c57635536e45d1461002f575f80fd5b346100785761003d366100f4565b905f52600160205273ffffffffffffffffffffffffffffffffffffffff60405f2091165f5260205260405f20600160ff198254161790555f80f35b5f80fd5b346100785761008a366100f4565b905f52600160205273ffffffffffffffffffffffffffffffffffffffff60405f2091165f5260205260ff60405f2054165f146100ec5760207fa2ef4600d742022d532d4747cb3547474667d6f13804902513b2ec01c848f4b45b604051908152f35b60205f6100e4565b6040906003190112610078576004359060243573ffffffffffffffffffffffffffffffffffffffff81168103610078579056fea2646970667358221220fd1f8ed508ed0bd7b789fd09c1bdcfca7ef434018ed5218582141a40c231075a64736f6c634300081a0033","linkReferences":{}},"methodIdentifiers":{"canImplementInterfaceForAddress(bytes32,address)":"249cb3fa","registerInterfaceForAddress(bytes32,address)":"5536e45d"},"id":340}