{"abi":[{"type":"function","name":"DOMAIN_SEPARATOR","inputs":[],"outputs":[{"name":"","type":"bytes32","internalType":"bytes32"}],"stateMutability":"view"},{"type":"function","name":"allowance","inputs":[{"name":"owner","type":"address","internalType":"address"},{"name":"spender","type":"address","internalType":"address"}],"outputs":[{"name":"","type":"uint256","internalType":"uint256"}],"stateMutability":"view"},{"type":"function","name":"approve","inputs":[{"name":"spender","type":"address","internalType":"address"},{"name":"amount","type":"uint256","internalType":"uint256"}],"outputs":[{"name":"","type":"bool","internalType":"bool"}],"stateMutability":"nonpayable"},{"type":"function","name":"balanceOf","inputs":[{"name":"account","type":"address","internalType":"address"}],"outputs":[{"name":"","type":"uint256","internalType":"uint256"}],"stateMutability":"view"},{"type":"function","name":"burn","inputs":[{"name":"account","type":"address","internalType":"address"},{"name":"amount","type":"uint256","internalType":"uint256"}],"outputs":[],"stateMutability":"nonpayable"},{"type":"function","name":"checkpoints","inputs":[{"name":"account","type":"address","internalType":"address"},{"name":"pos","type":"uint32","internalType":"uint32"}],"outputs":[{"name":"","type":"tuple","internalType":"struct ERC20VotesUpgradeable.Checkpoint","components":[{"name":"fromBlock","type":"uint32","internalType":"uint32"},{"name":"votes","type":"uint224","internalType":"uint224"}]}],"stateMutability":"view"},{"type":"function","name":"decimals","inputs":[],"outputs":[{"name":"","type":"uint8","internalType":"uint8"}],"stateMutability":"view"},{"type":"function","name":"decreaseAllowance","inputs":[{"name":"spender","type":"address","internalType":"address"},{"name":"subtractedValue","type":"uint256","internalType":"uint256"}],"outputs":[{"name":"","type":"bool","internalType":"bool"}],"stateMutability":"nonpayable"},{"type":"function","name":"delegate","inputs":[{"name":"delegatee","type":"address","internalType":"address"}],"outputs":[],"stateMutability":"nonpayable"},{"type":"function","name":"delegateBySig","inputs":[{"name":"delegatee","type":"address","internalType":"address"},{"name":"nonce","type":"uint256","internalType":"uint256"},{"name":"expiry","type":"uint256","internalType":"uint256"},{"name":"v","type":"uint8","internalType":"uint8"},{"name":"r","type":"bytes32","internalType":"bytes32"},{"name":"s","type":"bytes32","internalType":"bytes32"}],"outputs":[],"stateMutability":"nonpayable"},{"type":"function","name":"delegates","inputs":[{"name":"account","type":"address","internalType":"address"}],"outputs":[{"name":"","type":"address","internalType":"address"}],"stateMutability":"view"},{"type":"function","name":"getChainId","inputs":[],"outputs":[{"name":"","type":"uint256","internalType":"uint256"}],"stateMutability":"view"},{"type":"function","name":"getCurrentVotes","inputs":[{"name":"account","type":"address","internalType":"address"}],"outputs":[{"name":"","type":"uint96","internalType":"uint96"}],"stateMutability":"view"},{"type":"function","name":"getPastTotalSupply","inputs":[{"name":"blockNumber","type":"uint256","internalType":"uint256"}],"outputs":[{"name":"","type":"uint256","internalType":"uint256"}],"stateMutability":"view"},{"type":"function","name":"getPastVotes","inputs":[{"name":"account","type":"address","internalType":"address"},{"name":"blockNumber","type":"uint256","internalType":"uint256"}],"outputs":[{"name":"","type":"uint256","internalType":"uint256"}],"stateMutability":"view"},{"type":"function","name":"getPriorVotes","inputs":[{"name":"account","type":"address","internalType":"address"},{"name":"blockNumber","type":"uint256","internalType":"uint256"}],"outputs":[{"name":"","type":"uint96","internalType":"uint96"}],"stateMutability":"view"},{"type":"function","name":"getVotes","inputs":[{"name":"account","type":"address","internalType":"address"}],"outputs":[{"name":"","type":"uint256","internalType":"uint256"}],"stateMutability":"view"},{"type":"function","name":"increaseAllowance","inputs":[{"name":"spender","type":"address","internalType":"address"},{"name":"addedValue","type":"uint256","internalType":"uint256"}],"outputs":[{"name":"","type":"bool","internalType":"bool"}],"stateMutability":"nonpayable"},{"type":"function","name":"mint","inputs":[{"name":"account","type":"address","internalType":"address"},{"name":"amount","type":"uint256","internalType":"uint256"}],"outputs":[],"stateMutability":"nonpayable"},{"type":"function","name":"name","inputs":[],"outputs":[{"name":"","type":"string","internalType":"string"}],"stateMutability":"view"},{"type":"function","name":"nonces","inputs":[{"name":"owner","type":"address","internalType":"address"}],"outputs":[{"name":"","type":"uint256","internalType":"uint256"}],"stateMutability":"view"},{"type":"function","name":"numCheckpoints","inputs":[{"name":"account","type":"address","internalType":"address"}],"outputs":[{"name":"","type":"uint32","internalType":"uint32"}],"stateMutability":"view"},{"type":"function","name":"permit","inputs":[{"name":"owner","type":"address","internalType":"address"},{"name":"spender","type":"address","internalType":"address"},{"name":"value","type":"uint256","internalType":"uint256"},{"name":"deadline","type":"uint256","internalType":"uint256"},{"name":"v","type":"uint8","internalType":"uint8"},{"name":"r","type":"bytes32","internalType":"bytes32"},{"name":"s","type":"bytes32","internalType":"bytes32"}],"outputs":[],"stateMutability":"nonpayable"},{"type":"function","name":"symbol","inputs":[],"outputs":[{"name":"","type":"string","internalType":"string"}],"stateMutability":"view"},{"type":"function","name":"totalSupply","inputs":[],"outputs":[{"name":"","type":"uint256","internalType":"uint256"}],"stateMutability":"view"},{"type":"function","name":"transfer","inputs":[{"name":"recipient","type":"address","internalType":"address"},{"name":"amount","type":"uint256","internalType":"uint256"}],"outputs":[{"name":"","type":"bool","internalType":"bool"}],"stateMutability":"nonpayable"},{"type":"function","name":"transferFrom","inputs":[{"name":"sender","type":"address","internalType":"address"},{"name":"recipient","type":"address","internalType":"address"},{"name":"amount","type":"uint256","internalType":"uint256"}],"outputs":[{"name":"","type":"bool","internalType":"bool"}],"stateMutability":"nonpayable"},{"type":"event","name":"Approval","inputs":[{"name":"owner","type":"address","indexed":true,"internalType":"address"},{"name":"spender","type":"address","indexed":true,"internalType":"address"},{"name":"value","type":"uint256","indexed":false,"internalType":"uint256"}],"anonymous":false},{"type":"event","name":"DelegateChanged","inputs":[{"name":"delegator","type":"address","indexed":true,"internalType":"address"},{"name":"fromDelegate","type":"address","indexed":true,"internalType":"address"},{"name":"toDelegate","type":"address","indexed":true,"internalType":"address"}],"anonymous":false},{"type":"event","name":"DelegateVotesChanged","inputs":[{"name":"delegate","type":"address","indexed":true,"internalType":"address"},{"name":"previousBalance","type":"uint256","indexed":false,"internalType":"uint256"},{"name":"newBalance","type":"uint256","indexed":false,"internalType":"uint256"}],"anonymous":false},{"type":"event","name":"Transfer","inputs":[{"name":"from","type":"address","indexed":true,"internalType":"address"},{"name":"to","type":"address","indexed":true,"internalType":"address"},{"name":"value","type":"uint256","indexed":false,"internalType":"uint256"}],"anonymous":false}],"bytecode":{"object":"0x60808060405234601557611d80908161001a8239f35b5f80fdfe6080806040526004361015610012575f80fd5b5f3560e01c90816306fdde0314610ff557508063095ea7b314610fcf57806318160ddd14610fb257806323b872dd14610ed9578063313ce56714610ebe5780633408e47014610ea45780633644e51514610e8a5780633950935114610e3b5780633a46b1a814610e1d57806340c10f1914610c43578063587cde1e14610c025780635c19a95c14610be05780636fcfff4514610b9a57806370a0823114610b62578063782d6fe114610b385780637ecebe0014610b005780638e539e8c14610a1a57806395d89b41146109165780639ab24eb0146108f05780639dc29fac1461061c578063a457c2d714610560578063a9059cbb1461052f578063b4b5ea57146104ee578063c3cda52014610391578063d505accf14610231578063dd62ed3e146101dd5763f1127ed814610145575f80fd5b346101d95760403660031901126101d95761015e6110d7565b6024359063ffffffff821682036101d9576040916001600160a01b036101a1925f6020865161018c81611103565b8281520152165f5260cd602052825f20611272565b506001600160e01b038251916101b683611103565b54602063ffffffff821693848152019060201c8152835192835251166020820152f35b5f80fd5b346101d95760403660031901126101d9576101f66110d7565b6001600160a01b036102066110ed565b91165f5260346020526001600160a01b0360405f2091165f52602052602060405f2054604051908152f35b346101d95760e03660031901126101d95761024a6110d7565b6102526110ed565b6044359060843560643560ff821682036101d95780421161034c576102f66001600160a01b0391609a54906102a1886001600160a01b03165f52609960205260405f2090815491600183019055565b946040519160208301938452858a1696876040850152868916606085015289608085015260a084015260c083015260c082526102de60e08361111f565b6102f160c4359360a435935190206117dc565b61180f565b160361030757610305926112e9565b005b60405162461bcd60e51b815260206004820152601e60248201527f45524332305065726d69743a20696e76616c6964207369676e617475726500006044820152606490fd5b60405162461bcd60e51b815260206004820152601d60248201527f45524332305065726d69743a206578706972656420646561646c696e650000006044820152606490fd5b346101d95760c03660031901126101d9576103aa6110d7565b6024359060643560443560ff821682036101d9578042116104a957610431916040519060208201927fe48329057bfd03d55e49b547132e39cffd9c1820ad7b9d4c5307691425d15adf84526001600160a01b038616604084015286606084015260808301526080825261041e60a08361111f565b6102f160a43593608435935190206117dc565b91610456836001600160a01b03165f52609960205260405f2090815491600183019055565b036104645761030591611631565b60405162461bcd60e51b815260206004820152601960248201527f4552433230566f7465733a20696e76616c6964206e6f6e6365000000000000006044820152606490fd5b60405162461bcd60e51b815260206004820152601d60248201527f4552433230566f7465733a207369676e617475726520657870697265640000006044820152606490fd5b346101d95760203660031901126101d957602061051961051461050f6110d7565b61129b565b61174d565b6bffffffffffffffffffffffff60405191168152f35b346101d95760403660031901126101d95761055561054b6110d7565b60243590336113ed565b602060405160018152f35b346101d95760403660031901126101d9576105796110d7565b60243590335f52603460205260405f206001600160a01b0382165f5260205260405f2054918083106105b157610555920390336112e9565b60405162461bcd60e51b815260206004820152602560248201527f45524332303a2064656372656173656420616c6c6f77616e63652062656c6f7760448201527f207a65726f0000000000000000000000000000000000000000000000000000006064820152608490fd5b346101d95760403660031901126101d9576106356110d7565b6001600160a01b03602435911680156108a157805f52603360205260405f2054828110610851578290825f5260336020520360405f205561067882603554611265565b6035555f817fddf252ad1be2c89b69c2b068fc378daa952ba7f163c4a11628f55a4df523b3ef6020604051868152a35f5260cc6020526106dc816001600160a01b0360405f2054165f805260cc6020526001600160a01b0360405f20541690611981565b60ce54908115908115610825576106fd906001600160e01b035f5b16611265565b9015806107ff575b156107585761071390611cc5565b5f1982019182116107445761072c6103059260ce611272565b509063ffffffff82549181199060201b169116179055565b634e487b7160e01b5f52601160045260245ffd5b61076a610764436116ce565b91611cc5565b9163ffffffff6040519261077d84611103565b1682526001600160e01b036020830193168352680100000000000000008110156107eb578060016107b3920160ce5560ce611272565b9190916107d85751915160201b63ffffffff191663ffffffff92909216919091179055005b634e487b7160e01b5f525f60045260245ffd5b634e487b7160e01b5f52604160045260245ffd5b505f1982018281116107445761081b63ffffffff9160ce611272565b5054164314610705565b5f19830190838211610744576001600160e01b036108476106fd9360ce611272565b505460201c6106f7565b60405162461bcd60e51b815260206004820152602260248201527f45524332303a206275726e20616d6f756e7420657863656564732062616c616e604482015261636560f01b6064820152608490fd5b60405162461bcd60e51b815260206004820152602160248201527f45524332303a206275726e2066726f6d20746865207a65726f206164647265736044820152607360f81b6064820152608490fd5b346101d95760203660031901126101d957602061090e61050f6110d7565b604051908152f35b346101d9575f3660031901126101d9576040515f6037548060011c90600181168015610a10575b6020831081146109fc578285529081156109d8575060011461097a575b6109768361096a8185038261111f565b604051918291826110ad565b0390f35b91905060375f527f42a7b7dd785cd69714a189dffb3fd7d7174edc9ece837694ce50f7078f7c31ae915f905b8082106109be5750909150810160200161096a61095a565b9192600181602092548385880101520191019092916109a6565b60ff191660208086019190915291151560051b8401909101915061096a905061095a565b634e487b7160e01b5f52602260045260245ffd5b91607f169161093d565b346101d95760203660031901126101d957600435610a3943821061114e565b60ce54905f905b828210610a8c578280610a63575060206001600160e01b035f5b16604051908152f35b5f198101908111610744576001600160e01b03610a8360209260ce611272565b5054821c610a5a565b9091610aba610aa18260011c8560011c611141565b610ab16001841660018716611141565b60011c90611141565b908263ffffffff610acc8460ce611272565b5054161115610ade5750915b90610a40565b92506001810180911115610ad857634e487b7160e01b5f52601160045260245ffd5b346101d95760203660031901126101d9576001600160a01b03610b216110d7565b165f526099602052602060405f2054604051908152f35b346101d95760403660031901126101d9576020610519610514610b596110d7565b6024359061119a565b346101d95760203660031901126101d9576001600160a01b03610b836110d7565b165f526033602052602060405f2054604051908152f35b346101d95760203660031901126101d9576001600160a01b03610bbb6110d7565b165f5260cd6020526020610bd260405f20546116ce565b63ffffffff60405191168152f35b346101d95760203660031901126101d957610305610bfc6110d7565b33611631565b346101d95760203660031901126101d9576001600160a01b03610c236110d7565b165f5260cc60205260206001600160a01b0360405f205416604051908152f35b346101d95760403660031901126101d957610c5c6110d7565b6001600160a01b0360243591168015610dd85781610d0b91610c8082603554611141565b603555805f52603360205260405f20610c9a838254611141565b9055805f7fddf252ad1be2c89b69c2b068fc378daa952ba7f163c4a11628f55a4df523b3ef6020604051868152a360cc6020527f435daec636ce435a90bde0aeec309a303a359a854c5a51b7d6a5a941d6db6094545f9182526040909120546001600160a01b039081169116611981565b6bffffffffffffffffffffffff60355411610d6d5760ce54908115908115610d41576106fd906001600160e01b035f5b16611141565b5f19830190838211610744576001600160e01b03610d636106fd9360ce611272565b505460201c610d3b565b60405162461bcd60e51b815260206004820152603060248201527f4552433230566f7465733a20746f74616c20737570706c79207269736b73206f60448201527f766572666c6f77696e6720766f746573000000000000000000000000000000006064820152608490fd5b60405162461bcd60e51b815260206004820152601f60248201527f45524332303a206d696e7420746f20746865207a65726f2061646472657373006044820152606490fd5b346101d95760403660031901126101d957602061090e610b596110d7565b346101d95760403660031901126101d957610555610e576110d7565b335f52603460205260405f206001600160a01b0382165f52602052610e8360405f206024359054611141565b90336112e9565b346101d9575f3660031901126101d957602061090e6115d4565b346101d9575f3660031901126101d9576020604051468152f35b346101d9575f3660031901126101d957602060405160128152f35b346101d95760603660031901126101d957610ef26110d7565b610efa6110ed565b90610f096044358093836113ed565b6001600160a01b0381165f52603460205260405f206001600160a01b0333165f5260205260405f205491808310610f475761055592039033906112e9565b60405162461bcd60e51b815260206004820152602860248201527f45524332303a207472616e7366657220616d6f756e742065786365656473206160448201527f6c6c6f77616e63650000000000000000000000000000000000000000000000006064820152608490fd5b346101d9575f3660031901126101d9576020603554604051908152f35b346101d95760403660031901126101d957610555610feb6110d7565b60243590336112e9565b346101d9575f3660031901126101d9575f6036548060011c906001811680156110a3575b6020831081146109fc578285529081156109d85750600114611045576109768361096a8185038261111f565b91905060365f527f4a11f94e20a93c79f6ec743a1954ec4fc2c08429ae2122118bf234b2185c81b8915f905b8082106110895750909150810160200161096a61095a565b919260018160209254838588010152019101909291611071565b91607f1691611019565b602060409281835280519182918282860152018484015e5f828201840152601f01601f1916010190565b600435906001600160a01b03821682036101d957565b602435906001600160a01b03821682036101d957565b6040810190811067ffffffffffffffff8211176107eb57604052565b90601f8019910116810190811067ffffffffffffffff8211176107eb57604052565b9190820180921161074457565b1561115557565b60405162461bcd60e51b815260206004820152601f60248201527f4552433230566f7465733a20626c6f636b206e6f7420796574206d696e6564006044820152606490fd5b6001600160a01b03906111ae43841061114e565b165f5260cd60205260405f208054915f905b8382106111fb575050816111d557505f919050565b5f198201918211610744576001600160e01b03916111f291611272565b505460201c1690565b90926112206112108260011c8660011c611141565b610ab16001841660018816611141565b908263ffffffff6112318487611272565b50541611156112435750925b906111c0565b9350600181018091111561123d57634e487b7160e01b5f52601160045260245ffd5b9190820391821161074457565b8054821015611287575f5260205f2001905f90565b634e487b7160e01b5f52603260045260245ffd5b6001600160a01b0316805f5260cd60205260405f20549081155f146112c157505f919050565b5f5260cd60205260405f205f198201918211610744576001600160e01b03916111f291611272565b6001600160a01b031690811561139c576001600160a01b031691821561134c5760207f8c5be1e5ebec7d5bd14f71427d1e84f3dd0314c0f7b2291e5b200ac8c7c3b92591835f526034825260405f20855f5282528060405f2055604051908152a3565b60405162461bcd60e51b815260206004820152602260248201527f45524332303a20617070726f766520746f20746865207a65726f206164647265604482015261737360f01b6064820152608490fd5b60405162461bcd60e51b8152602060048201526024808201527f45524332303a20617070726f76652066726f6d20746865207a65726f206164646044820152637265737360e01b6064820152608490fd5b6001600160a01b031691908215611569576001600160a01b0316801561151857825f52603360205260405f2054928284106114ad57826114ab94825f5260336020520360405f2055815f52603360205260405f2061144c848254611141565b905581817fddf252ad1be2c89b69c2b068fc378daa952ba7f163c4a11628f55a4df523b3ef6020604051878152a35f5260cc6020526001600160a01b0360405f205416905f5260cc6020526001600160a01b0360405f20541690611981565b565b60405162461bcd60e51b815260206004820152602660248201527f45524332303a207472616e7366657220616d6f756e742065786365656473206260448201527f616c616e636500000000000000000000000000000000000000000000000000006064820152608490fd5b60405162461bcd60e51b815260206004820152602360248201527f45524332303a207472616e7366657220746f20746865207a65726f206164647260448201526265737360e81b6064820152608490fd5b60405162461bcd60e51b815260206004820152602560248201527f45524332303a207472616e736665722066726f6d20746865207a65726f20616460448201527f64726573730000000000000000000000000000000000000000000000000000006064820152608490fd5b6065546066546040519060208201927f8b73c3c69bb8fe3d512ecc4cf759cc79239f7b179b0ffacaa9a75d522b39400f8452604083015260608201524660808201523060a082015260a0815261162b60c08261111f565b51902090565b906001600160a01b036114ab921690815f5260cc6020526001600160a01b0360405f205416825f52603360205260405f205492805f5260cc6020528160405f20916001600160a01b03851692837fffffffffffffffffffffffff00000000000000000000000000000000000000008254161790557f3134e8a2e6d97e929a7e54011ea5485d7d196dd5f0ba4d4ef95803e8e3fc257f5f80a4611981565b63ffffffff81116116e25763ffffffff1690565b60405162461bcd60e51b815260206004820152602660248201527f53616665436173743a2076616c756520646f65736e27742066697420696e203360448201527f32206269747300000000000000000000000000000000000000000000000000006064820152608490fd5b6bffffffffffffffffffffffff8111611771576bffffffffffffffffffffffff1690565b60405162461bcd60e51b815260206004820152602660248201527f53616665436173743a2076616c756520646f65736e27742066697420696e203960448201527f36206269747300000000000000000000000000000000000000000000000000006064820152608490fd5b6117e46115d4565b9060405190602082019261190160f01b8452602283015260428201526042815261162b60628261111f565b907f7fffffffffffffffffffffffffffffff5d576e7357a4501ddfe92f46681b20a084116119315760ff1690601b82148015611927575b156118d7576020935f93608093604051938452868401526040830152606082015282805260015afa156118cc575f516001600160a01b038116156118875790565b60405162461bcd60e51b815260206004820152601860248201527f45434453413a20696e76616c6964207369676e617475726500000000000000006044820152606490fd5b6040513d5f823e3d90fd5b60405162461bcd60e51b815260206004820152602260248201527f45434453413a20696e76616c6964207369676e6174757265202776272076616c604482015261756560f01b6064820152608490fd5b50601c8214611846565b60405162461bcd60e51b815260206004820152602260248201527f45434453413a20696e76616c6964207369676e6174757265202773272076616c604482015261756560f01b6064820152608490fd5b6001600160a01b039182169291168083141580611cbc575b6119a257505050565b80611b36575b50816119b2575050565b815f5260cd60205260405f208054918215805f14611b0c576119df6001600160e01b035f5b169283611141565b901580611ae7575b15611a3f576119f581611cc5565b935f198101908111610744577fdec2bacdd2f05b59de34da9b523dff8be42e5e38e818c82fdb0bae774387a7249461072c611a3292604096611272565b82519182526020820152a2565b611a48436116ce565b92611a5282611cc5565b9463ffffffff60405195611a6587611103565b1685526001600160e01b036020860196168652680100000000000000008110156107eb57611a9891600182018155611272565b9490946107d8579251925160201b63ffffffff191663ffffffff93909316929092179092557fdec2bacdd2f05b59de34da9b523dff8be42e5e38e818c82fdb0bae774387a72491604091611a32565b505f19840184811161074457611b0263ffffffff9185611272565b50541643146119e7565b5f198401848111610744576001600160e01b03611b2c6119df9286611272565b505460201c6119d7565b805f5260cd60205260405f208054908115805f14611c95576001600160e01b035f5b1690611b648683611265565b901580611c70575b15611bc857611b7a81611cc5565b935f198101908111610744577fdec2bacdd2f05b59de34da9b523dff8be42e5e38e818c82fdb0bae774387a7249461072c611bb792604096611272565b82519182526020820152a25f6119a8565b611bd1436116ce565b92611bdb82611cc5565b9463ffffffff60405195611bee87611103565b1685526001600160e01b036020860196168652680100000000000000008110156107eb57611c2191600182018155611272565b9490946107d8579251925160201b63ffffffff191663ffffffff93909316929092179092557fdec2bacdd2f05b59de34da9b523dff8be42e5e38e818c82fdb0bae774387a72491604091611bb7565b505f19840184811161074457611c8b63ffffffff9185611272565b5054164314611b6c565b5f19830183811161074457611cb26001600160e01b039184611272565b505460201c611b58565b50811515611999565b6001600160e01b038111611cdf576001600160e01b031690565b60405162461bcd60e51b815260206004820152602760248201527f53616665436173743a2076616c756520646f65736e27742066697420696e203260448201527f32342062697473000000000000000000000000000000000000000000000000006064820152608490fdfea2646970667358221220acb2970c49a23fe0d2ca33066fe02dc837ab7d642e743c4b8b9afc70bd8b04f364736f6c634300081a0033","linkReferences":{}},"methodIdentifiers":{"DOMAIN_SEPARATOR()":"3644e515","allowance(address,address)":"dd62ed3e","approve(address,uint256)":"095ea7b3","balanceOf(address)":"70a08231","burn(address,uint256)":"9dc29fac","checkpoints(address,uint32)":"f1127ed8","decimals()":"313ce567","decreaseAllowance(address,uint256)":"a457c2d7","delegate(address)":"5c19a95c","delegateBySig(address,uint256,uint256,uint8,bytes32,bytes32)":"c3cda520","delegates(address)":"587cde1e","getChainId()":"3408e470","getCurrentVotes(address)":"b4b5ea57","getPastTotalSupply(uint256)":"8e539e8c","getPastVotes(address,uint256)":"3a46b1a8","getPriorVotes(address,uint256)":"782d6fe1","getVotes(address)":"9ab24eb0","increaseAllowance(address,uint256)":"39509351","mint(address,uint256)":"40c10f19","name()":"06fdde03","nonces(address)":"7ecebe00","numCheckpoints(address)":"6fcfff45","permit(address,address,uint256,uint256,uint8,bytes32,bytes32)":"d505accf","symbol()":"95d89b41","totalSupply()":"18160ddd","transfer(address,uint256)":"a9059cbb","transferFrom(address,address,uint256)":"23b872dd"},"id":349}