{"abi":[{"type":"function","name":"get","inputs":[{"name":"index","type":"uint256","internalType":"uint256"}],"outputs":[{"name":"","type":"bool","internalType":"bool"}],"stateMutability":"view"},{"type":"function","name":"set","inputs":[{"name":"index","type":"uint256","internalType":"uint256"}],"outputs":[],"stateMutability":"nonpayable"},{"type":"function","name":"setTo","inputs":[{"name":"index","type":"uint256","internalType":"uint256"},{"name":"value","type":"bool","internalType":"bool"}],"outputs":[],"stateMutability":"nonpayable"},{"type":"function","name":"unset","inputs":[{"name":"index","type":"uint256","internalType":"uint256"}],"outputs":[],"stateMutability":"nonpayable"}],"bytecode":{"object":"0x60808060405234601557610187908161001a8239f35b5f80fdfe60806040526004361015610011575f80fd5b5f3560e01c8063088d22551461011c57806360fe47b1146100e85780639507d39a146100b35763dcc9d43c14610045575f80fd5b346100af5760403660031901126100af5760043560243580151581036100af571561008d5761008b908060081c5f526001602052600160ff60405f2092161b8154179055565b005b61008b908060081c5f526001602052600160ff60405f2092161b198154169055565b5f80fd5b346100af5760203660031901126100af576020600160ff6004358060081c5f52828452161b60405f2054161515604051908152f35b346100af5760203660031901126100af5761008b6004358060081c5f526001602052600160ff60405f2092161b8154179055565b346100af5760203660031901126100af5761008b6004358060081c5f526001602052600160ff60405f2092161b19815416905556fea264697066735822122006a546695ac30e84e40a166f2588b94547a1eb06191f4c49307c820c2061f04a64736f6c634300081a0033","linkReferences":{}},"methodIdentifiers":{"get(uint256)":"9507d39a","set(uint256)":"60fe47b1","setTo(uint256,bool)":"dcc9d43c","unset(uint256)":"088d2255"},"id":317}