{"abi":[{"type":"function","name":"addMemoryCheck","inputs":[],"outputs":[{"name":"mem","type":"uint256","internalType":"uint256"}],"stateMutability":"pure"},{"type":"function","name":"divMemoryCheck","inputs":[],"outputs":[{"name":"mem","type":"uint256","internalType":"uint256"}],"stateMutability":"pure"},{"type":"function","name":"divWithMessage","inputs":[{"name":"a","type":"uint256","internalType":"uint256"},{"name":"b","type":"uint256","internalType":"uint256"},{"name":"errorMessage","type":"string","internalType":"string"}],"outputs":[{"name":"","type":"uint256","internalType":"uint256"}],"stateMutability":"pure"},{"type":"function","name":"doAdd","inputs":[{"name":"a","type":"uint256","internalType":"uint256"},{"name":"b","type":"uint256","internalType":"uint256"}],"outputs":[{"name":"","type":"uint256","internalType":"uint256"}],"stateMutability":"pure"},{"type":"function","name":"doDiv","inputs":[{"name":"a","type":"uint256","internalType":"uint256"},{"name":"b","type":"uint256","internalType":"uint256"}],"outputs":[{"name":"","type":"uint256","internalType":"uint256"}],"stateMutability":"pure"},{"type":"function","name":"doMod","inputs":[{"name":"a","type":"uint256","internalType":"uint256"},{"name":"b","type":"uint256","internalType":"uint256"}],"outputs":[{"name":"","type":"uint256","internalType":"uint256"}],"stateMutability":"pure"},{"type":"function","name":"doMul","inputs":[{"name":"a","type":"uint256","internalType":"uint256"},{"name":"b","type":"uint256","internalType":"uint256"}],"outputs":[{"name":"","type":"uint256","internalType":"uint256"}],"stateMutability":"pure"},{"type":"function","name":"doSub","inputs":[{"name":"a","type":"uint256","internalType":"uint256"},{"name":"b","type":"uint256","internalType":"uint256"}],"outputs":[{"name":"","type":"uint256","internalType":"uint256"}],"stateMutability":"pure"},{"type":"function","name":"modMemoryCheck","inputs":[],"outputs":[{"name":"mem","type":"uint256","internalType":"uint256"}],"stateMutability":"pure"},{"type":"function","name":"modWithMessage","inputs":[{"name":"a","type":"uint256","internalType":"uint256"},{"name":"b","type":"uint256","internalType":"uint256"},{"name":"errorMessage","type":"string","internalType":"string"}],"outputs":[{"name":"","type":"uint256","internalType":"uint256"}],"stateMutability":"pure"},{"type":"function","name":"mulMemoryCheck","inputs":[],"outputs":[{"name":"mem","type":"uint256","internalType":"uint256"}],"stateMutability":"pure"},{"type":"function","name":"subMemoryCheck","inputs":[],"outputs":[{"name":"mem","type":"uint256","internalType":"uint256"}],"stateMutability":"pure"},{"type":"function","name":"subWithMessage","inputs":[{"name":"a","type":"uint256","internalType":"uint256"},{"name":"b","type":"uint256","internalType":"uint256"},{"name":"errorMessage","type":"string","internalType":"string"}],"outputs":[{"name":"","type":"uint256","internalType":"uint256"}],"stateMutability":"pure"},{"type":"function","name":"tryAdd","inputs":[{"name":"a","type":"uint256","internalType":"uint256"},{"name":"b","type":"uint256","internalType":"uint256"}],"outputs":[{"name":"flag","type":"bool","internalType":"bool"},{"name":"value","type":"uint256","internalType":"uint256"}],"stateMutability":"pure"},{"type":"function","name":"tryDiv","inputs":[{"name":"a","type":"uint256","internalType":"uint256"},{"name":"b","type":"uint256","internalType":"uint256"}],"outputs":[{"name":"flag","type":"bool","internalType":"bool"},{"name":"value","type":"uint256","internalType":"uint256"}],"stateMutability":"pure"},{"type":"function","name":"tryMod","inputs":[{"name":"a","type":"uint256","internalType":"uint256"},{"name":"b","type":"uint256","internalType":"uint256"}],"outputs":[{"name":"flag","type":"bool","internalType":"bool"},{"name":"value","type":"uint256","internalType":"uint256"}],"stateMutability":"pure"},{"type":"function","name":"tryMul","inputs":[{"name":"a","type":"uint256","internalType":"uint256"},{"name":"b","type":"uint256","internalType":"uint256"}],"outputs":[{"name":"flag","type":"bool","internalType":"bool"},{"name":"value","type":"uint256","internalType":"uint256"}],"stateMutability":"pure"},{"type":"function","name":"trySub","inputs":[{"name":"a","type":"uint256","internalType":"uint256"},{"name":"b","type":"uint256","internalType":"uint256"}],"outputs":[{"name":"flag","type":"bool","internalType":"bool"},{"name":"value","type":"uint256","internalType":"uint256"}],"stateMutability":"pure"}],"bytecode":{"object":"0x60808060405234601557610530908161001a8239f35b5f80fdfe60806040526004361015610011575f80fd5b5f3560e01c80633449b5fb1461012057806338dc08671461011b5780636281efa4146101165780636c7ac637146101115780636f91e802146100e4578063736ecb181461010c5780637e86d25c146100e4578063869f602f14610107578063884557bf146101025780639f5cec89146100fd578063a155bd62146100f8578063a29962b1146100f3578063c460ae04146100e4578063dcc721d2146100ee578063fb119198146100e9578063fb24c860146100e4578063fb999ded146100e45763fc0ce503146100df575f80fd5b6103f2565b610288565b6103c0565b610395565b610376565b610349565b610321565b610302565b6102d9565b6102ba565b610258565b610239565b610206565b6101d4565b634e487b7160e01b5f52604160045260245ffd5b60606003198201126101cb57600435916024359160443567ffffffffffffffff81116101cb57816023820112156101cb5780600401359067ffffffffffffffff82116101cf5760405192601f8301601f19908116603f0116840167ffffffffffffffff8111858210176101cf57604052828452602483830101116101cb57815f92602460209301838601378301015290565b5f80fd5b610125565b346101cb576101e236610139565b6101f18293921591821561041b565b6102015760209160405191048152f35b610462565b346101cb5760403660031901126101cb57610225602435600435610476565b604080519215158352602083019190915290f35b346101cb5760403660031901126101cb5761022560243560043561048d565b346101cb5760403660031901126101cb57600435602435810390811161028357602090604051908152f35b6104b6565b346101cb575f3660031901126101cb576040515f5b602081106102b2576020826040519081038152f35b60010161029d565b346101cb5760403660031901126101cb576102256024356004356104ca565b346101cb5760403660031901126101cb5760243560043581156102015760209160405191068152f35b346101cb5760403660031901126101cb576102256024356004356104d9565b346101cb57602061034061033436610139565b8282939492111561041b565b60405191038152f35b346101cb5761035736610139565b6103668293921591821561041b565b6102015760209160405191068152f35b346101cb5760403660031901126101cb576102256024356004356104ea565b346101cb5760403660031901126101cb57600435602435810180911161028357602090604051908152f35b346101cb5760403660031901126101cb5760243560043581810291811591830414171561028357602090604051908152f35b346101cb5760403660031901126101cb5760243560043581156102015760209160405191048152f35b156104235750565b604460209160405192839162461bcd60e51b83528160048401528051918291826024860152018484015e5f828201840152601f01601f19168101030190fd5b634e487b7160e01b5f52601260045260245ffd5b91908015610485576001920690565b505f91508190565b919082156104ad57808302928304036104a65760019190565b5f91508190565b50600191505f90565b634e487b7160e01b5f52601160045260245ffd5b91908015610485576001920490565b919082019182106104a65760019190565b919082811161048557600192039056fea264697066735822122095b1c1705d298cdc4a0af8d67f271acd5605ddad13427cc0d675a6d8e932b84064736f6c634300081a0033","linkReferences":{}},"methodIdentifiers":{"addMemoryCheck()":"fb24c860","divMemoryCheck()":"c460ae04","divWithMessage(uint256,uint256,string)":"3449b5fb","doAdd(uint256,uint256)":"dcc721d2","doDiv(uint256,uint256)":"fc0ce503","doMod(uint256,uint256)":"869f602f","doMul(uint256,uint256)":"fb119198","doSub(uint256,uint256)":"6c7ac637","modMemoryCheck()":"6f91e802","modWithMessage(uint256,uint256,string)":"a155bd62","mulMemoryCheck()":"7e86d25c","subMemoryCheck()":"fb999ded","subWithMessage(uint256,uint256,string)":"9f5cec89","tryAdd(uint256,uint256)":"884557bf","tryDiv(uint256,uint256)":"736ecb18","tryMod(uint256,uint256)":"38dc0867","tryMul(uint256,uint256)":"6281efa4","trySub(uint256,uint256)":"a29962b1"},"id":379}