{"abi":[{"type":"function","name":"isValidSignatureNow","inputs":[{"name":"signer","type":"address","internalType":"address"},{"name":"hash","type":"bytes32","internalType":"bytes32"},{"name":"signature","type":"bytes","internalType":"bytes"}],"outputs":[{"name":"","type":"bool","internalType":"bool"}],"stateMutability":"view"}],"bytecode":{"object":"0x608080604052346015576104dc908161001a8239f35b5f80fdfe60806040526004361015610011575f80fd5b5f3560e01c636ccea65214610024575f80fd5b346100d75760603660031901126100d7576004356001600160a01b03811681036100d75760443567ffffffffffffffff81116100d757366023820112156100d75780600401359167ffffffffffffffff83116100db5760405190610092601f8501601f1916602001836100ef565b83825236602485850101116100d7575f6020856100d39660246100c19701838701378401015260243590610186565b60405190151581529081906020820190565b0390f35b5f80fd5b634e487b7160e01b5f52604160045260245ffd5b90601f8019910116810190811067ffffffffffffffff8211176100db57604052565b908160209103126100d757517fffffffff00000000000000000000000000000000000000000000000000000000811681036100d75790565b9060609260209183526040828401528051918291826040860152018484015e5f828201840152601f01601f1916010190565b6040513d5f823e3d90fd5b9190823b1561023257604051630b135d3f60e11b815292602092849283916001600160a01b039183916101bc9160048401610149565b0392165afa5f9181610201575b506101d357505f90565b7fffffffff0000000000000000000000000000000000000000000000000000000016630b135d3f60e11b1490565b61022491925060203d60201161022b575b61021c81836100ef565b810190610111565b905f6101c9565b503d610212565b6102456001600160a01b0392839261024d565b921691161490565b81516041810361027857509061027591602082015190606060408401519301515f1a906103b1565b90565b604003610293578160406020610275940151910151916102d8565b60405162461bcd60e51b815260206004820152601f60248201527f45434453413a20696e76616c6964207369676e6174757265206c656e677468006044820152606490fd5b906102759291601b7f7fffffffffffffffffffffffffffffffffffffffffffffffffffffffffffffff84169360ff1c01906103b1565b1561031557565b60405162461bcd60e51b815260206004820152602260248201527f45434453413a20696e76616c6964207369676e6174757265202776272076616c604482015261756560f01b6064820152608490fd5b1561036c57565b60405162461bcd60e51b815260206004820152601860248201527f45434453413a20696e76616c6964207369676e617475726500000000000000006044820152606490fd5b9291927f7fffffffffffffffffffffffffffffff5d576e7357a4501ddfe92f46681b20a08311610456576104225f936020956103fc60ff8616601b811490811561044b575b5061030e565b604051948594859094939260ff6060936080840197845216602083015260408201520152565b838052039060015afa15610446575f516102756001600160a01b0382161515610365565b61017b565b601c9150145f6103f6565b60405162461bcd60e51b815260206004820152602260248201527f45434453413a20696e76616c6964207369676e6174757265202773272076616c604482015261756560f01b6064820152608490fdfea26469706673582212201094e8c4f108bb92083bec4a8404e46c8cbb62042205e86741ab2643adda702164736f6c634300081a0033","linkReferences":{}},"methodIdentifiers":{"isValidSignatureNow(address,bytes32,bytes)":"6ccea652"},"id":380}