{"abi":[{"type":"constructor","inputs":[{"name":"uri","type":"string","internalType":"string"}],"stateMutability":"nonpayable"},{"type":"function","name":"balanceOf","inputs":[{"name":"account","type":"address","internalType":"address"},{"name":"id","type":"uint256","internalType":"uint256"}],"outputs":[{"name":"","type":"uint256","internalType":"uint256"}],"stateMutability":"view"},{"type":"function","name":"balanceOfBatch","inputs":[{"name":"accounts","type":"address[]","internalType":"address[]"},{"name":"ids","type":"uint256[]","internalType":"uint256[]"}],"outputs":[{"name":"","type":"uint256[]","internalType":"uint256[]"}],"stateMutability":"view"},{"type":"function","name":"burn","inputs":[{"name":"owner","type":"address","internalType":"address"},{"name":"id","type":"uint256","internalType":"uint256"},{"name":"value","type":"uint256","internalType":"uint256"}],"outputs":[],"stateMutability":"nonpayable"},{"type":"function","name":"burnBatch","inputs":[{"name":"owner","type":"address","internalType":"address"},{"name":"ids","type":"uint256[]","internalType":"uint256[]"},{"name":"values","type":"uint256[]","internalType":"uint256[]"}],"outputs":[],"stateMutability":"nonpayable"},{"type":"function","name":"isApprovedForAll","inputs":[{"name":"account","type":"address","internalType":"address"},{"name":"operator","type":"address","internalType":"address"}],"outputs":[{"name":"","type":"bool","internalType":"bool"}],"stateMutability":"view"},{"type":"function","name":"mint","inputs":[{"name":"to","type":"address","internalType":"address"},{"name":"id","type":"uint256","internalType":"uint256"},{"name":"value","type":"uint256","internalType":"uint256"},{"name":"data","type":"bytes","internalType":"bytes"}],"outputs":[],"stateMutability":"nonpayable"},{"type":"function","name":"mintBatch","inputs":[{"name":"to","type":"address","internalType":"address"},{"name":"ids","type":"uint256[]","internalType":"uint256[]"},{"name":"values","type":"uint256[]","internalType":"uint256[]"},{"name":"data","type":"bytes","internalType":"bytes"}],"outputs":[],"stateMutability":"nonpayable"},{"type":"function","name":"pause","inputs":[],"outputs":[],"stateMutability":"nonpayable"},{"type":"function","name":"paused","inputs":[],"outputs":[{"name":"","type":"bool","internalType":"bool"}],"stateMutability":"view"},{"type":"function","name":"safeBatchTransferFrom","inputs":[{"name":"from","type":"address","internalType":"address"},{"name":"to","type":"address","internalType":"address"},{"name":"ids","type":"uint256[]","internalType":"uint256[]"},{"name":"amounts","type":"uint256[]","internalType":"uint256[]"},{"name":"data","type":"bytes","internalType":"bytes"}],"outputs":[],"stateMutability":"nonpayable"},{"type":"function","name":"safeTransferFrom","inputs":[{"name":"from","type":"address","internalType":"address"},{"name":"to","type":"address","internalType":"address"},{"name":"id","type":"uint256","internalType":"uint256"},{"name":"amount","type":"uint256","internalType":"uint256"},{"name":"data","type":"bytes","internalType":"bytes"}],"outputs":[],"stateMutability":"nonpayable"},{"type":"function","name":"setApprovalForAll","inputs":[{"name":"operator","type":"address","internalType":"address"},{"name":"approved","type":"bool","internalType":"bool"}],"outputs":[],"stateMutability":"nonpayable"},{"type":"function","name":"setURI","inputs":[{"name":"newuri","type":"string","internalType":"string"}],"outputs":[],"stateMutability":"nonpayable"},{"type":"function","name":"supportsInterface","inputs":[{"name":"interfaceId","type":"bytes4","internalType":"bytes4"}],"outputs":[{"name":"","type":"bool","internalType":"bool"}],"stateMutability":"view"},{"type":"function","name":"unpause","inputs":[],"outputs":[],"stateMutability":"nonpayable"},{"type":"function","name":"uri","inputs":[{"name":"","type":"uint256","internalType":"uint256"}],"outputs":[{"name":"","type":"string","internalType":"string"}],"stateMutability":"view"},{"type":"event","name":"ApprovalForAll","inputs":[{"name":"account","type":"address","indexed":true,"internalType":"address"},{"name":"operator","type":"address","indexed":true,"internalType":"address"},{"name":"approved","type":"bool","indexed":false,"internalType":"bool"}],"anonymous":false},{"type":"event","name":"Paused","inputs":[{"name":"account","type":"address","indexed":false,"internalType":"address"}],"anonymous":false},{"type":"event","name":"TransferBatch","inputs":[{"name":"operator","type":"address","indexed":true,"internalType":"address"},{"name":"from","type":"address","indexed":true,"internalType":"address"},{"name":"to","type":"address","indexed":true,"internalType":"address"},{"name":"ids","type":"uint256[]","indexed":false,"internalType":"uint256[]"},{"name":"values","type":"uint256[]","indexed":false,"internalType":"uint256[]"}],"anonymous":false},{"type":"event","name":"TransferSingle","inputs":[{"name":"operator","type":"address","indexed":true,"internalType":"address"},{"name":"from","type":"address","indexed":true,"internalType":"address"},{"name":"to","type":"address","indexed":true,"internalType":"address"},{"name":"id","type":"uint256","indexed":false,"internalType":"uint256"},{"name":"value","type":"uint256","indexed":false,"internalType":"uint256"}],"anonymous":false},{"type":"event","name":"URI","inputs":[{"name":"value","type":"string","indexed":false,"internalType":"string"},{"name":"id","type":"uint256","indexed":true,"internalType":"uint256"}],"anonymous":false},{"type":"event","name":"Unpaused","inputs":[{"name":"account","type":"address","indexed":false,"internalType":"address"}],"anonymous":false}],"bytecode":{"object":"0x60806040523461020357611caa8038038061001981610207565b928339810190602081830312610203578051906001600160401b038211610203570181601f82011215610203578051906001600160401b0382116101ef5761006a601f8301601f1916602001610207565b928284526020838301011161020357815f9260208093018386015e8301015280516001600160401b0381116101ef57600254600181811c911680156101e5575b60208210146101d157601f811161016e575b50602091601f821160011461010e579181925f92610103575b50508160011b915f199060031b1c1916176002555b60ff1960035416600355604051611a7d908161022d8239f35b015190505f806100d5565b601f1982169260025f52805f20915f5b8581106101565750836001951061013e575b505050811b016002556100ea565b01515f1960f88460031b161c191690555f8080610130565b9192602060018192868501518155019401920161011e565b60025f527f405787fa12a823e0f2b7631cc41b3ba8828b3321ca811111fa75cd3aa3bb5ace601f830160051c810191602084106101c7575b601f0160051c01905b8181106101bc57506100bc565b5f81556001016101af565b90915081906101a6565b634e487b7160e01b5f52602260045260245ffd5b90607f16906100aa565b634e487b7160e01b5f52604160045260245ffd5b5f80fd5b6040519190601f01601f191682016001600160401b038111838210176101ef5760405256fe60806040526004361015610011575f80fd5b5f3560e01c8062fdd58e1461142657806301ffc9a7146113b857806302fe5305146111e55780630e89341c146111065780631f7fdffa14610f935780632eb2c2d614610cb95780633f4ba83a14610c255780634e1273f414610a705780635c975abb14610a4e5780636b20c454146108c1578063731133e9146107ac5780638456cb5914610715578063a22cb46514610621578063e985e9c5146105c8578063f242432a146101f55763f5298aca146100c8575f80fd5b346101f15760603660031901126101f1576100e1611455565b604435906001600160a01b03166024356100fc8215156118c1565b61010581611a20565b5061010f83611a20565b506020925f6040516101218682611481565b5260ff60035416610197575f93828552848152604085208486528152604085205461014e83821015611919565b8386528582526040862085875282528260408720910390556040519283528201527fc3d58168c5ae7397731d063d5bbf3d657854427343f4c083240f7aacaa2d0f6260403392a4005b60405162461bcd60e51b815260048101859052602c60248201527f455243313135355061757361626c653a20746f6b656e207472616e736665722060448201526b1dda1a5b19481c185d5cd95960a21b6064820152608490fd5b5f80fd5b346101f15760a03660031901126101f15761020e611455565b61021661146b565b604435906064359060843567ffffffffffffffff81116101f1576102466001600160a01b03913690600401611582565b941692338414801561059f575b15610534576001600160a01b0382169161026e8315156117dd565b61027782611a20565b5061028184611a20565b5060ff600354166104da57815f525f60205260405f20855f5260205260405f20546102ae8582101561184f565b5f83815260208181526040808320898452909152808220928790039092558481522080546102dd908690611797565b905582856040518481528660208201527fc3d58168c5ae7397731d063d5bbf3d657854427343f4c083240f7aacaa2d0f6260403392a43b61031a57005b5f60209461035b6040519788968795869463f23a6e6160e01b865233600487015260248601526044850152606484015260a0608484015260a48301906114e9565b03925af15f91816104a9575b5061042557610374611991565b6308c379a0146103ee575b60405162461bcd60e51b815260206004820152603460248201527f455243313135353a207472616e7366657220746f206e6f6e204552433131353560448201527f526563656976657220696d706c656d656e7465720000000000000000000000006064820152608490fd5b0390fd5b6103f66119ac565b80610401575061037f565b60405162461bcd60e51b8152602060048201529081906103ea9060248301906114e9565b6001600160e01b031916630dc5919f60e01b0161043e57005b60405162461bcd60e51b815260206004820152602860248201527f455243313135353a204552433131353552656365697665722072656a6563746560448201527f6420746f6b656e730000000000000000000000000000000000000000000000006064820152608490fd5b6104cc91925060203d6020116104d3575b6104c48183611481565b810190611971565b9082610367565b503d6104ba565b60405162461bcd60e51b815260206004820152602c60248201527f455243313135355061757361626c653a20746f6b656e207472616e736665722060448201526b1dda1a5b19481c185d5cd95960a21b6064820152608490fd5b60405162461bcd60e51b815260206004820152602960248201527f455243313135353a2063616c6c6572206973206e6f74206f776e6572206e6f7260448201527f20617070726f76656400000000000000000000000000000000000000000000006064820152608490fd5b50835f52600160205260405f206001600160a01b0333165f5260205260ff60405f205416610253565b346101f15760403660031901126101f1576105e1611455565b6001600160a01b036105f161146b565b91165f5260016020526001600160a01b0360405f2091165f52602052602060ff60405f2054166040519015158152f35b346101f15760403660031901126101f15761063a611455565b602435908115158092036101f1576001600160a01b0316908133146106aa57335f52600160205260405f20825f5260205260405f2060ff1981541660ff83161790556040519081527f17307eab39ab6107e8899845ad3d59bd9653f200f220920489ca2b5937696c3160203392a3005b60405162461bcd60e51b815260206004820152602960248201527f455243313135353a2073657474696e6720617070726f76616c2073746174757360448201527f20666f722073656c6600000000000000000000000000000000000000000000006064820152608490fd5b346101f1575f3660031901126101f15760035460ff81166107675760019060ff1916176003557f62e78cea01bee320cd4e420270b5ea74000d11b0c9f74754ebdbfc544b05a2586020604051338152a1005b60405162461bcd60e51b815260206004820152601060248201527f5061757361626c653a20706175736564000000000000000000000000000000006044820152606490fd5b346101f15760803660031901126101f1576107c5611455565b6024356044359160643567ffffffffffffffff81116101f1576107ec903690600401611582565b906001600160a01b038116906108038215156116cf565b61080c84611a20565b5061081685611a20565b5060ff600354166104da57835f525f60205260405f20825f5260205260405f20610841868254611797565b9055815f6040518681528760208201527fc3d58168c5ae7397731d063d5bbf3d657854427343f4c083240f7aacaa2d0f6260403392a43b61087e57005b61035b935f6020946040519687958694859363f23a6e6160e01b85523360048601528560248601526044850152606484015260a0608484015260a48301906114e9565b346101f15760603660031901126101f1576108da611455565b60243567ffffffffffffffff81116101f1576108fa903690600401611525565b9060443567ffffffffffffffff81116101f1576109236001600160a01b03913690600401611525565b9116906109318215156118c1565b61093e8351825114611725565b60205f60405161094e8382611481565b5260ff600354166109f5575f5b84518110156109ba5780610971600192876116a7565b5161097c82866116a7565b51815f525f855260405f20875f52855260405f20549161099e82841015611919565b5f525f855260405f20875f52855260405f20910390550161095b565b5f84867f4a39dc06d4c0dbc64b70af90fd698a233a518aa5d07e595d983b8c0526c8f7fb6109f0876040519182913395836117b8565b0390a4005b6084906040519062461bcd60e51b82526004820152602c60248201527f455243313135355061757361626c653a20746f6b656e207472616e736665722060448201526b1dda1a5b19481c185d5cd95960a21b6064820152fd5b346101f1575f3660031901126101f157602060ff600354166040519015158152f35b346101f15760403660031901126101f15760043567ffffffffffffffff81116101f157366023820112156101f1578060040135610aac8161150d565b91610aba6040519384611481565b8183526024602084019260051b820101903682116101f157602401915b818310610c05578360243567ffffffffffffffff81116101f157610aff903690600401611525565b908051825103610b9a57805191610b158361150d565b92610b236040519485611481565b808452610b32601f199161150d565b013660208501375f5b8251811015610b805780610b6f6001600160a01b03610b5c600194876116a7565b5116610b6883866116a7565b51906115d3565b610b7982876116a7565b5201610b3b565b60405160208082528190610b96908201876115a0565b0390f35b60405162461bcd60e51b815260206004820152602960248201527f455243313135353a206163636f756e747320616e6420696473206c656e67746860448201527f206d69736d6174636800000000000000000000000000000000000000000000006064820152608490fd5b82356001600160a01b03811681036101f157815260209283019201610ad7565b346101f1575f3660031901126101f15760035460ff811615610c745760ff19166003557f5db9ee0a495bf2e6ff9c91a7834c1ba4fdd244a5e8aa4e537bd38aeae4b073aa6020604051338152a1005b60405162461bcd60e51b815260206004820152601460248201527f5061757361626c653a206e6f74207061757365640000000000000000000000006044820152606490fd5b346101f15760a03660031901126101f157610cd2611455565b610cda61146b565b60443567ffffffffffffffff81116101f157610cfa903690600401611525565b60643567ffffffffffffffff81116101f157610d1a903690600401611525565b9260843567ffffffffffffffff81116101f157610d436001600160a01b03913690600401611582565b9116913383148015610f6a575b15610eff57610d628151865114611725565b6001600160a01b03841691610d788315156117dd565b60ff600354166104da575f5b8251811015610e0a5780610d9a600192856116a7565b51610da5828a6116a7565b5190805f525f60205260405f20885f5260205260405f2054610dc98382101561184f565b815f525f60205260405f20895f526020528260405f20910390555f525f60205260405f20865f52602052610e0260405f20918254611797565b905501610d84565b509382846040517f4a39dc06d4c0dbc64b70af90fd698a233a518aa5d07e595d983b8c0526c8f7fb339180610e408c89836117b8565b0390a43b610e4a57005b5f610e8893610eac602096610e9a604051998a988997889663bc197c8160e01b8852336004890152602488015260a0604488015260a48701906115a0565b858103600319016064870152906115a0565b838103600319016084850152906114e9565b03925af15f9181610ede575b50610ec557610374611991565b6001600160e01b0319166343e6837f60e01b0161043e57005b610ef891925060203d6020116104d3576104c48183611481565b9082610eb8565b60405162461bcd60e51b815260206004820152603260248201527f455243313135353a207472616e736665722063616c6c6572206973206e6f742060448201527f6f776e6572206e6f7220617070726f76656400000000000000000000000000006064820152608490fd5b50825f52600160205260405f206001600160a01b0333165f5260205260ff60405f205416610d50565b346101f15760803660031901126101f157610fac611455565b60243567ffffffffffffffff81116101f157610fcc903690600401611525565b60443567ffffffffffffffff81116101f157610fec903690600401611525565b9060643567ffffffffffffffff81116101f15761100d903690600401611582565b916001600160a01b038416906110248215156116cf565b6110318351825114611725565b60ff600354166104da575f5b83518110156110865780611053600192846116a7565b5161105e82876116a7565b515f525f60205260405f20855f5260205261107e60405f20918254611797565b90550161103d565b509193815f6040517f4a39dc06d4c0dbc64b70af90fd698a233a518aa5d07e595d983b8c0526c8f7fb3391806110bd898c836117b8565b0390a43b6110c757005b610e885f610e9a95610eac6020966040519889978896879563bc197c8160e01b875233600488015287602488015260a0604488015260a48701906115a0565b346101f15760203660031901126101f1576040515f6002546111278161166f565b80845290600181169081156111c15750600114611163575b610b968361114f81850382611481565b6040519182916020835260208301906114e9565b91905060025f527f405787fa12a823e0f2b7631cc41b3ba8828b3321ca811111fa75cd3aa3bb5ace915f905b8082106111a75750909150810160200161114f61113f565b91926001816020925483858801015201910190929161118f565b60ff191660208086019190915291151560051b8401909101915061114f905061113f565b346101f15760203660031901126101f15760043567ffffffffffffffff81116101f157366023820112156101f1576112279036906024816004013591016114a3565b805167ffffffffffffffff81116113a45761124360025461166f565b601f8111611303575b50602091601f8211600114611288579181925f9261127d575b50505f19600383901b1c191660019190911b17600255005b015190508280611265565b601f1982169260025f527f405787fa12a823e0f2b7631cc41b3ba8828b3321ca811111fa75cd3aa3bb5ace915f5b8581106112eb575083600195106112d3575b505050811b01600255005b01515f1960f88460031b161c191690558280806112c8565b919260206001819286850151815501940192016112b6565b60025f52601f820160051c7f405787fa12a823e0f2b7631cc41b3ba8828b3321ca811111fa75cd3aa3bb5ace01906020831061137c575b601f0160051c7f405787fa12a823e0f2b7631cc41b3ba8828b3321ca811111fa75cd3aa3bb5ace01905b818110611371575061124c565b5f8155600101611364565b7f405787fa12a823e0f2b7631cc41b3ba8828b3321ca811111fa75cd3aa3bb5ace915061133a565b634e487b7160e01b5f52604160045260245ffd5b346101f15760203660031901126101f15760043563ffffffff60e01b81168091036101f157602090636cdb3d1360e11b8114908115611415575b8115611404575b506040519015158152f35b6301ffc9a760e01b149050826113f9565b6303a24d0760e21b811491506113f2565b346101f15760403660031901126101f157602061144d611444611455565b602435906115d3565b604051908152f35b600435906001600160a01b03821682036101f157565b602435906001600160a01b03821682036101f157565b90601f8019910116810190811067ffffffffffffffff8211176113a457604052565b92919267ffffffffffffffff82116113a457604051916114cd601f8201601f191660200184611481565b8294818452818301116101f1578281602093845f960137010152565b805180835260209291819084018484015e5f828201840152601f01601f1916010190565b67ffffffffffffffff81116113a45760051b60200190565b9080601f830112156101f157813561153c8161150d565b9261154a6040519485611481565b81845260208085019260051b8201019283116101f157602001905b8282106115725750505090565b8135815260209182019101611565565b9080601f830112156101f15781602061159d933591016114a3565b90565b90602080835192838152019201905f5b8181106115bd5750505090565b82518452602093840193909201916001016115b0565b906001600160a01b03821615611604575f525f6020526001600160a01b0360405f2091165f5260205260405f205490565b60405162461bcd60e51b815260206004820152602b60248201527f455243313135353a2062616c616e636520717565727920666f7220746865207a60448201527f65726f20616464726573730000000000000000000000000000000000000000006064820152608490fd5b90600182811c9216801561169d575b602083101461168957565b634e487b7160e01b5f52602260045260245ffd5b91607f169161167e565b80518210156116bb5760209160051b010190565b634e487b7160e01b5f52603260045260245ffd5b156116d657565b60405162461bcd60e51b815260206004820152602160248201527f455243313135353a206d696e7420746f20746865207a65726f206164647265736044820152607360f81b6064820152608490fd5b1561172c57565b60405162461bcd60e51b815260206004820152602860248201527f455243313135353a2069647320616e6420616d6f756e7473206c656e6774682060448201527f6d69736d617463680000000000000000000000000000000000000000000000006064820152608490fd5b919082018092116117a457565b634e487b7160e01b5f52601160045260245ffd5b90916117cf61159d936040845260408401906115a0565b9160208184039101526115a0565b156117e457565b60405162461bcd60e51b815260206004820152602560248201527f455243313135353a207472616e7366657220746f20746865207a65726f20616460448201527f64726573730000000000000000000000000000000000000000000000000000006064820152608490fd5b1561185657565b60405162461bcd60e51b815260206004820152602a60248201527f455243313135353a20696e73756666696369656e742062616c616e636520666f60448201527f72207472616e73666572000000000000000000000000000000000000000000006064820152608490fd5b156118c857565b60405162461bcd60e51b815260206004820152602360248201527f455243313135353a206275726e2066726f6d20746865207a65726f206164647260448201526265737360e81b6064820152608490fd5b1561192057565b60405162461bcd60e51b8152602060048201526024808201527f455243313135353a206275726e20616d6f756e7420657863656564732062616c604482015263616e636560e01b6064820152608490fd5b908160209103126101f157516001600160e01b0319811681036101f15790565b5f9060033d1161199d57565b905060045f803e5f5160e01c90565b5f60443d1061159d576040513d600319016004823e8051913d602484011167ffffffffffffffff841117611a1a578282019283519167ffffffffffffffff8311611a12573d84016003190185840160200111611a12575061159d92910160200190611481565b949350505050565b92915050565b60405190611a2f604083611481565b600182526020808301903682378251156116bb57529056fea2646970667358221220713131338cfb490940c82024d075056a3b4674681caed32926a06b6b98a4366364736f6c634300081a0033","linkReferences":{}},"methodIdentifiers":{"balanceOf(address,uint256)":"00fdd58e","balanceOfBatch(address[],uint256[])":"4e1273f4","burn(address,uint256,uint256)":"f5298aca","burnBatch(address,uint256[],uint256[])":"6b20c454","isApprovedForAll(address,address)":"e985e9c5","mint(address,uint256,uint256,bytes)":"731133e9","mintBatch(address,uint256[],uint256[],bytes)":"1f7fdffa","pause()":"8456cb59","paused()":"5c975abb","safeBatchTransferFrom(address,address,uint256[],uint256[],bytes)":"2eb2c2d6","safeTransferFrom(address,address,uint256,uint256,bytes)":"f242432a","setApprovalForAll(address,bool)":"a22cb465","setURI(string)":"02fe5305","supportsInterface(bytes4)":"01ffc9a7","unpause()":"3f4ba83a","uri(uint256)":"0e89341c"},"id":161}