{"abi":[{"type":"function","name":"fail","inputs":[],"outputs":[],"stateMutability":"pure"},{"type":"function","name":"initialize","inputs":[],"outputs":[],"stateMutability":"nonpayable"},{"type":"function","name":"initializeNested","inputs":[],"outputs":[],"stateMutability":"nonpayable"},{"type":"function","name":"initializeWithX","inputs":[{"name":"_x","type":"uint256","internalType":"uint256"}],"outputs":[],"stateMutability":"payable"},{"type":"function","name":"initializerRan","inputs":[],"outputs":[{"name":"","type":"bool","internalType":"bool"}],"stateMutability":"view"},{"type":"function","name":"nonInitializable","inputs":[{"name":"_x","type":"uint256","internalType":"uint256"}],"outputs":[],"stateMutability":"payable"},{"type":"function","name":"x","inputs":[],"outputs":[{"name":"","type":"uint256","internalType":"uint256"}],"stateMutability":"view"}],"bytecode":{"object":"0x60808060405234601557610350908161001a8239f35b5f80fdfe60806040526004361015610011575f80fd5b5f3560e01c806218eaa8146102515780630c55699c146102345780638129fc1c146101bf578063a9cc47181461016b578063c3b8ef2a14610147578063cb3a528d1461007d5763e955c9ec14610065575f80fd5b602036600319011261007957600435600155005b5f80fd5b34610079575f366003190112610079575f5460ff8160081c1690811580928161013c575b6100aa906102a8565b61012b575b505f5460ff8160081c16908115809281610120575b6100cd906102a8565b61010f575b505f54906201000062ff0000198316175f556100fc575b506100f057005b5f805461ff0019169055005b62ffff00191662010000175f55816100e9565b61ffff1916610101175f55826100d2565b5060ff8216156100c4565b61ffff1916610101175f55816100af565b5060ff8216156100a1565b34610079575f36600319011261007957602060ff5f5460101c166040519015158152f35b34610079575f36600319011261007957606460405162461bcd60e51b815260206004820152602060248201527f496e697469616c697a61626c654d6f636b20666f72636564206661696c7572656044820152fd5b34610079575f366003190112610079575f5460ff8160081c16908115809281610229575b6101ec906102a8565b610218575b505f54906201000062ff0000198316175f5561020957005b62ffff00191662010000175f55005b61ffff1916610101175f55816101f1565b5060ff8216156101e3565b34610079575f366003190112610079576020600154604051908152f35b6020366003190112610079575f5460ff8160081c1690811580928161029d575b61027a906102a8565b61028c575b506004356001556100f057005b61ffff1916610101175f558161027f565b5060ff821615610271565b156102af57565b60405162461bcd60e51b815260206004820152602e60248201527f496e697469616c697a61626c653a20636f6e747261637420697320616c72656160448201527f647920696e697469616c697a65640000000000000000000000000000000000006064820152608490fdfea264697066735822122005d1a65be0fdf704a6e4723a807ac76eb5bcc5e484d09646289b059e79002de764736f6c634300081a0033","linkReferences":{}},"methodIdentifiers":{"fail()":"a9cc4718","initialize()":"8129fc1c","initializeNested()":"cb3a528d","initializeWithX(uint256)":"0018eaa8","initializerRan()":"c3b8ef2a","nonInitializable(uint256)":"e955c9ec","x()":"0c55699c"},"id":365}