{"abi":[{"type":"function","name":"allowance","inputs":[{"name":"owner","type":"address","internalType":"address"},{"name":"spender","type":"address","internalType":"address"}],"outputs":[{"name":"","type":"uint256","internalType":"uint256"}],"stateMutability":"view"},{"type":"function","name":"approve","inputs":[{"name":"spender","type":"address","internalType":"address"},{"name":"amount","type":"uint256","internalType":"uint256"}],"outputs":[{"name":"","type":"bool","internalType":"bool"}],"stateMutability":"nonpayable"},{"type":"function","name":"approveInternal","inputs":[{"name":"owner","type":"address","internalType":"address"},{"name":"spender","type":"address","internalType":"address"},{"name":"value","type":"uint256","internalType":"uint256"}],"outputs":[],"stateMutability":"nonpayable"},{"type":"function","name":"balanceOf","inputs":[{"name":"account","type":"address","internalType":"address"}],"outputs":[{"name":"","type":"uint256","internalType":"uint256"}],"stateMutability":"view"},{"type":"function","name":"burn","inputs":[{"name":"account","type":"address","internalType":"address"},{"name":"amount","type":"uint256","internalType":"uint256"}],"outputs":[],"stateMutability":"nonpayable"},{"type":"function","name":"decimals","inputs":[],"outputs":[{"name":"","type":"uint8","internalType":"uint8"}],"stateMutability":"view"},{"type":"function","name":"decreaseAllowance","inputs":[{"name":"spender","type":"address","internalType":"address"},{"name":"subtractedValue","type":"uint256","internalType":"uint256"}],"outputs":[{"name":"","type":"bool","internalType":"bool"}],"stateMutability":"nonpayable"},{"type":"function","name":"increaseAllowance","inputs":[{"name":"spender","type":"address","internalType":"address"},{"name":"addedValue","type":"uint256","internalType":"uint256"}],"outputs":[{"name":"","type":"bool","internalType":"bool"}],"stateMutability":"nonpayable"},{"type":"function","name":"mint","inputs":[{"name":"account","type":"address","internalType":"address"},{"name":"amount","type":"uint256","internalType":"uint256"}],"outputs":[],"stateMutability":"nonpayable"},{"type":"function","name":"multicall","inputs":[{"name":"data","type":"bytes[]","internalType":"bytes[]"}],"outputs":[{"name":"results","type":"bytes[]","internalType":"bytes[]"}],"stateMutability":"nonpayable"},{"type":"function","name":"name","inputs":[],"outputs":[{"name":"","type":"string","internalType":"string"}],"stateMutability":"view"},{"type":"function","name":"symbol","inputs":[],"outputs":[{"name":"","type":"string","internalType":"string"}],"stateMutability":"view"},{"type":"function","name":"totalSupply","inputs":[],"outputs":[{"name":"","type":"uint256","internalType":"uint256"}],"stateMutability":"view"},{"type":"function","name":"transfer","inputs":[{"name":"recipient","type":"address","internalType":"address"},{"name":"amount","type":"uint256","internalType":"uint256"}],"outputs":[{"name":"","type":"bool","internalType":"bool"}],"stateMutability":"nonpayable"},{"type":"function","name":"transferFrom","inputs":[{"name":"sender","type":"address","internalType":"address"},{"name":"recipient","type":"address","internalType":"address"},{"name":"amount","type":"uint256","internalType":"uint256"}],"outputs":[{"name":"","type":"bool","internalType":"bool"}],"stateMutability":"nonpayable"},{"type":"function","name":"transferInternal","inputs":[{"name":"from","type":"address","internalType":"address"},{"name":"to","type":"address","internalType":"address"},{"name":"value","type":"uint256","internalType":"uint256"}],"outputs":[],"stateMutability":"nonpayable"},{"type":"event","name":"Approval","inputs":[{"name":"owner","type":"address","indexed":true,"internalType":"address"},{"name":"spender","type":"address","indexed":true,"internalType":"address"},{"name":"value","type":"uint256","indexed":false,"internalType":"uint256"}],"anonymous":false},{"type":"event","name":"Transfer","inputs":[{"name":"from","type":"address","indexed":true,"internalType":"address"},{"name":"to","type":"address","indexed":true,"internalType":"address"},{"name":"value","type":"uint256","indexed":false,"internalType":"uint256"}],"anonymous":false}],"bytecode":{"object":"0x6080806040523460155761101c908161001a8239f35b5f80fdfe60806040526004361015610011575f80fd5b5f3560e01c806306fdde0314610114578063095ea7b31461010f57806318160ddd1461010a578063222f5be01461010557806323b872dd14610100578063313ce567146100fb57806339509351146100f657806340c10f19146100f157806356189cb4146100ec57806370a08231146100e757806395d89b41146100e25780639dc29fac146100dd578063a457c2d7146100d8578063a9059cbb146100d3578063ac9650d8146100ce5763dd62ed3e146100c9575f80fd5b6108f5565b610887565b610802565b61073f565b610638565b610583565b61054b565b610534565b61044b565b6103ef565b6103d4565b6102ff565b6102e6565b61028f565b61025e565b610151565b805180835260209291819084018484015e5f828201840152601f01601f1916010190565b90602061014e928181520190610119565b90565b34610244575f366003190112610244576040515f6036548060011c906001811690811561023a575b60208310821461022657828552602085019190811561020d57506001146101bb575b6101b7846101ab8186038261096f565b6040519182918261013d565b0390f35b60365f9081529250907f4a11f94e20a93c79f6ec743a1954ec4fc2c08429ae2122118bf234b2185c81b85b8184106101f9575050016101ab8261019b565b8054848401526020909301926001016101e6565b60ff191682525090151560051b0190506101ab8261019b565b634e487b7160e01b5f52602260045260245ffd5b91607f1691610179565b5f80fd5b600435906001600160a01b038216820361024457565b346102445760403660031901126102445761028461027a610248565b6024359033610b1f565b602060405160018152f35b34610244575f366003190112610244576020603554604051908152f35b6060906003190112610244576004356001600160a01b038116810361024457906024356001600160a01b0381168103610244579060443590565b34610244576102fd6102f7366102ac565b91610d1d565b005b3461024457610319610310366102ac565b80939183610d1d565b6001600160a01b0381165f52603460205261034760405f20336001600160a01b03165f5260205260405f2090565b54918083106103695761035d9203903390610b1f565b60405160018152602090f35b60405162461bcd60e51b815260206004820152602860248201527f45524332303a207472616e7366657220616d6f756e742065786365656473206160448201527f6c6c6f77616e63650000000000000000000000000000000000000000000000006064820152608490fd5b34610244575f36600319011261024457602060405160128152f35b3461024457604036600319011261024457610408610248565b602435335f5260346020526104318260405f20906001600160a01b03165f5260205260405f2090565b54908101809111610446576102849133610b1f565b610996565b3461024457604036600319011261024457610464610248565b6001600160a01b0381169060243582156104ef576104ea816104cd5f946104b66104b17fddf252ad1be2c89b69c2b068fc378daa952ba7f163c4a11628f55a4df523b3ef966035546109aa565b603555565b6001600160a01b03165f52603360205260405f2090565b6104d88282546109aa565b90556040519081529081906020820190565b0390a3005b60405162461bcd60e51b815260206004820152601f60248201527f45524332303a206d696e7420746f20746865207a65726f2061646472657373006044820152606490fd5b34610244576102fd610545366102ac565b91610b1f565b34610244576020366003190112610244576001600160a01b0361056c610248565b165f526033602052602060405f2054604051908152f35b34610244575f366003190112610244576040515f6037548060011c906001811690811561062e575b60208310821461022657828552602085019190811561020d57506001146105dc576101b7846101ab8186038261096f565b60375f9081529250907f42a7b7dd785cd69714a189dffb3fd7d7174edc9ece837694ce50f7078f7c31ae5b81841061061a575050016101ab8261019b565b805484840152602090930192600101610607565b91607f16916105ab565b3461024457604036600319011261024457610651610248565b6001600160a01b03811660243581156106f0576104ea81846106d07fddf252ad1be2c89b69c2b068fc378daa952ba7f163c4a11628f55a4df523b3ef946106aa5f986001600160a01b03165f52603360205260405f2090565b546106b782821015610e1d565b03916001600160a01b03165f52603360205260405f2090565b556106e06104b182603554610e74565b6040519081529081906020820190565b60405162461bcd60e51b815260206004820152602160248201527f45524332303a206275726e2066726f6d20746865207a65726f206164647265736044820152607360f81b6064820152608490fd5b3461024457604036600319011261024457610758610248565b60243590335f5260346020526107828160405f20906001600160a01b03165f5260205260405f2090565b54918083106107975761035d92039033610b1f565b60405162461bcd60e51b815260206004820152602560248201527f45524332303a2064656372656173656420616c6c6f77616e63652062656c6f7760448201527f207a65726f0000000000000000000000000000000000000000000000000000006064820152608490fd5b346102445760403660031901126102445761028461081e610248565b6024359033610d1d565b602081016020825282518091526040820191602060408360051b8301019401925f915b83831061085a57505050505090565b9091929394602080610878600193603f198682030187528951610119565b9701930193019193929061084b565b346102445760203660031901126102445760043567ffffffffffffffff811161024457366023820112156102445780600401359067ffffffffffffffff8211610244573660248360051b83010111610244576101b79160246108e99201610a90565b60405191829182610828565b346102445760403660031901126102445761090e610248565b602435906001600160a01b0382168203610244576020916001600160a01b0361095292165f526034835260405f20906001600160a01b03165f5260205260405f2090565b54604051908152f35b634e487b7160e01b5f52604160045260245ffd5b90601f8019910116810190811067ffffffffffffffff82111761099157604052565b61095b565b634e487b7160e01b5f52601160045260245ffd5b9190820180921161044657565b67ffffffffffffffff81116109915760051b60200190565b634e487b7160e01b5f52603260045260245ffd5b9190811015610a255760051b81013590601e198136030182121561024457019081359167ffffffffffffffff8311610244576020018236038113610244579190565b6109cf565b67ffffffffffffffff811161099157601f01601f191660200190565b929192610a5282610a2a565b91610a60604051938461096f565b829481845281830111610244578281602093845f960137010152565b8051821015610a255760209160051b010190565b610a99826109b7565b91610aa7604051938461096f565b808352601f19610ab6826109b7565b015f5b818110610b0e5750505f5b818110610ad15750505090565b80610af2610aec610ae560019486886109e3565b3691610a46565b30610ee2565b610afc8287610a7c565b52610b078186610a7c565b5001610ac4565b806060602080938801015201610ab9565b906001600160a01b038216918215610c02576001600160a01b038216938415610bb25780610b9c7f8c5be1e5ebec7d5bd14f71427d1e84f3dd0314c0f7b2291e5b200ac8c7c3b92594610b86610bad956001600160a01b03165f52603460205260405f2090565b906001600160a01b03165f5260205260405f2090565b556040519081529081906020820190565b0390a3565b60405162461bcd60e51b815260206004820152602260248201527f45524332303a20617070726f766520746f20746865207a65726f206164647265604482015261737360f01b6064820152608490fd5b60405162461bcd60e51b8152602060048201526024808201527f45524332303a20617070726f76652066726f6d20746865207a65726f206164646044820152637265737360e01b6064820152608490fd5b15610c5a57565b60405162461bcd60e51b815260206004820152602360248201527f45524332303a207472616e7366657220746f20746865207a65726f206164647260448201526265737360e81b6064820152608490fd5b15610cb257565b60405162461bcd60e51b815260206004820152602660248201527f45524332303a207472616e7366657220616d6f756e742065786365656473206260448201527f616c616e636500000000000000000000000000000000000000000000000000006064820152608490fd5b916001600160a01b038316918215610db2577fddf252ad1be2c89b69c2b068fc378daa952ba7f163c4a11628f55a4df523b3ef916104cd826001600160a01b03610bad941696610d6e881515610c53565b610d9a84610d8d836001600160a01b03165f52603360205260405f2090565b546106b782821015610cab565b556001600160a01b03165f52603360205260405f2090565b60405162461bcd60e51b815260206004820152602560248201527f45524332303a207472616e736665722066726f6d20746865207a65726f20616460448201527f64726573730000000000000000000000000000000000000000000000000000006064820152608490fd5b15610e2457565b60405162461bcd60e51b815260206004820152602260248201527f45524332303a206275726e20616d6f756e7420657863656564732062616c616e604482015261636560f01b6064820152608490fd5b9190820391821161044657565b60405190610e9060608361096f565b602782527f206661696c6564000000000000000000000000000000000000000000000000006040837f416464726573733a206c6f772d6c6576656c2064656c65676174652063616c6c60208201520152565b90813b15610f37575f8161014e9360208394519201905af43d15610f30573d610f0a81610a2a565b90610f18604051928361096f565b81523d5f602083013e5b610f2a610e81565b91610fa2565b6060610f22565b60405162461bcd60e51b815260206004820152602660248201527f416464726573733a2064656c65676174652063616c6c20746f206e6f6e2d636f60448201527f6e747261637400000000000000000000000000000000000000000000000000006064820152608490fd5b90919015610fae575090565b815115610fbe5750805190602001fd5b60405162461bcd60e51b815260206004820152908190610fe2906024830190610119565b0390fdfea26469706673582212202b74355a16c74096a5ffbd618599d9df8534a993693d76f73081cfc4293d956f64736f6c634300081a0033","linkReferences":{}},"methodIdentifiers":{"allowance(address,address)":"dd62ed3e","approve(address,uint256)":"095ea7b3","approveInternal(address,address,uint256)":"56189cb4","balanceOf(address)":"70a08231","burn(address,uint256)":"9dc29fac","decimals()":"313ce567","decreaseAllowance(address,uint256)":"a457c2d7","increaseAllowance(address,uint256)":"39509351","mint(address,uint256)":"40c10f19","multicall(bytes[])":"ac9650d8","name()":"06fdde03","symbol()":"95d89b41","totalSupply()":"18160ddd","transfer(address,uint256)":"a9059cbb","transferFrom(address,address,uint256)":"23b872dd","transferInternal(address,address,uint256)":"222f5be0"},"id":369}