{"abi":[{"type":"function","name":"average","inputs":[{"name":"a","type":"uint256","internalType":"uint256"},{"name":"b","type":"uint256","internalType":"uint256"}],"outputs":[{"name":"","type":"uint256","internalType":"uint256"}],"stateMutability":"pure"},{"type":"function","name":"ceilDiv","inputs":[{"name":"a","type":"uint256","internalType":"uint256"},{"name":"b","type":"uint256","internalType":"uint256"}],"outputs":[{"name":"","type":"uint256","internalType":"uint256"}],"stateMutability":"pure"},{"type":"function","name":"max","inputs":[{"name":"a","type":"uint256","internalType":"uint256"},{"name":"b","type":"uint256","internalType":"uint256"}],"outputs":[{"name":"","type":"uint256","internalType":"uint256"}],"stateMutability":"pure"},{"type":"function","name":"min","inputs":[{"name":"a","type":"uint256","internalType":"uint256"},{"name":"b","type":"uint256","internalType":"uint256"}],"outputs":[{"name":"","type":"uint256","internalType":"uint256"}],"stateMutability":"pure"}],"bytecode":{"object":"0x6080806040523460155761018d908161001a8239f35b5f80fdfe60806040526004361015610011575f80fd5b5f3560e01c80632b7423ab146100e55780636d5433e6146100c55780637ae2b5c71461009d57639cb3532714610045575f80fd5b346100995761005336610120565b80156100855760209161007491808204910661007c5760ff5f5b1690610136565b604051908152f35b60ff600161006d565b634e487b7160e01b5f52601260045260245ffd5b5f80fd5b346100995760206100ad36610120565b808210156100be5750604051908152f35b9050610074565b346100995760206100d536610120565b8082106100be5750604051908152f35b346100995760206100746101176100fb36610120565b919060018061010e85821c84831c610136565b94169116610136565b60011c90610136565b6040906003190112610099576004359060243590565b9190820180921161014357565b634e487b7160e01b5f52601160045260245ffdfea2646970667358221220002f83ee9651119d24bb5a344f5ee19adf27047839d57b7dcfc24429d5104aa364736f6c634300081a0033","linkReferences":{}},"methodIdentifiers":{"average(uint256,uint256)":"2b7423ab","ceilDiv(uint256,uint256)":"9cb35327","max(uint256,uint256)":"6d5433e6","min(uint256,uint256)":"7ae2b5c7"},"id":366}