{"abi":[{"type":"constructor","inputs":[{"name":"_poolManager","type":"address","internalType":"contract IPoolManager"}],"stateMutability":"nonpayable"},{"type":"function","name":"_quoteExactInput","inputs":[{"name":"params","type":"tuple","internalType":"struct IQuoter.QuoteExactParams","components":[{"name":"exactCurrency","type":"address","internalType":"Currency"},{"name":"path","type":"tuple[]","internalType":"struct PathKey[]","components":[{"name":"intermediateCurrency","type":"address","internalType":"Currency"},{"name":"fee","type":"uint24","internalType":"uint24"},{"name":"tickSpacing","type":"int24","internalType":"int24"},{"name":"hooks","type":"address","internalType":"contract IHooks"},{"name":"hookData","type":"bytes","internalType":"bytes"}]},{"name":"exactAmount","type":"uint128","internalType":"uint128"}]}],"outputs":[{"name":"","type":"bytes","internalType":"bytes"}],"stateMutability":"nonpayable"},{"type":"function","name":"_quoteExactInputSingle","inputs":[{"name":"params","type":"tuple","internalType":"struct IQuoter.QuoteExactSingleParams","components":[{"name":"poolKey","type":"tuple","internalType":"struct PoolKey","components":[{"name":"currency0","type":"address","internalType":"Currency"},{"name":"currency1","type":"address","internalType":"Currency"},{"name":"fee","type":"uint24","internalType":"uint24"},{"name":"tickSpacing","type":"int24","internalType":"int24"},{"name":"hooks","type":"address","internalType":"contract IHooks"}]},{"name":"zeroForOne","type":"bool","internalType":"bool"},{"name":"exactAmount","type":"uint128","internalType":"uint128"},{"name":"sqrtPriceLimitX96","type":"uint160","internalType":"uint160"},{"name":"hookData","type":"bytes","internalType":"bytes"}]}],"outputs":[{"name":"","type":"bytes","internalType":"bytes"}],"stateMutability":"nonpayable"},{"type":"function","name":"_quoteExactOutput","inputs":[{"name":"params","type":"tuple","internalType":"struct IQuoter.QuoteExactParams","components":[{"name":"exactCurrency","type":"address","internalType":"Currency"},{"name":"path","type":"tuple[]","internalType":"struct PathKey[]","components":[{"name":"intermediateCurrency","type":"address","internalType":"Currency"},{"name":"fee","type":"uint24","internalType":"uint24"},{"name":"tickSpacing","type":"int24","internalType":"int24"},{"name":"hooks","type":"address","internalType":"contract IHooks"},{"name":"hookData","type":"bytes","internalType":"bytes"}]},{"name":"exactAmount","type":"uint128","internalType":"uint128"}]}],"outputs":[{"name":"","type":"bytes","internalType":"bytes"}],"stateMutability":"nonpayable"},{"type":"function","name":"_quoteExactOutputSingle","inputs":[{"name":"params","type":"tuple","internalType":"struct IQuoter.QuoteExactSingleParams","components":[{"name":"poolKey","type":"tuple","internalType":"struct PoolKey","components":[{"name":"currency0","type":"address","internalType":"Currency"},{"name":"currency1","type":"address","internalType":"Currency"},{"name":"fee","type":"uint24","internalType":"uint24"},{"name":"tickSpacing","type":"int24","internalType":"int24"},{"name":"hooks","type":"address","internalType":"contract IHooks"}]},{"name":"zeroForOne","type":"bool","internalType":"bool"},{"name":"exactAmount","type":"uint128","internalType":"uint128"},{"name":"sqrtPriceLimitX96","type":"uint160","internalType":"uint160"},{"name":"hookData","type":"bytes","internalType":"bytes"}]}],"outputs":[{"name":"","type":"bytes","internalType":"bytes"}],"stateMutability":"nonpayable"},{"type":"function","name":"poolManager","inputs":[],"outputs":[{"name":"","type":"address","internalType":"contract IPoolManager"}],"stateMutability":"view"},{"type":"function","name":"quoteExactInput","inputs":[{"name":"params","type":"tuple","internalType":"struct IQuoter.QuoteExactParams","components":[{"name":"exactCurrency","type":"address","internalType":"Currency"},{"name":"path","type":"tuple[]","internalType":"struct PathKey[]","components":[{"name":"intermediateCurrency","type":"address","internalType":"Currency"},{"name":"fee","type":"uint24","internalType":"uint24"},{"name":"tickSpacing","type":"int24","internalType":"int24"},{"name":"hooks","type":"address","internalType":"contract IHooks"},{"name":"hookData","type":"bytes","internalType":"bytes"}]},{"name":"exactAmount","type":"uint128","internalType":"uint128"}]}],"outputs":[{"name":"deltaAmounts","type":"int128[]","internalType":"int128[]"},{"name":"sqrtPriceX96AfterList","type":"uint160[]","internalType":"uint160[]"},{"name":"initializedTicksLoadedList","type":"uint32[]","internalType":"uint32[]"}],"stateMutability":"nonpayable"},{"type":"function","name":"quoteExactInputSingle","inputs":[{"name":"params","type":"tuple","internalType":"struct IQuoter.QuoteExactSingleParams","components":[{"name":"poolKey","type":"tuple","internalType":"struct PoolKey","components":[{"name":"currency0","type":"address","internalType":"Currency"},{"name":"currency1","type":"address","internalType":"Currency"},{"name":"fee","type":"uint24","internalType":"uint24"},{"name":"tickSpacing","type":"int24","internalType":"int24"},{"name":"hooks","type":"address","internalType":"contract IHooks"}]},{"name":"zeroForOne","type":"bool","internalType":"bool"},{"name":"exactAmount","type":"uint128","internalType":"uint128"},{"name":"sqrtPriceLimitX96","type":"uint160","internalType":"uint160"},{"name":"hookData","type":"bytes","internalType":"bytes"}]}],"outputs":[{"name":"deltaAmounts","type":"int128[]","internalType":"int128[]"},{"name":"sqrtPriceX96After","type":"uint160","internalType":"uint160"},{"name":"initializedTicksLoaded","type":"uint32","internalType":"uint32"}],"stateMutability":"nonpayable"},{"type":"function","name":"quoteExactOutput","inputs":[{"name":"params","type":"tuple","internalType":"struct IQuoter.QuoteExactParams","components":[{"name":"exactCurrency","type":"address","internalType":"Currency"},{"name":"path","type":"tuple[]","internalType":"struct PathKey[]","components":[{"name":"intermediateCurrency","type":"address","internalType":"Currency"},{"name":"fee","type":"uint24","internalType":"uint24"},{"name":"tickSpacing","type":"int24","internalType":"int24"},{"name":"hooks","type":"address","internalType":"contract IHooks"},{"name":"hookData","type":"bytes","internalType":"bytes"}]},{"name":"exactAmount","type":"uint128","internalType":"uint128"}]}],"outputs":[{"name":"deltaAmounts","type":"int128[]","internalType":"int128[]"},{"name":"sqrtPriceX96AfterList","type":"uint160[]","internalType":"uint160[]"},{"name":"initializedTicksLoadedList","type":"uint32[]","internalType":"uint32[]"}],"stateMutability":"nonpayable"},{"type":"function","name":"quoteExactOutputSingle","inputs":[{"name":"params","type":"tuple","internalType":"struct IQuoter.QuoteExactSingleParams","components":[{"name":"poolKey","type":"tuple","internalType":"struct PoolKey","components":[{"name":"currency0","type":"address","internalType":"Currency"},{"name":"currency1","type":"address","internalType":"Currency"},{"name":"fee","type":"uint24","internalType":"uint24"},{"name":"tickSpacing","type":"int24","internalType":"int24"},{"name":"hooks","type":"address","internalType":"contract IHooks"}]},{"name":"zeroForOne","type":"bool","internalType":"bool"},{"name":"exactAmount","type":"uint128","internalType":"uint128"},{"name":"sqrtPriceLimitX96","type":"uint160","internalType":"uint160"},{"name":"hookData","type":"bytes","internalType":"bytes"}]}],"outputs":[{"name":"deltaAmounts","type":"int128[]","internalType":"int128[]"},{"name":"sqrtPriceX96After","type":"uint160","internalType":"uint160"},{"name":"initializedTicksLoaded","type":"uint32","internalType":"uint32"}],"stateMutability":"nonpayable"},{"type":"function","name":"unlockCallback","inputs":[{"name":"data","type":"bytes","internalType":"bytes"}],"outputs":[{"name":"","type":"bytes","internalType":"bytes"}],"stateMutability":"nonpayable"},{"type":"error","name":"InsufficientAmountOut","inputs":[]},{"type":"error","name":"InvalidLockCaller","inputs":[]},{"type":"error","name":"InvalidQuoteBatchParams","inputs":[]},{"type":"error","name":"LockFailure","inputs":[]},{"type":"error","name":"NotPoolManager","inputs":[]},{"type":"error","name":"NotSelf","inputs":[]},{"type":"error","name":"UnexpectedRevertBytes","inputs":[{"name":"revertData","type":"bytes","internalType":"bytes"}]}],"bytecode":{"object":"0x60a03460b257601f6123c238819003918201601f19168301916001600160401b0383118484101760b65780849260209460405283398101031260b257516001600160a01b038116810360b2576080526040516122f790816100cb823960805181818160d7015281816108ef01528181610aeb01528181610d1a01528181610f4b015281816110440152818161132d015281816114b101528181611542015281816116c80152818161189c01526119d10152f35b5f80fd5b634e487b7160e01b5f52604160045260245ffdfe60806040526004361015610011575f80fd5b5f3560e01c806302a00c25146100b457806311359648146100af578063147d2af9146100aa57806354b20ff6146100a55780636a36a38c146100a057806391dd73461461009b578063aa2f150114610096578063ca253dc914610091578063ceebece71461008c5763dc4c90d314610087575f80fd5b611025565b610f0c565b610ef3565b610c20565b610bb5565b61081a565b6107cd565b6107a5565b61054e565b34610208576100c23661020c565b3033036101f9576101f16101ce6101e36101d47f000000000000000000000000000000000000000000000000000000000000000061011361010d6101063689610335565b60a0902090565b8261175e565b5050905061018261012660a08901611068565b61015561015061014a61013b60c08d01611072565b6001600160801b0316600f0b90565b600f0b90565b611090565b9061016260e08b016110a5565b6101706101008c018c6110af565b93909261017d368e610335565b6119c0565b93919690986101c76101be6101956110e2565b996101b66101a58260801d611136565b6101ae8d61116a565b90600f0b9052565b600f0b611136565b6101ae8a61117c565b3690610335565b90611ad9565b6040519485936020850161051c565b03601f1981018352826102ca565b805190602001fd5b6314e1dbf760e11b5f5260045ffd5b5f80fd5b6020600319820112610208576004359067ffffffffffffffff8211610208576101209082900360031901126102085760040190565b805180835260209291819084018484015e5f828201840152601f01601f1916010190565b906020610276928181520190610241565b90565b634e487b7160e01b5f52604160045260245ffd5b60a0810190811067ffffffffffffffff8211176102a957604052565b610279565b6060810190811067ffffffffffffffff8211176102a957604052565b90601f8019910116810190811067ffffffffffffffff8211176102a957604052565b604051906102fb6060836102ca565b565b604051906102fb60a0836102ca565b6001600160a01b0381160361020857565b62ffffff81160361020857565b8060020b0361020857565b91908260a09103126102085760405161034d8161028d565b6080808294803561035d8161030c565b8452602081013561036d8161030c565b602085015260408101356103808161031d565b604085015260608101356103938161032a565b60608501520135916103a48361030c565b0152565b8015150361020857565b6001600160801b0381160361020857565b35906102fb826103b2565b35906102fb8261030c565b67ffffffffffffffff81116102a957601f01601f191660200190565b81601f820112156102085780359061040c826103d9565b9261041a60405194856102ca565b8284526020838301011161020857815f926020809301838601378301015290565b60206003198201126102085760043567ffffffffffffffff811161020857610120818303600319011261020857604051916104758361028d565b6104828183600401610335565b835260a4820135610492816103a8565b602084015260c48201356104a5816103b2565b60408401526104b660e483016103ce565b60608401526101048201359167ffffffffffffffff8311610208576104de92016004016103f5565b608082015290565b90602080835192838152019201905f5b8181106105035750505090565b8251600f0b8452602093840193909201916001016104f6565b91939263ffffffff906001600160a01b036105416040946060875260608701906104e6565b9616602085015216910152565b34610208576105766105676105623661043b565b6112d9565b6040939193519384938461051c565b0390f35b67ffffffffffffffff81116102a95760051b60200190565b60206003198201126102085760043567ffffffffffffffff8111610208576060818303600319011261020857604051916105cb836102ae565b81600401356105d98161030c565b8352602482013567ffffffffffffffff811161020857820190806023830112156102085760048201359161060c8361057a565b9261061a60405194856102ca565b808452602060048186019260051b84010101918383116102085760248101915b83831061065f5750505050506020830152610657906044016103c3565b604082015290565b823567ffffffffffffffff8111610208576004908301019060a0601f19838803011261020857604051906106928261028d565b60208301356106a08161030c565b825260408301356106b08161031d565b602083015260608301356106c38161032a565b604083015260808301356106d68161030c565b606083015260a08301359167ffffffffffffffff831161020857610702886020809695819601016103f5565b608082015281520192019161063a565b90610725906060835260608301906104e6565b8181036020830152602080845192838152019301905f5b818110610786575050506040818303910152602080835192838152019201905f5b81811061076a5750505090565b825163ffffffff1684526020938401939092019160010161075d565b82516001600160a01b031685526020948501949092019160010161073c565b34610208576105766107be6107b936610592565b611475565b60409391935193849384610712565b34610208576105766105676107e13661043b565b61150a565b6020600319820112610208576004359067ffffffffffffffff82116102085760609082900360031901126102085760040190565b3461020857610828366107e6565b3033036101f95761083c60208201826115d1565b91905061085061084b83611607565b611104565b9161085a81611104565b61086382611104565b9061086c6102ec565b94855260208501526040840152610881611615565b5f5b8281106108ac57846101f181516101e36040602085015194015160405194859360208501610712565b80610b28610b0f6108e36108cf6001956108c960208b018b6115d1565b90611663565b84610ba2576108dd896110a5565b9061202e565b61092061091360a084207f000000000000000000000000000000000000000000000000000000000000000061175e565b505060020b60808a015250565b88858881610b6a575061097a82610972610968610996946108c961095d6001600160801b0361095460406109869b01611072565b16600f0b611090565b9460208101906115d1565b60808101906110af565b918688611893565b60020b60a08c01529092565b6001600160a01b031660e08a0152565b8088528115610b4457506109db6109b66109b1895160801d90565b611136565b6109d16109c76109b18b51600f0b90565b600f0b60608b0152565b600f0b6040890152565b610a168a6101ae87610a106109f460408d0151600f0b90565b935193610a0b610a04848761118c565b51600f0b90565b611685565b9261118c565b610a47610a276060890151600f0b90565b6101ae8c5191610a10610a398a611607565b91610a0b610a04848761118c565b15610b2e57610a79610a69610a5d8851600f0b90565b6001600160801b031690565b6001600160801b03166020880152565b610aa5610a95610a90866108c960208d018d6115d1565b6110a5565b6001600160a01b031660c0880152565b610ad8610abc60e08801516001600160a01b031690565b610aca8660208d015161118c565b906001600160a01b03169052565b608086015160020b60a087015160020b917f0000000000000000000000000000000000000000000000000000000000000000611ad9565b610b1d8360408a015161118c565b9063ffffffff169052565b01610883565b610a79610b3f610a5d885160801d90565b610a69565b610b546109b16109db92600f0b90565b6109d1610b656109b18b5160801d90565b6109c7565b61098692610972610968610996946108c961095d6001600160801b03610b9d602061097a9901516001600160801b031690565b610954565b60c08701516001600160a01b03166108dd565b346102085760203660031901126102085760043567ffffffffffffffff811161020857366023820112156102085780600401359067ffffffffffffffff821161020857366024838301011161020857610576916024610c1492016116bd565b60405191829182610265565b3461020857610c2e366107e6565b3033036101f957610c4260208201826115d1565b919050610c5161084b83611607565b91610c5b81611104565b610c6482611104565b90610c6d6102ec565b94855260208501526040840152610c82611615565b81805b610cab57846101f181516101e36040602085015194015160405194859360208501610712565b808314908115610ed657610d12610cc460408701611072565b925b610ce4846001600160801b03166001600160801b03195f5416175f55565b610d03610cf460208901896115d1565b610cfd86611712565b91611663565b9015610ec3576108dd876110a5565b909260a084207f000000000000000000000000000000000000000000000000000000000000000090610d439161175e565b505060020b608087015250610d5b60208801886115d1565b610d6485611712565b90610d6e92611663565b60808101610d7b916110af565b610d93929091906001600160801b0316841587611893565b60020b60a08701526001600160a01b031660e0860152808552610dbf6001600160801b03195f54165f55565b610e9993610e9492610e839281610eb35750610de26109b66109b1895160801d90565b610e05610df36040890151600f0b90565b6101ae8c5191610a10610a398a611712565b610e1e8a6101ae87610a106109f460608d0151600f0b90565b610e9f57610e36610a69610a5d6109b1895160801d90565b610e55610a95610a90610e4c60208c018c6115d1565b610cfd89611712565b610ad8610e6c60e08801516001600160a01b031690565b610aca60208c0151610e7d88611712565b9061118c565b610b1d6040890151610e7d85611712565b611706565b80610c85565b610e36610b3f610a5d6109b18951600f0b90565b610b546109b1610de292600f0b90565b60c08501516001600160a01b03166108dd565b610d12610eed60208501516001600160801b031690565b92610cc6565b34610208576105766107be610f0736610592565b611720565b3461020857610f1a3661020c565b3033036101f9576101f16101ce6101e36101d460e085016001600160a01b03610f42826110a5565b1615610ff7575b7f000000000000000000000000000000000000000000000000000000000000000090610fad610f84610f7e610106368b610335565b8461175e565b5050929050610f9560a08a01611068565b610162610fa7610a5d60c08d01611072565b926110a5565b93919690986001600160801b03610fcb5f546001600160801b031690565b16610fdf575b6101c76101be6101956110e2565b610ff26001600160801b03195f54165f55565b610fd1565b61102061100660c08801611072565b6001600160801b03166001600160801b03195f5416175f55565b610f49565b34610208575f3660031901126102085760206040516001600160a01b037f0000000000000000000000000000000000000000000000000000000000000000168152f35b35610276816103a8565b35610276816103b2565b634e487b7160e01b5f52601160045260245ffd5b600160ff1b81146110a0575f0390565b61107c565b356102768161030c565b903590601e1981360301821215610208570180359067ffffffffffffffff82116102085760200191813603831361020857565b604051606091906110f383826102ca565b6002815291601f1901366020840137565b9061110e8261057a565b61111b60405191826102ca565b828152809261112c601f199161057a565b0190602036910137565b600f0b6f7fffffffffffffffffffffffffffffff1981146110a0575f0390565b634e487b7160e01b5f52603260045260245ffd5b8051156111775760200190565b611156565b8051600110156111775760400190565b80518210156111775760209160051b010190565b610140608061027693602084526111f86020850182516001600160a01b036080809282815116855282602082015116602086015262ffffff6040820151166040860152606081015160020b6060860152015116910152565b6020810151151560c08501526001600160801b0360408201511660e08501526001600160a01b03606082015116610100850152015191610120808201520190610241565b6020818303126102085780519067ffffffffffffffff8211610208570181601f8201121561020857805190611270826103d9565b9261127e60405194856102ca565b8284526020838301011161020857815f9260208093018386015e8301015290565b6040513d5f823e3d90fd5b3d156112d4573d906112bb826103d9565b916112c960405193846102ca565b82523d5f602084013e565b606090565b6060905f906113205f6101e361130682946040519283916302a00c2560e01b6020840152602483016111a0565b604051809381926348c8949160e01b835260048301610265565b0381836001600160a01b037f0000000000000000000000000000000000000000000000000000000000000000165af1908161137a575b506113755750505061136e6113696112aa565b611e7c565b9192909190565b909192565b611395903d805f833e61138d81836102ca565b81019061123c565b611356565b6020815260808101916001600160a01b03815116602083015260208101519260606040840152835180915260a0830190602060a08260051b8601019501915f905b828210611401575050505090606060406102769301519101906001600160801b03169052565b90919295602080611467600193609f198a820301865260a060808c516001600160a01b03815116845262ffffff868201511686850152604081015160020b60408501526001600160a01b0360608201511660608501520151918160808201520190610241565b9801920192019092916113db565b6060906060906114a45f6101e361130660609460405192839163aa2f150160e01b60208401526024830161139a565b0381836001600160a01b037f0000000000000000000000000000000000000000000000000000000000000000165af190816114f2575b506113755750505061136e6114ed6112aa565b611f38565b611505903d805f833e61138d81836102ca565b6114da565b906060915f806115355f60405163ceebece760e01b6020820152611306816101e388602483016111a0565b0381836001600160a01b037f0000000000000000000000000000000000000000000000000000000000000000165af190816115b9575b506115b457505061136e9192506001600160a01b0361159c606061158d6112aa565b9301516001600160a01b031690565b16611e7c576113696001600160801b03195f54165f55565b915091565b6115cc903d805f833e61138d81836102ca565b61156b565b903590601e1981360301821215610208570180359067ffffffffffffffff821161020857602001918160051b3603831361020857565b90600182018092116110a057565b60405190610100820182811067ffffffffffffffff8211176102a9576040525f60e0838281528260208201528260408201528260608201528260808201528260a08201528260c08201520152565b91908110156111775760051b81013590609e1981360301821215610208570190565b90600f0b90600f0b01906f7fffffffffffffffffffffffffffffff1982126f7fffffffffffffffffffffffffffffff8313176110a057565b906001600160a01b037f00000000000000000000000000000000000000000000000000000000000000001633036116f75761027691612119565b63570c108560e11b5f5260045ffd5b80156110a0575f190190565b5f198101919082116110a057565b6060906060906114a45f6101e3611306606094604051928391631a8da8e360e21b60208401526024830161139a565b90816020910312610208575190565b60209060246117756001600160a01b03959461215e565b6040519586938492631e2eaeaf60e01b84526004840152165afa9182156117f4575f926117c3575b506001600160a01b038216918060a01c60020b9162ffffff808360b81c169260d01c1690565b6117e691925060203d6020116117ed575b6117de81836102ca565b81019061174f565b905f61179d565b503d6117d4565b61129f565b926001600160a01b03604086946118518761014099966001600160a01b036080809282815116855282602082015116602086015262ffffff6040820151166040860152606081015160020b6060860152015116910152565b8051151560a0880152602081015160c088015201511660e085015261012061010085015281610120850152848401375f828201840152601f01601f1916010190565b926020909594957f0000000000000000000000000000000000000000000000000000000000000000936118eb6118c9855f612184565b6118d16102ec565b861515815292838601526001600160a01b03166040830152565b61190a6040519889938493633cf3645360e21b855289600486016117f9565b03815f6001600160a01b0387165af19485156117f4575f9561199f575b50846001600160801b036119425f546001600160801b031690565b16908115159283611977575b5050506119685760a061196292209061175e565b50509091565b637294b85560e11b5f5260045ffd5b6001600160801b039293505f1461199757600f0b5b1614155f808061194e565b60801d61198c565b6119b991955060203d6020116117ed576117de81836102ca565b935f611927565b93602091929695966118eb6118c9857f000000000000000000000000000000000000000000000000000000000000000097612184565b6040519060c0820182811067ffffffffffffffff8211176102a9576040525f60a0838281528260208201528260408201528260608201528260808201520152565b634e487b7160e01b5f52601260045260245ffd5b60020b9060020b908115611a6d57627fffff1981145f198314166110a0570590565b611a37565b9060020b908115611a6d5760020b0790565b60ff1660ff039060ff82116110a057565b9063ffffffff8091169116019063ffffffff82116110a057565b60010b617fff81146110a05760010190565b63ffffffff5f199116019063ffffffff82116110a057565b93909192935f93611ae86119f6565b956060850191611b1a611b14611b08611b02865160020b90565b84611a4b565b60020b60081d60020b90565b60010b90565b90611b51611b4b611b43611b38611b32885160020b90565b85611a4b565b6101009060020b0790565b62ffffff1690565b60ff1690565b611b6b611b14611b08611b65885160020b90565b87611a4b565b92611b89611b4b611b43611b38611b838a5160020b90565b89611a4b565b92611b988560a08c208a6121be565b600160ff86161b1615159586611de3575b8c87611dd2575b60a0611bc0910197889015159052565b611bce8360a08d208b6121be565b600160ff86161b1615159788611db6575b5087611da4575b5050611bf860808c0196879015159052565b8a8460010b8260010b90808212918215611d84575b505015611d6357611c4092611c2c611c4a9693611c36939060010b9052565b60ff1660408d0152565b60010b60208b0152565b60ff166060890152565b949092945b611c6a611c60604089015160ff1690565b60ff5f1991161b90565b9160208801925b885160010b611c84611b14865160010b90565b9060010b818113611d2057611cd093928b611cca93611cc39314611cf6575b611cbd90611cb660a08d20915160010b90565b908a6121be565b1661225b565b61ffff1690565b90611a95565b95611cee611ce7611ce28a5160010b90565b611aaf565b60010b8952565b955f19611c71565b611d0f611d0a6060611d1993015160ff1690565b611a84565b60ff5f1991161c90565b168b611ca3565b505050959650915050611d3591925051151590565b611d4e575b5115155b611d455790565b61027690611ac1565b90611d5b611d3e91611ac1565b919050611d3a565b611c409293611c2c611d7b96611c36939060010b9052565b94909294611c4f565b14905080611d94575b5f80611c0d565b5060ff841660ff84161115611d8d565b600290810b91900b1295505f80611be6565b51909750611dc79060020b82611a72565b60020b15965f611bdf565b600282810b9084900b139750611bb0565b9550611df9611df3885160020b90565b87611a72565b60020b1595611ba9565b9080601f8301121561020857815190611e1b8261057a565b92611e2960405194856102ca565b82845260208085019360051b82010191821161020857602001915b818310611e515750505090565b825180600f0b810361020857815260209283019201611e44565b519063ffffffff8216820361020857565b611e859061228c565b8051810160608282031261020857602082015167ffffffffffffffff811161020857602080611eb8930191840101611e03565b906113756060604083015192611ecd8461030c565b01611e6b565b9080601f83011215610208578151611eea8161057a565b92611ef860405194856102ca565b81845260208085019260051b82010192831161020857602001905b828210611f205750505090565b60208091611f2d84611e6b565b815201910190611f13565b611f419061228c565b805181016060826020830192031261020857602082015167ffffffffffffffff811161020857816020611f7692850101611e03565b91604081015167ffffffffffffffff81116102085781019180603f8401121561020857602083015192611fa88461057a565b93611fb660405195866102ca565b8085526020808087019260051b840101019183831161020857604001905b8282106120005750505060608201519167ffffffffffffffff8311610208576113759201602001611ed3565b60208091835161200f8161030c565b815201910190611fd4565b356102768161031d565b356102768161032a565b905f608060405161203e8161028d565b828152826020820152826040820152826060820152015261205e826110a5565b906001600160a01b0380831690821610156120fd57906120fa906120ea60015b946120e061208e6020830161201a565b6120d46120a960606120a260408701612024565b95016110a5565b956120c46120b56102fd565b6001600160a01b03909a168a52565b6001600160a01b03166020890152565b62ffffff166040870152565b60020b6060850152565b6001600160a01b03166080830152565b91565b6001600160a01b03918216916120fa91166120ea81841461207e565b5f9182918160405192839283378101838152039082305af19061213a6112aa565b916102fb575080511561214f57602081519101fd5b6314815f4760e31b5f5260045ffd5b60405160208101918252600660408201526040815261217e6060826102ca565b51902090565b6001600160a01b0381166121b95750156121a1576401000276a490565b73fffd8963efd1fc6a506488495d951d5263988d2590565b905090565b91906121c99061215e565b600581018091116110a0576001600160a01b03926020926101e361220861222c946040519283918883019560010b869091604092825260208201520190565b519020604051948580948193631e2eaeaf60e01b8352600483019190602083019252565b0392165afa9081156117f4575f91612242575090565b610276915060203d6020116117ed576117de81836102ca565b805f915b612267575090565b9061ffff1661ffff81146110a057600101905f198101908082116110a057168061225f565b60c08151106122985790565b6040516306190b2b60e41b8152602060048201529081906122bd906024830190610241565b0390fdfea26469706673582212201836c137a2c4aa4f02a3b1943824db6856b18840d459e06e97a98a5243fbc9b464736f6c634300081a0033","linkReferences":{}},"methodIdentifiers":{"_quoteExactInput((address,(address,uint24,int24,address,bytes)[],uint128))":"6a36a38c","_quoteExactInputSingle(((address,address,uint24,int24,address),bool,uint128,uint160,bytes))":"02a00c25","_quoteExactOutput((address,(address,uint24,int24,address,bytes)[],uint128))":"aa2f1501","_quoteExactOutputSingle(((address,address,uint24,int24,address),bool,uint128,uint160,bytes))":"ceebece7","poolManager()":"dc4c90d3","quoteExactInput((address,(address,uint24,int24,address,bytes)[],uint128))":"ca253dc9","quoteExactInputSingle(((address,address,uint24,int24,address),bool,uint128,uint160,bytes))":"11359648","quoteExactOutput((address,(address,uint24,int24,address,bytes)[],uint128))":"147d2af9","quoteExactOutputSingle(((address,address,uint24,int24,address),bool,uint128,uint160,bytes))":"54b20ff6","unlockCallback(bytes)":"91dd7346"},"id":110}