{"abi":[{"type":"function","name":"deposit","inputs":[{"name":"payee","type":"address","internalType":"address"}],"outputs":[],"stateMutability":"payable"},{"type":"function","name":"depositsOf","inputs":[{"name":"payee","type":"address","internalType":"address"}],"outputs":[{"name":"","type":"uint256","internalType":"uint256"}],"stateMutability":"view"},{"type":"function","name":"owner","inputs":[],"outputs":[{"name":"","type":"address","internalType":"address"}],"stateMutability":"view"},{"type":"function","name":"renounceOwnership","inputs":[],"outputs":[],"stateMutability":"nonpayable"},{"type":"function","name":"setAllowed","inputs":[{"name":"payee","type":"address","internalType":"address"},{"name":"allowed","type":"bool","internalType":"bool"}],"outputs":[],"stateMutability":"nonpayable"},{"type":"function","name":"transferOwnership","inputs":[{"name":"newOwner","type":"address","internalType":"address"}],"outputs":[],"stateMutability":"nonpayable"},{"type":"function","name":"withdraw","inputs":[{"name":"payee","type":"address","internalType":"address payable"}],"outputs":[],"stateMutability":"nonpayable"},{"type":"function","name":"withdrawalAllowed","inputs":[{"name":"payee","type":"address","internalType":"address"}],"outputs":[{"name":"","type":"bool","internalType":"bool"}],"stateMutability":"view"},{"type":"event","name":"Deposited","inputs":[{"name":"payee","type":"address","indexed":true,"internalType":"address"},{"name":"weiAmount","type":"uint256","indexed":false,"internalType":"uint256"}],"anonymous":false},{"type":"event","name":"OwnershipTransferred","inputs":[{"name":"previousOwner","type":"address","indexed":true,"internalType":"address"},{"name":"newOwner","type":"address","indexed":true,"internalType":"address"}],"anonymous":false},{"type":"event","name":"Withdrawn","inputs":[{"name":"payee","type":"address","indexed":true,"internalType":"address"},{"name":"weiAmount","type":"uint256","indexed":false,"internalType":"uint256"}],"anonymous":false}],"bytecode":{"object":"0x608080604052346059575f8054336001600160a01b0319821681178355916001600160a01b03909116907f8be0079c531659141344cd1fd0a4f28419497f9722a3daafe3b4186f6b6457e09080a36105f6908161005e8239f35b5f80fdfe60806040526004361015610011575f80fd5b5f3560e01c80634697f05d1461051357806351cff8d9146102f3578063685ca194146102b6578063715018a6146102455780638da5cb5b14610220578063e3a9db1a146101e8578063f2fde38b146100fa5763f340fa0114610071575f80fd5b60203660031901126100f6576001600160a01b0361008d61055f565b61009b825f54163314610575565b16805f52600160205260405f208054903482018092116100e257557f2da466a7b24304f47e87fa2e1e5a81b9831ce54fec19055ce277ca2f39ba42c46020604051348152a2005b634e487b7160e01b5f52601160045260245ffd5b5f80fd5b346100f65760203660031901126100f6576001600160a01b0361011b61055f565b610129825f54163314610575565b16801561017d576001600160a01b035f548273ffffffffffffffffffffffffffffffffffffffff198216175f55167f8be0079c531659141344cd1fd0a4f28419497f9722a3daafe3b4186f6b6457e05f80a3005b60405162461bcd60e51b815260206004820152602660248201527f4f776e61626c653a206e6577206f776e657220697320746865207a65726f206160448201527f64647265737300000000000000000000000000000000000000000000000000006064820152608490fd5b346100f65760203660031901126100f6576001600160a01b0361020961055f565b165f526001602052602060405f2054604051908152f35b346100f6575f3660031901126100f65760206001600160a01b035f5416604051908152f35b346100f6575f3660031901126100f65761026a6001600160a01b035f54163314610575565b5f6001600160a01b03815473ffffffffffffffffffffffffffffffffffffffff1981168355167f8be0079c531659141344cd1fd0a4f28419497f9722a3daafe3b4186f6b6457e08280a3005b346100f65760203660031901126100f6576001600160a01b036102d761055f565b165f526002602052602060ff60405f2054166040519015158152f35b346100f65760203660031901126100f6576004356001600160a01b0381168091036100f657805f52600260205260ff60405f205416156104a8576103426001600160a01b035f54163314610575565b5f8181526001602052604081208054919055478111610463575f80808084865af13d1561045e573d67ffffffffffffffff811161044a5760405190601f8101601f19908116603f0116820167ffffffffffffffff81118382101761044a5760405281525f60203d92013e5b156103df5760207f7084f5476618d8e60b11ef0d7d3f06914655adb8793e28ff7f018d4c76d505d591604051908152a2005b60405162461bcd60e51b815260206004820152603a60248201527f416464726573733a20756e61626c6520746f2073656e642076616c75652c207260448201527f6563697069656e74206d617920686176652072657665727465640000000000006064820152608490fd5b634e487b7160e01b5f52604160045260245ffd5b6103ad565b60405162461bcd60e51b815260206004820152601d60248201527f416464726573733a20696e73756666696369656e742062616c616e63650000006044820152606490fd5b60405162461bcd60e51b815260206004820152603360248201527f436f6e646974696f6e616c457363726f773a207061796565206973206e6f742060448201527f616c6c6f77656420746f207769746864726177000000000000000000000000006064820152608490fd5b346100f65760403660031901126100f65761052c61055f565b602435908115158092036100f6576001600160a01b03165f52600260205260405f209060ff801983541691161790555f80f35b600435906001600160a01b03821682036100f657565b1561057c57565b606460405162461bcd60e51b815260206004820152602060248201527f4f776e61626c653a2063616c6c6572206973206e6f7420746865206f776e65726044820152fdfea26469706673582212203e3ebace01ade7ec475346cb02de28bfd7e785e626db27605d9cd2d361adcd9c64736f6c634300081a0033","linkReferences":{}},"methodIdentifiers":{"deposit(address)":"f340fa01","depositsOf(address)":"e3a9db1a","owner()":"8da5cb5b","renounceOwnership()":"715018a6","setAllowed(address,bool)":"4697f05d","transferOwnership(address)":"f2fde38b","withdraw(address)":"51cff8d9","withdrawalAllowed(address)":"685ca194"},"id":152}