{"abi":[{"type":"function","name":"onFlashLoan","inputs":[{"name":"","type":"address","internalType":"address"},{"name":"token","type":"address","internalType":"address"},{"name":"amount","type":"uint256","internalType":"uint256"},{"name":"fee","type":"uint256","internalType":"uint256"},{"name":"data","type":"bytes","internalType":"bytes"}],"outputs":[{"name":"","type":"bytes32","internalType":"bytes32"}],"stateMutability":"nonpayable"},{"type":"event","name":"BalanceOf","inputs":[{"name":"token","type":"address","indexed":false,"internalType":"address"},{"name":"account","type":"address","indexed":false,"internalType":"address"},{"name":"value","type":"uint256","indexed":false,"internalType":"uint256"}],"anonymous":false},{"type":"event","name":"TotalSupply","inputs":[{"name":"token","type":"address","indexed":false,"internalType":"address"},{"name":"value","type":"uint256","indexed":false,"internalType":"uint256"}],"anonymous":false}],"bytecode":{"object":"0x6080806040523460155761057b908161001a8239f35b5f80fdfe60806040526004361015610011575f80fd5b5f3560e01c6323e30c8b14610024575f80fd5b346100b15760a03660031901126100b15761003d6100b5565b506100466100cb565b604435906064356084359167ffffffffffffffff83116100b157366023840112156100b15782600401359167ffffffffffffffff83116100b15736602484860101116100b1576100ad94602461009d9501926101c8565b6040519081529081906020820190565b0390f35b5f80fd5b600435906001600160a01b03821682036100b157565b602435906001600160a01b03821682036100b157565b156100b157565b634e487b7160e01b5f52604160045260245ffd5b90601f8019910116810190811067ffffffffffffffff82111761011e57604052565b6100e8565b908160209103126100b1575190565b6040513d5f823e3d90fd5b67ffffffffffffffff811161011e57601f01601f191660200190565b9291926101658261013d565b9161017360405193846100fc565b8294818452818301116100b1578281602093845f960137010152565b9190820180921161019c57565b634e487b7160e01b5f52601160045260245ffd5b908160209103126100b1575180151581036100b15790565b91929390936001600160a01b038316916101e38333146100e1565b6040516370a0823160e01b8152306004820152602081602481875afa9081156103ab577f6ff2acfcb07917b1e80e53f0fe390b467b1151d15b38730a6e08397799c05a8b9161025b915f916103fc575b50604080516001600160a01b0389168152306020820152908101919091529081906060820190565b0390a16040516318160ddd60e01b8152602081600481875afa9081156103ab577f7249fd4c03cce09b30a13d77804b198e2647c0ccd59eadf4de4e7c16099badc5916102ca915f916103cd575b50604080516001600160a01b0389168152602081019290925290918291820190565b0390a1806103b0575b50505f5460101c60ff16610322575b505050506102f55f5460ff9060181c1690565b1561031e577f439148f0bbc682ca079e46d6e2c2f0c1e3b820f1a291b069d8882abf8cf18dd990565b5f90565b6103316020936103659561018f565b60405163095ea7b360e01b81526001600160a01b0390931660048401526024830152909283919082905f9082906044820190565b03925af180156103ab5761037c575b8080806102e2565b61039d9060203d6020116103a4575b61039581836100fc565b8101906101b0565b505f610374565b503d61038b565b610132565b6103c5916103bf913691610159565b8361041b565b505f806102d3565b6103ef915060203d6020116103f5575b6103e781836100fc565b810190610123565b5f6102a8565b503d6103dd565b610415915060203d6020116103f5576103e781836100fc565b5f610233565b906040519061042b6040836100fc565b601e82527f416464726573733a206c6f772d6c6576656c2063616c6c206661696c656400006020830152823b156104a5575f8161049a948260208195519301915af13d1561049d573d9061047e8261013d565b9161048c60405193846100fc565b82523d5f602084013e6104ea565b90565b6060906104ea565b60405162461bcd60e51b815260206004820152601d60248201527f416464726573733a2063616c6c20746f206e6f6e2d636f6e74726163740000006044820152606490fd5b909190156104f6575090565b8151156105065750805190602001fd5b604460209160405192839162461bcd60e51b83528160048401528051918291826024860152018484015e5f828201840152601f01601f19168101030190fdfea26469706673582212201ee76dcc4aeb22ea95dbaebc72f8027d4671462906d2b1f06b100d9f72aa5e9364736f6c634300081a0033","linkReferences":{}},"methodIdentifiers":{"onFlashLoan(address,address,uint256,uint256,bytes)":"23e30c8b"},"id":353}