{"abi":[{"type":"constructor","inputs":[{"name":"name","type":"string","internalType":"string"},{"name":"symbol","type":"string","internalType":"string"}],"stateMutability":"payable"},{"type":"function","name":"approve","inputs":[{"name":"to","type":"address","internalType":"address"},{"name":"tokenId","type":"uint256","internalType":"uint256"}],"outputs":[],"stateMutability":"nonpayable"},{"type":"function","name":"balanceOf","inputs":[{"name":"owner","type":"address","internalType":"address"}],"outputs":[{"name":"","type":"uint256","internalType":"uint256"}],"stateMutability":"view"},{"type":"function","name":"baseURI","inputs":[],"outputs":[{"name":"","type":"string","internalType":"string"}],"stateMutability":"view"},{"type":"function","name":"burn","inputs":[{"name":"tokenId","type":"uint256","internalType":"uint256"}],"outputs":[],"stateMutability":"nonpayable"},{"type":"function","name":"exists","inputs":[{"name":"tokenId","type":"uint256","internalType":"uint256"}],"outputs":[{"name":"","type":"bool","internalType":"bool"}],"stateMutability":"view"},{"type":"function","name":"getApproved","inputs":[{"name":"tokenId","type":"uint256","internalType":"uint256"}],"outputs":[{"name":"","type":"address","internalType":"address"}],"stateMutability":"view"},{"type":"function","name":"isApprovedForAll","inputs":[{"name":"owner","type":"address","internalType":"address"},{"name":"operator","type":"address","internalType":"address"}],"outputs":[{"name":"","type":"bool","internalType":"bool"}],"stateMutability":"view"},{"type":"function","name":"mint","inputs":[{"name":"to","type":"address","internalType":"address"},{"name":"tokenId","type":"uint256","internalType":"uint256"}],"outputs":[],"stateMutability":"nonpayable"},{"type":"function","name":"name","inputs":[],"outputs":[{"name":"","type":"string","internalType":"string"}],"stateMutability":"view"},{"type":"function","name":"ownerOf","inputs":[{"name":"tokenId","type":"uint256","internalType":"uint256"}],"outputs":[{"name":"","type":"address","internalType":"address"}],"stateMutability":"view"},{"type":"function","name":"safeMint","inputs":[{"name":"to","type":"address","internalType":"address"},{"name":"tokenId","type":"uint256","internalType":"uint256"},{"name":"_data","type":"bytes","internalType":"bytes"}],"outputs":[],"stateMutability":"nonpayable"},{"type":"function","name":"safeMint","inputs":[{"name":"to","type":"address","internalType":"address"},{"name":"tokenId","type":"uint256","internalType":"uint256"}],"outputs":[],"stateMutability":"nonpayable"},{"type":"function","name":"safeTransferFrom","inputs":[{"name":"from","type":"address","internalType":"address"},{"name":"to","type":"address","internalType":"address"},{"name":"tokenId","type":"uint256","internalType":"uint256"}],"outputs":[],"stateMutability":"nonpayable"},{"type":"function","name":"safeTransferFrom","inputs":[{"name":"from","type":"address","internalType":"address"},{"name":"to","type":"address","internalType":"address"},{"name":"tokenId","type":"uint256","internalType":"uint256"},{"name":"_data","type":"bytes","internalType":"bytes"}],"outputs":[],"stateMutability":"nonpayable"},{"type":"function","name":"setApprovalForAll","inputs":[{"name":"operator","type":"address","internalType":"address"},{"name":"approved","type":"bool","internalType":"bool"}],"outputs":[],"stateMutability":"nonpayable"},{"type":"function","name":"setBaseURI","inputs":[{"name":"newBaseTokenURI","type":"string","internalType":"string"}],"outputs":[],"stateMutability":"nonpayable"},{"type":"function","name":"supportsInterface","inputs":[{"name":"interfaceId","type":"bytes4","internalType":"bytes4"}],"outputs":[{"name":"","type":"bool","internalType":"bool"}],"stateMutability":"view"},{"type":"function","name":"symbol","inputs":[],"outputs":[{"name":"","type":"string","internalType":"string"}],"stateMutability":"view"},{"type":"function","name":"tokenByIndex","inputs":[{"name":"index","type":"uint256","internalType":"uint256"}],"outputs":[{"name":"","type":"uint256","internalType":"uint256"}],"stateMutability":"view"},{"type":"function","name":"tokenOfOwnerByIndex","inputs":[{"name":"owner","type":"address","internalType":"address"},{"name":"index","type":"uint256","internalType":"uint256"}],"outputs":[{"name":"","type":"uint256","internalType":"uint256"}],"stateMutability":"view"},{"type":"function","name":"tokenURI","inputs":[{"name":"tokenId","type":"uint256","internalType":"uint256"}],"outputs":[{"name":"","type":"string","internalType":"string"}],"stateMutability":"view"},{"type":"function","name":"totalSupply","inputs":[],"outputs":[{"name":"","type":"uint256","internalType":"uint256"}],"stateMutability":"view"},{"type":"function","name":"transferFrom","inputs":[{"name":"from","type":"address","internalType":"address"},{"name":"to","type":"address","internalType":"address"},{"name":"tokenId","type":"uint256","internalType":"uint256"}],"outputs":[],"stateMutability":"nonpayable"},{"type":"event","name":"Approval","inputs":[{"name":"owner","type":"address","indexed":true,"internalType":"address"},{"name":"approved","type":"address","indexed":true,"internalType":"address"},{"name":"tokenId","type":"uint256","indexed":true,"internalType":"uint256"}],"anonymous":false},{"type":"event","name":"ApprovalForAll","inputs":[{"name":"owner","type":"address","indexed":true,"internalType":"address"},{"name":"operator","type":"address","indexed":true,"internalType":"address"},{"name":"approved","type":"bool","indexed":false,"internalType":"bool"}],"anonymous":false},{"type":"event","name":"Transfer","inputs":[{"name":"from","type":"address","indexed":true,"internalType":"address"},{"name":"to","type":"address","indexed":true,"internalType":"address"},{"name":"tokenId","type":"uint256","indexed":true,"internalType":"uint256"}],"anonymous":false}],"bytecode":{"object":"0x608060405261230b80380380610014816103dc565b9283398101906040818303126103d85780516001600160401b0381116103d85782610040918301610401565b60208201519092906001600160401b0381116103d8576100609201610401565b5f5460ff8160081c169081158092816103cd575b61007d90610452565b6103bb575b5061008b6104b5565b6100936104b5565b5f5460ff8160081c169081158092816103b0575b6100b090610452565b61039e575b5083516001600160401b0381116102af57606554600181811c91168015610394575b602082101461029157601f8111610331575b50602094601f82116001146102ce579481929394955f926102c3575b50508160011b915f199060031b1c1916176065555b82516001600160401b0381116102af57606654600181811c911680156102a5575b602082101461029157601f811161022e575b506020601f82116001146101cb57819293945f926101c0575b50508160011b915f199060031b1c1916176066555b6101b2575b6101886104b5565b6101906104b5565b6101a4575b604051611e0490816105078239f35b61ff00195f54165f55610195565b61ff00195f54165f55610180565b015190505f80610166565b601f1982169060665f52805f20915f5b818110610216575095836001959697106101fe575b505050811b0160665561017b565b01515f1960f88460031b161c191690555f80806101f0565b9192602060018192868b0151815501940192016101db565b60665f527f46501879b8ca8525e8c2fd519e2fbfcfa2ebea26501294aa02cbfcfb12e94354601f830160051c81019160208410610287575b601f0160051c01905b81811061027c575061014d565b5f815560010161026f565b9091508190610266565b634e487b7160e01b5f52602260045260245ffd5b90607f169061013b565b634e487b7160e01b5f52604160045260245ffd5b015190505f80610105565b601f1982169560655f52805f20915f5b88811061031957508360019596979810610301575b505050811b0160655561011a565b01515f1960f88460031b161c191690555f80806102f3565b919260206001819286850151815501940192016102de565b60655f527f8ff97419363ffd7000167f130ef7168fbea05faf9251824ca5043f113cc6a7c7601f830160051c8101916020841061038a575b601f0160051c01905b81811061037f57506100e9565b5f8155600101610372565b9091508190610369565b90607f16906100d7565b61ffff1916610101175f9081556100b5565b5060ff8216156100a7565b61ffff1916610101175f908155610082565b5060ff821615610074565b5f80fd5b6040519190601f01601f191682016001600160401b038111838210176102af57604052565b81601f820112156103d8578051906001600160401b0382116102af57610430601f8301601f19166020016103dc565b92828452602083830101116103d857815f9260208093018386015e8301015290565b1561045957565b60405162461bcd60e51b815260206004820152602e60248201527f496e697469616c697a61626c653a20636f6e747261637420697320616c72656160448201526d191e481a5b9a5d1a585b1a5e995960921b6064820152608490fd5b5f5460ff8160081c169081158092816104fb575b6104d290610452565b6104e9575b506104de57565b61ff00195f54165f55565b61ffff1916610101175f9081556104d7565b5060ff8216156104c956fe60806040526004361015610011575f80fd5b5f3560e01c806301ffc9a71461018457806306fdde031461017f578063081812fc1461017a578063095ea7b31461017557806318160ddd1461017057806323b872dd1461016b5780632f745c591461016657806340c10f191461016157806342842e0e1461015c57806342966c68146101575780634f558e79146101525780634f6ccce71461014d57806355f804b3146101485780636352211e146101435780636c0360eb1461013e57806370a08231146101395780638832e6e31461013457806395d89b411461012f578063a14481941461012a578063a22cb46514610125578063b88d4fde14610120578063c87b56dd1461011b5763e985e9c514610116575f80fd5b610d85565b610c88565b610c39565b610b50565b610b12565b610a6d565b610a13565b610950565b610921565b610903565b6107cf565b610714565b6106d7565b61063c565b610613565b6105ee565b610523565b6104fa565b6104a3565b6103ad565b610352565b610278565b6101b7565b7fffffffff000000000000000000000000000000000000000000000000000000008116036101b357565b5f80fd5b346101b35760203660031901126101b3576004356101d481610189565b63ffffffff60e01b1663780e9d6360e01b81149081156101fd575b506040519015158152602090f35b6380ac58cd60e01b81149150811561022f575b811561021e575b505f6101ef565b6301ffc9a760e01b1490505f610217565b635b5e139f60e01b81149150610210565b805180835260209291819084018484015e5f828201840152601f01601f1916010190565b906020610275928181520190610240565b90565b346101b3575f3660031901126101b3576040515f60655461029881610de3565b808452906001811690811561032e57506001146102d0575b6102cc836102c08185038261098f565b60405191829182610264565b0390f35b60655f9081527f8ff97419363ffd7000167f130ef7168fbea05faf9251824ca5043f113cc6a7c7939250905b808210610314575090915081016020016102c06102b0565b9192600181602092548385880101520191019092916102fc565b60ff191660208086019190915291151560051b840190910191506102c090506102b0565b346101b35760203660031901126101b3576020610370600435610ed2565b6001600160a01b0360405191168152f35b600435906001600160a01b03821682036101b357565b602435906001600160a01b03821682036101b357565b346101b35760403660031901126101b3576103c6610381565b6024356103d2816110c3565b916001600160a01b038316806001600160a01b038316146104545761040a9361040591331490811561040c575b50610f67565b611261565b005b61044e91506104479061043133916001600160a01b03165f52606a60205260405f2090565b906001600160a01b03165f5260205260405f2090565b5460ff1690565b5f6103ff565b60405162461bcd60e51b815260206004820152602160248201527f4552433732313a20617070726f76616c20746f2063757272656e74206f776e656044820152603960f91b6064820152608490fd5b346101b3575f3660031901126101b3576020609954604051908152f35b60609060031901126101b3576004356001600160a01b03811681036101b357906024356001600160a01b03811681036101b3579060443590565b346101b35761040a61050b366104c0565b9161051e61051984336112c8565b610fd9565b611452565b346101b35760403660031901126101b35761053c610381565b602435906105498161114c565b821015610583576001600160a01b03165f52609760205260405f20905f526020526102cc60405f2054604051918291829190602083019252565b60405162461bcd60e51b815260206004820152602b60248201527f455243373231456e756d657261626c653a206f776e657220696e646578206f7560448201527f74206f6620626f756e64730000000000000000000000000000000000000000006064820152608490fd5b346101b35760403660031901126101b35761040a61060a610381565b602435906115aa565b346101b35761040a610624366104c0565b906040519261063460208561098f565b5f84526111d5565b346101b35760203660031901126101b3576004356001600160a01b03610661826110c3565b61066b838261186a565b6106748361120e565b16805f52606860205260405f209081545f1981019081116106d2575f92558282526067602052604082206001600160a01b031981541690557fddf252ad1be2c89b69c2b068fc378daa952ba7f163c4a11628f55a4df523b3ef8280a4005b611414565b346101b35760203660031901126101b357602061070a6004355f5260676020526001600160a01b0360405f205416151590565b6040519015158152f35b346101b35760203660031901126101b3576004356099548110156107645760995f527f72a152ddfb8e864297c917af52ea6c1c68aead0fee1a62673fcc7e0c94979d000154604051908152602090f35b60405162461bcd60e51b815260206004820152602c60248201527f455243373231456e756d657261626c653a20676c6f62616c20696e646578206f60448201527f7574206f6620626f756e647300000000000000000000000000000000000000006064820152608490fd5b346101b35760203660031901126101b35760043567ffffffffffffffff81116101b357366023820112156101b35780600401359067ffffffffffffffff82116101b35736602483830101116101b3576024019067ffffffffffffffff81116108fe576108458161084060c954610de3565b611073565b5f601f8211600114610882578190610872935f92610877575b50508160011b915f199060031b1c19161790565b60c955005b013590505f8061085e565b60c95f52601f198216927f66be4f155c5ef2ebd3772b228f2f00681e4ed5826cdb3b1943cc11ad15ad1d28915f5b8581106108e6575083600195106108cd575b505050811b0160c955005b01355f19600384901b60f8161c191690555f80806108c2565b909260206001819286860135815501940191016108b0565b61097b565b346101b35760203660031901126101b35760206103706004356110c3565b346101b3575f3660031901126101b3576102cc61093c610e1b565b604051918291602083526020830190610240565b346101b35760203660031901126101b357602061097361096e610381565b61114c565b604051908152f35b634e487b7160e01b5f52604160045260245ffd5b90601f8019910116810190811067ffffffffffffffff8211176108fe57604052565b67ffffffffffffffff81116108fe57601f01601f191660200190565b81601f820112156101b3578035906109e4826109b1565b926109f2604051948561098f565b828452602083830101116101b357815f926020809301838601378301015290565b346101b35760603660031901126101b357610a2c610381565b602435906044359067ffffffffffffffff82116101b35761040a92610a58610a689336906004016109cd565b91610a6382826115aa565b611ada565b6116d4565b346101b3575f3660031901126101b3576040515f606654610a8d81610de3565b808452906001811690811561032e5750600114610ab4576102cc836102c08185038261098f565b60665f9081527f46501879b8ca8525e8c2fd519e2fbfcfa2ebea26501294aa02cbfcfb12e94354939250905b808210610af8575090915081016020016102c06102b0565b919260018160209254838588010152019101909291610ae0565b346101b35760403660031901126101b35761040a610a68610b31610381565b60243560405191610b4360208461098f565b5f8352610a6382826115aa565b346101b35760403660031901126101b357610b69610381565b60243580151581036101b3576001600160a01b03821691338314610bf45781610bb1610bc292335f52606a60205260405f20906001600160a01b03165f5260205260405f2090565b9060ff801983541691151516179055565b604051901515815233907f17307eab39ab6107e8899845ad3d59bd9653f200f220920489ca2b5937696c3190602090a3005b60405162461bcd60e51b815260206004820152601960248201527f4552433732313a20617070726f766520746f2063616c6c6572000000000000006044820152606490fd5b346101b35760803660031901126101b357610c52610381565b610c5a610397565b906044356064359267ffffffffffffffff84116101b357610c8261040a9436906004016109cd565b926111d5565b346101b35760203660031901126101b357600435610cba815f5260676020526001600160a01b0360405f205416151590565b15610d1a57610cc7610e1b565b805115610d08576102c0610cf491610cfa610ce46102cc9561179c565b60405194859360208501906111fc565b906111fc565b03601f19810183528261098f565b50506102cc610d1561104b565b6102c0565b60405162461bcd60e51b815260206004820152602f60248201527f4552433732314d657461646174613a2055524920717565727920666f72206e6f60448201527f6e6578697374656e7420746f6b656e00000000000000000000000000000000006064820152608490fd5b346101b35760403660031901126101b357602060ff610dd7610da5610381565b6001600160a01b03610db5610397565b91165f52606a845260405f20906001600160a01b03165f5260205260405f2090565b54166040519015158152f35b90600182811c92168015610e11575b6020831014610dfd57565b634e487b7160e01b5f52602260045260245ffd5b91607f1691610df2565b604051905f8260c95491610e2e83610de3565b8083529260018116908115610eb35750600114610e54575b610e529250038361098f565b565b5060c95f90815290917f66be4f155c5ef2ebd3772b228f2f00681e4ed5826cdb3b1943cc11ad15ad1d285b818310610e97575050906020610e5292820101610e46565b6020919350806001915483858901015201910190918492610e7f565b60209250610e5294915060ff191682840152151560051b820101610e46565b610ef0815f5260676020526001600160a01b0360405f205416151590565b15610f0d575f5260696020526001600160a01b0360405f20541690565b60405162461bcd60e51b815260206004820152602c60248201527f4552433732313a20617070726f76656420717565727920666f72206e6f6e657860448201526b34b9ba32b73a103a37b5b2b760a11b6064820152608490fd5b15610f6e57565b60405162461bcd60e51b815260206004820152603860248201527f4552433732313a20617070726f76652063616c6c6572206973206e6f74206f7760448201527f6e6572206e6f7220617070726f76656420666f7220616c6c00000000000000006064820152608490fd5b15610fe057565b60405162461bcd60e51b815260206004820152603160248201527f4552433732313a207472616e736665722063616c6c6572206973206e6f74206f60448201527f776e6572206e6f7220617070726f7665640000000000000000000000000000006064820152608490fd5b6040519061105a60208361098f565b5f8252565b634e487b7160e01b5f52603260045260245ffd5b601f811161107f575050565b60c95f5260205f20906020601f840160051c830193106110b9575b601f0160051c01905b8181106110ae575050565b5f81556001016110a3565b909150819061109a565b5f5260676020526001600160a01b0360405f20541680156110e15790565b60405162461bcd60e51b815260206004820152602960248201527f4552433732313a206f776e657220717565727920666f72206e6f6e657869737460448201527f656e7420746f6b656e00000000000000000000000000000000000000000000006064820152608490fd5b6001600160a01b0316801561116a575f52606860205260405f205490565b60405162461bcd60e51b815260206004820152602a60248201527f4552433732313a2062616c616e636520717565727920666f7220746865207a6560448201527f726f2061646472657373000000000000000000000000000000000000000000006064820152608490fd5b91610e529391610a68936111ec61051984336112c8565b6111f7838383611452565b611c09565b805191908290602001825e015f815290565b805f52606960205260405f206001600160a01b031981541690555f6001600160a01b0361123a836110c3565b167f8c5be1e5ebec7d5bd14f71427d1e84f3dd0314c0f7b2291e5b200ac8c7c3b9258280a4565b815f52606960205261128c8160405f20906001600160a01b03166001600160a01b0319825416179055565b6001600160a01b038061129e846110c3565b169116907f8c5be1e5ebec7d5bd14f71427d1e84f3dd0314c0f7b2291e5b200ac8c7c3b9255f80a4565b6112e6825f5260676020526001600160a01b0360405f205416151590565b15611362576112f4826110c3565b6001600160a01b0382166001600160a01b0382168114938415611343575b5050821561131f57505090565b610275925090610431610447926001600160a01b03165f52606a60205260405f2090565b6001600160a01b039192945061135890610ed2565b1614915f80611312565b60405162461bcd60e51b815260206004820152602c60248201527f4552433732313a206f70657261746f7220717565727920666f72206e6f6e657860448201526b34b9ba32b73a103a37b5b2b760a11b6064820152608490fd5b156113c357565b60405162461bcd60e51b8152602060048201526024808201527f4552433732313a207472616e7366657220746f20746865207a65726f206164646044820152637265737360e01b6064820152608490fd5b634e487b7160e01b5f52601160045260245ffd5b5f198101919082116106d257565b90600182018092116106d257565b60300190816030116106d257565b906001600160a01b0390611465846110c3565b828416928391160361153f57806114b96001600160a01b0361151993169461148e8615156113bc565b611499878483611981565b6114a28761120e565b6001600160a01b03165f52606860205260405f2090565b6114c38154611428565b90556114e0816001600160a01b03165f52606860205260405f2090565b6114ea8154611436565b90556114fe855f52606760205260405f2090565b906001600160a01b03166001600160a01b0319825416179055565b7fddf252ad1be2c89b69c2b068fc378daa952ba7f163c4a11628f55a4df523b3ef5f80a4565b60405162461bcd60e51b815260206004820152602960248201527f4552433732313a207472616e73666572206f6620746f6b656e2074686174206960448201527f73206e6f74206f776e00000000000000000000000000000000000000000000006064820152608490fd5b6001600160a01b038116908115611690576115d9835f5260676020526001600160a01b0360405f205416151590565b61164b57806115eb8461162493611956565b611606816001600160a01b03165f52606860205260405f2090565b6116108154611436565b90556114fe845f52606760205260405f2090565b5f7fddf252ad1be2c89b69c2b068fc378daa952ba7f163c4a11628f55a4df523b3ef8180a4565b60405162461bcd60e51b815260206004820152601c60248201527f4552433732313a20746f6b656e20616c7265616479206d696e746564000000006044820152606490fd5b606460405162461bcd60e51b815260206004820152602060248201527f4552433732313a206d696e7420746f20746865207a65726f20616464726573736044820152fd5b156116db57565b60405162461bcd60e51b815260206004820152603260248201527f4552433732313a207472616e7366657220746f206e6f6e20455243373231526560448201527f63656976657220696d706c656d656e74657200000000000000000000000000006064820152608490fd5b5f1981146106d25760010190565b9061175e826109b1565b61176b604051918261098f565b828152809261177c601f19916109b1565b0190602036910137565b908151811015611797570160200190565b61105f565b908115611849575f82805b61182a5750806117b78492611754565b915b6117c257509150565b6117ce61182391611428565b9361180f6117e76117e1600a8406611444565b60ff1690565b60f81b7fff000000000000000000000000000000000000000000000000000000000000001690565b5f1a61181b8685611786565b53600a900490565b92836117b9565b929061183861184091611746565b93600a900490565b809391936117a7565b905060405161185960408261098f565b60018152600360fc1b602082015290565b906001600160a01b0382168061188e5750610e52915061188981611c4a565b611cdf565b6118978361114c565b5f198101939084116106d257610e52936118f3611900925f948686526098602052604086205490848203611906575b5050846118db875f52609860205260405f2090565b556001600160a01b03165f52609760205260405f2090565b905f5260205260405f2090565b55611cdf565b865260976020526040862084875260205261194e60408720548061193f846118f3876001600160a01b03165f52609760205260405f2090565b555f52609860205260405f2090565b555f806118c6565b9061196081611c4a565b6001600160a01b03821661197857610e529150611cdf565b610e5291611ca6565b9091906001600160a01b03811690816119c2575061199e82611c4a565b6001600160a01b038316806119b9575050610e529150611cdf565b03611978575050565b6001600160a01b03841682036119d9575b5061199e565b6119e28161114c565b5f198101919082116106d2575f916118f3611a209286855260986020526040852054838103611a27575b50846118db885f52609860205260405f2090565b555f6119d3565b868652609760205260408620848752602052611a6160408720548061193f846118f3876001600160a01b03165f52609760205260405f2090565b555f611a0c565b908160209103126101b3575161027581610189565b90926001600160a01b0360809381610275979616845216602083015260408201528160608201520190610240565b3d15611ad5573d90611abc826109b1565b91611aca604051938461098f565b82523d5f602084013e565b606090565b91823b15611c0157611b10926020925f6001600160a01b03604051809781968295630a85bd0160e11b8452853360048601611a7d565b0393165af15f9181611bd0575b50611ba257611b2a611aab565b80519081611b9d5760405162461bcd60e51b815260206004820152603260248201527f4552433732313a207472616e7366657220746f206e6f6e20455243373231526560448201527f63656976657220696d706c656d656e74657200000000000000000000000000006064820152608490fd5b602001fd5b7fffffffff0000000000000000000000000000000000000000000000000000000016630a85bd0160e11b1490565b611bf391925060203d602011611bfa575b611beb818361098f565b810190611a68565b905f611b1d565b503d611be1565b505050600190565b919290803b15611c4157611b10935f6001600160a01b0360209560405197889687958693630a85bd0160e11b85523360048601611a7d565b50505050600190565b609954815f52609a6020528060405f2055680100000000000000008110156108fe57600181016099556099548110156117975760995f527f72a152ddfb8e864297c917af52ea6c1c68aead0fee1a62673fcc7e0c94979d000155565b906001600160a01b03611cb88361114c565b92165f52609760205260405f20825f526020528060405f20555f52609860205260405f2055565b6099545f198101918183116106d257805f52609a6020528160405f20549310156117975760995f527f72a152ddfb8e864297c917af52ea6c1c68aead0fee1a62673fcc7e0c94979cff82015491831015611797577f72a152ddfb8e864297c917af52ea6c1c68aead0fee1a62673fcc7e0c94979d0083018290555f918252609a6020526040808320939093558152908120556099548015611dba575f198101906099548210156117975760995f8181527f72a152ddfb8e864297c917af52ea6c1c68aead0fee1a62673fcc7e0c94979cff9092019190915555565b634e487b7160e01b5f52603160045260245ffdfea26469706673582212202da09874eff06ba504deb5d91bb391d93580f1539bab6ba8734c30d09059b27e64736f6c634300081a0033","linkReferences":{}},"methodIdentifiers":{"approve(address,uint256)":"095ea7b3","balanceOf(address)":"70a08231","baseURI()":"6c0360eb","burn(uint256)":"42966c68","exists(uint256)":"4f558e79","getApproved(uint256)":"081812fc","isApprovedForAll(address,address)":"e985e9c5","mint(address,uint256)":"40c10f19","name()":"06fdde03","ownerOf(uint256)":"6352211e","safeMint(address,uint256)":"a1448194","safeMint(address,uint256,bytes)":"8832e6e3","safeTransferFrom(address,address,uint256)":"42842e0e","safeTransferFrom(address,address,uint256,bytes)":"b88d4fde","setApprovalForAll(address,bool)":"a22cb465","setBaseURI(string)":"55f804b3","supportsInterface(bytes4)":"01ffc9a7","symbol()":"95d89b41","tokenByIndex(uint256)":"4f6ccce7","tokenOfOwnerByIndex(address,uint256)":"2f745c59","tokenURI(uint256)":"c87b56dd","totalSupply()":"18160ddd","transferFrom(address,address,uint256)":"23b872dd"},"id":386}