{"abi":[{"type":"constructor","inputs":[{"name":"name","type":"string","internalType":"string"},{"name":"symbol","type":"string","internalType":"string"},{"name":"baseTokenURI","type":"string","internalType":"string"}],"stateMutability":"payable"},{"type":"function","name":"DEFAULT_ADMIN_ROLE","inputs":[],"outputs":[{"name":"","type":"bytes32","internalType":"bytes32"}],"stateMutability":"view"},{"type":"function","name":"MINTER_ROLE","inputs":[],"outputs":[{"name":"","type":"bytes32","internalType":"bytes32"}],"stateMutability":"view"},{"type":"function","name":"PAUSER_ROLE","inputs":[],"outputs":[{"name":"","type":"bytes32","internalType":"bytes32"}],"stateMutability":"view"},{"type":"function","name":"approve","inputs":[{"name":"to","type":"address","internalType":"address"},{"name":"tokenId","type":"uint256","internalType":"uint256"}],"outputs":[],"stateMutability":"nonpayable"},{"type":"function","name":"balanceOf","inputs":[{"name":"owner","type":"address","internalType":"address"}],"outputs":[{"name":"","type":"uint256","internalType":"uint256"}],"stateMutability":"view"},{"type":"function","name":"burn","inputs":[{"name":"tokenId","type":"uint256","internalType":"uint256"}],"outputs":[],"stateMutability":"nonpayable"},{"type":"function","name":"getApproved","inputs":[{"name":"tokenId","type":"uint256","internalType":"uint256"}],"outputs":[{"name":"","type":"address","internalType":"address"}],"stateMutability":"view"},{"type":"function","name":"getRoleAdmin","inputs":[{"name":"role","type":"bytes32","internalType":"bytes32"}],"outputs":[{"name":"","type":"bytes32","internalType":"bytes32"}],"stateMutability":"view"},{"type":"function","name":"getRoleMember","inputs":[{"name":"role","type":"bytes32","internalType":"bytes32"},{"name":"index","type":"uint256","internalType":"uint256"}],"outputs":[{"name":"","type":"address","internalType":"address"}],"stateMutability":"view"},{"type":"function","name":"getRoleMemberCount","inputs":[{"name":"role","type":"bytes32","internalType":"bytes32"}],"outputs":[{"name":"","type":"uint256","internalType":"uint256"}],"stateMutability":"view"},{"type":"function","name":"grantRole","inputs":[{"name":"role","type":"bytes32","internalType":"bytes32"},{"name":"account","type":"address","internalType":"address"}],"outputs":[],"stateMutability":"nonpayable"},{"type":"function","name":"hasRole","inputs":[{"name":"role","type":"bytes32","internalType":"bytes32"},{"name":"account","type":"address","internalType":"address"}],"outputs":[{"name":"","type":"bool","internalType":"bool"}],"stateMutability":"view"},{"type":"function","name":"initialize","inputs":[{"name":"name","type":"string","internalType":"string"},{"name":"symbol","type":"string","internalType":"string"},{"name":"baseTokenURI","type":"string","internalType":"string"}],"outputs":[],"stateMutability":"nonpayable"},{"type":"function","name":"isApprovedForAll","inputs":[{"name":"owner","type":"address","internalType":"address"},{"name":"operator","type":"address","internalType":"address"}],"outputs":[{"name":"","type":"bool","internalType":"bool"}],"stateMutability":"view"},{"type":"function","name":"mint","inputs":[{"name":"to","type":"address","internalType":"address"}],"outputs":[],"stateMutability":"nonpayable"},{"type":"function","name":"name","inputs":[],"outputs":[{"name":"","type":"string","internalType":"string"}],"stateMutability":"view"},{"type":"function","name":"ownerOf","inputs":[{"name":"tokenId","type":"uint256","internalType":"uint256"}],"outputs":[{"name":"","type":"address","internalType":"address"}],"stateMutability":"view"},{"type":"function","name":"pause","inputs":[],"outputs":[],"stateMutability":"nonpayable"},{"type":"function","name":"paused","inputs":[],"outputs":[{"name":"","type":"bool","internalType":"bool"}],"stateMutability":"view"},{"type":"function","name":"renounceRole","inputs":[{"name":"role","type":"bytes32","internalType":"bytes32"},{"name":"account","type":"address","internalType":"address"}],"outputs":[],"stateMutability":"nonpayable"},{"type":"function","name":"revokeRole","inputs":[{"name":"role","type":"bytes32","internalType":"bytes32"},{"name":"account","type":"address","internalType":"address"}],"outputs":[],"stateMutability":"nonpayable"},{"type":"function","name":"safeTransferFrom","inputs":[{"name":"from","type":"address","internalType":"address"},{"name":"to","type":"address","internalType":"address"},{"name":"tokenId","type":"uint256","internalType":"uint256"}],"outputs":[],"stateMutability":"nonpayable"},{"type":"function","name":"safeTransferFrom","inputs":[{"name":"from","type":"address","internalType":"address"},{"name":"to","type":"address","internalType":"address"},{"name":"tokenId","type":"uint256","internalType":"uint256"},{"name":"_data","type":"bytes","internalType":"bytes"}],"outputs":[],"stateMutability":"nonpayable"},{"type":"function","name":"setApprovalForAll","inputs":[{"name":"operator","type":"address","internalType":"address"},{"name":"approved","type":"bool","internalType":"bool"}],"outputs":[],"stateMutability":"nonpayable"},{"type":"function","name":"supportsInterface","inputs":[{"name":"interfaceId","type":"bytes4","internalType":"bytes4"}],"outputs":[{"name":"","type":"bool","internalType":"bool"}],"stateMutability":"view"},{"type":"function","name":"symbol","inputs":[],"outputs":[{"name":"","type":"string","internalType":"string"}],"stateMutability":"view"},{"type":"function","name":"tokenByIndex","inputs":[{"name":"index","type":"uint256","internalType":"uint256"}],"outputs":[{"name":"","type":"uint256","internalType":"uint256"}],"stateMutability":"view"},{"type":"function","name":"tokenOfOwnerByIndex","inputs":[{"name":"owner","type":"address","internalType":"address"},{"name":"index","type":"uint256","internalType":"uint256"}],"outputs":[{"name":"","type":"uint256","internalType":"uint256"}],"stateMutability":"view"},{"type":"function","name":"tokenURI","inputs":[{"name":"tokenId","type":"uint256","internalType":"uint256"}],"outputs":[{"name":"","type":"string","internalType":"string"}],"stateMutability":"view"},{"type":"function","name":"totalSupply","inputs":[],"outputs":[{"name":"","type":"uint256","internalType":"uint256"}],"stateMutability":"view"},{"type":"function","name":"transferFrom","inputs":[{"name":"from","type":"address","internalType":"address"},{"name":"to","type":"address","internalType":"address"},{"name":"tokenId","type":"uint256","internalType":"uint256"}],"outputs":[],"stateMutability":"nonpayable"},{"type":"function","name":"unpause","inputs":[],"outputs":[],"stateMutability":"nonpayable"},{"type":"event","name":"Approval","inputs":[{"name":"owner","type":"address","indexed":true,"internalType":"address"},{"name":"approved","type":"address","indexed":true,"internalType":"address"},{"name":"tokenId","type":"uint256","indexed":true,"internalType":"uint256"}],"anonymous":false},{"type":"event","name":"ApprovalForAll","inputs":[{"name":"owner","type":"address","indexed":true,"internalType":"address"},{"name":"operator","type":"address","indexed":true,"internalType":"address"},{"name":"approved","type":"bool","indexed":false,"internalType":"bool"}],"anonymous":false},{"type":"event","name":"Paused","inputs":[{"name":"account","type":"address","indexed":false,"internalType":"address"}],"anonymous":false},{"type":"event","name":"RoleAdminChanged","inputs":[{"name":"role","type":"bytes32","indexed":true,"internalType":"bytes32"},{"name":"previousAdminRole","type":"bytes32","indexed":true,"internalType":"bytes32"},{"name":"newAdminRole","type":"bytes32","indexed":true,"internalType":"bytes32"}],"anonymous":false},{"type":"event","name":"RoleGranted","inputs":[{"name":"role","type":"bytes32","indexed":true,"internalType":"bytes32"},{"name":"account","type":"address","indexed":true,"internalType":"address"},{"name":"sender","type":"address","indexed":true,"internalType":"address"}],"anonymous":false},{"type":"event","name":"RoleRevoked","inputs":[{"name":"role","type":"bytes32","indexed":true,"internalType":"bytes32"},{"name":"account","type":"address","indexed":true,"internalType":"address"},{"name":"sender","type":"address","indexed":true,"internalType":"address"}],"anonymous":false},{"type":"event","name":"Transfer","inputs":[{"name":"from","type":"address","indexed":true,"internalType":"address"},{"name":"to","type":"address","indexed":true,"internalType":"address"},{"name":"tokenId","type":"uint256","indexed":true,"internalType":"uint256"}],"anonymous":false},{"type":"event","name":"Unpaused","inputs":[{"name":"account","type":"address","indexed":false,"internalType":"address"}],"anonymous":false}],"bytecode":{"object":"0x6080604052613d61803803806100148161080f565b92833981019060608183031261080b5780516001600160401b03811161080b5782610040918301610834565b60208201519091906001600160401b03811161080b5783610062918301610834565b60408201519093906001600160401b03811161080b576100829201610834565b905f549060ff8260081c16918215809381610800575b6100a190610885565b6107ee575b506100af6108e8565b6100b76108e8565b6100bf6108e8565b6100c76108e8565b5f549060ff8260081c169182158093816107e3575b6100e590610885565b6107d1575b508051906001600160401b0382116105a35760c95490600182811c921680156107c7575b60208310146105855781601f849311610759575b50602090601f83116001146106f3575f926106e8575b50508160011b915f199060031b1c19161760c9555b83516001600160401b0381116105a35760ca54600181811c911680156106de575b602082101461058557601f811161067b575b50602094601f8211600114610618579481929394955f9261060d575b50508160011b915f199060031b1c19161760ca555b6105ff575b6101be6108e8565b6101c66108e8565b5f5460ff8160081c169081158092816105f4575b6101e390610885565b6105e2575b5060ff1961015f541661015f556105d4575b6102026108e8565b5f5460ff8160081c169081158092816105c9575b61021f90610885565b6105b7575b5082516001600160401b0381116105a3576101c454600181811c91168015610599575b602082101461058557601f8111610521575b506020601f82116001146104bc57819293945f926104b1575b50508160011b915f199060031b1c1916176101c4555b335f9081525f80516020613cc1833981519152602052604090205460ff1615610474575b5f805260976020526102de337f683723e34a772b6e4f2c919bba7fa32ed8ea11a8325f54da7db716e9d9dd98c7610939565b50335f9081525f80516020613ce1833981519152602052604090205460ff1615610428575b5f80516020613d218339815191525f526097602052610342337f81bcdf06b56c0ed62a68a6ae231e66722c27e6665c84ec0015693a6d86f2bb93610939565b50335f9081525f80516020613d41833981519152602052604090205460ff16156103dc575b5f80516020613d018339815191525f5260976020526103a6337f793844da0378ca0230b21a4013ef02cf55735b90b39c85241478ff94b5eceb28610939565b506103ce575b6103c0575b6040516132f790816109aa8239f35b61ff00195f54165f556103b1565b61ff00195f54165f556103ac565b335f8181525f80516020613d4183398151915260205260408120805460ff1916600117905581905f80516020613d01833981519152905f80516020613ca18339815191529080a4610367565b335f8181525f80516020613ce183398151915260205260408120805460ff1916600117905581905f80516020613d21833981519152905f80516020613ca18339815191529080a4610303565b335f8181525f80516020613cc183398151915260205260408120805460ff1916600117905581905f80516020613ca18339815191528180a46102ac565b015190505f80610272565b601f198216906101c45f52805f20915f5b818110610509575095836001959697106104f1575b505050811b016101c455610288565b01515f1960f88460031b161c191690555f80806104e2565b9192602060018192868b0151815501940192016104cd565b6101c45f527f5ac35dca7c3a7d5ae9d0add1efdc4aa02e10dd5cac0b90d2122cf0f0cc68317f601f830160051c8101916020841061057b575b601f0160051c01905b8181106105705750610259565b5f8155600101610563565b909150819061055a565b634e487b7160e01b5f52602260045260245ffd5b90607f1690610247565b634e487b7160e01b5f52604160045260245ffd5b61ffff1916610101175f908155610224565b5060ff821615610216565b61ff00195f54165f556101fa565b61ffff1916610101175f9081556101e8565b5060ff8216156101da565b61ff00195f54165f556101b6565b015190505f8061019c565b601f1982169560ca5f52805f20915f5b8881106106635750836001959697981061064b575b505050811b0160ca556101b1565b01515f1960f88460031b161c191690555f808061063d565b91926020600181928685015181550194019201610628565b60ca5f527f42d72674974f694b5f5159593243114d38a5c39c89d6b62fee061ff523240ee1601f830160051c810191602084106106d4575b601f0160051c01905b8181106106c95750610180565b5f81556001016106bc565b90915081906106b3565b90607f169061016e565b015190505f80610138565b60c95f9081528281209350601f198516905b8181106107415750908460019594939210610729575b505050811b0160c95561014d565b01515f1960f88460031b161c191690555f808061071b565b92936020600181928786015181550195019301610705565b60c95f529091507f66be4f155c5ef2ebd3772b228f2f00681e4ed5826cdb3b1943cc11ad15ad1d28601f840160051c810191602085106107bd575b90601f859493920160051c01905b8181106107af5750610122565b5f81558493506001016107a2565b9091508190610794565b91607f169161010e565b61ffff1916610101175f9081556100ea565b5060ff8216156100dc565b61ffff1916610101175f9081556100a6565b5060ff821615610098565b5f80fd5b6040519190601f01601f191682016001600160401b038111838210176105a357604052565b81601f8201121561080b578051906001600160401b0382116105a357610863601f8301601f191660200161080f565b928284526020838301011161080b57815f9260208093018386015e8301015290565b1561088c57565b60405162461bcd60e51b815260206004820152602e60248201527f496e697469616c697a61626c653a20636f6e747261637420697320616c72656160448201526d191e481a5b9a5d1a585b1a5e995960921b6064820152608490fd5b5f5460ff8160081c1690811580928161092e575b61090590610885565b61091c575b5061091157565b61ff00195f54165f55565b61ffff1916610101175f90815561090a565b5060ff8216156108fc565b6001810190825f528160205260405f2054155f146109a2578054680100000000000000008110156105a3576001810180835581101561098e578390825f5260205f20015554915f5260205260405f2055600190565b634e487b7160e01b5f52603260045260245ffd5b5050505f9056fe60806040526004361015610011575f80fd5b5f3560e01c806301ffc9a71461021457806306fdde031461020f578063081812fc1461020a578063095ea7b31461020557806318160ddd1461020057806323b872dd146101fb578063248a9ca3146101f65780632f2ff15d146101f15780632f745c59146101ec57806336568abe146101e75780633f4ba83a146101e257806342842e0e146101dd57806342966c68146101d85780634f6ccce7146101d35780635c975abb146101ce5780636352211e146101c95780636a627842146101c457806370a08231146101bf5780638456cb59146101ba5780639010d07c146101b557806391d14854146101b057806395d89b41146101ab578063a217fddf146101a6578063a22cb465146101a1578063a6487c531461019c578063b88d4fde14610197578063c87b56dd14610192578063ca15c8731461018d578063d539139314610188578063d547741f14610183578063e63ab1e91461017e5763e985e9c514610179575f80fd5b61154e565b611514565b6114b6565b61147c565b611452565b611355565b6112f5565b611226565b611095565b61107b565b610fd6565b610f86565b610f42565b610e08565b610de5565b610d0e565b610cf0565b610ccd565b610c12565b6109f7565b6109ce565b610898565b6107e1565b610716565b610622565b6105ef565b6105c6565b61056f565b610479565b61041e565b610348565b610247565b7fffffffff0000000000000000000000000000000000000000000000000000000081160361024357565b5f80fd5b346102435760203660031901126102435761029560043561026781610219565b63ffffffff60e01b1663780e9d6360e01b8114908115610299575b5060405190151581529081906020820190565b0390f35b6380ac58cd60e01b8114915081156102ff575b81156102ba575b505f610282565b635a05180f60e01b8114915081156102d4575b505f6102b3565b637965db0b60e01b8114915081156102ee575b505f6102cd565b6301ffc9a760e01b1490505f6102e7565b635b5e139f60e01b811491506102ac565b805180835260209291819084018484015e5f828201840152601f01601f1916010190565b906020610345928181520190610310565b90565b34610243575f366003190112610243576040515f60c954610368816115a0565b80845290600181169081156103fa575060011461039c575b6102958361039081850382611192565b60405191829182610334565b91905060c95f527f66be4f155c5ef2ebd3772b228f2f00681e4ed5826cdb3b1943cc11ad15ad1d28915f905b8082106103e057509091508101602001610390610380565b9192600181602092548385880101520191019092916103c8565b60ff191660208086019190915291151560051b840190910191506103909050610380565b3461024357602036600319011261024357602061043c600435611691565b6001600160a01b0360405191168152f35b600435906001600160a01b038216820361024357565b602435906001600160a01b038216820361024357565b346102435760403660031901126102435761049261044d565b60243561049e8161184c565b916001600160a01b038316806001600160a01b03831614610520576104d6936104d19133149081156104d8575b50611726565b611acf565b005b61051a9150610513906104fd33916001600160a01b03165f5260ce60205260405f2090565b906001600160a01b03165f5260205260405f2090565b5460ff1690565b5f6104cb565b60405162461bcd60e51b815260206004820152602160248201527f4552433732313a20617070726f76616c20746f2063757272656e74206f776e656044820152603960f91b6064820152608490fd5b34610243575f36600319011261024357602060fd54604051908152f35b6060906003190112610243576004356001600160a01b038116810361024357906024356001600160a01b0381168103610243579060443590565b34610243576104d66105d73661058c565b916105ea6105e58433611b36565b611798565b611cce565b3461024357602036600319011261024357602061061a6004355f526065602052600160405f20015490565b604051908152f35b34610243576040366003190112610243576104d66004356106a2610644610463565b9161066561065e825f526065602052600160405f20015490565b3390612270565b805f52606560205260ff61068d8460405f20906001600160a01b03165f5260205260405f2090565b5416156106a7575f52609760205260405f2090565b611e0f565b805f5260656020526106cd8360405f20906001600160a01b03165f5260205260405f2090565b805460ff19166001179055336001600160a01b038416827f2f8788117e7eff1d82e926ec794901d17c78024a50270940304540a733656f0d5f80a45f52609760205260405f2090565b346102435760403660031901126102435761072f61044d565b6024359061073c816118d5565b821015610776576001600160a01b03165f5260fb60205260405f20905f5260205261029560405f2054604051918291829190602083019252565b60405162461bcd60e51b815260206004820152602b60248201527f455243373231456e756d657261626c653a206f776e657220696e646578206f7560448201527f74206f6620626f756e64730000000000000000000000000000000000000000006064820152608490fd5b34610243576040366003190112610243576004356107fd610463565b906001600160a01b0382169033820361082d5761081d6104d69382612461565b5f52609760205260405f2061253b565b60405162461bcd60e51b815260206004820152602f60248201527f416363657373436f6e74726f6c3a2063616e206f6e6c792072656e6f756e636560448201527f20726f6c657320666f722073656c6600000000000000000000000000000000006064820152608490fd5b34610243575f36600319011261024357335f9081527fbfe93621c6aa2dbf737e9056c9b79e4d30ee4f6b28b18be2cb71aac8a7bf258e602052604090205460ff16156109645761015f5460ff81161561091f5760ff191661015f557f5db9ee0a495bf2e6ff9c91a7834c1ba4fdd244a5e8aa4e537bd38aeae4b073aa6020604051338152a1005b60405162461bcd60e51b815260206004820152601460248201527f5061757361626c653a206e6f74207061757365640000000000000000000000006044820152606490fd5b608460405162461bcd60e51b815260206004820152604060248201527f4552433732315072657365744d696e7465725061757365724175746f49643a2060448201527f6d75737420686176652070617573657220726f6c6520746f20756e70617573656064820152fd5b34610243576104d66109df3661058c565b90604051926109ef602085611192565b5f84526119d0565b3461024357602036600319011261024357600435610a158133611b36565b15610ba757610a238161184c565b6001600160a01b03811680610adc57610a855f92610a4085613151565b610a49856131e6565b610a65610a60610a5c61015f5460ff1690565b1590565b612b32565b610a6e85611a7c565b6001600160a01b03165f5260cc60205260405f2090565b610a8f8154611c96565b9055610ab6610aa6845f5260cb60205260405f2090565b6001600160a01b03198154169055565b7fddf252ad1be2c89b69c2b068fc378daa952ba7f163c4a11628f55a4df523b3ef8280a4005b610ae5826118d5565b5f198101908111610ba2575f9283610b4c610a859387835260fc6020526040832054818103610b52575b5082610b23895f5260fc60205260405f2090565b55610b3f846001600160a01b03165f5260fb60205260405f2090565b905f5260205260405f2090565b55610a40565b86845260fb60205260408420828552602052610b9b604085205480610b8c84610b3f8a6001600160a01b03165f5260fb60205260405f2090565b555f5260fc60205260405f2090565b555f610b0f565b611c82565b60405162461bcd60e51b815260206004820152603060248201527f4552433732314275726e61626c653a2063616c6c6572206973206e6f74206f7760448201527f6e6572206e6f7220617070726f766564000000000000000000000000000000006064820152608490fd5b346102435760203660031901126102435760043560fd54811015610c625760fd5f527f9346ac6dd7de6b96975fec380d4d994c4c12e6a8897544f22915316cc6cca2800154604051908152602090f35b60405162461bcd60e51b815260206004820152602c60248201527f455243373231456e756d657261626c653a20676c6f62616c20696e646578206f60448201527f7574206f6620626f756e647300000000000000000000000000000000000000006064820152608490fd5b34610243575f36600319011261024357602060ff61015f54166040519015158152f35b3461024357602036600319011261024357602061043c60043561184c565b3461024357602036600319011261024357610d2761044d565b335f9081527fa0f6cebec7fb889cc5ac88647269c4c0108fb926abd2111b551f234b348876df602052604090205460ff1615610d7a576101c354610d6a91611e22565b6104d660016101c354016101c355565b60405162461bcd60e51b815260206004820152603d60248201527f4552433732315072657365744d696e7465725061757365724175746f49643a2060448201527f6d7573742068617665206d696e74657220726f6c6520746f206d696e740000006064820152608490fd5b3461024357602036600319011261024357602061061a610e0361044d565b6118d5565b34610243575f36600319011261024357335f9081527fbfe93621c6aa2dbf737e9056c9b79e4d30ee4f6b28b18be2cb71aac8a7bf258e602052604090205460ff1615610ed75761015f5460ff8116610e925760019060ff19161761015f557f62e78cea01bee320cd4e420270b5ea74000d11b0c9f74754ebdbfc544b05a2586020604051338152a1005b60405162461bcd60e51b815260206004820152601060248201527f5061757361626c653a20706175736564000000000000000000000000000000006044820152606490fd5b60405162461bcd60e51b815260206004820152603e60248201527f4552433732315072657365744d696e7465725061757365724175746f49643a2060448201527f6d75737420686176652070617573657220726f6c6520746f20706175736500006064820152608490fd5b346102435760403660031901126102435760206001600160a01b03610f76600435602435905f526097845260405f20611832565b90549060031b1c16604051908152f35b3461024357604036600319011261024357602060ff610fca600435610fa9610463565b905f526065845260405f20906001600160a01b03165f5260205260405f2090565b54166040519015158152f35b34610243575f366003190112610243576040515f60ca54610ff6816115a0565b80845290600181169081156103fa575060011461101d576102958361039081850382611192565b91905060ca5f527f42d72674974f694b5f5159593243114d38a5c39c89d6b62fee061ff523240ee1915f905b80821061106157509091508101602001610390610380565b919260018160209254838588010152019101909291611049565b34610243575f3660031901126102435760206040515f8152f35b34610243576040366003190112610243576110ae61044d565b6024358015158103610243576001600160a01b0382169133831461113957816110f661110792335f5260ce60205260405f20906001600160a01b03165f5260205260405f2090565b9060ff801983541691151516179055565b604051901515815233907f17307eab39ab6107e8899845ad3d59bd9653f200f220920489ca2b5937696c3190602090a3005b60405162461bcd60e51b815260206004820152601960248201527f4552433732313a20617070726f766520746f2063616c6c6572000000000000006044820152606490fd5b634e487b7160e01b5f52604160045260245ffd5b90601f8019910116810190811067ffffffffffffffff8211176111b457604052565b61117e565b67ffffffffffffffff81116111b457601f01601f191660200190565b9291926111e1826111b9565b916111ef6040519384611192565b829481845281830111610243578281602093845f960137010152565b9080601f8301121561024357816020610345933591016111d5565b346102435760603660031901126102435760043567ffffffffffffffff81116102435761125790369060040161120b565b60243567ffffffffffffffff81116102435761127790369060040161120b565b6044359067ffffffffffffffff82116102435761129b6112c592369060040161120b565b905f549360ff8560081c169485158096816112ea575b6112ba9061195e565b6112d9575b50611f4c565b6112cb57005b6104d661ff00195f54165f55565b61ffff1916610101175f555f6112bf565b5060ff8216156112b1565b346102435760803660031901126102435761130e61044d565b611316610463565b906044356064359267ffffffffffffffff841161024357366023850112156102435761134f6104d69436906024816004013591016111d5565b926119d0565b3461024357602036600319011261024357600435611387815f5260cb6020526001600160a01b0360405f205416151590565b156113e7576113946115d8565b8051156113d5576103906113c1916113c76113b1610295956121a2565b6040519485936020850190611a6a565b90611a6a565b03601f198101835282611192565b50506102956113e261180a565b610390565b60405162461bcd60e51b815260206004820152602f60248201527f4552433732314d657461646174613a2055524920717565727920666f72206e6f60448201527f6e6578697374656e7420746f6b656e00000000000000000000000000000000006064820152608490fd5b34610243576020366003190112610243576004355f526097602052602060405f2054604051908152f35b34610243575f3660031901126102435760206040517f9f2df0fed2c77648de5860a4cc508cd0818c85b8b8a1ab4ceeef8d981c8956a68152f35b34610243576040366003190112610243576104d66004356114d5610463565b906114ef61065e825f526065602052600160405f20015490565b6114f98282612461565b5f5260976020526001600160a01b0360405f2091169061253b565b34610243575f3660031901126102435760206040517f65d7a28e3265b37a6474929f336521b332c1681b933f6cb9f3376673440d862a8152f35b3461024357604036600319011261024357602060ff610fca61156e61044d565b6001600160a01b0361157e610463565b91165f5260ce845260405f20906001600160a01b03165f5260205260405f2090565b90600182811c921680156115ce575b60208310146115ba57565b634e487b7160e01b5f52602260045260245ffd5b91607f16916115af565b604051905f826101c454916115ec836115a0565b80835292600181169081156116725750600114611612575b61161092500383611192565b565b506101c45f90815290917f5ac35dca7c3a7d5ae9d0add1efdc4aa02e10dd5cac0b90d2122cf0f0cc68317f5b81831061165657505090602061161092820101611604565b602091935080600191548385890101520191019091849261163e565b6020925061161094915060ff191682840152151560051b820101611604565b6116af815f5260cb6020526001600160a01b0360405f205416151590565b156116cc575f5260cd6020526001600160a01b0360405f20541690565b60405162461bcd60e51b815260206004820152602c60248201527f4552433732313a20617070726f76656420717565727920666f72206e6f6e657860448201526b34b9ba32b73a103a37b5b2b760a11b6064820152608490fd5b1561172d57565b60405162461bcd60e51b815260206004820152603860248201527f4552433732313a20617070726f76652063616c6c6572206973206e6f74206f7760448201527f6e6572206e6f7220617070726f76656420666f7220616c6c00000000000000006064820152608490fd5b1561179f57565b60405162461bcd60e51b815260206004820152603160248201527f4552433732313a207472616e736665722063616c6c6572206973206e6f74206f60448201527f776e6572206e6f7220617070726f7665640000000000000000000000000000006064820152608490fd5b60405190611819602083611192565b5f8252565b634e487b7160e01b5f52603260045260245ffd5b8054821015611847575f5260205f2001905f90565b61181e565b5f5260cb6020526001600160a01b0360405f205416801561186a5790565b60405162461bcd60e51b815260206004820152602960248201527f4552433732313a206f776e657220717565727920666f72206e6f6e657869737460448201527f656e7420746f6b656e00000000000000000000000000000000000000000000006064820152608490fd5b6001600160a01b031680156118f3575f5260cc60205260405f205490565b60405162461bcd60e51b815260206004820152602a60248201527f4552433732313a2062616c616e636520717565727920666f7220746865207a6560448201527f726f2061646472657373000000000000000000000000000000000000000000006064820152608490fd5b1561196557565b60405162461bcd60e51b815260206004820152602e60248201527f496e697469616c697a61626c653a20636f6e747261637420697320616c72656160448201527f647920696e697469616c697a65640000000000000000000000000000000000006064820152608490fd5b906119f49392916119e46105e58433611b36565b6119ef838383611cce565b612a00565b156119fb57565b60405162461bcd60e51b815260206004820152603260248201527f4552433732313a207472616e7366657220746f206e6f6e20455243373231526560448201527f63656976657220696d706c656d656e74657200000000000000000000000000006064820152608490fd5b0390fd5b805191908290602001825e015f815290565b805f5260cd60205260405f206001600160a01b031981541690555f6001600160a01b03611aa88361184c565b167f8c5be1e5ebec7d5bd14f71427d1e84f3dd0314c0f7b2291e5b200ac8c7c3b9258280a4565b815f5260cd602052611afa8160405f20906001600160a01b03166001600160a01b0319825416179055565b6001600160a01b0380611b0c8461184c565b169116907f8c5be1e5ebec7d5bd14f71427d1e84f3dd0314c0f7b2291e5b200ac8c7c3b9255f80a4565b611b54825f5260cb6020526001600160a01b0360405f205416151590565b15611bd057611b628261184c565b6001600160a01b0382166001600160a01b0382168114938415611bb1575b50508215611b8d57505090565b6103459250906104fd610513926001600160a01b03165f5260ce60205260405f2090565b6001600160a01b0391929450611bc690611691565b1614915f80611b80565b60405162461bcd60e51b815260206004820152602c60248201527f4552433732313a206f70657261746f7220717565727920666f72206e6f6e657860448201526b34b9ba32b73a103a37b5b2b760a11b6064820152608490fd5b15611c3157565b60405162461bcd60e51b8152602060048201526024808201527f4552433732313a207472616e7366657220746f20746865207a65726f206164646044820152637265737360e01b6064820152608490fd5b634e487b7160e01b5f52601160045260245ffd5b5f19810191908211610ba257565b9060018201809211610ba257565b6030019081603011610ba257565b9060028201809211610ba257565b906001600160a01b0390611ce18461184c565b8284169283911603611da45780611d1e6001600160a01b03611d7e931694611d0a861515611c2a565b611d15878483612be4565b610a6e87611a7c565b611d288154611c96565b9055611d45816001600160a01b03165f5260cc60205260405f2090565b611d4f8154611ca4565b9055611d63855f5260cb60205260405f2090565b906001600160a01b03166001600160a01b0319825416179055565b7fddf252ad1be2c89b69c2b068fc378daa952ba7f163c4a11628f55a4df523b3ef5f80a4565b60405162461bcd60e51b815260206004820152602960248201527f4552433732313a207472616e73666572206f6620746f6b656e2074686174206960448201527f73206e6f74206f776e00000000000000000000000000000000000000000000006064820152608490fd5b6001600160a01b036103459216906123f2565b6001600160a01b038116908115611f0857611e51835f5260cb6020526001600160a01b0360405f205416151590565b611ec35780611e6384611e9c93612ba4565b611e7e816001600160a01b03165f5260cc60205260405f2090565b611e888154611ca4565b9055611d63845f5260cb60205260405f2090565b5f7fddf252ad1be2c89b69c2b068fc378daa952ba7f163c4a11628f55a4df523b3ef8180a4565b60405162461bcd60e51b815260206004820152601c60248201527f4552433732313a20746f6b656e20616c7265616479206d696e746564000000006044820152606490fd5b606460405162461bcd60e51b815260206004820152602060248201527f4552433732313a206d696e7420746f20746865207a65726f20616464726573736044820152fd5b92915f549160ff8360081c16928315809481612129575b611f6c9061195e565b612118575b50611f7a6125de565b611f826125de565b611f8a6125de565b611f926125de565b5f549460ff8660081c1695861580978161210d575b611fb09061195e565b6120fc575b5080519567ffffffffffffffff87116111b457611fdc87611fd760c9546115a0565b61262f565b6020601f8811600114612077578761204596979861200e925f9161206c575b508160011b915f199060031b1c19161790565b60c9555b61201b8361271f565b612059575b6120286125de565b6120306125de565b612038612803565b6120406125de565b612854565b61204b57565b61161061ff00195f54165f55565b61206761ff00195f54165f55565b612020565b90508401515f611ffb565b60c95f52601f198816907f66be4f155c5ef2ebd3772b228f2f00681e4ed5826cdb3b1943cc11ad15ad1d28915f5b8181106120e4575091899161204598999a600194106120cc575b5050811b0160c955612012565b8501515f1960f88460031b161c191690555f806120bf565b919260206001819286890151815501940192016120a5565b61ffff1916610101175f555f611fb5565b5060ff821615611fa7565b61ffff1916610101175f555f611f71565b5060ff821615611f63565b5f198114610ba25760010190565b9061214c826111b9565b6121596040519182611192565b828152809261216a601f19916111b9565b0190602036910137565b8051156118475760200190565b8051600110156118475760210190565b908151811015611847570160200190565b90811561224f575f82805b6122305750806121bd8492612142565b915b6121c857509150565b6121d461222991611c96565b936122156121ed6121e7600a8406611cb2565b60ff1690565b60f81b7fff000000000000000000000000000000000000000000000000000000000000001690565b5f1a6122218685612191565b53600a900490565b92836121bf565b929061223e61224691612134565b93600a900490565b809391936121ad565b905060405161225f604082611192565b60018152600360fc1b602082015290565b90815f52606560205260ff6122998260405f20906001600160a01b03165f5260205260405f2090565b5416156122a4575050565b6001600160a01b0316906122c06122bb6028611cc0565b612142565b9160306122cc84612174565b5360786122d884612181565b536122eb6122e66014612d0a565b611ca4565b6001811161238e57611a6661234d612376866113c76123138861230e8915612d46565b612d91565b6113c16040519586946113c1602087016017907f416363657373436f6e74726f6c3a206163636f756e742000000000000000000081520190565b7f206973206d697373696e6720726f6c6520000000000000000000000000000000815260110190565b60405162461bcd60e51b815291829160048301610334565b90600f81166010811015611847576123d0916f181899199a1a9b1b9c1cb0b131b232b360811b6123ca921a6123c38588612191565b5360041c90565b91612d3a565b6122eb565b916123ee9183549060031b91821b915f19901b19161790565b9055565b6001810190825f528160205260405f2054155f1461245a578054680100000000000000008110156111b457612447612431826001879401855584611832565b819391549060031b91821b915f19901b19161790565b905554915f5260205260405f2055600190565b5050505f90565b805f52606560205260ff6124898360405f20906001600160a01b03165f5260205260405f2090565b5416612493575050565b805f5260656020526124b98260405f20906001600160a01b03165f5260205260405f2090565b805460ff1916905533916001600160a01b0316907ff6391f5c32d9c69d2a47ea670b442974b53935d1edc7fd64eb21e047a839171b5f80a4565b634e487b7160e01b5f52603160045260245ffd5b80548015612536575f1901906125316125208383611832565b81929154905f199060031b1b191690565b905555565b6124f3565b6001810191805f528260205260405f2054928315155f146125d6575f198401848111610ba25783545f19810194908511610ba2575f958583610b3f94612589980361258f575b505050612507565b55600190565b6125bf6125b9916125b06125a66125cd9588611832565b90549060031b1c90565b92839187611832565b906123d5565b85905f5260205260405f2090565b555f8080612581565b505050505f90565b5f5460ff8160081c16908115809281612624575b6125fb9061195e565b612612575b5061260757565b61ff00195f54165f55565b61ffff1916610101175f908155612600565b5060ff8216156125f2565b601f811161263b575050565b60c95f5260205f20906020601f840160051c83019310612675575b601f0160051c01905b81811061266a575050565b5f815560010161265f565b9091508190612656565b601f811161268b575050565b6101c45f5260205f20906020601f840160051c830193106126c6575b601f0160051c01905b8181106126bb575050565b5f81556001016126b0565b90915081906126a7565b601f82116126dd57505050565b5f5260205f20906020601f840160051c83019310612715575b601f0160051c01905b81811061270a575050565b5f81556001016126ff565b90915081906126f6565b90815167ffffffffffffffff81116111b4576127478161274060ca546115a0565b60ca6126d0565b602092601f821160011461278757612777929382915f9261277c575b50508160011b915f199060031b1c19161790565b60ca55565b015190505f80612763565b60ca5f52601f198216937f42d72674974f694b5f5159593243114d38a5c39c89d6b62fee061ff523240ee1915f5b8681106127eb57508360019596106127d3575b505050811b0160ca55565b01515f1960f88460031b161c191690555f80806127c8565b919260206001819286850151815501940192016127b5565b5f5460ff8160081c16908115809281612849575b6128209061195e565b612838575b5060ff1961015f541661015f5561260757565b61ffff1916610101175f555f612825565b5060ff821615612817565b5050905f5460ff8160081c16908115809281612983575b6128749061195e565b612972575b50825167ffffffffffffffff81116111b4576128a08161289b6101c4546115a0565b61267f565b6020601f82116001146128ef5781906128cf9394955f9261277c5750508160011b915f199060031b1c19161790565b6101c4555b6128dd33612e13565b6128e633612eff565b61204533613028565b6101c45f52601f198216907f5ac35dca7c3a7d5ae9d0add1efdc4aa02e10dd5cac0b90d2122cf0f0cc68317f915f5b81811061295a57509583600195969710612942575b505050811b016101c4556128d4565b01515f1960f88460031b161c191690555f8080612933565b9192602060018192868b01518155019401920161291e565b61ffff1916610101175f555f612879565b5060ff82161561286b565b90816020910312610243575161034581610219565b90926001600160a01b0360809381610345979616845216602083015260408201528160608201520190610310565b3d156129fb573d906129e2826111b9565b916129f06040519384611192565b82523d5f602084013e565b606090565b919290803b15612b2957612a38935f6001600160a01b0360209560405197889687958693630a85bd0160e11b855233600486016129a3565b0393165af15f9181612af8575b50612aca57612a526129d1565b80519081612ac55760405162461bcd60e51b815260206004820152603260248201527f4552433732313a207472616e7366657220746f206e6f6e20455243373231526560448201527f63656976657220696d706c656d656e74657200000000000000000000000000006064820152608490fd5b602001fd5b7fffffffff0000000000000000000000000000000000000000000000000000000016630a85bd0160e11b1490565b612b1b91925060203d602011612b22575b612b138183611192565b81019061298e565b905f612a45565b503d612b09565b50505050600190565b15612b3957565b60405162461bcd60e51b815260206004820152602b60248201527f4552433732315061757361626c653a20746f6b656e207472616e73666572207760448201527f68696c65207061757365640000000000000000000000000000000000000000006064820152608490fd5b90612bae81613151565b6001600160a01b038216612bd657612bc691506131e6565b61161060ff61015f541615612b32565b612bdf916131ad565b612bc6565b9091906001600160a01b0381169081612c4c5750612c0182613151565b6001600160a01b03831680612c2f575050612c1c91506131e6565b611610610a60610a5c61015f5460ff1690565b03612c3c575b5050612c1c565b612c45916131ad565b5f80612c35565b6001600160a01b0384168203612c63575b50612c01565b612c6c816118d5565b5f19810191908211610ba2575f91610b3f612cc29286855260fc6020526040852054838103612cc9575b5084612caa885f5260fc60205260405f2090565b556001600160a01b03165f5260fb60205260405f2090565b555f612c5d565b86865260fb60205260408620848752602052612d03604087205480610b8c84610b3f876001600160a01b03165f5260fb60205260405f2090565b555f612c96565b908160011b917f7fffffffffffffffffffffffffffffffffffffffffffffffffffffffffffffff811603610ba257565b8015610ba2575f190190565b15612d4d57565b606460405162461bcd60e51b815260206004820152602060248201527f537472696e67733a20686578206c656e67746820696e73756666696369656e746044820152fd5b612d9e6122bb6040611cc0565b906030612daa83612174565b536078612db683612181565b53612dc46122e66020612d0a565b905b60018211612dd957610345915015612d46565b600f8116601081101561184757612e0d916f181899199a1a9b1b9c1cb0b131b232b360811b6123ca921a6123c38587612191565b90612dc6565b6001600160a01b0381165f9081527fffdfc1249c027f9191656349feb0761381bb32c9f557e01f419fd08754bf5a1b6020526040902054612e86919060ff1615612e89575b5f805260976020527f683723e34a772b6e4f2c919bba7fa32ed8ea11a8325f54da7db716e9d9dd98c7611e0f565b50565b6001600160a01b0381165f9081527fffdfc1249c027f9191656349feb0761381bb32c9f557e01f419fd08754bf5a1b60205260409020805460ff19166001179055336001600160a01b0382165f7f2f8788117e7eff1d82e926ec794901d17c78024a50270940304540a733656f0d8180a4612e58565b6001600160a01b0381165f9081527fa0f6cebec7fb889cc5ac88647269c4c0108fb926abd2111b551f234b348876df6020526040902054612e86919060ff1615612f92575b7f9f2df0fed2c77648de5860a4cc508cd0818c85b8b8a1ab4ceeef8d981c8956a65f5260976020527f81bcdf06b56c0ed62a68a6ae231e66722c27e6665c84ec0015693a6d86f2bb93611e0f565b6001600160a01b0381165f9081527fa0f6cebec7fb889cc5ac88647269c4c0108fb926abd2111b551f234b348876df60205260409020805460ff19166001179055336001600160a01b0382167f9f2df0fed2c77648de5860a4cc508cd0818c85b8b8a1ab4ceeef8d981c8956a67f2f8788117e7eff1d82e926ec794901d17c78024a50270940304540a733656f0d5f80a4612f44565b6001600160a01b0381165f9081527fbfe93621c6aa2dbf737e9056c9b79e4d30ee4f6b28b18be2cb71aac8a7bf258e6020526040902054612e86919060ff16156130bb575b7f65d7a28e3265b37a6474929f336521b332c1681b933f6cb9f3376673440d862a5f5260976020527f793844da0378ca0230b21a4013ef02cf55735b90b39c85241478ff94b5eceb28611e0f565b6001600160a01b0381165f9081527fbfe93621c6aa2dbf737e9056c9b79e4d30ee4f6b28b18be2cb71aac8a7bf258e60205260409020805460ff19166001179055336001600160a01b0382167f65d7a28e3265b37a6474929f336521b332c1681b933f6cb9f3376673440d862a7f2f8788117e7eff1d82e926ec794901d17c78024a50270940304540a733656f0d5f80a461306d565b60fd54815f5260fe6020528060405f2055680100000000000000008110156111b4576001810160fd5560fd548110156118475760fd5f527f9346ac6dd7de6b96975fec380d4d994c4c12e6a8897544f22915316cc6cca2800155565b906001600160a01b036131bf836118d5565b92165f5260fb60205260405f20825f526020528060405f20555f5260fc60205260405f2055565b60fd545f19810191818311610ba257805f5260fe6020528160405f20549310156118475760fd5f527f9346ac6dd7de6b96975fec380d4d994c4c12e6a8897544f22915316cc6cca27f82015491831015611847577f9346ac6dd7de6b96975fec380d4d994c4c12e6a8897544f22915316cc6cca28083018290555f91825260fe60205260408083209390935581529081205560fd548015612536575f1981019060fd548210156118475760fd5f8181527f9346ac6dd7de6b96975fec380d4d994c4c12e6a8897544f22915316cc6cca27f909201919091555556fea2646970667358221220a4ac378d1bfe31bb5a973a41ed43752fe9d1bebe237438ad34845e18ba6a46aa64736f6c634300081a00332f8788117e7eff1d82e926ec794901d17c78024a50270940304540a733656f0dffdfc1249c027f9191656349feb0761381bb32c9f557e01f419fd08754bf5a1ba0f6cebec7fb889cc5ac88647269c4c0108fb926abd2111b551f234b348876df65d7a28e3265b37a6474929f336521b332c1681b933f6cb9f3376673440d862a9f2df0fed2c77648de5860a4cc508cd0818c85b8b8a1ab4ceeef8d981c8956a6bfe93621c6aa2dbf737e9056c9b79e4d30ee4f6b28b18be2cb71aac8a7bf258e","linkReferences":{}},"methodIdentifiers":{"DEFAULT_ADMIN_ROLE()":"a217fddf","MINTER_ROLE()":"d5391393","PAUSER_ROLE()":"e63ab1e9","approve(address,uint256)":"095ea7b3","balanceOf(address)":"70a08231","burn(uint256)":"42966c68","getApproved(uint256)":"081812fc","getRoleAdmin(bytes32)":"248a9ca3","getRoleMember(bytes32,uint256)":"9010d07c","getRoleMemberCount(bytes32)":"ca15c873","grantRole(bytes32,address)":"2f2ff15d","hasRole(bytes32,address)":"91d14854","initialize(string,string,string)":"a6487c53","isApprovedForAll(address,address)":"e985e9c5","mint(address)":"6a627842","name()":"06fdde03","ownerOf(uint256)":"6352211e","pause()":"8456cb59","paused()":"5c975abb","renounceRole(bytes32,address)":"36568abe","revokeRole(bytes32,address)":"d547741f","safeTransferFrom(address,address,uint256)":"42842e0e","safeTransferFrom(address,address,uint256,bytes)":"b88d4fde","setApprovalForAll(address,bool)":"a22cb465","supportsInterface(bytes4)":"01ffc9a7","symbol()":"95d89b41","tokenByIndex(uint256)":"4f6ccce7","tokenOfOwnerByIndex(address,uint256)":"2f745c59","tokenURI(uint256)":"c87b56dd","totalSupply()":"18160ddd","transferFrom(address,address,uint256)":"23b872dd","unpause()":"3f4ba83a"},"id":386}