{"abi":[{"type":"function","name":"fromUint256","inputs":[{"name":"value","type":"uint256","internalType":"uint256"}],"outputs":[{"name":"","type":"string","internalType":"string"}],"stateMutability":"pure"},{"type":"function","name":"fromUint256Hex","inputs":[{"name":"value","type":"uint256","internalType":"uint256"}],"outputs":[{"name":"","type":"string","internalType":"string"}],"stateMutability":"pure"},{"type":"function","name":"fromUint256HexFixed","inputs":[{"name":"value","type":"uint256","internalType":"uint256"},{"name":"length","type":"uint256","internalType":"uint256"}],"outputs":[{"name":"","type":"string","internalType":"string"}],"stateMutability":"pure"}],"bytecode":{"object":"0x608080604052346015576103eb908161001a8239f35b5f80fdfe60806040526004361015610011575f80fd5b5f3560e01c806302c5b75f1461008f57806392b0ed1a1461006d5763a2bd36441461003a575f80fd5b3461006957602036600319011261006957610065610059600435610302565b604051918291826100ae565b0390f35b5f80fd5b34610069576040366003190112610069576100656100596024356004356101f3565b3461006957602036600319011261006957610065610059600435610150565b602060409281835280519182918282860152018484015e5f828201840152601f01601f1916010190565b6040519190601f01601f1916820167ffffffffffffffff8111838210176100fe57604052565b634e487b7160e01b5f52604160045260245ffd5b67ffffffffffffffff81116100fe57601f01601f191660200190565b5f19811461013c5760010190565b634e487b7160e01b5f52601160045260245ffd5b908115610181575f82805b61016d575061016a91926101f3565b90565b906101779061012e565b9060081c8061015b565b905061018d60406100d8565b60048152630307830360e41b602082015290565b906101b36101ae83610112565b6100d8565b82815280926101c4601f1991610112565b0190602036910137565b9081518110156101df570160200190565b634e487b7160e01b5f52603260045260245ffd5b8160011b917f7fffffffffffffffffffffffffffffffffffffffffffffffffffffffffffffff81160361013c576002820180831161013c57610234906101a1565b918251156101df57603060208401538251600110156101df57607860218401536001810180911161013c575b600181116102b457506102705790565b606460405162461bcd60e51b815260206004820152602060248201527f537472696e67733a20686578206c656e67746820696e73756666696369656e746044820152fd5b90600f811660108110156101df577f3031323334353637383961626364656600000000000000000000000000000000901a6102ef83856101ce565b5360041c90801561013c575f1901610260565b801561039957805f81805b610381575061031b816101a1565b925b61032657505090565b5f19810190811161013c578091600a8106603001918260301161013c57600a9260f81b7fff00000000000000000000000000000000000000000000000000000000000000165f1a9061037890866101ce565b5304908161031d565b915061038e600a9161012e565b91048083929161030d565b506103a460406100d8565b60018152600360fc1b60208201529056fea2646970667358221220d85c19ee26dc98a9a97711e4b0b16db6073dcdf8cba6f636bd7b8c7a18f6392864736f6c634300081a0033","linkReferences":{}},"methodIdentifiers":{"fromUint256(uint256)":"a2bd3644","fromUint256Hex(uint256)":"02c5b75f","fromUint256HexFixed(uint256,uint256)":"92b0ed1a"},"id":215}