{"abi":[{"type":"function","name":"current","inputs":[],"outputs":[{"name":"","type":"uint256","internalType":"uint256"}],"stateMutability":"view"},{"type":"function","name":"decrement","inputs":[],"outputs":[],"stateMutability":"nonpayable"},{"type":"function","name":"increment","inputs":[],"outputs":[],"stateMutability":"nonpayable"},{"type":"function","name":"reset","inputs":[],"outputs":[],"stateMutability":"nonpayable"},{"type":"function","name":"upgradeTo","inputs":[{"name":"","type":"address","internalType":"address"}],"outputs":[],"stateMutability":"nonpayable"},{"type":"function","name":"upgradeToAndCall","inputs":[{"name":"","type":"address","internalType":"address"},{"name":"","type":"bytes","internalType":"bytes"}],"outputs":[],"stateMutability":"payable"},{"type":"event","name":"AdminChanged","inputs":[{"name":"previousAdmin","type":"address","indexed":false,"internalType":"address"},{"name":"newAdmin","type":"address","indexed":false,"internalType":"address"}],"anonymous":false},{"type":"event","name":"BeaconUpgraded","inputs":[{"name":"beacon","type":"address","indexed":true,"internalType":"address"}],"anonymous":false},{"type":"event","name":"Upgraded","inputs":[{"name":"implementation","type":"address","indexed":true,"internalType":"address"}],"anonymous":false}],"bytecode":{"object":"0x6080806040523460155761022e908161001a8239f35b5f80fdfe6080806040526004361015610012575f80fd5b5f3560e01c9081632baeceb714610170575080633659cfe6146101555780634f1ef286146100af5780639fa6a6e314610092578063d09de08a146100785763d826f88f1461005e575f80fd5b34610074575f366003190112610074575f600155005b5f80fd5b34610074575f366003190112610074576001805481019055005b34610074575f366003190112610074576020600154604051908152f35b6040366003190112610074576100c36101d5565b5060243567ffffffffffffffff811161007457366023820112156100745780600401359067ffffffffffffffff82116101415760405191601f8101601f19908116603f0116830167ffffffffffffffff811184821017610141576040528083523660248284010111610074575f928160246020940184830137010152005b634e487b7160e01b5f52604160045260245ffd5b346100745760203660031901126100745761016e6101d5565b005b34610074575f3660031901126100745760015490811561019357505f1901600155005b62461bcd60e51b815260206004820152601b60248201527f436f756e7465723a2064656372656d656e74206f766572666c6f7700000000006044820152606490fd5b6004359073ffffffffffffffffffffffffffffffffffffffff821682036100745756fea26469706673582212200171c2884bd1b2ce36e9571b13cdc36882a18bc250ed5c1ef136a135bcec60ba64736f6c634300081a0033","linkReferences":{}},"methodIdentifiers":{"current()":"9fa6a6e3","decrement()":"2baeceb7","increment()":"d09de08a","reset()":"d826f88f","upgradeTo(address)":"3659cfe6","upgradeToAndCall(address,bytes)":"4f1ef286"},"id":385}