{"abi":[{"type":"function","name":"approve","inputs":[{"name":"to","type":"address","internalType":"address"},{"name":"tokenId","type":"uint256","internalType":"uint256"}],"outputs":[],"stateMutability":"nonpayable"},{"type":"function","name":"balanceOf","inputs":[{"name":"owner","type":"address","internalType":"address"}],"outputs":[{"name":"","type":"uint256","internalType":"uint256"}],"stateMutability":"view"},{"type":"function","name":"burn","inputs":[{"name":"tokenId","type":"uint256","internalType":"uint256"}],"outputs":[],"stateMutability":"nonpayable"},{"type":"function","name":"exists","inputs":[{"name":"tokenId","type":"uint256","internalType":"uint256"}],"outputs":[{"name":"","type":"bool","internalType":"bool"}],"stateMutability":"view"},{"type":"function","name":"getApproved","inputs":[{"name":"tokenId","type":"uint256","internalType":"uint256"}],"outputs":[{"name":"","type":"address","internalType":"address"}],"stateMutability":"view"},{"type":"function","name":"isApprovedForAll","inputs":[{"name":"owner","type":"address","internalType":"address"},{"name":"operator","type":"address","internalType":"address"}],"outputs":[{"name":"","type":"bool","internalType":"bool"}],"stateMutability":"view"},{"type":"function","name":"mint","inputs":[{"name":"to","type":"address","internalType":"address"},{"name":"tokenId","type":"uint256","internalType":"uint256"}],"outputs":[],"stateMutability":"nonpayable"},{"type":"function","name":"name","inputs":[],"outputs":[{"name":"","type":"string","internalType":"string"}],"stateMutability":"view"},{"type":"function","name":"ownerOf","inputs":[{"name":"tokenId","type":"uint256","internalType":"uint256"}],"outputs":[{"name":"","type":"address","internalType":"address"}],"stateMutability":"view"},{"type":"function","name":"safeMint","inputs":[{"name":"to","type":"address","internalType":"address"},{"name":"tokenId","type":"uint256","internalType":"uint256"},{"name":"_data","type":"bytes","internalType":"bytes"}],"outputs":[],"stateMutability":"nonpayable"},{"type":"function","name":"safeMint","inputs":[{"name":"to","type":"address","internalType":"address"},{"name":"tokenId","type":"uint256","internalType":"uint256"}],"outputs":[],"stateMutability":"nonpayable"},{"type":"function","name":"safeTransferFrom","inputs":[{"name":"from","type":"address","internalType":"address"},{"name":"to","type":"address","internalType":"address"},{"name":"tokenId","type":"uint256","internalType":"uint256"}],"outputs":[],"stateMutability":"nonpayable"},{"type":"function","name":"safeTransferFrom","inputs":[{"name":"from","type":"address","internalType":"address"},{"name":"to","type":"address","internalType":"address"},{"name":"tokenId","type":"uint256","internalType":"uint256"},{"name":"_data","type":"bytes","internalType":"bytes"}],"outputs":[],"stateMutability":"nonpayable"},{"type":"function","name":"setApprovalForAll","inputs":[{"name":"operator","type":"address","internalType":"address"},{"name":"approved","type":"bool","internalType":"bool"}],"outputs":[],"stateMutability":"nonpayable"},{"type":"function","name":"supportsInterface","inputs":[{"name":"interfaceId","type":"bytes4","internalType":"bytes4"}],"outputs":[{"name":"","type":"bool","internalType":"bool"}],"stateMutability":"view"},{"type":"function","name":"symbol","inputs":[],"outputs":[{"name":"","type":"string","internalType":"string"}],"stateMutability":"view"},{"type":"function","name":"tokenURI","inputs":[{"name":"tokenId","type":"uint256","internalType":"uint256"}],"outputs":[{"name":"","type":"string","internalType":"string"}],"stateMutability":"view"},{"type":"function","name":"transferFrom","inputs":[{"name":"from","type":"address","internalType":"address"},{"name":"to","type":"address","internalType":"address"},{"name":"tokenId","type":"uint256","internalType":"uint256"}],"outputs":[],"stateMutability":"nonpayable"},{"type":"event","name":"Approval","inputs":[{"name":"owner","type":"address","indexed":true,"internalType":"address"},{"name":"approved","type":"address","indexed":true,"internalType":"address"},{"name":"tokenId","type":"uint256","indexed":true,"internalType":"uint256"}],"anonymous":false},{"type":"event","name":"ApprovalForAll","inputs":[{"name":"owner","type":"address","indexed":true,"internalType":"address"},{"name":"operator","type":"address","indexed":true,"internalType":"address"},{"name":"approved","type":"bool","indexed":false,"internalType":"bool"}],"anonymous":false},{"type":"event","name":"Transfer","inputs":[{"name":"from","type":"address","indexed":true,"internalType":"address"},{"name":"to","type":"address","indexed":true,"internalType":"address"},{"name":"tokenId","type":"uint256","indexed":true,"internalType":"uint256"}],"anonymous":false}],"bytecode":{"object":"0x60808060405234601557611657908161001a8239f35b5f80fdfe60806040526004361015610011575f80fd5b5f3560e01c806301ffc9a71461013457806306fdde031461012f578063081812fc1461012a578063095ea7b31461012557806323b872dd1461012057806340c10f191461011b57806342842e0e1461011657806342966c68146101115780634f558e791461010c5780636352211e1461010757806370a08231146101025780638832e6e3146100fd57806395d89b41146100f8578063a1448194146100f3578063a22cb465146100ee578063b88d4fde146100e9578063c87b56dd146100e45763e985e9c5146100df575f80fd5b610b3a565b610a3d565b6109ee565b610905565b6108c7565b610812565b6107b8565b610668565b61064a565b61060d565b610502565b6104d9565b6104b4565b61048b565b61035b565b610300565b61020d565b610167565b7fffffffff0000000000000000000000000000000000000000000000000000000081160361016357565b5f80fd5b3461016357602036600319011261016357602060043561018681610139565b63ffffffff60e01b166380ac58cd60e01b81149081156101c4575b81156101b3575b506040519015158152f35b6301ffc9a760e01b1490505f6101a8565b635b5e139f60e01b811491506101a1565b805180835260209291819084018484015e5f828201840152601f01601f1916010190565b90602061020a9281815201906101d5565b90565b34610163575f366003190112610163576040515f6065548060011c90600181169081156102f6575b6020831082146102e25782855260208501919081156102c95750600114610277575b610273846102678186038261072f565b604051918291826101f9565b0390f35b60655f9081529250907f8ff97419363ffd7000167f130ef7168fbea05faf9251824ca5043f113cc6a7c75b8184106102b55750500161026782610257565b8054848401526020909301926001016102a2565b60ff191682525090151560051b01905061026782610257565b634e487b7160e01b5f52602260045260245ffd5b91607f1691610235565b3461016357602036600319011261016357602061031e600435610b98565b6001600160a01b0360405191168152f35b600435906001600160a01b038216820361016357565b602435906001600160a01b038216820361016357565b346101635760403660031901126101635761037461032f565b60243561038081610d25565b916001600160a01b038316806001600160a01b03831614610402576103b8936103b39133149081156103ba575b50610c2d565b610e3c565b005b6103fc91506103f5906103df33916001600160a01b03165f52606a60205260405f2090565b906001600160a01b03165f5260205260405f2090565b5460ff1690565b5f6103ad565b60405162461bcd60e51b815260206004820152602160248201527f4552433732313a20617070726f76616c20746f2063757272656e74206f776e656044820152603960f91b6064820152608490fd5b6060906003190112610163576004356001600160a01b038116810361016357906024356001600160a01b0381168103610163579060443590565b34610163576103b861049c36610451565b916104af6104aa8433610ea3565b610c9f565b61102d565b34610163576040366003190112610163576103b86104d061032f565b6024359061117a565b34610163576103b86104ea36610451565b90604051926104fa60208561072f565b5f8452610dae565b34610163576020366003190112610163576004356105208133610ea3565b156105a2576001600160a01b0361053682610d25565b61053f83610de9565b16805f52606860205260405f209081545f19810190811161059d575f92558282526067602052604082206001600160a01b031981541690557fddf252ad1be2c89b69c2b068fc378daa952ba7f163c4a11628f55a4df523b3ef8280a4005b610fef565b60405162461bcd60e51b815260206004820152603060248201527f4552433732314275726e61626c653a2063616c6c6572206973206e6f74206f7760448201527f6e6572206e6f7220617070726f766564000000000000000000000000000000006064820152608490fd5b346101635760203660031901126101635760206106406004355f5260676020526001600160a01b0360405f205416151590565b6040519015158152f35b3461016357602036600319011261016357602061031e600435610d25565b34610163576020366003190112610163576001600160a01b0361068961032f565b1680156106b0575f52606860205261027360405f2054604051918291829190602083019252565b60405162461bcd60e51b815260206004820152602a60248201527f4552433732313a2062616c616e636520717565727920666f7220746865207a6560448201527f726f2061646472657373000000000000000000000000000000000000000000006064820152608490fd5b634e487b7160e01b5f52604160045260245ffd5b90601f8019910116810190811067ffffffffffffffff82111761075157604052565b61071b565b67ffffffffffffffff811161075157601f01601f191660200190565b81601f820112156101635780359061078982610756565b92610797604051948561072f565b8284526020838301011161016357815f926020809301838601378301015290565b34610163576060366003190112610163576107d161032f565b602435906044359067ffffffffffffffff8211610163576103b8926107fd61080d933690600401610772565b91610808828261117a565b6114b1565b61129a565b34610163575f366003190112610163576040515f6066548060011c90600181169081156108bd575b6020831082146102e25782855260208501919081156102c9575060011461086b57610273846102678186038261072f565b60665f9081529250907f46501879b8ca8525e8c2fd519e2fbfcfa2ebea26501294aa02cbfcfb12e943545b8184106108a95750500161026782610257565b805484840152602090930192600101610896565b91607f169161083a565b34610163576040366003190112610163576103b861080d6108e661032f565b602435604051916108f860208461072f565b5f8352610808828261117a565b346101635760403660031901126101635761091e61032f565b6024358015158103610163576001600160a01b038216913383146109a9578161096661097792335f52606a60205260405f20906001600160a01b03165f5260205260405f2090565b9060ff801983541691151516179055565b604051901515815233907f17307eab39ab6107e8899845ad3d59bd9653f200f220920489ca2b5937696c3190602090a3005b60405162461bcd60e51b815260206004820152601960248201527f4552433732313a20617070726f766520746f2063616c6c6572000000000000006044820152606490fd5b3461016357608036600319011261016357610a0761032f565b610a0f610345565b906044356064359267ffffffffffffffff841161016357610a376103b8943690600401610772565b92610dae565b3461016357602036600319011261016357600435610a6f815f5260676020526001600160a01b0360405f205416151590565b15610acf57610a7c610d11565b805115610abd57610267610aa991610aaf610a9961027395611371565b6040519485936020850190610dd7565b90610dd7565b03601f19810183528261072f565b5050610273610aca610d11565b610267565b60405162461bcd60e51b815260206004820152602f60248201527f4552433732314d657461646174613a2055524920717565727920666f72206e6f60448201527f6e6578697374656e7420746f6b656e00000000000000000000000000000000006064820152608490fd5b3461016357604036600319011261016357602060ff610b8c610b5a61032f565b6001600160a01b03610b6a610345565b91165f52606a845260405f20906001600160a01b03165f5260205260405f2090565b54166040519015158152f35b610bb6815f5260676020526001600160a01b0360405f205416151590565b15610bd3575f5260696020526001600160a01b0360405f20541690565b60405162461bcd60e51b815260206004820152602c60248201527f4552433732313a20617070726f76656420717565727920666f72206e6f6e657860448201526b34b9ba32b73a103a37b5b2b760a11b6064820152608490fd5b15610c3457565b60405162461bcd60e51b815260206004820152603860248201527f4552433732313a20617070726f76652063616c6c6572206973206e6f74206f7760448201527f6e6572206e6f7220617070726f76656420666f7220616c6c00000000000000006064820152608490fd5b15610ca657565b60405162461bcd60e51b815260206004820152603160248201527f4552433732313a207472616e736665722063616c6c6572206973206e6f74206f60448201527f776e6572206e6f7220617070726f7665640000000000000000000000000000006064820152608490fd5b60405190610d2060208361072f565b5f8252565b5f5260676020526001600160a01b0360405f2054168015610d435790565b60405162461bcd60e51b815260206004820152602960248201527f4552433732313a206f776e657220717565727920666f72206e6f6e657869737460448201527f656e7420746f6b656e00000000000000000000000000000000000000000000006064820152608490fd5b91610dd5939161080d93610dc56104aa8433610ea3565b610dd083838361102d565b6115e0565b565b805191908290602001825e015f815290565b805f52606960205260405f206001600160a01b031981541690555f6001600160a01b03610e1583610d25565b167f8c5be1e5ebec7d5bd14f71427d1e84f3dd0314c0f7b2291e5b200ac8c7c3b9258280a4565b815f526069602052610e678160405f20906001600160a01b03166001600160a01b0319825416179055565b6001600160a01b0380610e7984610d25565b169116907f8c5be1e5ebec7d5bd14f71427d1e84f3dd0314c0f7b2291e5b200ac8c7c3b9255f80a4565b610ec1825f5260676020526001600160a01b0360405f205416151590565b15610f3d57610ecf82610d25565b6001600160a01b0382166001600160a01b0382168114938415610f1e575b50508215610efa57505090565b61020a9250906103df6103f5926001600160a01b03165f52606a60205260405f2090565b6001600160a01b0391929450610f3390610b98565b1614915f80610eed565b60405162461bcd60e51b815260206004820152602c60248201527f4552433732313a206f70657261746f7220717565727920666f72206e6f6e657860448201526b34b9ba32b73a103a37b5b2b760a11b6064820152608490fd5b15610f9e57565b60405162461bcd60e51b8152602060048201526024808201527f4552433732313a207472616e7366657220746f20746865207a65726f206164646044820152637265737360e01b6064820152608490fd5b634e487b7160e01b5f52601160045260245ffd5b5f1981019190821161059d57565b906001820180921161059d57565b603001908160301161059d57565b906001600160a01b039061104084610d25565b828416928391160361110f57806110896001600160a01b036110e9931694611069861515610f97565b61107287610de9565b6001600160a01b03165f52606860205260405f2090565b6110938154611003565b90556110b0816001600160a01b03165f52606860205260405f2090565b6110ba8154611011565b90556110ce855f52606760205260405f2090565b906001600160a01b03166001600160a01b0319825416179055565b7fddf252ad1be2c89b69c2b068fc378daa952ba7f163c4a11628f55a4df523b3ef5f80a4565b60405162461bcd60e51b815260206004820152602960248201527f4552433732313a207472616e73666572206f6620746f6b656e2074686174206960448201527f73206e6f74206f776e00000000000000000000000000000000000000000000006064820152608490fd5b6001600160a01b038116908115611256576111a9835f5260676020526001600160a01b0360405f205416151590565b61121157806111cc6111ea926001600160a01b03165f52606860205260405f2090565b6111d68154611011565b90556110ce845f52606760205260405f2090565b5f7fddf252ad1be2c89b69c2b068fc378daa952ba7f163c4a11628f55a4df523b3ef8180a4565b60405162461bcd60e51b815260206004820152601c60248201527f4552433732313a20746f6b656e20616c7265616479206d696e746564000000006044820152606490fd5b606460405162461bcd60e51b815260206004820152602060248201527f4552433732313a206d696e7420746f20746865207a65726f20616464726573736044820152fd5b156112a157565b60405162461bcd60e51b815260206004820152603260248201527f4552433732313a207472616e7366657220746f206e6f6e20455243373231526560448201527f63656976657220696d706c656d656e74657200000000000000000000000000006064820152608490fd5b5f19811461059d5760010190565b9061132482610756565b611331604051918261072f565b8281528092611342601f1991610756565b0190602036910137565b90815181101561135d570160200190565b634e487b7160e01b5f52603260045260245ffd5b90811561141e575f82805b6113ff57508061138c849261131a565b915b61139757509150565b6113a36113f891611003565b936113e46113bc6113b6600a840661101f565b60ff1690565b60f81b7fff000000000000000000000000000000000000000000000000000000000000001690565b5f1a6113f0868561134c565b53600a900490565b928361138e565b929061140d6114159161130c565b93600a900490565b8093919361137c565b905060405161142e60408261072f565b60018152600360fc1b602082015290565b90816020910312610163575161020a81610139565b90926001600160a01b036080938161020a9796168452166020830152604082015281606082015201906101d5565b3d156114ac573d9061149382610756565b916114a1604051938461072f565b82523d5f602084013e565b606090565b91823b156115d8576114e7926020925f6001600160a01b03604051809781968295630a85bd0160e11b8452853360048601611454565b0393165af15f91816115a7575b5061157957611501611482565b805190816115745760405162461bcd60e51b815260206004820152603260248201527f4552433732313a207472616e7366657220746f206e6f6e20455243373231526560448201527f63656976657220696d706c656d656e74657200000000000000000000000000006064820152608490fd5b602001fd5b7fffffffff0000000000000000000000000000000000000000000000000000000016630a85bd0160e11b1490565b6115ca91925060203d6020116115d1575b6115c2818361072f565b81019061143f565b905f6114f4565b503d6115b8565b505050600190565b919290803b15611618576114e7935f6001600160a01b0360209560405197889687958693630a85bd0160e11b85523360048601611454565b5050505060019056fea2646970667358221220243047a07ee8b77cd2b0125d833617870aaf7998b007c9be5108a5b3a075138c64736f6c634300081a0033","linkReferences":{}},"methodIdentifiers":{"approve(address,uint256)":"095ea7b3","balanceOf(address)":"70a08231","burn(uint256)":"42966c68","exists(uint256)":"4f558e79","getApproved(uint256)":"081812fc","isApprovedForAll(address,address)":"e985e9c5","mint(address,uint256)":"40c10f19","name()":"06fdde03","ownerOf(uint256)":"6352211e","safeMint(address,uint256)":"a1448194","safeMint(address,uint256,bytes)":"8832e6e3","safeTransferFrom(address,address,uint256)":"42842e0e","safeTransferFrom(address,address,uint256,bytes)":"b88d4fde","setApprovalForAll(address,bool)":"a22cb465","supportsInterface(bytes4)":"01ffc9a7","symbol()":"95d89b41","tokenURI(uint256)":"c87b56dd","transferFrom(address,address,uint256)":"23b872dd"},"id":354}