{"abi":[{"type":"function","name":"get","inputs":[{"name":"index","type":"uint256","internalType":"uint256"}],"outputs":[{"name":"","type":"bool","internalType":"bool"}],"stateMutability":"view"},{"type":"function","name":"set","inputs":[{"name":"index","type":"uint256","internalType":"uint256"}],"outputs":[],"stateMutability":"nonpayable"},{"type":"function","name":"setTo","inputs":[{"name":"index","type":"uint256","internalType":"uint256"},{"name":"value","type":"bool","internalType":"bool"}],"outputs":[],"stateMutability":"nonpayable"},{"type":"function","name":"unset","inputs":[{"name":"index","type":"uint256","internalType":"uint256"}],"outputs":[],"stateMutability":"nonpayable"}],"bytecode":{"object":"0x60808060405234601557610183908161001a8239f35b5f80fdfe60806040526004361015610011575f80fd5b5f3560e01c8063088d22551461011957806360fe47b1146100e65780639507d39a146100b15763dcc9d43c14610045575f80fd5b346100ad5760403660031901126100ad5760043560243580151581036100ad571561008c5761008a908060081c5f525f602052600160ff60405f2092161b8154179055565b005b61008a908060081c5f525f602052600160ff60405f2092161b198154169055565b5f80fd5b346100ad5760203660031901126100ad576020600160ff6004358060081c5f525f8452161b60405f2054161515604051908152f35b346100ad5760203660031901126100ad5761008a6004358060081c5f525f602052600160ff60405f2092161b8154179055565b346100ad5760203660031901126100ad5761008a6004358060081c5f525f602052600160ff60405f2092161b19815416905556fea264697066735822122014d0387baa876ba44c73cd701b43e99f22290dcfa6197435eafa7c7bd205144764736f6c634300081a0033","linkReferences":{}},"methodIdentifiers":{"get(uint256)":"9507d39a","set(uint256)":"60fe47b1","setTo(uint256,bool)":"dcc9d43c","unset(uint256)":"088d2255"},"id":148}