{"abi":[{"type":"function","name":"DEFAULT_ADMIN_ROLE","inputs":[],"outputs":[{"name":"","type":"bytes32","internalType":"bytes32"}],"stateMutability":"view"},{"type":"function","name":"MINTER_ROLE","inputs":[],"outputs":[{"name":"","type":"bytes32","internalType":"bytes32"}],"stateMutability":"view"},{"type":"function","name":"PAUSER_ROLE","inputs":[],"outputs":[{"name":"","type":"bytes32","internalType":"bytes32"}],"stateMutability":"view"},{"type":"function","name":"allowance","inputs":[{"name":"owner","type":"address","internalType":"address"},{"name":"spender","type":"address","internalType":"address"}],"outputs":[{"name":"","type":"uint256","internalType":"uint256"}],"stateMutability":"view"},{"type":"function","name":"approve","inputs":[{"name":"spender","type":"address","internalType":"address"},{"name":"amount","type":"uint256","internalType":"uint256"}],"outputs":[{"name":"","type":"bool","internalType":"bool"}],"stateMutability":"nonpayable"},{"type":"function","name":"balanceOf","inputs":[{"name":"account","type":"address","internalType":"address"}],"outputs":[{"name":"","type":"uint256","internalType":"uint256"}],"stateMutability":"view"},{"type":"function","name":"burn","inputs":[{"name":"amount","type":"uint256","internalType":"uint256"}],"outputs":[],"stateMutability":"nonpayable"},{"type":"function","name":"burnFrom","inputs":[{"name":"account","type":"address","internalType":"address"},{"name":"amount","type":"uint256","internalType":"uint256"}],"outputs":[],"stateMutability":"nonpayable"},{"type":"function","name":"decimals","inputs":[],"outputs":[{"name":"","type":"uint8","internalType":"uint8"}],"stateMutability":"view"},{"type":"function","name":"decreaseAllowance","inputs":[{"name":"spender","type":"address","internalType":"address"},{"name":"subtractedValue","type":"uint256","internalType":"uint256"}],"outputs":[{"name":"","type":"bool","internalType":"bool"}],"stateMutability":"nonpayable"},{"type":"function","name":"getRoleAdmin","inputs":[{"name":"role","type":"bytes32","internalType":"bytes32"}],"outputs":[{"name":"","type":"bytes32","internalType":"bytes32"}],"stateMutability":"view"},{"type":"function","name":"getRoleMember","inputs":[{"name":"role","type":"bytes32","internalType":"bytes32"},{"name":"index","type":"uint256","internalType":"uint256"}],"outputs":[{"name":"","type":"address","internalType":"address"}],"stateMutability":"view"},{"type":"function","name":"getRoleMemberCount","inputs":[{"name":"role","type":"bytes32","internalType":"bytes32"}],"outputs":[{"name":"","type":"uint256","internalType":"uint256"}],"stateMutability":"view"},{"type":"function","name":"grantRole","inputs":[{"name":"role","type":"bytes32","internalType":"bytes32"},{"name":"account","type":"address","internalType":"address"}],"outputs":[],"stateMutability":"nonpayable"},{"type":"function","name":"hasRole","inputs":[{"name":"role","type":"bytes32","internalType":"bytes32"},{"name":"account","type":"address","internalType":"address"}],"outputs":[{"name":"","type":"bool","internalType":"bool"}],"stateMutability":"view"},{"type":"function","name":"increaseAllowance","inputs":[{"name":"spender","type":"address","internalType":"address"},{"name":"addedValue","type":"uint256","internalType":"uint256"}],"outputs":[{"name":"","type":"bool","internalType":"bool"}],"stateMutability":"nonpayable"},{"type":"function","name":"initialize","inputs":[{"name":"name","type":"string","internalType":"string"},{"name":"symbol","type":"string","internalType":"string"}],"outputs":[],"stateMutability":"nonpayable"},{"type":"function","name":"mint","inputs":[{"name":"to","type":"address","internalType":"address"},{"name":"amount","type":"uint256","internalType":"uint256"}],"outputs":[],"stateMutability":"nonpayable"},{"type":"function","name":"name","inputs":[],"outputs":[{"name":"","type":"string","internalType":"string"}],"stateMutability":"view"},{"type":"function","name":"pause","inputs":[],"outputs":[],"stateMutability":"nonpayable"},{"type":"function","name":"paused","inputs":[],"outputs":[{"name":"","type":"bool","internalType":"bool"}],"stateMutability":"view"},{"type":"function","name":"renounceRole","inputs":[{"name":"role","type":"bytes32","internalType":"bytes32"},{"name":"account","type":"address","internalType":"address"}],"outputs":[],"stateMutability":"nonpayable"},{"type":"function","name":"revokeRole","inputs":[{"name":"role","type":"bytes32","internalType":"bytes32"},{"name":"account","type":"address","internalType":"address"}],"outputs":[],"stateMutability":"nonpayable"},{"type":"function","name":"supportsInterface","inputs":[{"name":"interfaceId","type":"bytes4","internalType":"bytes4"}],"outputs":[{"name":"","type":"bool","internalType":"bool"}],"stateMutability":"view"},{"type":"function","name":"symbol","inputs":[],"outputs":[{"name":"","type":"string","internalType":"string"}],"stateMutability":"view"},{"type":"function","name":"totalSupply","inputs":[],"outputs":[{"name":"","type":"uint256","internalType":"uint256"}],"stateMutability":"view"},{"type":"function","name":"transfer","inputs":[{"name":"recipient","type":"address","internalType":"address"},{"name":"amount","type":"uint256","internalType":"uint256"}],"outputs":[{"name":"","type":"bool","internalType":"bool"}],"stateMutability":"nonpayable"},{"type":"function","name":"transferFrom","inputs":[{"name":"sender","type":"address","internalType":"address"},{"name":"recipient","type":"address","internalType":"address"},{"name":"amount","type":"uint256","internalType":"uint256"}],"outputs":[{"name":"","type":"bool","internalType":"bool"}],"stateMutability":"nonpayable"},{"type":"function","name":"unpause","inputs":[],"outputs":[],"stateMutability":"nonpayable"},{"type":"event","name":"Approval","inputs":[{"name":"owner","type":"address","indexed":true,"internalType":"address"},{"name":"spender","type":"address","indexed":true,"internalType":"address"},{"name":"value","type":"uint256","indexed":false,"internalType":"uint256"}],"anonymous":false},{"type":"event","name":"Paused","inputs":[{"name":"account","type":"address","indexed":false,"internalType":"address"}],"anonymous":false},{"type":"event","name":"RoleAdminChanged","inputs":[{"name":"role","type":"bytes32","indexed":true,"internalType":"bytes32"},{"name":"previousAdminRole","type":"bytes32","indexed":true,"internalType":"bytes32"},{"name":"newAdminRole","type":"bytes32","indexed":true,"internalType":"bytes32"}],"anonymous":false},{"type":"event","name":"RoleGranted","inputs":[{"name":"role","type":"bytes32","indexed":true,"internalType":"bytes32"},{"name":"account","type":"address","indexed":true,"internalType":"address"},{"name":"sender","type":"address","indexed":true,"internalType":"address"}],"anonymous":false},{"type":"event","name":"RoleRevoked","inputs":[{"name":"role","type":"bytes32","indexed":true,"internalType":"bytes32"},{"name":"account","type":"address","indexed":true,"internalType":"address"},{"name":"sender","type":"address","indexed":true,"internalType":"address"}],"anonymous":false},{"type":"event","name":"Transfer","inputs":[{"name":"from","type":"address","indexed":true,"internalType":"address"},{"name":"to","type":"address","indexed":true,"internalType":"address"},{"name":"value","type":"uint256","indexed":false,"internalType":"uint256"}],"anonymous":false},{"type":"event","name":"Unpaused","inputs":[{"name":"account","type":"address","indexed":false,"internalType":"address"}],"anonymous":false}],"bytecode":{"object":"0x60808060405234601557612190908161001a8239f35b5f80fdfe6080806040526004361015610012575f80fd5b5f3560e01c90816301ffc9a7146116cc5750806306fdde0314611627578063095ea7b31461160157806318160ddd146115e457806323b872dd1461150b578063248a9ca3146114d85780632f2ff15d146113fc578063313ce567146113e157806336568abe1461132a57806339509351146112db5780633f4ba83a146111a457806340c10f1914610fc557806342966c6814610fa85780634cd88b761461076f5780635c975abb1461074c57806370a082311461071457806379cc6790146106615780638456cb59146105275780639010d07c146104e357806391d148541461049957806395d89b41146103bf578063a217fddf146103a5578063a457c2d7146102e9578063a9059cbb146102b8578063ca15c8731461028e578063d539139314610254578063d547741f146101ed578063dd62ed3e146101995763e63ab1e91461015b575f80fd5b34610195575f3660031901126101955760206040517f65d7a28e3265b37a6474929f336521b332c1681b933f6cb9f3376673440d862a8152f35b5f80fd5b34610195576040366003190112610195576101b2611763565b6001600160a01b036101c2611779565b91165f5260ca6020526001600160a01b0360405f2091165f52602052602060405f2054604051908152f35b346101955760403660031901126101955761025260043561020c611779565b9061022d610226825f526065602052600160405f20015490565b3390611cb9565b6102378282611faf565b5f5260976020526001600160a01b0360405f20911690612033565b005b34610195575f3660031901126101955760206040517f9f2df0fed2c77648de5860a4cc508cd0818c85b8b8a1ab4ceeef8d981c8956a68152f35b34610195576020366003190112610195576004355f526097602052602060405f2054604051908152f35b34610195576040366003190112610195576102de6102d4611763565b60243590336119e2565b602060405160018152f35b3461019557604036600319011261019557610302611763565b60243590335f5260ca60205260405f206001600160a01b0382165f5260205260405f20549180831061033a576102de920390336118de565b60405162461bcd60e51b815260206004820152602560248201527f45524332303a2064656372656173656420616c6c6f77616e63652062656c6f7760448201527f207a65726f0000000000000000000000000000000000000000000000000000006064820152608490fd5b34610195575f3660031901126101955760206040515f8152f35b34610195575f366003190112610195576040515f60cd546103df81611813565b80845290600181169081156104755750600114610417575b610413836104078185038261178f565b60405191829182611739565b0390f35b91905060cd5f527f83978b4c69c48dd978ab43fe30f077615294f938fb7f936d9eb340e51ea7db2e915f905b80821061045b575090915081016020016104076103f7565b919260018160209254838588010152019101909291610443565b60ff191660208086019190915291151560051b8401909101915061040790506103f7565b34610195576040366003190112610195576104b2611779565b6004355f5260656020526001600160a01b0360405f2091165f52602052602060ff60405f2054166040519015158152f35b34610195576040366003190112610195576004355f52609760205260206001600160a01b0361051760243560405f20611f2b565b90549060031b1c16604051908152f35b34610195575f36600319011261019557335f9081527fbfe93621c6aa2dbf737e9056c9b79e4d30ee4f6b28b18be2cb71aac8a7bf258e602052604090205460ff16156105f65761012d5460ff81166105b15760019060ff19161761012d557f62e78cea01bee320cd4e420270b5ea74000d11b0c9f74754ebdbfc544b05a2586020604051338152a1005b60405162461bcd60e51b815260206004820152601060248201527f5061757361626c653a20706175736564000000000000000000000000000000006044820152606490fd5b60405162461bcd60e51b815260206004820152603760248201527f45524332305072657365744d696e7465725061757365723a206d75737420686160448201527f76652070617573657220726f6c6520746f2070617573650000000000000000006064820152608490fd5b346101955760403660031901126101955761067a611763565b6024356001600160a01b0382165f5260ca60205260405f206001600160a01b0333165f5260205260405f2054918183106106c3576106be82610252940333836118de565b611b9c565b60405162461bcd60e51b8152602060048201526024808201527f45524332303a206275726e20616d6f756e74206578636565647320616c6c6f77604482015263616e636560e01b6064820152608490fd5b34610195576020366003190112610195576001600160a01b03610735611763565b165f5260c9602052602060405f2054604051908152f35b34610195575f36600319011261019557602060ff61012d54166040519015158152f35b346101955760403660031901126101955760043567ffffffffffffffff8111610195576107a09036906004016117cd565b60243567ffffffffffffffff8111610195576107c09036906004016117cd565b905f549060ff8260081c16918215809381610f9d575b6107df9061186c565b610f8c575b505f549060ff8260081c16918215809381610f81575b6108039061186c565b610f70575b506108116120f8565b6108196120f8565b6108216120f8565b6108296120f8565b5f549060ff8260081c16918215809381610f65575b6108479061186c565b610f54575b5080519067ffffffffffffffff8211610e0657819061086c60cc54611813565b601f8111610ea9575b50602090601f8311600114610e25575f92610e1a575b50508160011b915f199060031b1c19161760cc555b835167ffffffffffffffff8111610e06576108bc60cd54611813565b601f8111610d65575b50602094601f8211600114610ce4579481929394955f92610cd9575b50508160011b915f199060031b1c19161760cd555b610ccb575b6109036120f8565b5f5460ff8160081c16908115809281610cc0575b6109209061186c565b610caf575b5060ff1961012d541661012d55610ca1575b61093f6120f8565b5f5460ff8160081c16908115809281610c96575b61095c9061186c565b610c85575b50335f9081527fffdfc1249c027f9191656349feb0761381bb32c9f557e01f419fd08754bf5a1b602052604090205460ff1615610c22575b5f805260976020526109cb337f683723e34a772b6e4f2c919bba7fa32ed8ea11a8325f54da7db716e9d9dd98c7611f40565b50335f9081527fa0f6cebec7fb889cc5ac88647269c4c0108fb926abd2111b551f234b348876df602052604090205460ff1615610b9d575b7f9f2df0fed2c77648de5860a4cc508cd0818c85b8b8a1ab4ceeef8d981c8956a65f526097602052610a55337f81bcdf06b56c0ed62a68a6ae231e66722c27e6665c84ec0015693a6d86f2bb93611f40565b50335f9081527fbfe93621c6aa2dbf737e9056c9b79e4d30ee4f6b28b18be2cb71aac8a7bf258e602052604090205460ff1615610b18575b7f65d7a28e3265b37a6474929f336521b332c1681b933f6cb9f3376673440d862a5f526097602052610adf337f793844da0378ca0230b21a4013ef02cf55735b90b39c85241478ff94b5eceb28611f40565b50610b0a575b610afc575b610af057005b5f805461ff0019169055005b61ff00195f54165f55610aea565b61ff00195f54165f55610ae5565b335f8181527fbfe93621c6aa2dbf737e9056c9b79e4d30ee4f6b28b18be2cb71aac8a7bf258e60205260408120805460ff1916600117905581907f65d7a28e3265b37a6474929f336521b332c1681b933f6cb9f3376673440d862a907f2f8788117e7eff1d82e926ec794901d17c78024a50270940304540a733656f0d9080a4610a8d565b335f8181527fa0f6cebec7fb889cc5ac88647269c4c0108fb926abd2111b551f234b348876df60205260408120805460ff1916600117905581907f9f2df0fed2c77648de5860a4cc508cd0818c85b8b8a1ab4ceeef8d981c8956a6907f2f8788117e7eff1d82e926ec794901d17c78024a50270940304540a733656f0d9080a4610a03565b335f8181527fffdfc1249c027f9191656349feb0761381bb32c9f557e01f419fd08754bf5a1b60205260408120805460ff1916600117905581907f2f8788117e7eff1d82e926ec794901d17c78024a50270940304540a733656f0d8180a4610999565b61ffff1916610101175f5583610961565b5060ff821615610953565b61ff00195f54165f55610937565b61ffff1916610101175f5583610925565b5060ff821615610917565b61ff00195f54165f556108fb565b0151905085806108e1565b601f1982169560cd5f527f83978b4c69c48dd978ab43fe30f077615294f938fb7f936d9eb340e51ea7db2e915f5b888110610d4d57508360019596979810610d35575b505050811b0160cd556108f6565b01515f1960f88460031b161c19169055858080610d27565b91926020600181928685015181550194019201610d12565b60cd5f52601f820160051c7f83978b4c69c48dd978ab43fe30f077615294f938fb7f936d9eb340e51ea7db2e019060208310610dde575b601f0160051c7f83978b4c69c48dd978ab43fe30f077615294f938fb7f936d9eb340e51ea7db2e01905b818110610dd357506108c5565b5f8155600101610dc6565b7f83978b4c69c48dd978ab43fe30f077615294f938fb7f936d9eb340e51ea7db2e9150610d9c565b634e487b7160e01b5f52604160045260245ffd5b01519050868061088b565b60cc5f9081527f47197230e1e4b29fc0bd84d7d78966c0925452aff72a2a121538b102457e9ebe9350601f198516905b818110610e915750908460019594939210610e79575b505050811b0160cc556108a0565b01515f1960f88460031b161c19169055868080610e6b565b92936020600181928786015181550195019301610e55565b90915060cc5f52601f830160051c7f47197230e1e4b29fc0bd84d7d78966c0925452aff72a2a121538b102457e9ebe019060208410610f2c575b90601f8493920160051c7f47197230e1e4b29fc0bd84d7d78966c0925452aff72a2a121538b102457e9ebe01905b818110610f1e5750610875565b5f8155849350600101610f11565b7f47197230e1e4b29fc0bd84d7d78966c0925452aff72a2a121538b102457e9ebe9150610ee3565b61ffff1916610101175f558561084c565b5060ff82161561083e565b61ffff1916610101175f5584610808565b5060ff8216156107fa565b61ffff1916610101175f55836107e4565b5060ff8216156107d6565b346101955760203660031901126101955761025260043533611b9c565b3461019557604036600319011261019557610fde611763565b335f9081527fa0f6cebec7fb889cc5ac88647269c4c0108fb926abd2111b551f234b348876df6020526040902054602435919060ff1615611139576001600160a01b03169081156110f45760ff61012d5416611089577fddf252ad1be2c89b69c2b068fc378daa952ba7f163c4a11628f55a4df523b3ef6020826110655f9460cb5461184b565b60cb5584845260c982526040842061107e82825461184b565b9055604051908152a3005b60405162461bcd60e51b815260206004820152602a60248201527f45524332305061757361626c653a20746f6b656e207472616e7366657220776860448201527f696c6520706175736564000000000000000000000000000000000000000000006064820152608490fd5b60405162461bcd60e51b815260206004820152601f60248201527f45524332303a206d696e7420746f20746865207a65726f2061646472657373006044820152606490fd5b60405162461bcd60e51b815260206004820152603660248201527f45524332305072657365744d696e7465725061757365723a206d75737420686160448201527f7665206d696e74657220726f6c6520746f206d696e74000000000000000000006064820152608490fd5b34610195575f36600319011261019557335f9081527fbfe93621c6aa2dbf737e9056c9b79e4d30ee4f6b28b18be2cb71aac8a7bf258e602052604090205460ff16156112705761012d5460ff81161561122b5760ff191661012d557f5db9ee0a495bf2e6ff9c91a7834c1ba4fdd244a5e8aa4e537bd38aeae4b073aa6020604051338152a1005b60405162461bcd60e51b815260206004820152601460248201527f5061757361626c653a206e6f74207061757365640000000000000000000000006044820152606490fd5b60405162461bcd60e51b815260206004820152603960248201527f45524332305072657365744d696e7465725061757365723a206d75737420686160448201527f76652070617573657220726f6c6520746f20756e7061757365000000000000006064820152608490fd5b34610195576040366003190112610195576102de6112f7611763565b335f5260ca60205260405f206001600160a01b0382165f5260205261132360405f20602435905461184b565b90336118de565b3461019557604036600319011261019557600435611346611779565b906001600160a01b03821690338203611376576113666102529382611faf565b5f52609760205260405f20612033565b60405162461bcd60e51b815260206004820152602f60248201527f416363657373436f6e74726f6c3a2063616e206f6e6c792072656e6f756e636560448201527f20726f6c657320666f722073656c6600000000000000000000000000000000006064820152608490fd5b34610195575f36600319011261019557602060405160128152f35b346101955760403660031901126101955761025260043561141b611779565b90611435610226825f526065602052600160405f20015490565b805f52606560205260405f206001600160a01b0383165f5260205260ff60405f20541615611479575b5f5260976020526001600160a01b0360405f20911690611f40565b805f52606560205260405f206001600160a01b0383165f5260205260405f20600160ff19825416179055336001600160a01b038316827f2f8788117e7eff1d82e926ec794901d17c78024a50270940304540a733656f0d5f80a461145e565b346101955760203660031901126101955760206115036004355f526065602052600160405f20015490565b604051908152f35b3461019557606036600319011261019557611524611763565b61152c611779565b9061153b6044358093836119e2565b6001600160a01b0381165f5260ca60205260405f206001600160a01b0333165f5260205260405f205491808310611579576102de92039033906118de565b60405162461bcd60e51b815260206004820152602860248201527f45524332303a207472616e7366657220616d6f756e742065786365656473206160448201527f6c6c6f77616e63650000000000000000000000000000000000000000000000006064820152608490fd5b34610195575f36600319011261019557602060cb54604051908152f35b34610195576040366003190112610195576102de61161d611763565b60243590336118de565b34610195575f366003190112610195576040515f60cc5461164781611813565b8084529060018116908115610475575060011461166e57610413836104078185038261178f565b91905060cc5f527f47197230e1e4b29fc0bd84d7d78966c0925452aff72a2a121538b102457e9ebe915f905b8082106116b2575090915081016020016104076103f7565b91926001816020925483858801015201910190929161169a565b34610195576020366003190112610195576004359063ffffffff60e01b821680920361019557602091635a05180f60e01b811490811561170e575b5015158152f35b637965db0b60e01b811491508115611728575b5083611707565b6301ffc9a760e01b14905083611721565b602060409281835280519182918282860152018484015e5f828201840152601f01601f1916010190565b600435906001600160a01b038216820361019557565b602435906001600160a01b038216820361019557565b90601f8019910116810190811067ffffffffffffffff821117610e0657604052565b67ffffffffffffffff8111610e0657601f01601f191660200190565b81601f82011215610195578035906117e4826117b1565b926117f2604051948561178f565b8284526020838301011161019557815f926020809301838601378301015290565b90600182811c92168015611841575b602083101461182d57565b634e487b7160e01b5f52602260045260245ffd5b91607f1691611822565b9190820180921161185857565b634e487b7160e01b5f52601160045260245ffd5b1561187357565b60405162461bcd60e51b815260206004820152602e60248201527f496e697469616c697a61626c653a20636f6e747261637420697320616c72656160448201527f647920696e697469616c697a65640000000000000000000000000000000000006064820152608490fd5b6001600160a01b0316908115611991576001600160a01b03169182156119415760207f8c5be1e5ebec7d5bd14f71427d1e84f3dd0314c0f7b2291e5b200ac8c7c3b92591835f5260ca825260405f20855f5282528060405f2055604051908152a3565b60405162461bcd60e51b815260206004820152602260248201527f45524332303a20617070726f766520746f20746865207a65726f206164647265604482015261737360f01b6064820152608490fd5b60405162461bcd60e51b8152602060048201526024808201527f45524332303a20617070726f76652066726f6d20746865207a65726f206164646044820152637265737360e01b6064820152608490fd5b6001600160a01b0316908115611b31576001600160a01b0316918215611ae05760ff61012d541661108957815f5260c960205260405f2054818110611a7557817fddf252ad1be2c89b69c2b068fc378daa952ba7f163c4a11628f55a4df523b3ef92602092855f5260c984520360405f2055845f5260c9825260405f20611a6a82825461184b565b9055604051908152a3565b60405162461bcd60e51b815260206004820152602660248201527f45524332303a207472616e7366657220616d6f756e742065786365656473206260448201527f616c616e636500000000000000000000000000000000000000000000000000006064820152608490fd5b60405162461bcd60e51b815260206004820152602360248201527f45524332303a207472616e7366657220746f20746865207a65726f206164647260448201526265737360e81b6064820152608490fd5b60405162461bcd60e51b815260206004820152602560248201527f45524332303a207472616e736665722066726f6d20746865207a65726f20616460448201527f64726573730000000000000000000000000000000000000000000000000000006064820152608490fd5b6001600160a01b03168015611c6a5760ff61012d541661108957805f5260c960205260405f2054828110611c1a578290825f5260c96020520360405f205560cb54918083039283116118585760207fddf252ad1be2c89b69c2b068fc378daa952ba7f163c4a11628f55a4df523b3ef915f9460cb55604051908152a3565b60405162461bcd60e51b815260206004820152602260248201527f45524332303a206275726e20616d6f756e7420657863656564732062616c616e604482015261636560f01b6064820152608490fd5b60405162461bcd60e51b815260206004820152602160248201527f45524332303a206275726e2066726f6d20746865207a65726f206164647265736044820152607360f81b6064820152608490fd5b90815f52606560205260405f206001600160a01b0382165f5260205260ff60405f20541615611ce6575050565b6001600160a01b0316611cf9602a6117b1565b91611d07604051938461178f565b602a8352611d15602a6117b1565b602084019290601f1901368437835115611ed65760308353835160011015611ed6576078602185015360295b60018111611eea5750611e5157611d5860426117b1565b90611d66604051928361178f565b60428252611d7460426117b1565b602083019190601f1901368337825115611ed65760308253825160011015611ed6576078602184015360415b60018111611e955750611e5157611e4d93603760119284611e3595506040519687947f416363657373436f6e74726f6c3a206163636f756e742000000000000000000060208701525180918587015e8401907f206973206d697373696e6720726f6c652000000000000000000000000000000084830152518092604883015e01015f838201520301601f19810183528261178f565b60405162461bcd60e51b815291829160048301611739565b0390fd5b606460405162461bcd60e51b815260206004820152602060248201527f537472696e67733a20686578206c656e67746820696e73756666696369656e746044820152fd5b90600f81166010811015611ed6576f181899199a1a9b1b9c1cb0b131b232b360811b901a611ec38386612149565b5360041c908015611858575f1901611da0565b634e487b7160e01b5f52603260045260245ffd5b90600f81166010811015611ed6576f181899199a1a9b1b9c1cb0b131b232b360811b901a611f188387612149565b5360041c908015611858575f1901611d41565b8054821015611ed6575f5260205f2001905f90565b6001810190825f528160205260405f2054155f14611fa857805468010000000000000000811015610e0657611f95611f7f826001879401855584611f2b565b819391549060031b91821b915f19901b19161790565b905554915f5260205260405f2055600190565b5050505f90565b805f52606560205260405f206001600160a01b0383165f5260205260ff60405f205416611fda575050565b805f52606560205260405f206001600160a01b0383165f5260205260405f2060ff1981541690556001600160a01b03339216907ff6391f5c32d9c69d2a47ea670b442974b53935d1edc7fd64eb21e047a839171b5f80a4565b906001820191815f528260205260405f20548015155f146120f0575f1981018181116118585782545f19810191908211611858578082036120bb575b505050805480156120a7575f1901906120888282611f2b565b8154905f199060031b1b19169055555f526020525f6040812055600190565b634e487b7160e01b5f52603160045260245ffd5b6120db6120cb611f7f9386611f2b565b90549060031b1c92839286611f2b565b90555f528360205260405f20555f808061206f565b505050505f90565b5f5460ff8160081c1690811580928161213e575b6121159061186c565b61212c575b5061212157565b61ff00195f54165f55565b61ffff1916610101175f90815561211a565b5060ff82161561210c565b908151811015611ed657016020019056fea264697066735822122008baa34f6716d9645f7ba3d270fef54d8926197745ae0e1b0a5500d8398d78d364736f6c634300081a0033","linkReferences":{}},"methodIdentifiers":{"DEFAULT_ADMIN_ROLE()":"a217fddf","MINTER_ROLE()":"d5391393","PAUSER_ROLE()":"e63ab1e9","allowance(address,address)":"dd62ed3e","approve(address,uint256)":"095ea7b3","balanceOf(address)":"70a08231","burn(uint256)":"42966c68","burnFrom(address,uint256)":"79cc6790","decimals()":"313ce567","decreaseAllowance(address,uint256)":"a457c2d7","getRoleAdmin(bytes32)":"248a9ca3","getRoleMember(bytes32,uint256)":"9010d07c","getRoleMemberCount(bytes32)":"ca15c873","grantRole(bytes32,address)":"2f2ff15d","hasRole(bytes32,address)":"91d14854","increaseAllowance(address,uint256)":"39509351","initialize(string,string)":"4cd88b76","mint(address,uint256)":"40c10f19","name()":"06fdde03","pause()":"8456cb59","paused()":"5c975abb","renounceRole(bytes32,address)":"36568abe","revokeRole(bytes32,address)":"d547741f","supportsInterface(bytes4)":"01ffc9a7","symbol()":"95d89b41","totalSupply()":"18160ddd","transfer(address,uint256)":"a9059cbb","transferFrom(address,address,uint256)":"23b872dd","unpause()":"3f4ba83a"},"id":419}