{"abi":[{"type":"function","name":"current","inputs":[],"outputs":[{"name":"","type":"uint256","internalType":"uint256"}],"stateMutability":"view"},{"type":"function","name":"decrement","inputs":[],"outputs":[],"stateMutability":"nonpayable"},{"type":"function","name":"increment","inputs":[],"outputs":[],"stateMutability":"nonpayable"},{"type":"function","name":"reset","inputs":[],"outputs":[],"stateMutability":"nonpayable"}],"bytecode":{"object":"0x60808060405234601557610126908161001a8239f35b5f80fdfe60808060405260043610156011575f80fd5b5f3560e01c9081632baeceb714608e575080639fa6a6e3146073578063d09de08a14605b5763d826f88f146043575f80fd5b346057575f3660031901126057575f600155005b5f80fd5b346057575f3660031901126057576001805481019055005b346057575f3660031901126057576020600154604051908152f35b346057575f36600319011260575760015490811560ae57505f1901600155005b62461bcd60e51b815260206004820152601b60248201527f436f756e7465723a2064656372656d656e74206f766572666c6f7700000000006044820152606490fdfea2646970667358221220a0887de05be7650facbc6b88e46cd407bee847034b6293080807b1a167e9c97f64736f6c634300081a0033","linkReferences":{}},"methodIdentifiers":{"current()":"9fa6a6e3","decrement()":"2baeceb7","increment()":"d09de08a","reset()":"d826f88f"},"id":323}