{"abi":[{"type":"function","name":"DEFAULT_ADMIN_ROLE","inputs":[],"outputs":[{"name":"","type":"bytes32","internalType":"bytes32"}],"stateMutability":"view"},{"type":"function","name":"getRoleAdmin","inputs":[{"name":"role","type":"bytes32","internalType":"bytes32"}],"outputs":[{"name":"","type":"bytes32","internalType":"bytes32"}],"stateMutability":"view"},{"type":"function","name":"getRoleMember","inputs":[{"name":"role","type":"bytes32","internalType":"bytes32"},{"name":"index","type":"uint256","internalType":"uint256"}],"outputs":[{"name":"","type":"address","internalType":"address"}],"stateMutability":"view"},{"type":"function","name":"getRoleMemberCount","inputs":[{"name":"role","type":"bytes32","internalType":"bytes32"}],"outputs":[{"name":"","type":"uint256","internalType":"uint256"}],"stateMutability":"view"},{"type":"function","name":"grantRole","inputs":[{"name":"role","type":"bytes32","internalType":"bytes32"},{"name":"account","type":"address","internalType":"address"}],"outputs":[],"stateMutability":"nonpayable"},{"type":"function","name":"hasRole","inputs":[{"name":"role","type":"bytes32","internalType":"bytes32"},{"name":"account","type":"address","internalType":"address"}],"outputs":[{"name":"","type":"bool","internalType":"bool"}],"stateMutability":"view"},{"type":"function","name":"renounceRole","inputs":[{"name":"role","type":"bytes32","internalType":"bytes32"},{"name":"account","type":"address","internalType":"address"}],"outputs":[],"stateMutability":"nonpayable"},{"type":"function","name":"revokeRole","inputs":[{"name":"role","type":"bytes32","internalType":"bytes32"},{"name":"account","type":"address","internalType":"address"}],"outputs":[],"stateMutability":"nonpayable"},{"type":"function","name":"senderProtected","inputs":[{"name":"roleId","type":"bytes32","internalType":"bytes32"}],"outputs":[],"stateMutability":"nonpayable"},{"type":"function","name":"setRoleAdmin","inputs":[{"name":"roleId","type":"bytes32","internalType":"bytes32"},{"name":"adminRoleId","type":"bytes32","internalType":"bytes32"}],"outputs":[],"stateMutability":"nonpayable"},{"type":"function","name":"supportsInterface","inputs":[{"name":"interfaceId","type":"bytes4","internalType":"bytes4"}],"outputs":[{"name":"","type":"bool","internalType":"bool"}],"stateMutability":"view"},{"type":"event","name":"RoleAdminChanged","inputs":[{"name":"role","type":"bytes32","indexed":true,"internalType":"bytes32"},{"name":"previousAdminRole","type":"bytes32","indexed":true,"internalType":"bytes32"},{"name":"newAdminRole","type":"bytes32","indexed":true,"internalType":"bytes32"}],"anonymous":false},{"type":"event","name":"RoleGranted","inputs":[{"name":"role","type":"bytes32","indexed":true,"internalType":"bytes32"},{"name":"account","type":"address","indexed":true,"internalType":"address"},{"name":"sender","type":"address","indexed":true,"internalType":"address"}],"anonymous":false},{"type":"event","name":"RoleRevoked","inputs":[{"name":"role","type":"bytes32","indexed":true,"internalType":"bytes32"},{"name":"account","type":"address","indexed":true,"internalType":"address"},{"name":"sender","type":"address","indexed":true,"internalType":"address"}],"anonymous":false}],"bytecode":{"object":"0x6080806040523460155761097e908161001a8239f35b5f80fdfe6080806040526004361015610012575f80fd5b5f3560e01c90816301ffc9a7146103e4575080631e4e00911461037e578063248a9ca31461034b5780632f2ff15d1461027d57806336568abe146101d45780634b9304a4146101b75780639010d07c1461017357806391d1485414610136578063a217fddf1461011c578063ca15c873146100f25763d547741f14610095575f80fd5b346100ee576100ec6100a636610451565b906100c76100c0825f526065602052600160405f20015490565b33906104ad565b6100d182826107d2565b5f5260976020526001600160a01b0360405f20911690610856565b005b5f80fd5b346100ee5760203660031901126100ee576004355f526097602052602060405f2054604051908152f35b346100ee575f3660031901126100ee5760206040515f8152f35b346100ee5761014436610451565b905f5260656020526001600160a01b0360405f2091165f52602052602060ff60405f2054166040519015158152f35b346100ee5760403660031901126100ee576004355f52609760205260206001600160a01b036101a760243560405f2061074e565b90549060031b1c16604051908152f35b346100ee5760203660031901126100ee576100ec336004356104ad565b346100ee576101e236610451565b906001600160a01b03821690338203610212576102026100ec93826107d2565b5f52609760205260405f20610856565b60405162461bcd60e51b815260206004820152602f60248201527f416363657373436f6e74726f6c3a2063616e206f6e6c792072656e6f756e636560448201527f20726f6c657320666f722073656c6600000000000000000000000000000000006064820152608490fd5b346100ee576100ec61028e36610451565b906102a86100c0825f526065602052600160405f20015490565b805f52606560205260405f206001600160a01b0383165f5260205260ff60405f205416156102ec575b5f5260976020526001600160a01b0360405f20911690610763565b805f52606560205260405f206001600160a01b0383165f5260205260405f20600160ff19825416179055336001600160a01b038316827f2f8788117e7eff1d82e926ec794901d17c78024a50270940304540a733656f0d5f80a46102d1565b346100ee5760203660031901126100ee5760206103766004355f526065602052600160405f20015490565b604051908152f35b346100ee5760403660031901126100ee57600435602435906103ac815f526065602052600160405f20015490565b90805f52606560205282600160405f2001557fbd79b86ffe0ab8e8776151514217cd7cacd52c909f66475c3af44e129f0b00ff5f80a4005b346100ee5760203660031901126100ee576004359063ffffffff60e01b82168092036100ee57602091635a05180f60e01b8114908115610426575b5015158152f35b637965db0b60e01b811491508115610440575b508361041f565b6301ffc9a760e01b14905083610439565b60409060031901126100ee57600435906024356001600160a01b03811681036100ee5790565b90601f8019910116810190811067ffffffffffffffff82111761049957604052565b634e487b7160e01b5f52604160045260245ffd5b90815f52606560205260405f206001600160a01b0382165f5260205260ff60405f205416156104da575050565b6001600160a01b03166104ed602a61091b565b916104fb6040519384610477565b602a8352610509602a61091b565b602084019290601f19013684378351156106f957603083538351600110156106f9576078602185015360295b6001811161070d5750610660579061054d604261091b565b9061055b6040519283610477565b60428252610569604261091b565b602083019390601f19013685378251156106f957603084538251600110156106f9576078602184015360415b600181116106a4575061066057601161062891603760449560405195869360208501997f416363657373436f6e74726f6c3a206163636f756e74200000000000000000008b525180918587015e8401907f206973206d697373696e6720726f6c652000000000000000000000000000000084830152518092604883015e01015f838201520301601f198101835282610477565b60405192839162461bcd60e51b8352602060048401525180918160248501528484015e5f828201840152601f01601f19168101030190fd5b606460405162461bcd60e51b815260206004820152602060248201527f537472696e67733a20686578206c656e67746820696e73756666696369656e746044820152fd5b90600f811660108110156106f9576f181899199a1a9b1b9c1cb0b131b232b360811b901a6106d28386610937565b5360041c9080156106e5575f1901610595565b634e487b7160e01b5f52601160045260245ffd5b634e487b7160e01b5f52603260045260245ffd5b90600f811660108110156106f9576f181899199a1a9b1b9c1cb0b131b232b360811b901a61073b8387610937565b5360041c9080156106e5575f1901610535565b80548210156106f9575f5260205f2001905f90565b6001810190825f528160205260405f2054155f146107cb57805468010000000000000000811015610499576107b86107a282600187940185558461074e565b819391549060031b91821b915f19901b19161790565b905554915f5260205260405f2055600190565b5050505f90565b805f52606560205260405f206001600160a01b0383165f5260205260ff60405f2054166107fd575050565b805f52606560205260405f206001600160a01b0383165f5260205260405f2060ff1981541690556001600160a01b03339216907ff6391f5c32d9c69d2a47ea670b442974b53935d1edc7fd64eb21e047a839171b5f80a4565b906001820191815f528260205260405f20548015155f14610913575f1981018181116106e55782545f198101919082116106e5578082036108de575b505050805480156108ca575f1901906108ab828261074e565b8154905f199060031b1b19169055555f526020525f6040812055600190565b634e487b7160e01b5f52603160045260245ffd5b6108fe6108ee6107a2938661074e565b90549060031b1c9283928661074e565b90555f528360205260405f20555f8080610892565b505050505f90565b67ffffffffffffffff811161049957601f01601f191660200190565b9081518110156106f957016020019056fea2646970667358221220aa02942ff80c2797d60102cc5ea66524cf05c0b62ff630b2afdd76ed70d68b2864736f6c634300081a0033","linkReferences":{}},"methodIdentifiers":{"DEFAULT_ADMIN_ROLE()":"a217fddf","getRoleAdmin(bytes32)":"248a9ca3","getRoleMember(bytes32,uint256)":"9010d07c","getRoleMemberCount(bytes32)":"ca15c873","grantRole(bytes32,address)":"2f2ff15d","hasRole(bytes32,address)":"91d14854","renounceRole(bytes32,address)":"36568abe","revokeRole(bytes32,address)":"d547741f","senderProtected(bytes32)":"4b9304a4","setRoleAdmin(bytes32,bytes32)":"1e4e0091","supportsInterface(bytes4)":"01ffc9a7"},"id":312}