{"abi":[{"type":"function","name":"approve","inputs":[{"name":"to","type":"address","internalType":"address"},{"name":"tokenId","type":"uint256","internalType":"uint256"}],"outputs":[],"stateMutability":"nonpayable"},{"type":"function","name":"balanceOf","inputs":[{"name":"owner","type":"address","internalType":"address"}],"outputs":[{"name":"","type":"uint256","internalType":"uint256"}],"stateMutability":"view"},{"type":"function","name":"burn","inputs":[{"name":"tokenId","type":"uint256","internalType":"uint256"}],"outputs":[],"stateMutability":"nonpayable"},{"type":"function","name":"exists","inputs":[{"name":"tokenId","type":"uint256","internalType":"uint256"}],"outputs":[{"name":"","type":"bool","internalType":"bool"}],"stateMutability":"view"},{"type":"function","name":"getApproved","inputs":[{"name":"tokenId","type":"uint256","internalType":"uint256"}],"outputs":[{"name":"","type":"address","internalType":"address"}],"stateMutability":"view"},{"type":"function","name":"isApprovedForAll","inputs":[{"name":"owner","type":"address","internalType":"address"},{"name":"operator","type":"address","internalType":"address"}],"outputs":[{"name":"","type":"bool","internalType":"bool"}],"stateMutability":"view"},{"type":"function","name":"mint","inputs":[{"name":"to","type":"address","internalType":"address"},{"name":"tokenId","type":"uint256","internalType":"uint256"}],"outputs":[],"stateMutability":"nonpayable"},{"type":"function","name":"name","inputs":[],"outputs":[{"name":"","type":"string","internalType":"string"}],"stateMutability":"view"},{"type":"function","name":"ownerOf","inputs":[{"name":"tokenId","type":"uint256","internalType":"uint256"}],"outputs":[{"name":"","type":"address","internalType":"address"}],"stateMutability":"view"},{"type":"function","name":"pause","inputs":[],"outputs":[],"stateMutability":"nonpayable"},{"type":"function","name":"paused","inputs":[],"outputs":[{"name":"","type":"bool","internalType":"bool"}],"stateMutability":"view"},{"type":"function","name":"safeMint","inputs":[{"name":"to","type":"address","internalType":"address"},{"name":"tokenId","type":"uint256","internalType":"uint256"},{"name":"_data","type":"bytes","internalType":"bytes"}],"outputs":[],"stateMutability":"nonpayable"},{"type":"function","name":"safeMint","inputs":[{"name":"to","type":"address","internalType":"address"},{"name":"tokenId","type":"uint256","internalType":"uint256"}],"outputs":[],"stateMutability":"nonpayable"},{"type":"function","name":"safeTransferFrom","inputs":[{"name":"from","type":"address","internalType":"address"},{"name":"to","type":"address","internalType":"address"},{"name":"tokenId","type":"uint256","internalType":"uint256"}],"outputs":[],"stateMutability":"nonpayable"},{"type":"function","name":"safeTransferFrom","inputs":[{"name":"from","type":"address","internalType":"address"},{"name":"to","type":"address","internalType":"address"},{"name":"tokenId","type":"uint256","internalType":"uint256"},{"name":"_data","type":"bytes","internalType":"bytes"}],"outputs":[],"stateMutability":"nonpayable"},{"type":"function","name":"setApprovalForAll","inputs":[{"name":"operator","type":"address","internalType":"address"},{"name":"approved","type":"bool","internalType":"bool"}],"outputs":[],"stateMutability":"nonpayable"},{"type":"function","name":"supportsInterface","inputs":[{"name":"interfaceId","type":"bytes4","internalType":"bytes4"}],"outputs":[{"name":"","type":"bool","internalType":"bool"}],"stateMutability":"view"},{"type":"function","name":"symbol","inputs":[],"outputs":[{"name":"","type":"string","internalType":"string"}],"stateMutability":"view"},{"type":"function","name":"tokenURI","inputs":[{"name":"tokenId","type":"uint256","internalType":"uint256"}],"outputs":[{"name":"","type":"string","internalType":"string"}],"stateMutability":"view"},{"type":"function","name":"transferFrom","inputs":[{"name":"from","type":"address","internalType":"address"},{"name":"to","type":"address","internalType":"address"},{"name":"tokenId","type":"uint256","internalType":"uint256"}],"outputs":[],"stateMutability":"nonpayable"},{"type":"function","name":"unpause","inputs":[],"outputs":[],"stateMutability":"nonpayable"},{"type":"event","name":"Approval","inputs":[{"name":"owner","type":"address","indexed":true,"internalType":"address"},{"name":"approved","type":"address","indexed":true,"internalType":"address"},{"name":"tokenId","type":"uint256","indexed":true,"internalType":"uint256"}],"anonymous":false},{"type":"event","name":"ApprovalForAll","inputs":[{"name":"owner","type":"address","indexed":true,"internalType":"address"},{"name":"operator","type":"address","indexed":true,"internalType":"address"},{"name":"approved","type":"bool","indexed":false,"internalType":"bool"}],"anonymous":false},{"type":"event","name":"Paused","inputs":[{"name":"account","type":"address","indexed":false,"internalType":"address"}],"anonymous":false},{"type":"event","name":"Transfer","inputs":[{"name":"from","type":"address","indexed":true,"internalType":"address"},{"name":"to","type":"address","indexed":true,"internalType":"address"},{"name":"tokenId","type":"uint256","indexed":true,"internalType":"uint256"}],"anonymous":false},{"type":"event","name":"Unpaused","inputs":[{"name":"account","type":"address","indexed":false,"internalType":"address"}],"anonymous":false}],"bytecode":{"object":"0x60808060405234601557611802908161001a8239f35b5f80fdfe60806040526004361015610011575f80fd5b5f3560e01c806301ffc9a71461016457806306fdde031461015f578063081812fc1461015a578063095ea7b31461015557806323b872dd146101505780633f4ba83a1461014b57806340c10f191461014657806342842e0e1461014157806342966c681461013c5780634f558e79146101375780635c975abb146101325780636352211e1461012d57806370a08231146101285780638456cb59146101235780638832e6e31461011e57806395d89b4114610119578063a144819414610114578063a22cb4651461010f578063b88d4fde1461010a578063c87b56dd146101055763e985e9c514610100575f80fd5b610cc4565b610bc7565b610b78565b610a8f565b610a51565b61099c565b610942565b61080e565b61075b565b61073d565b61071b565b6106de565b6105c6565b61059d565b610578565b6104e4565b6104bb565b61038b565b610330565b61023d565b610197565b7fffffffff0000000000000000000000000000000000000000000000000000000081160361019357565b5f80fd5b346101935760203660031901126101935760206004356101b681610169565b63ffffffff60e01b166380ac58cd60e01b81149081156101f4575b81156101e3575b506040519015158152f35b6301ffc9a760e01b1490505f6101d8565b635b5e139f60e01b811491506101d1565b805180835260209291819084018484015e5f828201840152601f01601f1916010190565b90602061023a928181520190610205565b90565b34610193575f366003190112610193576040515f6065548060011c9060018116908115610326575b6020831082146103125782855260208501919081156102f957506001146102a7575b6102a384610297818603826108b9565b60405191829182610229565b0390f35b60655f9081529250907f8ff97419363ffd7000167f130ef7168fbea05faf9251824ca5043f113cc6a7c75b8184106102e55750500161029782610287565b8054848401526020909301926001016102d2565b60ff191682525090151560051b01905061029782610287565b634e487b7160e01b5f52602260045260245ffd5b91607f1691610265565b3461019357602036600319011261019357602061034e600435610d22565b6001600160a01b0360405191168152f35b600435906001600160a01b038216820361019357565b602435906001600160a01b038216820361019357565b34610193576040366003190112610193576103a461035f565b6024356103b081610eaf565b916001600160a01b038316806001600160a01b03831614610432576103e8936103e39133149081156103ea575b50610db7565b610fc6565b005b61042c91506104259061040f33916001600160a01b03165f52606a60205260405f2090565b906001600160a01b03165f5260205260405f2090565b5460ff1690565b5f6103dd565b60405162461bcd60e51b815260206004820152602160248201527f4552433732313a20617070726f76616c20746f2063757272656e74206f776e656044820152603960f91b6064820152608490fd5b6060906003190112610193576004356001600160a01b038116810361019357906024356001600160a01b0381168103610193579060443590565b34610193576103e86104cc36610481565b916104df6104da843361102d565b610e29565b6111bc565b34610193575f3660031901126101935760975460ff8116156105335760ff19166097557f5db9ee0a495bf2e6ff9c91a7834c1ba4fdd244a5e8aa4e537bd38aeae4b073aa6020604051338152a1005b60405162461bcd60e51b815260206004820152601460248201527f5061757361626c653a206e6f74207061757365640000000000000000000000006044820152606490fd5b34610193576040366003190112610193576103e861059461035f565b60243590611311565b34610193576103e86105ae36610481565b90604051926105be6020856108b9565b5f8452610f38565b34610193576020366003190112610193576004356105e381610eaf565b60ff60975416610673576001600160a01b035f9161060084610f73565b61061b816001600160a01b03165f52606860205260405f2090565b610625815461118d565b905561064c61063c855f52606760205260405f2090565b6001600160a01b03198154169055565b167fddf252ad1be2c89b69c2b068fc378daa952ba7f163c4a11628f55a4df523b3ef8280a4005b60405162461bcd60e51b815260206004820152602b60248201527f4552433732315061757361626c653a20746f6b656e207472616e73666572207760448201527f68696c65207061757365640000000000000000000000000000000000000000006064820152608490fd5b346101935760203660031901126101935760206107116004355f5260676020526001600160a01b0360405f205416151590565b6040519015158152f35b34610193575f36600319011261019357602060ff609754166040519015158152f35b3461019357602036600319011261019357602061034e600435610eaf565b34610193576020366003190112610193576001600160a01b0361077c61035f565b1680156107a3575f5260686020526102a360405f2054604051918291829190602083019252565b60405162461bcd60e51b815260206004820152602a60248201527f4552433732313a2062616c616e636520717565727920666f7220746865207a6560448201527f726f2061646472657373000000000000000000000000000000000000000000006064820152608490fd5b34610193575f3660031901126101935760975460ff81166108605760019060ff1916176097557f62e78cea01bee320cd4e420270b5ea74000d11b0c9f74754ebdbfc544b05a2586020604051338152a1005b60405162461bcd60e51b815260206004820152601060248201527f5061757361626c653a20706175736564000000000000000000000000000000006044820152606490fd5b634e487b7160e01b5f52604160045260245ffd5b90601f8019910116810190811067ffffffffffffffff8211176108db57604052565b6108a5565b67ffffffffffffffff81116108db57601f01601f191660200190565b81601f8201121561019357803590610913826108e0565b9261092160405194856108b9565b8284526020838301011161019357815f926020809301838601378301015290565b346101935760603660031901126101935761095b61035f565b602435906044359067ffffffffffffffff8211610193576103e8926109876109979336906004016108fc565b916109928282611311565b61165c565b611439565b34610193575f366003190112610193576040515f6066548060011c9060018116908115610a47575b6020831082146103125782855260208501919081156102f957506001146109f5576102a384610297818603826108b9565b60665f9081529250907f46501879b8ca8525e8c2fd519e2fbfcfa2ebea26501294aa02cbfcfb12e943545b818410610a335750500161029782610287565b805484840152602090930192600101610a20565b91607f16916109c4565b34610193576040366003190112610193576103e8610997610a7061035f565b60243560405191610a826020846108b9565b5f83526109928282611311565b3461019357604036600319011261019357610aa861035f565b6024358015158103610193576001600160a01b03821691338314610b335781610af0610b0192335f52606a60205260405f20906001600160a01b03165f5260205260405f2090565b9060ff801983541691151516179055565b604051901515815233907f17307eab39ab6107e8899845ad3d59bd9653f200f220920489ca2b5937696c3190602090a3005b60405162461bcd60e51b815260206004820152601960248201527f4552433732313a20617070726f766520746f2063616c6c6572000000000000006044820152606490fd5b3461019357608036600319011261019357610b9161035f565b610b99610375565b906044356064359267ffffffffffffffff841161019357610bc16103e89436906004016108fc565b92610f38565b3461019357602036600319011261019357600435610bf9815f5260676020526001600160a01b0360405f205416151590565b15610c5957610c06610e9b565b805115610c4757610297610c3391610c39610c236102a395611510565b6040519485936020850190610f61565b90610f61565b03601f1981018352826108b9565b50506102a3610c54610e9b565b610297565b60405162461bcd60e51b815260206004820152602f60248201527f4552433732314d657461646174613a2055524920717565727920666f72206e6f60448201527f6e6578697374656e7420746f6b656e00000000000000000000000000000000006064820152608490fd5b3461019357604036600319011261019357602060ff610d16610ce461035f565b6001600160a01b03610cf4610375565b91165f52606a845260405f20906001600160a01b03165f5260205260405f2090565b54166040519015158152f35b610d40815f5260676020526001600160a01b0360405f205416151590565b15610d5d575f5260696020526001600160a01b0360405f20541690565b60405162461bcd60e51b815260206004820152602c60248201527f4552433732313a20617070726f76656420717565727920666f72206e6f6e657860448201526b34b9ba32b73a103a37b5b2b760a11b6064820152608490fd5b15610dbe57565b60405162461bcd60e51b815260206004820152603860248201527f4552433732313a20617070726f76652063616c6c6572206973206e6f74206f7760448201527f6e6572206e6f7220617070726f76656420666f7220616c6c00000000000000006064820152608490fd5b15610e3057565b60405162461bcd60e51b815260206004820152603160248201527f4552433732313a207472616e736665722063616c6c6572206973206e6f74206f60448201527f776e6572206e6f7220617070726f7665640000000000000000000000000000006064820152608490fd5b60405190610eaa6020836108b9565b5f8252565b5f5260676020526001600160a01b0360405f2054168015610ecd5790565b60405162461bcd60e51b815260206004820152602960248201527f4552433732313a206f776e657220717565727920666f72206e6f6e657869737460448201527f656e7420746f6b656e00000000000000000000000000000000000000000000006064820152608490fd5b91610f5f939161099793610f4f6104da843361102d565b610f5a8383836111bc565b61178b565b565b805191908290602001825e015f815290565b805f52606960205260405f206001600160a01b031981541690555f6001600160a01b03610f9f83610eaf565b167f8c5be1e5ebec7d5bd14f71427d1e84f3dd0314c0f7b2291e5b200ac8c7c3b9258280a4565b815f526069602052610ff18160405f20906001600160a01b03166001600160a01b0319825416179055565b6001600160a01b038061100384610eaf565b169116907f8c5be1e5ebec7d5bd14f71427d1e84f3dd0314c0f7b2291e5b200ac8c7c3b9255f80a4565b61104b825f5260676020526001600160a01b0360405f205416151590565b156110c75761105982610eaf565b6001600160a01b0382166001600160a01b03821681149384156110a8575b5050821561108457505090565b61023a92509061040f610425926001600160a01b03165f52606a60205260405f2090565b6001600160a01b03919294506110bd90610d22565b1614915f80611077565b60405162461bcd60e51b815260206004820152602c60248201527f4552433732313a206f70657261746f7220717565727920666f72206e6f6e657860448201526b34b9ba32b73a103a37b5b2b760a11b6064820152608490fd5b1561112857565b60405162461bcd60e51b8152602060048201526024808201527f4552433732313a207472616e7366657220746f20746865207a65726f206164646044820152637265737360e01b6064820152608490fd5b634e487b7160e01b5f52601160045260245ffd5b5f1981019190821161119b57565b611179565b906001820180921161119b57565b603001908160301161119b57565b906001600160a01b03906111cf84610eaf565b82841692839116036112a657806112206001600160a01b036112809316946111f8861515611121565b6112006115de565b61120987610f73565b6001600160a01b03165f52606860205260405f2090565b61122a815461118d565b9055611247816001600160a01b03165f52606860205260405f2090565b61125181546111a0565b9055611265855f52606760205260405f2090565b906001600160a01b03166001600160a01b0319825416179055565b7fddf252ad1be2c89b69c2b068fc378daa952ba7f163c4a11628f55a4df523b3ef5f80a4565b60405162461bcd60e51b815260206004820152602960248201527f4552433732313a207472616e73666572206f6620746f6b656e2074686174206960448201527f73206e6f74206f776e00000000000000000000000000000000000000000000006064820152608490fd5b6001600160a01b0381169081156113f557611340835f5260676020526001600160a01b0360405f205416151590565b6113b057611389906113506115de565b61136b816001600160a01b03165f52606860205260405f2090565b61137581546111a0565b9055611265845f52606760205260405f2090565b5f7fddf252ad1be2c89b69c2b068fc378daa952ba7f163c4a11628f55a4df523b3ef8180a4565b60405162461bcd60e51b815260206004820152601c60248201527f4552433732313a20746f6b656e20616c7265616479206d696e746564000000006044820152606490fd5b606460405162461bcd60e51b815260206004820152602060248201527f4552433732313a206d696e7420746f20746865207a65726f20616464726573736044820152fd5b1561144057565b60405162461bcd60e51b815260206004820152603260248201527f4552433732313a207472616e7366657220746f206e6f6e20455243373231526560448201527f63656976657220696d706c656d656e74657200000000000000000000000000006064820152608490fd5b5f19811461119b5760010190565b906114c3826108e0565b6114d060405191826108b9565b82815280926114e1601f19916108e0565b0190602036910137565b9081518110156114fc570160200190565b634e487b7160e01b5f52603260045260245ffd5b9081156115bd575f82805b61159e57508061152b84926114b9565b915b61153657509150565b6115426115979161118d565b9361158361155b611555600a84066111ae565b60ff1690565b60f81b7fff000000000000000000000000000000000000000000000000000000000000001690565b5f1a61158f86856114eb565b53600a900490565b928361152d565b92906115ac6115b4916114ab565b93600a900490565b8093919361151b565b90506040516115cd6040826108b9565b60018152600360fc1b602082015290565b60ff6097541661067357565b90816020910312610193575161023a81610169565b90926001600160a01b036080938161023a979616845216602083015260408201528160608201520190610205565b3d15611657573d9061163e826108e0565b9161164c60405193846108b9565b82523d5f602084013e565b606090565b91823b1561178357611692926020925f6001600160a01b03604051809781968295630a85bd0160e11b84528533600486016115ff565b0393165af15f9181611752575b50611724576116ac61162d565b8051908161171f5760405162461bcd60e51b815260206004820152603260248201527f4552433732313a207472616e7366657220746f206e6f6e20455243373231526560448201527f63656976657220696d706c656d656e74657200000000000000000000000000006064820152608490fd5b602001fd5b7fffffffff0000000000000000000000000000000000000000000000000000000016630a85bd0160e11b1490565b61177591925060203d60201161177c575b61176d81836108b9565b8101906115ea565b905f61169f565b503d611763565b505050600190565b919290803b156117c357611692935f6001600160a01b0360209560405197889687958693630a85bd0160e11b855233600486016115ff565b5050505060019056fea264697066735822122015a1c65f74c69a8a4195ffb212243805727c75bcd09485be1013dd17bf74e47664736f6c634300081a0033","linkReferences":{}},"methodIdentifiers":{"approve(address,uint256)":"095ea7b3","balanceOf(address)":"70a08231","burn(uint256)":"42966c68","exists(uint256)":"4f558e79","getApproved(uint256)":"081812fc","isApprovedForAll(address,address)":"e985e9c5","mint(address,uint256)":"40c10f19","name()":"06fdde03","ownerOf(uint256)":"6352211e","pause()":"8456cb59","paused()":"5c975abb","safeMint(address,uint256)":"a1448194","safeMint(address,uint256,bytes)":"8832e6e3","safeTransferFrom(address,address,uint256)":"42842e0e","safeTransferFrom(address,address,uint256,bytes)":"b88d4fde","setApprovalForAll(address,bool)":"a22cb465","supportsInterface(bytes4)":"01ffc9a7","symbol()":"95d89b41","tokenURI(uint256)":"c87b56dd","transferFrom(address,address,uint256)":"23b872dd","unpause()":"3f4ba83a"},"id":357}