{"abi":[{"type":"receive","stateMutability":"payable"},{"type":"function","name":"computeAddress","inputs":[{"name":"salt","type":"bytes32","internalType":"bytes32"},{"name":"codeHash","type":"bytes32","internalType":"bytes32"}],"outputs":[{"name":"","type":"address","internalType":"address"}],"stateMutability":"view"},{"type":"function","name":"computeAddressWithDeployer","inputs":[{"name":"salt","type":"bytes32","internalType":"bytes32"},{"name":"codeHash","type":"bytes32","internalType":"bytes32"},{"name":"deployer","type":"address","internalType":"address"}],"outputs":[{"name":"","type":"address","internalType":"address"}],"stateMutability":"pure"},{"type":"function","name":"deploy","inputs":[{"name":"value","type":"uint256","internalType":"uint256"},{"name":"salt","type":"bytes32","internalType":"bytes32"},{"name":"code","type":"bytes","internalType":"bytes"}],"outputs":[],"stateMutability":"nonpayable"},{"type":"function","name":"deployERC1820Implementer","inputs":[{"name":"value","type":"uint256","internalType":"uint256"},{"name":"salt","type":"bytes32","internalType":"bytes32"}],"outputs":[],"stateMutability":"nonpayable"}],"bytecode":{"object":"0x608080604052346015576104a6908161001a8239f35b5f80fdfe6080604052600436101561001a575b3615610018575f80fd5b005b5f3560e01c8063076c37b214610059578063481286e614610054578063562994811461004f576366cfa0570361000e5761015b565b6100c7565b610094565b346100905760403660031901126100905761001860243560043560f161008160208201610111565b8060805261038060a039610284565b5f80fd5b346100905760403660031901126100905760206100b63060243560043561032d565b6001600160a01b0360405191168152f35b34610090576060366003190112610090576024356004356044356001600160a01b0381168103610090576020926100b69261032d565b634e487b7160e01b5f52604160045260245ffd5b601f80199101166080016080811067ffffffffffffffff82111761013457604052565b6100fd565b90601f8019910116810190811067ffffffffffffffff82111761013457604052565b346100905760603660031901126100905760443560043560243567ffffffffffffffff831161009057366023840112156100905782600401359167ffffffffffffffff831161013457604051926101bc601f8201601f191660200185610139565b8084523660248287010111610090576020815f92602461001898018388013785010152906101ea92916102fb565b50565b156101f457565b606460405162461bcd60e51b815260206004820152602060248201527f437265617465323a2062797465636f6465206c656e677468206973207a65726f6044820152fd5b1561023f57565b60405162461bcd60e51b815260206004820152601960248201527f437265617465323a204661696c6564206f6e206465706c6f79000000000000006044820152606490fd5b8047106102b65761029860805115156101ed565b60a060805191f56102b36001600160a01b0382161515610238565b90565b60405162461bcd60e51b815260206004820152601d60248201527f437265617465323a20696e73756666696369656e742062616c616e63650000006044820152606490fd5b9190918047106102b657610311825115156101ed565b60208251920190f56102b36001600160a01b0382161515610238565b6001600160a01b03929160405191602083019360ff60f81b85526bffffffffffffffffffffffff199060601b1660218401526035830152605582015260558152610378607582610139565b519020169056fe6080806040523460135760d9908160188239f35b5f80fdfe60808060405260043610156011575f80fd5b5f3560e01c63249cb3fa146023575f80fd5b34609f576040366003190112609f576024359073ffffffffffffffffffffffffffffffffffffffff8216809203609f576020916004355f526001835260405f20905f52825260ff60405f2054165f14609a577fa2ef4600d742022d532d4747cb3547474667d6f13804902513b2ec01c848f4b48152f35b5f8152f35b5f80fdfea26469706673582212204b544b3db7f388ee7e27809d05a7a80136f54bc1b57d5cc2c461ca02f02d810064736f6c634300081a0033a264697066735822122090266b8144fb92c177ba1cd401f68c3222a85676171cf9e90274d30e02e218f664736f6c634300081a0033","linkReferences":{}},"methodIdentifiers":{"computeAddress(bytes32,bytes32)":"481286e6","computeAddressWithDeployer(bytes32,bytes32,address)":"56299481","deploy(uint256,bytes32,bytes)":"66cfa057","deployERC1820Implementer(uint256,bytes32)":"076c37b2"},"id":324}