{"abi":[{"type":"function","name":"at","inputs":[{"name":"index","type":"uint256","internalType":"uint256"}],"outputs":[{"name":"key","type":"uint256","internalType":"uint256"},{"name":"value","type":"address","internalType":"address"}],"stateMutability":"view"},{"type":"function","name":"contains","inputs":[{"name":"key","type":"uint256","internalType":"uint256"}],"outputs":[{"name":"","type":"bool","internalType":"bool"}],"stateMutability":"view"},{"type":"function","name":"get","inputs":[{"name":"key","type":"uint256","internalType":"uint256"}],"outputs":[{"name":"","type":"address","internalType":"address"}],"stateMutability":"view"},{"type":"function","name":"getWithMessage","inputs":[{"name":"key","type":"uint256","internalType":"uint256"},{"name":"errorMessage","type":"string","internalType":"string"}],"outputs":[{"name":"","type":"address","internalType":"address"}],"stateMutability":"view"},{"type":"function","name":"length","inputs":[],"outputs":[{"name":"","type":"uint256","internalType":"uint256"}],"stateMutability":"view"},{"type":"function","name":"remove","inputs":[{"name":"key","type":"uint256","internalType":"uint256"}],"outputs":[],"stateMutability":"nonpayable"},{"type":"function","name":"set","inputs":[{"name":"key","type":"uint256","internalType":"uint256"},{"name":"value","type":"address","internalType":"address"}],"outputs":[],"stateMutability":"nonpayable"},{"type":"function","name":"tryGet","inputs":[{"name":"key","type":"uint256","internalType":"uint256"}],"outputs":[{"name":"","type":"bool","internalType":"bool"},{"name":"","type":"address","internalType":"address"}],"stateMutability":"view"},{"type":"event","name":"OperationResult","inputs":[{"name":"result","type":"bool","indexed":false,"internalType":"bool"}],"anonymous":false}],"bytecode":{"object":"0x608080604052346015576105cf908161001a8239f35b5f80fdfe6080806040526004361015610012575f80fd5b5f3560e01c9081631f7b6d32146103f0575080632f30c6f61461038e5780634cc8221514610337578063871394d9146103005780639507d39a14610258578063c051a3a614610128578063c34052e0146100f45763e0886f9014610074575f80fd5b346100f05760203660031901126100f0576004356001548110156100dc577fb10e2d527612073b26eecdfd717e6a320cf44b4afac2b0732d9fcbe2b7fa0cf601545f818152600360209081526040918290205482519384526001600160a01b03169083015290f35b634e487b7160e01b5f52603260045260245ffd5b5f80fd5b346100f05760203660031901126100f057602061011e6004355f52600260205260405f2054151590565b6040519015158152f35b346100f05760403660031901126100f05760243560043567ffffffffffffffff82116100f057366023830112156100f057816004013567ffffffffffffffff81116100f05736602482850101116100f05760405190601f8101601f19908116603f0116820167ffffffffffffffff811183821017610244575f916020916040528084528060248386019701873783010152815f52600360205260405f205491821590811591610228575b50156101ec576020826001600160a01b0360405191168152f35b6044915060405192839162461bcd60e51b8352602060048401525180918160248501528484015e5f828201840152601f01601f19168101030190fd5b61023e91505f52600260205260405f2054151590565b846101d2565b634e487b7160e01b5f52604160045260245ffd5b346100f05760203660031901126100f057600435805f52600360205260405f2054908115908115916102e4575b501561029f576020906001600160a01b0360405191168152f35b60405162461bcd60e51b815260206004820152601e60248201527f456e756d657261626c654d61703a206e6f6e6578697374656e74206b657900006044820152606490fd5b6102fa91505f52600260205260405f2054151590565b82610285565b346100f05760203660031901126100f05760406001600160a01b0361032660043561040a565b835191151582529091166020820152f35b346100f05760203660031901126100f0577fed9840e0775590557ad736875d96c95cf1458b766335f74339951a32c82a9e336020610383600435805f52600383525f60408120556104c0565b6040519015158152a1005b346100f05760403660031901126100f057600435602435906001600160a01b0382168092036100f057610383817fed9840e0775590557ad736875d96c95cf1458b766335f74339951a32c82a9e33936020935f526003845260405f2055610450565b346100f0575f3660031901126100f0576020906001548152f35b805f52600360205260405f205480155f1461043357505f52600260205260405f20541515905f90565b600192909150565b80548210156100dc575f5260205f2001905f90565b805f52600260205260405f2054155f146104bb5760015468010000000000000000811015610244576104a461048e826001859401600155600161043b565b819391549060031b91821b915f19901b19161790565b9055600154905f52600260205260405f2055600190565b505f90565b5f818152600260205260409020548015610593575f19810181811161057f576001545f1981019190821161057f57808203610547575b5050506001548015610533575f190161051081600161043b565b8154905f199060031b1b191690556001555f5260026020525f6040812055600190565b634e487b7160e01b5f52603160045260245ffd5b61056961055861048e93600161043b565b90549060031b1c928392600161043b565b90555f52600260205260405f20555f80806104f6565b634e487b7160e01b5f52601160045260245ffd5b50505f9056fea2646970667358221220f16a425694f863f589e428675c24643cdaf66e15f4b222508aec1598190f826b64736f6c634300081a0033","linkReferences":{}},"methodIdentifiers":{"at(uint256)":"e0886f90","contains(uint256)":"c34052e0","get(uint256)":"9507d39a","getWithMessage(uint256,string)":"c051a3a6","length()":"1f7b6d32","remove(uint256)":"4cc82215","set(uint256,address)":"2f30c6f6","tryGet(uint256)":"871394d9"},"id":362}