{"abi":[{"type":"constructor","inputs":[{"name":"initialHolder","type":"address","internalType":"address"},{"name":"initialBalance","type":"uint256","internalType":"uint256"},{"name":"name","type":"string","internalType":"string"},{"name":"symbol","type":"string","internalType":"string"},{"name":"defaultOperators","type":"address[]","internalType":"address[]"}],"stateMutability":"nonpayable"},{"type":"function","name":"allowance","inputs":[{"name":"holder","type":"address","internalType":"address"},{"name":"spender","type":"address","internalType":"address"}],"outputs":[{"name":"","type":"uint256","internalType":"uint256"}],"stateMutability":"view"},{"type":"function","name":"approve","inputs":[{"name":"spender","type":"address","internalType":"address"},{"name":"value","type":"uint256","internalType":"uint256"}],"outputs":[{"name":"","type":"bool","internalType":"bool"}],"stateMutability":"nonpayable"},{"type":"function","name":"approveInternal","inputs":[{"name":"holder","type":"address","internalType":"address"},{"name":"spender","type":"address","internalType":"address"},{"name":"value","type":"uint256","internalType":"uint256"}],"outputs":[],"stateMutability":"nonpayable"},{"type":"function","name":"authorizeOperator","inputs":[{"name":"operator","type":"address","internalType":"address"}],"outputs":[],"stateMutability":"nonpayable"},{"type":"function","name":"balanceOf","inputs":[{"name":"tokenHolder","type":"address","internalType":"address"}],"outputs":[{"name":"","type":"uint256","internalType":"uint256"}],"stateMutability":"view"},{"type":"function","name":"burn","inputs":[{"name":"amount","type":"uint256","internalType":"uint256"},{"name":"data","type":"bytes","internalType":"bytes"}],"outputs":[],"stateMutability":"nonpayable"},{"type":"function","name":"decimals","inputs":[],"outputs":[{"name":"","type":"uint8","internalType":"uint8"}],"stateMutability":"pure"},{"type":"function","name":"defaultOperators","inputs":[],"outputs":[{"name":"","type":"address[]","internalType":"address[]"}],"stateMutability":"view"},{"type":"function","name":"granularity","inputs":[],"outputs":[{"name":"","type":"uint256","internalType":"uint256"}],"stateMutability":"view"},{"type":"function","name":"isOperatorFor","inputs":[{"name":"operator","type":"address","internalType":"address"},{"name":"tokenHolder","type":"address","internalType":"address"}],"outputs":[{"name":"","type":"bool","internalType":"bool"}],"stateMutability":"view"},{"type":"function","name":"mintInternal","inputs":[{"name":"to","type":"address","internalType":"address"},{"name":"amount","type":"uint256","internalType":"uint256"},{"name":"userData","type":"bytes","internalType":"bytes"},{"name":"operatorData","type":"bytes","internalType":"bytes"}],"outputs":[],"stateMutability":"nonpayable"},{"type":"function","name":"mintInternalExtended","inputs":[{"name":"to","type":"address","internalType":"address"},{"name":"amount","type":"uint256","internalType":"uint256"},{"name":"userData","type":"bytes","internalType":"bytes"},{"name":"operatorData","type":"bytes","internalType":"bytes"},{"name":"requireReceptionAck","type":"bool","internalType":"bool"}],"outputs":[],"stateMutability":"nonpayable"},{"type":"function","name":"name","inputs":[],"outputs":[{"name":"","type":"string","internalType":"string"}],"stateMutability":"view"},{"type":"function","name":"operatorBurn","inputs":[{"name":"account","type":"address","internalType":"address"},{"name":"amount","type":"uint256","internalType":"uint256"},{"name":"data","type":"bytes","internalType":"bytes"},{"name":"operatorData","type":"bytes","internalType":"bytes"}],"outputs":[],"stateMutability":"nonpayable"},{"type":"function","name":"operatorSend","inputs":[{"name":"sender","type":"address","internalType":"address"},{"name":"recipient","type":"address","internalType":"address"},{"name":"amount","type":"uint256","internalType":"uint256"},{"name":"data","type":"bytes","internalType":"bytes"},{"name":"operatorData","type":"bytes","internalType":"bytes"}],"outputs":[],"stateMutability":"nonpayable"},{"type":"function","name":"revokeOperator","inputs":[{"name":"operator","type":"address","internalType":"address"}],"outputs":[],"stateMutability":"nonpayable"},{"type":"function","name":"send","inputs":[{"name":"recipient","type":"address","internalType":"address"},{"name":"amount","type":"uint256","internalType":"uint256"},{"name":"data","type":"bytes","internalType":"bytes"}],"outputs":[],"stateMutability":"nonpayable"},{"type":"function","name":"symbol","inputs":[],"outputs":[{"name":"","type":"string","internalType":"string"}],"stateMutability":"view"},{"type":"function","name":"totalSupply","inputs":[],"outputs":[{"name":"","type":"uint256","internalType":"uint256"}],"stateMutability":"view"},{"type":"function","name":"transfer","inputs":[{"name":"recipient","type":"address","internalType":"address"},{"name":"amount","type":"uint256","internalType":"uint256"}],"outputs":[{"name":"","type":"bool","internalType":"bool"}],"stateMutability":"nonpayable"},{"type":"function","name":"transferFrom","inputs":[{"name":"holder","type":"address","internalType":"address"},{"name":"recipient","type":"address","internalType":"address"},{"name":"amount","type":"uint256","internalType":"uint256"}],"outputs":[{"name":"","type":"bool","internalType":"bool"}],"stateMutability":"nonpayable"},{"type":"event","name":"Approval","inputs":[{"name":"owner","type":"address","indexed":true,"internalType":"address"},{"name":"spender","type":"address","indexed":true,"internalType":"address"},{"name":"value","type":"uint256","indexed":false,"internalType":"uint256"}],"anonymous":false},{"type":"event","name":"AuthorizedOperator","inputs":[{"name":"operator","type":"address","indexed":true,"internalType":"address"},{"name":"tokenHolder","type":"address","indexed":true,"internalType":"address"}],"anonymous":false},{"type":"event","name":"BeforeTokenTransfer","inputs":[],"anonymous":false},{"type":"event","name":"Burned","inputs":[{"name":"operator","type":"address","indexed":true,"internalType":"address"},{"name":"from","type":"address","indexed":true,"internalType":"address"},{"name":"amount","type":"uint256","indexed":false,"internalType":"uint256"},{"name":"data","type":"bytes","indexed":false,"internalType":"bytes"},{"name":"operatorData","type":"bytes","indexed":false,"internalType":"bytes"}],"anonymous":false},{"type":"event","name":"Minted","inputs":[{"name":"operator","type":"address","indexed":true,"internalType":"address"},{"name":"to","type":"address","indexed":true,"internalType":"address"},{"name":"amount","type":"uint256","indexed":false,"internalType":"uint256"},{"name":"data","type":"bytes","indexed":false,"internalType":"bytes"},{"name":"operatorData","type":"bytes","indexed":false,"internalType":"bytes"}],"anonymous":false},{"type":"event","name":"RevokedOperator","inputs":[{"name":"operator","type":"address","indexed":true,"internalType":"address"},{"name":"tokenHolder","type":"address","indexed":true,"internalType":"address"}],"anonymous":false},{"type":"event","name":"Sent","inputs":[{"name":"operator","type":"address","indexed":true,"internalType":"address"},{"name":"from","type":"address","indexed":true,"internalType":"address"},{"name":"to","type":"address","indexed":true,"internalType":"address"},{"name":"amount","type":"uint256","indexed":false,"internalType":"uint256"},{"name":"data","type":"bytes","indexed":false,"internalType":"bytes"},{"name":"operatorData","type":"bytes","indexed":false,"internalType":"bytes"}],"anonymous":false},{"type":"event","name":"Transfer","inputs":[{"name":"from","type":"address","indexed":true,"internalType":"address"},{"name":"to","type":"address","indexed":true,"internalType":"address"},{"name":"value","type":"uint256","indexed":false,"internalType":"uint256"}],"anonymous":false}],"bytecode":{"object":"0x60808060405234610698575f906124cb803803809161001e82856108d0565b8339810160a08282031261069857610035826108f3565b92602083015192604081015160018060401b038111610698578361005a918301610907565b60608201519091906001600160401b038111610698578461007c918301610907565b608082015190916001600160401b03821161069857019184601f84011215610698578251946001600160401b0386116106f3578560051b93604051966100c560208701896108d0565b875260208701906020829682010192831161069857602001905b8282106108b857505081519190506001600160401b0382116106f35760025490600182811c921680156108ae575b60208310146107d15781601f849311610860575b50602090601f83116001146107fa575f926107ef575b50508160011b915f199060031b1c1916176002555b8051906001600160401b0382116106f35760035490600182811c921680156107e5575b60208310146107d15781601f849311610778575b50602090601f8311600114610712575f92610707575b50508160011b915f199060031b1c1916176003555b8251906001600160401b0382116106f3576801000000000000000082116106f357600454826004558083106106b9575b5060045f5260205f205f5b83811061069c57505050505f5b825181101561022e57600190818060a01b0360208260051b86010151165f52600560205260405f208260ff19825416179055016101f6565b8482855f8051602061248b8339815191523b15610698576040516329965a1d60e01b815230600482018190527fac7fbab5f54a3ca8194167523c6753bfeb96a445279294b6125b68cce2177054602483015260448201525f81606481835f8051602061248b8339815191525af1801561068d57610678575b505f8051602061248b8339815191523b15610669576040516329965a1d60e01b815230600482018190527faea199e31a596269b42cdafd93407f14436db6e4cad65417994c2eb37381e05a602483015260448201528281606481835f8051602061248b8339815191525af1801561066d57908391610654575b505060206040519161033182846108d0565b83835260405161034183826108d0565b8481526001600160a01b038616958615610611577f52316ab8e8b0687ce803e403dfe429541bccd4f6c4683ec65d254d382f15a2658680a161038583600154610972565b6001558686528584526040862061039d848254610972565b905560405163555ddc6560e11b8152600481018890527fb281fc8c12954d22544db45de3159a39272895b169a852b314f9cc762e44c53b602482015284816044815f8051602061248b8339815191525afa9081156106065787916105cd575b506001600160a01b03169081156105175750803b15610513578560405180926223de2960e01b825233600483015282602483015289604483015285606483015260c0608483015281838161046861045660c483018d610993565b8281036003190160a484015289610993565b03925af180156105085787929187916104e3575b50505f805160206124ab8339815191526104bb5f8051602061246b833981519152965b6104ca60405192839288845260608a8501526060840190610993565b82810360408401523395610993565b0390a3604051908152a3604051611ab390816109b88239f35b81929495969350906104f4916108d0565b610504579291908590858861047c565b8480fd5b6040513d88823e3d90fd5b8580fd5b905093909192933b61054c575f8051602061246b8339815191529392915f805160206124ab8339815191526104bb889361049f565b60405162461bcd60e51b815260048101859052604d60248201527f4552433737373a20746f6b656e20726563697069656e7420636f6e747261637460448201527f20686173206e6f20696d706c656d656e74657220666f7220455243373737546f60648201526c1ad95b9cd49958da5c1a595b9d609a1b608482015260a490fd5b90508481813d83116105ff575b6105e481836108d0565b810103126105fb576105f5906108f3565b886103fc565b8680fd5b503d6105da565b6040513d89823e3d90fd5b6064846040519062461bcd60e51b825280600483015260248201527f4552433737373a206d696e7420746f20746865207a65726f20616464726573736044820152fd5b8161065e916108d0565b61066957818461031f565b5080fd5b6040513d85823e3d90fd5b6106859192505f906108d0565b5f90836102a6565b6040513d5f823e3d90fd5b5f80fd5b82516001600160a01b0316818301556020909201916001016101e9565b60045f526106ed907f8a35acfbc15ff81a39ae7d344fd709f28e8600b4aa8c65c6b64bfe7fe36bd19b90810190840161095c565b5f6101de565b634e487b7160e01b5f52604160045260245ffd5b015190505f80610199565b60035f9081528281209350601f198516905b8181106107605750908460019594939210610748575b505050811b016003556101ae565b01515f1960f88460031b161c191690555f808061073a565b92936020600181928786015181550195019301610724565b60035f526107c1907fc2575a0e9e593c00f959f8c92f12db2869c3395a3b0502d05e2516446f71f85b601f850160051c810191602086106107c7575b601f0160051c019061095c565b5f610183565b90915081906107b4565b634e487b7160e01b5f52602260045260245ffd5b91607f169161016f565b015190505f80610137565b60025f9081528281209350601f198516905b8181106108485750908460019594939210610830575b505050811b0160025561014c565b01515f1960f88460031b161c191690555f8080610822565b9293602060018192878601518155019501930161080c565b60025f526108a8907f405787fa12a823e0f2b7631cc41b3ba8828b3321ca811111fa75cd3aa3bb5ace601f850160051c810191602086106107c757601f0160051c019061095c565b5f610121565b91607f169161010d565b602080916108c5846108f3565b8152019101906100df565b601f909101601f19168101906001600160401b038211908210176106f357604052565b51906001600160a01b038216820361069857565b81601f82011215610698578051906001600160401b0382116106f3576040519261093b601f8401601f1916602001856108d0565b8284526020838301011161069857815f9260208093018386015e8301015290565b818110610967575050565b5f815560010161095c565b9190820180921161097f57565b634e487b7160e01b5f52601160045260245ffd5b805180835260209291819084018484015e5f828201840152601f01601f191601019056fe6080806040526004361015610012575f80fd5b5f3560e01c90816306e4853814610c3c5750806306fdde0314610b81578063095ea7b314610b5057806318160ddd14610b3357806323b872dd14610967578063313ce5671461094c578063556f0dc71461093157806356189cb41461091a57806362ad1b831461089e57806370a0823114610867578063959b8c3f1461076a57806395d89b411461065e5780639bd9bbc614610605578063a9059cbb14610542578063b1f0b5be14610488578063cfbfab0b14610309578063d95b6371146102d3578063dd62ed3e1461027f578063fad8b32a14610184578063fc673c4f146101585763fe9d930314610103575f80fd5b346101545760403660031901126101545760243567ffffffffffffffff811161015457610137610152913690600401610dc1565b60405190610146602083610d8b565b5f82526004353361181c565b005b5f80fd5b346101545761015261016936610e17565b9261017f61017a8294939433610f69565b610ef7565b61181c565b34610154576020366003190112610154576001600160a01b036101a5610d25565b1633811461023057805f52600560205260ff60405f2054165f1461020d57335f52600760205260405f20815f5260205260405f20600160ff198254161790555b33907f50546e66e5f44d728365dc3908c63bc5cfeeab470722c1677e3073a6ac294aa15f80a3005b335f52600660205260405f20815f5260205260405f2060ff1981541690556101e5565b60405162461bcd60e51b815260206004820152602160248201527f4552433737373a207265766f6b696e672073656c66206173206f70657261746f6044820152603960f91b6064820152608490fd5b3461015457604036600319011261015457610298610d25565b6001600160a01b036102a8610d3b565b91165f5260086020526001600160a01b0360405f2091165f52602052602060405f2054604051908152f35b346101545760403660031901126101545760206102ff6102f1610d25565b6102f9610d3b565b90610f69565b6040519015158152f35b346101545760a036600319011261015457610322610d25565b6024359060443567ffffffffffffffff811161015457610346903690600401610dc1565b9060643567ffffffffffffffff811161015457610367903690600401610dc1565b92608435908115158203610154576001600160a01b03831694851561044457847f2fe5be0146f74c5bce36c0b80911af6c7d86ff27e89d5cfa61fc681327954e5d610438836104296020978b965f9b897fddf252ad1be2c89b69c2b068fc378daa952ba7f163c4a11628f55a4df523b3ef9c7f52316ab8e8b0687ce803e403dfe429541bccd4f6c4683ec65d254d382f15a2658f80a16104098260015461128d565b6001558a8f528e8d5260408f2061042183825461128d565b9055336114fc565b6040519182913395888461129a565b0390a3604051908152a3005b606460405162461bcd60e51b815260206004820152602060248201527f4552433737373a206d696e7420746f20746865207a65726f20616464726573736044820152fd5b346101545761049636610e17565b6001600160a01b038416939284156104445784837f2fe5be0146f74c5bce36c0b80911af6c7d86ff27e89d5cfa61fc681327954e5d6104388561042960016020987fddf252ad1be2c89b69c2b068fc378daa952ba7f163c4a11628f55a4df523b3ef9a895f9d7f52316ab8e8b0687ce803e403dfe429541bccd4f6c4683ec65d254d382f15a2658f80a161052b82865461128d565b85558a8f528e8d5260408f2061042183825461128d565b346101545760403660031901126101545761055b610d25565b6105fc602435916105766001600160a01b0382161515610e7e565b6020926105a66040516105898682610d8b565b5f81526040519061059a8783610d8b565b5f825283853333611173565b6105d36040516105b68682610d8b565b5f8152604051906105c78783610d8b565b5f8252838533336112c5565b604051906105e18583610d8b565b5f8252604051926105f28685610d8b565b5f84523333611414565b60405160018152f35b346101545760603660031901126101545761061e610d25565b6044359067ffffffffffffffff821161015457610642610152923690600401610dc1565b60405191610651602084610d8b565b5f83526024359033611674565b34610154575f366003190112610154576040515f6003548060011c90600181168015610760575b60208310811461074c5782855290811561072857506001146106ca575b6106c6836106b281850382610d8b565b604051918291602083526020830190610d01565b0390f35b91905060035f527fc2575a0e9e593c00f959f8c92f12db2869c3395a3b0502d05e2516446f71f85b915f905b80821061070e575090915081016020016106b26106a2565b9192600181602092548385880101520191019092916106f6565b60ff191660208086019190915291151560051b840190910191506106b290506106a2565b634e487b7160e01b5f52602260045260245ffd5b91607f1691610685565b34610154576020366003190112610154576001600160a01b0361078b610d25565b1680331461081657805f52600560205260ff60405f2054165f146107f057335f52600760205260405f20815f5260205260405f2060ff1981541690555b33907ff4caeb2d6ca8932a215a353d0703c326ec2d81fc68170f320eb2ab49e9df61f95f80a3005b335f52600660205260405f20815f5260205260405f20600160ff198254161790556107c8565b60405162461bcd60e51b8152602060048201526024808201527f4552433737373a20617574686f72697a696e672073656c66206173206f70657260448201526330ba37b960e11b6064820152608490fd5b34610154576020366003190112610154576001600160a01b03610888610d25565b165f525f602052602060405f2054604051908152f35b346101545760a0366003190112610154576108b7610d25565b6108bf610d3b565b60643567ffffffffffffffff8111610154576108df903690600401610dc1565b6084359267ffffffffffffffff841161015457610903610152943690600401610dc1565b9261091161017a8333610f69565b60443591611674565b346101545761015261092b36610d51565b91610feb565b34610154575f36600319011261015457602060405160018152f35b34610154575f36600319011261015457602060405160128152f35b346101545761097536610d51565b9161098a6001600160a01b0383161515610e7e565b6001600160a01b038116918215610ac8576020926109cb6040516109ae8682610d8b565b5f8152604051906109bf8783610d8b565b5f825287858733611173565b6109f86040516109db8682610d8b565b5f8152604051906109ec8783610d8b565b5f8252878587336112c5565b5f526008835260405f206001600160a01b0333165f52835260405f205493808510610a5d57610a35610a2e826105fc9697610ed6565b3385610feb565b60405191610a438684610d8b565b5f835260405193610a548786610d8b565b5f855233611414565b60405162461bcd60e51b815260048101859052602960248201527f4552433737373a207472616e7366657220616d6f756e7420657863656564732060448201527f616c6c6f77616e636500000000000000000000000000000000000000000000006064820152608490fd5b60405162461bcd60e51b815260206004820152602660248201527f4552433737373a207472616e736665722066726f6d20746865207a65726f206160448201527f64647265737300000000000000000000000000000000000000000000000000006064820152608490fd5b34610154575f366003190112610154576020600154604051908152f35b3461015457604036600319011261015457610b76610b6c610d25565b6024359033610feb565b602060405160018152f35b34610154575f366003190112610154576040515f6002548060011c90600181168015610c32575b60208310811461074c578285529081156107285750600114610bd4576106c6836106b281850382610d8b565b91905060025f527f405787fa12a823e0f2b7631cc41b3ba8828b3321ca811111fa75cd3aa3bb5ace915f905b808210610c18575090915081016020016106b26106a2565b919260018160209254838588010152019101909291610c00565b91607f1691610ba8565b34610154575f366003190112610154576004549081815260208101809260045f527f8a35acfbc15ff81a39ae7d344fd709f28e8600b4aa8c65c6b64bfe7fe36bd19b905f5b818110610ce25750505081610c97910382610d8b565b604051918291602083019060208452518091526040830191905f5b818110610cc0575050500390f35b82516001600160a01b0316845285945060209384019390920191600101610cb2565b82546001600160a01b0316845260209093019260019283019201610c81565b805180835260209291819084018484015e5f828201840152601f01601f1916010190565b600435906001600160a01b038216820361015457565b602435906001600160a01b038216820361015457565b6060906003190112610154576004356001600160a01b038116810361015457906024356001600160a01b0381168103610154579060443590565b90601f8019910116810190811067ffffffffffffffff821117610dad57604052565b634e487b7160e01b5f52604160045260245ffd5b81601f820112156101545780359067ffffffffffffffff8211610dad5760405192610df6601f8401601f191660200185610d8b565b8284526020838301011161015457815f926020809301838601378301015290565b906080600319830112610154576004356001600160a01b038116810361015457916024359160443567ffffffffffffffff81116101545782610e5b91600401610dc1565b916064359067ffffffffffffffff821161015457610e7b91600401610dc1565b90565b15610e8557565b60405162461bcd60e51b8152602060048201526024808201527f4552433737373a207472616e7366657220746f20746865207a65726f206164646044820152637265737360e01b6064820152608490fd5b91908203918211610ee357565b634e487b7160e01b5f52601160045260245ffd5b15610efe57565b60405162461bcd60e51b815260206004820152602c60248201527f4552433737373a2063616c6c6572206973206e6f7420616e206f70657261746f60448201527f7220666f7220686f6c64657200000000000000000000000000000000000000006064820152608490fd5b906001600160a01b038091169116818114918215610fac575b8215610f8d57505090565b9091505f52600660205260405f20905f5260205260ff60405f20541690565b9150805f52600560205260ff60405f20541680610fca575b91610f82565b50815f52600760205260405f20815f5260205260ff60405f20541615610fc4565b6001600160a01b031690811561109f576001600160a01b031691821561104e5760207f8c5be1e5ebec7d5bd14f71427d1e84f3dd0314c0f7b2291e5b200ac8c7c3b92591835f526008825260405f20855f5282528060405f2055604051908152a3565b60405162461bcd60e51b815260206004820152602360248201527f4552433737373a20617070726f766520746f20746865207a65726f206164647260448201526265737360e81b6064820152608490fd5b60405162461bcd60e51b815260206004820152602560248201527f4552433737373a20617070726f76652066726f6d20746865207a65726f20616460448201527f64726573730000000000000000000000000000000000000000000000000000006064820152608490fd5b9081602091031261015457516001600160a01b03811681036101545790565b9491611165936001600160a01b03809281610e7b9a9895168952166020880152166040860152606085015260c0608085015260c0840190610d01565b9160a0818403910152610d01565b91929460405163555ddc6560e11b81526001600160a01b03831660048201527f29ddb589b1fb5fc7cf394961c1adf5f8c6454761adf795e67fe149f658abe8956024820152602081604481731820a4b7618bde71dce8cdc73aab6c95905fad245afa8015611253576001600160a01b03915f9161125e575b501692836111fd575b50505050505050565b833b15610154576112295f96928793604051998a9889978896633ad5cbc160e11b885260048801611129565b03925af1801561125357611243575b8080808080806111f4565b5f61124d91610d8b565b5f611238565b6040513d5f823e3d90fd5b611280915060203d602011611286575b6112788183610d8b565b81019061110a565b5f6111eb565b503d61126e565b91908201809211610ee357565b916112b790610e7b94928452606060208501526060840190610d01565b916040818403910152610d01565b90949293916001600160a01b03604051967f52316ab8e8b0687ce803e403dfe429541bccd4f6c4683ec65d254d382f15a2655f80a11695865f525f60205260405f2054908682106113ac5750956020937f06b541ddaa720db2b10a4d0cdac39b8d360425fc073085fac19bc826146779876001600160a01b038895817fddf252ad1be2c89b69c2b068fc378daa952ba7f163c4a11628f55a4df523b3ef9996869b6113a09d885f525f8c520360405f2055169a8b96875f525f8a5260405f2061138f8a825461128d565b90556040519384931695898461129a565b0390a4604051908152a3565b62461bcd60e51b815260206004820152602760248201527f4552433737373a207472616e7366657220616d6f756e7420657863656564732060448201527f62616c616e6365000000000000000000000000000000000000000000000000006064820152608490fd5b91929460405163555ddc6560e11b81526001600160a01b03851660048201527fb281fc8c12954d22544db45de3159a39272895b169a852b314f9cc762e44c53b6024820152602081604481731820a4b7618bde71dce8cdc73aab6c95905fad245afa8015611253576001600160a01b03915f916114dd575b50169283156111f457833b15610154576114c05f96928793604051998a98899788966223de2960e01b885260048801611129565b03925af18015611253576114d15750565b5f6114db91610d8b565b565b6114f6915060203d602011611286576112788183610d8b565b5f61148c565b9394919492909260405163555ddc6560e11b81526001600160a01b03851660048201527fb281fc8c12954d22544db45de3159a39272895b169a852b314f9cc762e44c53b6024820152602081604481731820a4b7618bde71dce8cdc73aab6c95905fad245afa8015611253576001600160a01b03915f91611655575b50169283156115af5750823b15610154575f946114c08693928493604051998a98899788966223de2960e01b885260048801611129565b945050505091506115bd5750565b3b6115c457565b60405162461bcd60e51b815260206004820152604d60248201527f4552433737373a20746f6b656e20726563697069656e7420636f6e747261637460448201527f20686173206e6f20696d706c656d656e74657220666f7220455243373737546f60648201527f6b656e73526563697069656e7400000000000000000000000000000000000000608482015260a490fd5b61166e915060203d602011611286576112788183610d8b565b5f611578565b9293906001600160a01b038416156117cc576001600160a01b03811615611788576116a3828685848833611173565b6116b18286858488336112c5565b60405163555ddc6560e11b81526001600160a01b03821660048201527fb281fc8c12954d22544db45de3159a39272895b169a852b314f9cc762e44c53b6024820152602081604481731820a4b7618bde71dce8cdc73aab6c95905fad245afa8015611253576001600160a01b03915f91611769575b501691821561175a57823b15610154575f946114c08692604051988997889687956223de2960e01b87523360048801611129565b50935050505060016115bd5750565b611782915060203d602011611286576112788183610d8b565b5f611726565b606460405162461bcd60e51b815260206004820152602060248201527f4552433737373a2073656e6420746f20746865207a65726f20616464726573736044820152fd5b60405162461bcd60e51b815260206004820152602260248201527f4552433737373a2073656e642066726f6d20746865207a65726f206164647265604482015261737360f01b6064820152608490fd5b915f936001600160a01b038416938415611a2d5760405163555ddc6560e11b8152600481018690527f29ddb589b1fb5fc7cf394961c1adf5f8c6454761adf795e67fe149f658abe8956024820152602081604481731820a4b7618bde71dce8cdc73aab6c95905fad245afa8015611253576001600160a01b03915f91611a0e575b5016806119b4575b50506040517f52316ab8e8b0687ce803e403dfe429541bccd4f6c4683ec65d254d382f15a2658680a18486528560205260408620549084821061196657506020927fa78a9be3a7b862d26933ad85fb11d80ef66b8f972d7cbba06621d583943a409861195a86947fddf252ad1be2c89b69c2b068fc378daa952ba7f163c4a11628f55a4df523b3ef978995868c528b89520360408b205561194886600154610ed6565b6001556040519182913395888461129a565b0390a3604051908152a3565b62461bcd60e51b815260206004820152602360248201527f4552433737373a206275726e20616d6f756e7420657863656564732062616c616044820152626e636560e81b6064820152608490fd5b803b1561015457845f91828087956119e48860405198899788968795633ad5cbc160e11b87523360048801611129565b03925af18015611253576119f9575b806118a5565b611a069195505f90610d8b565b5f935f6119f3565b611a27915060203d602011611286576112788183610d8b565b5f61189d565b60405162461bcd60e51b815260206004820152602260248201527f4552433737373a206275726e2066726f6d20746865207a65726f206164647265604482015261737360f01b6064820152608490fdfea26469706673582212204f938d3a3cc4659860c45b3a0e0cbba5dfd6e06888361624d1892da680fac21664736f6c634300081a0033ddf252ad1be2c89b69c2b068fc378daa952ba7f163c4a11628f55a4df523b3ef0000000000000000000000001820a4b7618bde71dce8cdc73aab6c95905fad242fe5be0146f74c5bce36c0b80911af6c7d86ff27e89d5cfa61fc681327954e5d","linkReferences":{}},"methodIdentifiers":{"allowance(address,address)":"dd62ed3e","approve(address,uint256)":"095ea7b3","approveInternal(address,address,uint256)":"56189cb4","authorizeOperator(address)":"959b8c3f","balanceOf(address)":"70a08231","burn(uint256,bytes)":"fe9d9303","decimals()":"313ce567","defaultOperators()":"06e48538","granularity()":"556f0dc7","isOperatorFor(address,address)":"d95b6371","mintInternal(address,uint256,bytes,bytes)":"b1f0b5be","mintInternalExtended(address,uint256,bytes,bytes,bool)":"cfbfab0b","name()":"06fdde03","operatorBurn(address,uint256,bytes,bytes)":"fc673c4f","operatorSend(address,address,uint256,bytes,bytes)":"62ad1b83","revokeOperator(address)":"fad8b32a","send(address,uint256,bytes)":"9bd9bbc6","symbol()":"95d89b41","totalSupply()":"18160ddd","transfer(address,uint256)":"a9059cbb","transferFrom(address,address,uint256)":"23b872dd"},"id":191}