{"abi":[{"type":"function","name":"add","inputs":[{"name":"a","type":"int256","internalType":"int256"},{"name":"b","type":"int256","internalType":"int256"}],"outputs":[{"name":"","type":"int256","internalType":"int256"}],"stateMutability":"pure"},{"type":"function","name":"div","inputs":[{"name":"a","type":"int256","internalType":"int256"},{"name":"b","type":"int256","internalType":"int256"}],"outputs":[{"name":"","type":"int256","internalType":"int256"}],"stateMutability":"pure"},{"type":"function","name":"mul","inputs":[{"name":"a","type":"int256","internalType":"int256"},{"name":"b","type":"int256","internalType":"int256"}],"outputs":[{"name":"","type":"int256","internalType":"int256"}],"stateMutability":"pure"},{"type":"function","name":"sub","inputs":[{"name":"a","type":"int256","internalType":"int256"},{"name":"b","type":"int256","internalType":"int256"}],"outputs":[{"name":"","type":"int256","internalType":"int256"}],"stateMutability":"pure"}],"bytecode":{"object":"0x60808060405234601557610188908161001a8239f35b5f80fdfe6080806040526004361015610012575f80fd5b5f3560e01c90816343509138146100f957508063a5f3c23b146100c9578063adefc37b146100995763bbe93d9114610048575f80fd5b34610095576100563661013c565b81810291905f8212600160ff1b82141661008157818305149015171561008157602090604051908152f35b634e487b7160e01b5f52601160045260245ffd5b5f80fd5b34610095576100a73661013c565b905f828203921281831281169183139015161761008157602090604051908152f35b34610095576100d73661013c565b905f828201928312911290801582169115161761008157602090604051908152f35b34610095576101073661013c565b809291921561012857600160ff1b83145f1982141661008157602092058152f35b634e487b7160e01b5f52601260045260245ffd5b604090600319011261009557600435906024359056fea2646970667358221220eb75bbefb938bfdc3bcb7eb54c5cf3287855facf7742e9bb76a6d52d77fbc0a664736f6c634300081a0033","linkReferences":{}},"methodIdentifiers":{"add(int256,int256)":"a5f3c23b","div(int256,int256)":"43509138","mul(int256,int256)":"bbe93d91","sub(int256,int256)":"adefc37b"},"id":212}