{"abi":[{"type":"function","name":"allowance","inputs":[{"name":"","type":"address","internalType":"address"},{"name":"","type":"address","internalType":"address"}],"outputs":[{"name":"","type":"uint256","internalType":"uint256"}],"stateMutability":"view"},{"type":"function","name":"approve","inputs":[{"name":"","type":"address","internalType":"address"},{"name":"","type":"uint256","internalType":"uint256"}],"outputs":[{"name":"","type":"bool","internalType":"bool"}],"stateMutability":"nonpayable"},{"type":"function","name":"transfer","inputs":[{"name":"","type":"address","internalType":"address"},{"name":"","type":"uint256","internalType":"uint256"}],"outputs":[{"name":"","type":"bool","internalType":"bool"}],"stateMutability":"nonpayable"},{"type":"function","name":"transferFrom","inputs":[{"name":"","type":"address","internalType":"address"},{"name":"","type":"address","internalType":"address"},{"name":"","type":"uint256","internalType":"uint256"}],"outputs":[{"name":"","type":"bool","internalType":"bool"}],"stateMutability":"nonpayable"}],"bytecode":{"object":"0x60808060405234601557610148908161001a8239f35b5f80fdfe60806040526004361015610011575f80fd5b5f3560e01c8063095ea7b31461007d57806323b872dd14610082578063a9059cbb1461007d5763dd62ed3e14610045575f80fd5b346100795760403660031901126100795761005e6100b3565b506100676100d6565b506034546100795760206040515f8152f35b5f80fd5b6100f9565b346100795760603660031901126100795761009b6100b3565b506100a46100d6565b505f60345560206040515f8152f35b6004359073ffffffffffffffffffffffffffffffffffffffff8216820361007957565b6024359073ffffffffffffffffffffffffffffffffffffffff8216820361007957565b34610079576040366003190112610079576100a46100b356fea2646970667358221220c74fe9589542af8d13fc06c1cc089d5675d684c74e3db3e0628af20777c5fc8a64736f6c634300081a0033","linkReferences":{}},"methodIdentifiers":{"allowance(address,address)":"dd62ed3e","approve(address,uint256)":"095ea7b3","transfer(address,uint256)":"a9059cbb","transferFrom(address,address,uint256)":"23b872dd"},"id":378}