{"abi":[{"type":"receive","stateMutability":"payable"},{"type":"function","name":"functionCall","inputs":[{"name":"target","type":"address","internalType":"address"},{"name":"data","type":"bytes","internalType":"bytes"}],"outputs":[],"stateMutability":"nonpayable"},{"type":"function","name":"functionCallWithValue","inputs":[{"name":"target","type":"address","internalType":"address"},{"name":"data","type":"bytes","internalType":"bytes"},{"name":"value","type":"uint256","internalType":"uint256"}],"outputs":[],"stateMutability":"payable"},{"type":"function","name":"functionDelegateCall","inputs":[{"name":"target","type":"address","internalType":"address"},{"name":"data","type":"bytes","internalType":"bytes"}],"outputs":[],"stateMutability":"nonpayable"},{"type":"function","name":"functionStaticCall","inputs":[{"name":"target","type":"address","internalType":"address"},{"name":"data","type":"bytes","internalType":"bytes"}],"outputs":[],"stateMutability":"nonpayable"},{"type":"function","name":"isContract","inputs":[{"name":"account","type":"address","internalType":"address"}],"outputs":[{"name":"","type":"bool","internalType":"bool"}],"stateMutability":"view"},{"type":"function","name":"sendValue","inputs":[{"name":"receiver","type":"address","internalType":"address payable"},{"name":"amount","type":"uint256","internalType":"uint256"}],"outputs":[],"stateMutability":"nonpayable"},{"type":"function","name":"sharedAnswer","inputs":[],"outputs":[{"name":"","type":"string","internalType":"string"}],"stateMutability":"view"},{"type":"event","name":"CallReturnValue","inputs":[{"name":"data","type":"string","indexed":false,"internalType":"string"}],"anonymous":false}],"bytecode":{"object":"0x6080806040523460155761099c908161001a8239f35b5f80fdfe6080604052600436101561001a575b3615610018575f80fd5b005b5f3560e01c8063162790551461008957806324a084df146100845780632a0115941461007f578063a0b5ffb01461007a578063c21d36f314610075578063ee33b7e2146100705763fc40cf730361000e57610679565b6104f2565b6103e0565b61033c565b610208565b6100d4565b346100b25760203660031901126100b2576004356100a6816100b6565b3b151560805260206080f35b5f80fd5b73ffffffffffffffffffffffffffffffffffffffff8116036100b257565b346100b25760403660031901126100b2576004356100f1816100b6565b60243590814710610195575f80809373ffffffffffffffffffffffffffffffffffffffff8294165af1610122610812565b501561012a57005b60405162461bcd60e51b815260206004820152603a60248201527f416464726573733a20756e61626c6520746f2073656e642076616c75652c207260448201527f6563697069656e74206d617920686176652072657665727465640000000000006064820152608490fd5b60405162461bcd60e51b815260206004820152601d60248201527f416464726573733a20696e73756666696369656e742062616c616e63650000006044820152606490fd5b9181601f840112156100b25782359167ffffffffffffffff83116100b257602083818601950101116100b257565b60603660031901126100b257600435610220816100b6565b60243567ffffffffffffffff81116100b2576102ee6102df7fe518073da644d0626295bee74d5d5c51447a33857c62913bb30f35e2fba3db7c9361027b61026e6102fa9536906004016101da565b9190604435923691610779565b6040519261028a606085610628565b602984527f416464726573733a206c6f772d6c6576656c2063616c6c20776974682076616c60208501527f7565206661696c65640000000000000000000000000000000000000000000000604085015261088d565b602080825183010191016107af565b6040519182918261064f565b0390a1005b9060406003198301126100b257600435610318816100b6565b916024359067ffffffffffffffff82116100b257610338916004016101da565b9091565b346100b2577fe518073da644d0626295bee74d5d5c51447a33857c62913bb30f35e2fba3db7c6102fa6102ee6102df6103835f80610379366102ff565b9491943691610779565b60405193610392604086610628565b601e85527f416464726573733a206c6f772d6c6576656c2063616c6c206661696c6564000060208601526103c8813b1515610841565b82602083519301915af16103da610812565b9061092a565b346100b2576103fb6103f1366102ff565b9291923691610779565b6040519061040a606083610628565b602582527f416464726573733a206c6f772d6c6576656c207374617469632063616c6c206660208301527f61696c65640000000000000000000000000000000000000000000000000000006040830152823b156104a1576102df6102fa925f80847fe518073da644d0626295bee74d5d5c51447a33857c62913bb30f35e2fba3db7c9760206102ee97519201905afa6103da610812565b60405162461bcd60e51b8152602060048201526024808201527f416464726573733a207374617469632063616c6c20746f206e6f6e2d636f6e746044820152631c9858dd60e21b6064820152608490fd5b346100b2576105036103f1366102ff565b60405190610512606083610628565b602782527f416464726573733a206c6f772d6c6576656c2064656c65676174652063616c6c60208301527f206661696c6564000000000000000000000000000000000000000000000000006040830152823b156105a9576102df6102fa925f80847fe518073da644d0626295bee74d5d5c51447a33857c62913bb30f35e2fba3db7c9760206102ee97519201905af46103da610812565b60405162461bcd60e51b815260206004820152602660248201527f416464726573733a2064656c65676174652063616c6c20746f206e6f6e2d636f60448201527f6e747261637400000000000000000000000000000000000000000000000000006064820152608490fd5b634e487b7160e01b5f52604160045260245ffd5b90601f8019910116810190811067ffffffffffffffff82111761064a57604052565b610614565b602060409281835280519182918282860152018484015e5f828201840152601f01601f1916010190565b346100b2575f3660031901126100b2576040515f80548060011c9060018116908115610753575b60208310821461073f57828552602085019190811561072657506001146106d6575b6106d2846102ee81860382610628565b0390f35b5f8080529250907f290decd9548b62a8d60345a988386fc84ba6bc95484008f6362f93160ef3e5635b818410610712575050016102ee826106c2565b8054848401526020909301926001016106ff565b60ff191682525090151560051b0190506102ee826106c2565b634e487b7160e01b5f52602260045260245ffd5b91607f16916106a0565b67ffffffffffffffff811161064a57601f01601f191660200190565b9291926107858261075d565b916107936040519384610628565b8294818452818301116100b2578281602093845f960137010152565b6020818303126100b25780519067ffffffffffffffff82116100b2570181601f820112156100b2578051906107e38261075d565b926107f16040519485610628565b828452602083830101116100b257815f9260208093018386015e8301015290565b3d1561083c573d906108238261075d565b916108316040519384610628565b82523d5f602084013e565b606090565b1561084857565b60405162461bcd60e51b815260206004820152601d60248201527f416464726573733a2063616c6c20746f206e6f6e2d636f6e74726163740000006044820152606490fd5b9092918047106108bf576108bc935f9283926108ab823b1515610841565b602083519301915af16103da610812565b90565b60405162461bcd60e51b815260206004820152602660248201527f416464726573733a20696e73756666696369656e742062616c616e636520666f60448201527f722063616c6c00000000000000000000000000000000000000000000000000006064820152608490fd5b90919015610936575090565b8151156109465750805190602001fd5b60405162461bcd60e51b8152908190610962906004830161064f565b0390fdfea26469706673582212207f4403985cc205d51c3b28dfa7ad5586ff5780c5119c8fa9a997f636af162a9f64736f6c634300081a0033","linkReferences":{}},"methodIdentifiers":{"functionCall(address,bytes)":"a0b5ffb0","functionCallWithValue(address,bytes,uint256)":"2a011594","functionDelegateCall(address,bytes)":"ee33b7e2","functionStaticCall(address,bytes)":"c21d36f3","isContract(address)":"16279055","sendValue(address,uint256)":"24a084df","sharedAnswer()":"fc40cf73"},"id":145}