{"abi":[{"type":"function","name":"get","inputs":[],"outputs":[{"name":"","type":"bool","internalType":"bool"}],"stateMutability":"pure"},{"type":"function","name":"initialize","inputs":[{"name":"_value","type":"uint256","internalType":"uint256"},{"name":"_text","type":"string","internalType":"string"},{"name":"_values","type":"uint256[]","internalType":"uint256[]"}],"outputs":[],"stateMutability":"nonpayable"},{"type":"function","name":"initializeNonPayable","inputs":[],"outputs":[],"stateMutability":"nonpayable"},{"type":"function","name":"initializeNonPayableWithValue","inputs":[{"name":"_value","type":"uint256","internalType":"uint256"}],"outputs":[],"stateMutability":"nonpayable"},{"type":"function","name":"initializePayable","inputs":[],"outputs":[],"stateMutability":"payable"},{"type":"function","name":"initializePayableWithValue","inputs":[{"name":"_value","type":"uint256","internalType":"uint256"}],"outputs":[],"stateMutability":"payable"},{"type":"function","name":"migrate","inputs":[{"name":"newVal","type":"uint256","internalType":"uint256"}],"outputs":[],"stateMutability":"payable"},{"type":"function","name":"reverts","inputs":[],"outputs":[],"stateMutability":"pure"},{"type":"function","name":"text","inputs":[],"outputs":[{"name":"","type":"string","internalType":"string"}],"stateMutability":"view"},{"type":"function","name":"value","inputs":[],"outputs":[{"name":"","type":"uint256","internalType":"uint256"}],"stateMutability":"view"},{"type":"function","name":"values","inputs":[{"name":"","type":"uint256","internalType":"uint256"}],"outputs":[{"name":"","type":"uint256","internalType":"uint256"}],"stateMutability":"view"},{"type":"function","name":"version","inputs":[],"outputs":[{"name":"","type":"string","internalType":"string"}],"stateMutability":"pure"}],"bytecode":{"object":"0x60808060405234601557610707908161001a8239f35b5f80fdfe6080806040526004361015610012575f80fd5b5f3560e01c9081631f1bd6921461055157508063227367d51461053b5780633bccbbc9146104e65780633fa4f245146104ca578063454b0608146100a057806354fd4d501461048a5780635e383d211461043a5780636d4ce63c1461041f578063763e2831146104075780639fba1f9a146103f6578063d31f8b6b146100a55763e79f5bee146100a0575f80fd5b6106a8565b346103f25760603660031901126103f25760243567ffffffffffffffff81116103f257366023820112156103f257806004013567ffffffffffffffff81116102ab57604051916100ff601f8301601f19166020018461065c565b81835236602483830101116103f257815f92602460209301838601378301015260443567ffffffffffffffff81116103f257366023820112156103f257806004013567ffffffffffffffff81116102ab578060051b9160405191610166602085018461065c565b82526020820160248194830101913683116103f257602401905b8282106103e2575050506004355f55825167ffffffffffffffff81116102ab576101ab600154610624565b601f811161034b575b506020601f82116001146102ca57819293945f926102bf575b50508160011b915f199060031b1c1916176001555b519067ffffffffffffffff82116102ab576801000000000000000082116102ab5760025482600255808310610257575b509060025f525f5b81811061022357005b60019060208451940193817f405787fa12a823e0f2b7631cc41b3ba8828b3321ca811111fa75cd3aa3bb5ace01550161021a565b6102a5907f405787fa12a823e0f2b7631cc41b3ba8828b3321ca811111fa75cd3aa3bb5ace01837f405787fa12a823e0f2b7631cc41b3ba8828b3321ca811111fa75cd3aa3bb5ace016106bb565b82610212565b634e487b7160e01b5f52604160045260245ffd5b0151905084806101cd565b601f1982169060015f527fb10e2d527612073b26eecdfd717e6a320cf44b4afac2b0732d9fcbe2b7fa0cf6915f5b8181106103335750958360019596971061031b575b505050811b016001556101e2565b01515f1960f88460031b161c1916905584808061030d565b9192602060018192868b0151815501940192016102f8565b6103b49060015f52601f830160051c7fb10e2d527612073b26eecdfd717e6a320cf44b4afac2b0732d9fcbe2b7fa0cf60190602084106103ba575b601f0160051c7fb10e2d527612073b26eecdfd717e6a320cf44b4afac2b0732d9fcbe2b7fa0cf601906106bb565b846101b4565b7fb10e2d527612073b26eecdfd717e6a320cf44b4afac2b0732d9fcbe2b7fa0cf69150610386565b8135815260209182019101610180565b5f80fd5b5f3660031901126103f25760645f55005b346103f25760203660031901126103f2576004355f55005b346103f2575f3660031901126103f257602060405160018152f35b346103f25760203660031901126103f2576004356002548110156103f25760209060025f527f405787fa12a823e0f2b7631cc41b3ba8828b3321ca811111fa75cd3aa3bb5ace0154604051908152f35b346103f2575f3660031901126103f2576104c66040516104ab60408261065c565b60028152612b1960f11b60208201526040519182918261067e565b0390f35b346103f2575f3660031901126103f25760205f54604051908152f35b346103f2575f3660031901126103f25760405162461bcd60e51b815260206004820152601c60248201527f44756d6d79496d706c656d656e746174696f6e207265766572746564000000006044820152606490fd5b346103f2575f3660031901126103f257600a5f55005b346103f2575f3660031901126103f2575f60015461056e81610624565b808452906001811690811561060057506001146105a2575b6104c6836105968185038261065c565b6040519182918261067e565b91905060015f527fb10e2d527612073b26eecdfd717e6a320cf44b4afac2b0732d9fcbe2b7fa0cf6915f905b8082106105e657509091508101602001610596610586565b9192600181602092548385880101520191019092916105ce565b60ff191660208086019190915291151560051b840190910191506105969050610586565b90600182811c92168015610652575b602083101461063e57565b634e487b7160e01b5f52602260045260245ffd5b91607f1691610633565b90601f8019910116810190811067ffffffffffffffff8211176102ab57604052565b602060409281835280519182918282860152018484015e5f828201840152601f01601f1916010190565b60203660031901126103f2576004355f55005b8181106106c6575050565b5f81556001016106bb56fea26469706673582212207ef17c33545ca9be4fa9b452ce5ba8ca56d286caad69169ea8f06703ab53c8d064736f6c634300081a0033","linkReferences":{}},"methodIdentifiers":{"get()":"6d4ce63c","initialize(uint256,string,uint256[])":"d31f8b6b","initializeNonPayable()":"227367d5","initializeNonPayableWithValue(uint256)":"763e2831","initializePayable()":"9fba1f9a","initializePayableWithValue(uint256)":"e79f5bee","migrate(uint256)":"454b0608","reverts()":"3bccbbc9","text()":"1f1bd692","value()":"3fa4f245","values(uint256)":"5e383d21","version()":"54fd4d50"},"id":156}