{"abi":[{"type":"function","name":"get","inputs":[],"outputs":[{"name":"","type":"bool","internalType":"bool"}],"stateMutability":"pure"},{"type":"function","name":"initialize","inputs":[{"name":"_value","type":"uint256","internalType":"uint256"},{"name":"_text","type":"string","internalType":"string"},{"name":"_values","type":"uint256[]","internalType":"uint256[]"}],"outputs":[],"stateMutability":"nonpayable"},{"type":"function","name":"initializeNonPayable","inputs":[],"outputs":[],"stateMutability":"nonpayable"},{"type":"function","name":"initializeNonPayableWithValue","inputs":[{"name":"_value","type":"uint256","internalType":"uint256"}],"outputs":[],"stateMutability":"nonpayable"},{"type":"function","name":"initializePayable","inputs":[],"outputs":[],"stateMutability":"payable"},{"type":"function","name":"initializePayableWithValue","inputs":[{"name":"_value","type":"uint256","internalType":"uint256"}],"outputs":[],"stateMutability":"payable"},{"type":"function","name":"reverts","inputs":[],"outputs":[],"stateMutability":"pure"},{"type":"function","name":"text","inputs":[],"outputs":[{"name":"","type":"string","internalType":"string"}],"stateMutability":"view"},{"type":"function","name":"value","inputs":[],"outputs":[{"name":"","type":"uint256","internalType":"uint256"}],"stateMutability":"view"},{"type":"function","name":"values","inputs":[{"name":"","type":"uint256","internalType":"uint256"}],"outputs":[{"name":"","type":"uint256","internalType":"uint256"}],"stateMutability":"view"},{"type":"function","name":"version","inputs":[],"outputs":[{"name":"","type":"string","internalType":"string"}],"stateMutability":"pure"}],"bytecode":{"object":"0x608080604052346015576106f7908161001a8239f35b5f80fdfe6080806040526004361015610012575f80fd5b5f3560e01c9081631f1bd6921461055457508063227367d51461053e5780633bccbbc9146104e95780633fa4f245146104cd57806354fd4d501461048d5780635e383d211461043d5780636d4ce63c14610422578063763e28311461040a5780639fba1f9a146103f9578063d31f8b6b146100ac5763e79f5bee14610095575f80fd5b60203660031901126100a8576004355f55005b5f80fd5b346100a85760603660031901126100a85760243567ffffffffffffffff81116100a857366023820112156100a857806004013567ffffffffffffffff81116102b25760405191610106601f8301601f19166020018461065f565b81835236602483830101116100a857815f92602460209301838601378301015260443567ffffffffffffffff81116100a857366023820112156100a857806004013567ffffffffffffffff81116102b2578060051b916040519161016d602085018461065f565b82526020820160248194830101913683116100a857602401905b8282106103e9575050506004355f55825167ffffffffffffffff81116102b2576101b2600154610627565b601f8111610352575b506020601f82116001146102d157819293945f926102c6575b50508160011b915f199060031b1c1916176001555b519067ffffffffffffffff82116102b2576801000000000000000082116102b2576002548260025580831061025e575b509060025f525f5b81811061022a57005b60019060208451940193817f405787fa12a823e0f2b7631cc41b3ba8828b3321ca811111fa75cd3aa3bb5ace015501610221565b6102ac907f405787fa12a823e0f2b7631cc41b3ba8828b3321ca811111fa75cd3aa3bb5ace01837f405787fa12a823e0f2b7631cc41b3ba8828b3321ca811111fa75cd3aa3bb5ace016106ab565b82610219565b634e487b7160e01b5f52604160045260245ffd5b0151905084806101d4565b601f1982169060015f527fb10e2d527612073b26eecdfd717e6a320cf44b4afac2b0732d9fcbe2b7fa0cf6915f5b81811061033a57509583600195969710610322575b505050811b016001556101e9565b01515f1960f88460031b161c19169055848080610314565b9192602060018192868b0151815501940192016102ff565b6103bb9060015f52601f830160051c7fb10e2d527612073b26eecdfd717e6a320cf44b4afac2b0732d9fcbe2b7fa0cf60190602084106103c1575b601f0160051c7fb10e2d527612073b26eecdfd717e6a320cf44b4afac2b0732d9fcbe2b7fa0cf601906106ab565b846101bb565b7fb10e2d527612073b26eecdfd717e6a320cf44b4afac2b0732d9fcbe2b7fa0cf6915061038d565b8135815260209182019101610187565b5f3660031901126100a85760645f55005b346100a85760203660031901126100a8576004355f55005b346100a8575f3660031901126100a857602060405160018152f35b346100a85760203660031901126100a8576004356002548110156100a85760209060025f527f405787fa12a823e0f2b7631cc41b3ba8828b3321ca811111fa75cd3aa3bb5ace0154604051908152f35b346100a8575f3660031901126100a8576104c96040516104ae60408261065f565b6002815261563160f01b602082015260405191829182610681565b0390f35b346100a8575f3660031901126100a85760205f54604051908152f35b346100a8575f3660031901126100a85760405162461bcd60e51b815260206004820152601c60248201527f44756d6d79496d706c656d656e746174696f6e207265766572746564000000006044820152606490fd5b346100a8575f3660031901126100a857600a5f55005b346100a8575f3660031901126100a8575f60015461057181610627565b808452906001811690811561060357506001146105a5575b6104c9836105998185038261065f565b60405191829182610681565b91905060015f527fb10e2d527612073b26eecdfd717e6a320cf44b4afac2b0732d9fcbe2b7fa0cf6915f905b8082106105e957509091508101602001610599610589565b9192600181602092548385880101520191019092916105d1565b60ff191660208086019190915291151560051b840190910191506105999050610589565b90600182811c92168015610655575b602083101461064157565b634e487b7160e01b5f52602260045260245ffd5b91607f1691610636565b90601f8019910116810190811067ffffffffffffffff8211176102b257604052565b602060409281835280519182918282860152018484015e5f828201840152601f01601f1916010190565b8181106106b6575050565b5f81556001016106ab56fea2646970667358221220c82ea0c282f1d4b1029a36f0cf42a719a606223df1b1125ec907bf940a20efed64736f6c634300081a0033","linkReferences":{}},"methodIdentifiers":{"get()":"6d4ce63c","initialize(uint256,string,uint256[])":"d31f8b6b","initializeNonPayable()":"227367d5","initializeNonPayableWithValue(uint256)":"763e2831","initializePayable()":"9fba1f9a","initializePayableWithValue(uint256)":"e79f5bee","reverts()":"3bccbbc9","text()":"1f1bd692","value()":"3fa4f245","values(uint256)":"5e383d21","version()":"54fd4d50"},"id":156}