{"abi":[{"type":"function","name":"allowance","inputs":[{"name":"owner","type":"address","internalType":"address"},{"name":"spender","type":"address","internalType":"address"}],"outputs":[{"name":"","type":"uint256","internalType":"uint256"}],"stateMutability":"view"},{"type":"function","name":"approve","inputs":[{"name":"spender","type":"address","internalType":"address"},{"name":"amount","type":"uint256","internalType":"uint256"}],"outputs":[{"name":"","type":"bool","internalType":"bool"}],"stateMutability":"nonpayable"},{"type":"function","name":"balanceOf","inputs":[{"name":"account","type":"address","internalType":"address"}],"outputs":[{"name":"","type":"uint256","internalType":"uint256"}],"stateMutability":"view"},{"type":"function","name":"decimals","inputs":[],"outputs":[{"name":"","type":"uint8","internalType":"uint8"}],"stateMutability":"view"},{"type":"function","name":"decreaseAllowance","inputs":[{"name":"spender","type":"address","internalType":"address"},{"name":"subtractedValue","type":"uint256","internalType":"uint256"}],"outputs":[{"name":"","type":"bool","internalType":"bool"}],"stateMutability":"nonpayable"},{"type":"function","name":"flashFee","inputs":[{"name":"token","type":"address","internalType":"address"},{"name":"amount","type":"uint256","internalType":"uint256"}],"outputs":[{"name":"","type":"uint256","internalType":"uint256"}],"stateMutability":"view"},{"type":"function","name":"flashLoan","inputs":[{"name":"receiver","type":"address","internalType":"contract IERC3156FlashBorrowerUpgradeable"},{"name":"token","type":"address","internalType":"address"},{"name":"amount","type":"uint256","internalType":"uint256"},{"name":"data","type":"bytes","internalType":"bytes"}],"outputs":[{"name":"","type":"bool","internalType":"bool"}],"stateMutability":"nonpayable"},{"type":"function","name":"increaseAllowance","inputs":[{"name":"spender","type":"address","internalType":"address"},{"name":"addedValue","type":"uint256","internalType":"uint256"}],"outputs":[{"name":"","type":"bool","internalType":"bool"}],"stateMutability":"nonpayable"},{"type":"function","name":"maxFlashLoan","inputs":[{"name":"token","type":"address","internalType":"address"}],"outputs":[{"name":"","type":"uint256","internalType":"uint256"}],"stateMutability":"view"},{"type":"function","name":"name","inputs":[],"outputs":[{"name":"","type":"string","internalType":"string"}],"stateMutability":"view"},{"type":"function","name":"symbol","inputs":[],"outputs":[{"name":"","type":"string","internalType":"string"}],"stateMutability":"view"},{"type":"function","name":"totalSupply","inputs":[],"outputs":[{"name":"","type":"uint256","internalType":"uint256"}],"stateMutability":"view"},{"type":"function","name":"transfer","inputs":[{"name":"recipient","type":"address","internalType":"address"},{"name":"amount","type":"uint256","internalType":"uint256"}],"outputs":[{"name":"","type":"bool","internalType":"bool"}],"stateMutability":"nonpayable"},{"type":"function","name":"transferFrom","inputs":[{"name":"sender","type":"address","internalType":"address"},{"name":"recipient","type":"address","internalType":"address"},{"name":"amount","type":"uint256","internalType":"uint256"}],"outputs":[{"name":"","type":"bool","internalType":"bool"}],"stateMutability":"nonpayable"},{"type":"event","name":"Approval","inputs":[{"name":"owner","type":"address","indexed":true,"internalType":"address"},{"name":"spender","type":"address","indexed":true,"internalType":"address"},{"name":"value","type":"uint256","indexed":false,"internalType":"uint256"}],"anonymous":false},{"type":"event","name":"Transfer","inputs":[{"name":"from","type":"address","indexed":true,"internalType":"address"},{"name":"to","type":"address","indexed":true,"internalType":"address"},{"name":"value","type":"uint256","indexed":false,"internalType":"uint256"}],"anonymous":false}],"bytecode":{"object":"0x60808060405234601557610db1908161001a8239f35b5f80fdfe6080806040526004361015610012575f80fd5b5f3560e01c90816306fdde03146108fd57508063095ea7b3146108d757806318160ddd146108ba57806323b872dd146107e1578063313ce567146107c657806339509351146107775780635cffe9de146103a0578063613255ab1461036257806370a082311461032a57806395d89b4114610226578063a457c2d71461016a578063a9059cbb14610139578063d9d98ce41461010e5763dd62ed3e146100b6575f80fd5b3461010a57604036600319011261010a576100cf6109df565b6001600160a01b036100df6109f5565b91165f5260346020526001600160a01b0360405f2091165f52602052602060405f2054604051908152f35b5f80fd5b3461010a57604036600319011261010a57602061013161012c6109df565b610a6f565b604051908152f35b3461010a57604036600319011261010a5761015f6101556109df565b6024359033610bcc565b602060405160018152f35b3461010a57604036600319011261010a576101836109df565b60243590335f52603460205260405f206001600160a01b0382165f5260205260405f2054918083106101bb5761015f92039033610ac8565b60405162461bcd60e51b815260206004820152602560248201527f45524332303a2064656372656173656420616c6c6f77616e63652062656c6f7760448201527f207a65726f0000000000000000000000000000000000000000000000000000006064820152608490fd5b3461010a575f36600319011261010a576040515f6037548060011c90600181168015610320575b60208310811461030c578285529081156102e8575060011461028a575b6102868361027a81850382610a0b565b604051918291826109b5565b0390f35b91905060375f527f42a7b7dd785cd69714a189dffb3fd7d7174edc9ece837694ce50f7078f7c31ae915f905b8082106102ce5750909150810160200161027a61026a565b9192600181602092548385880101520191019092916102b6565b60ff191660208086019190915291151560051b8401909101915061027a905061026a565b634e487b7160e01b5f52602260045260245ffd5b91607f169161024d565b3461010a57602036600319011261010a576001600160a01b0361034b6109df565b165f526033602052602060405f2054604051908152f35b3461010a57602036600319011261010a5761037b6109df565b6001600160a01b0316300361039857602060355419604051908152f35b60205f610131565b3461010a57608036600319011261010a576004356001600160a01b03811680910361010a576103cd6109f5565b6044359060643567ffffffffffffffff811161010a573660238201121561010a57806004013567ffffffffffffffff811161010a57366024828401011161010a5761041783610a6f565b9285156107325760c46001600160a01b039160209361043888603554610a41565b603555885f526033855260405f20610451898254610a41565b9055885f7fddf252ad1be2c89b69c2b068fc378daa952ba7f163c4a11628f55a4df523b3ef876040518c8152a380602460405197889687956323e30c8b60e01b875233600488015216828601528a604486015289606486015260a060848601528260a486015201848401375f838284010152601f801991011681010301815f885af18015610727575f906106d5575b7f439148f0bbc682ca079e46d6e2c2f0c1e3b820f1a291b069d8882abf8cf18dd991500361068457825f52603460205260405f206001600160a01b0330165f5260205260405f2054916105338282610a41565b8310610619576105596105528361054d8461055e97610a62565b610a62565b3086610ac8565b610a41565b90805f52603360205260405f2054918083106105c9576020817fddf252ad1be2c89b69c2b068fc378daa952ba7f163c4a11628f55a4df523b3ef925f95858752603384520360408620556105b481603554610a62565b603555604051908152a3602060405160018152f35b60405162461bcd60e51b815260206004820152602260248201527f45524332303a206275726e20616d6f756e7420657863656564732062616c616e604482015261636560f01b6064820152608490fd5b60405162461bcd60e51b815260206004820152602f60248201527f4552433230466c6173684d696e743a20616c6c6f77616e636520646f6573206e60448201527f6f7420616c6c6f7720726566756e6400000000000000000000000000000000006064820152608490fd5b60405162461bcd60e51b8152602060048201526024808201527f4552433230466c6173684d696e743a20696e76616c69642072657475726e2076604482015263616c756560e01b6064820152608490fd5b506020813d60201161071f575b816106ef60209383610a0b565b8101031261010a577f439148f0bbc682ca079e46d6e2c2f0c1e3b820f1a291b069d8882abf8cf18dd990516104e0565b3d91506106e2565b6040513d5f823e3d90fd5b60405162461bcd60e51b815260206004820152601f60248201527f45524332303a206d696e7420746f20746865207a65726f2061646472657373006044820152606490fd5b3461010a57604036600319011261010a5761015f6107936109df565b335f52603460205260405f206001600160a01b0382165f526020526107bf60405f206024359054610a41565b9033610ac8565b3461010a575f36600319011261010a57602060405160128152f35b3461010a57606036600319011261010a576107fa6109df565b6108026109f5565b90610811604435809383610bcc565b6001600160a01b0381165f52603460205260405f206001600160a01b0333165f5260205260405f20549180831061084f5761015f9203903390610ac8565b60405162461bcd60e51b815260206004820152602860248201527f45524332303a207472616e7366657220616d6f756e742065786365656473206160448201527f6c6c6f77616e63650000000000000000000000000000000000000000000000006064820152608490fd5b3461010a575f36600319011261010a576020603554604051908152f35b3461010a57604036600319011261010a5761015f6108f36109df565b6024359033610ac8565b3461010a575f36600319011261010a575f6036548060011c906001811680156109ab575b60208310811461030c578285529081156102e8575060011461094d576102868361027a81850382610a0b565b91905060365f527f4a11f94e20a93c79f6ec743a1954ec4fc2c08429ae2122118bf234b2185c81b8915f905b8082106109915750909150810160200161027a61026a565b919260018160209254838588010152019101909291610979565b91607f1691610921565b602060409281835280519182918282860152018484015e5f828201840152601f01601f1916010190565b600435906001600160a01b038216820361010a57565b602435906001600160a01b038216820361010a57565b90601f8019910116810190811067ffffffffffffffff821117610a2d57604052565b634e487b7160e01b5f52604160045260245ffd5b91908201809211610a4e57565b634e487b7160e01b5f52601160045260245ffd5b91908203918211610a4e57565b6001600160a01b0330911603610a83575f90565b60405162461bcd60e51b815260206004820152601b60248201527f4552433230466c6173684d696e743a2077726f6e6720746f6b656e00000000006044820152606490fd5b6001600160a01b0316908115610b7b576001600160a01b0316918215610b2b5760207f8c5be1e5ebec7d5bd14f71427d1e84f3dd0314c0f7b2291e5b200ac8c7c3b92591835f526034825260405f20855f5282528060405f2055604051908152a3565b60405162461bcd60e51b815260206004820152602260248201527f45524332303a20617070726f766520746f20746865207a65726f206164647265604482015261737360f01b6064820152608490fd5b60405162461bcd60e51b8152602060048201526024808201527f45524332303a20617070726f76652066726f6d20746865207a65726f206164646044820152637265737360e01b6064820152608490fd5b6001600160a01b0316908115610d10576001600160a01b0316918215610cbf57815f52603360205260405f2054818110610c5457817fddf252ad1be2c89b69c2b068fc378daa952ba7f163c4a11628f55a4df523b3ef92602092855f52603384520360405f2055845f526033825260405f20610c49828254610a41565b9055604051908152a3565b60405162461bcd60e51b815260206004820152602660248201527f45524332303a207472616e7366657220616d6f756e742065786365656473206260448201527f616c616e636500000000000000000000000000000000000000000000000000006064820152608490fd5b60405162461bcd60e51b815260206004820152602360248201527f45524332303a207472616e7366657220746f20746865207a65726f206164647260448201526265737360e81b6064820152608490fd5b60405162461bcd60e51b815260206004820152602560248201527f45524332303a207472616e736665722066726f6d20746865207a65726f20616460448201527f64726573730000000000000000000000000000000000000000000000000000006064820152608490fdfea2646970667358221220e922e7a24f59d14bfeded5949bd23ea89ae7b38a0e62eed85896d308b61eaf4564736f6c634300081a0033","linkReferences":{}},"methodIdentifiers":{"allowance(address,address)":"dd62ed3e","approve(address,uint256)":"095ea7b3","balanceOf(address)":"70a08231","decimals()":"313ce567","decreaseAllowance(address,uint256)":"a457c2d7","flashFee(address,uint256)":"d9d98ce4","flashLoan(address,address,uint256,bytes)":"5cffe9de","increaseAllowance(address,uint256)":"39509351","maxFlashLoan(address)":"613255ab","name()":"06fdde03","symbol()":"95d89b41","totalSupply()":"18160ddd","transfer(address,uint256)":"a9059cbb","transferFrom(address,address,uint256)":"23b872dd"},"id":344}