{"abi":[{"type":"function","name":"allowance","inputs":[{"name":"holder","type":"address","internalType":"address"},{"name":"spender","type":"address","internalType":"address"}],"outputs":[{"name":"","type":"uint256","internalType":"uint256"}],"stateMutability":"view"},{"type":"function","name":"approve","inputs":[{"name":"spender","type":"address","internalType":"address"},{"name":"value","type":"uint256","internalType":"uint256"}],"outputs":[{"name":"","type":"bool","internalType":"bool"}],"stateMutability":"nonpayable"},{"type":"function","name":"approveInternal","inputs":[{"name":"holder","type":"address","internalType":"address"},{"name":"spender","type":"address","internalType":"address"},{"name":"value","type":"uint256","internalType":"uint256"}],"outputs":[],"stateMutability":"nonpayable"},{"type":"function","name":"authorizeOperator","inputs":[{"name":"operator","type":"address","internalType":"address"}],"outputs":[],"stateMutability":"nonpayable"},{"type":"function","name":"balanceOf","inputs":[{"name":"tokenHolder","type":"address","internalType":"address"}],"outputs":[{"name":"","type":"uint256","internalType":"uint256"}],"stateMutability":"view"},{"type":"function","name":"burn","inputs":[{"name":"amount","type":"uint256","internalType":"uint256"},{"name":"data","type":"bytes","internalType":"bytes"}],"outputs":[],"stateMutability":"nonpayable"},{"type":"function","name":"decimals","inputs":[],"outputs":[{"name":"","type":"uint8","internalType":"uint8"}],"stateMutability":"pure"},{"type":"function","name":"defaultOperators","inputs":[],"outputs":[{"name":"","type":"address[]","internalType":"address[]"}],"stateMutability":"view"},{"type":"function","name":"granularity","inputs":[],"outputs":[{"name":"","type":"uint256","internalType":"uint256"}],"stateMutability":"view"},{"type":"function","name":"isOperatorFor","inputs":[{"name":"operator","type":"address","internalType":"address"},{"name":"tokenHolder","type":"address","internalType":"address"}],"outputs":[{"name":"","type":"bool","internalType":"bool"}],"stateMutability":"view"},{"type":"function","name":"mintInternal","inputs":[{"name":"to","type":"address","internalType":"address"},{"name":"amount","type":"uint256","internalType":"uint256"},{"name":"userData","type":"bytes","internalType":"bytes"},{"name":"operatorData","type":"bytes","internalType":"bytes"}],"outputs":[],"stateMutability":"nonpayable"},{"type":"function","name":"mintInternalExtended","inputs":[{"name":"to","type":"address","internalType":"address"},{"name":"amount","type":"uint256","internalType":"uint256"},{"name":"userData","type":"bytes","internalType":"bytes"},{"name":"operatorData","type":"bytes","internalType":"bytes"},{"name":"requireReceptionAck","type":"bool","internalType":"bool"}],"outputs":[],"stateMutability":"nonpayable"},{"type":"function","name":"name","inputs":[],"outputs":[{"name":"","type":"string","internalType":"string"}],"stateMutability":"view"},{"type":"function","name":"operatorBurn","inputs":[{"name":"account","type":"address","internalType":"address"},{"name":"amount","type":"uint256","internalType":"uint256"},{"name":"data","type":"bytes","internalType":"bytes"},{"name":"operatorData","type":"bytes","internalType":"bytes"}],"outputs":[],"stateMutability":"nonpayable"},{"type":"function","name":"operatorSend","inputs":[{"name":"sender","type":"address","internalType":"address"},{"name":"recipient","type":"address","internalType":"address"},{"name":"amount","type":"uint256","internalType":"uint256"},{"name":"data","type":"bytes","internalType":"bytes"},{"name":"operatorData","type":"bytes","internalType":"bytes"}],"outputs":[],"stateMutability":"nonpayable"},{"type":"function","name":"revokeOperator","inputs":[{"name":"operator","type":"address","internalType":"address"}],"outputs":[],"stateMutability":"nonpayable"},{"type":"function","name":"send","inputs":[{"name":"recipient","type":"address","internalType":"address"},{"name":"amount","type":"uint256","internalType":"uint256"},{"name":"data","type":"bytes","internalType":"bytes"}],"outputs":[],"stateMutability":"nonpayable"},{"type":"function","name":"symbol","inputs":[],"outputs":[{"name":"","type":"string","internalType":"string"}],"stateMutability":"view"},{"type":"function","name":"totalSupply","inputs":[],"outputs":[{"name":"","type":"uint256","internalType":"uint256"}],"stateMutability":"view"},{"type":"function","name":"transfer","inputs":[{"name":"recipient","type":"address","internalType":"address"},{"name":"amount","type":"uint256","internalType":"uint256"}],"outputs":[{"name":"","type":"bool","internalType":"bool"}],"stateMutability":"nonpayable"},{"type":"function","name":"transferFrom","inputs":[{"name":"holder","type":"address","internalType":"address"},{"name":"recipient","type":"address","internalType":"address"},{"name":"amount","type":"uint256","internalType":"uint256"}],"outputs":[{"name":"","type":"bool","internalType":"bool"}],"stateMutability":"nonpayable"},{"type":"event","name":"Approval","inputs":[{"name":"owner","type":"address","indexed":true,"internalType":"address"},{"name":"spender","type":"address","indexed":true,"internalType":"address"},{"name":"value","type":"uint256","indexed":false,"internalType":"uint256"}],"anonymous":false},{"type":"event","name":"AuthorizedOperator","inputs":[{"name":"operator","type":"address","indexed":true,"internalType":"address"},{"name":"tokenHolder","type":"address","indexed":true,"internalType":"address"}],"anonymous":false},{"type":"event","name":"BeforeTokenTransfer","inputs":[],"anonymous":false},{"type":"event","name":"Burned","inputs":[{"name":"operator","type":"address","indexed":true,"internalType":"address"},{"name":"from","type":"address","indexed":true,"internalType":"address"},{"name":"amount","type":"uint256","indexed":false,"internalType":"uint256"},{"name":"data","type":"bytes","indexed":false,"internalType":"bytes"},{"name":"operatorData","type":"bytes","indexed":false,"internalType":"bytes"}],"anonymous":false},{"type":"event","name":"Minted","inputs":[{"name":"operator","type":"address","indexed":true,"internalType":"address"},{"name":"to","type":"address","indexed":true,"internalType":"address"},{"name":"amount","type":"uint256","indexed":false,"internalType":"uint256"},{"name":"data","type":"bytes","indexed":false,"internalType":"bytes"},{"name":"operatorData","type":"bytes","indexed":false,"internalType":"bytes"}],"anonymous":false},{"type":"event","name":"RevokedOperator","inputs":[{"name":"operator","type":"address","indexed":true,"internalType":"address"},{"name":"tokenHolder","type":"address","indexed":true,"internalType":"address"}],"anonymous":false},{"type":"event","name":"Sent","inputs":[{"name":"operator","type":"address","indexed":true,"internalType":"address"},{"name":"from","type":"address","indexed":true,"internalType":"address"},{"name":"to","type":"address","indexed":true,"internalType":"address"},{"name":"amount","type":"uint256","indexed":false,"internalType":"uint256"},{"name":"data","type":"bytes","indexed":false,"internalType":"bytes"},{"name":"operatorData","type":"bytes","indexed":false,"internalType":"bytes"}],"anonymous":false},{"type":"event","name":"Transfer","inputs":[{"name":"from","type":"address","indexed":true,"internalType":"address"},{"name":"to","type":"address","indexed":true,"internalType":"address"},{"name":"value","type":"uint256","indexed":false,"internalType":"uint256"}],"anonymous":false}],"bytecode":{"object":"0x60808060405234601557611aa4908161001a8239f35b5f80fdfe6080806040526004361015610012575f80fd5b5f3560e01c90816306e4853814610c285750806306fdde0314610b6d578063095ea7b314610b3c57806318160ddd14610b1f57806323b872dd14610953578063313ce56714610938578063556f0dc71461091d57806356189cb41461090657806362ad1b831461088a57806370a0823114610852578063959b8c3f1461075557806395d89b41146106495780639bd9bbc6146105f0578063a9059cbb1461052d578063b1f0b5be14610489578063cfbfab0b14610309578063d95b6371146102d3578063dd62ed3e1461027f578063fad8b32a14610184578063fc673c4f146101585763fe9d930314610103575f80fd5b346101545760403660031901126101545760243567ffffffffffffffff811161015457610137610152913690600401610dad565b60405190610146602083610d77565b5f82526004353361180b565b005b5f80fd5b346101545761015261016936610e03565b9261017f61017a8294939433610f55565b610ee3565b61180b565b34610154576020366003190112610154576001600160a01b036101a5610d11565b1633811461023057805f52603860205260ff60405f2054165f1461020d57335f52603a60205260405f20815f5260205260405f20600160ff198254161790555b33907f50546e66e5f44d728365dc3908c63bc5cfeeab470722c1677e3073a6ac294aa15f80a3005b335f52603960205260405f20815f5260205260405f2060ff1981541690556101e5565b60405162461bcd60e51b815260206004820152602160248201527f4552433737373a207265766f6b696e672073656c66206173206f70657261746f6044820152603960f91b6064820152608490fd5b3461015457604036600319011261015457610298610d11565b6001600160a01b036102a8610d27565b91165f52603b6020526001600160a01b0360405f2091165f52602052602060405f2054604051908152f35b346101545760403660031901126101545760206102ff6102f1610d11565b6102f9610d27565b90610f55565b6040519015158152f35b346101545760a036600319011261015457610322610d11565b6024359060443567ffffffffffffffff811161015457610346903690600401610dad565b9060643567ffffffffffffffff811161015457610367903690600401610dad565b92608435908115158203610154576001600160a01b03831694851561044557847f2fe5be0146f74c5bce36c0b80911af6c7d86ff27e89d5cfa61fc681327954e5d6104398361042a6020978b965f9b897fddf252ad1be2c89b69c2b068fc378daa952ba7f163c4a11628f55a4df523b3ef9c7f52316ab8e8b0687ce803e403dfe429541bccd4f6c4683ec65d254d382f15a2658f80a161040982603454611279565b6034558a8f5260338d5260408f20610422838254611279565b9055336114eb565b60405191829133958884611286565b0390a3604051908152a3005b606460405162461bcd60e51b815260206004820152602060248201527f4552433737373a206d696e7420746f20746865207a65726f20616464726573736044820152fd5b346101545761049736610e03565b6001600160a01b038416939284156104455784837f2fe5be0146f74c5bce36c0b80911af6c7d86ff27e89d5cfa61fc681327954e5d6104398561042a60016020987fddf252ad1be2c89b69c2b068fc378daa952ba7f163c4a11628f55a4df523b3ef9a895f9d7f52316ab8e8b0687ce803e403dfe429541bccd4f6c4683ec65d254d382f15a2658f80a161040982603454611279565b3461015457604036600319011261015457610546610d11565b6105e7602435916105616001600160a01b0382161515610e6a565b6020926105916040516105748682610d77565b5f8152604051906105858783610d77565b5f82528385333361115f565b6105be6040516105a18682610d77565b5f8152604051906105b28783610d77565b5f8252838533336112b1565b604051906105cc8583610d77565b5f8252604051926105dd8685610d77565b5f84523333611403565b60405160018152f35b3461015457606036600319011261015457610609610d11565b6044359067ffffffffffffffff82116101545761062d610152923690600401610dad565b6040519161063c602084610d77565b5f83526024359033611663565b34610154575f366003190112610154576040515f6036548060011c9060018116801561074b575b6020831081146107375782855290811561071357506001146106b5575b6106b18361069d81850382610d77565b604051918291602083526020830190610ced565b0390f35b91905060365f527f4a11f94e20a93c79f6ec743a1954ec4fc2c08429ae2122118bf234b2185c81b8915f905b8082106106f95750909150810160200161069d61068d565b9192600181602092548385880101520191019092916106e1565b60ff191660208086019190915291151560051b8401909101915061069d905061068d565b634e487b7160e01b5f52602260045260245ffd5b91607f1691610670565b34610154576020366003190112610154576001600160a01b03610776610d11565b1680331461080157805f52603860205260ff60405f2054165f146107db57335f52603a60205260405f20815f5260205260405f2060ff1981541690555b33907ff4caeb2d6ca8932a215a353d0703c326ec2d81fc68170f320eb2ab49e9df61f95f80a3005b335f52603960205260405f20815f5260205260405f20600160ff198254161790556107b3565b60405162461bcd60e51b8152602060048201526024808201527f4552433737373a20617574686f72697a696e672073656c66206173206f70657260448201526330ba37b960e11b6064820152608490fd5b34610154576020366003190112610154576001600160a01b03610873610d11565b165f526033602052602060405f2054604051908152f35b346101545760a0366003190112610154576108a3610d11565b6108ab610d27565b60643567ffffffffffffffff8111610154576108cb903690600401610dad565b6084359267ffffffffffffffff8411610154576108ef610152943690600401610dad565b926108fd61017a8333610f55565b60443591611663565b346101545761015261091736610d3d565b91610fd7565b34610154575f36600319011261015457602060405160018152f35b34610154575f36600319011261015457602060405160128152f35b346101545761096136610d3d565b916109766001600160a01b0383161515610e6a565b6001600160a01b038116918215610ab4576020926109b760405161099a8682610d77565b5f8152604051906109ab8783610d77565b5f82528785873361115f565b6109e46040516109c78682610d77565b5f8152604051906109d88783610d77565b5f8252878587336112b1565b5f52603b835260405f206001600160a01b0333165f52835260405f205493808510610a4957610a21610a1a826105e79697610ec2565b3385610fd7565b60405191610a2f8684610d77565b5f835260405193610a408786610d77565b5f855233611403565b60405162461bcd60e51b815260048101859052602960248201527f4552433737373a207472616e7366657220616d6f756e7420657863656564732060448201527f616c6c6f77616e636500000000000000000000000000000000000000000000006064820152608490fd5b60405162461bcd60e51b815260206004820152602660248201527f4552433737373a207472616e736665722066726f6d20746865207a65726f206160448201527f64647265737300000000000000000000000000000000000000000000000000006064820152608490fd5b34610154575f366003190112610154576020603454604051908152f35b3461015457604036600319011261015457610b62610b58610d11565b6024359033610fd7565b602060405160018152f35b34610154575f366003190112610154576040515f6035548060011c90600181168015610c1e575b602083108114610737578285529081156107135750600114610bc0576106b18361069d81850382610d77565b91905060355f527fcfa4bec1d3298408bb5afcfcd9c430549c5b31f8aa5c5848151c0a55f473c34d915f905b808210610c045750909150810160200161069d61068d565b919260018160209254838588010152019101909291610bec565b91607f1691610b94565b34610154575f366003190112610154576037549081815260208101809260375f527f42a7b7dd785cd69714a189dffb3fd7d7174edc9ece837694ce50f7078f7c31ae905f5b818110610cce5750505081610c83910382610d77565b604051918291602083019060208452518091526040830191905f5b818110610cac575050500390f35b82516001600160a01b0316845285945060209384019390920191600101610c9e565b82546001600160a01b0316845260209093019260019283019201610c6d565b805180835260209291819084018484015e5f828201840152601f01601f1916010190565b600435906001600160a01b038216820361015457565b602435906001600160a01b038216820361015457565b6060906003190112610154576004356001600160a01b038116810361015457906024356001600160a01b0381168103610154579060443590565b90601f8019910116810190811067ffffffffffffffff821117610d9957604052565b634e487b7160e01b5f52604160045260245ffd5b81601f820112156101545780359067ffffffffffffffff8211610d995760405192610de2601f8401601f191660200185610d77565b8284526020838301011161015457815f926020809301838601378301015290565b906080600319830112610154576004356001600160a01b038116810361015457916024359160443567ffffffffffffffff81116101545782610e4791600401610dad565b916064359067ffffffffffffffff821161015457610e6791600401610dad565b90565b15610e7157565b60405162461bcd60e51b8152602060048201526024808201527f4552433737373a207472616e7366657220746f20746865207a65726f206164646044820152637265737360e01b6064820152608490fd5b91908203918211610ecf57565b634e487b7160e01b5f52601160045260245ffd5b15610eea57565b60405162461bcd60e51b815260206004820152602c60248201527f4552433737373a2063616c6c6572206973206e6f7420616e206f70657261746f60448201527f7220666f7220686f6c64657200000000000000000000000000000000000000006064820152608490fd5b906001600160a01b038091169116818114918215610f98575b8215610f7957505090565b9091505f52603960205260405f20905f5260205260ff60405f20541690565b9150805f52603860205260ff60405f20541680610fb6575b91610f6e565b50815f52603a60205260405f20815f5260205260ff60405f20541615610fb0565b6001600160a01b031690811561108b576001600160a01b031691821561103a5760207f8c5be1e5ebec7d5bd14f71427d1e84f3dd0314c0f7b2291e5b200ac8c7c3b92591835f52603b825260405f20855f5282528060405f2055604051908152a3565b60405162461bcd60e51b815260206004820152602360248201527f4552433737373a20617070726f766520746f20746865207a65726f206164647260448201526265737360e81b6064820152608490fd5b60405162461bcd60e51b815260206004820152602560248201527f4552433737373a20617070726f76652066726f6d20746865207a65726f20616460448201527f64726573730000000000000000000000000000000000000000000000000000006064820152608490fd5b9081602091031261015457516001600160a01b03811681036101545790565b9491611151936001600160a01b03809281610e679a9895168952166020880152166040860152606085015260c0608085015260c0840190610ced565b9160a0818403910152610ced565b91929460405163555ddc6560e11b81526001600160a01b03831660048201527f29ddb589b1fb5fc7cf394961c1adf5f8c6454761adf795e67fe149f658abe8956024820152602081604481731820a4b7618bde71dce8cdc73aab6c95905fad245afa801561123f576001600160a01b03915f9161124a575b501692836111e9575b50505050505050565b833b15610154576112155f96928793604051998a9889978896633ad5cbc160e11b885260048801611115565b03925af1801561123f5761122f575b8080808080806111e0565b5f61123991610d77565b5f611224565b6040513d5f823e3d90fd5b61126c915060203d602011611272575b6112648183610d77565b8101906110f6565b5f6111d7565b503d61125a565b91908201809211610ecf57565b916112a390610e6794928452606060208501526060840190610ced565b916040818403910152610ced565b90949293916001600160a01b03604051967f52316ab8e8b0687ce803e403dfe429541bccd4f6c4683ec65d254d382f15a2655f80a11695865f52603360205260405f20549086821061139b5750956020937f06b541ddaa720db2b10a4d0cdac39b8d360425fc073085fac19bc826146779876001600160a01b038895817fddf252ad1be2c89b69c2b068fc378daa952ba7f163c4a11628f55a4df523b3ef9996869b61138f9d885f5260338c520360405f2055169a8b96875f5260338a5260405f2061137e8a8254611279565b905560405193849316958984611286565b0390a4604051908152a3565b62461bcd60e51b815260206004820152602760248201527f4552433737373a207472616e7366657220616d6f756e7420657863656564732060448201527f62616c616e6365000000000000000000000000000000000000000000000000006064820152608490fd5b91929460405163555ddc6560e11b81526001600160a01b03851660048201527fb281fc8c12954d22544db45de3159a39272895b169a852b314f9cc762e44c53b6024820152602081604481731820a4b7618bde71dce8cdc73aab6c95905fad245afa801561123f576001600160a01b03915f916114cc575b50169283156111e057833b15610154576114af5f96928793604051998a98899788966223de2960e01b885260048801611115565b03925af1801561123f576114c05750565b5f6114ca91610d77565b565b6114e5915060203d602011611272576112648183610d77565b5f61147b565b9394919492909260405163555ddc6560e11b81526001600160a01b03851660048201527fb281fc8c12954d22544db45de3159a39272895b169a852b314f9cc762e44c53b6024820152602081604481731820a4b7618bde71dce8cdc73aab6c95905fad245afa801561123f576001600160a01b03915f91611644575b501692831561159e5750823b15610154575f946114af8693928493604051998a98899788966223de2960e01b885260048801611115565b945050505091506115ac5750565b3b6115b357565b60405162461bcd60e51b815260206004820152604d60248201527f4552433737373a20746f6b656e20726563697069656e7420636f6e747261637460448201527f20686173206e6f20696d706c656d656e74657220666f7220455243373737546f60648201527f6b656e73526563697069656e7400000000000000000000000000000000000000608482015260a490fd5b61165d915060203d602011611272576112648183610d77565b5f611567565b9293906001600160a01b038416156117bb576001600160a01b038116156117775761169282868584883361115f565b6116a08286858488336112b1565b60405163555ddc6560e11b81526001600160a01b03821660048201527fb281fc8c12954d22544db45de3159a39272895b169a852b314f9cc762e44c53b6024820152602081604481731820a4b7618bde71dce8cdc73aab6c95905fad245afa801561123f576001600160a01b03915f91611758575b501691821561174957823b15610154575f946114af8692604051988997889687956223de2960e01b87523360048801611115565b50935050505060016115ac5750565b611771915060203d602011611272576112648183610d77565b5f611715565b606460405162461bcd60e51b815260206004820152602060248201527f4552433737373a2073656e6420746f20746865207a65726f20616464726573736044820152fd5b60405162461bcd60e51b815260206004820152602260248201527f4552433737373a2073656e642066726f6d20746865207a65726f206164647265604482015261737360f01b6064820152608490fd5b915f936001600160a01b038416938415611a1e5760405163555ddc6560e11b8152600481018690527f29ddb589b1fb5fc7cf394961c1adf5f8c6454761adf795e67fe149f658abe8956024820152602081604481731820a4b7618bde71dce8cdc73aab6c95905fad245afa801561123f576001600160a01b03915f916119ff575b5016806119a5575b50506040517f52316ab8e8b0687ce803e403dfe429541bccd4f6c4683ec65d254d382f15a2658680a1848652603360205260408620549084821061195757506020927fa78a9be3a7b862d26933ad85fb11d80ef66b8f972d7cbba06621d583943a409861194b86947fddf252ad1be2c89b69c2b068fc378daa952ba7f163c4a11628f55a4df523b3ef978995868c52603389520360408b205561193986603454610ec2565b60345560405191829133958884611286565b0390a3604051908152a3565b62461bcd60e51b815260206004820152602360248201527f4552433737373a206275726e20616d6f756e7420657863656564732062616c616044820152626e636560e81b6064820152608490fd5b803b1561015457845f91828087956119d58860405198899788968795633ad5cbc160e11b87523360048801611115565b03925af1801561123f576119ea575b80611894565b6119f79195505f90610d77565b5f935f6119e4565b611a18915060203d602011611272576112648183610d77565b5f61188c565b60405162461bcd60e51b815260206004820152602260248201527f4552433737373a206275726e2066726f6d20746865207a65726f206164647265604482015261737360f01b6064820152608490fdfea2646970667358221220dcf743f61db494206984633ff637c70f4644f4ff080e6c7121492a246f9a181a64736f6c634300081a0033","linkReferences":{}},"methodIdentifiers":{"allowance(address,address)":"dd62ed3e","approve(address,uint256)":"095ea7b3","approveInternal(address,address,uint256)":"56189cb4","authorizeOperator(address)":"959b8c3f","balanceOf(address)":"70a08231","burn(uint256,bytes)":"fe9d9303","decimals()":"313ce567","defaultOperators()":"06e48538","granularity()":"556f0dc7","isOperatorFor(address,address)":"d95b6371","mintInternal(address,uint256,bytes,bytes)":"b1f0b5be","mintInternalExtended(address,uint256,bytes,bytes,bool)":"cfbfab0b","name()":"06fdde03","operatorBurn(address,uint256,bytes,bytes)":"fc673c4f","operatorSend(address,address,uint256,bytes,bytes)":"62ad1b83","revokeOperator(address)":"fad8b32a","send(address,uint256,bytes)":"9bd9bbc6","symbol()":"95d89b41","totalSupply()":"18160ddd","transfer(address,uint256)":"a9059cbb","transferFrom(address,address,uint256)":"23b872dd"},"id":360}