{"abi":[{"type":"function","name":"testReturnValues","inputs":[{"name":"multicallToken","type":"address","internalType":"contract MulticallTokenMockUpgradeable"},{"name":"recipients","type":"address[]","internalType":"address[]"},{"name":"amounts","type":"uint256[]","internalType":"uint256[]"}],"outputs":[],"stateMutability":"nonpayable"}],"bytecode":{"object":"0x6080806040523460155761043b908161001a8239f35b5f80fdfe60806040526004361015610011575f80fd5b5f3560e01c63bc548f7614610024575f80fd5b346101695760603660031901126101695760043573ffffffffffffffffffffffffffffffffffffffff81168091036101695760243567ffffffffffffffff811161016957610076903690600401610362565b919060443567ffffffffffffffff811161016957610098903690600401610362565b906100a2856103b5565b946100b06040519687610393565b808652601f196100bf826103b5565b015f5b8181106103515750505f5b8181106102d15786866040518092631592ca1b60e31b8252602482016020600484015281518091526044830190602060448260051b8601019301915f905b82821061028b57855f8180880381838c5af1908115610280575f9161016f575b505f5b815181101561016d5761014181836103f1565b516020818051810103126101695760200151801590811503610169576101695760010161012e565b5f80fd5b005b90503d805f833e6101808183610393565b8101906020818303126101695780519067ffffffffffffffff821161016957019080601f83011215610169578151916101b8836103b5565b926101c66040519485610393565b80845260208085019160051b830101918383116101695760208101915b8383106101f55750505050508161012b565b825167ffffffffffffffff811161016957820185603f820112156101695760208101519167ffffffffffffffff831161026c5760405161023f601f8501601f191660200182610393565b8381526040838501018810610169575f602085819660408397018386015e830101528152019201916101e3565b634e487b7160e01b5f52604160045260245ffd5b6040513d5f823e3d90fd5b919360019193955060208080926043198b82030186528189518051918291828552018484015e5f838284010152601f80199101160101960192019201869493919261010b565b6102dc8183876103cd565b359073ffffffffffffffffffffffffffffffffffffffff82168092036101695760019161030a8287876103cd565b356040519163a9059cbb60e01b60208401526024830152604482015260448152610335606482610393565b61033f828a6103f1565b5261034a81896103f1565b50016100cd565b806060602080938b010152016100c2565b9181601f840112156101695782359167ffffffffffffffff8311610169576020808501948460051b01011161016957565b90601f8019910116810190811067ffffffffffffffff82111761026c57604052565b67ffffffffffffffff811161026c5760051b60200190565b91908110156103dd5760051b0190565b634e487b7160e01b5f52603260045260245ffd5b80518210156103dd5760209160051b01019056fea26469706673582212206208ebf65768f3de3ecb8e423423efa050bb5b171f5003d7b3d74088276a0a4f64736f6c634300081a0033","linkReferences":{}},"methodIdentifiers":{"testReturnValues(address,address[],uint256[])":"bc548f76"},"id":368}