{"abi":[{"type":"constructor","inputs":[],"stateMutability":"nonpayable"},{"type":"function","name":"DEFAULT_ADMIN_ROLE","inputs":[],"outputs":[{"name":"","type":"bytes32","internalType":"bytes32"}],"stateMutability":"view"},{"type":"function","name":"getRoleAdmin","inputs":[{"name":"role","type":"bytes32","internalType":"bytes32"}],"outputs":[{"name":"","type":"bytes32","internalType":"bytes32"}],"stateMutability":"view"},{"type":"function","name":"grantRole","inputs":[{"name":"role","type":"bytes32","internalType":"bytes32"},{"name":"account","type":"address","internalType":"address"}],"outputs":[],"stateMutability":"nonpayable"},{"type":"function","name":"hasRole","inputs":[{"name":"role","type":"bytes32","internalType":"bytes32"},{"name":"account","type":"address","internalType":"address"}],"outputs":[{"name":"","type":"bool","internalType":"bool"}],"stateMutability":"view"},{"type":"function","name":"renounceRole","inputs":[{"name":"role","type":"bytes32","internalType":"bytes32"},{"name":"account","type":"address","internalType":"address"}],"outputs":[],"stateMutability":"nonpayable"},{"type":"function","name":"revokeRole","inputs":[{"name":"role","type":"bytes32","internalType":"bytes32"},{"name":"account","type":"address","internalType":"address"}],"outputs":[],"stateMutability":"nonpayable"},{"type":"function","name":"senderProtected","inputs":[{"name":"roleId","type":"bytes32","internalType":"bytes32"}],"outputs":[],"stateMutability":"nonpayable"},{"type":"function","name":"setRoleAdmin","inputs":[{"name":"roleId","type":"bytes32","internalType":"bytes32"},{"name":"adminRoleId","type":"bytes32","internalType":"bytes32"}],"outputs":[],"stateMutability":"nonpayable"},{"type":"function","name":"supportsInterface","inputs":[{"name":"interfaceId","type":"bytes4","internalType":"bytes4"}],"outputs":[{"name":"","type":"bool","internalType":"bool"}],"stateMutability":"view"},{"type":"event","name":"RoleAdminChanged","inputs":[{"name":"role","type":"bytes32","indexed":true,"internalType":"bytes32"},{"name":"previousAdminRole","type":"bytes32","indexed":true,"internalType":"bytes32"},{"name":"newAdminRole","type":"bytes32","indexed":true,"internalType":"bytes32"}],"anonymous":false},{"type":"event","name":"RoleGranted","inputs":[{"name":"role","type":"bytes32","indexed":true,"internalType":"bytes32"},{"name":"account","type":"address","indexed":true,"internalType":"address"},{"name":"sender","type":"address","indexed":true,"internalType":"address"}],"anonymous":false},{"type":"event","name":"RoleRevoked","inputs":[{"name":"role","type":"bytes32","indexed":true,"internalType":"bytes32"},{"name":"account","type":"address","indexed":true,"internalType":"address"},{"name":"sender","type":"address","indexed":true,"internalType":"address"}],"anonymous":false}],"bytecode":{"object":"0x608060405234608957335f9081525f805160206107c3833981519152602052604090205460ff1615603a575b604051610735908161008e8239f35b335f8181525f805160206107c383398151915260205260408120805460ff1916600117905581907f2f8788117e7eff1d82e926ec794901d17c78024a50270940304540a733656f0d8180a4602b565b5f80fdfe6080806040526004361015610012575f80fd5b5f3560e01c90816301ffc9a714610301575080631e4e00911461029d578063248a9ca31461026b5780632f2ff15d146101c057806336568abe1461012e5780634b9304a41461011157806391d14854146100d5578063a217fddf146100bb5763d547741f1461007f575f80fd5b346100b7576100b561009036610354565b906100b06100a9825f525f602052600160405f20015490565b33906103b0565b610650565b005b5f80fd5b346100b7575f3660031901126100b75760206040515f8152f35b346100b7576100e336610354565b905f525f6020526001600160a01b0360405f2091165f52602052602060ff60405f2054166040519015158152f35b346100b75760203660031901126100b7576100b5336004356103b0565b346100b75761013c36610354565b336001600160a01b03821603610155576100b591610650565b60405162461bcd60e51b815260206004820152602f60248201527f416363657373436f6e74726f6c3a2063616e206f6e6c792072656e6f756e636560448201527f20726f6c657320666f722073656c6600000000000000000000000000000000006064820152608490fd5b346100b7576101ce36610354565b906101e76100a9825f525f602052600160405f20015490565b805f525f60205260405f206001600160a01b0383165f5260205260ff60405f2054161561021057005b805f525f60205260405f206001600160a01b0383165f5260205260405f20600160ff198254161790556001600160a01b03339216907f2f8788117e7eff1d82e926ec794901d17c78024a50270940304540a733656f0d5f80a4005b346100b75760203660031901126100b75760206102956004355f525f602052600160405f20015490565b604051908152f35b346100b75760403660031901126100b757600435602435906102ca815f525f602052600160405f20015490565b90805f525f60205282600160405f2001557fbd79b86ffe0ab8e8776151514217cd7cacd52c909f66475c3af44e129f0b00ff5f80a4005b346100b75760203660031901126100b7576004359063ffffffff60e01b82168092036100b757602091637965db0b60e01b8114908115610343575b5015158152f35b6301ffc9a760e01b1490508361033c565b60409060031901126100b757600435906024356001600160a01b03811681036100b75790565b90601f8019910116810190811067ffffffffffffffff82111761039c57604052565b634e487b7160e01b5f52604160045260245ffd5b90815f525f60205260405f206001600160a01b0382165f5260205260ff60405f205416156103dc575050565b6001600160a01b03166103ef602a6106d2565b916103fd604051938461037a565b602a835261040b602a6106d2565b602084019290601f19013684378351156105fb57603083538351600110156105fb576078602185015360295b6001811161060f5750610562579061044f60426106d2565b9061045d604051928361037a565b6042825261046b60426106d2565b602083019390601f19013685378251156105fb57603084538251600110156105fb576078602184015360415b600181116105a6575061056257601161052a91603760449560405195869360208501997f416363657373436f6e74726f6c3a206163636f756e74200000000000000000008b525180918587015e8401907f206973206d697373696e6720726f6c652000000000000000000000000000000084830152518092604883015e01015f838201520301601f19810183528261037a565b60405192839162461bcd60e51b8352602060048401525180918160248501528484015e5f828201840152601f01601f19168101030190fd5b606460405162461bcd60e51b815260206004820152602060248201527f537472696e67733a20686578206c656e67746820696e73756666696369656e746044820152fd5b90600f811660108110156105fb576f181899199a1a9b1b9c1cb0b131b232b360811b901a6105d483866106ee565b5360041c9080156105e7575f1901610497565b634e487b7160e01b5f52601160045260245ffd5b634e487b7160e01b5f52603260045260245ffd5b90600f811660108110156105fb576f181899199a1a9b1b9c1cb0b131b232b360811b901a61063d83876106ee565b5360041c9080156105e7575f1901610437565b805f525f60205260405f206001600160a01b0383165f5260205260ff60405f20541661067a575050565b805f525f60205260405f206001600160a01b0383165f5260205260405f2060ff1981541690556001600160a01b03339216907ff6391f5c32d9c69d2a47ea670b442974b53935d1edc7fd64eb21e047a839171b5f80a4565b67ffffffffffffffff811161039c57601f01601f191660200190565b9081518110156105fb57016020019056fea2646970667358221220c9d723ea2248ee4669285fc0c097cbe00c2d8a82c5348ffb8df04169bb04358e64736f6c634300081a0033ad3228b676f7d3cd4284a5443f17f1962b36e491b30a40b2405849e597ba5fb5","linkReferences":{}},"methodIdentifiers":{"DEFAULT_ADMIN_ROLE()":"a217fddf","getRoleAdmin(bytes32)":"248a9ca3","grantRole(bytes32,address)":"2f2ff15d","hasRole(bytes32,address)":"91d14854","renounceRole(bytes32,address)":"36568abe","revokeRole(bytes32,address)":"d547741f","senderProtected(bytes32)":"4b9304a4","setRoleAdmin(bytes32,bytes32)":"1e4e0091","supportsInterface(bytes4)":"01ffc9a7"},"id":144}