{"abi":[{"type":"function","name":"child","inputs":[],"outputs":[{"name":"","type":"uint256","internalType":"uint256"}],"stateMutability":"view"},{"type":"function","name":"father","inputs":[],"outputs":[{"name":"","type":"uint256","internalType":"uint256"}],"stateMutability":"view"},{"type":"function","name":"gramps","inputs":[],"outputs":[{"name":"","type":"string","internalType":"string"}],"stateMutability":"view"},{"type":"function","name":"initialize","inputs":[{"name":"_mother","type":"uint256","internalType":"uint256"},{"name":"_gramps","type":"string","internalType":"string"},{"name":"_father","type":"uint256","internalType":"uint256"},{"name":"_child","type":"uint256","internalType":"uint256"}],"outputs":[],"stateMutability":"nonpayable"},{"type":"function","name":"initialize","inputs":[],"outputs":[],"stateMutability":"nonpayable"},{"type":"function","name":"initialize","inputs":[{"name":"_gramps","type":"string","internalType":"string"},{"name":"_father","type":"uint256","internalType":"uint256"}],"outputs":[],"stateMutability":"nonpayable"},{"type":"function","name":"initialize","inputs":[{"name":"value","type":"string","internalType":"string"}],"outputs":[],"stateMutability":"nonpayable"},{"type":"function","name":"initialize","inputs":[{"name":"value","type":"uint256","internalType":"uint256"}],"outputs":[],"stateMutability":"nonpayable"},{"type":"function","name":"isHuman","inputs":[],"outputs":[{"name":"","type":"bool","internalType":"bool"}],"stateMutability":"view"},{"type":"function","name":"mother","inputs":[],"outputs":[{"name":"","type":"uint256","internalType":"uint256"}],"stateMutability":"view"}],"bytecode":{"object":"0x60808060405234601557610cbd908161001a8239f35b5f80fdfe6080806040526004361015610012575f80fd5b5f3560e01c9081631c8aca3b14610b2b57508063237b5e9614610b0e5780634a6c9db614610aea5780636f2edbd2146107635780638129fc1c146106ee5780638beaf7d714610483578063ed7dfee314610466578063f62d188814610240578063fa39851f146101625763fe4b84df1461008a575f80fd5b3461015e57602036600319011261015e575f5460ff8160081c16908115809281610153575b6100b890610bf5565b610141575b505f5460ff8160081c16908115809281610136575b6100db90610bf5565b610124575b505f54906201000062ff0000198316175f55610110575b5060043560015561010457005b5f805461ff0019169055005b62ffff00191662010000175f9081556100f7565b61ffff1916610101175f9081556100e0565b5060ff8216156100d2565b61ffff1916610101175f9081556100bd565b5060ff8216156100af565b5f80fd5b3461015e575f36600319011261015e57604051600254905f61018383610bbd565b80835260208301936001811690811561022557506001146101da575b50906101af816040930382610b45565b8151928391602083525180918160208501528484015e5f828201840152601f01601f19168101030190f35b91905060025f525f80516020610c68833981519152915f905b80821061020b575090915081016020016101af61019f565b9192600181602092548385880101520191019092916101f3565b60ff1916855250151560051b820160200190506101af61019f565b3461015e57602036600319011261015e5760043567ffffffffffffffff811161015e57610271903690600401610b67565b5f5460ff8160081c1690811580928161045b575b61028e90610bf5565b61044a575b505f5460ff8160081c1690811580928161043f575b6102b190610bf5565b61042e575b505f54906201000062ff0000198316175f5561041b575b50815167ffffffffffffffff8111610407576102ea600254610bbd565b601f811161039f575b50602092601f821160011461033357928192935f92610328575b50508160011b915f199060031b1c1916176002555b61010457005b01519050838061030d565b601f1982169360025f525f80516020610c68833981519152915f5b868110610387575083600195961061036f575b505050811b01600255610322565b01515f1960f88460031b161c19169055838080610361565b9192602060018192868501518155019401920161034e565b60025f52601f820160051c5f80516020610c688339815191520190602083106103f2575b601f0160051c5f80516020610c6883398151915201905b8181106103e757506102f3565b5f81556001016103da565b5f80516020610c6883398151915291506103c3565b634e487b7160e01b5f52604160045260245ffd5b62ffff00191662010000175f55826102cd565b61ffff1916610101175f55836102b6565b5060ff8216156102a8565b61ffff1916610101175f5582610293565b5060ff821615610285565b3461015e575f36600319011261015e576020600154604051908152f35b3461015e57604036600319011261015e5760043567ffffffffffffffff811161015e576104b4903690600401610b67565b5f5460ff8160081c169081158092816106e3575b6104d190610bf5565b6106d2575b505f5460ff8160081c169081158092816106c7575b6104f490610bf5565b6106b6575b505f5460ff8160081c169081158092816106ab575b61051790610bf5565b61069a575b505f54906201000062ff0000198316175f55610687575b50825167ffffffffffffffff811161040757610550600254610bbd565b601f811161061f575b506020601f82116001146105b157819293945f926105a6575b50508160011b915f199060031b1c1916176002555b610598575b60243560035561010457005b61ff00195f54165f5561058c565b015190508480610572565b601f1982169060025f525f80516020610c68833981519152915f5b818110610607575095836001959697106105ef575b505050811b01600255610587565b01515f1960f88460031b161c191690558480806105e1565b9192602060018192868b0151815501940192016105cc565b60025f52601f820160051c5f80516020610c68833981519152019060208310610672575b601f0160051c5f80516020610c6883398151915201905b8181106106675750610559565b5f815560010161065a565b5f80516020610c688339815191529150610643565b62ffff00191662010000175f5583610533565b61ffff1916610101175f558461051c565b5060ff82161561050e565b61ffff1916610101175f55836104f9565b5060ff8216156104eb565b61ffff1916610101175f55826104d6565b5060ff8216156104c8565b3461015e575f36600319011261015e575f5460ff8160081c16908115809281610758575b61071b90610bf5565b610747575b505f54906201000062ff0000198316175f5561073857005b62ffff00191662010000175f55005b61ffff1916610101175f5581610720565b5060ff821615610712565b3461015e57608036600319011261015e5760243567ffffffffffffffff811161015e57610794903690600401610b67565b5f5460ff8160081c16908115809281610adf575b6107b190610bf5565b610ace575b505f5460ff8160081c16908115809281610ac3575b6107d490610bf5565b610ab2575b505f5460ff8160081c16908115809281610aa7575b6107f790610bf5565b610a96575b505f54906201000062ff0000198316175f55610a83575b50600435600155610a75575b5f5460ff8160081c16908115809281610a6a575b61083c90610bf5565b610a59575b505f5460ff8160081c16908115809281610a4e575b61085f90610bf5565b610a3d575b505f5460ff8160081c16908115809281610a32575b61088290610bf5565b610a21575b505f54906201000062ff0000198316175f55610a0e575b50835167ffffffffffffffff8111610407576108bb600254610bbd565b601f81116109a6575b50602094601f8211600114610938579481929394955f9261092d575b50508160011b915f199060031b1c1916176002555b61091f575b604435600355610911575b60643560045561010457005b61ff00195f54165f55610905565b61ff00195f54165f556108fa565b0151905085806108e0565b601f1982169560025f525f80516020610c68833981519152915f5b88811061098e57508360019596979810610976575b505050811b016002556108f5565b01515f1960f88460031b161c19169055858080610968565b91926020600181928685015181550194019201610953565b60025f52601f820160051c5f80516020610c688339815191520190602083106109f9575b601f0160051c5f80516020610c6883398151915201905b8181106109ee57506108c4565b5f81556001016109e1565b5f80516020610c6883398151915291506109ca565b62ffff00191662010000175f558461089e565b61ffff1916610101175f5585610887565b5060ff821615610879565b61ffff1916610101175f5584610864565b5060ff821615610856565b61ffff1916610101175f5583610841565b5060ff821615610833565b61ff00195f54165f5561081f565b62ffff00191662010000175f5583610813565b61ffff1916610101175f55846107fc565b5060ff8216156107ee565b61ffff1916610101175f55836107d9565b5060ff8216156107cb565b61ffff1916610101175f55826107b6565b5060ff8216156107a8565b3461015e575f36600319011261015e57602060ff5f5460101c166040519015158152f35b3461015e575f36600319011261015e576020600454604051908152f35b3461015e575f36600319011261015e576020906003548152f35b90601f8019910116810190811067ffffffffffffffff82111761040757604052565b81601f8201121561015e5780359067ffffffffffffffff82116104075760405192610b9c601f8401601f191660200185610b45565b8284526020838301011161015e57815f926020809301838601378301015290565b90600182811c92168015610beb575b6020831014610bd757565b634e487b7160e01b5f52602260045260245ffd5b91607f1691610bcc565b15610bfc57565b60405162461bcd60e51b815260206004820152602e60248201527f496e697469616c697a61626c653a20636f6e747261637420697320616c72656160448201527f647920696e697469616c697a65640000000000000000000000000000000000006064820152608490fdfe405787fa12a823e0f2b7631cc41b3ba8828b3321ca811111fa75cd3aa3bb5acea2646970667358221220ab859125bc8cd903f48ab3497fcab357d5a0b47a441e5ccf631eb63062bf4bf064736f6c634300081a0033","linkReferences":{}},"methodIdentifiers":{"child()":"237b5e96","father()":"1c8aca3b","gramps()":"fa39851f","initialize()":"8129fc1c","initialize(string)":"f62d1888","initialize(string,uint256)":"8beaf7d7","initialize(uint256)":"fe4b84df","initialize(uint256,string,uint256,uint256)":"6f2edbd2","isHuman()":"4a6c9db6","mother()":"ed7dfee3"},"id":201}