{"abi":[{"type":"function","name":"initialize","inputs":[],"outputs":[],"stateMutability":"nonpayable"},{"type":"function","name":"isHuman","inputs":[],"outputs":[{"name":"","type":"bool","internalType":"bool"}],"stateMutability":"view"}],"bytecode":{"object":"0x6080806040523460155761016a908161001a8239f35b5f80fdfe6080806040526004361015610012575f80fd5b5f3560e01c9081634a6c9db6146101135750638129fc1c14610032575f80fd5b3461010f575f36600319011261010f575f5460ff8160081c169081159182610104575b156100995781610087575b505f54906201000062ff0000198316175f5561007857005b62ffff00191662010000175f55005b61ffff1916610101175f908155610060565b60405162461bcd60e51b815260206004820152602e60248201527f496e697469616c697a61626c653a20636f6e747261637420697320616c72656160448201527f647920696e697469616c697a65640000000000000000000000000000000000006064820152608490fd5b5060ff811615610055565b5f80fd5b3461010f575f36600319011261010f5760209060ff5f5460101c1615158152f3fea2646970667358221220bad3d051987ac643cee9e87ab99f71a2eef5777df6304b5e7794685ca1b10c2d64736f6c634300081a0033","linkReferences":{}},"methodIdentifiers":{"initialize()":"8129fc1c","isHuman()":"4a6c9db6"},"id":201}