{"abi":[{"type":"function","name":"getAddress","inputs":[{"name":"slot","type":"bytes32","internalType":"bytes32"}],"outputs":[{"name":"","type":"address","internalType":"address"}],"stateMutability":"view"},{"type":"function","name":"getBoolean","inputs":[{"name":"slot","type":"bytes32","internalType":"bytes32"}],"outputs":[{"name":"","type":"bool","internalType":"bool"}],"stateMutability":"view"},{"type":"function","name":"getBytes32","inputs":[{"name":"slot","type":"bytes32","internalType":"bytes32"}],"outputs":[{"name":"","type":"bytes32","internalType":"bytes32"}],"stateMutability":"view"},{"type":"function","name":"getUint256","inputs":[{"name":"slot","type":"bytes32","internalType":"bytes32"}],"outputs":[{"name":"","type":"uint256","internalType":"uint256"}],"stateMutability":"view"},{"type":"function","name":"setAddress","inputs":[{"name":"slot","type":"bytes32","internalType":"bytes32"},{"name":"value","type":"address","internalType":"address"}],"outputs":[],"stateMutability":"nonpayable"},{"type":"function","name":"setBoolean","inputs":[{"name":"slot","type":"bytes32","internalType":"bytes32"},{"name":"value","type":"bool","internalType":"bool"}],"outputs":[],"stateMutability":"nonpayable"},{"type":"function","name":"setBytes32","inputs":[{"name":"slot","type":"bytes32","internalType":"bytes32"},{"name":"value","type":"bytes32","internalType":"bytes32"}],"outputs":[],"stateMutability":"nonpayable"},{"type":"function","name":"setUint256","inputs":[{"name":"slot","type":"bytes32","internalType":"bytes32"},{"name":"value","type":"uint256","internalType":"uint256"}],"outputs":[],"stateMutability":"nonpayable"}],"bytecode":{"object":"0x608080604052346015576101cc908161001a8239f35b5f80fdfe6080806040526004361015610012575f80fd5b5f3560e01c90816321f8a721146101645750806333598b00146101075780633848207a146101405780634e91db08146101265780634f3029c214610126578063a6ed563e14610107578063ca446dd9146100a95763f8715b3e14610074575f80fd5b346100a55760403660031901126100a5576004356024358015158091036100a55760ff801983541691161790555f80f35b5f80fd5b346100a55760403660031901126100a55760043560243573ffffffffffffffffffffffffffffffffffffffff81168091036100a55781547fffffffffffffffffffffffff000000000000000000000000000000000000000016179055005b346100a55760203660031901126100a557602060043554604051908152f35b346100a55760403660031901126100a55760243560043555005b346100a55760203660031901126100a557602060ff60043554166040519015158152f35b346100a55760203660031901126100a55760209073ffffffffffffffffffffffffffffffffffffffff60043554168152f3fea26469706673582212200228030db4a80f649e1cfa9fc45ed5d9b3d63be5f5815d85be4550c53f1c74b764736f6c634300081a0033","linkReferences":{}},"methodIdentifiers":{"getAddress(bytes32)":"21f8a721","getBoolean(bytes32)":"3848207a","getBytes32(bytes32)":"a6ed563e","getUint256(bytes32)":"33598b00","setAddress(bytes32,address)":"ca446dd9","setBoolean(bytes32,bool)":"f8715b3e","setBytes32(bytes32,bytes32)":"4e91db08","setUint256(bytes32,uint256)":"4f3029c2"},"id":214}