{"abi":[{"type":"function","name":"DOMAIN_SEPARATOR","inputs":[],"outputs":[{"name":"","type":"bytes32","internalType":"bytes32"}],"stateMutability":"view"},{"type":"function","name":"allowance","inputs":[{"name":"owner","type":"address","internalType":"address"},{"name":"spender","type":"address","internalType":"address"}],"outputs":[{"name":"","type":"uint256","internalType":"uint256"}],"stateMutability":"view"},{"type":"function","name":"approve","inputs":[{"name":"spender","type":"address","internalType":"address"},{"name":"amount","type":"uint256","internalType":"uint256"}],"outputs":[{"name":"","type":"bool","internalType":"bool"}],"stateMutability":"nonpayable"},{"type":"function","name":"balanceOf","inputs":[{"name":"account","type":"address","internalType":"address"}],"outputs":[{"name":"","type":"uint256","internalType":"uint256"}],"stateMutability":"view"},{"type":"function","name":"decimals","inputs":[],"outputs":[{"name":"","type":"uint8","internalType":"uint8"}],"stateMutability":"view"},{"type":"function","name":"decreaseAllowance","inputs":[{"name":"spender","type":"address","internalType":"address"},{"name":"subtractedValue","type":"uint256","internalType":"uint256"}],"outputs":[{"name":"","type":"bool","internalType":"bool"}],"stateMutability":"nonpayable"},{"type":"function","name":"getChainId","inputs":[],"outputs":[{"name":"","type":"uint256","internalType":"uint256"}],"stateMutability":"view"},{"type":"function","name":"increaseAllowance","inputs":[{"name":"spender","type":"address","internalType":"address"},{"name":"addedValue","type":"uint256","internalType":"uint256"}],"outputs":[{"name":"","type":"bool","internalType":"bool"}],"stateMutability":"nonpayable"},{"type":"function","name":"name","inputs":[],"outputs":[{"name":"","type":"string","internalType":"string"}],"stateMutability":"view"},{"type":"function","name":"nonces","inputs":[{"name":"owner","type":"address","internalType":"address"}],"outputs":[{"name":"","type":"uint256","internalType":"uint256"}],"stateMutability":"view"},{"type":"function","name":"permit","inputs":[{"name":"owner","type":"address","internalType":"address"},{"name":"spender","type":"address","internalType":"address"},{"name":"value","type":"uint256","internalType":"uint256"},{"name":"deadline","type":"uint256","internalType":"uint256"},{"name":"v","type":"uint8","internalType":"uint8"},{"name":"r","type":"bytes32","internalType":"bytes32"},{"name":"s","type":"bytes32","internalType":"bytes32"}],"outputs":[],"stateMutability":"nonpayable"},{"type":"function","name":"symbol","inputs":[],"outputs":[{"name":"","type":"string","internalType":"string"}],"stateMutability":"view"},{"type":"function","name":"totalSupply","inputs":[],"outputs":[{"name":"","type":"uint256","internalType":"uint256"}],"stateMutability":"view"},{"type":"function","name":"transfer","inputs":[{"name":"recipient","type":"address","internalType":"address"},{"name":"amount","type":"uint256","internalType":"uint256"}],"outputs":[{"name":"","type":"bool","internalType":"bool"}],"stateMutability":"nonpayable"},{"type":"function","name":"transferFrom","inputs":[{"name":"sender","type":"address","internalType":"address"},{"name":"recipient","type":"address","internalType":"address"},{"name":"amount","type":"uint256","internalType":"uint256"}],"outputs":[{"name":"","type":"bool","internalType":"bool"}],"stateMutability":"nonpayable"},{"type":"event","name":"Approval","inputs":[{"name":"owner","type":"address","indexed":true,"internalType":"address"},{"name":"spender","type":"address","indexed":true,"internalType":"address"},{"name":"value","type":"uint256","indexed":false,"internalType":"uint256"}],"anonymous":false},{"type":"event","name":"Transfer","inputs":[{"name":"from","type":"address","indexed":true,"internalType":"address"},{"name":"to","type":"address","indexed":true,"internalType":"address"},{"name":"value","type":"uint256","indexed":false,"internalType":"uint256"}],"anonymous":false}],"bytecode":{"object":"0x60808060405234601557610ccb908161001a8239f35b5f80fdfe6080806040526004361015610012575f80fd5b5f3560e01c90816306fdde031461082057508063095ea7b3146107fa57806318160ddd146107dd57806323b872dd14610704578063313ce567146106e95780633408e470146106cf5780633644e515146106ad578063395093511461065e57806370a08231146106265780637ecebe00146105ee57806395d89b41146104ea578063a457c2d71461042e578063a9059cbb146103fd578063d505accf146101195763dd62ed3e146100c1575f80fd5b34610115576040366003190112610115576100da610902565b6001600160a01b036100ea610918565b91165f5260346020526001600160a01b0360405f2091165f52602052602060405f2054604051908152f35b5f80fd5b346101155760e036600319011261011557610132610902565b61013a610918565b6044359060643560843560ff81168091036101155760c4358242116103b857609a546001600160a01b03871693845f52609960205260405f209081549160018301905560405191602083019384528660408401526001600160a01b038816606084015288608084015260a083015260c082015260c081526101bc60e08261092e565b5190206101c7610c38565b9060405190602082019261190160f01b845260228301526042820152604281526101f260628261092e565b519020917f7fffffffffffffffffffffffffffffff5d576e7357a4501ddfe92f46681b20a0821161036857601b8114801561035e575b1561030e576020925f926080926040519283528583015260a4356040830152606082015282805260015afa15610303576001600160a01b035f511680156102be57036102795761027792610985565b005b60405162461bcd60e51b815260206004820152601e60248201527f45524332305065726d69743a20696e76616c6964207369676e617475726500006044820152606490fd5b60405162461bcd60e51b815260206004820152601860248201527f45434453413a20696e76616c6964207369676e617475726500000000000000006044820152606490fd5b6040513d5f823e3d90fd5b60405162461bcd60e51b815260206004820152602260248201527f45434453413a20696e76616c6964207369676e6174757265202776272076616c604482015261756560f01b6064820152608490fd5b50601c8114610228565b60405162461bcd60e51b815260206004820152602260248201527f45434453413a20696e76616c6964207369676e6174757265202773272076616c604482015261756560f01b6064820152608490fd5b60405162461bcd60e51b815260206004820152601d60248201527f45524332305065726d69743a206578706972656420646561646c696e650000006044820152606490fd5b3461011557604036600319011261011557610423610419610902565b6024359033610a89565b602060405160018152f35b3461011557604036600319011261011557610447610902565b60243590335f52603460205260405f206001600160a01b0382165f5260205260405f20549180831061047f5761042392039033610985565b60405162461bcd60e51b815260206004820152602560248201527f45524332303a2064656372656173656420616c6c6f77616e63652062656c6f7760448201527f207a65726f0000000000000000000000000000000000000000000000000000006064820152608490fd5b34610115575f366003190112610115576040515f6037548060011c906001811680156105e4575b6020831081146105d0578285529081156105ac575060011461054e575b61054a8361053e8185038261092e565b604051918291826108d8565b0390f35b91905060375f527f42a7b7dd785cd69714a189dffb3fd7d7174edc9ece837694ce50f7078f7c31ae915f905b8082106105925750909150810160200161053e61052e565b91926001816020925483858801015201910190929161057a565b60ff191660208086019190915291151560051b8401909101915061053e905061052e565b634e487b7160e01b5f52602260045260245ffd5b91607f1691610511565b34610115576020366003190112610115576001600160a01b0361060f610902565b165f526099602052602060405f2054604051908152f35b34610115576020366003190112610115576001600160a01b03610647610902565b165f526033602052602060405f2054604051908152f35b346101155760403660031901126101155761042361067a610902565b335f52603460205260405f206001600160a01b0382165f526020526106a660405f206024359054610964565b9033610985565b34610115575f3660031901126101155760206106c7610c38565b604051908152f35b34610115575f366003190112610115576020604051468152f35b34610115575f36600319011261011557602060405160128152f35b346101155760603660031901126101155761071d610902565b610725610918565b90610734604435809383610a89565b6001600160a01b0381165f52603460205260405f206001600160a01b0333165f5260205260405f205491808310610772576104239203903390610985565b60405162461bcd60e51b815260206004820152602860248201527f45524332303a207472616e7366657220616d6f756e742065786365656473206160448201527f6c6c6f77616e63650000000000000000000000000000000000000000000000006064820152608490fd5b34610115575f366003190112610115576020603554604051908152f35b3461011557604036600319011261011557610423610816610902565b6024359033610985565b34610115575f366003190112610115575f6036548060011c906001811680156108ce575b6020831081146105d0578285529081156105ac57506001146108705761054a8361053e8185038261092e565b91905060365f527f4a11f94e20a93c79f6ec743a1954ec4fc2c08429ae2122118bf234b2185c81b8915f905b8082106108b45750909150810160200161053e61052e565b91926001816020925483858801015201910190929161089c565b91607f1691610844565b602060409281835280519182918282860152018484015e5f828201840152601f01601f1916010190565b600435906001600160a01b038216820361011557565b602435906001600160a01b038216820361011557565b90601f8019910116810190811067ffffffffffffffff82111761095057604052565b634e487b7160e01b5f52604160045260245ffd5b9190820180921161097157565b634e487b7160e01b5f52601160045260245ffd5b6001600160a01b0316908115610a38576001600160a01b03169182156109e85760207f8c5be1e5ebec7d5bd14f71427d1e84f3dd0314c0f7b2291e5b200ac8c7c3b92591835f526034825260405f20855f5282528060405f2055604051908152a3565b60405162461bcd60e51b815260206004820152602260248201527f45524332303a20617070726f766520746f20746865207a65726f206164647265604482015261737360f01b6064820152608490fd5b60405162461bcd60e51b8152602060048201526024808201527f45524332303a20617070726f76652066726f6d20746865207a65726f206164646044820152637265737360e01b6064820152608490fd5b6001600160a01b0316908115610bcd576001600160a01b0316918215610b7c57815f52603360205260405f2054818110610b1157817fddf252ad1be2c89b69c2b068fc378daa952ba7f163c4a11628f55a4df523b3ef92602092855f52603384520360405f2055845f526033825260405f20610b06828254610964565b9055604051908152a3565b60405162461bcd60e51b815260206004820152602660248201527f45524332303a207472616e7366657220616d6f756e742065786365656473206260448201527f616c616e636500000000000000000000000000000000000000000000000000006064820152608490fd5b60405162461bcd60e51b815260206004820152602360248201527f45524332303a207472616e7366657220746f20746865207a65726f206164647260448201526265737360e81b6064820152608490fd5b60405162461bcd60e51b815260206004820152602560248201527f45524332303a207472616e736665722066726f6d20746865207a65726f20616460448201527f64726573730000000000000000000000000000000000000000000000000000006064820152608490fd5b6065546066546040519060208201927f8b73c3c69bb8fe3d512ecc4cf759cc79239f7b179b0ffacaa9a75d522b39400f8452604083015260608201524660808201523060a082015260a08152610c8f60c08261092e565b5190209056fea2646970667358221220569715f5d7812aaaad8fc3e9c3530e8b8c45dcb45746a7eceadb8ccabaa2450264736f6c634300081a0033","linkReferences":{}},"methodIdentifiers":{"DOMAIN_SEPARATOR()":"3644e515","allowance(address,address)":"dd62ed3e","approve(address,uint256)":"095ea7b3","balanceOf(address)":"70a08231","decimals()":"313ce567","decreaseAllowance(address,uint256)":"a457c2d7","getChainId()":"3408e470","increaseAllowance(address,uint256)":"39509351","name()":"06fdde03","nonces(address)":"7ecebe00","permit(address,address,uint256,uint256,uint8,bytes32,bytes32)":"d505accf","symbol()":"95d89b41","totalSupply()":"18160ddd","transfer(address,uint256)":"a9059cbb","transferFrom(address,address,uint256)":"23b872dd"},"id":347}