{"abi":[{"type":"constructor","inputs":[{"name":"originalOwner","type":"address","internalType":"address"}],"stateMutability":"nonpayable"},{"type":"function","name":"isValidSignature","inputs":[{"name":"hash","type":"bytes32","internalType":"bytes32"},{"name":"signature","type":"bytes","internalType":"bytes"}],"outputs":[{"name":"magicValue","type":"bytes4","internalType":"bytes4"}],"stateMutability":"view"},{"type":"function","name":"owner","inputs":[],"outputs":[{"name":"","type":"address","internalType":"address"}],"stateMutability":"view"},{"type":"function","name":"renounceOwnership","inputs":[],"outputs":[],"stateMutability":"nonpayable"},{"type":"function","name":"transferOwnership","inputs":[{"name":"newOwner","type":"address","internalType":"address"}],"outputs":[],"stateMutability":"nonpayable"},{"type":"event","name":"OwnershipTransferred","inputs":[{"name":"previousOwner","type":"address","indexed":true,"internalType":"address"},{"name":"newOwner","type":"address","indexed":true,"internalType":"address"}],"anonymous":false}],"bytecode":{"object":"0x60803461012157601f61076c38819003918201601f19168301916001600160401b038311848410176101255780849260209460405283398101031261012157516001600160a01b0381168082036101215761005933610139565b5f54336001600160a01b03909116036100dd57156100895761007a90610139565b6040516105ec90816101808239f35b60405162461bcd60e51b815260206004820152602660248201527f4f776e61626c653a206e6577206f776e657220697320746865207a65726f206160448201526564647265737360d01b6064820152608490fd5b606460405162461bcd60e51b815260206004820152602060248201527f4f776e61626c653a2063616c6c6572206973206e6f7420746865206f776e65726044820152fd5b5f80fd5b634e487b7160e01b5f52604160045260245ffd5b5f80546001600160a01b039283166001600160a01b03198216811783559216907f8be0079c531659141344cd1fd0a4f28419497f9722a3daafe3b4186f6b6457e09080a356fe60806040526004361015610011575f80fd5b5f3560e01c80631626ba7e14610054578063715018a61461004f5780638da5cb5b1461004a5763f2fde38b14610045575f80fd5b6101d3565b6101ae565b61013d565b346101255760403660031901126101255760243567ffffffffffffffff811161012557366023820112156101255780600401359067ffffffffffffffff821161012957604051601f8301601f19908116603f0116810167ffffffffffffffff811182821017610129576040528281523660248484010111610125575f6020846101219560246100ee96018386013783010152600435610288565b6040517fffffffff0000000000000000000000000000000000000000000000000000000090911681529081906020820190565b0390f35b5f80fd5b634e487b7160e01b5f52604160045260245ffd5b34610125575f366003190112610125576101626001600160a01b035f541633146102b6565b5f6001600160a01b03815473ffffffffffffffffffffffffffffffffffffffff1981168355167f8be0079c531659141344cd1fd0a4f28419497f9722a3daafe3b4186f6b6457e08280a3005b34610125575f3660031901126101255760206001600160a01b035f5416604051908152f35b34610125576020366003190112610125576004356001600160a01b0381168082036101255761020d6001600160a01b035f541633146102b6565b1561021d5761021b9061038c565b005b60405162461bcd60e51b815260206004820152602660248201527f4f776e61626c653a206e6577206f776e657220697320746865207a65726f206160448201527f64647265737300000000000000000000000000000000000000000000000000006064820152608490fd5b9061029291610301565b6001600160a01b03805f54169116145f146102b257630b135d3f60e11b90565b5f90565b156102bd57565b606460405162461bcd60e51b815260206004820152602060248201527f4f776e61626c653a2063616c6c6572206973206e6f7420746865206f776e65726044820152fd5b81516041810361032c57509061032991602082015190606060408401519301515f1a906104c1565b90565b604003610347578160406020610329940151910151916103dd565b60405162461bcd60e51b815260206004820152601f60248201527f45434453413a20696e76616c6964207369676e6174757265206c656e677468006044820152606490fd5b6001600160a01b03805f549216918273ffffffffffffffffffffffffffffffffffffffff198216175f55167f8be0079c531659141344cd1fd0a4f28419497f9722a3daafe3b4186f6b6457e05f80a3565b906103299291601b7f7fffffffffffffffffffffffffffffffffffffffffffffffffffffffffffffff84169360ff1c01906104c1565b1561041a57565b60405162461bcd60e51b815260206004820152602260248201527f45434453413a20696e76616c6964207369676e6174757265202776272076616c604482015261756560f01b6064820152608490fd5b6040513d5f823e3d90fd5b1561047c57565b60405162461bcd60e51b815260206004820152601860248201527f45434453413a20696e76616c6964207369676e617475726500000000000000006044820152606490fd5b9291927f7fffffffffffffffffffffffffffffff5d576e7357a4501ddfe92f46681b20a08311610566576105325f9360209561050c60ff8616601b811490811561055b575b50610413565b604051948594859094939260ff6060936080840197845216602083015260408201520152565b838052039060015afa15610556575f516103296001600160a01b0382161515610475565b61046a565b601c9150145f610506565b60405162461bcd60e51b815260206004820152602260248201527f45434453413a20696e76616c6964207369676e6174757265202773272076616c604482015261756560f01b6064820152608490fdfea26469706673582212201d281d8a9d0e4d43147b4b48409965908722ea741ef61ce80d45cddd0bff432164736f6c634300081a0033","linkReferences":{}},"methodIdentifiers":{"isValidSignature(bytes32,bytes)":"1626ba7e","owner()":"8da5cb5b","renounceOwnership()":"715018a6","transferOwnership(address)":"f2fde38b"},"id":164}