{"abi":[{"type":"constructor","inputs":[{"name":"initialBalance","type":"uint256","internalType":"uint256"}],"stateMutability":"nonpayable"},{"type":"function","name":"allowance","inputs":[{"name":"owner","type":"address","internalType":"address"},{"name":"spender","type":"address","internalType":"address"}],"outputs":[{"name":"","type":"uint256","internalType":"uint256"}],"stateMutability":"view"},{"type":"function","name":"approve","inputs":[{"name":"spender","type":"address","internalType":"address"},{"name":"amount","type":"uint256","internalType":"uint256"}],"outputs":[{"name":"","type":"bool","internalType":"bool"}],"stateMutability":"nonpayable"},{"type":"function","name":"approveInternal","inputs":[{"name":"owner","type":"address","internalType":"address"},{"name":"spender","type":"address","internalType":"address"},{"name":"value","type":"uint256","internalType":"uint256"}],"outputs":[],"stateMutability":"nonpayable"},{"type":"function","name":"balanceOf","inputs":[{"name":"account","type":"address","internalType":"address"}],"outputs":[{"name":"","type":"uint256","internalType":"uint256"}],"stateMutability":"view"},{"type":"function","name":"burn","inputs":[{"name":"account","type":"address","internalType":"address"},{"name":"amount","type":"uint256","internalType":"uint256"}],"outputs":[],"stateMutability":"nonpayable"},{"type":"function","name":"decimals","inputs":[],"outputs":[{"name":"","type":"uint8","internalType":"uint8"}],"stateMutability":"view"},{"type":"function","name":"decreaseAllowance","inputs":[{"name":"spender","type":"address","internalType":"address"},{"name":"subtractedValue","type":"uint256","internalType":"uint256"}],"outputs":[{"name":"","type":"bool","internalType":"bool"}],"stateMutability":"nonpayable"},{"type":"function","name":"increaseAllowance","inputs":[{"name":"spender","type":"address","internalType":"address"},{"name":"addedValue","type":"uint256","internalType":"uint256"}],"outputs":[{"name":"","type":"bool","internalType":"bool"}],"stateMutability":"nonpayable"},{"type":"function","name":"mint","inputs":[{"name":"account","type":"address","internalType":"address"},{"name":"amount","type":"uint256","internalType":"uint256"}],"outputs":[],"stateMutability":"nonpayable"},{"type":"function","name":"multicall","inputs":[{"name":"data","type":"bytes[]","internalType":"bytes[]"}],"outputs":[{"name":"results","type":"bytes[]","internalType":"bytes[]"}],"stateMutability":"nonpayable"},{"type":"function","name":"name","inputs":[],"outputs":[{"name":"","type":"string","internalType":"string"}],"stateMutability":"view"},{"type":"function","name":"symbol","inputs":[],"outputs":[{"name":"","type":"string","internalType":"string"}],"stateMutability":"view"},{"type":"function","name":"totalSupply","inputs":[],"outputs":[{"name":"","type":"uint256","internalType":"uint256"}],"stateMutability":"view"},{"type":"function","name":"transfer","inputs":[{"name":"recipient","type":"address","internalType":"address"},{"name":"amount","type":"uint256","internalType":"uint256"}],"outputs":[{"name":"","type":"bool","internalType":"bool"}],"stateMutability":"nonpayable"},{"type":"function","name":"transferFrom","inputs":[{"name":"sender","type":"address","internalType":"address"},{"name":"recipient","type":"address","internalType":"address"},{"name":"amount","type":"uint256","internalType":"uint256"}],"outputs":[{"name":"","type":"bool","internalType":"bool"}],"stateMutability":"nonpayable"},{"type":"function","name":"transferInternal","inputs":[{"name":"from","type":"address","internalType":"address"},{"name":"to","type":"address","internalType":"address"},{"name":"value","type":"uint256","internalType":"uint256"}],"outputs":[],"stateMutability":"nonpayable"},{"type":"event","name":"Approval","inputs":[{"name":"owner","type":"address","indexed":true,"internalType":"address"},{"name":"spender","type":"address","indexed":true,"internalType":"address"},{"name":"value","type":"uint256","indexed":false,"internalType":"uint256"}],"anonymous":false},{"type":"event","name":"Transfer","inputs":[{"name":"from","type":"address","indexed":true,"internalType":"address"},{"name":"to","type":"address","indexed":true,"internalType":"address"},{"name":"value","type":"uint256","indexed":false,"internalType":"uint256"}],"anonymous":false}],"bytecode":{"object":"0x6080604052346103ba576114116020813803918261001c816103be565b9384928339810103126103ba575161003460406103be565b90600e82526d26bab63a34b1b0b6362a37b5b2b760911b602083015261005a60406103be565b60038152621090d560ea1b602082015282519091906001600160401b0381116102cb57600354600181811c911680156103b0575b60208210146102ad57601f811161034d575b506020601f82116001146102ea57819293945f926102df575b50508160011b915f199060031b1c1916176003555b81516001600160401b0381116102cb57600454600181811c911680156102c1575b60208210146102ad57601f811161024a575b50602092601f82116001146101e957928192935f926101de575b50508160011b915f199060031b1c1916176004555b331561019957610142816002546103e3565b600255335f525f60205260405f2061015b8282546103e3565b90556040519081525f7fddf252ad1be2c89b69c2b068fc378daa952ba7f163c4a11628f55a4df523b3ef60203393a360405161100c90816104058239f35b60405162461bcd60e51b815260206004820152601f60248201527f45524332303a206d696e7420746f20746865207a65726f2061646472657373006044820152606490fd5b015190505f8061011b565b601f1982169360045f52805f20915f5b868110610232575083600195961061021a575b505050811b01600455610130565b01515f1960f88460031b161c191690555f808061020c565b919260206001819286850151815501940192016101f9565b60045f527f8a35acfbc15ff81a39ae7d344fd709f28e8600b4aa8c65c6b64bfe7fe36bd19b601f830160051c810191602084106102a3575b601f0160051c01905b8181106102985750610101565b5f815560010161028b565b9091508190610282565b634e487b7160e01b5f52602260045260245ffd5b90607f16906100ef565b634e487b7160e01b5f52604160045260245ffd5b015190505f806100b9565b601f1982169060035f52805f20915f5b8181106103355750958360019596971061031d575b505050811b016003556100ce565b01515f1960f88460031b161c191690555f808061030f565b9192602060018192868b0151815501940192016102fa565b60035f527fc2575a0e9e593c00f959f8c92f12db2869c3395a3b0502d05e2516446f71f85b601f830160051c810191602084106103a6575b601f0160051c01905b81811061039b57506100a0565b5f815560010161038e565b9091508190610385565b90607f169061008e565b5f80fd5b6040519190601f01601f191682016001600160401b038111838210176102cb57604052565b919082018092116103f057565b634e487b7160e01b5f52601160045260245ffdfe60806040526004361015610011575f80fd5b5f3560e01c806306fdde0314610114578063095ea7b31461010f57806318160ddd1461010a578063222f5be01461010557806323b872dd14610100578063313ce567146100fb57806339509351146100f657806340c10f19146100f157806356189cb4146100ec57806370a08231146100e757806395d89b41146100e25780639dc29fac146100dd578063a457c2d7146100d8578063a9059cbb146100d3578063ac9650d8146100ce5763dd62ed3e146100c9575f80fd5b6108f1565b610883565b6107fe565b61073b565b610636565b610581565b61054a565b610533565b61044b565b6103ef565b6103d4565b6102ff565b6102e6565b61028f565b61025e565b610151565b805180835260209291819084018484015e5f828201840152601f01601f1916010190565b90602061014e928181520190610119565b90565b34610244575f366003190112610244576040515f6003548060011c906001811690811561023a575b60208310821461022657828552602085019190811561020d57506001146101bb575b6101b7846101ab8186038261096b565b6040519182918261013d565b0390f35b60035f9081529250907fc2575a0e9e593c00f959f8c92f12db2869c3395a3b0502d05e2516446f71f85b5b8184106101f9575050016101ab8261019b565b8054848401526020909301926001016101e6565b60ff191682525090151560051b0190506101ab8261019b565b634e487b7160e01b5f52602260045260245ffd5b91607f1691610179565b5f80fd5b600435906001600160a01b038216820361024457565b346102445760403660031901126102445761028461027a610248565b6024359033610b1b565b602060405160018152f35b34610244575f366003190112610244576020600254604051908152f35b6060906003190112610244576004356001600160a01b038116810361024457906024356001600160a01b0381168103610244579060443590565b34610244576102fd6102f7366102ac565b91610d19565b005b3461024457610319610310366102ac565b80939183610d19565b6001600160a01b0381165f52600160205261034760405f20336001600160a01b03165f5260205260405f2090565b54918083106103695761035d9203903390610b1b565b60405160018152602090f35b60405162461bcd60e51b815260206004820152602860248201527f45524332303a207472616e7366657220616d6f756e742065786365656473206160448201527f6c6c6f77616e63650000000000000000000000000000000000000000000000006064820152608490fd5b34610244575f36600319011261024457602060405160128152f35b3461024457604036600319011261024457610408610248565b602435335f5260016020526104318260405f20906001600160a01b03165f5260205260405f2090565b54908101809111610446576102849133610b1b565b610992565b3461024457604036600319011261024457610464610248565b6001600160a01b0381169060243582156104ee576104e9816104cc5f946104b66104b17fddf252ad1be2c89b69c2b068fc378daa952ba7f163c4a11628f55a4df523b3ef966002546109a6565b600255565b6001600160a01b03165f525f60205260405f2090565b6104d78282546109a6565b90556040519081529081906020820190565b0390a3005b60405162461bcd60e51b815260206004820152601f60248201527f45524332303a206d696e7420746f20746865207a65726f2061646472657373006044820152606490fd5b34610244576102fd610544366102ac565b91610b1b565b34610244576020366003190112610244576001600160a01b0361056b610248565b165f525f602052602060405f2054604051908152f35b34610244575f366003190112610244576040515f6004548060011c906001811690811561062c575b60208310821461022657828552602085019190811561020d57506001146105da576101b7846101ab8186038261096b565b60045f9081529250907f8a35acfbc15ff81a39ae7d344fd709f28e8600b4aa8c65c6b64bfe7fe36bd19b5b818410610618575050016101ab8261019b565b805484840152602090930192600101610605565b91607f16916105a9565b346102445760403660031901126102445761064f610248565b6001600160a01b03811660243581156106ec576104e981846106cc7fddf252ad1be2c89b69c2b068fc378daa952ba7f163c4a11628f55a4df523b3ef946106a75f986001600160a01b03165f525f60205260405f2090565b546106b482821015610e17565b03916001600160a01b03165f525f60205260405f2090565b556106dc6104b182600254610e6e565b6040519081529081906020820190565b60405162461bcd60e51b815260206004820152602160248201527f45524332303a206275726e2066726f6d20746865207a65726f206164647265736044820152607360f81b6064820152608490fd5b3461024457604036600319011261024457610754610248565b60243590335f52600160205261077e8160405f20906001600160a01b03165f5260205260405f2090565b54918083106107935761035d92039033610b1b565b60405162461bcd60e51b815260206004820152602560248201527f45524332303a2064656372656173656420616c6c6f77616e63652062656c6f7760448201527f207a65726f0000000000000000000000000000000000000000000000000000006064820152608490fd5b346102445760403660031901126102445761028461081a610248565b6024359033610d19565b602081016020825282518091526040820191602060408360051b8301019401925f915b83831061085657505050505090565b9091929394602080610874600193603f198682030187528951610119565b97019301930191939290610847565b346102445760203660031901126102445760043567ffffffffffffffff811161024457366023820112156102445780600401359067ffffffffffffffff8211610244573660248360051b83010111610244576101b79160246108e59201610a8c565b60405191829182610824565b346102445760403660031901126102445761090a610248565b602435906001600160a01b0382168203610244576020916001600160a01b0361094e92165f526001835260405f20906001600160a01b03165f5260205260405f2090565b54604051908152f35b634e487b7160e01b5f52604160045260245ffd5b90601f8019910116810190811067ffffffffffffffff82111761098d57604052565b610957565b634e487b7160e01b5f52601160045260245ffd5b9190820180921161044657565b67ffffffffffffffff811161098d5760051b60200190565b634e487b7160e01b5f52603260045260245ffd5b9190811015610a215760051b81013590601e198136030182121561024457019081359167ffffffffffffffff8311610244576020018236038113610244579190565b6109cb565b67ffffffffffffffff811161098d57601f01601f191660200190565b929192610a4e82610a26565b91610a5c604051938461096b565b829481845281830111610244578281602093845f960137010152565b8051821015610a215760209160051b010190565b610a95826109b3565b91610aa3604051938461096b565b808352601f19610ab2826109b3565b015f5b818110610b0a5750505f5b818110610acd5750505090565b80610aee610ae8610ae160019486886109df565b3691610a42565b30610e7b565b610af88287610a78565b52610b038186610a78565b5001610ac0565b806060602080938801015201610ab5565b906001600160a01b038216918215610bfe576001600160a01b038216938415610bae5780610b987f8c5be1e5ebec7d5bd14f71427d1e84f3dd0314c0f7b2291e5b200ac8c7c3b92594610b82610ba9956001600160a01b03165f52600160205260405f2090565b906001600160a01b03165f5260205260405f2090565b556040519081529081906020820190565b0390a3565b60405162461bcd60e51b815260206004820152602260248201527f45524332303a20617070726f766520746f20746865207a65726f206164647265604482015261737360f01b6064820152608490fd5b60405162461bcd60e51b8152602060048201526024808201527f45524332303a20617070726f76652066726f6d20746865207a65726f206164646044820152637265737360e01b6064820152608490fd5b15610c5657565b60405162461bcd60e51b815260206004820152602360248201527f45524332303a207472616e7366657220746f20746865207a65726f206164647260448201526265737360e81b6064820152608490fd5b15610cae57565b60405162461bcd60e51b815260206004820152602660248201527f45524332303a207472616e7366657220616d6f756e742065786365656473206260448201527f616c616e636500000000000000000000000000000000000000000000000000006064820152608490fd5b916001600160a01b038316918215610dac577fddf252ad1be2c89b69c2b068fc378daa952ba7f163c4a11628f55a4df523b3ef916104cc826001600160a01b03610ba9941696610d6a881515610c4f565b610d9584610d88836001600160a01b03165f525f60205260405f2090565b546106b482821015610ca7565b556001600160a01b03165f525f60205260405f2090565b60405162461bcd60e51b815260206004820152602560248201527f45524332303a207472616e736665722066726f6d20746865207a65726f20616460448201527f64726573730000000000000000000000000000000000000000000000000000006064820152608490fd5b15610e1e57565b60405162461bcd60e51b815260206004820152602260248201527f45524332303a206275726e20616d6f756e7420657863656564732062616c616e604482015261636560f01b6064820152608490fd5b9190820391821161044657565b9060405190610e8b60608361096b565b602782527f416464726573733a206c6f772d6c6576656c2064656c65676174652063616c6c60208301527f206661696c6564000000000000000000000000000000000000000000000000006040830152823b15610f27575f8161014e9460208394519201905af43d15610f1f573d90610f0382610a26565b91610f11604051938461096b565b82523d5f602084013e610f92565b606090610f92565b60405162461bcd60e51b815260206004820152602660248201527f416464726573733a2064656c65676174652063616c6c20746f206e6f6e2d636f60448201527f6e747261637400000000000000000000000000000000000000000000000000006064820152608490fd5b90919015610f9e575090565b815115610fae5750805190602001fd5b60405162461bcd60e51b815260206004820152908190610fd2906024830190610119565b0390fdfea26469706673582212208d913ad38090001f3f7be9d68a8c4edc749e6c4d4a98c0fd92803501d6aba92564736f6c634300081a0033","linkReferences":{}},"methodIdentifiers":{"allowance(address,address)":"dd62ed3e","approve(address,uint256)":"095ea7b3","approveInternal(address,address,uint256)":"56189cb4","balanceOf(address)":"70a08231","burn(address,uint256)":"9dc29fac","decimals()":"313ce567","decreaseAllowance(address,uint256)":"a457c2d7","increaseAllowance(address,uint256)":"39509351","mint(address,uint256)":"40c10f19","multicall(bytes[])":"ac9650d8","name()":"06fdde03","symbol()":"95d89b41","totalSupply()":"18160ddd","transfer(address,uint256)":"a9059cbb","transferFrom(address,address,uint256)":"23b872dd","transferInternal(address,address,uint256)":"222f5be0"},"id":200}