{"abi":[{"type":"constructor","inputs":[{"name":"_poolManager","type":"address","internalType":"contract IPoolManager"},{"name":"_verifier","type":"address","internalType":"contract IPureFiVerifier"},{"name":"_tokenA","type":"address","internalType":"contract IERC20"},{"name":"_tokenB","type":"address","internalType":"contract IERC20"},{"name":"_whitelist","type":"address","internalType":"contract PureFiMMWhitelist"},{"name":"_owner","type":"address","internalType":"address"}],"stateMutability":"nonpayable"},{"type":"function","name":"afterAddLiquidity","inputs":[{"name":"","type":"address","internalType":"address"},{"name":"","type":"tuple","internalType":"struct PoolKey","components":[{"name":"currency0","type":"address","internalType":"Currency"},{"name":"currency1","type":"address","internalType":"Currency"},{"name":"fee","type":"uint24","internalType":"uint24"},{"name":"tickSpacing","type":"int24","internalType":"int24"},{"name":"hooks","type":"address","internalType":"contract IHooks"}]},{"name":"","type":"tuple","internalType":"struct IPoolManager.ModifyLiquidityParams","components":[{"name":"tickLower","type":"int24","internalType":"int24"},{"name":"tickUpper","type":"int24","internalType":"int24"},{"name":"liquidityDelta","type":"int256","internalType":"int256"},{"name":"salt","type":"bytes32","internalType":"bytes32"}]},{"name":"","type":"int256","internalType":"BalanceDelta"},{"name":"","type":"bytes","internalType":"bytes"}],"outputs":[{"name":"","type":"bytes4","internalType":"bytes4"},{"name":"","type":"int256","internalType":"BalanceDelta"}],"stateMutability":"nonpayable"},{"type":"function","name":"afterDonate","inputs":[{"name":"","type":"address","internalType":"address"},{"name":"","type":"tuple","internalType":"struct PoolKey","components":[{"name":"currency0","type":"address","internalType":"Currency"},{"name":"currency1","type":"address","internalType":"Currency"},{"name":"fee","type":"uint24","internalType":"uint24"},{"name":"tickSpacing","type":"int24","internalType":"int24"},{"name":"hooks","type":"address","internalType":"contract IHooks"}]},{"name":"","type":"uint256","internalType":"uint256"},{"name":"","type":"uint256","internalType":"uint256"},{"name":"","type":"bytes","internalType":"bytes"}],"outputs":[{"name":"","type":"bytes4","internalType":"bytes4"}],"stateMutability":"nonpayable"},{"type":"function","name":"afterInitialize","inputs":[{"name":"","type":"address","internalType":"address"},{"name":"","type":"tuple","internalType":"struct PoolKey","components":[{"name":"currency0","type":"address","internalType":"Currency"},{"name":"currency1","type":"address","internalType":"Currency"},{"name":"fee","type":"uint24","internalType":"uint24"},{"name":"tickSpacing","type":"int24","internalType":"int24"},{"name":"hooks","type":"address","internalType":"contract IHooks"}]},{"name":"","type":"uint160","internalType":"uint160"},{"name":"","type":"int24","internalType":"int24"},{"name":"","type":"bytes","internalType":"bytes"}],"outputs":[{"name":"","type":"bytes4","internalType":"bytes4"}],"stateMutability":"nonpayable"},{"type":"function","name":"afterRemoveLiquidity","inputs":[{"name":"","type":"address","internalType":"address"},{"name":"","type":"tuple","internalType":"struct PoolKey","components":[{"name":"currency0","type":"address","internalType":"Currency"},{"name":"currency1","type":"address","internalType":"Currency"},{"name":"fee","type":"uint24","internalType":"uint24"},{"name":"tickSpacing","type":"int24","internalType":"int24"},{"name":"hooks","type":"address","internalType":"contract IHooks"}]},{"name":"","type":"tuple","internalType":"struct IPoolManager.ModifyLiquidityParams","components":[{"name":"tickLower","type":"int24","internalType":"int24"},{"name":"tickUpper","type":"int24","internalType":"int24"},{"name":"liquidityDelta","type":"int256","internalType":"int256"},{"name":"salt","type":"bytes32","internalType":"bytes32"}]},{"name":"","type":"int256","internalType":"BalanceDelta"},{"name":"","type":"bytes","internalType":"bytes"}],"outputs":[{"name":"","type":"bytes4","internalType":"bytes4"},{"name":"","type":"int256","internalType":"BalanceDelta"}],"stateMutability":"nonpayable"},{"type":"function","name":"afterSwap","inputs":[{"name":"sender","type":"address","internalType":"address"},{"name":"","type":"tuple","internalType":"struct PoolKey","components":[{"name":"currency0","type":"address","internalType":"Currency"},{"name":"currency1","type":"address","internalType":"Currency"},{"name":"fee","type":"uint24","internalType":"uint24"},{"name":"tickSpacing","type":"int24","internalType":"int24"},{"name":"hooks","type":"address","internalType":"contract IHooks"}]},{"name":"params","type":"tuple","internalType":"struct IPoolManager.SwapParams","components":[{"name":"zeroForOne","type":"bool","internalType":"bool"},{"name":"amountSpecified","type":"int256","internalType":"int256"},{"name":"sqrtPriceLimitX96","type":"uint160","internalType":"uint160"}]},{"name":"delta","type":"int256","internalType":"BalanceDelta"},{"name":"pureFiData","type":"bytes","internalType":"bytes"}],"outputs":[{"name":"","type":"bytes4","internalType":"bytes4"},{"name":"","type":"int128","internalType":"int128"}],"stateMutability":"nonpayable"},{"type":"function","name":"beforeAddLiquidity","inputs":[{"name":"sender","type":"address","internalType":"address"},{"name":"","type":"tuple","internalType":"struct PoolKey","components":[{"name":"currency0","type":"address","internalType":"Currency"},{"name":"currency1","type":"address","internalType":"Currency"},{"name":"fee","type":"uint24","internalType":"uint24"},{"name":"tickSpacing","type":"int24","internalType":"int24"},{"name":"hooks","type":"address","internalType":"contract IHooks"}]},{"name":"","type":"tuple","internalType":"struct IPoolManager.ModifyLiquidityParams","components":[{"name":"tickLower","type":"int24","internalType":"int24"},{"name":"tickUpper","type":"int24","internalType":"int24"},{"name":"liquidityDelta","type":"int256","internalType":"int256"},{"name":"salt","type":"bytes32","internalType":"bytes32"}]},{"name":"purefidata","type":"bytes","internalType":"bytes"}],"outputs":[{"name":"","type":"bytes4","internalType":"bytes4"}],"stateMutability":"nonpayable"},{"type":"function","name":"beforeDonate","inputs":[{"name":"sender","type":"address","internalType":"address"},{"name":"","type":"tuple","internalType":"struct PoolKey","components":[{"name":"currency0","type":"address","internalType":"Currency"},{"name":"currency1","type":"address","internalType":"Currency"},{"name":"fee","type":"uint24","internalType":"uint24"},{"name":"tickSpacing","type":"int24","internalType":"int24"},{"name":"hooks","type":"address","internalType":"contract IHooks"}]},{"name":"","type":"uint256","internalType":"uint256"},{"name":"","type":"uint256","internalType":"uint256"},{"name":"pureFiData","type":"bytes","internalType":"bytes"}],"outputs":[{"name":"","type":"bytes4","internalType":"bytes4"}],"stateMutability":"nonpayable"},{"type":"function","name":"beforeInitialize","inputs":[{"name":"","type":"address","internalType":"address"},{"name":"","type":"tuple","internalType":"struct PoolKey","components":[{"name":"currency0","type":"address","internalType":"Currency"},{"name":"currency1","type":"address","internalType":"Currency"},{"name":"fee","type":"uint24","internalType":"uint24"},{"name":"tickSpacing","type":"int24","internalType":"int24"},{"name":"hooks","type":"address","internalType":"contract IHooks"}]},{"name":"","type":"uint160","internalType":"uint160"},{"name":"","type":"bytes","internalType":"bytes"}],"outputs":[{"name":"","type":"bytes4","internalType":"bytes4"}],"stateMutability":"nonpayable"},{"type":"function","name":"beforeRemoveLiquidity","inputs":[{"name":"sender","type":"address","internalType":"address"},{"name":"","type":"tuple","internalType":"struct PoolKey","components":[{"name":"currency0","type":"address","internalType":"Currency"},{"name":"currency1","type":"address","internalType":"Currency"},{"name":"fee","type":"uint24","internalType":"uint24"},{"name":"tickSpacing","type":"int24","internalType":"int24"},{"name":"hooks","type":"address","internalType":"contract IHooks"}]},{"name":"","type":"tuple","internalType":"struct IPoolManager.ModifyLiquidityParams","components":[{"name":"tickLower","type":"int24","internalType":"int24"},{"name":"tickUpper","type":"int24","internalType":"int24"},{"name":"liquidityDelta","type":"int256","internalType":"int256"},{"name":"salt","type":"bytes32","internalType":"bytes32"}]},{"name":"purefidata","type":"bytes","internalType":"bytes"}],"outputs":[{"name":"","type":"bytes4","internalType":"bytes4"}],"stateMutability":"nonpayable"},{"type":"function","name":"beforeSwap","inputs":[{"name":"sender","type":"address","internalType":"address"},{"name":"","type":"tuple","internalType":"struct PoolKey","components":[{"name":"currency0","type":"address","internalType":"Currency"},{"name":"currency1","type":"address","internalType":"Currency"},{"name":"fee","type":"uint24","internalType":"uint24"},{"name":"tickSpacing","type":"int24","internalType":"int24"},{"name":"hooks","type":"address","internalType":"contract IHooks"}]},{"name":"params","type":"tuple","internalType":"struct IPoolManager.SwapParams","components":[{"name":"zeroForOne","type":"bool","internalType":"bool"},{"name":"amountSpecified","type":"int256","internalType":"int256"},{"name":"sqrtPriceLimitX96","type":"uint160","internalType":"uint160"}]},{"name":"purefidata","type":"bytes","internalType":"bytes"}],"outputs":[{"name":"","type":"bytes4","internalType":"bytes4"},{"name":"","type":"int256","internalType":"BeforeSwapDelta"},{"name":"","type":"uint24","internalType":"uint24"}],"stateMutability":"nonpayable"},{"type":"function","name":"delistQuoter","inputs":[{"name":"quoter","type":"address","internalType":"address"}],"outputs":[],"stateMutability":"nonpayable"},{"type":"function","name":"delistRouter","inputs":[{"name":"router","type":"address","internalType":"address"}],"outputs":[],"stateMutability":"nonpayable"},{"type":"function","name":"enlistQuoter","inputs":[{"name":"quoter","type":"address","internalType":"address"}],"outputs":[],"stateMutability":"nonpayable"},{"type":"function","name":"enlistRouter","inputs":[{"name":"router","type":"address","internalType":"address"}],"outputs":[],"stateMutability":"nonpayable"},{"type":"function","name":"getHookPermissions","inputs":[],"outputs":[{"name":"","type":"tuple","internalType":"struct Hooks.Permissions","components":[{"name":"beforeInitialize","type":"bool","internalType":"bool"},{"name":"afterInitialize","type":"bool","internalType":"bool"},{"name":"beforeAddLiquidity","type":"bool","internalType":"bool"},{"name":"afterAddLiquidity","type":"bool","internalType":"bool"},{"name":"beforeRemoveLiquidity","type":"bool","internalType":"bool"},{"name":"afterRemoveLiquidity","type":"bool","internalType":"bool"},{"name":"beforeSwap","type":"bool","internalType":"bool"},{"name":"afterSwap","type":"bool","internalType":"bool"},{"name":"beforeDonate","type":"bool","internalType":"bool"},{"name":"afterDonate","type":"bool","internalType":"bool"},{"name":"beforeSwapReturnDelta","type":"bool","internalType":"bool"},{"name":"afterSwapReturnDelta","type":"bool","internalType":"bool"},{"name":"afterAddLiquidityReturnDelta","type":"bool","internalType":"bool"},{"name":"afterRemoveLiquidityReturnDelta","type":"bool","internalType":"bool"}]}],"stateMutability":"pure"},{"type":"function","name":"isExpectedRule","inputs":[{"name":"ruleId","type":"uint256","internalType":"uint256"}],"outputs":[{"name":"","type":"bool","internalType":"bool"}],"stateMutability":"view"},{"type":"function","name":"owner","inputs":[],"outputs":[{"name":"","type":"address","internalType":"address"}],"stateMutability":"view"},{"type":"function","name":"poolManager","inputs":[],"outputs":[{"name":"","type":"address","internalType":"contract IPoolManager"}],"stateMutability":"view"},{"type":"function","name":"quoterWhitelist","inputs":[{"name":"","type":"address","internalType":"address"}],"outputs":[{"name":"","type":"bool","internalType":"bool"}],"stateMutability":"view"},{"type":"function","name":"renounceOwnership","inputs":[],"outputs":[],"stateMutability":"nonpayable"},{"type":"function","name":"setExpectedRuleIds","inputs":[{"name":"ruleIds","type":"uint256[]","internalType":"uint256[]"}],"outputs":[],"stateMutability":"nonpayable"},{"type":"function","name":"transferOwnership","inputs":[{"name":"newOwner","type":"address","internalType":"address"}],"outputs":[],"stateMutability":"nonpayable"},{"type":"function","name":"unlockCallback","inputs":[{"name":"data","type":"bytes","internalType":"bytes"}],"outputs":[{"name":"","type":"bytes","internalType":"bytes"}],"stateMutability":"nonpayable"},{"type":"function","name":"unsetExpectedRuleId","inputs":[{"name":"ruleIds","type":"uint256[]","internalType":"uint256[]"}],"outputs":[],"stateMutability":"nonpayable"},{"type":"function","name":"version","inputs":[],"outputs":[{"name":"","type":"uint32","internalType":"uint32"}],"stateMutability":"pure"},{"type":"event","name":"OwnershipTransferred","inputs":[{"name":"previousOwner","type":"address","indexed":true,"internalType":"address"},{"name":"newOwner","type":"address","indexed":true,"internalType":"address"}],"anonymous":false},{"type":"event","name":"QuoterDelisted","inputs":[{"name":"","type":"address","indexed":false,"internalType":"address"}],"anonymous":false},{"type":"event","name":"QuoterWhitelisted","inputs":[{"name":"","type":"address","indexed":false,"internalType":"address"}],"anonymous":false},{"type":"event","name":"RouterDelisted","inputs":[{"name":"","type":"address","indexed":false,"internalType":"address"}],"anonymous":false},{"type":"event","name":"RouterWhitelisted","inputs":[{"name":"","type":"address","indexed":false,"internalType":"address"}],"anonymous":false},{"type":"error","name":"HookNotImplemented","inputs":[]},{"type":"error","name":"InvalidPool","inputs":[]},{"type":"error","name":"LockFailure","inputs":[]},{"type":"error","name":"NotPoolManager","inputs":[]},{"type":"error","name":"NotSelf","inputs":[]},{"type":"error","name":"OwnableInvalidOwner","inputs":[{"name":"owner","type":"address","internalType":"address"}]},{"type":"error","name":"OwnableUnauthorizedAccount","inputs":[{"name":"account","type":"address","internalType":"address"}]},{"type":"error","name":"SenderPackageMismatch","inputs":[{"name":"msgSender","type":"address","internalType":"address"},{"name":"packageFrom","type":"address","internalType":"address"}]},{"type":"error","name":"UnexpectedPackageRule","inputs":[{"name":"specified","type":"uint160","internalType":"uint160"}]},{"type":"error","name":"WrongAmountSpecifiedExactInput","inputs":[{"name":"input","type":"uint160","internalType":"uint160"},{"name":"packageAmount","type":"uint160","internalType":"uint160"}]},{"type":"error","name":"WrongTokenAddress","inputs":[{"name":"given","type":"address","internalType":"address"},{"name":"packageTokenAddress","type":"address","internalType":"address"}]},{"type":"error","name":"WrongTypeOfPackage","inputs":[{"name":"specified","type":"uint160","internalType":"uint160"},{"name":"expected","type":"uint160","internalType":"uint160"}]}],"bytecode":{"object":"0x6101206040523461036157604051601f61182838819003918201601f19168301916001600160401b038311848410176103655780849260c094604052833981010312610361578051906001600160a01b03821682036103615760208101516001600160a01b03811681036103615761007960408301610399565b61008560608401610399565b6080840151939092906001600160a01b03851685036103615760a001516001600160a01b0381169590869003610361576080525f6101a06100c4610379565b8281528260208201528260408201528260608201528260808201528260a08201528260c08201528260e0820152826101008201528261012082015282610140820152826101608201528261018082015201525f6101a0610122610379565b6001815282602082015260016040820152826060820152600160808201528260a0820152600160c0820152600160e0820152600161010082015282610120820152826101408201528261016082015282610180820152015261200030161515600114801590610354575b8015610343575b8015610336575b8015610325575b8015610318575b8015610308575b80156102f8575b80156102e8575b80156102dc575b80156102d0575b80156102c4575b80156102b8575b80156102ac575b610299578415610286575f80546001600160a01b031981168717825560405196916001600160a01b03909116907f8be0079c531659141344cd1fd0a4f28419497f9722a3daafe3b4186f6b6457e09080a360a05260e0526101005260c05261147a90816103ae82396080518181816103380152610857015260a05181818161062b015261125d015260c051816112c8015260e05181610a5c01526101005181610b090152f35b631e4fbdf760e01b5f525f60045260245ffd5b630732d7b560e51b5f523060045260245ffd5b506001301615156101e0565b506002301615156101d9565b506004301615156101d2565b506008301615156101cb565b506010301615156101c4565b50602030161515600114156101bd565b50604030161515600114156101b6565b50608030161515600114156101af565b50610100301615156101a8565b5061020030161515600114156101a1565b506104003016151561019a565b506108003016151560011415610193565b506110003016151561018c565b5f80fd5b634e487b7160e01b5f52604160045260245ffd5b604051906101c082016001600160401b0381118382101761036557604052565b51906001600160a01b03821682036103615756fe60806040526004361015610011575f80fd5b5f3560e01c806307797d0b14610d3b57806316a4623414610ccf57806321d0ee7014610c795780632301787c14610c3c578063259982e514610be65780633440d82014610b8257806354fd4d5014610b65578063575e24b41461099c5780635a2a8100146108a9578063715018a614610938578063823226a4146108d35780638da5cb5b146108ae5780638db2b652146108a957806391dd73461461081b5780639263aeff146107da578063a910f80f14610769578063b47b2fb11461051f578063b6a8b0fa146104c7578063c4e833ce1461035c578063dc4c90d314610319578063dda2e487146102b0578063ddf110051461024c578063e1b4af6914610229578063f2fde38b146101995763f7da0d431461012c575f80fd5b34610195576020366003190112610195577f873a68c3eaba104d3b17517f1e55549146ab3a9850a68eeafc493c6b9430876560206001600160a01b03610170610da7565b6101786111bc565b16805f526003825260405f2060ff198154169055604051908152a1005b5f80fd5b34610195576020366003190112610195576001600160a01b036101ba610da7565b6101c26111bc565b168015610216576001600160a01b035f548273ffffffffffffffffffffffffffffffffffffffff198216175f55167f8be0079c531659141344cd1fd0a4f28419497f9722a3daafe3b4186f6b6457e05f80a3005b631e4fbdf760e01b5f525f60045260245ffd5b346101955761023736610f55565b505050505050630a85dc2960e01b5f5260045ffd5b346101955761025a36610ed7565b906102636111bc565b5f5b82811061026e57005b8061027c6001928585610fbc565b3560081c8260ff61028e848888610fbc565b3516825f528160205260405f2054925f52816020521b1760405f205501610265565b34610195576020366003190112610195577fbe6a6d8e8f5e077f38a5de95e475d9c91a254a3f32c08e14bc63a4196e683ae260206001600160a01b036102f4610da7565b6102fc6111bc565b16805f526002825260405f2060ff198154169055604051908152a1005b34610195575f3660031901126101955760206040516001600160a01b037f0000000000000000000000000000000000000000000000000000000000000000168152f35b34610195575f366003190112610195575f6101a060405161037c81610fe0565b8281528260208201528260408201528260608201528260808201528260a08201528260c08201528260e0820152826101008201528261012082015282610140820152826101608201528261018082015201526101c060206040516103df81610fe0565b60018152818101905f82526040810160018152606082015f8152608083016001815260a084015f815260c085016001815260e086019060018252610100870192600184526101208801945f86526101408901965f88526101608a01985f8a526101a06101808c019b5f8d52019b5f8d526040519d8e916001835251151591015251151560408d015251151560608c015251151560808b015251151560a08a015251151560c089015251151560e08801525115156101008701525115156101208601525115156101408501525115156101608401525115156101808301525115156101a0820152f35b34610195576104d536610f55565b9250938093506001600160a01b039150165f52600260205260ff60405f2054161561050d575b604051635b54587d60e11b8152602090f35b610516926111e2565b508080806104fb565b346101955761016036600319011261019557610539610da7565b60a03660231901126101955760603660c319011261019557610124356101443567ffffffffffffffff811161019557610576903690600401610dbd565b90925f60e435139081610748575b506105a0575b6040805163b47b2fb160e01b81525f6020820152f35b82019160608184031261019557803567ffffffffffffffff81160361019557602081013567ffffffffffffffff811161019557836105df91830161106c565b5060408101359067ffffffffffffffff82116101955761061f935f92610605920161106c565b60405180948192637b6a631d60e01b835260048301610f2b565b03816001600160a01b037f0000000000000000000000000000000000000000000000000000000000000000165afa91821561073d575f92610719575b50610664610fad565b156107115760801d5b80600f0b5f81135f146106c857506fffffffffffffffffffffffffffffffff60c0915b16910151908082106106a2578061058a565b6001600160a01b03604492604051926308f81c4f60e21b84526004840152166024820152fd5b90506f7fffffffffffffffffffffffffffffff1981146106fd576fffffffffffffffffffffffffffffffff60c0915f03610690565b634e487b7160e01b5f52601160045260245ffd5b600f0b61066d565b6107369192503d805f833e61072e818361102e565b8101906110c6565b908261065b565b6040513d5f823e3d90fd5b6001600160a01b039150165f52600360205260ff60405f2054161584610584565b346101955761012036600319011261019557610783610da7565b5060a036602319011261019557610798610e4f565b5060e4358060020b03610195576101043567ffffffffffffffff8111610195576107c6903690600401610dbd565b505060405163a910f80f60e01b8152602090f35b346101955760203660031901126101955760206108116004358060081c5f526001602052600160ff60405f205492161b8091161490565b6040519015158152f35b346101955760203660031901126101955760043567ffffffffffffffff81116101955761084c903690600401610dbd565b906001600160a01b037f000000000000000000000000000000000000000000000000000000000000000016330361089a576108969161088a916113d5565b60405191829182610f2b565b0390f35b63570c108560e11b5f5260045ffd5b610e65565b34610195575f3660031901126101955760206001600160a01b035f5416604051908152f35b34610195576108e136610ed7565b906108ea6111bc565b5f5b8281106108f557005b806109036001928585610fbc565b3560081c8260ff610915848888610fbc565b3516825f528160205260405f2054925f52816020521b191660405f2055016108ec565b34610195575f366003190112610195576109506111bc565b5f6001600160a01b03815473ffffffffffffffffffffffffffffffffffffffff1981168355167f8be0079c531659141344cd1fd0a4f28419497f9722a3daafe3b4186f6b6457e08280a3005b3461019557610140366003190112610195576109b6610da7565b60a03660231901126101955760603660c3190112610195576101243567ffffffffffffffff8111610195576109ef903690600401610dbd565b6001600160a01b0383929316805f52600260205260ff60405f205416159081610b4d575b50610a36575b60606040516315d7892d60e21b81525f60208201525f6040820152f35b610a3f926111e2565b60ff81511660028103610b2e5750610a55610fad565b15610b07577f0000000000000000000000000000000000000000000000000000000000000000905b60e4355f811215610b0157600160ff1b81146106fd575f03915b6001600160a01b038060a0840151169116808203610aec57505060c0015190808210610ac35780610a19565b6040516308f81c4f60e21b81526001600160a01b03918216600482015291166024820152604490fd5b633b3a6e6760e11b5f5260045260245260445ffd5b91610a97565b7f000000000000000000000000000000000000000000000000000000000000000090610a7d565b6044906040519063dffe729760e01b8252600482015260026024820152fd5b90505f52600360205260ff60405f2054161584610a13565b34610195575f366003190112610195576020604051620f69518152f35b346101955761010036600319011261019557610b9c610da7565b5060a036602319011261019557610bb1610e4f565b5060e43567ffffffffffffffff811161019557610bd2903690600401610dbd565b50506040516301a206c160e51b8152602090f35b3461019557610bf436610deb565b91509291506001600160a01b0382165f52600260205260ff60405f20541615610c2a575b60405163259982e560e01b8152602090f35b610c33926111e2565b50808080610c18565b34610195576020366003190112610195576001600160a01b03610c5d610da7565b165f526003602052602060ff60405f2054166040519015158152f35b3461019557610c8736610deb565b91509291506001600160a01b0382165f52600260205260ff60405f20541615610cbd575b60405163021d0ee760e41b8152602090f35b610cc6926111e2565b50808080610cab565b34610195576020366003190112610195577feee843f2faebbad3c6af49156d6d938ad3dcca6fc58fd02753c8d2659ff19ea460206001600160a01b03610d13610da7565b610d1b6111bc565b16805f526003825260405f20600160ff19825416179055604051908152a1005b34610195576020366003190112610195577fb5a971e3a0967f24667868fe57eb95ea3b8ccc12e9a68c300804f85d2130227460206001600160a01b03610d7f610da7565b610d876111bc565b16805f526002825260405f20600160ff19825416179055604051908152a1005b600435906001600160a01b038216820361019557565b9181601f840112156101955782359167ffffffffffffffff8311610195576020838186019501011161019557565b90610160600319830112610195576004356001600160a01b0381168103610195579160a060231982011261019557602491608060c3198301126101955760c491610144359067ffffffffffffffff821161019557610e4b91600401610dbd565b9091565b60c435906001600160a01b038216820361019557565b3461019557610180366003190112610195576004356001600160a01b0381168103610195575060a03660231901126101955760803660c3190112610195576101643567ffffffffffffffff811161019557610ec4903690600401610dbd565b5050630a85dc2960e01b5f908152600490fd5b9060206003198301126101955760043567ffffffffffffffff811161019557826023820112156101955780600401359267ffffffffffffffff84116101955760248460051b83010111610195576024019190565b602060409281835280519182918282860152018484015e5f828201840152601f01601f1916010190565b610120600319820112610195576004356001600160a01b0381168103610195579160a06023198301126101955760249160c4359160e43591610104359067ffffffffffffffff821161019557610e4b91600401610dbd565b60c43580151581036101955790565b9190811015610fcc5760051b0190565b634e487b7160e01b5f52603260045260245ffd5b6101c0810190811067ffffffffffffffff821117610ffd57604052565b634e487b7160e01b5f52604160045260245ffd5b610100810190811067ffffffffffffffff821117610ffd57604052565b90601f8019910116810190811067ffffffffffffffff821117610ffd57604052565b67ffffffffffffffff8111610ffd57601f01601f191660200190565b81601f820112156101955780359061108382611050565b92611091604051948561102e565b8284526020838301011161019557815f926020809301838601378301015290565b51906001600160a01b038216820361019557565b6020818303126101955780519067ffffffffffffffff82116101955701906101008282031261019557604051916110fc83611011565b805160ff81168103610195578352602081015160208401526040810151604084015261112a606082016110b2565b606084015261113b608082016110b2565b608084015261114c60a082016110b2565b60a084015260c081015160c084015260e08101519067ffffffffffffffff8211610195570181601f820112156101955780519061118882611050565b92611196604051948561102e565b8284526020838301011161019557815f9260208093018386015e8301015260e082015290565b6001600160a01b035f541633036111cf57565b63118cdaa760e01b5f523360045260245ffd5b8160445f9295949395606060e06040516111fb81611011565b86815286602082015286604082015286838201528660808201528660a08201528660c082015201526040519687938492630efd9c3b60e21b845260206004850152816024850152848401378181018301859052601f01601f19168101030181837f00000000000000000000000000000000000000000000000000000000000000006001600160a01b03165af192831561073d575f936113b9575b50826001600160a01b03606082015116604051906301fd3f7760e71b825260048201526020816024816001600160a01b037f0000000000000000000000000000000000000000000000000000000000000000165afa90811561073d575f9161137e575b5061137957506040830161132581518060081c5f526001602052600160ff60405f205492161b8091161490565b1561135c57506001600160a01b03806060850151169116808203611347575050565b63b28c95c360e01b5f5260045260245260445ffd5b6001600160a01b03905116631b9911e560e31b5f5260045260245ffd5b925050565b90506020813d6020116113b1575b816113996020938361102e565b8101031261019557518015158103610195575f6112f8565b3d915061138c565b6113ce9193503d805f833e61072e818361102e565b915f611295565b5f9182918160405192839283378101838152039082305af1903d1561143c573d916113ff83611050565b9261140d604051948561102e565b83523d5f602085013e5b61143a575080511561142b57602081519101fd5b6314815f4760e31b5f5260045ffd5b565b60609161141756fea2646970667358221220cf74403d8b4482d66d42d15b72b96efd285df02be999748d360fbff10418596964736f6c634300081a0033","linkReferences":{}},"methodIdentifiers":{"afterAddLiquidity(address,(address,address,uint24,int24,address),(int24,int24,int256,bytes32),int256,bytes)":"5a2a8100","afterDonate(address,(address,address,uint24,int24,address),uint256,uint256,bytes)":"e1b4af69","afterInitialize(address,(address,address,uint24,int24,address),uint160,int24,bytes)":"a910f80f","afterRemoveLiquidity(address,(address,address,uint24,int24,address),(int24,int24,int256,bytes32),int256,bytes)":"8db2b652","afterSwap(address,(address,address,uint24,int24,address),(bool,int256,uint160),int256,bytes)":"b47b2fb1","beforeAddLiquidity(address,(address,address,uint24,int24,address),(int24,int24,int256,bytes32),bytes)":"259982e5","beforeDonate(address,(address,address,uint24,int24,address),uint256,uint256,bytes)":"b6a8b0fa","beforeInitialize(address,(address,address,uint24,int24,address),uint160,bytes)":"3440d820","beforeRemoveLiquidity(address,(address,address,uint24,int24,address),(int24,int24,int256,bytes32),bytes)":"21d0ee70","beforeSwap(address,(address,address,uint24,int24,address),(bool,int256,uint160),bytes)":"575e24b4","delistQuoter(address)":"f7da0d43","delistRouter(address)":"dda2e487","enlistQuoter(address)":"16a46234","enlistRouter(address)":"07797d0b","getHookPermissions()":"c4e833ce","isExpectedRule(uint256)":"9263aeff","owner()":"8da5cb5b","poolManager()":"dc4c90d3","quoterWhitelist(address)":"2301787c","renounceOwnership()":"715018a6","setExpectedRuleIds(uint256[])":"ddf11005","transferOwnership(address)":"f2fde38b","unlockCallback(bytes)":"91dd7346","unsetExpectedRuleId(uint256[])":"823226a4","version()":"54fd4d50"},"id":121}