{"abi":[{"type":"receive","stateMutability":"payable"},{"type":"function","name":"functionCall","inputs":[{"name":"target","type":"address","internalType":"address"},{"name":"data","type":"bytes","internalType":"bytes"}],"outputs":[],"stateMutability":"nonpayable"},{"type":"function","name":"functionCallWithValue","inputs":[{"name":"target","type":"address","internalType":"address"},{"name":"data","type":"bytes","internalType":"bytes"},{"name":"value","type":"uint256","internalType":"uint256"}],"outputs":[],"stateMutability":"payable"},{"type":"function","name":"functionStaticCall","inputs":[{"name":"target","type":"address","internalType":"address"},{"name":"data","type":"bytes","internalType":"bytes"}],"outputs":[],"stateMutability":"nonpayable"},{"type":"function","name":"isContract","inputs":[{"name":"account","type":"address","internalType":"address"}],"outputs":[{"name":"","type":"bool","internalType":"bool"}],"stateMutability":"view"},{"type":"function","name":"sendValue","inputs":[{"name":"receiver","type":"address","internalType":"address payable"},{"name":"amount","type":"uint256","internalType":"uint256"}],"outputs":[],"stateMutability":"nonpayable"},{"type":"function","name":"sharedAnswer","inputs":[],"outputs":[{"name":"","type":"string","internalType":"string"}],"stateMutability":"view"},{"type":"event","name":"CallReturnValue","inputs":[{"name":"data","type":"string","indexed":false,"internalType":"string"}],"anonymous":false}],"bytecode":{"object":"0x6080806040523460155761086d908161001a8239f35b5f80fdfe6080604052600436101561001a575b3615610018575f80fd5b005b5f3560e01c8063162790551461007957806324a084df146100745780632a0115941461006f578063a0b5ffb01461006a578063c21d36f3146100655763fc40cf730361000e57610547565b6103d0565b61032c565b6101f8565b6100c4565b346100a25760203660031901126100a257600435610096816100a6565b3b151560805260206080f35b5f80fd5b73ffffffffffffffffffffffffffffffffffffffff8116036100a257565b346100a25760403660031901126100a2576004356100e1816100a6565b60243590814710610185575f80809373ffffffffffffffffffffffffffffffffffffffff8294165af16101126106e3565b501561011a57005b60405162461bcd60e51b815260206004820152603a60248201527f416464726573733a20756e61626c6520746f2073656e642076616c75652c207260448201527f6563697069656e74206d617920686176652072657665727465640000000000006064820152608490fd5b60405162461bcd60e51b815260206004820152601d60248201527f416464726573733a20696e73756666696369656e742062616c616e63650000006044820152606490fd5b9181601f840112156100a25782359167ffffffffffffffff83116100a257602083818601950101116100a257565b60603660031901126100a257600435610210816100a6565b60243567ffffffffffffffff81116100a2576102de6102cf7fe518073da644d0626295bee74d5d5c51447a33857c62913bb30f35e2fba3db7c9361026b61025e6102ea9536906004016101ca565b919060443592369161064a565b6040519261027a6060856104f6565b602984527f416464726573733a206c6f772d6c6576656c2063616c6c20776974682076616c60208501527f7565206661696c65640000000000000000000000000000000000000000000000604085015261075e565b60208082518301019101610680565b6040519182918261051d565b0390a1005b9060406003198301126100a257600435610308816100a6565b916024359067ffffffffffffffff82116100a257610328916004016101ca565b9091565b346100a2577fe518073da644d0626295bee74d5d5c51447a33857c62913bb30f35e2fba3db7c6102ea6102de6102cf6103735f80610369366102ef565b949194369161064a565b604051936103826040866104f6565b601e85527f416464726573733a206c6f772d6c6576656c2063616c6c206661696c6564000060208601526103b8813b1515610712565b82602083519301915af16103ca6106e3565b906107fb565b346100a2576103eb6103e1366102ef565b929192369161064a565b604051906103fa6060836104f6565b602582527f416464726573733a206c6f772d6c6576656c207374617469632063616c6c206660208301527f61696c65640000000000000000000000000000000000000000000000000000006040830152823b15610491576102cf6102ea925f80847fe518073da644d0626295bee74d5d5c51447a33857c62913bb30f35e2fba3db7c9760206102de97519201905afa6103ca6106e3565b60405162461bcd60e51b8152602060048201526024808201527f416464726573733a207374617469632063616c6c20746f206e6f6e2d636f6e746044820152631c9858dd60e21b6064820152608490fd5b634e487b7160e01b5f52604160045260245ffd5b90601f8019910116810190811067ffffffffffffffff82111761051857604052565b6104e2565b602060409281835280519182918282860152018484015e5f828201840152601f01601f1916010190565b346100a2575f3660031901126100a2576040515f6001548060011c9060018116908115610624575b6020831082146106105782855260208501919081156105f757506001146105a5575b6105a1846102de818603826104f6565b0390f35b60015f9081529250907fb10e2d527612073b26eecdfd717e6a320cf44b4afac2b0732d9fcbe2b7fa0cf65b8184106105e3575050016102de82610591565b8054848401526020909301926001016105d0565b60ff191682525090151560051b0190506102de82610591565b634e487b7160e01b5f52602260045260245ffd5b91607f169161056f565b67ffffffffffffffff811161051857601f01601f191660200190565b9291926106568261062e565b9161066460405193846104f6565b8294818452818301116100a2578281602093845f960137010152565b6020818303126100a25780519067ffffffffffffffff82116100a2570181601f820112156100a2578051906106b48261062e565b926106c260405194856104f6565b828452602083830101116100a257815f9260208093018386015e8301015290565b3d1561070d573d906106f48261062e565b9161070260405193846104f6565b82523d5f602084013e565b606090565b1561071957565b60405162461bcd60e51b815260206004820152601d60248201527f416464726573733a2063616c6c20746f206e6f6e2d636f6e74726163740000006044820152606490fd5b9092918047106107905761078d935f92839261077c823b1515610712565b602083519301915af16103ca6106e3565b90565b60405162461bcd60e51b815260206004820152602660248201527f416464726573733a20696e73756666696369656e742062616c616e636520666f60448201527f722063616c6c00000000000000000000000000000000000000000000000000006064820152608490fd5b90919015610807575090565b8151156108175750805190602001fd5b60405162461bcd60e51b8152908190610833906004830161051d565b0390fdfea264697066735822122095b2413cfe36dd166a36e3f83adb127e4eef1aed4c2778cf0b32414e01fc694b64736f6c634300081a0033","linkReferences":{}},"methodIdentifiers":{"functionCall(address,bytes)":"a0b5ffb0","functionCallWithValue(address,bytes,uint256)":"2a011594","functionStaticCall(address,bytes)":"c21d36f3","isContract(address)":"16279055","sendValue(address,uint256)":"24a084df","sharedAnswer()":"fc40cf73"},"id":314}