{"abi":[{"type":"function","name":"nonces","inputs":[{"name":"owner","type":"address","internalType":"address"},{"name":"word","type":"uint256","internalType":"uint256"}],"outputs":[{"name":"bitmap","type":"uint256","internalType":"uint256"}],"stateMutability":"view"},{"type":"function","name":"revokeNonce","inputs":[{"name":"nonce","type":"uint256","internalType":"uint256"}],"outputs":[],"stateMutability":"payable"},{"type":"error","name":"NonceAlreadyUsed","inputs":[]}],"bytecode":{"object":"0x60808060405234601557610100908161001a8239f35b5f80fdfe608060405260043610156010575f80fd5b5f3560e01c806305c1ee201460805763502e1a1614602c575f80fd5b34607c576040366003190112607c5760043573ffffffffffffffffffffffffffffffffffffffff8116809103607c575f525f60205260405f206024355f52602052602060405f2054604051908152f35b5f80fd5b6020366003190112607c57600435600160ff82161b90335f525f60205260405f209060081c5f5260205260405f2081815418809155161560bc57005b623f613760e71b5f5260045ffdfea2646970667358221220e31044332ff5d8b5fa9433d9ea42f9035a45335d1a44f4541dbb898df7ec59d764736f6c634300081a0033","linkReferences":{}},"methodIdentifiers":{"nonces(address,uint256)":"502e1a16","revokeNonce(uint256)":"05c1ee20"},"id":107}