{"abi":[{"type":"function","name":"registerInterface","inputs":[{"name":"interfaceId","type":"bytes4","internalType":"bytes4"}],"outputs":[],"stateMutability":"nonpayable"},{"type":"function","name":"supportsInterface","inputs":[{"name":"interfaceId","type":"bytes4","internalType":"bytes4"}],"outputs":[{"name":"","type":"bool","internalType":"bool"}],"stateMutability":"view"}],"bytecode":{"object":"0x6080806040523460155761016d908161001a8239f35b5f80fdfe6080806040526004361015610012575f80fd5b5f3560e01c90816301ffc9a7146100e0575063214cdb8014610032575f80fd5b346100dc5760203660031901126100dc5760043563ffffffff60e01b81168091036100dc577fffffffff000000000000000000000000000000000000000000000000000000008114610097575f525f60205260405f20600160ff198254161790555f80f35b60405162461bcd60e51b815260206004820152601c60248201527f4552433136353a20696e76616c696420696e74657266616365206964000000006044820152606490fd5b5f80fd5b346100dc5760203660031901126100dc576004359063ffffffff60e01b82168092036100dc576020916301ffc9a760e01b8114908115610122575b5015158152f35b90505f525f825260ff60405f2054168361011b56fea26469706673582212202b9335df90b8543e892f4a9ac787f19faa265e6d71e8125805f57d0e7e11b4e564736f6c634300081a0033","linkReferences":{}},"methodIdentifiers":{"registerInterface(bytes4)":"214cdb80","supportsInterface(bytes4)":"01ffc9a7"},"id":170}