{"abi":[{"type":"constructor","inputs":[{"name":"_poolManager","type":"address","internalType":"contract IPoolManager"},{"name":"_verifier","type":"address","internalType":"contract IPureFiVerifier"},{"name":"_tokenA","type":"address","internalType":"contract IERC20"},{"name":"_tokenB","type":"address","internalType":"contract IERC20"},{"name":"_whitelist","type":"address","internalType":"contract PureFiMMWhitelist"}],"stateMutability":"nonpayable"},{"type":"function","name":"calculateLiquidityDelta","inputs":[{"name":"key","type":"tuple","internalType":"struct PoolKey","components":[{"name":"currency0","type":"address","internalType":"Currency"},{"name":"currency1","type":"address","internalType":"Currency"},{"name":"fee","type":"uint24","internalType":"uint24"},{"name":"tickSpacing","type":"int24","internalType":"int24"},{"name":"hooks","type":"address","internalType":"contract IHooks"}]},{"name":"tickLower","type":"int24","internalType":"int24"},{"name":"tickUpper","type":"int24","internalType":"int24"},{"name":"amount0","type":"uint256","internalType":"uint256"},{"name":"amount1","type":"uint256","internalType":"uint256"}],"outputs":[{"name":"","type":"uint128","internalType":"uint128"}],"stateMutability":"view"},{"type":"function","name":"isExpectedRule","inputs":[{"name":"ruleId","type":"uint256","internalType":"uint256"}],"outputs":[{"name":"","type":"bool","internalType":"bool"}],"stateMutability":"view"},{"type":"function","name":"manager","inputs":[],"outputs":[{"name":"","type":"address","internalType":"contract IPoolManager"}],"stateMutability":"view"},{"type":"function","name":"modifyLiquidity","inputs":[{"name":"key","type":"tuple","internalType":"struct PoolKey","components":[{"name":"currency0","type":"address","internalType":"Currency"},{"name":"currency1","type":"address","internalType":"Currency"},{"name":"fee","type":"uint24","internalType":"uint24"},{"name":"tickSpacing","type":"int24","internalType":"int24"},{"name":"hooks","type":"address","internalType":"contract IHooks"}]},{"name":"params","type":"tuple","internalType":"struct IPoolManager.ModifyLiquidityParams","components":[{"name":"tickLower","type":"int24","internalType":"int24"},{"name":"tickUpper","type":"int24","internalType":"int24"},{"name":"liquidityDelta","type":"int256","internalType":"int256"},{"name":"salt","type":"bytes32","internalType":"bytes32"}]},{"name":"hookData","type":"bytes","internalType":"bytes"},{"name":"settleUsingBurn","type":"bool","internalType":"bool"},{"name":"takeClaims","type":"bool","internalType":"bool"}],"outputs":[{"name":"delta","type":"int256","internalType":"BalanceDelta"}],"stateMutability":"payable"},{"type":"function","name":"modifyLiquidity","inputs":[{"name":"key","type":"tuple","internalType":"struct PoolKey","components":[{"name":"currency0","type":"address","internalType":"Currency"},{"name":"currency1","type":"address","internalType":"Currency"},{"name":"fee","type":"uint24","internalType":"uint24"},{"name":"tickSpacing","type":"int24","internalType":"int24"},{"name":"hooks","type":"address","internalType":"contract IHooks"}]},{"name":"params","type":"tuple","internalType":"struct IPoolManager.ModifyLiquidityParams","components":[{"name":"tickLower","type":"int24","internalType":"int24"},{"name":"tickUpper","type":"int24","internalType":"int24"},{"name":"liquidityDelta","type":"int256","internalType":"int256"},{"name":"salt","type":"bytes32","internalType":"bytes32"}]},{"name":"hookData","type":"bytes","internalType":"bytes"}],"outputs":[{"name":"delta","type":"int256","internalType":"BalanceDelta"}],"stateMutability":"payable"},{"type":"function","name":"owner","inputs":[],"outputs":[{"name":"","type":"address","internalType":"address"}],"stateMutability":"view"},{"type":"function","name":"renounceOwnership","inputs":[],"outputs":[],"stateMutability":"nonpayable"},{"type":"function","name":"setExpectedRuleIds","inputs":[{"name":"ruleIds","type":"uint256[]","internalType":"uint256[]"}],"outputs":[],"stateMutability":"nonpayable"},{"type":"function","name":"transferOwnership","inputs":[{"name":"newOwner","type":"address","internalType":"address"}],"outputs":[],"stateMutability":"nonpayable"},{"type":"function","name":"unlockCallback","inputs":[{"name":"rawData","type":"bytes","internalType":"bytes"}],"outputs":[{"name":"","type":"bytes","internalType":"bytes"}],"stateMutability":"nonpayable"},{"type":"function","name":"unsetExpectedRuleId","inputs":[{"name":"ruleIds","type":"uint256[]","internalType":"uint256[]"}],"outputs":[],"stateMutability":"nonpayable"},{"type":"function","name":"verifier","inputs":[],"outputs":[{"name":"","type":"address","internalType":"contract IPureFiVerifier"}],"stateMutability":"view"},{"type":"event","name":"OwnershipTransferred","inputs":[{"name":"previousOwner","type":"address","indexed":true,"internalType":"address"},{"name":"newOwner","type":"address","indexed":true,"internalType":"address"}],"anonymous":false},{"type":"error","name":"MessageSenderMismatch","inputs":[]},{"type":"error","name":"OwnableInvalidOwner","inputs":[{"name":"owner","type":"address","internalType":"address"}]},{"type":"error","name":"OwnableUnauthorizedAccount","inputs":[{"name":"account","type":"address","internalType":"address"}]},{"type":"error","name":"UnexpectedRule","inputs":[]}],"bytecode":{"object":"0x6101203461018157601f61219838819003918201601f19168301916001600160401b038311848410176101855780849260a094604052833981010312610181578051906001600160a01b0382168203610181576020810151906001600160a01b03821682036101815761007460408201610199565b608061008260608401610199565b920151926001600160a01b038416840361018157331561016e575f8054336001600160a01b0319821681178355604051979290916001600160a01b0316907f8be0079c531659141344cd1fd0a4f28419497f9722a3daafe3b4186f6b6457e09080a360805260a05260e0526101005260c052611fea90816101ae823960805181818161022b01528181610a3001528181610afa01528181610bcf015281816118a001528181611945015281816119f001528181611a5c01528181611bdf0152611c50015260a051818181610b3d015261122d015260c051816111c2015260e05181505061010051815050f35b631e4fbdf760e01b5f525f60045260245ffd5b5f80fd5b634e487b7160e01b5f52604160045260245ffd5b51906001600160a01b03821682036101815756fe60806040526004361015610011575f80fd5b5f3560e01c80630a5b11e414610d0b5780631b41045514610b615780632b7ac3f314610b1e578063481c6a7514610adb5780635a6bcfda146108a2578063715018a61461083e578063823226a4146107d95780638da5cb5b146107b457806391dd7346146101d95780639263aeff14610198578063ddf11005146101345763f2fde38b1461009d575f80fd5b34610130576020366003190112610130576004356001600160a01b038116809103610130576100ca61170d565b801561011d576001600160a01b035f548273ffffffffffffffffffffffffffffffffffffffff198216175f55167f8be0079c531659141344cd1fd0a4f28419497f9722a3daafe3b4186f6b6457e05f80a3005b631e4fbdf760e01b5f525f60045260245ffd5b5f80fd5b34610130576101423661102c565b9061014b61170d565b5f5b82811061015657005b8061016460019285856110ea565b3560081c8260ff6101768488886110ea565b3516825f528160205260405f2054925f52816020521b1760405f20550161014d565b346101305760203660031901126101305760206101cf6004358060081c5f526001602052600160ff60405f205492161b8091161490565b6040519015158152f35b346101305760203660031901126101305760043567ffffffffffffffff8111610130573660238201121561013057806004013567ffffffffffffffff81116101305781016024810190368211610130577f00000000000000000000000000000000000000000000000000000000000000006001600160a01b03811693843303610130576020818403126101305760248101359067ffffffffffffffff82116101305701936101a085840312610130576040519161029583610e1f565b6102a160248701610ec6565b835260a0601f19878603011261013057604051936102be85610e4f565b6102ca60448801610ec6565b85526102d860648801610ec6565b6020860152608487013562ffffff811681036101305760408601526102ff60a48801610eda565b606086015260c48701356001600160a01b03811681036101305760809160249183880152602086019687528860e3199103010112610130576040519561034487610e6b565b61035060e48201610eda565b875261035f6101048201610eda565b6020880152610124810135604088015261014481013560608801526040840196875261016481013567ffffffffffffffff8111610130576104999660246103a892840101610fd9565b916060850192835260406103d36101a46103c5610184860161101f565b94608089019586520161101f565b9360a0870194855261040060a08951208b51805160020b6060602083015160020b92015192309088611733565b50509561046b5f8c6104ad8c519151955187519e8f9788968795632d35e7ed60e11b875260048701906001600160a01b036080809282815116855282602082015116602086015262ffffff6040820151166040860152606081015160020b6060860152015116910152565b8051600290810b60a48701526020820151900b60c4860152604081015160e486015260600151610104850152565b610140610124840152610144830190611080565b03925af19687156107a9575f97610773575b506104e89060a087512090895190815160020b906060602084015160020b930151933091611733565b50509061050d6001600160a01b038751511630906001600160a01b0388511690611888565b939150506001600160801b0361053e6001600160a01b0360208a5101511630906001600160a01b038a511690611888565b9791505016600f0b9060408a510151915f838201938412911290801582169115161761075f576001600160801b0316600f0b0361071a5760406105ff985101515f81125f146106d557505f821380156106cc575b61059b9061110e565b5f821280156106c3575b6105af901561110e565b5f8212610690575b5f8412610658575b505f811361062c575b505f8213610603575b8585604051906020820152602081526105eb604082610ea4565b604051918291602083526020830190611080565b0390f35b6001600160a01b0380602061062396510151169351169051151592611bce565b828080806105d1565b610652906001600160a01b0386515116906001600160a01b038651168451151592611bce565b866105c8565b61068a906001600160a01b0360208851015116906001600160a01b0387511661068087611129565b9151151592611934565b876105bf565b6106be6001600160a01b03875151166001600160a01b038751166106b385611129565b908451151592611934565b6105b7565b505f84126105a5565b505f8413610592565b5f12156105af575f82128015610711575b6106ef9061110e565b5f82138015610708575b610703901561110e565b6105af565b505f84136106f9565b505f84126106e6565b60405162461bcd60e51b815260206004820152601a60248201527f6c6971756964697479206368616e676520696e636f72726563740000000000006044820152606490fd5b634e487b7160e01b5f52601160045260245ffd5b9096506040813d6040116107a1575b8161078f60409383610ea4565b810103126101305751956104e86104bf565b3d9150610782565b6040513d5f823e3d90fd5b34610130575f3660031901126101305760206001600160a01b035f5416604051908152f35b34610130576107e73661102c565b906107f061170d565b5f5b8281106107fb57005b8061080960019285856110ea565b3560081c8260ff61081b8488886110ea565b3516825f528160205260405f2054925f52816020521b191660405f2055016107f2565b34610130575f3660031901126101305761085661170d565b5f6001600160a01b03815473ffffffffffffffffffffffffffffffffffffffff1981168355167f8be0079c531659141344cd1fd0a4f28419497f9722a3daafe3b4186f6b6457e08280a3005b610140366003190112610130576108b836610ee8565b6108c136610f6f565b90610124359167ffffffffffffffff831161013057610a015f926001600160a01b03926108f5610a23963690600401610fd9565b916108ff83611165565b506109e06040519361091085610e1f565b3385526020850192835260408501938452606085019081526109cb608086019489865261099960a08801958b87526040519a8b996020808c0152511660408a01525160608901906001600160a01b036080809282815116855282602082015116602086015262ffffff6040820151166040860152606081015160020b6060860152015116910152565b518051600290810b6101008901526020820151900b610120880152604081015161014088015260600151610160870152565b516101a06101808601526101e0850190611080565b915115156101a08401525115156101c083015203601f198101835282610ea4565b604051809381926348c8949160e01b8352602060048401526024830190611080565b0381836001600160a01b037f0000000000000000000000000000000000000000000000000000000000000000165af19081156107a9575f91610a9d575b5060208180518101031261013057602001514780610a84575b602082604051908152f35b5f80808093335af115610a975781610a79565b33611cb9565b90503d805f833e610aae8183610ea4565b810160208282031261013057815167ffffffffffffffff811161013057610ad592016110a4565b81610a60565b34610130575f3660031901126101305760206040516001600160a01b037f0000000000000000000000000000000000000000000000000000000000000000168152f35b34610130575f3660031901126101305760206040516001600160a01b037f0000000000000000000000000000000000000000000000000000000000000000168152f35b346101305761012036600319011261013057610b7c36610ee8565b60a4358060020b81036101305760c435908160020b82036101305760e43590610bab60a0610104359520611cee565b9360405194631e2eaeaf60e01b865260048601526020856024816001600160a01b037f0000000000000000000000000000000000000000000000000000000000000000165afa9485156107a9575f95610cd5575b50610c1e610c186001600160a01b0360209716936113d3565b946113d3565b9182856001600160a01b0385166001600160a01b03821611610cc9575b50506001600160a01b0385168111610c69575050610c5892611d6d565b6001600160801b0360405191168152f35b909290916001600160a01b038116831015610cbd578291610c8e91610c949594611d6d565b93611d34565b6001600160801b0381166001600160801b038316105f14610cb657505b610c58565b9050610c58565b915050610cb192611d34565b90955092508680610c3b565b94506020853d602011610d03575b81610cf060209383610ea4565b8101031261013057935193610c1e610bff565b3d9150610ce3565b61018036600319011261013057610d2136610ee8565b610d2a36610f6f565b906101243567ffffffffffffffff811161013057610d4c903690600401610fd9565b91610144359283151580940361013057610164359283151580940361013057610a23945f946109e0610a01946109cb6001600160a01b0397610d8d83611165565b5061099960405197610d9e89610e1f565b3389526020890190815260408901928352606089019485526080890197885260a089019687526040519a8b996020808c0152511660408a01525160608901906001600160a01b036080809282815116855282602082015116602086015262ffffff6040820151166040860152606081015160020b6060860152015116910152565b60c0810190811067ffffffffffffffff821117610e3b57604052565b634e487b7160e01b5f52604160045260245ffd5b60a0810190811067ffffffffffffffff821117610e3b57604052565b6080810190811067ffffffffffffffff821117610e3b57604052565b610100810190811067ffffffffffffffff821117610e3b57604052565b90601f8019910116810190811067ffffffffffffffff821117610e3b57604052565b35906001600160a01b038216820361013057565b35908160020b820361013057565b60a09060031901126101305760405190610f0182610e4f565b816004356001600160a01b03811681036101305781526024356001600160a01b038116810361013057602082015260443562ffffff811681036101305760408201526064358060020b8103610130576060820152608435906001600160a01b03821682036101305760800152565b60809060a31901126101305760405190610f8882610e6b565b8160a4358060020b810361013057815260c4358060020b810361013057602082015260e4356040820152606061010435910152565b67ffffffffffffffff8111610e3b57601f01601f191660200190565b81601f8201121561013057803590610ff082610fbd565b92610ffe6040519485610ea4565b8284526020838301011161013057815f926020809301838601378301015290565b3590811515820361013057565b9060206003198301126101305760043567ffffffffffffffff811161013057826023820112156101305780600401359267ffffffffffffffff84116101305760248460051b83010111610130576024019190565b805180835260209291819084018484015e5f828201840152601f01601f1916010190565b81601f82011215610130578051906110bb82610fbd565b926110c96040519485610ea4565b8284526020838301011161013057815f9260208093018386015e8301015290565b91908110156110fa5760051b0190565b634e487b7160e01b5f52603260045260245ffd5b1561111557565b634e487b7160e01b5f52600160045260245ffd5b600160ff1b811461075f575f0390565b90816020910312610130575180151581036101305790565b51906001600160a01b038216820361013057565b60405161117181610e87565b5f81525f60208201525f60408201525f60608201525f60808201525f60a08201525f60c0820152606060e08201526040516301fd3f7760e71b81523360048201526020816024816001600160a01b037f0000000000000000000000000000000000000000000000000000000000000000165afa9081156107a9575f91611395575b506113905750905f6112209260405180948192630efd9c3b60e21b8352602060048401526024830190611080565b0381836001600160a01b037f0000000000000000000000000000000000000000000000000000000000000000165af19182156107a9575f926112bd575b508161128560408201518060081c5f526001602052600160ff60405f205492161b8091161490565b156112ae576001600160a01b0360603392015116036112a057565b62d9c83560e81b5f5260045ffd5b6382a96de560e01b5f5260045ffd5b9091503d805f833e6112cf8183610ea4565b8101906020818303126101305780519067ffffffffffffffff8211610130570161010081830312610130576040519161130783610e87565b815160ff81168103610130578352602082015160208401526040820151604084015261133560608301611151565b606084015261134660808301611151565b608084015261135760a08301611151565b60a084015260c082015160c084015260e082015167ffffffffffffffff81116101305761138492016110a4565b60e0820152905f61125d565b905090565b6113b7915060203d6020116113bd575b6113af8183610ea4565b810190611139565b5f6111f2565b503d6113a5565b90816020910312610130575190565b60020b908160ff1d82810118620d89e881116116fa5763ffffffff9192600182167001fffcb933bd6fad37aa2d162d1a594001027001000000000000000000000000000000001891600281166116de575b600481166116c2575b600881166116a6575b6010811661168a575b6020811661166e575b60408116611652575b60808116611636575b610100811661161a575b61020081166115fe575b61040081166115e2575b61080081166115c6575b61100081166115aa575b612000811661158e575b6140008116611572575b6180008116611556575b62010000811661153a575b62020000811661151f575b620400008116611504575b62080000166114eb575b5f126114e3575b0160201c90565b5f19046114dc565b6b048a170391f7dc42444e8fa290910260801c906114d5565b6d2216e584f5fa1ea926041bedfe9890920260801c916114cb565b916e5d6af8dedb81196699c329225ee6040260801c916114c0565b916f09aa508b5b7a84e1c677de54f3e99bc90260801c916114b5565b916f31be135f97d08fd981231505542fcfa60260801c916114aa565b916f70d869a156d2a1b890bb3df62baf32f70260801c916114a0565b916fa9f746462d870fdf8a65dc1f90e061e50260801c91611496565b916fd097f3bdfd2022b8845ad8f792aa58250260801c9161148c565b916fe7159475a2c29b7443b29c7fa6e889d90260801c91611482565b916ff3392b0822b70005940c7a398e4b70f30260801c91611478565b916ff987a7253ac413176f2b074cf7815e540260801c9161146e565b916ffcbe86c7900a88aedcffc83b479aa3a40260801c91611464565b916ffe5dee046a99a2a811c461f1969c30530260801c9161145a565b916fff2ea16466c96a3843ec78b326b528610260801c91611451565b916fff973b41fa98c081472e6896dfb254c00260801c91611448565b916fffcb9843d60f6159c9db58835c9266440260801c9161143f565b916fffe5caca7e10e4e61c3624eaa0941cd00260801c91611436565b916ffff2e50f5f656932ef12357cf3c7fdcc0260801c9161142d565b916ffff97272373d413259a46990580e213a0260801c91611424565b826345c3193d60e11b5f5260045260245ffd5b6001600160a01b035f5416330361172057565b63118cdaa760e01b5f523360045260245ffd5b94939261176d939291926040519560268701526006860152600385015283525f603a600c8501209381604082015281602082015252611cee565b916006830180931161075f5760445f926001600160a01b039460405190602082019283526040820152604081526117a5606082610ea4565b5190206040519485938492631afeb18d60e11b8452600484015260036024840152165afa9081156107a9575f916117ec575b50602081015160408201516060909201519092565b90503d805f833e6117fd8183610ea4565b8101906020818303126101305780519067ffffffffffffffff821161013057019080601f830112156101305781519167ffffffffffffffff8311610e3b578260051b90604051936118516020840186610ea4565b845260208085019282010192831161013057602001905b828210611878575050505f6117d7565b8151815260209182019101611868565b92906118949084611dbd565b926001600160a01b03807f00000000000000000000000000000000000000000000000000000000000000001691816118cc8483611dbd565b95165f5216602052602060405f2060246040518094819363789add5560e11b835260048301525afa9081156107a9575f91611905575090565b90506020813d60201161192c575b8161192060209383610ea4565b81010312610130575190565b3d9150611913565b9192156119c4576001600160a01b037f000000000000000000000000000000000000000000000000000000000000000016803b1561013057604051637a94c56560e11b81526001600160a01b0392831660048201529290911660248301526044820192909252905f908290818381606481015b03925af180156107a9576119b85750565b5f6119c291610ea4565b565b91906001600160a01b031680611a525750604051630476982d60e21b81529150602090829060049082907f00000000000000000000000000000000000000000000000000000000000000006001600160a01b03165af180156107a957611a275750565b611a489060203d602011611a4b575b611a408183610ea4565b8101906113c4565b50565b503d611a36565b6001600160a01b037f00000000000000000000000000000000000000000000000000000000000000001691823b1561013057604051632961046560e21b8152600481018390525f9490858160248183895af180156107a957611bb2575b506001600160a01b031684308214611b57576020929160649160405195869485936323b872dd60e01b8552600485015288602485015260448401525af18015611b4c57916020918493611b2f575b505b600460405180958193630476982d60e21b83525af1908115611b235750611a275750565b604051903d90823e3d90fd5b611b4590833d85116113bd576113af8183610ea4565b505f611afd565b6040513d85823e3d90fd5b9290506044602092604051948593849263a9059cbb60e01b845288600485015260248401525af18015611b4c57916020918493611b95575b50611aff565b611bab90833d85116113bd576113af8183610ea4565b505f611b8f565b611bbf9195505f90610ea4565b5f936001600160a01b03611aaf565b919215611c45576001600160a01b037f000000000000000000000000000000000000000000000000000000000000000016803b1561013057604051630ab714fb60e11b81526001600160a01b0392831660048201529290911660248301526044820192909252905f908290818381606481016119a7565b916001600160a01b037f000000000000000000000000000000000000000000000000000000000000000016803b15610130575f92836064926001600160a01b0394856040519889978896630b0d9c0960e01b885216600487015216602485015260448401525af180156107a9576119b85750565b3d60405191638549db5960e01b8352600483015260406024830152806044830152805f606484013e601f801991011660640190fd5b604051602081019182526006604082015260408152611d0e606082610ea4565b51902090565b906001600160a01b03809116911603906001600160a01b03821161075f57565b916001600160a01b03611d58611d6494611d5f9483811684831611611d6757611d14565b1690611e0a565b611f5b565b90565b90611d14565b91611d5f91611d64936001600160a01b0382166001600160a01b03821611611db7575b611db06001600160a01b0391611daa838516848316611e92565b93611d14565b1691611edb565b90611d90565b6001600160a01b031680611dd057503190565b6040516370a0823160e01b81526001600160a01b039092166004830152602090829060249082905afa9081156107a9575f91611905575090565b908160601b905f19600160601b8409928280851094039380850394858411156101305714611e8b57600160601b82910981805f03168092046002816003021880820260020302808202600203028082026002030280820260020302808202600203028091026002030293600183805f03040190848311900302920304170290565b5091500490565b81810291905f1982820991838084109303928084039384600160601b11156101305714611ed257600160601b910990828211900360a01b910360601c1790565b50505060601c90565b91818302915f19818509938380861095039480860395868511156101305714611f53579082910981805f03168092046002816003021880820260020302808202600203028082026002030280820260020302808202600203028091026002030293600183805f03040190848311900302920304170290565b505091500490565b906001600160801b038216918203611f6f57565b60405162461bcd60e51b815260206004820152601260248201527f6c6971756964697479206f766572666c6f7700000000000000000000000000006044820152606490fdfea26469706673582212205ff5aa450a53db865c84277403b78c59230f75a01d86e2e6fcd57fa70fea893364736f6c634300081a0033","linkReferences":{}},"methodIdentifiers":{"calculateLiquidityDelta((address,address,uint24,int24,address),int24,int24,uint256,uint256)":"1b410455","isExpectedRule(uint256)":"9263aeff","manager()":"481c6a75","modifyLiquidity((address,address,uint24,int24,address),(int24,int24,int256,bytes32),bytes)":"5a6bcfda","modifyLiquidity((address,address,uint24,int24,address),(int24,int24,int256,bytes32),bytes,bool,bool)":"0a5b11e4","owner()":"8da5cb5b","renounceOwnership()":"715018a6","setExpectedRuleIds(uint256[])":"ddf11005","transferOwnership(address)":"f2fde38b","unlockCallback(bytes)":"91dd7346","unsetExpectedRuleId(uint256[])":"823226a4","verifier()":"2b7ac3f3"},"id":119}