{"abi":[{"type":"function","name":"DOMAIN_SEPARATOR","inputs":[],"outputs":[{"name":"","type":"bytes32","internalType":"bytes32"}],"stateMutability":"view"},{"type":"function","name":"allowance","inputs":[{"name":"owner","type":"address","internalType":"address"},{"name":"spender","type":"address","internalType":"address"}],"outputs":[{"name":"","type":"uint256","internalType":"uint256"}],"stateMutability":"view"},{"type":"function","name":"approve","inputs":[{"name":"spender","type":"address","internalType":"address"},{"name":"amount","type":"uint256","internalType":"uint256"}],"outputs":[{"name":"","type":"bool","internalType":"bool"}],"stateMutability":"nonpayable"},{"type":"function","name":"balanceOf","inputs":[{"name":"account","type":"address","internalType":"address"}],"outputs":[{"name":"","type":"uint256","internalType":"uint256"}],"stateMutability":"view"},{"type":"function","name":"burn","inputs":[{"name":"account","type":"address","internalType":"address"},{"name":"amount","type":"uint256","internalType":"uint256"}],"outputs":[],"stateMutability":"nonpayable"},{"type":"function","name":"checkpoints","inputs":[{"name":"account","type":"address","internalType":"address"},{"name":"pos","type":"uint32","internalType":"uint32"}],"outputs":[{"name":"","type":"tuple","internalType":"struct ERC20VotesUpgradeable.Checkpoint","components":[{"name":"fromBlock","type":"uint32","internalType":"uint32"},{"name":"votes","type":"uint224","internalType":"uint224"}]}],"stateMutability":"view"},{"type":"function","name":"decimals","inputs":[],"outputs":[{"name":"","type":"uint8","internalType":"uint8"}],"stateMutability":"view"},{"type":"function","name":"decreaseAllowance","inputs":[{"name":"spender","type":"address","internalType":"address"},{"name":"subtractedValue","type":"uint256","internalType":"uint256"}],"outputs":[{"name":"","type":"bool","internalType":"bool"}],"stateMutability":"nonpayable"},{"type":"function","name":"delegate","inputs":[{"name":"delegatee","type":"address","internalType":"address"}],"outputs":[],"stateMutability":"nonpayable"},{"type":"function","name":"delegateBySig","inputs":[{"name":"delegatee","type":"address","internalType":"address"},{"name":"nonce","type":"uint256","internalType":"uint256"},{"name":"expiry","type":"uint256","internalType":"uint256"},{"name":"v","type":"uint8","internalType":"uint8"},{"name":"r","type":"bytes32","internalType":"bytes32"},{"name":"s","type":"bytes32","internalType":"bytes32"}],"outputs":[],"stateMutability":"nonpayable"},{"type":"function","name":"delegates","inputs":[{"name":"account","type":"address","internalType":"address"}],"outputs":[{"name":"","type":"address","internalType":"address"}],"stateMutability":"view"},{"type":"function","name":"getChainId","inputs":[],"outputs":[{"name":"","type":"uint256","internalType":"uint256"}],"stateMutability":"view"},{"type":"function","name":"getPastTotalSupply","inputs":[{"name":"blockNumber","type":"uint256","internalType":"uint256"}],"outputs":[{"name":"","type":"uint256","internalType":"uint256"}],"stateMutability":"view"},{"type":"function","name":"getPastVotes","inputs":[{"name":"account","type":"address","internalType":"address"},{"name":"blockNumber","type":"uint256","internalType":"uint256"}],"outputs":[{"name":"","type":"uint256","internalType":"uint256"}],"stateMutability":"view"},{"type":"function","name":"getVotes","inputs":[{"name":"account","type":"address","internalType":"address"}],"outputs":[{"name":"","type":"uint256","internalType":"uint256"}],"stateMutability":"view"},{"type":"function","name":"increaseAllowance","inputs":[{"name":"spender","type":"address","internalType":"address"},{"name":"addedValue","type":"uint256","internalType":"uint256"}],"outputs":[{"name":"","type":"bool","internalType":"bool"}],"stateMutability":"nonpayable"},{"type":"function","name":"mint","inputs":[{"name":"account","type":"address","internalType":"address"},{"name":"amount","type":"uint256","internalType":"uint256"}],"outputs":[],"stateMutability":"nonpayable"},{"type":"function","name":"name","inputs":[],"outputs":[{"name":"","type":"string","internalType":"string"}],"stateMutability":"view"},{"type":"function","name":"nonces","inputs":[{"name":"owner","type":"address","internalType":"address"}],"outputs":[{"name":"","type":"uint256","internalType":"uint256"}],"stateMutability":"view"},{"type":"function","name":"numCheckpoints","inputs":[{"name":"account","type":"address","internalType":"address"}],"outputs":[{"name":"","type":"uint32","internalType":"uint32"}],"stateMutability":"view"},{"type":"function","name":"permit","inputs":[{"name":"owner","type":"address","internalType":"address"},{"name":"spender","type":"address","internalType":"address"},{"name":"value","type":"uint256","internalType":"uint256"},{"name":"deadline","type":"uint256","internalType":"uint256"},{"name":"v","type":"uint8","internalType":"uint8"},{"name":"r","type":"bytes32","internalType":"bytes32"},{"name":"s","type":"bytes32","internalType":"bytes32"}],"outputs":[],"stateMutability":"nonpayable"},{"type":"function","name":"symbol","inputs":[],"outputs":[{"name":"","type":"string","internalType":"string"}],"stateMutability":"view"},{"type":"function","name":"totalSupply","inputs":[],"outputs":[{"name":"","type":"uint256","internalType":"uint256"}],"stateMutability":"view"},{"type":"function","name":"transfer","inputs":[{"name":"recipient","type":"address","internalType":"address"},{"name":"amount","type":"uint256","internalType":"uint256"}],"outputs":[{"name":"","type":"bool","internalType":"bool"}],"stateMutability":"nonpayable"},{"type":"function","name":"transferFrom","inputs":[{"name":"sender","type":"address","internalType":"address"},{"name":"recipient","type":"address","internalType":"address"},{"name":"amount","type":"uint256","internalType":"uint256"}],"outputs":[{"name":"","type":"bool","internalType":"bool"}],"stateMutability":"nonpayable"},{"type":"event","name":"Approval","inputs":[{"name":"owner","type":"address","indexed":true,"internalType":"address"},{"name":"spender","type":"address","indexed":true,"internalType":"address"},{"name":"value","type":"uint256","indexed":false,"internalType":"uint256"}],"anonymous":false},{"type":"event","name":"DelegateChanged","inputs":[{"name":"delegator","type":"address","indexed":true,"internalType":"address"},{"name":"fromDelegate","type":"address","indexed":true,"internalType":"address"},{"name":"toDelegate","type":"address","indexed":true,"internalType":"address"}],"anonymous":false},{"type":"event","name":"DelegateVotesChanged","inputs":[{"name":"delegate","type":"address","indexed":true,"internalType":"address"},{"name":"previousBalance","type":"uint256","indexed":false,"internalType":"uint256"},{"name":"newBalance","type":"uint256","indexed":false,"internalType":"uint256"}],"anonymous":false},{"type":"event","name":"Transfer","inputs":[{"name":"from","type":"address","indexed":true,"internalType":"address"},{"name":"to","type":"address","indexed":true,"internalType":"address"},{"name":"value","type":"uint256","indexed":false,"internalType":"uint256"}],"anonymous":false}],"bytecode":{"object":"0x60808060405234601557611c67908161001a8239f35b5f80fdfe6080806040526004361015610012575f80fd5b5f3560e01c90816306fdde031461108457508063095ea7b31461105e57806318160ddd1461104157806323b872dd14610f68578063313ce56714610f4d5780633408e47014610f335780633644e51514610f115780633950935114610ec25780633a46b1a814610deb57806340c10f1914610c16578063587cde1e14610bd55780635c19a95c14610bb35780636fcfff4514610b6d57806370a0823114610b355780637ecebe0014610afd5780638e539e8c14610a1757806395d89b41146109135780639ab24eb0146108995780639dc29fac146105c5578063a457c2d714610509578063a9059cbb146104d8578063c3cda5201461037b578063d505accf1461021b578063dd62ed3e146101c75763f1127ed81461012f575f80fd5b346101c35760403660031901126101c357610148611166565b6024359063ffffffff821682036101c3576040916001600160a01b0361018b925f6020865161017681611192565b8281520152165f5260cd602052825f20611236565b506001600160e01b038251916101a083611192565b54602063ffffffff821693848152019060201c8152835192835251166020820152f35b5f80fd5b346101c35760403660031901126101c3576101e0611166565b6001600160a01b036101f061117c565b91165f5260346020526001600160a01b0360405f2091165f52602052602060405f2054604051908152f35b346101c35760e03660031901126101c357610234611166565b61023c61117c565b6044359060843560643560ff821682036101c357804211610336576102e06001600160a01b0391609a549061028b886001600160a01b03165f52609960205260405f2090815491600183019055565b946040519160208301938452858a1696876040850152868916606085015289608085015260a084015260c083015260c082526102c860e0836111ae565b6102db60c4359360a435935190206116c3565b6116f6565b16036102f1576102ef9261125f565b005b60405162461bcd60e51b815260206004820152601e60248201527f45524332305065726d69743a20696e76616c6964207369676e617475726500006044820152606490fd5b60405162461bcd60e51b815260206004820152601d60248201527f45524332305065726d69743a206578706972656420646561646c696e650000006044820152606490fd5b346101c35760c03660031901126101c357610394611166565b6024359060643560443560ff821682036101c3578042116104935761041b916040519060208201927fe48329057bfd03d55e49b547132e39cffd9c1820ad7b9d4c5307691425d15adf84526001600160a01b038616604084015286606084015260808301526080825261040860a0836111ae565b6102db60a43593608435935190206116c3565b91610440836001600160a01b03165f52609960205260405f2090815491600183019055565b0361044e576102ef916115a7565b60405162461bcd60e51b815260206004820152601960248201527f4552433230566f7465733a20696e76616c6964206e6f6e6365000000000000006044820152606490fd5b60405162461bcd60e51b815260206004820152601d60248201527f4552433230566f7465733a207369676e617475726520657870697265640000006044820152606490fd5b346101c35760403660031901126101c3576104fe6104f4611166565b6024359033611363565b602060405160018152f35b346101c35760403660031901126101c357610522611166565b60243590335f52603460205260405f206001600160a01b0382165f5260205260405f20549180831061055a576104fe9203903361125f565b60405162461bcd60e51b815260206004820152602560248201527f45524332303a2064656372656173656420616c6c6f77616e63652062656c6f7760448201527f207a65726f0000000000000000000000000000000000000000000000000000006064820152608490fd5b346101c35760403660031901126101c3576105de611166565b6001600160a01b036024359116801561084a57805f52603360205260405f20548281106107fa578290825f5260336020520360405f205561062182603554611229565b6035555f817fddf252ad1be2c89b69c2b068fc378daa952ba7f163c4a11628f55a4df523b3ef6020604051868152a35f5260cc602052610685816001600160a01b0360405f2054165f805260cc6020526001600160a01b0360405f20541690611868565b60ce549081159081156107ce576106a6906001600160e01b035f5b16611229565b9015806107a8575b15610701576106bc90611bac565b5f1982019182116106ed576106d56102ef9260ce611236565b509063ffffffff82549181199060201b169116179055565b634e487b7160e01b5f52601160045260245ffd5b61071361070d43611644565b91611bac565b9163ffffffff6040519261072684611192565b1682526001600160e01b036020830193168352680100000000000000008110156107945780600161075c920160ce5560ce611236565b9190916107815751915160201b63ffffffff191663ffffffff92909216919091179055005b634e487b7160e01b5f525f60045260245ffd5b634e487b7160e01b5f52604160045260245ffd5b505f1982018281116106ed576107c463ffffffff9160ce611236565b50541643146106ae565b5f198301908382116106ed576001600160e01b036107f06106a69360ce611236565b505460201c6106a0565b60405162461bcd60e51b815260206004820152602260248201527f45524332303a206275726e20616d6f756e7420657863656564732062616c616e604482015261636560f01b6064820152608490fd5b60405162461bcd60e51b815260206004820152602160248201527f45524332303a206275726e2066726f6d20746865207a65726f206164647265736044820152607360f81b6064820152608490fd5b346101c35760203660031901126101c3576001600160a01b036108ba611166565b16805f5260cd60205260405f20549081155f146108e857505060205f5b6001600160e01b0360405191168152f35b5f5260cd60205260405f205f1982019182116106ed5760209161090a91611236565b5054811c6108d7565b346101c3575f3660031901126101c3576040515f6037548060011c90600181168015610a0d575b6020831081146109f9578285529081156109d55750600114610977575b61097383610967818503826111ae565b6040519182918261113c565b0390f35b91905060375f527f42a7b7dd785cd69714a189dffb3fd7d7174edc9ece837694ce50f7078f7c31ae915f905b8082106109bb57509091508101602001610967610957565b9192600181602092548385880101520191019092916109a3565b60ff191660208086019190915291151560051b840190910191506109679050610957565b634e487b7160e01b5f52602260045260245ffd5b91607f169161093a565b346101c35760203660031901126101c357600435610a364382106111dd565b60ce54905f905b828210610a89578280610a60575060206001600160e01b035f5b16604051908152f35b5f1981019081116106ed576001600160e01b03610a8060209260ce611236565b5054821c610a57565b9091610ab7610a9e8260011c8560011c6111d0565b610aae60018416600187166111d0565b60011c906111d0565b908263ffffffff610ac98460ce611236565b5054161115610adb5750915b90610a3d565b92506001810180911115610ad557634e487b7160e01b5f52601160045260245ffd5b346101c35760203660031901126101c3576001600160a01b03610b1e611166565b165f526099602052602060405f2054604051908152f35b346101c35760203660031901126101c3576001600160a01b03610b56611166565b165f526033602052602060405f2054604051908152f35b346101c35760203660031901126101c3576001600160a01b03610b8e611166565b165f5260cd6020526020610ba560405f2054611644565b63ffffffff60405191168152f35b346101c35760203660031901126101c3576102ef610bcf611166565b336115a7565b346101c35760203660031901126101c3576001600160a01b03610bf6611166565b165f5260cc60205260206001600160a01b0360405f205416604051908152f35b346101c35760403660031901126101c357610c2f611166565b6001600160a01b0360243591168015610da65781610cde91610c53826035546111d0565b603555805f52603360205260405f20610c6d8382546111d0565b9055805f7fddf252ad1be2c89b69c2b068fc378daa952ba7f163c4a11628f55a4df523b3ef6020604051868152a360cc6020527f435daec636ce435a90bde0aeec309a303a359a854c5a51b7d6a5a941d6db6094545f9182526040909120546001600160a01b039081169116611868565b6001600160e01b0360355411610d3b5760ce54908115908115610d0f576106a6906001600160e01b035f5b166111d0565b5f198301908382116106ed576001600160e01b03610d316106a69360ce611236565b505460201c610d09565b60405162461bcd60e51b815260206004820152603060248201527f4552433230566f7465733a20746f74616c20737570706c79207269736b73206f60448201527f766572666c6f77696e6720766f746573000000000000000000000000000000006064820152608490fd5b60405162461bcd60e51b815260206004820152601f60248201527f45524332303a206d696e7420746f20746865207a65726f2061646472657373006044820152606490fd5b346101c35760403660031901126101c357610e04611166565b6001600160a01b0360243591610e1b4384106111dd565b165f5260cd60205260405f20908154905f905b828210610e6857505080610e495750506040515f8152602090f35b5f1981019081116106ed57610a806001600160e01b0391602093611236565b9091610e7d610a9e8260011c8560011c6111d0565b908263ffffffff610e8e8488611236565b5054161115610ea05750915b90610e2e565b92506001810180911115610e9a57634e487b7160e01b5f52601160045260245ffd5b346101c35760403660031901126101c3576104fe610ede611166565b335f52603460205260405f206001600160a01b0382165f52602052610f0a60405f2060243590546111d0565b903361125f565b346101c3575f3660031901126101c3576020610f2b61154a565b604051908152f35b346101c3575f3660031901126101c3576020604051468152f35b346101c3575f3660031901126101c357602060405160128152f35b346101c35760603660031901126101c357610f81611166565b610f8961117c565b90610f98604435809383611363565b6001600160a01b0381165f52603460205260405f206001600160a01b0333165f5260205260405f205491808310610fd6576104fe920390339061125f565b60405162461bcd60e51b815260206004820152602860248201527f45524332303a207472616e7366657220616d6f756e742065786365656473206160448201527f6c6c6f77616e63650000000000000000000000000000000000000000000000006064820152608490fd5b346101c3575f3660031901126101c3576020603554604051908152f35b346101c35760403660031901126101c3576104fe61107a611166565b602435903361125f565b346101c3575f3660031901126101c3575f6036548060011c90600181168015611132575b6020831081146109f9578285529081156109d557506001146110d45761097383610967818503826111ae565b91905060365f527f4a11f94e20a93c79f6ec743a1954ec4fc2c08429ae2122118bf234b2185c81b8915f905b80821061111857509091508101602001610967610957565b919260018160209254838588010152019101909291611100565b91607f16916110a8565b602060409281835280519182918282860152018484015e5f828201840152601f01601f1916010190565b600435906001600160a01b03821682036101c357565b602435906001600160a01b03821682036101c357565b6040810190811067ffffffffffffffff82111761079457604052565b90601f8019910116810190811067ffffffffffffffff82111761079457604052565b919082018092116106ed57565b156111e457565b60405162461bcd60e51b815260206004820152601f60248201527f4552433230566f7465733a20626c6f636b206e6f7420796574206d696e6564006044820152606490fd5b919082039182116106ed57565b805482101561124b575f5260205f2001905f90565b634e487b7160e01b5f52603260045260245ffd5b6001600160a01b0316908115611312576001600160a01b03169182156112c25760207f8c5be1e5ebec7d5bd14f71427d1e84f3dd0314c0f7b2291e5b200ac8c7c3b92591835f526034825260405f20855f5282528060405f2055604051908152a3565b60405162461bcd60e51b815260206004820152602260248201527f45524332303a20617070726f766520746f20746865207a65726f206164647265604482015261737360f01b6064820152608490fd5b60405162461bcd60e51b8152602060048201526024808201527f45524332303a20617070726f76652066726f6d20746865207a65726f206164646044820152637265737360e01b6064820152608490fd5b6001600160a01b0316919082156114df576001600160a01b0316801561148e57825f52603360205260405f205492828410611423578261142194825f5260336020520360405f2055815f52603360205260405f206113c28482546111d0565b905581817fddf252ad1be2c89b69c2b068fc378daa952ba7f163c4a11628f55a4df523b3ef6020604051878152a35f5260cc6020526001600160a01b0360405f205416905f5260cc6020526001600160a01b0360405f20541690611868565b565b60405162461bcd60e51b815260206004820152602660248201527f45524332303a207472616e7366657220616d6f756e742065786365656473206260448201527f616c616e636500000000000000000000000000000000000000000000000000006064820152608490fd5b60405162461bcd60e51b815260206004820152602360248201527f45524332303a207472616e7366657220746f20746865207a65726f206164647260448201526265737360e81b6064820152608490fd5b60405162461bcd60e51b815260206004820152602560248201527f45524332303a207472616e736665722066726f6d20746865207a65726f20616460448201527f64726573730000000000000000000000000000000000000000000000000000006064820152608490fd5b6065546066546040519060208201927f8b73c3c69bb8fe3d512ecc4cf759cc79239f7b179b0ffacaa9a75d522b39400f8452604083015260608201524660808201523060a082015260a081526115a160c0826111ae565b51902090565b906001600160a01b03611421921690815f5260cc6020526001600160a01b0360405f205416825f52603360205260405f205492805f5260cc6020528160405f20916001600160a01b03851692837fffffffffffffffffffffffff00000000000000000000000000000000000000008254161790557f3134e8a2e6d97e929a7e54011ea5485d7d196dd5f0ba4d4ef95803e8e3fc257f5f80a4611868565b63ffffffff81116116585763ffffffff1690565b60405162461bcd60e51b815260206004820152602660248201527f53616665436173743a2076616c756520646f65736e27742066697420696e203360448201527f32206269747300000000000000000000000000000000000000000000000000006064820152608490fd5b6116cb61154a565b9060405190602082019261190160f01b845260228301526042820152604281526115a16062826111ae565b907f7fffffffffffffffffffffffffffffff5d576e7357a4501ddfe92f46681b20a084116118185760ff1690601b8214801561180e575b156117be576020935f93608093604051938452868401526040830152606082015282805260015afa156117b3575f516001600160a01b0381161561176e5790565b60405162461bcd60e51b815260206004820152601860248201527f45434453413a20696e76616c6964207369676e617475726500000000000000006044820152606490fd5b6040513d5f823e3d90fd5b60405162461bcd60e51b815260206004820152602260248201527f45434453413a20696e76616c6964207369676e6174757265202776272076616c604482015261756560f01b6064820152608490fd5b50601c821461172d565b60405162461bcd60e51b815260206004820152602260248201527f45434453413a20696e76616c6964207369676e6174757265202773272076616c604482015261756560f01b6064820152608490fd5b6001600160a01b039182169291168083141580611ba3575b61188957505050565b80611a1d575b5081611899575050565b815f5260cd60205260405f208054918215805f146119f3576118c66001600160e01b035f5b1692836111d0565b9015806119ce575b15611926576118dc81611bac565b935f1981019081116106ed577fdec2bacdd2f05b59de34da9b523dff8be42e5e38e818c82fdb0bae774387a724946106d561191992604096611236565b82519182526020820152a2565b61192f43611644565b9261193982611bac565b9463ffffffff6040519561194c87611192565b1685526001600160e01b036020860196168652680100000000000000008110156107945761197f91600182018155611236565b949094610781579251925160201b63ffffffff191663ffffffff93909316929092179092557fdec2bacdd2f05b59de34da9b523dff8be42e5e38e818c82fdb0bae774387a72491604091611919565b505f1984018481116106ed576119e963ffffffff9185611236565b50541643146118ce565b5f1984018481116106ed576001600160e01b03611a136118c69286611236565b505460201c6118be565b805f5260cd60205260405f208054908115805f14611b7c576001600160e01b035f5b1690611a4b8683611229565b901580611b57575b15611aaf57611a6181611bac565b935f1981019081116106ed577fdec2bacdd2f05b59de34da9b523dff8be42e5e38e818c82fdb0bae774387a724946106d5611a9e92604096611236565b82519182526020820152a25f61188f565b611ab843611644565b92611ac282611bac565b9463ffffffff60405195611ad587611192565b1685526001600160e01b0360208601961686526801000000000000000081101561079457611b0891600182018155611236565b949094610781579251925160201b63ffffffff191663ffffffff93909316929092179092557fdec2bacdd2f05b59de34da9b523dff8be42e5e38e818c82fdb0bae774387a72491604091611a9e565b505f1984018481116106ed57611b7263ffffffff9185611236565b5054164314611a53565b5f1983018381116106ed57611b996001600160e01b039184611236565b505460201c611a3f565b50811515611880565b6001600160e01b038111611bc6576001600160e01b031690565b60405162461bcd60e51b815260206004820152602760248201527f53616665436173743a2076616c756520646f65736e27742066697420696e203260448201527f32342062697473000000000000000000000000000000000000000000000000006064820152608490fdfea26469706673582212209f425eb3fecf6b26ff8c16e57a16de2d079d1c187252e37d0d3d924ef309ac8e64736f6c634300081a0033","linkReferences":{}},"methodIdentifiers":{"DOMAIN_SEPARATOR()":"3644e515","allowance(address,address)":"dd62ed3e","approve(address,uint256)":"095ea7b3","balanceOf(address)":"70a08231","burn(address,uint256)":"9dc29fac","checkpoints(address,uint32)":"f1127ed8","decimals()":"313ce567","decreaseAllowance(address,uint256)":"a457c2d7","delegate(address)":"5c19a95c","delegateBySig(address,uint256,uint256,uint8,bytes32,bytes32)":"c3cda520","delegates(address)":"587cde1e","getChainId()":"3408e470","getPastTotalSupply(uint256)":"8e539e8c","getPastVotes(address,uint256)":"3a46b1a8","getVotes(address)":"9ab24eb0","increaseAllowance(address,uint256)":"39509351","mint(address,uint256)":"40c10f19","name()":"06fdde03","nonces(address)":"7ecebe00","numCheckpoints(address)":"6fcfff45","permit(address,address,uint256,uint256,uint8,bytes32,bytes32)":"d505accf","symbol()":"95d89b41","totalSupply()":"18160ddd","transfer(address,uint256)":"a9059cbb","transferFrom(address,address,uint256)":"23b872dd"},"id":350}