{"abi":[{"type":"function","name":"allowance","inputs":[{"name":"owner","type":"address","internalType":"address"},{"name":"spender","type":"address","internalType":"address"}],"outputs":[{"name":"","type":"uint256","internalType":"uint256"}],"stateMutability":"view"},{"type":"function","name":"approve","inputs":[{"name":"spender","type":"address","internalType":"address"},{"name":"amount","type":"uint256","internalType":"uint256"}],"outputs":[{"name":"","type":"bool","internalType":"bool"}],"stateMutability":"nonpayable"},{"type":"function","name":"balanceOf","inputs":[{"name":"account","type":"address","internalType":"address"}],"outputs":[{"name":"","type":"uint256","internalType":"uint256"}],"stateMutability":"view"},{"type":"function","name":"burn","inputs":[{"name":"from","type":"address","internalType":"address"},{"name":"amount","type":"uint256","internalType":"uint256"}],"outputs":[],"stateMutability":"nonpayable"},{"type":"function","name":"decimals","inputs":[],"outputs":[{"name":"","type":"uint8","internalType":"uint8"}],"stateMutability":"view"},{"type":"function","name":"decreaseAllowance","inputs":[{"name":"spender","type":"address","internalType":"address"},{"name":"subtractedValue","type":"uint256","internalType":"uint256"}],"outputs":[{"name":"","type":"bool","internalType":"bool"}],"stateMutability":"nonpayable"},{"type":"function","name":"increaseAllowance","inputs":[{"name":"spender","type":"address","internalType":"address"},{"name":"addedValue","type":"uint256","internalType":"uint256"}],"outputs":[{"name":"","type":"bool","internalType":"bool"}],"stateMutability":"nonpayable"},{"type":"function","name":"mint","inputs":[{"name":"to","type":"address","internalType":"address"},{"name":"amount","type":"uint256","internalType":"uint256"}],"outputs":[],"stateMutability":"nonpayable"},{"type":"function","name":"name","inputs":[],"outputs":[{"name":"","type":"string","internalType":"string"}],"stateMutability":"view"},{"type":"function","name":"pause","inputs":[],"outputs":[],"stateMutability":"nonpayable"},{"type":"function","name":"paused","inputs":[],"outputs":[{"name":"","type":"bool","internalType":"bool"}],"stateMutability":"view"},{"type":"function","name":"symbol","inputs":[],"outputs":[{"name":"","type":"string","internalType":"string"}],"stateMutability":"view"},{"type":"function","name":"totalSupply","inputs":[],"outputs":[{"name":"","type":"uint256","internalType":"uint256"}],"stateMutability":"view"},{"type":"function","name":"transfer","inputs":[{"name":"recipient","type":"address","internalType":"address"},{"name":"amount","type":"uint256","internalType":"uint256"}],"outputs":[{"name":"","type":"bool","internalType":"bool"}],"stateMutability":"nonpayable"},{"type":"function","name":"transferFrom","inputs":[{"name":"sender","type":"address","internalType":"address"},{"name":"recipient","type":"address","internalType":"address"},{"name":"amount","type":"uint256","internalType":"uint256"}],"outputs":[{"name":"","type":"bool","internalType":"bool"}],"stateMutability":"nonpayable"},{"type":"function","name":"unpause","inputs":[],"outputs":[],"stateMutability":"nonpayable"},{"type":"event","name":"Approval","inputs":[{"name":"owner","type":"address","indexed":true,"internalType":"address"},{"name":"spender","type":"address","indexed":true,"internalType":"address"},{"name":"value","type":"uint256","indexed":false,"internalType":"uint256"}],"anonymous":false},{"type":"event","name":"Paused","inputs":[{"name":"account","type":"address","indexed":false,"internalType":"address"}],"anonymous":false},{"type":"event","name":"Transfer","inputs":[{"name":"from","type":"address","indexed":true,"internalType":"address"},{"name":"to","type":"address","indexed":true,"internalType":"address"},{"name":"value","type":"uint256","indexed":false,"internalType":"uint256"}],"anonymous":false},{"type":"event","name":"Unpaused","inputs":[{"name":"account","type":"address","indexed":false,"internalType":"address"}],"anonymous":false}],"bytecode":{"object":"0x60808060405234601557610ce3908161001a8239f35b5f80fdfe6080806040526004361015610012575f80fd5b5f3560e01c90816306fdde03146108be57508063095ea7b31461089857806318160ddd1461087b57806323b872dd146107a2578063313ce5671461078757806339509351146107385780633f4ba83a146106a457806340c10f19146105d55780635c975abb146105b357806370a082311461057b5780638456cb59146104e457806395d89b41146103c95780639dc29fac14610211578063a457c2d714610155578063a9059cbb146101245763dd62ed3e146100cc575f80fd5b34610120576040366003190112610120576100e56109b7565b6001600160a01b036100f56109cd565b91165f5260346020526001600160a01b0360405f2091165f52602052602060405f2054604051908152f35b5f80fd5b346101205760403660031901126101205761014a6101406109b7565b6024359033610af4565b602060405160018152f35b346101205760403660031901126101205761016e6109b7565b60243590335f52603460205260405f206001600160a01b0382165f5260205260405f2054918083106101a65761014a920390336109f0565b60405162461bcd60e51b815260206004820152602560248201527f45524332303a2064656372656173656420616c6c6f77616e63652062656c6f7760448201527f207a65726f0000000000000000000000000000000000000000000000000000006064820152608490fd5b346101205760403660031901126101205761022a6109b7565b6001600160a01b036024359116801561037a5760ff6065541661030f57805f52603360205260405f20548281106102bf578290825f5260336020520360405f2055603554918083039283116102ab5760207fddf252ad1be2c89b69c2b068fc378daa952ba7f163c4a11628f55a4df523b3ef915f94603555604051908152a3005b634e487b7160e01b5f52601160045260245ffd5b60405162461bcd60e51b815260206004820152602260248201527f45524332303a206275726e20616d6f756e7420657863656564732062616c616e604482015261636560f01b6064820152608490fd5b60405162461bcd60e51b815260206004820152602a60248201527f45524332305061757361626c653a20746f6b656e207472616e7366657220776860448201527f696c6520706175736564000000000000000000000000000000000000000000006064820152608490fd5b60405162461bcd60e51b815260206004820152602160248201527f45524332303a206275726e2066726f6d20746865207a65726f206164647265736044820152607360f81b6064820152608490fd5b34610120575f366003190112610120576040515f6037548060011c906001811680156104da575b6020831081146104c6578285529081156104aa5750600114610455575b50819003601f01601f191681019067ffffffffffffffff8211818310176104415761043d8291826040528261098d565b0390f35b634e487b7160e01b5f52604160045260245ffd5b905060375f527f42a7b7dd785cd69714a189dffb3fd7d7174edc9ece837694ce50f7078f7c31ae5f905b8282106104945750602091508201018261040d565b600181602092548385880101520191019061047f565b90506020925060ff191682840152151560051b8201018261040d565b634e487b7160e01b5f52602260045260245ffd5b91607f16916103f0565b34610120575f3660031901126101205760655460ff81166105365760019060ff1916176065557f62e78cea01bee320cd4e420270b5ea74000d11b0c9f74754ebdbfc544b05a2586020604051338152a1005b60405162461bcd60e51b815260206004820152601060248201527f5061757361626c653a20706175736564000000000000000000000000000000006044820152606490fd5b34610120576020366003190112610120576001600160a01b0361059c6109b7565b165f526033602052602060405f2054604051908152f35b34610120575f36600319011261012057602060ff606554166040519015158152f35b34610120576040366003190112610120576105ee6109b7565b6001600160a01b0316602435811561065f5760ff6065541661030f577fddf252ad1be2c89b69c2b068fc378daa952ba7f163c4a11628f55a4df523b3ef60208261063b5f946035546109e3565b60355584845260338252604084206106548282546109e3565b9055604051908152a3005b60405162461bcd60e51b815260206004820152601f60248201527f45524332303a206d696e7420746f20746865207a65726f2061646472657373006044820152606490fd5b34610120575f3660031901126101205760655460ff8116156106f35760ff19166065557f5db9ee0a495bf2e6ff9c91a7834c1ba4fdd244a5e8aa4e537bd38aeae4b073aa6020604051338152a1005b60405162461bcd60e51b815260206004820152601460248201527f5061757361626c653a206e6f74207061757365640000000000000000000000006044820152606490fd5b346101205760403660031901126101205761014a6107546109b7565b335f52603460205260405f206001600160a01b0382165f5260205261078060405f2060243590546109e3565b90336109f0565b34610120575f36600319011261012057602060405160128152f35b34610120576060366003190112610120576107bb6109b7565b6107c36109cd565b906107d2604435809383610af4565b6001600160a01b0381165f52603460205260405f206001600160a01b0333165f5260205260405f2054918083106108105761014a92039033906109f0565b60405162461bcd60e51b815260206004820152602860248201527f45524332303a207472616e7366657220616d6f756e742065786365656473206160448201527f6c6c6f77616e63650000000000000000000000000000000000000000000000006064820152608490fd5b34610120575f366003190112610120576020603554604051908152f35b346101205760403660031901126101205761014a6108b46109b7565b60243590336109f0565b34610120575f366003190112610120575f6036548060011c90600181168015610983575b6020831081146104c6578285529081156104aa575060011461092e5750819003601f01601f191681019067ffffffffffffffff8211818310176104415761043d8291826040528261098d565b905060365f527f4a11f94e20a93c79f6ec743a1954ec4fc2c08429ae2122118bf234b2185c81b85f905b82821061096d5750602091508201018261040d565b6001816020925483858801015201910190610958565b91607f16916108e2565b602060409281835280519182918282860152018484015e5f828201840152601f01601f1916010190565b600435906001600160a01b038216820361012057565b602435906001600160a01b038216820361012057565b919082018092116102ab57565b6001600160a01b0316908115610aa3576001600160a01b0316918215610a535760207f8c5be1e5ebec7d5bd14f71427d1e84f3dd0314c0f7b2291e5b200ac8c7c3b92591835f526034825260405f20855f5282528060405f2055604051908152a3565b60405162461bcd60e51b815260206004820152602260248201527f45524332303a20617070726f766520746f20746865207a65726f206164647265604482015261737360f01b6064820152608490fd5b60405162461bcd60e51b8152602060048201526024808201527f45524332303a20617070726f76652066726f6d20746865207a65726f206164646044820152637265737360e01b6064820152608490fd5b6001600160a01b0316908115610c42576001600160a01b0316918215610bf15760ff6065541661030f57815f52603360205260405f2054818110610b8657817fddf252ad1be2c89b69c2b068fc378daa952ba7f163c4a11628f55a4df523b3ef92602092855f52603384520360405f2055845f526033825260405f20610b7b8282546109e3565b9055604051908152a3565b60405162461bcd60e51b815260206004820152602660248201527f45524332303a207472616e7366657220616d6f756e742065786365656473206260448201527f616c616e636500000000000000000000000000000000000000000000000000006064820152608490fd5b60405162461bcd60e51b815260206004820152602360248201527f45524332303a207472616e7366657220746f20746865207a65726f206164647260448201526265737360e81b6064820152608490fd5b60405162461bcd60e51b815260206004820152602560248201527f45524332303a207472616e736665722066726f6d20746865207a65726f20616460448201527f64726573730000000000000000000000000000000000000000000000000000006064820152608490fdfea264697066735822122096801d37062400f0cbabb7efd5de58485bde7505603e4b6c551e41f1ef3b849464736f6c634300081a0033","linkReferences":{}},"methodIdentifiers":{"allowance(address,address)":"dd62ed3e","approve(address,uint256)":"095ea7b3","balanceOf(address)":"70a08231","burn(address,uint256)":"9dc29fac","decimals()":"313ce567","decreaseAllowance(address,uint256)":"a457c2d7","increaseAllowance(address,uint256)":"39509351","mint(address,uint256)":"40c10f19","name()":"06fdde03","pause()":"8456cb59","paused()":"5c975abb","symbol()":"95d89b41","totalSupply()":"18160ddd","transfer(address,uint256)":"a9059cbb","transferFrom(address,address,uint256)":"23b872dd","unpause()":"3f4ba83a"},"id":346}