{"abi":[{"type":"function","name":"burn","inputs":[{"name":"token","type":"address","internalType":"contract IERC777Upgradeable"},{"name":"amount","type":"uint256","internalType":"uint256"},{"name":"data","type":"bytes","internalType":"bytes"}],"outputs":[],"stateMutability":"nonpayable"},{"type":"function","name":"canImplementInterfaceForAddress","inputs":[{"name":"interfaceHash","type":"bytes32","internalType":"bytes32"},{"name":"account","type":"address","internalType":"address"}],"outputs":[{"name":"","type":"bytes32","internalType":"bytes32"}],"stateMutability":"view"},{"type":"function","name":"recipientFor","inputs":[{"name":"account","type":"address","internalType":"address"}],"outputs":[],"stateMutability":"nonpayable"},{"type":"function","name":"registerRecipient","inputs":[{"name":"recipient","type":"address","internalType":"address"}],"outputs":[],"stateMutability":"nonpayable"},{"type":"function","name":"registerSender","inputs":[{"name":"sender","type":"address","internalType":"address"}],"outputs":[],"stateMutability":"nonpayable"},{"type":"function","name":"send","inputs":[{"name":"token","type":"address","internalType":"contract IERC777Upgradeable"},{"name":"to","type":"address","internalType":"address"},{"name":"amount","type":"uint256","internalType":"uint256"},{"name":"data","type":"bytes","internalType":"bytes"}],"outputs":[],"stateMutability":"nonpayable"},{"type":"function","name":"senderFor","inputs":[{"name":"account","type":"address","internalType":"address"}],"outputs":[],"stateMutability":"nonpayable"},{"type":"function","name":"setShouldRevertReceive","inputs":[{"name":"shouldRevert","type":"bool","internalType":"bool"}],"outputs":[],"stateMutability":"nonpayable"},{"type":"function","name":"setShouldRevertSend","inputs":[{"name":"shouldRevert","type":"bool","internalType":"bool"}],"outputs":[],"stateMutability":"nonpayable"},{"type":"function","name":"tokensReceived","inputs":[{"name":"operator","type":"address","internalType":"address"},{"name":"from","type":"address","internalType":"address"},{"name":"to","type":"address","internalType":"address"},{"name":"amount","type":"uint256","internalType":"uint256"},{"name":"userData","type":"bytes","internalType":"bytes"},{"name":"operatorData","type":"bytes","internalType":"bytes"}],"outputs":[],"stateMutability":"nonpayable"},{"type":"function","name":"tokensToSend","inputs":[{"name":"operator","type":"address","internalType":"address"},{"name":"from","type":"address","internalType":"address"},{"name":"to","type":"address","internalType":"address"},{"name":"amount","type":"uint256","internalType":"uint256"},{"name":"userData","type":"bytes","internalType":"bytes"},{"name":"operatorData","type":"bytes","internalType":"bytes"}],"outputs":[],"stateMutability":"nonpayable"},{"type":"event","name":"BeforeTokenTransfer","inputs":[],"anonymous":false},{"type":"event","name":"TokensReceivedCalled","inputs":[{"name":"operator","type":"address","indexed":false,"internalType":"address"},{"name":"from","type":"address","indexed":false,"internalType":"address"},{"name":"to","type":"address","indexed":false,"internalType":"address"},{"name":"amount","type":"uint256","indexed":false,"internalType":"uint256"},{"name":"data","type":"bytes","indexed":false,"internalType":"bytes"},{"name":"operatorData","type":"bytes","indexed":false,"internalType":"bytes"},{"name":"token","type":"address","indexed":false,"internalType":"address"},{"name":"fromBalance","type":"uint256","indexed":false,"internalType":"uint256"},{"name":"toBalance","type":"uint256","indexed":false,"internalType":"uint256"}],"anonymous":false},{"type":"event","name":"TokensToSendCalled","inputs":[{"name":"operator","type":"address","indexed":false,"internalType":"address"},{"name":"from","type":"address","indexed":false,"internalType":"address"},{"name":"to","type":"address","indexed":false,"internalType":"address"},{"name":"amount","type":"uint256","indexed":false,"internalType":"uint256"},{"name":"data","type":"bytes","indexed":false,"internalType":"bytes"},{"name":"operatorData","type":"bytes","indexed":false,"internalType":"bytes"},{"name":"token","type":"address","indexed":false,"internalType":"address"},{"name":"fromBalance","type":"uint256","indexed":false,"internalType":"uint256"},{"name":"toBalance","type":"uint256","indexed":false,"internalType":"uint256"}],"anonymous":false}],"bytecode":{"object":"0x60808060405234601557610a63908161001a8239f35b5f80fdfe6080806040526004361015610012575f80fd5b5f905f3560e01c90816223de29146105b357508063249cb3fa1461053b5780633836ef891461047a57806344d17187146103c95780634e4ae5a51461039957806375ab97821461021a578063a8badaa5146101f8578063c97e18fc146101bd578063d2de64741461013d578063e0eb2180146100bd5763e1ecbd3014610096575f80fd5b346100ba5760203660031901126100ba576100b76100b2610726565b6109b6565b80f35b80fd5b50346100ba5760203660031901126100ba576100d7610726565b7fb281fc8c12954d22544db45de3159a39272895b169a852b314f9cc762e44c53b82526033602052604082206001600160a01b0382165f5260205260405f20600160ff198254161790556001600160a01b03309116146101345780f35b6100b730610933565b50346100ba5760203660031901126100ba57610157610726565b7f29ddb589b1fb5fc7cf394961c1adf5f8c6454761adf795e67fe149f658abe89582526033602052604082206001600160a01b0382165f5260205260405f20600160ff198254161790556001600160a01b03309116146101b45780f35b6100b7306109b6565b50346100ba5760203660031901126100ba576004358015158091036101f45761ff006065549160081b169061ff0019161760655580f35b5080fd5b50346100ba5760203660031901126100ba576100b7610215610726565b610933565b50346100ba576102293661076a565b9060ff6065989394989796975416610395576040516370a0823160e01b81526001600160a01b038716600482015293602085602481335afa94851561038a578a95610356575b506040516370a0823160e01b81526001600160a01b038916600482015295602087602481335afa96871561034b578b976102e5575b50907faa3e88aca472e90221daf7d3d601abafb62b120319089d7a2c2f63588da85529996102df9796959493926040519a8b9a33978c6108a8565b0390a180f35b965094939291906020873d602011610343575b81610305602093836107fc565b8101031261033f579551959394929391929091907faa3e88aca472e90221daf7d3d601abafb62b120319089d7a2c2f63588da855296102a4565b5f80fd5b3d91506102f8565b6040513d8d823e3d90fd5b9094506020813d602011610382575b81610372602093836107fc565b8101031261033f5751935f61026f565b3d9150610365565b6040513d8c823e3d90fd5b8880fd5b50346100ba5760203660031901126100ba576004358015158091036101f45760ff80196065541691161760655580f35b50346100ba5760603660031901126100ba57806103e4610726565b60443567ffffffffffffffff81116104765761040c6001600160a01b03913690600401610832565b9116803b1561047657610449839291839260405194858094819363fe9d930360e01b8352602435600484015260406024840152604483019061090f565b03925af1801561046b5761045a5750f35b81610464916107fc565b6100ba5780f35b6040513d84823e3d90fd5b5050fd5b503461033f57608036600319011261033f57610494610726565b61049c610710565b60643567ffffffffffffffff811161033f576104c46001600160a01b03913690600401610832565b921691823b1561033f57610510926001600160a01b035f809460405196879586948593634decdde360e11b8552166004840152604435602484015260606044840152606483019061090f565b03925af1801561053057610522575080f35b61052e91505f906107fc565b005b6040513d5f823e3d90fd5b3461033f57604036600319011261033f57610554610710565b6004355f5260336020526001600160a01b0360405f2091165f5260205260ff60405f2054165f146105ab5760207fa2ef4600d742022d532d4747cb3547474667d6f13804902513b2ec01c848f4b45b604051908152f35b60205f6105a3565b3461033f576105c13661076a565b9160ff60659995969894995460081c1661033f576370a0823160e01b85526001600160a01b0387166004860152602085602481335afa948515610530575f956106dc575b506040516370a0823160e01b81526001600160a01b038916600482015295602087602481335afa968715610530575f9761067a575b50907f47e915878c47f3ec4d7ff646a2becb229f64fd2abe4d2b5e2bb4275b0cf50d4e996106759796959493926040519a8b9a33978c6108a8565b0390a1005b965094939291906020873d6020116106d4575b8161069a602093836107fc565b8101031261033f579551959394929391929091907f47e915878c47f3ec4d7ff646a2becb229f64fd2abe4d2b5e2bb4275b0cf50d4e61063a565b3d915061068d565b9094506020813d602011610708575b816106f8602093836107fc565b8101031261033f57519389610605565b3d91506106eb565b602435906001600160a01b038216820361033f57565b600435906001600160a01b038216820361033f57565b9181601f8401121561033f5782359167ffffffffffffffff831161033f576020838186019501011161033f57565b60c060031982011261033f576004356001600160a01b038116810361033f57916024356001600160a01b038116810361033f57916044356001600160a01b038116810361033f57916064359160843567ffffffffffffffff811161033f57816107d59160040161073c565b9290929160a4359067ffffffffffffffff821161033f576107f89160040161073c565b9091565b90601f8019910116810190811067ffffffffffffffff82111761081e57604052565b634e487b7160e01b5f52604160045260245ffd5b81601f8201121561033f5780359067ffffffffffffffff821161081e5760405192610867601f8401601f1916602001856107fc565b8284526020838301011161033f57815f926020809301838601378301015290565b908060209392818452848401375f828201840152601f01601f1916010190565b979295610100999c9b9a97946001600160a01b038098816108f1968d826108ff9c981690521660208d01521660408b015260608a015261012060808a0152610120890191610888565b9186830360a0880152610888565b961660c083015260e08201520152565b805180835260209291819084018484015e5f828201840152601f01601f1916010190565b6001600160a01b0360655460101c1690813b1561033f576001600160a01b0360645f928360405195869485936329965a1d60e01b85523060048601527fb281fc8c12954d22544db45de3159a39272895b169a852b314f9cc762e44c53b60248601521660448401525af18015610530576109aa5750565b5f6109b4916107fc565b565b6001600160a01b0360655460101c1690813b1561033f576001600160a01b0360645f928360405195869485936329965a1d60e01b85523060048601527f29ddb589b1fb5fc7cf394961c1adf5f8c6454761adf795e67fe149f658abe89560248601521660448401525af18015610530576109aa575056fea26469706673582212208bef93285612f5ea0eb82d985b3bda2335482a8001ceb9cd3cf4c66ff225d42064736f6c634300081a0033","linkReferences":{}},"methodIdentifiers":{"burn(address,uint256,bytes)":"44d17187","canImplementInterfaceForAddress(bytes32,address)":"249cb3fa","recipientFor(address)":"e0eb2180","registerRecipient(address)":"a8badaa5","registerSender(address)":"e1ecbd30","send(address,address,uint256,bytes)":"3836ef89","senderFor(address)":"d2de6474","setShouldRevertReceive(bool)":"c97e18fc","setShouldRevertSend(bool)":"4e4ae5a5","tokensReceived(address,address,address,uint256,bytes,bytes)":"0023de29","tokensToSend(address,address,address,uint256,bytes,bytes)":"75ab9782"},"id":361}