{"abi":[{"type":"constructor","inputs":[{"name":"name","type":"string","internalType":"string"},{"name":"symbol","type":"string","internalType":"string"},{"name":"initialAccount","type":"address","internalType":"address"},{"name":"initialBalance","type":"uint256","internalType":"uint256"}],"stateMutability":"nonpayable"},{"type":"function","name":"allowance","inputs":[{"name":"owner","type":"address","internalType":"address"},{"name":"spender","type":"address","internalType":"address"}],"outputs":[{"name":"","type":"uint256","internalType":"uint256"}],"stateMutability":"view"},{"type":"function","name":"approve","inputs":[{"name":"spender","type":"address","internalType":"address"},{"name":"amount","type":"uint256","internalType":"uint256"}],"outputs":[{"name":"","type":"bool","internalType":"bool"}],"stateMutability":"nonpayable"},{"type":"function","name":"balanceOf","inputs":[{"name":"account","type":"address","internalType":"address"}],"outputs":[{"name":"","type":"uint256","internalType":"uint256"}],"stateMutability":"view"},{"type":"function","name":"balanceOfAt","inputs":[{"name":"account","type":"address","internalType":"address"},{"name":"snapshotId","type":"uint256","internalType":"uint256"}],"outputs":[{"name":"","type":"uint256","internalType":"uint256"}],"stateMutability":"view"},{"type":"function","name":"burn","inputs":[{"name":"account","type":"address","internalType":"address"},{"name":"amount","type":"uint256","internalType":"uint256"}],"outputs":[],"stateMutability":"nonpayable"},{"type":"function","name":"decimals","inputs":[],"outputs":[{"name":"","type":"uint8","internalType":"uint8"}],"stateMutability":"view"},{"type":"function","name":"decreaseAllowance","inputs":[{"name":"spender","type":"address","internalType":"address"},{"name":"subtractedValue","type":"uint256","internalType":"uint256"}],"outputs":[{"name":"","type":"bool","internalType":"bool"}],"stateMutability":"nonpayable"},{"type":"function","name":"increaseAllowance","inputs":[{"name":"spender","type":"address","internalType":"address"},{"name":"addedValue","type":"uint256","internalType":"uint256"}],"outputs":[{"name":"","type":"bool","internalType":"bool"}],"stateMutability":"nonpayable"},{"type":"function","name":"mint","inputs":[{"name":"account","type":"address","internalType":"address"},{"name":"amount","type":"uint256","internalType":"uint256"}],"outputs":[],"stateMutability":"nonpayable"},{"type":"function","name":"name","inputs":[],"outputs":[{"name":"","type":"string","internalType":"string"}],"stateMutability":"view"},{"type":"function","name":"snapshot","inputs":[],"outputs":[],"stateMutability":"nonpayable"},{"type":"function","name":"symbol","inputs":[],"outputs":[{"name":"","type":"string","internalType":"string"}],"stateMutability":"view"},{"type":"function","name":"totalSupply","inputs":[],"outputs":[{"name":"","type":"uint256","internalType":"uint256"}],"stateMutability":"view"},{"type":"function","name":"totalSupplyAt","inputs":[{"name":"snapshotId","type":"uint256","internalType":"uint256"}],"outputs":[{"name":"","type":"uint256","internalType":"uint256"}],"stateMutability":"view"},{"type":"function","name":"transfer","inputs":[{"name":"recipient","type":"address","internalType":"address"},{"name":"amount","type":"uint256","internalType":"uint256"}],"outputs":[{"name":"","type":"bool","internalType":"bool"}],"stateMutability":"nonpayable"},{"type":"function","name":"transferFrom","inputs":[{"name":"sender","type":"address","internalType":"address"},{"name":"recipient","type":"address","internalType":"address"},{"name":"amount","type":"uint256","internalType":"uint256"}],"outputs":[{"name":"","type":"bool","internalType":"bool"}],"stateMutability":"nonpayable"},{"type":"event","name":"Approval","inputs":[{"name":"owner","type":"address","indexed":true,"internalType":"address"},{"name":"spender","type":"address","indexed":true,"internalType":"address"},{"name":"value","type":"uint256","indexed":false,"internalType":"uint256"}],"anonymous":false},{"type":"event","name":"Snapshot","inputs":[{"name":"id","type":"uint256","indexed":false,"internalType":"uint256"}],"anonymous":false},{"type":"event","name":"Transfer","inputs":[{"name":"from","type":"address","indexed":true,"internalType":"address"},{"name":"to","type":"address","indexed":true,"internalType":"address"},{"name":"value","type":"uint256","indexed":false,"internalType":"uint256"}],"anonymous":false}],"bytecode":{"object":"0x6080604052346104a65761155e80380380610019816104aa565b9283398101906080818303126104a65780516001600160401b0381116104a657826100459183016104cf565b602082015190926001600160401b0382116104a6576100659183016104cf565b604082015190916001600160a01b038216918290036104a6576060015183516001600160401b03811161026557600354600181811c9116801561049c575b60208210146103ad57601f8111610439575b50602094601f82116001146103d6579481929394955f926103cb575b50508160011b915f199060031b1c1916176003555b82516001600160401b03811161026557600454600181811c911680156103c1575b60208210146103ad57601f811161034a575b506020601f82116001146102e757819293945f926102dc575b50508160011b915f199060031b1c1916176004555b811561029757815f52600560205260405f20825f525f60205260405f205460085480610172846105c1565b10610279575b5050506002546008548061018a610594565b106101df575b835f5f8051602061153e8339815191526020866101af81600254610520565b600255848452838252604084206101c7828254610520565b9055604051908152a3604051610f5b90816105e38239f35b60065490680100000000000000008210156102655761020982600161022194016006556006610541565b90919082549060031b91821b915f19901b1916179055565b6007549068010000000000000000821015610265575f9261025e6020926102098560015f8051602061153e83398151915297016007556007610541565b9250610190565b634e487b7160e01b5f52604160045260245ffd5b8261028960019261028f9561056a565b0161056a565b5f8080610178565b60405162461bcd60e51b815260206004820152601f60248201527f45524332303a206d696e7420746f20746865207a65726f2061646472657373006044820152606490fd5b015190505f80610132565b601f1982169060045f52805f20915f5b8181106103325750958360019596971061031a575b505050811b01600455610147565b01515f1960f88460031b161c191690555f808061030c565b9192602060018192868b0151815501940192016102f7565b60045f527f8a35acfbc15ff81a39ae7d344fd709f28e8600b4aa8c65c6b64bfe7fe36bd19b601f830160051c810191602084106103a3575b601f0160051c01905b8181106103985750610119565b5f815560010161038b565b9091508190610382565b634e487b7160e01b5f52602260045260245ffd5b90607f1690610107565b015190505f806100d1565b601f1982169560035f52805f20915f5b88811061042157508360019596979810610409575b505050811b016003556100e6565b01515f1960f88460031b161c191690555f80806103fb565b919260206001819286850151815501940192016103e6565b60035f527fc2575a0e9e593c00f959f8c92f12db2869c3395a3b0502d05e2516446f71f85b601f830160051c81019160208410610492575b601f0160051c01905b81811061048757506100b5565b5f815560010161047a565b9091508190610471565b90607f16906100a3565b5f80fd5b6040519190601f01601f191682016001600160401b0381118382101761026557604052565b81601f820112156104a6578051906001600160401b038211610265576104fe601f8301601f19166020016104aa565b92828452602083830101116104a657815f9260208093018386015e8301015290565b9190820180921161052d57565b634e487b7160e01b5f52601160045260245ffd5b8054821015610556575f5260205f2001905f90565b634e487b7160e01b5f52603260045260245ffd5b9081549168010000000000000000831015610265578261020991600161059295018155610541565b565b600654806105a157505f90565b5f19810190811161052d576105b7906006610541565b90549060031b1c90565b8054806105ce5750505f90565b5f19810190811161052d576105b79161054156fe6080806040526004361015610012575f80fd5b5f3560e01c90816306fdde03146107f157508063095ea7b3146107cb57806318160ddd146107ae57806323b872dd146106d5578063313ce567146106ba578063395093511461066b57806340c10f19146105945780634ee2cd7e1461053657806370a08231146104ff57806395d89b41146103e45780639711715a1461039e578063981b24d0146103655780639dc29fac14610211578063a457c2d714610155578063a9059cbb146101245763dd62ed3e146100cc575f80fd5b34610120576040366003190112610120576100e56108ea565b6001600160a01b036100f5610900565b91165f5260016020526001600160a01b0360405f2091165f52602052602060405f2054604051908152f35b5f80fd5b346101205760403660031901126101205761014a6101406108ea565b6024359033610a27565b602060405160018152f35b346101205760403660031901126101205761016e6108ea565b60243590335f52600160205260405f206001600160a01b0382165f5260205260405f2054918083106101a65761014a92039033610923565b60405162461bcd60e51b815260206004820152602560248201527f45524332303a2064656372656173656420616c6c6f77616e63652062656c6f7760448201527f207a65726f0000000000000000000000000000000000000000000000000000006064820152608490fd5b346101205760403660031901126101205761022a6108ea565b602435906001600160a01b0381169081156103165761024890610dd5565b610250610e25565b805f525f60205260405f20548281106102c6578290825f525f6020520360405f2055600254918083039283116102b25760207fddf252ad1be2c89b69c2b068fc378daa952ba7f163c4a11628f55a4df523b3ef915f94600255604051908152a3005b634e487b7160e01b5f52601160045260245ffd5b60405162461bcd60e51b815260206004820152602260248201527f45524332303a206275726e20616d6f756e7420657863656564732062616c616e604482015261636560f01b6064820152608490fd5b60405162461bcd60e51b815260206004820152602160248201527f45524332303a206275726e2066726f6d20746865207a65726f206164647265736044820152607360f81b6064820152608490fd5b3461012057602036600319011261012057610381600435610c11565b9015610393576020905b604051908152f35b50602060025461038b565b34610120575f366003190112610120577f8030e83b04d87bef53480e26263266d6ca66863aa8506aca6f2559d18aa1cb67602060016008540180600855604051908152a1005b34610120575f366003190112610120576040515f6004548060011c906001811680156104f5575b6020831081146104e1578285529081156104c55750600114610470575b50819003601f01601f191681019067ffffffffffffffff82118183101761045c57610458829182604052826108c0565b0390f35b634e487b7160e01b5f52604160045260245ffd5b905060045f527f8a35acfbc15ff81a39ae7d344fd709f28e8600b4aa8c65c6b64bfe7fe36bd19b5f905b8282106104af57506020915082010182610428565b600181602092548385880101520191019061049a565b90506020925060ff191682840152151560051b82010182610428565b634e487b7160e01b5f52602260045260245ffd5b91607f169161040b565b34610120576020366003190112610120576001600160a01b036105206108ea565b165f525f602052602060405f2054604051908152f35b34610120576040366003190112610120576001600160a01b036105576108ea565b16805f52600560205261056f60405f20602435610cde565b90156105815760209150604051908152f35b505f525f602052602060405f205461038b565b34610120576040366003190112610120576105ad6108ea565b6001600160a01b0381169060243582156106265760207fddf252ad1be2c89b69c2b068fc378daa952ba7f163c4a11628f55a4df523b3ef916105ef5f94610dd5565b6105f7610e25565b61060381600254610916565b6002558484528382526040842061061b828254610916565b9055604051908152a3005b60405162461bcd60e51b815260206004820152601f60248201527f45524332303a206d696e7420746f20746865207a65726f2061646472657373006044820152606490fd5b346101205760403660031901126101205761014a6106876108ea565b335f52600160205260405f206001600160a01b0382165f526020526106b360405f206024359054610916565b9033610923565b34610120575f36600319011261012057602060405160128152f35b34610120576060366003190112610120576106ee6108ea565b6106f6610900565b90610705604435809383610a27565b6001600160a01b0381165f52600160205260405f206001600160a01b0333165f5260205260405f2054918083106107435761014a9203903390610923565b60405162461bcd60e51b815260206004820152602860248201527f45524332303a207472616e7366657220616d6f756e742065786365656473206160448201527f6c6c6f77616e63650000000000000000000000000000000000000000000000006064820152608490fd5b34610120575f366003190112610120576020600254604051908152f35b346101205760403660031901126101205761014a6107e76108ea565b6024359033610923565b34610120575f366003190112610120575f6003548060011c906001811680156108b6575b6020831081146104e1578285529081156104c557506001146108615750819003601f01601f191681019067ffffffffffffffff82118183101761045c57610458829182604052826108c0565b905060035f527fc2575a0e9e593c00f959f8c92f12db2869c3395a3b0502d05e2516446f71f85b5f905b8282106108a057506020915082010182610428565b600181602092548385880101520191019061088b565b91607f1691610815565b602060409281835280519182918282860152018484015e5f828201840152601f01601f1916010190565b600435906001600160a01b038216820361012057565b602435906001600160a01b038216820361012057565b919082018092116102b257565b6001600160a01b03169081156109d6576001600160a01b03169182156109865760207f8c5be1e5ebec7d5bd14f71427d1e84f3dd0314c0f7b2291e5b200ac8c7c3b92591835f526001825260405f20855f5282528060405f2055604051908152a3565b60405162461bcd60e51b815260206004820152602260248201527f45524332303a20617070726f766520746f20746865207a65726f206164647265604482015261737360f01b6064820152608490fd5b60405162461bcd60e51b8152602060048201526024808201527f45524332303a20617070726f76652066726f6d20746865207a65726f206164646044820152637265737360e01b6064820152608490fd5b90916001600160a01b038216918215610b7d576001600160a01b038416938415610b2c57610a57610a5c92610dd5565b610dd5565b815f525f60205260405f2054818110610ac157817fddf252ad1be2c89b69c2b068fc378daa952ba7f163c4a11628f55a4df523b3ef92602092855f525f84520360405f2055845f525f825260405f20610ab6828254610916565b9055604051908152a3565b60405162461bcd60e51b815260206004820152602660248201527f45524332303a207472616e7366657220616d6f756e742065786365656473206260448201527f616c616e636500000000000000000000000000000000000000000000000000006064820152608490fd5b60405162461bcd60e51b815260206004820152602360248201527f45524332303a207472616e7366657220746f20746865207a65726f206164647260448201526265737360e81b6064820152608490fd5b60405162461bcd60e51b815260206004820152602560248201527f45524332303a207472616e736665722066726f6d20746865207a65726f20616460448201527f64726573730000000000000000000000000000000000000000000000000000006064820152608490fd5b8054821015610bfd575f5260205f2001905f90565b634e487b7160e01b5f52603260045260245ffd5b8015610c99576008548111610c5457610c2b906006610d13565b6006548103610c3b57505f905f90565b610c46906007610be8565b90549060031b1c9060019190565b60405162461bcd60e51b815260206004820152601d60248201527f4552433230536e617073686f743a206e6f6e6578697374656e742069640000006044820152606490fd5b60405162461bcd60e51b815260206004820152601660248201527f4552433230536e617073686f743a2069642069732030000000000000000000006044820152606490fd5b8015610c99576008548111610c5457610cf79082610d13565b81548103610d075750505f905f90565b6001610c469201610be8565b8054918215610dce575f925b808410610d6f57508215159182610d49575b505015610d46575f1981019081116102b25790565b90565b9091505f1983018381116102b257610d6091610be8565b90549060031b1c145f80610d31565b610d9b610d828260011c8660011c610916565b610d926001841660018816610916565b60011c90610916565b9082610da78386610be8565b90549060031b1c115f14610dbb5750610d1f565b9350600181018091116102b25792610d1f565b5050505f90565b6001600160a01b0316805f52600560205260405f20905f525f60205260405f205460085480610e0384610f04565b10610e0d57505050565b82610e1d600192610e2395610eb5565b01610eb5565b565b60025460085480610e34610ed7565b10610e3d575050565b6006546801000000000000000081101561045c57806001610e6392016006556006610be8565b819291549060031b91821b915f19901b19161790556007546801000000000000000081101561045c57806001610e9e92016007556007610be8565b819291549060031b91821b915f19901b1916179055565b80546801000000000000000081101561045c57610e9e91600182018155610be8565b60065480610ee457505f90565b5f1981019081116102b257610efa906006610be8565b90549060031b1c90565b805480610f115750505f90565b5f1981019081116102b257610efa91610be856fea2646970667358221220b7b0c93fc037bce8d933630b91fcb64b0de8799b1d4089ba1e86d9e00978794064736f6c634300081a0033ddf252ad1be2c89b69c2b068fc378daa952ba7f163c4a11628f55a4df523b3ef","linkReferences":{}},"methodIdentifiers":{"allowance(address,address)":"dd62ed3e","approve(address,uint256)":"095ea7b3","balanceOf(address)":"70a08231","balanceOfAt(address,uint256)":"4ee2cd7e","burn(address,uint256)":"9dc29fac","decimals()":"313ce567","decreaseAllowance(address,uint256)":"a457c2d7","increaseAllowance(address,uint256)":"39509351","mint(address,uint256)":"40c10f19","name()":"06fdde03","snapshot()":"9711715a","symbol()":"95d89b41","totalSupply()":"18160ddd","totalSupplyAt(uint256)":"981b24d0","transfer(address,uint256)":"a9059cbb","transferFrom(address,address,uint256)":"23b872dd"},"id":179}