{"abi":[{"type":"constructor","inputs":[{"name":"uri","type":"string","internalType":"string"}],"stateMutability":"nonpayable"},{"type":"function","name":"balanceOf","inputs":[{"name":"account","type":"address","internalType":"address"},{"name":"id","type":"uint256","internalType":"uint256"}],"outputs":[{"name":"","type":"uint256","internalType":"uint256"}],"stateMutability":"view"},{"type":"function","name":"balanceOfBatch","inputs":[{"name":"accounts","type":"address[]","internalType":"address[]"},{"name":"ids","type":"uint256[]","internalType":"uint256[]"}],"outputs":[{"name":"","type":"uint256[]","internalType":"uint256[]"}],"stateMutability":"view"},{"type":"function","name":"burn","inputs":[{"name":"owner","type":"address","internalType":"address"},{"name":"id","type":"uint256","internalType":"uint256"},{"name":"value","type":"uint256","internalType":"uint256"}],"outputs":[],"stateMutability":"nonpayable"},{"type":"function","name":"burnBatch","inputs":[{"name":"owner","type":"address","internalType":"address"},{"name":"ids","type":"uint256[]","internalType":"uint256[]"},{"name":"values","type":"uint256[]","internalType":"uint256[]"}],"outputs":[],"stateMutability":"nonpayable"},{"type":"function","name":"exists","inputs":[{"name":"id","type":"uint256","internalType":"uint256"}],"outputs":[{"name":"","type":"bool","internalType":"bool"}],"stateMutability":"view"},{"type":"function","name":"isApprovedForAll","inputs":[{"name":"account","type":"address","internalType":"address"},{"name":"operator","type":"address","internalType":"address"}],"outputs":[{"name":"","type":"bool","internalType":"bool"}],"stateMutability":"view"},{"type":"function","name":"mint","inputs":[{"name":"to","type":"address","internalType":"address"},{"name":"id","type":"uint256","internalType":"uint256"},{"name":"value","type":"uint256","internalType":"uint256"},{"name":"data","type":"bytes","internalType":"bytes"}],"outputs":[],"stateMutability":"nonpayable"},{"type":"function","name":"mintBatch","inputs":[{"name":"to","type":"address","internalType":"address"},{"name":"ids","type":"uint256[]","internalType":"uint256[]"},{"name":"values","type":"uint256[]","internalType":"uint256[]"},{"name":"data","type":"bytes","internalType":"bytes"}],"outputs":[],"stateMutability":"nonpayable"},{"type":"function","name":"safeBatchTransferFrom","inputs":[{"name":"from","type":"address","internalType":"address"},{"name":"to","type":"address","internalType":"address"},{"name":"ids","type":"uint256[]","internalType":"uint256[]"},{"name":"amounts","type":"uint256[]","internalType":"uint256[]"},{"name":"data","type":"bytes","internalType":"bytes"}],"outputs":[],"stateMutability":"nonpayable"},{"type":"function","name":"safeTransferFrom","inputs":[{"name":"from","type":"address","internalType":"address"},{"name":"to","type":"address","internalType":"address"},{"name":"id","type":"uint256","internalType":"uint256"},{"name":"amount","type":"uint256","internalType":"uint256"},{"name":"data","type":"bytes","internalType":"bytes"}],"outputs":[],"stateMutability":"nonpayable"},{"type":"function","name":"setApprovalForAll","inputs":[{"name":"operator","type":"address","internalType":"address"},{"name":"approved","type":"bool","internalType":"bool"}],"outputs":[],"stateMutability":"nonpayable"},{"type":"function","name":"setURI","inputs":[{"name":"newuri","type":"string","internalType":"string"}],"outputs":[],"stateMutability":"nonpayable"},{"type":"function","name":"supportsInterface","inputs":[{"name":"interfaceId","type":"bytes4","internalType":"bytes4"}],"outputs":[{"name":"","type":"bool","internalType":"bool"}],"stateMutability":"view"},{"type":"function","name":"totalSupply","inputs":[{"name":"id","type":"uint256","internalType":"uint256"}],"outputs":[{"name":"","type":"uint256","internalType":"uint256"}],"stateMutability":"view"},{"type":"function","name":"uri","inputs":[{"name":"","type":"uint256","internalType":"uint256"}],"outputs":[{"name":"","type":"string","internalType":"string"}],"stateMutability":"view"},{"type":"event","name":"ApprovalForAll","inputs":[{"name":"account","type":"address","indexed":true,"internalType":"address"},{"name":"operator","type":"address","indexed":true,"internalType":"address"},{"name":"approved","type":"bool","indexed":false,"internalType":"bool"}],"anonymous":false},{"type":"event","name":"TransferBatch","inputs":[{"name":"operator","type":"address","indexed":true,"internalType":"address"},{"name":"from","type":"address","indexed":true,"internalType":"address"},{"name":"to","type":"address","indexed":true,"internalType":"address"},{"name":"ids","type":"uint256[]","indexed":false,"internalType":"uint256[]"},{"name":"values","type":"uint256[]","indexed":false,"internalType":"uint256[]"}],"anonymous":false},{"type":"event","name":"TransferSingle","inputs":[{"name":"operator","type":"address","indexed":true,"internalType":"address"},{"name":"from","type":"address","indexed":true,"internalType":"address"},{"name":"to","type":"address","indexed":true,"internalType":"address"},{"name":"id","type":"uint256","indexed":false,"internalType":"uint256"},{"name":"value","type":"uint256","indexed":false,"internalType":"uint256"}],"anonymous":false},{"type":"event","name":"URI","inputs":[{"name":"value","type":"string","indexed":false,"internalType":"string"},{"name":"id","type":"uint256","indexed":true,"internalType":"uint256"}],"anonymous":false}],"bytecode":{"object":"0x6080604052346101f957611bd880380380610019816101fd565b9283398101906020818303126101f9578051906001600160401b0382116101f9570181601f820112156101f9578051906001600160401b0382116101e55761006a601f8301601f19166020016101fd565b92828452602083830101116101f957815f9260208093018386015e8301015280516001600160401b0381116101e557600254600181811c911680156101db575b60208210146101c757601f8111610164575b50602091601f8211600114610104579181925f926100f9575b50508160011b915f199060031b1c1916176002555b6040516119b590816102238239f35b015190505f806100d5565b601f1982169260025f52805f20915f5b85811061014c57508360019510610134575b505050811b016002556100ea565b01515f1960f88460031b161c191690555f8080610126565b91926020600181928685015181550194019201610114565b60025f527f405787fa12a823e0f2b7631cc41b3ba8828b3321ca811111fa75cd3aa3bb5ace601f830160051c810191602084106101bd575b601f0160051c01905b8181106101b257506100bc565b5f81556001016101a5565b909150819061019c565b634e487b7160e01b5f52602260045260245ffd5b90607f16906100aa565b634e487b7160e01b5f52604160045260245ffd5b5f80fd5b6040519190601f01601f191682016001600160401b038111838210176101e55760405256fe60806040526004361015610011575f80fd5b5f3560e01c8062fdd58e1461135157806301ffc9a7146112e357806302fe5305146111105780630e89341c146110315780631f7fdffa14610e1c5780632eb2c2d614610b4c5780634e1273f4146109975780634f558e791461096b5780636b20c454146107ff578063731133e914610684578063a22cb46514610590578063bd85b03914610566578063e985e9c51461050d578063f242432a1461019e5763f5298aca146100bd575f80fd5b3461019a57606036600319011261019a576100d6611380565b60036024356001600160a01b036044359316906100f48215156118cf565b6100fd81611852565b5061010784611852565b505f6020928160405161011a86826113ac565b52828252818452604082208183528452604082205461013b87821015611927565b83835282855260408320828452855286604084209103905560405183815286858201527fc3d58168c5ae7397731d063d5bbf3d657854427343f4c083240f7aacaa2d0f6260403392a45f525261019660405f20918254611845565b9055005b5f80fd5b3461019a5760a036600319011261019a576101b7611380565b6101bf611396565b604435906064359060843567ffffffffffffffff811161019a576101ef6001600160a01b039136906004016114ad565b94169233841480156104e4575b15610479576001600160a01b0382169161021783151561166c565b61022082611852565b5061022a84611852565b50815f525f60205260405f20855f5260205260405f205461024d858210156116de565b5f838152602081815260408083208984529091528082209287900390925584815220805461027c908690611750565b905582856040518481528660208201527fc3d58168c5ae7397731d063d5bbf3d657854427343f4c083240f7aacaa2d0f6260403392a43b6102b957005b5f6020946102fa6040519788968795869463f23a6e6160e01b865233600487015260248601526044850152606484015260a0608484015260a4830190611414565b03925af15f9181610448575b506103c4576103136117b6565b6308c379a01461038d575b60405162461bcd60e51b815260206004820152603460248201527f455243313135353a207472616e7366657220746f206e6f6e204552433131353560448201527f526563656976657220696d706c656d656e7465720000000000000000000000006064820152608490fd5b0390fd5b6103956117d1565b806103a0575061031e565b60405162461bcd60e51b815260206004820152908190610389906024830190611414565b6001600160e01b031916630dc5919f60e01b016103dd57005b60405162461bcd60e51b815260206004820152602860248201527f455243313135353a204552433131353552656365697665722072656a6563746560448201527f6420746f6b656e730000000000000000000000000000000000000000000000006064820152608490fd5b61046b91925060203d602011610472575b61046381836113ac565b810190611796565b9082610306565b503d610459565b60405162461bcd60e51b815260206004820152602960248201527f455243313135353a2063616c6c6572206973206e6f74206f776e6572206e6f7260448201527f20617070726f76656400000000000000000000000000000000000000000000006064820152608490fd5b50835f52600160205260405f206001600160a01b0333165f5260205260ff60405f2054166101fc565b3461019a57604036600319011261019a57610526611380565b6001600160a01b03610536611396565b91165f5260016020526001600160a01b0360405f2091165f52602052602060ff60405f2054166040519015158152f35b3461019a57602036600319011261019a576004355f526003602052602060405f2054604051908152f35b3461019a57604036600319011261019a576105a9611380565b6024359081151580920361019a576001600160a01b03169081331461061957335f52600160205260405f20825f5260205260405f2060ff1981541660ff83161790556040519081527f17307eab39ab6107e8899845ad3d59bd9653f200f220920489ca2b5937696c3160203392a3005b60405162461bcd60e51b815260206004820152602960248201527f455243313135353a2073657474696e6720617070726f76616c2073746174757360448201527f20666f722073656c6600000000000000000000000000000000000000000000006064820152608490fd5b3461019a57608036600319011261019a5761069d611380565b6024356044359160643567ffffffffffffffff811161019a576106c49036906004016114ad565b906001600160a01b038116906106db821515611879565b6106e484611852565b506106ee85611852565b50835f525f60205260405f20825f5260205260405f2061070f868254611750565b9055815f6040518681528760208201527fc3d58168c5ae7397731d063d5bbf3d657854427343f4c083240f7aacaa2d0f6260403392a43b610763575b50505f52600360205261019660405f20918254611750565b6107a76020915f9360405194858094819363f23a6e6160e01b83523360048401528360248401528960448401528a606484015260a0608484015260a4830190611414565b03925af15f91816107de575b506107c0576103136117b6565b6001600160e01b031916630dc5919f60e01b016103dd57828061074b565b6107f891925060203d6020116104725761046381836113ac565b90846107b3565b3461019a57606036600319011261019a57610818611380565b60243567ffffffffffffffff811161019a57610838903690600401611450565b9060443567ffffffffffffffff811161019a576108616001600160a01b03913690600401611450565b91169061086f8215156118cf565b61087c83518251146115fa565b60205f60405161088c83826113ac565b525f5b84518110156108ee57806108a5600192876115d2565b516108b082866115d2565b51815f525f855260405f20875f52855260405f2054916108d282841015611927565b5f525f855260405f20875f52855260405f20910390550161088f565b50915f84916040517f4a39dc06d4c0dbc64b70af90fd698a233a518aa5d07e595d983b8c0526c8f7fb339180610925888883611771565b0390a45f5b81518110156109695780610940600192856115d2565b5161094b82856115d2565b515f526003865261096160405f20918254611845565b90550161092a565b005b3461019a57602036600319011261019a576004355f526003602052602060405f20541515604051908152f35b3461019a57604036600319011261019a5760043567ffffffffffffffff811161019a573660238201121561019a5780600401356109d381611438565b916109e160405193846113ac565b8183526024602084019260051b8201019036821161019a57602401915b818310610b2c578360243567ffffffffffffffff811161019a57610a26903690600401611450565b908051825103610ac157805191610a3c83611438565b92610a4a60405194856113ac565b808452610a59601f1991611438565b013660208501375f5b8251811015610aa75780610a966001600160a01b03610a83600194876115d2565b5116610a8f83866115d2565b51906114fe565b610aa082876115d2565b5201610a62565b60405160208082528190610abd908201876114cb565b0390f35b60405162461bcd60e51b815260206004820152602960248201527f455243313135353a206163636f756e747320616e6420696473206c656e67746860448201527f206d69736d6174636800000000000000000000000000000000000000000000006064820152608490fd5b82356001600160a01b038116810361019a578152602092830192016109fe565b3461019a5760a036600319011261019a57610b65611380565b610b6d611396565b60443567ffffffffffffffff811161019a57610b8d903690600401611450565b60643567ffffffffffffffff811161019a57610bad903690600401611450565b9260843567ffffffffffffffff811161019a57610bd66001600160a01b039136906004016114ad565b9116913383148015610df3575b15610d8857610bf581518651146115fa565b6001600160a01b03841691610c0b83151561166c565b5f5b8251811015610c935780610c23600192856115d2565b51610c2e828a6115d2565b5190805f525f60205260405f20885f5260205260405f2054610c52838210156116de565b815f525f60205260405f20895f526020528260405f20910390555f525f60205260405f20865f52602052610c8b60405f20918254611750565b905501610c0d565b509382846040517f4a39dc06d4c0dbc64b70af90fd698a233a518aa5d07e595d983b8c0526c8f7fb339180610cc98c8983611771565b0390a43b610cd357005b5f610d1193610d35602096610d23604051998a988997889663bc197c8160e01b8852336004890152602488015260a0604488015260a48701906114cb565b858103600319016064870152906114cb565b83810360031901608485015290611414565b03925af15f9181610d67575b50610d4e576103136117b6565b6001600160e01b0319166343e6837f60e01b016103dd57005b610d8191925060203d6020116104725761046381836113ac565b9082610d41565b60405162461bcd60e51b815260206004820152603260248201527f455243313135353a207472616e736665722063616c6c6572206973206e6f742060448201527f6f776e6572206e6f7220617070726f76656400000000000000000000000000006064820152608490fd5b50825f52600160205260405f206001600160a01b0333165f5260205260ff60405f205416610be3565b3461019a57608036600319011261019a57610e35611380565b60243567ffffffffffffffff811161019a57610e55903690600401611450565b9060443567ffffffffffffffff811161019a57610e76903690600401611450565b9160643567ffffffffffffffff811161019a57610e979036906004016114ad565b6001600160a01b03831690610ead821515611879565b610eba83518651146115fa565b5f5b8351811015610f055780610ed2600192886115d2565b51610edd82876115d2565b515f525f60205260405f20855f52602052610efd60405f20918254611750565b905501610ebc565b509192815f6040517f4a39dc06d4c0dbc64b70af90fd698a233a518aa5d07e595d983b8c0526c8f7fb339180610f3c8b8b83611771565b0390a43b610f89575b50505f5b81518110156109695780610f5f600192856115d2565b51610f6a82856115d2565b515f526003602052610f8160405f20918254611750565b905501610f49565b610fd96020915f9360405194858094819363bc197c8160e01b835233600484015283602484015260a06044840152610d23610fc760a485018c6114cb565b8481036003190160648601528c6114cb565b03925af15f9181611010575b50610ff2576103136117b6565b6001600160e01b0319166343e6837f60e01b016103dd578280610f45565b61102a91925060203d6020116104725761046381836113ac565b9084610fe5565b3461019a57602036600319011261019a576040515f6002546110528161159a565b80845290600181169081156110ec575060011461108e575b610abd8361107a818503826113ac565b604051918291602083526020830190611414565b91905060025f527f405787fa12a823e0f2b7631cc41b3ba8828b3321ca811111fa75cd3aa3bb5ace915f905b8082106110d25750909150810160200161107a61106a565b9192600181602092548385880101520191019092916110ba565b60ff191660208086019190915291151560051b8401909101915061107a905061106a565b3461019a57602036600319011261019a5760043567ffffffffffffffff811161019a573660238201121561019a576111529036906024816004013591016113ce565b805167ffffffffffffffff81116112cf5761116e60025461159a565b601f811161122e575b50602091601f82116001146111b3579181925f926111a8575b50505f19600383901b1c191660019190911b17600255005b015190508280611190565b601f1982169260025f527f405787fa12a823e0f2b7631cc41b3ba8828b3321ca811111fa75cd3aa3bb5ace915f5b858110611216575083600195106111fe575b505050811b01600255005b01515f1960f88460031b161c191690558280806111f3565b919260206001819286850151815501940192016111e1565b60025f52601f820160051c7f405787fa12a823e0f2b7631cc41b3ba8828b3321ca811111fa75cd3aa3bb5ace0190602083106112a7575b601f0160051c7f405787fa12a823e0f2b7631cc41b3ba8828b3321ca811111fa75cd3aa3bb5ace01905b81811061129c5750611177565b5f815560010161128f565b7f405787fa12a823e0f2b7631cc41b3ba8828b3321ca811111fa75cd3aa3bb5ace9150611265565b634e487b7160e01b5f52604160045260245ffd5b3461019a57602036600319011261019a5760043563ffffffff60e01b811680910361019a57602090636cdb3d1360e11b8114908115611340575b811561132f575b506040519015158152f35b6301ffc9a760e01b14905082611324565b6303a24d0760e21b8114915061131d565b3461019a57604036600319011261019a57602061137861136f611380565b602435906114fe565b604051908152f35b600435906001600160a01b038216820361019a57565b602435906001600160a01b038216820361019a57565b90601f8019910116810190811067ffffffffffffffff8211176112cf57604052565b92919267ffffffffffffffff82116112cf57604051916113f8601f8201601f1916602001846113ac565b82948184528183011161019a578281602093845f960137010152565b805180835260209291819084018484015e5f828201840152601f01601f1916010190565b67ffffffffffffffff81116112cf5760051b60200190565b9080601f8301121561019a57813561146781611438565b9261147560405194856113ac565b81845260208085019260051b82010192831161019a57602001905b82821061149d5750505090565b8135815260209182019101611490565b9080601f8301121561019a578160206114c8933591016113ce565b90565b90602080835192838152019201905f5b8181106114e85750505090565b82518452602093840193909201916001016114db565b906001600160a01b0382161561152f575f525f6020526001600160a01b0360405f2091165f5260205260405f205490565b60405162461bcd60e51b815260206004820152602b60248201527f455243313135353a2062616c616e636520717565727920666f7220746865207a60448201527f65726f20616464726573730000000000000000000000000000000000000000006064820152608490fd5b90600182811c921680156115c8575b60208310146115b457565b634e487b7160e01b5f52602260045260245ffd5b91607f16916115a9565b80518210156115e65760209160051b010190565b634e487b7160e01b5f52603260045260245ffd5b1561160157565b60405162461bcd60e51b815260206004820152602860248201527f455243313135353a2069647320616e6420616d6f756e7473206c656e6774682060448201527f6d69736d617463680000000000000000000000000000000000000000000000006064820152608490fd5b1561167357565b60405162461bcd60e51b815260206004820152602560248201527f455243313135353a207472616e7366657220746f20746865207a65726f20616460448201527f64726573730000000000000000000000000000000000000000000000000000006064820152608490fd5b156116e557565b60405162461bcd60e51b815260206004820152602a60248201527f455243313135353a20696e73756666696369656e742062616c616e636520666f60448201527f72207472616e73666572000000000000000000000000000000000000000000006064820152608490fd5b9190820180921161175d57565b634e487b7160e01b5f52601160045260245ffd5b90916117886114c8936040845260408401906114cb565b9160208184039101526114cb565b9081602091031261019a57516001600160e01b03198116810361019a5790565b5f9060033d116117c257565b905060045f803e5f5160e01c90565b5f60443d106114c8576040513d600319016004823e8051913d602484011167ffffffffffffffff84111761183f578282019283519167ffffffffffffffff8311611837573d8401600319018584016020011161183757506114c8929101602001906113ac565b949350505050565b92915050565b9190820391821161175d57565b604051906118616040836113ac565b600182526020808301903682378251156115e6575290565b1561188057565b60405162461bcd60e51b815260206004820152602160248201527f455243313135353a206d696e7420746f20746865207a65726f206164647265736044820152607360f81b6064820152608490fd5b156118d657565b60405162461bcd60e51b815260206004820152602360248201527f455243313135353a206275726e2066726f6d20746865207a65726f206164647260448201526265737360e81b6064820152608490fd5b1561192e57565b60405162461bcd60e51b8152602060048201526024808201527f455243313135353a206275726e20616d6f756e7420657863656564732062616c604482015263616e636560e01b6064820152608490fdfea2646970667358221220af0e1135990249a88a4a3712cc4d458c53548d39c38959bd9605848b9bd9615964736f6c634300081a0033","linkReferences":{}},"methodIdentifiers":{"balanceOf(address,uint256)":"00fdd58e","balanceOfBatch(address[],uint256[])":"4e1273f4","burn(address,uint256,uint256)":"f5298aca","burnBatch(address,uint256[],uint256[])":"6b20c454","exists(uint256)":"4f558e79","isApprovedForAll(address,address)":"e985e9c5","mint(address,uint256,uint256,bytes)":"731133e9","mintBatch(address,uint256[],uint256[],bytes)":"1f7fdffa","safeBatchTransferFrom(address,address,uint256[],uint256[],bytes)":"2eb2c2d6","safeTransferFrom(address,address,uint256,uint256,bytes)":"f242432a","setApprovalForAll(address,bool)":"a22cb465","setURI(string)":"02fe5305","supportsInterface(bytes4)":"01ffc9a7","totalSupply(uint256)":"bd85b039","uri(uint256)":"0e89341c"},"id":163}