{"abi":[{"type":"function","name":"current","inputs":[],"outputs":[{"name":"","type":"uint256","internalType":"uint256"}],"stateMutability":"view"},{"type":"function","name":"decrement","inputs":[],"outputs":[],"stateMutability":"nonpayable"},{"type":"function","name":"increment","inputs":[],"outputs":[],"stateMutability":"nonpayable"},{"type":"function","name":"reset","inputs":[],"outputs":[],"stateMutability":"nonpayable"}],"bytecode":{"object":"0x60808060405234601557610122908161001a8239f35b5f80fdfe60808060405260043610156011575f80fd5b5f3560e01c9081632baeceb714608c575080639fa6a6e3146072578063d09de08a14605a5763d826f88f146043575f80fd5b346056575f3660031901126056575f8055005b5f80fd5b346056575f3660031901126056575f80546001019055005b346056575f36600319011260565760205f54604051908152f35b346056575f3660031901126056575f5490811560aa57505f19015f55005b62461bcd60e51b815260206004820152601b60248201527f436f756e7465723a2064656372656d656e74206f766572666c6f7700000000006044820152606490fdfea264697066735822122003c21dbe31d2e4e106ad6091cf98e404c03bc74d5990b14f6e40d74f30124c3964736f6c634300081a0033","linkReferences":{}},"methodIdentifiers":{"current()":"9fa6a6e3","decrement()":"2baeceb7","increment()":"d09de08a","reset()":"d826f88f"},"id":154}