{"abi":[{"type":"constructor","inputs":[{"name":"_poolManager","type":"address","internalType":"contract IPoolManager"},{"name":"_permit2","type":"address","internalType":"contract IAllowanceTransfer"}],"stateMutability":"nonpayable"},{"type":"function","name":"DOMAIN_SEPARATOR","inputs":[],"outputs":[{"name":"","type":"bytes32","internalType":"bytes32"}],"stateMutability":"view"},{"type":"function","name":"approve","inputs":[{"name":"spender","type":"address","internalType":"address"},{"name":"id","type":"uint256","internalType":"uint256"}],"outputs":[],"stateMutability":"nonpayable"},{"type":"function","name":"balanceOf","inputs":[{"name":"owner","type":"address","internalType":"address"}],"outputs":[{"name":"","type":"uint256","internalType":"uint256"}],"stateMutability":"view"},{"type":"function","name":"getApproved","inputs":[{"name":"","type":"uint256","internalType":"uint256"}],"outputs":[{"name":"","type":"address","internalType":"address"}],"stateMutability":"view"},{"type":"function","name":"getPositionConfigId","inputs":[{"name":"tokenId","type":"uint256","internalType":"uint256"}],"outputs":[{"name":"","type":"bytes32","internalType":"bytes32"}],"stateMutability":"view"},{"type":"function","name":"getPositionLiquidity","inputs":[{"name":"tokenId","type":"uint256","internalType":"uint256"},{"name":"config","type":"tuple","internalType":"struct PositionConfig","components":[{"name":"poolKey","type":"tuple","internalType":"struct PoolKey","components":[{"name":"currency0","type":"address","internalType":"Currency"},{"name":"currency1","type":"address","internalType":"Currency"},{"name":"fee","type":"uint24","internalType":"uint24"},{"name":"tickSpacing","type":"int24","internalType":"int24"},{"name":"hooks","type":"address","internalType":"contract IHooks"}]},{"name":"tickLower","type":"int24","internalType":"int24"},{"name":"tickUpper","type":"int24","internalType":"int24"}]}],"outputs":[{"name":"liquidity","type":"uint128","internalType":"uint128"}],"stateMutability":"view"},{"type":"function","name":"hasSubscriber","inputs":[{"name":"tokenId","type":"uint256","internalType":"uint256"}],"outputs":[{"name":"","type":"bool","internalType":"bool"}],"stateMutability":"view"},{"type":"function","name":"initializePool","inputs":[{"name":"key","type":"tuple","internalType":"struct PoolKey","components":[{"name":"currency0","type":"address","internalType":"Currency"},{"name":"currency1","type":"address","internalType":"Currency"},{"name":"fee","type":"uint24","internalType":"uint24"},{"name":"tickSpacing","type":"int24","internalType":"int24"},{"name":"hooks","type":"address","internalType":"contract IHooks"}]},{"name":"sqrtPriceX96","type":"uint160","internalType":"uint160"},{"name":"hookData","type":"bytes","internalType":"bytes"}],"outputs":[{"name":"","type":"int24","internalType":"int24"}],"stateMutability":"nonpayable"},{"type":"function","name":"isApprovedForAll","inputs":[{"name":"","type":"address","internalType":"address"},{"name":"","type":"address","internalType":"address"}],"outputs":[{"name":"","type":"bool","internalType":"bool"}],"stateMutability":"view"},{"type":"function","name":"modifyLiquidities","inputs":[{"name":"unlockData","type":"bytes","internalType":"bytes"},{"name":"deadline","type":"uint256","internalType":"uint256"}],"outputs":[],"stateMutability":"payable"},{"type":"function","name":"modifyLiquiditiesWithoutUnlock","inputs":[{"name":"actions","type":"bytes","internalType":"bytes"},{"name":"params","type":"bytes[]","internalType":"bytes[]"}],"outputs":[],"stateMutability":"payable"},{"type":"function","name":"msgSender","inputs":[],"outputs":[{"name":"","type":"address","internalType":"address"}],"stateMutability":"view"},{"type":"function","name":"multicall","inputs":[{"name":"data","type":"bytes[]","internalType":"bytes[]"}],"outputs":[{"name":"results","type":"bytes[]","internalType":"bytes[]"}],"stateMutability":"payable"},{"type":"function","name":"name","inputs":[],"outputs":[{"name":"","type":"string","internalType":"string"}],"stateMutability":"view"},{"type":"function","name":"nextTokenId","inputs":[],"outputs":[{"name":"","type":"uint256","internalType":"uint256"}],"stateMutability":"view"},{"type":"function","name":"nonces","inputs":[{"name":"owner","type":"address","internalType":"address"},{"name":"word","type":"uint256","internalType":"uint256"}],"outputs":[{"name":"bitmap","type":"uint256","internalType":"uint256"}],"stateMutability":"view"},{"type":"function","name":"ownerOf","inputs":[{"name":"id","type":"uint256","internalType":"uint256"}],"outputs":[{"name":"owner","type":"address","internalType":"address"}],"stateMutability":"view"},{"type":"function","name":"permit","inputs":[{"name":"spender","type":"address","internalType":"address"},{"name":"tokenId","type":"uint256","internalType":"uint256"},{"name":"deadline","type":"uint256","internalType":"uint256"},{"name":"nonce","type":"uint256","internalType":"uint256"},{"name":"signature","type":"bytes","internalType":"bytes"}],"outputs":[],"stateMutability":"payable"},{"type":"function","name":"permit","inputs":[{"name":"owner","type":"address","internalType":"address"},{"name":"permitSingle","type":"tuple","internalType":"struct IAllowanceTransfer.PermitSingle","components":[{"name":"details","type":"tuple","internalType":"struct IAllowanceTransfer.PermitDetails","components":[{"name":"token","type":"address","internalType":"address"},{"name":"amount","type":"uint160","internalType":"uint160"},{"name":"expiration","type":"uint48","internalType":"uint48"},{"name":"nonce","type":"uint48","internalType":"uint48"}]},{"name":"spender","type":"address","internalType":"address"},{"name":"sigDeadline","type":"uint256","internalType":"uint256"}]},{"name":"signature","type":"bytes","internalType":"bytes"}],"outputs":[],"stateMutability":"payable"},{"type":"function","name":"permit2","inputs":[],"outputs":[{"name":"","type":"address","internalType":"contract IAllowanceTransfer"}],"stateMutability":"view"},{"type":"function","name":"permitBatch","inputs":[{"name":"owner","type":"address","internalType":"address"},{"name":"_permitBatch","type":"tuple","internalType":"struct IAllowanceTransfer.PermitBatch","components":[{"name":"details","type":"tuple[]","internalType":"struct IAllowanceTransfer.PermitDetails[]","components":[{"name":"token","type":"address","internalType":"address"},{"name":"amount","type":"uint160","internalType":"uint160"},{"name":"expiration","type":"uint48","internalType":"uint48"},{"name":"nonce","type":"uint48","internalType":"uint48"}]},{"name":"spender","type":"address","internalType":"address"},{"name":"sigDeadline","type":"uint256","internalType":"uint256"}]},{"name":"signature","type":"bytes","internalType":"bytes"}],"outputs":[],"stateMutability":"payable"},{"type":"function","name":"permitForAll","inputs":[{"name":"owner","type":"address","internalType":"address"},{"name":"operator","type":"address","internalType":"address"},{"name":"approved","type":"bool","internalType":"bool"},{"name":"deadline","type":"uint256","internalType":"uint256"},{"name":"nonce","type":"uint256","internalType":"uint256"},{"name":"signature","type":"bytes","internalType":"bytes"}],"outputs":[],"stateMutability":"payable"},{"type":"function","name":"poolManager","inputs":[],"outputs":[{"name":"","type":"address","internalType":"contract IPoolManager"}],"stateMutability":"view"},{"type":"function","name":"revokeNonce","inputs":[{"name":"nonce","type":"uint256","internalType":"uint256"}],"outputs":[],"stateMutability":"payable"},{"type":"function","name":"safeTransferFrom","inputs":[{"name":"from","type":"address","internalType":"address"},{"name":"to","type":"address","internalType":"address"},{"name":"id","type":"uint256","internalType":"uint256"}],"outputs":[],"stateMutability":"nonpayable"},{"type":"function","name":"safeTransferFrom","inputs":[{"name":"from","type":"address","internalType":"address"},{"name":"to","type":"address","internalType":"address"},{"name":"id","type":"uint256","internalType":"uint256"},{"name":"data","type":"bytes","internalType":"bytes"}],"outputs":[],"stateMutability":"nonpayable"},{"type":"function","name":"setApprovalForAll","inputs":[{"name":"operator","type":"address","internalType":"address"},{"name":"approved","type":"bool","internalType":"bool"}],"outputs":[],"stateMutability":"nonpayable"},{"type":"function","name":"subscribe","inputs":[{"name":"tokenId","type":"uint256","internalType":"uint256"},{"name":"config","type":"tuple","internalType":"struct PositionConfig","components":[{"name":"poolKey","type":"tuple","internalType":"struct PoolKey","components":[{"name":"currency0","type":"address","internalType":"Currency"},{"name":"currency1","type":"address","internalType":"Currency"},{"name":"fee","type":"uint24","internalType":"uint24"},{"name":"tickSpacing","type":"int24","internalType":"int24"},{"name":"hooks","type":"address","internalType":"contract IHooks"}]},{"name":"tickLower","type":"int24","internalType":"int24"},{"name":"tickUpper","type":"int24","internalType":"int24"}]},{"name":"newSubscriber","type":"address","internalType":"address"},{"name":"data","type":"bytes","internalType":"bytes"}],"outputs":[],"stateMutability":"payable"},{"type":"function","name":"subscriber","inputs":[{"name":"tokenId","type":"uint256","internalType":"uint256"}],"outputs":[{"name":"subscriber","type":"address","internalType":"contract ISubscriber"}],"stateMutability":"view"},{"type":"function","name":"supportsInterface","inputs":[{"name":"interfaceId","type":"bytes4","internalType":"bytes4"}],"outputs":[{"name":"","type":"bool","internalType":"bool"}],"stateMutability":"view"},{"type":"function","name":"symbol","inputs":[],"outputs":[{"name":"","type":"string","internalType":"string"}],"stateMutability":"view"},{"type":"function","name":"tokenURI","inputs":[{"name":"","type":"uint256","internalType":"uint256"}],"outputs":[{"name":"","type":"string","internalType":"string"}],"stateMutability":"pure"},{"type":"function","name":"transferFrom","inputs":[{"name":"from","type":"address","internalType":"address"},{"name":"to","type":"address","internalType":"address"},{"name":"id","type":"uint256","internalType":"uint256"}],"outputs":[],"stateMutability":"nonpayable"},{"type":"function","name":"unlockCallback","inputs":[{"name":"data","type":"bytes","internalType":"bytes"}],"outputs":[{"name":"","type":"bytes","internalType":"bytes"}],"stateMutability":"nonpayable"},{"type":"function","name":"unsubscribe","inputs":[{"name":"tokenId","type":"uint256","internalType":"uint256"},{"name":"config","type":"tuple","internalType":"struct PositionConfig","components":[{"name":"poolKey","type":"tuple","internalType":"struct PoolKey","components":[{"name":"currency0","type":"address","internalType":"Currency"},{"name":"currency1","type":"address","internalType":"Currency"},{"name":"fee","type":"uint24","internalType":"uint24"},{"name":"tickSpacing","type":"int24","internalType":"int24"},{"name":"hooks","type":"address","internalType":"contract IHooks"}]},{"name":"tickLower","type":"int24","internalType":"int24"},{"name":"tickUpper","type":"int24","internalType":"int24"}]},{"name":"data","type":"bytes","internalType":"bytes"}],"outputs":[],"stateMutability":"payable"},{"type":"event","name":"Approval","inputs":[{"name":"owner","type":"address","indexed":true,"internalType":"address"},{"name":"spender","type":"address","indexed":true,"internalType":"address"},{"name":"id","type":"uint256","indexed":true,"internalType":"uint256"}],"anonymous":false},{"type":"event","name":"ApprovalForAll","inputs":[{"name":"owner","type":"address","indexed":true,"internalType":"address"},{"name":"operator","type":"address","indexed":true,"internalType":"address"},{"name":"approved","type":"bool","indexed":false,"internalType":"bool"}],"anonymous":false},{"type":"event","name":"MintPosition","inputs":[{"name":"tokenId","type":"uint256","indexed":true,"internalType":"uint256"},{"name":"config","type":"tuple","indexed":false,"internalType":"struct PositionConfig","components":[{"name":"poolKey","type":"tuple","internalType":"struct PoolKey","components":[{"name":"currency0","type":"address","internalType":"Currency"},{"name":"currency1","type":"address","internalType":"Currency"},{"name":"fee","type":"uint24","internalType":"uint24"},{"name":"tickSpacing","type":"int24","internalType":"int24"},{"name":"hooks","type":"address","internalType":"contract IHooks"}]},{"name":"tickLower","type":"int24","internalType":"int24"},{"name":"tickUpper","type":"int24","internalType":"int24"}]}],"anonymous":false},{"type":"event","name":"Subscribed","inputs":[{"name":"tokenId","type":"uint256","indexed":false,"internalType":"uint256"},{"name":"subscriber","type":"address","indexed":false,"internalType":"address"}],"anonymous":false},{"type":"event","name":"Transfer","inputs":[{"name":"from","type":"address","indexed":true,"internalType":"address"},{"name":"to","type":"address","indexed":true,"internalType":"address"},{"name":"id","type":"uint256","indexed":true,"internalType":"uint256"}],"anonymous":false},{"type":"event","name":"Unsubscribed","inputs":[{"name":"tokenId","type":"uint256","indexed":false,"internalType":"uint256"},{"name":"subscriber","type":"address","indexed":false,"internalType":"address"}],"anonymous":false},{"type":"error","name":"AlreadySubscribed","inputs":[{"name":"subscriber","type":"address","internalType":"address"}]},{"type":"error","name":"ContractLocked","inputs":[]},{"type":"error","name":"DeadlinePassed","inputs":[]},{"type":"error","name":"DeltaNotNegative","inputs":[{"name":"currency","type":"address","internalType":"Currency"}]},{"type":"error","name":"DeltaNotPositive","inputs":[{"name":"currency","type":"address","internalType":"Currency"}]},{"type":"error","name":"IncorrectPositionConfigForTokenId","inputs":[{"name":"tokenId","type":"uint256","internalType":"uint256"}]},{"type":"error","name":"InputLengthMismatch","inputs":[]},{"type":"error","name":"InvalidBips","inputs":[]},{"type":"error","name":"InvalidContractSignature","inputs":[]},{"type":"error","name":"InvalidSignature","inputs":[]},{"type":"error","name":"InvalidSignatureLength","inputs":[]},{"type":"error","name":"InvalidSigner","inputs":[]},{"type":"error","name":"MaximumAmountExceeded","inputs":[]},{"type":"error","name":"MinimumAmountInsufficient","inputs":[]},{"type":"error","name":"NoSelfPermit","inputs":[]},{"type":"error","name":"NonceAlreadyUsed","inputs":[]},{"type":"error","name":"NotApproved","inputs":[{"name":"caller","type":"address","internalType":"address"}]},{"type":"error","name":"NotPoolManager","inputs":[]},{"type":"error","name":"SignatureDeadlineExpired","inputs":[]},{"type":"error","name":"SliceOutOfBounds","inputs":[]},{"type":"error","name":"Unauthorized","inputs":[]},{"type":"error","name":"UnsupportedAction","inputs":[{"name":"action","type":"uint256","internalType":"uint256"}]},{"type":"error","name":"Wrap__ModifyLiquidityNotificationReverted","inputs":[{"name":"subscriber","type":"address","internalType":"address"},{"name":"reason","type":"bytes","internalType":"bytes"}]},{"type":"error","name":"Wrap__SubsciptionReverted","inputs":[{"name":"subscriber","type":"address","internalType":"address"},{"name":"reason","type":"bytes","internalType":"bytes"}]},{"type":"error","name":"Wrap__TransferNotificationReverted","inputs":[{"name":"subscriber","type":"address","internalType":"address"},{"name":"reason","type":"bytes","internalType":"bytes"}]}],"bytecode":{"object":"0x61012080604052346104745760408161406e80380380916100208285610478565b833981010312610474578051906001600160a01b03821682036104745760200151906001600160a01b038216820361047457604051610060604082610478565b6018815260208101907f556e697377617020563420506f736974696f6e73204e46540000000000000000825260405161009a604082610478565b600b81526a554e492d56342d504f534d60a81b602082015281516001600160401b038111610388575f54600181811c9116801561046a575b602082101461036a57601f8111610408575b50806020601f82116001146103a7575f9161039c575b508160011b915f199060031b1c1916175f555b8051906001600160401b0382116103885760015490600182811c9216801561037e575b602083101461036a5781601f8493116102fc575b50602090601f8311600114610296575f9261028b575b50508160011b915f199060031b1c1916176001555b5190208060c0524660a05260405160208101917f8cad95687ba82c2ce50e74f7b754645e5117c3a5bec8151c0726d5857980a86683526040820152466060820152306080820152608081526101c560a082610478565b51902060805260e052610100526001600855604051613bd2908161049c823960805181611c6b015260a05181611c45015260c05181611cba015260e051818181610b2d01528181611356015281816117c90152818161188501528181611fde01528181612b5301528181612bfb01528181612c7c01528181612d6001528181612dbc015281816135720152818161360a0152818161367e015281816136f501526138a00152610100518181816102fc015281816107f6015281816108e201526136af0152f35b015190505f8061015a565b60015f9081528281209350601f198516905b8181106102e457509084600195949392106102cc575b505050811b0160015561016f565b01515f1960f88460031b161c191690555f80806102be565b929360206001819287860151815501950193016102a8565b60015f529091507fb10e2d527612073b26eecdfd717e6a320cf44b4afac2b0732d9fcbe2b7fa0cf6601f840160051c81019160208510610360575b90601f859493920160051c01905b8181106103525750610144565b5f8155849350600101610345565b9091508190610337565b634e487b7160e01b5f52602260045260245ffd5b91607f1691610130565b634e487b7160e01b5f52604160045260245ffd5b90508301515f6100fa565b5f8080528181209250601f198416905b8181106103f0575090836001949392106103d8575b5050811b015f5561010d565b8501515f1960f88460031b161c191690555f806103cc565b9192602060018192868a0151815501940192016103b7565b5f80527f290decd9548b62a8d60345a988386fc84ba6bc95484008f6362f93160ef3e563601f830160051c81019160208410610460575b601f0160051c01905b81811061045557506100e4565b5f8155600101610448565b909150819061043f565b90607f16906100d2565b5f80fd5b601f909101601f19168101906001600160401b038211908210176103885760405256fe60806040526004361015610011575f80fd5b5f3560e01c80622a3e3a1461024357806301ffc9a71461023e57806305c1ee201461023957806306fdde0314610234578063081812fc1461022f578063095ea7b31461022a5780630f5730f11461022557806312261ee71461022057806316a241311461021b57806323b872dd146102165780632b67b570146102115780633355c2131461020c5780633644e515146102075780633aea60f0146102025780633b1fda97146101fd57806342842e0e146101f857806345074cef146101f35780634afe393c146101ee578063502e1a16146101e957806357b22ebf146101e45780636352211e146101df578063635ba6de146101da578063645add16146101d557806370a08231146101d057806375794a3c146101cb57806391dd7346146101c657806395d89b41146101c1578063a22cb465146101bc578063ac9650d8146101b7578063b88d4fde146101b2578063c87b56dd146101ad578063d737d0c7146101a8578063dc4c90d3146101a3578063dd46508f1461019e5763e985e9c514610199575f80fd5b61193f565b6117ed565b6117aa565b611778565b611718565b61160e565b61152f565b61149d565b6113e8565b61131a565b6112fd565b61126c565b611082565b610e3e565b610e0f565b610ddc565b610d92565b610cef565b610c84565b610ba5565b610a95565b6109d2565b6109a1565b610972565b610890565b610879565b61081a565b6107d7565b610701565b610674565b610641565b610551565b6104bc565b61044e565b610298565b6001600160a01b0381160361025957565b5f80fd5b359061026882610248565b565b9181601f840112156102595782359167ffffffffffffffff8311610259576020838186019501011161025957565b6060366003190112610259576004356102b081610248565b60243567ffffffffffffffff81116102595780360360606003198201126102595760443567ffffffffffffffff8111610259576102f190369060040161026a565b906001600160a01b037f00000000000000000000000000000000000000000000000000000000000000001693843b15610259576001600160a01b0360405196632a2d80d160e01b88521660048701526060602487015260c4860193816004013590602219018112156102595781016024600482013591019467ffffffffffffffff8211610259578160071b360386136102595760606064890152819052869460e48601949392915f5b818110610414575050506103e95f9694869488946044856103d16103c160248b990161025d565b6001600160a01b03166084890152565b013560a4860152848303600319016044860152611a82565b03925af1801561040f576103f957005b806104075f61040d936104f2565b806104d4565b005b611aa2565b919650919293946080808261042b6001948b611a23565b01970191019188969594939261039a565b6001600160e01b031981160361025957565b3461025957602036600319011261025957602060043561046d8161043c565b63ffffffff60e01b166301ffc9a760e01b81149081156104ab575b811561049a575b506040519015158152f35b635b5e139f60e01b1490505f61048f565b6380ac58cd60e01b81149150610488565b60203660031901126102595761040d600435336121f5565b5f91031261025957565b634e487b7160e01b5f52604160045260245ffd5b90601f8019910116810190811067ffffffffffffffff82111761051457604052565b6104de565b805180835260209291819084018484015e5f828201840152601f01601f1916010190565b90602061054e928181520190610519565b90565b34610259575f366003190112610259576040515f80548060011c9060018116908115610637575b60208310821461062357828552602085019190811561060a57506001146105ba575b6105b6846105aa818603826104f2565b6040519182918261053d565b0390f35b5f8080529250907f290decd9548b62a8d60345a988386fc84ba6bc95484008f6362f93160ef3e5635b8184106105f6575050016105aa8261059a565b8054848401526020909301926001016105e3565b60ff191682525090151560051b0190506105aa8261059a565b634e487b7160e01b5f52602260045260245ffd5b91607f1691610578565b34610259576020366003190112610259576004355f52600460205260206001600160a01b0360405f205416604051908152f35b346102595760403660031901126102595760043561069181610248565b602435805f5260026020526001600160a01b0360405f2054169182331415806106d0575b6106c25761040d9261223c565b6282b42960e81b5f5260045ffd5b50825f52600560205260ff6106f93360405f20906001600160a01b03165f5260205260405f2090565b5416156106b5565b60a03660031901126102595760043561071981610248565b602435604435916064359260843567ffffffffffffffff81116102595761074490369060040161026a565b948242116107c8576107bd60a0936107c39361040d986107b76107668a612098565b9788946107738b876122a8565b604051907f49ecf333e5b8c95c40fdafc95c1ad136e8914a8fb55e9dc8bb01eaa83a2df9ad82528b60208301528c60408301528860608301526080820152206122ca565b9161235e565b826121f5565b61223c565b635a9165ff60e01b5f5260045ffd5b34610259575f3660031901126102595760206040516001600160a01b037f0000000000000000000000000000000000000000000000000000000000000000168152f35b34610259576020366003190112610259576004355f52600760205260206001600160a01b0360405f205416604051908152f35b60609060031901126102595760043561086581610248565b9060243561087281610248565b9060443590565b346102595761040d61088a3661084d565b91611aad565b610100366003190112610259576004356108a981610248565b60c03660231901126102595760e43567ffffffffffffffff8111610259576108d590369060040161026a565b6001600160a01b039291927f000000000000000000000000000000000000000000000000000000000000000016803b15610259576001600160a01b035f80946103e9604051978896879586946302b67b5760e41b865216600485015261093d602485016119b8565b6001600160a01b0360a43561095181610248565b1660a485015260c43560c485015261010060e4850152610104840191611a82565b34610259576020366003190112610259576004355f526009602052602060405f205460ff1c6040519015158152f35b34610259575f3660031901126102595760206109bb611c42565b604051908152f35b60443590811515820361025957565b60c0366003190112610259576004356109ea81610248565b6024356109f681610248565b6109fe6109c3565b906064359260843560a43567ffffffffffffffff811161025957610a2690369060040161026a565b8692919242116107c85783610a90936107bd926107b760a061040d9b610a4c8b876122a8565b604051907f6673cb397ee2a50b6b8401653d3638b4ac8b3db9c28aa6870ffceb7574ec2f7682528b60208301528c60408301528860608301526080820152206122ca565b612693565b3461025957366003190160e081126102595760a0136102595760a435610aba81610248565b60c4359067ffffffffffffffff8211610259576001600160a01b03602091610ae9610b2094369060040161026a565b9490604051958694859463695c5bf560e01b8652610b0960048701611d2f565b1660a485015260e060c485015260e4840191611a82565b03815f6001600160a01b037f0000000000000000000000000000000000000000000000000000000000000000165af1801561040f576105b6915f91610b76575b5060405160029190910b81529081906020820190565b610b98915060203d602011610b9e575b610b9081836104f2565b810190611d0a565b5f610b60565b503d610b86565b3461025957610bb33661084d565b91610bbf838383611aad565b813b15918215610bd3575b61040d83611e1f565b602092506001600160a01b03915f8360a4936040519788968795630a85bd0160e11b8752336004880152166024860152604485015260806064850152826084850152165af1801561040f5761040d915f91610c44575b506001600160e01b031916630a85bd0160e11b145f80610bca565b610c66915060203d602011610c6c575b610c5e81836104f2565b810190611e0a565b5f610c29565b503d610c54565b60e090602319011261025957602490565b3461025957610100366003190112610259576020610cad600435610ca736610c73565b90611f06565b6001600160801b0360405191168152f35b9181601f840112156102595782359167ffffffffffffffff8311610259576020808501948460051b01011161025957565b60403660031901126102595760043567ffffffffffffffff811161025957610d1b90369060040161026a565b60243567ffffffffffffffff811161025957610d3b903690600401610cbe565b916001600160a01b035f80516020613b7d8339815191525c16610d8357610d7193335f80516020613b7d8339815191525d612724565b5f5f80516020613b7d8339815191525d005b6337affdbf60e11b5f5260045ffd5b3461025957604036600319011261025957600435610daf81610248565b6001600160a01b0360243591165f52600660205260405f20905f52602052602060405f2054604051908152f35b34610259576020366003190112610259576004355f52600960205260206001600160ff1b0360405f205416604051908152f35b34610259576020366003190112610259576020610e2d600435612098565b6001600160a01b0360405191168152f35b61014036600319011261025957600435610e5736610c73565b906101043591610e6683610248565b6101243567ffffffffffffffff811161025957610e8790369060040161026a565b610e948493929333612955565b1561106f57835f5260096020526001600160ff1b0360405f205416610f1283906040519160c0810135603484015260a081013560318401526080810135602e8401526060810135601a84015260408101356017840152602081013560148401523582525f6048600c84012060011c9281604082015281602082015252565b0361105c57610f38610f2c855f52600960205260405f2090565b8054600160ff1b179055565b6001600160a01b03610f62610f55865f52600760205260405f2090565b546001600160a01b031690565b1680611041575091610fea610ff092610fdc610ff495610fbf6001600160a01b038a16610f978a5f52600760205260405f2090565b906001600160a01b031673ffffffffffffffffffffffffffffffffffffffff19825416179055565b604051630503a3c560e21b602082015294859389602486016120f0565b03601f1981018352826104f2565b846129ea565b1590565b61103b57604080519182526001600160a01b0390921660208201527f5db0e562b58e88ae25b795493b5a9c538bb02bd38430aa3194dbf8c68f619f5491819081015b0390a1005b506129fb565b6373a4164960e01b5f526001600160a01b031660045260245ffd5b8363053206af60e51b5f5260045260245ffd5b6301952d1b60e31b5f523360045260245ffd5b6101203660031901126102595760043561109b36610c73565b906101043567ffffffffffffffff8111610259576110bd90369060040161026a565b91906110c98233612955565b1561106f57815f5260096020526001600160ff1b0360405f20541661114785906040519160c0810135603484015260a081013560318401526080810135602e8401526060810135601a84015260408101356017840152602081013560148401523582525f6048600c84012060011c9281604082015281602082015252565b0361125957611170611161835f52600960205260405f2090565b6001600160ff1b038154169055565b611185610f55835f52600760205260405f2090565b936111b861119b845f52600760205260405f2090565b805473ffffffffffffffffffffffffffffffffffffffff19169055565b6001600160a01b036111c945612ace565b951693843b15610259577fcf0a5b88aeaa4455f33d4a50e7ee5e61255edaad94b95183268b86c5f41f4eff9561121b935f8781956040519788968795869363a774548d60e01b85528c600486016120f0565b0393f1611245575b50604080519182526001600160a01b0390921660208201529081908101611036565b806104075f611253936104f2565b5f611223565b5063053206af60e51b5f5260045260245ffd5b34610259576020366003190112610259576001600160a01b0360043561129181610248565b1680156112b8575f5260036020526105b660405f2054604051918291829190602083019252565b60405162461bcd60e51b815260206004820152600c60248201527f5a45524f5f4144445245535300000000000000000000000000000000000000006044820152606490fd5b34610259575f366003190112610259576020600854604051908152f35b346102595760203660031901126102595760043567ffffffffffffffff81116102595761134b90369060040161026a565b906001600160a01b037f00000000000000000000000000000000000000000000000000000000000000001633036113d95780358101602082013582019260208435938503840101116113ca5760206113aa930190602081359101612724565b6105b66040516113bb6020826104f2565b5f81526040519182918261053d565b633b99b53d60e01b5f5260045ffd5b63570c108560e11b5f5260045ffd5b34610259575f366003190112610259576040515f6001548060011c9060018116908115611493575b60208310821461062357828552602085019190811561060a5750600114611441576105b6846105aa818603826104f2565b60015f9081529250907fb10e2d527612073b26eecdfd717e6a320cf44b4afac2b0732d9fcbe2b7fa0cf65b81841061147f575050016105aa8261059a565b80548484015260209093019260010161146c565b91607f1691611410565b34610259576040366003190112610259576004356114ba81610248565b60243580151581036102595761040d9133612693565b602081016020825282518091526040820191602060408360051b8301019401925f915b83831061150257505050505090565b9091929394602080611520600193603f198682030187528951610519565b970193019301919392906114f3565b60203660031901126102595760043567ffffffffffffffff81116102595761155b903690600401610cbe565b9061156582612116565b9161157360405193846104f2565b808352601f1961158282612116565b015f5b8181106115fd5750505f5b8181106115a557604051806105b686826114d0565b5f806115b2838587612142565b906115c260405180938193612189565b0390305af46115cf6121b2565b90156115f557906001916115e382876121e1565b526115ee81866121e1565b5001611590565b602081519101fd5b806060602080938801015201611585565b346102595760803660031901126102595760043561162b81610248565b6024359061163882610248565b60443560643567ffffffffffffffff81116102595761165b90369060040161026a565b939092611669838383611aad565b813b1593841561167d575b61040d85611e1f565b602094506001600160a01b0380926116c65f93604051998a9889978895630a85bd0160e11b87523360048801521660248601526044850152608060648501526084840191611a82565b0393165af1801561040f5761040d915f916116f9575b506001600160e01b031916630a85bd0160e11b145f808080611674565b611712915060203d602011610c6c57610c5e81836104f2565b5f6116dc565b34610259576020366003190112610259576105b660405161173a6040826104f2565b601381527f68747470733a2f2f6578616d706c652e636f6d000000000000000000000000006020820152604051918291602083526020830190610519565b34610259575f3660031901126102595760205f80516020613b7d8339815191525c6001600160a01b0360405191168152f35b34610259575f3660031901126102595760206040516001600160a01b037f0000000000000000000000000000000000000000000000000000000000000000168152f35b60403660031901126102595760043567ffffffffffffffff81116102595761181990369060040161026a565b6024356001600160a01b035f80516020613b7d8339815191525c16610d8357335f80516020613b7d8339815191525d4211611930576040516348c8949160e01b815260206004820152915f918391829161187891602484019190611a82565b0381836001600160a01b037f0000000000000000000000000000000000000000000000000000000000000000165af1801561040f576118ba575b61040d612712565b3d805f833e6118c981836104f2565b8101906020818303126102595780519067ffffffffffffffff8211610259570181601f820112156102595780516118ff81612196565b9261190d60405194856104f2565b81845260208284010111610259575f928160208094018483015e0101525f6118b2565b63387b2e5560e11b5f5260045ffd5b3461025957604036600319011261025957602060ff61199960043561196381610248565b6001600160a01b036024359161197883610248565b165f526005845260405f20906001600160a01b03165f5260205260405f2090565b54166040519015158152f35b359065ffffffffffff8216820361025957565b6001600160a01b036024356119cc81610248565b1681526001600160a01b036044356119e381610248565b16602082015260643565ffffffffffff811680910361025957604082015260843565ffffffffffff811681036102595765ffffffffffff60609116910152565b65ffffffffffff611a7c606080936001600160a01b038135611a4481610248565b1686526001600160a01b036020820135611a5d81610248565b16602087015283611a70604083016119a5565b166040870152016119a5565b16910152565b908060209392818452848401375f828201840152601f01601f1916010190565b6040513d5f823e3d90fd5b82611ad2611ac6610f55835f52600260205260405f2090565b6001600160a01b031690565b611ae76001600160a01b038416918214612518565b6001600160a01b03841690611afd821515612564565b8033148015611bfd575b8015611bd8575b611b17906125b0565b611b32846001600160a01b03165f52600360205260405f2090565b80545f19019055611b54856001600160a01b03165f52600360205260405f2090565b80546001019055611b7185610f97855f52600260205260405f2090565b611b8661119b845f52600460205260405f2090565b7fddf252ad1be2c89b69c2b068fc378daa952ba7f163c4a11628f55a4df523b3ef5f80a4611bc6611bbf845f52600960205260405f2090565b5460ff1c90565b611bcf57505050565b610268926125fc565b50611b17611bf4611ac6610f55865f52600460205260405f2090565b33149050611b0e565b50611c3d611c3633611c20876001600160a01b03165f52600560205260405f2090565b906001600160a01b03165f5260205260405f2090565b5460ff1690565b611b07565b467f000000000000000000000000000000000000000000000000000000000000000003611c8d577f000000000000000000000000000000000000000000000000000000000000000090565b60405160208101907f8cad95687ba82c2ce50e74f7b754645e5117c3a5bec8151c0726d5857980a86682527f0000000000000000000000000000000000000000000000000000000000000000604082015246606082015230608082015260808152611cf960a0826104f2565b51902090565b8060020b0361025957565b90816020910312610259575161054e81611cff565b359062ffffff8216820361025957565b6001600160a01b03600435611d4381610248565b1681526001600160a01b03602435611d5a81610248565b16602082015260443562ffffff811681036102595762ffffff166040820152606435611d8581611cff565b60020b606082015260806001600160a01b03608435611a7c81610248565b6001600160a01b0360808092828135611dbb81610248565b168552826020820135611dcd81610248565b16602086015262ffffff611de360408301611d1f565b1660408601526060810135611df781611cff565b60020b60608601520135611a7c81610248565b90816020910312610259575161054e8161043c565b15611e2657565b60405162461bcd60e51b815260206004820152601060248201527f554e534146455f524543495049454e54000000000000000000000000000000006044820152606490fd5b3561054e81611cff565b604051906102686080836104f2565b91908260a09103126102595760405160a0810181811067ffffffffffffffff8211176105145760405260808082948035611ebd81610248565b84526020810135611ecd81610248565b6020850152611ede60408201611d1f565b60408501526060810135611ef181611cff565b6060850152013591611f0283610248565b0152565b90611f5b60a09182810135611f1a81611cff565b60c0820135611f2881611cff565b604051956026870152600686015260038501523084525f603a600c86012094816040820152816020820152523690611e84565b20604051602081019182526006604082015260408152611f7c6060826104f2565b519020600681018091116120475760408051602081810194855291810192909252611fd2929091611fb08160608101610fdc565b51902060405180938192631e2eaeaf60e01b8352600483019190602083019252565b03816001600160a01b037f0000000000000000000000000000000000000000000000000000000000000000165afa801561040f576001600160801b03915f9161201a57501690565b61203c915060203d602011612040575b61203481836104f2565b810190612703565b1690565b503d61202a565b61231d565b1561205357565b60405162461bcd60e51b815260206004820152600a60248201527f4e4f545f4d494e544544000000000000000000000000000000000000000000006044820152606490fd5b5f5260026020526001600160a01b0360405f2054169061026882151561204c565b60c080916120c78482611da3565b60a08101356120d581611cff565b60020b60a085015201356120e881611cff565b60020b910152565b61210861054e959361012093835260208301906120b9565b816101008201520191611a82565b67ffffffffffffffff81116105145760051b60200190565b634e487b7160e01b5f52603260045260245ffd5b91908110156121845760051b81013590601e198136030182121561025957019081359167ffffffffffffffff8311610259576020018236038113610259579190565b61212e565b908092918237015f815290565b67ffffffffffffffff811161051457601f01601f191660200190565b3d156121dc573d906121c382612196565b916121d160405193846104f2565b82523d5f602084013e565b606090565b80518210156121845760209160051b010190565b906001600160a01b03600160ff83161b92165f52600660205260405f209060081c5f5260205260405f2081815418809155161561222e57565b623f613760e71b5f5260045ffd5b906001600160a01b038091845f52600460205261227f8160405f20906001600160a01b031673ffffffffffffffffffffffffffffffffffffffff19825416179055565b1691167f8c5be1e5ebec7d5bd14f71427d1e84f3dd0314c0f7b2291e5b200ac8c7c3b9255f80a4565b6001600160a01b039081169116146122bc57565b6220381760ea1b5f5260045ffd5b6042906122d5611c42565b906040519161190160f01b8352600283015260228201522090565b60409061054e949281528160208201520191611a82565b9190826040910312610259576020823592013590565b634e487b7160e01b5f52601160045260245ffd5b60ff601b9116019060ff821161204757565b90604010156121845760400190565b90821015612184570190565b90833b61248f576041810361243557906020926123e7836123bf6123b961239361238b5f98880188612307565b949097612343565b357fff000000000000000000000000000000000000000000000000000000000000001690565b60f81c90565b935b604051948594859094939260ff6060936080840197845216602083015260408201520152565b838052039060015afa1561040f576001600160a01b035f5116908115612426576001600160a01b03160361241757565b632057875960e21b5f5260045ffd5b638baa579f60e01b5f5260045ffd5b906040820361248057602092612452825f946123e7940190612307565b92909261247a61247561246f6001600160ff1b0384169360ff1c90565b60ff1690565b612331565b936123c1565b634be6321b60e01b5f5260045ffd5b90926124bd936001600160a01b0360209460405196879586948593630b135d3f60e11b8552600485016122f0565b0392165afa90811561040f575f916124f9575b506001600160e01b0319166374eca2c160e11b016124ea57565b632c19a72f60e21b5f5260045ffd5b612512915060203d602011610c6c57610c5e81836104f2565b5f6124d0565b1561251f57565b60405162461bcd60e51b815260206004820152600a60248201527f57524f4e475f46524f4d000000000000000000000000000000000000000000006044820152606490fd5b1561256b57565b60405162461bcd60e51b815260206004820152601160248201527f494e56414c49445f524543495049454e540000000000000000000000000000006044820152606490fd5b156125b757565b60405162461bcd60e51b815260206004820152600e60248201527f4e4f545f415554484f52495a45440000000000000000000000000000000000006044820152606490fd5b5f9192906001600160a01b03839282845260076020528180604086205416966040519463876fda0760e01b602087015260248601521660448401521660648201526064815261264c6084826104f2565b60208151910182855af11561265e5750565b3d6040519163263bc7b560e01b8352600483015260406024830152806044830152805f606484013e601f801991011660640190fd5b60206001600160a01b03807f17307eab39ab6107e8899845ad3d59bd9653f200f220920489ca2b5937696c31931693845f52600583526126e78160405f20906001600160a01b03165f5260205260405f2090565b9515159560ff1981541660ff88161790556040519586521693a3565b90816020910312610259575190565b5f5f80516020613b7d8339815191525d565b909392808503612946575f5b85811061273f57505050509050565b61274a818785612352565b3560f81c612759828487612142565b91600981101561281b578061278b575061277960019392612785926132aa565b959490949391936133be565b01612730565b600181036127b557506127a4600193926127b0926132aa565b959490949391936132ee565b612785565b600281036127e457506127de6127d1600194936127b0936130a6565b9690959491939293612ae9565b936130f9565b6003810361280957506127fd600193926127b092612ea9565b94939093929192612ee8565b635cda29d760e01b5f5260045260245ffd5b9091506011810361283b5750600191906127b09060208101359035612e7e565b601581036128645750906127b061285e6001938035916040602083013592013590565b91612e5b565b600981036128a55750906127b061289961289f61288d6001958035916040602083013592013590565b93829493929193612cef565b92612d0a565b91612d34565b601281036128e45750906127b06128de6128d86128ce6001958035916040602083013592013590565b9282949291612ae9565b92612c5b565b91612c70565b601781036128fa5750906127b060019235612bf4565b601881036129175750600191906127b09060208101359035612b39565b601981036128095750906127b0612940612938600194906020823592013590565b919091612ae9565b90612b1b565b63aaad13f760e01b5f5260045ffd5b6001600160a01b0361296683612098565b16916001600160a01b0382169283149283156129c9575b50821561298957505090565b60ff9250906001600160a01b036129a26129c493612098565b165f52600560205260405f20906001600160a01b03165f5260205260405f2090565b541690565b908093505f5260046020526001600160a01b0360405f20541614915f61297d565b5f91829182602083519301915af190565b3d60405191633c2a9fb560e21b8352600483015260406024830152806044830152805f606484013e601f801991011660640190fd5b3d60405191632c4b17e760e21b8352600483015260406024830152806044830152805f606484013e601f801991011660640190fd5b3d60405191638549db5960e01b8352600483015260406024830152806044830152805f606484013e601f801991011660640190fd5b3d60405191622ad16d60e61b8352600483015260406024830152806044830152805f606484013e601f801991011660640190fd5b60648102908082046064149015171561204757612710900490565b6001600160a01b03811660018103612b0f5750505f80516020613b7d8339815191525c90565b60020361054e57503090565b90612b2582613478565b9081612b3057505050565b610268926134de565b612b428161356b565b918211612bca576001600160a01b037f00000000000000000000000000000000000000000000000000000000000000001690813b156102595760446001600160a01b03915f8094604051968795869463203c2d1360e21b865216600485015260248401525af1801561040f57612bb55750565b80612bc15f80936104f2565b80031261025957565b90610268915f80516020613b7d8339815191525c90612c70565b600160ff1b8114612047575f0390565b612c1f81307f00000000000000000000000000000000000000000000000000000000000000006135be565b5f80516020613b7d8339815191525c905f811215612c45579061289f6102689392612be4565b905f8213612c5257505050565b61026892612c70565b908115612c66575090565b61054e915061356b565b90916001600160a01b037f000000000000000000000000000000000000000000000000000000000000000016803b15610259575f92836064926001600160a01b0394856040519889978896630b0d9c0960e01b885216600487015216602485015260448401525af1801561040f57612ce55750565b5f610268916104f2565b15612d06575f80516020613b7d8339815191525c90565b3090565b90600160ff1b8203612d205761054e9150613478565b8115612d2a575090565b61054e9150613603565b91906001600160a01b038316612db25750604051630476982d60e21b81529150602090829060049082907f00000000000000000000000000000000000000000000000000000000000000006001600160a01b03165af1801561040f57612d975750565b612daf9060203d6020116120405761203481836104f2565b50565b6001600160a01b037f00000000000000000000000000000000000000000000000000000000000000001690813b1561025957604051632961046560e21b81526001600160a01b0385166004820152925f8460248183875af191821561040f575f95602095612e2594612e47575b5061365c565b600460405180948193630476982d60e21b83525af1801561040f57612d975750565b8061040789612e55936104f2565b5f612e1f565b612e75612e6a61026894612ae9565b91826128de8261356b565b6128de8261356b565b9061026891612ea05f80516020613b7d8339815191525c918261289f82613603565b61289f82613603565b909181359260208301926101008101359261012082013592610140830135830190602082359483038501019081851161204757106113ca576020019190565b939594955f80516020613b7d8339815191525c612f058682612955565b1561308a5750845f5260096020526001600160ff1b0360405f205416612f8483906040519160c0810135603484015260a081013560318401526080810135602e8401526060810135601a84015260408101356017840152602081013560148401523582525f6048600c84012060011c9281604082015281602082015252565b03613077578495966001600160801b03612f9e8488611f06565b16918261303e575b5050505050505f5260096020525f6040812055805f5260026020525f6001600160a01b03604082205416612fdb81151561204c565b8082526003602052604082208219815401905561300361119b845f52600260205260405f2090565b61301861119b845f52600460205260405f2090565b7fddf252ad1be2c89b69c2b068fc378daa952ba7f163c4a11628f55a4df523b3ef8280a4565b61306b966130669461305a61305561306096613754565b612be4565b9061382a565b90613947565b61397b565b805f8080808080612fa6565b8463053206af60e51b5f5260045260245ffd5b6001600160a01b03906301952d1b60e31b5f521660045260245ffd5b9160e083013591610100840135916101208501359161014086013591610160870135870180359288820384016020019081851161204757106113ca576020019190565b60e08101929161026891906120b9565b92909594939160085496600188016008556001600160a01b03841690613120821515612564565b885f5260026020526001600160a01b0360405f205416613265577f6cd04883f8403d89a9190c0a8c58275a0cd6a294ebca6f5e90f119f626b3758497613260978a6131d261306094826131d8976131a88c61318f6131dd9e6001600160a01b03165f52600360205260405f2090565b80546001019055610f97845f52600260205260405f2090565b5f7fddf252ad1be2c89b69c2b068fc378daa952ba7f163c4a11628f55a4df523b3ef8180a4613754565b8961382a565b6139fa565b6131ef845f52600960205260405f2090565b61325282906040519160c0810135603484015260a081013560318401526080810135602e8401526060810135601a84015260408101356017840152602081013560148401523582525f6048600c84012060011c9281604082015281602082015252565b9055604051918291826130e9565b0390a2565b60405162461bcd60e51b815260206004820152600e60248201527f414c52454144595f4d494e5445440000000000000000000000000000000000006044820152606490fd5b8035926020820192610100830135926101208101359261014082013592610160830135830190602082359483038501019081851161204757106113ca576020019190565b9695929394915f80516020613b7d8339815191525c61330d8982612955565b1561308a5750875f5260096020526001600160ff1b0360405f20541661338c83906040519160c0810135603484015260a081013560318401526080810135602e8401526060810135601a84015260408101356017840152602081013560148401523582525f6048600c84012060011c9281604082015281602082015252565b036133ab57916102689697613066949261305a61305561306096613754565b8763053206af60e51b5f5260045260245ffd5b9695929394915f80516020613b7d8339815191525c6133dd8982612955565b1561308a5750875f5260096020526001600160ff1b0360405f20541661345c83906040519160c0810135603484015260a081013560318401526080810135602e8401526060810135601a84015260408101356017840152602081013560148401523582525f6048600c84012060011c9281604082015281602082015252565b036133ab579161026896976131d8949261305a61306095613754565b6001600160a01b03811661348b57504790565b6040516370a0823160e01b815230600482015290602090829060249082906001600160a01b03165afa90811561040f575f916134c5575090565b61054e915060203d6020116120405761203481836104f2565b9091906001600160a01b03811661350b57505f8080806134ff94865af11590565b6135065750565b612a65565b91906001600160a01b036040519263a9059cbb60e01b845216600483015260248201525f604060208260448582885af13d15601f3d1160018551141617169282815282602082015201521561355d5750565b6001600160a01b0316612a30565b61359681307f00000000000000000000000000000000000000000000000000000000000000006135be565b905f82126135a2575090565b6001600160a01b0390634c085bf160e01b5f521660045260245ffd5b6001600160a01b03809381602094165f52168252602460405f20604051948593849263789add5560e11b84526004840152165afa90811561040f575f916134c5575090565b61362e81307f00000000000000000000000000000000000000000000000000000000000000006135be565b905f8213613640575061054e90612be4565b6001600160a01b039063019a8d9360e51b5f521660045260245ffd5b9091906001600160a01b03831630036136a45761026892506001600160a01b037f000000000000000000000000000000000000000000000000000000000000000016906134de565b906001600160a01b037f000000000000000000000000000000000000000000000000000000000000000016803b1561025957604051631b63c28b60e11b81526001600160a01b0394851660048201527f00000000000000000000000000000000000000000000000000000000000000008516602482015291841660448301529190921660648301525f908290608490829084905af1801561040f576137465750565b806104075f610268936104f2565b905f821261375e57565b6393dafdf160e01b5f5260045ffd5b9190826040910312610259576020825192015190565b606061054e95936137978361014095611da3565b805160020b60a0840152602081015160020b60c0840152604081015160e08401520151610100820152816101208201520191611a82565b91909160e08184031261025957604051906060820182811067ffffffffffffffff8211176105145760409160c0918352613809849682611e84565b845260a081013561381981611cff565b6020850152013591611f0283611cff565b91949260409061383c60a08501611e6b565b61386a61384b60c08701611e6b565b613860613856611e75565b93849060020b9052565b60020b6020830152565b838382015287606082015261389383519788938493632d35e7ed60e11b85528860048601613783565b03815f6001600160a01b037f0000000000000000000000000000000000000000000000000000000000000000165af190811561040f575f945f92613913575b508194956138eb611bbf825f52600960205260405f2090565b6138f6575b50505050565b61390461390a9436906137ce565b90613a8b565b5f8080806138f0565b909450613938915060403d604011613940575b61393081836104f2565b81019061376d565b90935f6138d2565b503d613926565b61396a9061395c8360801d8260801d03613b58565b92600f0b90600f0b03613b58565b6001600160801b03169060801b1790565b91906001600160801b03806139928560801d613b66565b92169116109182156139b6575b50506139a757565b639ad5ea6960e01b5f5260045ffd5b6001600160801b039192506139ce8291600f0b613b66565b92169116105f8061399f565b600f0b6f7fffffffffffffffffffffffffffffff198114612047575f0390565b9190918060801d925f84600f0b129384613a69575b50508215613a2f575b5050613a2057565b6338dde60f60e21b5f5260045ffd5b909150600f0b905f82129182613a49575b50505f80613a18565b6001600160801b03919250613a5e82916139da565b169116105f80613a40565b6001600160801b0391929450613a7f82916139da565b16911610915f80613a0f565b610ff09193613b4c93825f526007602052613b2960406001600160a01b03815f2054169781519563a6ae447d60e01b602088015260248701526001600160a01b03608082518281511660448a01528260208201511660648a015262ffffff858201511660848a0152606081015160020b60a48a015201511660c4870152613b1c602082015160e488019060020b9052565b015160020b610104850152565b6101248301526101448201526101448152613b46610164826104f2565b836129ea565b613b535750565b612a9a565b9081600f0b91820361375e57565b5f81600f0b1261375e576001600160801b03169056fe0aedd6bde10e3aa2adec092b02a3e3e805795516cda41f27aa145b8f300af87aa2646970667358221220730a6c718c9710b7de46081daebb33dce0e2009fa451824e4f613320f537da9164736f6c634300081a0033","linkReferences":{}},"methodIdentifiers":{"DOMAIN_SEPARATOR()":"3644e515","approve(address,uint256)":"095ea7b3","balanceOf(address)":"70a08231","getApproved(uint256)":"081812fc","getPositionConfigId(uint256)":"57b22ebf","getPositionLiquidity(uint256,((address,address,uint24,int24,address),int24,int24))":"45074cef","hasSubscriber(uint256)":"3355c213","initializePool((address,address,uint24,int24,address),uint160,bytes)":"3b1fda97","isApprovedForAll(address,address)":"e985e9c5","modifyLiquidities(bytes,uint256)":"dd46508f","modifyLiquiditiesWithoutUnlock(bytes,bytes[])":"4afe393c","msgSender()":"d737d0c7","multicall(bytes[])":"ac9650d8","name()":"06fdde03","nextTokenId()":"75794a3c","nonces(address,uint256)":"502e1a16","ownerOf(uint256)":"6352211e","permit(address,((address,uint160,uint48,uint48),address,uint256),bytes)":"2b67b570","permit(address,uint256,uint256,uint256,bytes)":"0f5730f1","permit2()":"12261ee7","permitBatch(address,((address,uint160,uint48,uint48)[],address,uint256),bytes)":"002a3e3a","permitForAll(address,address,bool,uint256,uint256,bytes)":"3aea60f0","poolManager()":"dc4c90d3","revokeNonce(uint256)":"05c1ee20","safeTransferFrom(address,address,uint256)":"42842e0e","safeTransferFrom(address,address,uint256,bytes)":"b88d4fde","setApprovalForAll(address,bool)":"a22cb465","subscribe(uint256,((address,address,uint24,int24,address),int24,int24),address,bytes)":"635ba6de","subscriber(uint256)":"16a24131","supportsInterface(bytes4)":"01ffc9a7","symbol()":"95d89b41","tokenURI(uint256)":"c87b56dd","transferFrom(address,address,uint256)":"23b872dd","unlockCallback(bytes)":"91dd7346","unsubscribe(uint256,((address,address,uint24,int24,address),int24,int24),bytes)":"645add16"},"id":94}