{"abi":[{"type":"function","name":"domainSeparator","inputs":[],"outputs":[{"name":"","type":"bytes32","internalType":"bytes32"}],"stateMutability":"view"},{"type":"function","name":"getChainId","inputs":[],"outputs":[{"name":"","type":"uint256","internalType":"uint256"}],"stateMutability":"view"},{"type":"function","name":"verify","inputs":[{"name":"signature","type":"bytes","internalType":"bytes"},{"name":"signer","type":"address","internalType":"address"},{"name":"mailTo","type":"address","internalType":"address"},{"name":"mailContents","type":"string","internalType":"string"}],"outputs":[],"stateMutability":"view"}],"bytecode":{"object":"0x6080806040523460155761056b908161001a8239f35b5f80fdfe60806040526004361015610011575f80fd5b5f3560e01c806308c6e079146100445780633408e4701461003f5763f698da251461003a575f80fd5b61019f565b610185565b346100d45760803660031901126100d45760043567ffffffffffffffff81116100d457366023820112156100d457610086903690602481600401359101610113565b61008e610159565b9061009761016f565b6064359267ffffffffffffffff84116100d457366023850112156100d4576100cc6100d2943690602481600401359101610113565b926101c8565b005b5f80fd5b634e487b7160e01b5f52604160045260245ffd5b90601f8019910116810190811067ffffffffffffffff82111761010e57604052565b6100d8565b92919267ffffffffffffffff821161010e576040519161013d601f8201601f1916602001846100ec565b8294818452818301116100d4578281602093845f960137010152565b602435906001600160a01b03821682036100d457565b604435906001600160a01b03821682036100d457565b346100d4575f3660031901126100d4576020604051468152f35b346100d4575f3660031901126100d45760206101b96102ff565b604051908152f35b156100d457565b6102686001600160a01b0392939183926102729660208151910120604051908560208301937f847fc9da8ec3c72cae85ca691245eaeb0a4a1e74f77c3a919c43afda231d39ba855216604083015260608201526060815261022a6080826100ec565b5190206102356102ff565b9060405190602082019261190160f01b845260228301526042820152604281526102606062826100ec565b519020610274565b92169116146101c1565b565b81516041810361029f57509061029c91602082015190606060408401519301515f1a90610440565b90565b6040036102ba57816040602061029c9401519101519161035c565b60405162461bcd60e51b815260206004820152601f60248201527f45434453413a20696e76616c6964207369676e6174757265206c656e677468006044820152606490fd5b6001546002546040519060208201927f8b73c3c69bb8fe3d512ecc4cf759cc79239f7b179b0ffacaa9a75d522b39400f8452604083015260608201524660808201523060a082015260a0815261035660c0826100ec565b51902090565b9061029c9291601b7f7fffffffffffffffffffffffffffffffffffffffffffffffffffffffffffffff84169360ff1c0190610440565b1561039957565b60405162461bcd60e51b815260206004820152602260248201527f45434453413a20696e76616c6964207369676e6174757265202776272076616c604482015261756560f01b6064820152608490fd5b6040513d5f823e3d90fd5b156103fb57565b60405162461bcd60e51b815260206004820152601860248201527f45434453413a20696e76616c6964207369676e617475726500000000000000006044820152606490fd5b9291927f7fffffffffffffffffffffffffffffff5d576e7357a4501ddfe92f46681b20a083116104e5576104b15f9360209561048b60ff8616601b81149081156104da575b50610392565b604051948594859094939260ff6060936080840197845216602083015260408201520152565b838052039060015afa156104d5575f5161029c6001600160a01b03821615156103f4565b6103e9565b601c9150145f610485565b60405162461bcd60e51b815260206004820152602260248201527f45434453413a20696e76616c6964207369676e6174757265202773272076616c604482015261756560f01b6064820152608490fdfea2646970667358221220152731672a69e78452dd3d27533544ffef526eb20b367888c2a6ff50244ca60364736f6c634300081a0033","linkReferences":{}},"methodIdentifiers":{"domainSeparator()":"f698da25","getChainId()":"3408e470","verify(bytes,address,address,string)":"08c6e079"},"id":327}