{"abi":[{"type":"function","name":"getSupportedInterfaces","inputs":[{"name":"account","type":"address","internalType":"address"},{"name":"interfaceIds","type":"bytes4[]","internalType":"bytes4[]"}],"outputs":[{"name":"","type":"bool[]","internalType":"bool[]"}],"stateMutability":"view"},{"type":"function","name":"supportsAllInterfaces","inputs":[{"name":"account","type":"address","internalType":"address"},{"name":"interfaceIds","type":"bytes4[]","internalType":"bytes4[]"}],"outputs":[{"name":"","type":"bool","internalType":"bool"}],"stateMutability":"view"},{"type":"function","name":"supportsERC165","inputs":[{"name":"account","type":"address","internalType":"address"}],"outputs":[{"name":"","type":"bool","internalType":"bool"}],"stateMutability":"view"},{"type":"function","name":"supportsInterface","inputs":[{"name":"account","type":"address","internalType":"address"},{"name":"interfaceId","type":"bytes4","internalType":"bytes4"}],"outputs":[{"name":"","type":"bool","internalType":"bool"}],"stateMutability":"view"}],"bytecode":{"object":"0x608080604052346015576105ba908161001a8239f35b5f80fdfe60806040526004361015610011575f80fd5b5f3560e01c80634b9dd9041461029857806377e6b4cc14610106578063c398a925146100bf5763d905700714610045575f80fd5b346100bb5760403660031901126100bb5761005e610358565b602435906001600160e01b0319821682036100bb5760209161007f82610476565b91826100a9575b82610098575b50506040519015158152f35b6100a29250610550565b5f8061008c565b91506100b48261051f565b1591610086565b5f80fd5b346100bb5760203660031901126100bb5760206100da610358565b6100e381610476565b90816100f5575b506040519015158152f35b6100ff915061051f565b15826100ea565b346100bb5760403660031901126100bb5760043573ffffffffffffffffffffffffffffffffffffffff811681036100bb5760243567ffffffffffffffff81116100bb57366023820112156100bb57806004013590610163826103b1565b91610171604051938461037b565b8083526024602084019160051b830101913683116100bb57602401905b828210610280575050508051916101bd6101a7846103b1565b936101b5604051958661037b565b8085526103b1565b602084019290601f19013684376101d382610476565b80610270575b610225575b505090604051918291602083019060208452518091526040830191905f5b81811061020a575050500390f35b825115158452859450602093840193909201916001016101fc565b5f5b8151811015610266576001906102516001600160e01b031961024983866103de565b511685610550565b61025b82886103de565b901515905201610227565b50505082806101de565b5061027a8261051f565b156101d9565b6020809161028d846103c9565b81520191019061018e565b346100bb5760403660031901126100bb5760043573ffffffffffffffffffffffffffffffffffffffff811681036100bb576024359067ffffffffffffffff82116100bb57366023830112156100bb578160040135906102f6826103b1565b90610304604051928361037b565b8282526024602083019360051b850101923684116100bb57602460209501905b8482106103415750506103379250610406565b6040519015158152f35b85809161034d846103c9565b815201910190610324565b6004359073ffffffffffffffffffffffffffffffffffffffff821682036100bb57565b90601f8019910116810190811067ffffffffffffffff82111761039d57604052565b634e487b7160e01b5f52604160045260245ffd5b67ffffffffffffffff811161039d5760051b60200190565b35906001600160e01b0319821682036100bb57565b80518210156103f25760209160051b010190565b634e487b7160e01b5f52603260045260245ffd5b9061041082610476565b80610466575b15610460575f5b8151811015610458576104446001600160e01b031961043c83856103de565b511684610550565b156104515760010161041d565b5050505f90565b505050600190565b50505f90565b506104708261051f565b15610416565b5f809160405160208101906301ffc9a760e01b82526301ffc9a760e01b6024820152602481526104a760448261037b565b5191617530fa3d15610518573d67ffffffffffffffff811161039d57604051906104db601f8201601f19166020018361037b565b81523d5f602083013e5b80516020811061045157826104f957505090565b81925090602091810103126100bb576020015180151581036100bb5790565b60606104e5565b5f809160405160208101906301ffc9a760e01b825263ffffffff60e01b6024820152602481526104a760448261037b565b5f9190829160405160208101916301ffc9a760e01b835263ffffffff60e01b166024820152602481526104a760448261037b56fea2646970667358221220e4739beed9af2b0dc75c9c0a1d5e0bd19af6c61b8139216f19211dfdcb9c114964736f6c634300081a0033","linkReferences":{}},"methodIdentifiers":{"getSupportedInterfaces(address,bytes4[])":"77e6b4cc","supportsAllInterfaces(address,bytes4[])":"4b9dd904","supportsERC165(address)":"c398a925","supportsInterface(address,bytes4)":"d9057007"},"id":168}