{"abi":[{"type":"constructor","inputs":[{"name":"_verifier","type":"address","internalType":"contract IPureFiVerifier"}],"stateMutability":"nonpayable"},{"type":"function","name":"DEFAULT_ADMIN_ROLE","inputs":[],"outputs":[{"name":"","type":"bytes32","internalType":"bytes32"}],"stateMutability":"view"},{"type":"function","name":"ISSUER","inputs":[],"outputs":[{"name":"","type":"bytes32","internalType":"bytes32"}],"stateMutability":"view"},{"type":"function","name":"authorizedMarketMakers","inputs":[{"name":"","type":"address","internalType":"address"}],"outputs":[{"name":"","type":"bool","internalType":"bool"}],"stateMutability":"view"},{"type":"function","name":"delist","inputs":[{"name":"user","type":"address","internalType":"address"}],"outputs":[],"stateMutability":"nonpayable"},{"type":"function","name":"delistMe","inputs":[{"name":"pureFiData","type":"bytes","internalType":"bytes"}],"outputs":[],"stateMutability":"nonpayable"},{"type":"function","name":"enlistMe","inputs":[{"name":"pureFiData","type":"bytes","internalType":"bytes"}],"outputs":[],"stateMutability":"nonpayable"},{"type":"function","name":"getRoleAdmin","inputs":[{"name":"role","type":"bytes32","internalType":"bytes32"}],"outputs":[{"name":"","type":"bytes32","internalType":"bytes32"}],"stateMutability":"view"},{"type":"function","name":"grantRole","inputs":[{"name":"role","type":"bytes32","internalType":"bytes32"},{"name":"account","type":"address","internalType":"address"}],"outputs":[],"stateMutability":"nonpayable"},{"type":"function","name":"hasRole","inputs":[{"name":"role","type":"bytes32","internalType":"bytes32"},{"name":"account","type":"address","internalType":"address"}],"outputs":[{"name":"","type":"bool","internalType":"bool"}],"stateMutability":"view"},{"type":"function","name":"isAuthorized","inputs":[{"name":"user","type":"address","internalType":"address"}],"outputs":[{"name":"","type":"bool","internalType":"bool"}],"stateMutability":"view"},{"type":"function","name":"renounceRole","inputs":[{"name":"role","type":"bytes32","internalType":"bytes32"},{"name":"callerConfirmation","type":"address","internalType":"address"}],"outputs":[],"stateMutability":"nonpayable"},{"type":"function","name":"revokeRole","inputs":[{"name":"role","type":"bytes32","internalType":"bytes32"},{"name":"account","type":"address","internalType":"address"}],"outputs":[],"stateMutability":"nonpayable"},{"type":"function","name":"supportsInterface","inputs":[{"name":"interfaceId","type":"bytes4","internalType":"bytes4"}],"outputs":[{"name":"","type":"bool","internalType":"bool"}],"stateMutability":"view"},{"type":"event","name":"AddressDelisted","inputs":[{"name":"","type":"address","indexed":false,"internalType":"address"}],"anonymous":false},{"type":"event","name":"AddressEnlisted","inputs":[{"name":"","type":"address","indexed":false,"internalType":"address"}],"anonymous":false},{"type":"event","name":"RoleAdminChanged","inputs":[{"name":"role","type":"bytes32","indexed":true,"internalType":"bytes32"},{"name":"previousAdminRole","type":"bytes32","indexed":true,"internalType":"bytes32"},{"name":"newAdminRole","type":"bytes32","indexed":true,"internalType":"bytes32"}],"anonymous":false},{"type":"event","name":"RoleGranted","inputs":[{"name":"role","type":"bytes32","indexed":true,"internalType":"bytes32"},{"name":"account","type":"address","indexed":true,"internalType":"address"},{"name":"sender","type":"address","indexed":true,"internalType":"address"}],"anonymous":false},{"type":"event","name":"RoleRevoked","inputs":[{"name":"role","type":"bytes32","indexed":true,"internalType":"bytes32"},{"name":"account","type":"address","indexed":true,"internalType":"address"},{"name":"sender","type":"address","indexed":true,"internalType":"address"}],"anonymous":false},{"type":"error","name":"AccessControlBadConfirmation","inputs":[]},{"type":"error","name":"AccessControlUnauthorizedAccount","inputs":[{"name":"account","type":"address","internalType":"address"},{"name":"neededRole","type":"bytes32","internalType":"bytes32"}]}],"bytecode":{"object":"0x608034607057601f6108e738819003918201601f19168301916001600160401b03831184841017607457808492602094604052833981010312607057516001600160a01b03811690819003607057600280546001600160a01b03191691909117905560405161085e90816100898239f35b5f80fd5b634e487b7160e01b5f52604160045260245ffdfe6080806040526004361015610012575f80fd5b5f3560e01c90816301ffc9a7146103c35750806304495f7b146103725780631d44e421146100ab578063248a9ca3146103405780632f2ff15d1461030357806336568abe146102bf5780634339b421146102855780636b2cc75c146101ed57806391d14854146101a4578063a217fddf1461018a578063b9c8f27914610130578063d547741f146100ec5763fe9fbb80146100ab575f80fd5b346100e85760203660031901126100e8576001600160a01b036100cc610467565b165f526001602052602060ff60405f2054166040519015158152f35b5f80fd5b346100e85760403660031901126100e85761012e60043561010b61047d565b90610129610124825f525f602052600160405f20015490565b6106d8565b6107a5565b005b346100e85761014761014136610416565b906104dd565b335f52600160205260405f20600160ff198254161790557ff198d2525a0a7dbe3975f5e1d5b718b5b03bc97483af633d7010393ae0e2d9866020604051338152a1005b346100e8575f3660031901126100e85760206040515f8152f35b346100e85760403660031901126100e8576101bd61047d565b6004355f525f6020526001600160a01b0360405f2091165f52602052602060ff60405f2054166040519015158152f35b346100e85760203660031901126100e857610206610467565b335f9081527f81bd2629fb206e4de7577b5dd1f32d7fd6ff7e7620b73441d3fd29d1cc29951a602052604090205460ff16156100e85760206001600160a01b037f21bd8dceff1020876eac8bd01f2ef1d59cade579d03c211d99f025bb0e4399dc9216805f526001825260405f2060ff198154169055604051908152a1005b346100e8575f3660031901126100e85760206040517f76afa8a5929fef1b4c03674b2152ae5aaad1d974b8a4021c59477bcc846ccc1e8152f35b346100e85760403660031901126100e8576102d861047d565b336001600160a01b038216036102f45761012e906004356107a5565b63334bd91960e11b5f5260045ffd5b346100e85760403660031901126100e85761012e60043561032261047d565b9061033b610124825f525f602052600160405f20015490565b610718565b346100e85760203660031901126100e857602061036a6004355f525f602052600160405f20015490565b604051908152f35b346100e85761038361014136610416565b335f52600160205260405f2060ff1981541690557f21bd8dceff1020876eac8bd01f2ef1d59cade579d03c211d99f025bb0e4399dc6020604051338152a1005b346100e85760203660031901126100e8576004359063ffffffff60e01b82168092036100e857602091637965db0b60e01b8114908115610405575b5015158152f35b6301ffc9a760e01b149050836103fe565b9060206003198301126100e85760043567ffffffffffffffff81116100e857826023820112156100e85780600401359267ffffffffffffffff84116100e857602484830101116100e8576024019190565b600435906001600160a01b03821682036100e857565b602435906001600160a01b03821682036100e857565b90601f8019910116810190811067ffffffffffffffff8211176104b557604052565b634e487b7160e01b5f52604160045260245ffd5b51906001600160a01b03821682036100e857565b815f916001600160a01b036002541690836044604051809781968295630efd9c3b60e21b845260206004850152816024850152848401378181018301849052601f01601f191681010301925af19081156106cd575f91610593575b50606001516001600160a01b0316330361054e57565b60405162461bcd60e51b815260206004820152600c60248201527f57726f6e672073656e64657200000000000000000000000000000000000000006044820152606490fd5b90503d805f833e6105a48183610493565b8101906020818303126100e85780519067ffffffffffffffff82116100e85701610100818303126100e85760405190610100820182811067ffffffffffffffff8211176104b557604052805160ff811681036100e8578252602081015160208301526040810151604083015261061c606082016104c9565b606083015261062d608082016104c9565b608083015261063e60a082016104c9565b60a083015260c081015160c083015260e08101519067ffffffffffffffff82116100e857019082601f830112156100e85781519267ffffffffffffffff84116104b55760405190610699601f8601601f191660200183610493565b848252602085850101116100e8575f6020856001600160a01b039682606097018386015e8301015260e08201529150610538565b6040513d5f823e3d90fd5b805f525f60205260405f206001600160a01b0333165f5260205260ff60405f205416156107025750565b63e2517d3f60e01b5f523360045260245260445ffd5b805f525f60205260405f206001600160a01b0383165f5260205260ff60405f205416155f1461079f57805f525f60205260405f206001600160a01b0383165f5260205260405f20600160ff198254161790556001600160a01b03339216907f2f8788117e7eff1d82e926ec794901d17c78024a50270940304540a733656f0d5f80a4600190565b50505f90565b805f525f60205260405f206001600160a01b0383165f5260205260ff60405f2054165f1461079f57805f525f60205260405f206001600160a01b0383165f5260205260405f2060ff1981541690556001600160a01b03339216907ff6391f5c32d9c69d2a47ea670b442974b53935d1edc7fd64eb21e047a839171b5f80a460019056fea2646970667358221220a24fd90c66cf5d2deacccd8a85d8f1574f4b6dea02d148e028753e29a6ee56d964736f6c634300081a0033","linkReferences":{}},"methodIdentifiers":{"DEFAULT_ADMIN_ROLE()":"a217fddf","ISSUER()":"4339b421","authorizedMarketMakers(address)":"1d44e421","delist(address)":"6b2cc75c","delistMe(bytes)":"04495f7b","enlistMe(bytes)":"b9c8f279","getRoleAdmin(bytes32)":"248a9ca3","grantRole(bytes32,address)":"2f2ff15d","hasRole(bytes32,address)":"91d14854","isAuthorized(address)":"fe9fbb80","renounceRole(bytes32,address)":"36568abe","revokeRole(bytes32,address)":"d547741f","supportsInterface(bytes4)":"01ffc9a7"},"id":6}