{"abi":[{"type":"fallback","stateMutability":"nonpayable"},{"type":"function","name":"getValue","inputs":[],"outputs":[{"name":"","type":"uint256","internalType":"uint256"}],"stateMutability":"view"},{"type":"function","name":"initialize","inputs":[],"outputs":[],"stateMutability":"nonpayable"},{"type":"function","name":"setValue","inputs":[{"name":"_number","type":"uint256","internalType":"uint256"}],"outputs":[],"stateMutability":"nonpayable"}],"bytecode":{"object":"0x6080806040523460155761017e908161001a8239f35b5f80fdfe608080604052600436101561001f575b503461001b5760018055005b5f80fd5b5f3560e01c908163209652551461012e57508063552410771461011557638129fc1c1461004c575f61000f565b3461001b575f36600319011261001b575f5460ff8160081c16908115918261010a575b1561009f578161008d575b5061008157005b5f805461ff0019169055005b61ffff1916610101175f90815561007a565b60405162461bcd60e51b815260206004820152602e60248201527f496e697469616c697a61626c653a20636f6e747261637420697320616c72656160448201527f647920696e697469616c697a65640000000000000000000000000000000000006064820152608490fd5b5060ff81161561006f565b3461001b57602036600319011261001b57600435600155005b3461001b575f36600319011261001b576020906001548152f3fea26469706673582212202bbc124204edea81f5561bfb148ea54e59670660918769df28fc850ed8543e3e64736f6c634300081a0033","linkReferences":{}},"methodIdentifiers":{"getValue()":"20965255","initialize()":"8129fc1c","setValue(uint256)":"55241077"},"id":376}