{"abi":[{"type":"function","name":"deposit","inputs":[{"name":"payee","type":"address","internalType":"address"}],"outputs":[],"stateMutability":"payable"},{"type":"function","name":"depositsOf","inputs":[{"name":"payee","type":"address","internalType":"address"}],"outputs":[{"name":"","type":"uint256","internalType":"uint256"}],"stateMutability":"view"},{"type":"function","name":"initialize","inputs":[],"outputs":[],"stateMutability":"nonpayable"},{"type":"function","name":"owner","inputs":[],"outputs":[{"name":"","type":"address","internalType":"address"}],"stateMutability":"view"},{"type":"function","name":"renounceOwnership","inputs":[],"outputs":[],"stateMutability":"nonpayable"},{"type":"function","name":"setAllowed","inputs":[{"name":"payee","type":"address","internalType":"address"},{"name":"allowed","type":"bool","internalType":"bool"}],"outputs":[],"stateMutability":"nonpayable"},{"type":"function","name":"transferOwnership","inputs":[{"name":"newOwner","type":"address","internalType":"address"}],"outputs":[],"stateMutability":"nonpayable"},{"type":"function","name":"withdraw","inputs":[{"name":"payee","type":"address","internalType":"address payable"}],"outputs":[],"stateMutability":"nonpayable"},{"type":"function","name":"withdrawalAllowed","inputs":[{"name":"payee","type":"address","internalType":"address"}],"outputs":[{"name":"","type":"bool","internalType":"bool"}],"stateMutability":"view"},{"type":"event","name":"Deposited","inputs":[{"name":"payee","type":"address","indexed":true,"internalType":"address"},{"name":"weiAmount","type":"uint256","indexed":false,"internalType":"uint256"}],"anonymous":false},{"type":"event","name":"OwnershipTransferred","inputs":[{"name":"previousOwner","type":"address","indexed":true,"internalType":"address"},{"name":"newOwner","type":"address","indexed":true,"internalType":"address"}],"anonymous":false},{"type":"event","name":"Withdrawn","inputs":[{"name":"payee","type":"address","indexed":true,"internalType":"address"},{"name":"weiAmount","type":"uint256","indexed":false,"internalType":"uint256"}],"anonymous":false}],"bytecode":{"object":"0x60808060405234601557610801908161001a8239f35b5f80fdfe60806040526004361015610011575f80fd5b5f3560e01c80634697f05d1461060857806351cff8d9146103e7578063685ca194146103aa578063715018a6146103365780638129fc1c146102185780638da5cb5b146101f2578063e3a9db1a146101ba578063f2fde38b146101065763f340fa011461007c575f80fd5b6020366003190112610102576001600160a01b03610098610654565b6100a78260335416331461066a565b16805f52606560205260405f208054903482018092116100ee57557f2da466a7b24304f47e87fa2e1e5a81b9831ce54fec19055ce277ca2f39ba42c46020604051348152a2005b634e487b7160e01b5f52601160045260245ffd5b5f80fd5b346101025760203660031901126101025761011f610654565b6101356001600160a01b0360335416331461066a565b6001600160a01b0381161561014f5761014d90610727565b005b60405162461bcd60e51b815260206004820152602660248201527f4f776e61626c653a206e6577206f776e657220697320746865207a65726f206160448201527f64647265737300000000000000000000000000000000000000000000000000006064820152608490fd5b34610102576020366003190112610102576001600160a01b036101db610654565b165f526065602052602060405f2054604051908152f35b34610102575f3660031901126101025760206001600160a01b0360335416604051908152f35b34610102575f366003190112610102575f5460ff8160081c1690811580928161032b575b610245906106b5565b61031a575b505f5460ff8160081c1690811580928161030f575b610268906106b5565b6102fe575b5061027661077a565b5f5460ff8160081c169081158092816102f3575b610293906106b5565b6102e2575b506102a233610727565b6102d4575b6102af61077a565b6102c6575b6102ba57005b5f805461ff0019169055005b61ff00195f54165f556102b4565b61ff00195f54165f556102a7565b61ffff1916610101175f5583610298565b5060ff82161561028a565b61ffff1916610101175f558261026d565b5060ff82161561025f565b61ffff1916610101175f558161024a565b5060ff82161561023c565b34610102575f3660031901126101025761035c6001600160a01b0360335416331461066a565b5f6001600160a01b0360335473ffffffffffffffffffffffffffffffffffffffff198116603355167f8be0079c531659141344cd1fd0a4f28419497f9722a3daafe3b4186f6b6457e08280a3005b34610102576020366003190112610102576001600160a01b036103cb610654565b165f5260c9602052602060ff60405f2054166040519015158152f35b34610102576020366003190112610102576004356001600160a01b03811680910361010257805f5260c960205260ff60405f2054161561059d576104376001600160a01b0360335416331461066a565b5f8181526065602052604081208054919055478111610558575f80808084865af13d15610553573d67ffffffffffffffff811161053f5760405190601f8101601f19908116603f0116820167ffffffffffffffff81118382101761053f5760405281525f60203d92013e5b156104d45760207f7084f5476618d8e60b11ef0d7d3f06914655adb8793e28ff7f018d4c76d505d591604051908152a2005b60405162461bcd60e51b815260206004820152603a60248201527f416464726573733a20756e61626c6520746f2073656e642076616c75652c207260448201527f6563697069656e74206d617920686176652072657665727465640000000000006064820152608490fd5b634e487b7160e01b5f52604160045260245ffd5b6104a2565b60405162461bcd60e51b815260206004820152601d60248201527f416464726573733a20696e73756666696369656e742062616c616e63650000006044820152606490fd5b60405162461bcd60e51b815260206004820152603360248201527f436f6e646974696f6e616c457363726f773a207061796565206973206e6f742060448201527f616c6c6f77656420746f207769746864726177000000000000000000000000006064820152608490fd5b3461010257604036600319011261010257610621610654565b60243590811515809203610102576001600160a01b03165f5260c960205260405f209060ff801983541691161790555f80f35b600435906001600160a01b038216820361010257565b1561067157565b606460405162461bcd60e51b815260206004820152602060248201527f4f776e61626c653a2063616c6c6572206973206e6f7420746865206f776e65726044820152fd5b156106bc57565b60405162461bcd60e51b815260206004820152602e60248201527f496e697469616c697a61626c653a20636f6e747261637420697320616c72656160448201527f647920696e697469616c697a65640000000000000000000000000000000000006064820152608490fd5b6001600160a01b03806033549216918273ffffffffffffffffffffffffffffffffffffffff19821617603355167f8be0079c531659141344cd1fd0a4f28419497f9722a3daafe3b4186f6b6457e05f80a3565b5f5460ff8160081c169081158092816107c0575b610797906106b5565b6107ae575b506107a357565b61ff00195f54165f55565b61ffff1916610101175f90815561079c565b5060ff82161561078e56fea2646970667358221220c6fcf3243e5416bf2a0ebeecc4fb546ad964eb2c7759985f4b37d15c559905eb64736f6c634300081a0033","linkReferences":{}},"methodIdentifiers":{"deposit(address)":"f340fa01","depositsOf(address)":"e3a9db1a","initialize()":"8129fc1c","owner()":"8da5cb5b","renounceOwnership()":"715018a6","setAllowed(address,bool)":"4697f05d","transferOwnership(address)":"f2fde38b","withdraw(address)":"51cff8d9","withdrawalAllowed(address)":"685ca194"},"id":321}