{"abi":[{"type":"function","name":"deposit","inputs":[{"name":"payee","type":"address","internalType":"address"}],"outputs":[],"stateMutability":"payable"},{"type":"function","name":"depositsOf","inputs":[{"name":"payee","type":"address","internalType":"address"}],"outputs":[{"name":"","type":"uint256","internalType":"uint256"}],"stateMutability":"view"},{"type":"function","name":"initialize","inputs":[],"outputs":[],"stateMutability":"nonpayable"},{"type":"function","name":"owner","inputs":[],"outputs":[{"name":"","type":"address","internalType":"address"}],"stateMutability":"view"},{"type":"function","name":"renounceOwnership","inputs":[],"outputs":[],"stateMutability":"nonpayable"},{"type":"function","name":"transferOwnership","inputs":[{"name":"newOwner","type":"address","internalType":"address"}],"outputs":[],"stateMutability":"nonpayable"},{"type":"function","name":"withdraw","inputs":[{"name":"payee","type":"address","internalType":"address payable"}],"outputs":[],"stateMutability":"nonpayable"},{"type":"event","name":"Deposited","inputs":[{"name":"payee","type":"address","indexed":true,"internalType":"address"},{"name":"weiAmount","type":"uint256","indexed":false,"internalType":"uint256"}],"anonymous":false},{"type":"event","name":"OwnershipTransferred","inputs":[{"name":"previousOwner","type":"address","indexed":true,"internalType":"address"},{"name":"newOwner","type":"address","indexed":true,"internalType":"address"}],"anonymous":false},{"type":"event","name":"Withdrawn","inputs":[{"name":"payee","type":"address","indexed":true,"internalType":"address"},{"name":"weiAmount","type":"uint256","indexed":false,"internalType":"uint256"}],"anonymous":false}],"bytecode":{"object":"0x608080604052346015576106db908161001a8239f35b5f80fdfe60806040526004361015610011575f80fd5b5f3560e01c806351cff8d9146103a3578063715018a61461032f5780638129fc1c146102115780638da5cb5b146101eb578063e3a9db1a146101b0578063f2fde38b146100fa5763f340fa0114610066575f80fd5b60203660031901126100f6576004356001600160a01b0381168091036100f65761009c6001600160a01b03603354163314610544565b805f52606560205260405f208054903482018092116100e257557f2da466a7b24304f47e87fa2e1e5a81b9831ce54fec19055ce277ca2f39ba42c46020604051348152a2005b634e487b7160e01b5f52601160045260245ffd5b5f80fd5b346100f65760203660031901126100f6576004356001600160a01b0381168082036100f6576101356001600160a01b03603354163314610544565b156101455761014390610601565b005b60405162461bcd60e51b815260206004820152602660248201527f4f776e61626c653a206e6577206f776e657220697320746865207a65726f206160448201527f64647265737300000000000000000000000000000000000000000000000000006064820152608490fd5b346100f65760203660031901126100f6576004356001600160a01b0381168091036100f6575f526065602052602060405f2054604051908152f35b346100f6575f3660031901126100f65760206001600160a01b0360335416604051908152f35b346100f6575f3660031901126100f6575f5460ff8160081c16908115809281610324575b61023e9061058f565b610313575b505f5460ff8160081c16908115809281610308575b6102619061058f565b6102f7575b5061026f610654565b5f5460ff8160081c169081158092816102ec575b61028c9061058f565b6102db575b5061029b33610601565b6102cd575b6102a8610654565b6102bf575b6102b357005b5f805461ff0019169055005b61ff00195f54165f556102ad565b61ff00195f54165f556102a0565b61ffff1916610101175f5583610291565b5060ff821615610283565b61ffff1916610101175f5582610266565b5060ff821615610258565b61ffff1916610101175f5581610243565b5060ff821615610235565b346100f6575f3660031901126100f6576103556001600160a01b03603354163314610544565b5f6001600160a01b0360335473ffffffffffffffffffffffffffffffffffffffff198116603355167f8be0079c531659141344cd1fd0a4f28419497f9722a3daafe3b4186f6b6457e08280a3005b346100f65760203660031901126100f6576004356001600160a01b0381168091036100f6576103de6001600160a01b03603354163314610544565b5f81815260656020526040812080549190554781116104ff575f80808084865af13d156104fa573d67ffffffffffffffff81116104e65760405190601f8101601f19908116603f0116820167ffffffffffffffff8111838210176104e65760405281525f60203d92013e5b1561047b5760207f7084f5476618d8e60b11ef0d7d3f06914655adb8793e28ff7f018d4c76d505d591604051908152a2005b60405162461bcd60e51b815260206004820152603a60248201527f416464726573733a20756e61626c6520746f2073656e642076616c75652c207260448201527f6563697069656e74206d617920686176652072657665727465640000000000006064820152608490fd5b634e487b7160e01b5f52604160045260245ffd5b610449565b60405162461bcd60e51b815260206004820152601d60248201527f416464726573733a20696e73756666696369656e742062616c616e63650000006044820152606490fd5b1561054b57565b606460405162461bcd60e51b815260206004820152602060248201527f4f776e61626c653a2063616c6c6572206973206e6f7420746865206f776e65726044820152fd5b1561059657565b60405162461bcd60e51b815260206004820152602e60248201527f496e697469616c697a61626c653a20636f6e747261637420697320616c72656160448201527f647920696e697469616c697a65640000000000000000000000000000000000006064820152608490fd5b6001600160a01b03806033549216918273ffffffffffffffffffffffffffffffffffffffff19821617603355167f8be0079c531659141344cd1fd0a4f28419497f9722a3daafe3b4186f6b6457e05f80a3565b5f5460ff8160081c1690811580928161069a575b6106719061058f565b610688575b5061067d57565b61ff00195f54165f55565b61ffff1916610101175f908155610676565b5060ff82161561066856fea2646970667358221220af838032b3ad32810d01a12af2ead90b3e48ed003eb170a64013d732466bec7e64736f6c634300081a0033","linkReferences":{}},"methodIdentifiers":{"deposit(address)":"f340fa01","depositsOf(address)":"e3a9db1a","initialize()":"8129fc1c","owner()":"8da5cb5b","renounceOwnership()":"715018a6","transferOwnership(address)":"f2fde38b","withdraw(address)":"51cff8d9"},"id":451}