{"abi":[{"type":"function","name":"clone","inputs":[{"name":"implementation","type":"address","internalType":"address"},{"name":"initdata","type":"bytes","internalType":"bytes"}],"outputs":[],"stateMutability":"payable"},{"type":"function","name":"cloneDeterministic","inputs":[{"name":"implementation","type":"address","internalType":"address"},{"name":"salt","type":"bytes32","internalType":"bytes32"},{"name":"initdata","type":"bytes","internalType":"bytes"}],"outputs":[],"stateMutability":"payable"},{"type":"function","name":"predictDeterministicAddress","inputs":[{"name":"implementation","type":"address","internalType":"address"},{"name":"salt","type":"bytes32","internalType":"bytes32"}],"outputs":[{"name":"predicted","type":"address","internalType":"address"}],"stateMutability":"view"},{"type":"event","name":"NewInstance","inputs":[{"name":"instance","type":"address","indexed":false,"internalType":"address"}],"anonymous":false}],"bytecode":{"object":"0x608080604052346015576105e3908161001a8239f35b5f80fdfe60806040526004361015610011575f80fd5b5f3560e01c80630fbe133c14610044578063360d0fad1461003f57636e9ebc811461003a575f80fd5b61020b565b610164565b604036600319011261011c57610058610120565b60243567ffffffffffffffff811161011c57610078903690600401610136565b9091733d602d80600a3d3981f3363d3d373d3d3d363d7360601b60805260601b6094526e5af43d82803e903d91602b57fd5bf360881b60a852603760805ff0906001600160a01b038216156100de576100dc926100d6913691610346565b90610376565b005b62461bcd60e51b6080526020608452601660a4527f455243313136373a20637265617465206661696c65640000000000000000000060c45260646080fd5b5f80fd5b600435906001600160a01b038216820361011c57565b9181601f8401121561011c5782359167ffffffffffffffff831161011c576020838186019501011161011c57565b3461011c57604036600319011261011c5761020760556037610184610120565b60243560405191733d602d80600a3d3981f3363d3d373d3d3d363d7360601b835260601b60148301527f5af43d82803e903d91602b57fd5bf3ff0000000000000000000000000000000060288301523060601b6038830152604c820152818120606c8201520120604051918291829190916001600160a01b036020820193169052565b0390f35b606036600319011261011c5761021f610120565b60443560243567ffffffffffffffff821161011c576102446037923690600401610136565b92909360405190733d602d80600a3d3981f3363d3d373d3d3d363d7360601b825260601b60148201526e5af43d82803e903d91602b57fd5bf360881b60288201525ff5906001600160a01b038216156102a6576100dc926100d6913691610346565b60405162461bcd60e51b815260206004820152601760248201527f455243313136373a2063726561746532206661696c65640000000000000000006044820152606490fd5b634e487b7160e01b5f52604160045260245ffd5b6040519190601f01601f1916820167ffffffffffffffff81118382101761032557604052565b6102eb565b67ffffffffffffffff811161032557601f01601f191660200190565b92919261035a6103558361032a565b6102ff565b938285528282011161011c57815f926020928387013784010152565b9080516103bc575b506040516001600160a01b0390911681527f39a773f10839d86923d91d5ce7d6642f2f63a95d850495abb1f162e38aa04ea59080602081015b0390a1565b906103c760606102ff565b90602982527f416464726573733a206c6f772d6c6576656c2063616c6c20776974682076616c60208301527f7565206661696c6564000000000000000000000000000000000000000000000060408301523447106104765761046e6103b7925f807f39a773f10839d86923d91d5ce7d6642f2f63a95d850495abb1f162e38aa04ea596610456863b15156104e1565b60208151910134875af161046861052d565b90610552565b50915061037e565b60405162461bcd60e51b815260206004820152602660248201527f416464726573733a20696e73756666696369656e742062616c616e636520666f60448201527f722063616c6c00000000000000000000000000000000000000000000000000006064820152608490fd5b156104e857565b60405162461bcd60e51b815260206004820152601d60248201527f416464726573733a2063616c6c20746f206e6f6e2d636f6e74726163740000006044820152606490fd5b3d1561054d573d906105416103558361032a565b9182523d5f602084013e565b606090565b9091901561055e575090565b81511561056e5750805190602001fd5b604460209160405192839162461bcd60e51b83528160048401528051918291826024860152018484015e5f828201840152601f01601f19168101030190fdfea264697066735822122096ed643464292c55d8099981336ba714e706e122268b182326124ceea26dd98f64736f6c634300081a0033","linkReferences":{}},"methodIdentifiers":{"clone(address,bytes)":"0fbe133c","cloneDeterministic(address,bytes32,bytes)":"6e9ebc81","predictDeterministicAddress(address,bytes32)":"360d0fad"},"id":151}