{"abi":[{"type":"function","name":"balanceOf","inputs":[{"name":"account","type":"address","internalType":"address"},{"name":"id","type":"uint256","internalType":"uint256"}],"outputs":[{"name":"","type":"uint256","internalType":"uint256"}],"stateMutability":"view"},{"type":"function","name":"balanceOfBatch","inputs":[{"name":"accounts","type":"address[]","internalType":"address[]"},{"name":"ids","type":"uint256[]","internalType":"uint256[]"}],"outputs":[{"name":"","type":"uint256[]","internalType":"uint256[]"}],"stateMutability":"view"},{"type":"function","name":"burn","inputs":[{"name":"owner","type":"address","internalType":"address"},{"name":"id","type":"uint256","internalType":"uint256"},{"name":"value","type":"uint256","internalType":"uint256"}],"outputs":[],"stateMutability":"nonpayable"},{"type":"function","name":"burnBatch","inputs":[{"name":"owner","type":"address","internalType":"address"},{"name":"ids","type":"uint256[]","internalType":"uint256[]"},{"name":"values","type":"uint256[]","internalType":"uint256[]"}],"outputs":[],"stateMutability":"nonpayable"},{"type":"function","name":"isApprovedForAll","inputs":[{"name":"account","type":"address","internalType":"address"},{"name":"operator","type":"address","internalType":"address"}],"outputs":[{"name":"","type":"bool","internalType":"bool"}],"stateMutability":"view"},{"type":"function","name":"mint","inputs":[{"name":"to","type":"address","internalType":"address"},{"name":"id","type":"uint256","internalType":"uint256"},{"name":"value","type":"uint256","internalType":"uint256"},{"name":"data","type":"bytes","internalType":"bytes"}],"outputs":[],"stateMutability":"nonpayable"},{"type":"function","name":"mintBatch","inputs":[{"name":"to","type":"address","internalType":"address"},{"name":"ids","type":"uint256[]","internalType":"uint256[]"},{"name":"values","type":"uint256[]","internalType":"uint256[]"},{"name":"data","type":"bytes","internalType":"bytes"}],"outputs":[],"stateMutability":"nonpayable"},{"type":"function","name":"pause","inputs":[],"outputs":[],"stateMutability":"nonpayable"},{"type":"function","name":"paused","inputs":[],"outputs":[{"name":"","type":"bool","internalType":"bool"}],"stateMutability":"view"},{"type":"function","name":"safeBatchTransferFrom","inputs":[{"name":"from","type":"address","internalType":"address"},{"name":"to","type":"address","internalType":"address"},{"name":"ids","type":"uint256[]","internalType":"uint256[]"},{"name":"amounts","type":"uint256[]","internalType":"uint256[]"},{"name":"data","type":"bytes","internalType":"bytes"}],"outputs":[],"stateMutability":"nonpayable"},{"type":"function","name":"safeTransferFrom","inputs":[{"name":"from","type":"address","internalType":"address"},{"name":"to","type":"address","internalType":"address"},{"name":"id","type":"uint256","internalType":"uint256"},{"name":"amount","type":"uint256","internalType":"uint256"},{"name":"data","type":"bytes","internalType":"bytes"}],"outputs":[],"stateMutability":"nonpayable"},{"type":"function","name":"setApprovalForAll","inputs":[{"name":"operator","type":"address","internalType":"address"},{"name":"approved","type":"bool","internalType":"bool"}],"outputs":[],"stateMutability":"nonpayable"},{"type":"function","name":"setURI","inputs":[{"name":"newuri","type":"string","internalType":"string"}],"outputs":[],"stateMutability":"nonpayable"},{"type":"function","name":"supportsInterface","inputs":[{"name":"interfaceId","type":"bytes4","internalType":"bytes4"}],"outputs":[{"name":"","type":"bool","internalType":"bool"}],"stateMutability":"view"},{"type":"function","name":"unpause","inputs":[],"outputs":[],"stateMutability":"nonpayable"},{"type":"function","name":"uri","inputs":[{"name":"","type":"uint256","internalType":"uint256"}],"outputs":[{"name":"","type":"string","internalType":"string"}],"stateMutability":"view"},{"type":"event","name":"ApprovalForAll","inputs":[{"name":"account","type":"address","indexed":true,"internalType":"address"},{"name":"operator","type":"address","indexed":true,"internalType":"address"},{"name":"approved","type":"bool","indexed":false,"internalType":"bool"}],"anonymous":false},{"type":"event","name":"Paused","inputs":[{"name":"account","type":"address","indexed":false,"internalType":"address"}],"anonymous":false},{"type":"event","name":"TransferBatch","inputs":[{"name":"operator","type":"address","indexed":true,"internalType":"address"},{"name":"from","type":"address","indexed":true,"internalType":"address"},{"name":"to","type":"address","indexed":true,"internalType":"address"},{"name":"ids","type":"uint256[]","indexed":false,"internalType":"uint256[]"},{"name":"values","type":"uint256[]","indexed":false,"internalType":"uint256[]"}],"anonymous":false},{"type":"event","name":"TransferSingle","inputs":[{"name":"operator","type":"address","indexed":true,"internalType":"address"},{"name":"from","type":"address","indexed":true,"internalType":"address"},{"name":"to","type":"address","indexed":true,"internalType":"address"},{"name":"id","type":"uint256","indexed":false,"internalType":"uint256"},{"name":"value","type":"uint256","indexed":false,"internalType":"uint256"}],"anonymous":false},{"type":"event","name":"URI","inputs":[{"name":"value","type":"string","indexed":false,"internalType":"string"},{"name":"id","type":"uint256","indexed":true,"internalType":"uint256"}],"anonymous":false},{"type":"event","name":"Unpaused","inputs":[{"name":"account","type":"address","indexed":false,"internalType":"address"}],"anonymous":false}],"bytecode":{"object":"0x60808060405234601557611a8a908161001a8239f35b5f80fdfe60806040526004361015610011575f80fd5b5f3560e01c8062fdd58e1461143257806301ffc9a7146113c457806302fe5305146111f15780630e89341c146111125780631f7fdffa14610f9e5780632eb2c2d614610cc15780633f4ba83a14610c2d5780634e1273f414610a785780635c975abb14610a565780636b20c454146108c7578063731133e9146107b15780638456cb591461071a578063a22cb46514610626578063e985e9c5146105cd578063f242432a146101f75763f5298aca146100c8575f80fd5b346101f35760603660031901126101f3576100e1611461565b604435906001600160a01b03166024356100fc8215156118ce565b61010581611a2d565b5061010f83611a2d565b506020925f604051610121868261148d565b5260ff60c95416610199575f9382855260658152604085208486528152604085205461014f83821015611926565b838652606582526040862085875282528260408720910390556040519283528201527fc3d58168c5ae7397731d063d5bbf3d657854427343f4c083240f7aacaa2d0f6260403392a4005b60405162461bcd60e51b815260048101859052602c60248201527f455243313135355061757361626c653a20746f6b656e207472616e736665722060448201526b1dda1a5b19481c185d5cd95960a21b6064820152608490fd5b5f80fd5b346101f35760a03660031901126101f357610210611461565b610218611477565b604435906064359060843567ffffffffffffffff81116101f3576102486001600160a01b0391369060040161158e565b94169233841480156105a4575b15610539576001600160a01b038216916102708315156117ea565b61027982611a2d565b5061028384611a2d565b5060ff60c954166104df57815f52606560205260405f20855f5260205260405f20546102b18582101561185c565b5f838152606560209081526040808320898452909152808220928790039092558481522080546102e29086906117a4565b905582856040518481528660208201527fc3d58168c5ae7397731d063d5bbf3d657854427343f4c083240f7aacaa2d0f6260403392a43b61031f57005b5f6020946103606040519788968795869463f23a6e6160e01b865233600487015260248601526044850152606484015260a0608484015260a48301906114f5565b03925af15f91816104ae575b5061042a5761037961199e565b6308c379a0146103f3575b60405162461bcd60e51b815260206004820152603460248201527f455243313135353a207472616e7366657220746f206e6f6e204552433131353560448201527f526563656976657220696d706c656d656e7465720000000000000000000000006064820152608490fd5b0390fd5b6103fb6119b9565b806104065750610384565b60405162461bcd60e51b8152602060048201529081906103ef9060248301906114f5565b6001600160e01b031916630dc5919f60e01b0161044357005b60405162461bcd60e51b815260206004820152602860248201527f455243313135353a204552433131353552656365697665722072656a6563746560448201527f6420746f6b656e730000000000000000000000000000000000000000000000006064820152608490fd5b6104d191925060203d6020116104d8575b6104c9818361148d565b81019061197e565b908261036c565b503d6104bf565b60405162461bcd60e51b815260206004820152602c60248201527f455243313135355061757361626c653a20746f6b656e207472616e736665722060448201526b1dda1a5b19481c185d5cd95960a21b6064820152608490fd5b60405162461bcd60e51b815260206004820152602960248201527f455243313135353a2063616c6c6572206973206e6f74206f776e6572206e6f7260448201527f20617070726f76656400000000000000000000000000000000000000000000006064820152608490fd5b50835f52606660205260405f206001600160a01b0333165f5260205260ff60405f205416610255565b346101f35760403660031901126101f3576105e6611461565b6001600160a01b036105f6611477565b91165f5260666020526001600160a01b0360405f2091165f52602052602060ff60405f2054166040519015158152f35b346101f35760403660031901126101f35761063f611461565b602435908115158092036101f3576001600160a01b0316908133146106af57335f52606660205260405f20825f5260205260405f2060ff1981541660ff83161790556040519081527f17307eab39ab6107e8899845ad3d59bd9653f200f220920489ca2b5937696c3160203392a3005b60405162461bcd60e51b815260206004820152602960248201527f455243313135353a2073657474696e6720617070726f76616c2073746174757360448201527f20666f722073656c6600000000000000000000000000000000000000000000006064820152608490fd5b346101f3575f3660031901126101f35760c95460ff811661076c5760019060ff19161760c9557f62e78cea01bee320cd4e420270b5ea74000d11b0c9f74754ebdbfc544b05a2586020604051338152a1005b60405162461bcd60e51b815260206004820152601060248201527f5061757361626c653a20706175736564000000000000000000000000000000006044820152606490fd5b346101f35760803660031901126101f3576107ca611461565b6024356044359160643567ffffffffffffffff81116101f3576107f190369060040161158e565b906001600160a01b038116906108088215156116dc565b61081184611a2d565b5061081b85611a2d565b5060ff60c954166104df57835f52606560205260405f20825f5260205260405f206108478682546117a4565b9055815f6040518681528760208201527fc3d58168c5ae7397731d063d5bbf3d657854427343f4c083240f7aacaa2d0f6260403392a43b61088457005b610360935f6020946040519687958694859363f23a6e6160e01b85523360048601528560248601526044850152606484015260a0608484015260a48301906114f5565b346101f35760603660031901126101f3576108e0611461565b60243567ffffffffffffffff81116101f357610900903690600401611531565b9060443567ffffffffffffffff81116101f3576109296001600160a01b03913690600401611531565b9116906109378215156118ce565b6109448351825114611732565b60205f604051610954838261148d565b5260ff60c954166109fd575f5b84518110156109c25780610977600192876116b4565b5161098282866116b4565b51815f526065855260405f20875f52855260405f2054916109a582841015611926565b5f526065855260405f20875f52855260405f209103905501610961565b5f84867f4a39dc06d4c0dbc64b70af90fd698a233a518aa5d07e595d983b8c0526c8f7fb6109f8876040519182913395836117c5565b0390a4005b6084906040519062461bcd60e51b82526004820152602c60248201527f455243313135355061757361626c653a20746f6b656e207472616e736665722060448201526b1dda1a5b19481c185d5cd95960a21b6064820152fd5b346101f3575f3660031901126101f357602060ff60c954166040519015158152f35b346101f35760403660031901126101f35760043567ffffffffffffffff81116101f357366023820112156101f3578060040135610ab481611519565b91610ac2604051938461148d565b8183526024602084019260051b820101903682116101f357602401915b818310610c0d578360243567ffffffffffffffff81116101f357610b07903690600401611531565b908051825103610ba257805191610b1d83611519565b92610b2b604051948561148d565b808452610b3a601f1991611519565b013660208501375f5b8251811015610b885780610b776001600160a01b03610b64600194876116b4565b5116610b7083866116b4565b51906115df565b610b8182876116b4565b5201610b43565b60405160208082528190610b9e908201876115ac565b0390f35b60405162461bcd60e51b815260206004820152602960248201527f455243313135353a206163636f756e747320616e6420696473206c656e67746860448201527f206d69736d6174636800000000000000000000000000000000000000000000006064820152608490fd5b82356001600160a01b03811681036101f357815260209283019201610adf565b346101f3575f3660031901126101f35760c95460ff811615610c7c5760ff191660c9557f5db9ee0a495bf2e6ff9c91a7834c1ba4fdd244a5e8aa4e537bd38aeae4b073aa6020604051338152a1005b60405162461bcd60e51b815260206004820152601460248201527f5061757361626c653a206e6f74207061757365640000000000000000000000006044820152606490fd5b346101f35760a03660031901126101f357610cda611461565b610ce2611477565b60443567ffffffffffffffff81116101f357610d02903690600401611531565b60643567ffffffffffffffff81116101f357610d22903690600401611531565b9260843567ffffffffffffffff81116101f357610d4b6001600160a01b0391369060040161158e565b9116913383148015610f75575b15610f0a57610d6a8151865114611732565b6001600160a01b03841691610d808315156117ea565b60ff60c954166104df575f5b8251811015610e155780610da2600192856116b4565b51610dad828a6116b4565b5190805f52606560205260405f20885f5260205260405f2054610dd28382101561185c565b815f52606560205260405f20895f526020528260405f20910390555f52606560205260405f20865f52602052610e0d60405f209182546117a4565b905501610d8c565b509382846040517f4a39dc06d4c0dbc64b70af90fd698a233a518aa5d07e595d983b8c0526c8f7fb339180610e4b8c89836117c5565b0390a43b610e5557005b5f610e9393610eb7602096610ea5604051998a988997889663bc197c8160e01b8852336004890152602488015260a0604488015260a48701906115ac565b858103600319016064870152906115ac565b838103600319016084850152906114f5565b03925af15f9181610ee9575b50610ed05761037961199e565b6001600160e01b0319166343e6837f60e01b0161044357005b610f0391925060203d6020116104d8576104c9818361148d565b9082610ec3565b60405162461bcd60e51b815260206004820152603260248201527f455243313135353a207472616e736665722063616c6c6572206973206e6f742060448201527f6f776e6572206e6f7220617070726f76656400000000000000000000000000006064820152608490fd5b50825f52606660205260405f206001600160a01b0333165f5260205260ff60405f205416610d58565b346101f35760803660031901126101f357610fb7611461565b60243567ffffffffffffffff81116101f357610fd7903690600401611531565b60443567ffffffffffffffff81116101f357610ff7903690600401611531565b9060643567ffffffffffffffff81116101f35761101890369060040161158e565b916001600160a01b0384169061102f8215156116dc565b61103c8351825114611732565b60ff60c954166104df575f5b8351811015611092578061105e600192846116b4565b5161106982876116b4565b515f52606560205260405f20855f5260205261108a60405f209182546117a4565b905501611048565b509193815f6040517f4a39dc06d4c0dbc64b70af90fd698a233a518aa5d07e595d983b8c0526c8f7fb3391806110c9898c836117c5565b0390a43b6110d357005b610e935f610ea595610eb76020966040519889978896879563bc197c8160e01b875233600488015287602488015260a0604488015260a48701906115ac565b346101f35760203660031901126101f3576040515f6067546111338161167c565b80845290600181169081156111cd575060011461116f575b610b9e8361115b8185038261148d565b6040519182916020835260208301906114f5565b91905060675f527f9787eeb91fe3101235e4a76063c7023ecb40f923f97916639c598592fa30d6ae915f905b8082106111b35750909150810160200161115b61114b565b91926001816020925483858801015201910190929161119b565b60ff191660208086019190915291151560051b8401909101915061115b905061114b565b346101f35760203660031901126101f35760043567ffffffffffffffff81116101f357366023820112156101f3576112339036906024816004013591016114af565b805167ffffffffffffffff81116113b05761124f60675461167c565b601f811161130f575b50602091601f8211600114611294579181925f92611289575b50505f19600383901b1c191660019190911b17606755005b015190508280611271565b601f1982169260675f527f9787eeb91fe3101235e4a76063c7023ecb40f923f97916639c598592fa30d6ae915f5b8581106112f7575083600195106112df575b505050811b01606755005b01515f1960f88460031b161c191690558280806112d4565b919260206001819286850151815501940192016112c2565b60675f52601f820160051c7f9787eeb91fe3101235e4a76063c7023ecb40f923f97916639c598592fa30d6ae019060208310611388575b601f0160051c7f9787eeb91fe3101235e4a76063c7023ecb40f923f97916639c598592fa30d6ae01905b81811061137d5750611258565b5f8155600101611370565b7f9787eeb91fe3101235e4a76063c7023ecb40f923f97916639c598592fa30d6ae9150611346565b634e487b7160e01b5f52604160045260245ffd5b346101f35760203660031901126101f35760043563ffffffff60e01b81168091036101f357602090636cdb3d1360e11b8114908115611421575b8115611410575b506040519015158152f35b6301ffc9a760e01b14905082611405565b6303a24d0760e21b811491506113fe565b346101f35760403660031901126101f3576020611459611450611461565b602435906115df565b604051908152f35b600435906001600160a01b03821682036101f357565b602435906001600160a01b03821682036101f357565b90601f8019910116810190811067ffffffffffffffff8211176113b057604052565b92919267ffffffffffffffff82116113b057604051916114d9601f8201601f19166020018461148d565b8294818452818301116101f3578281602093845f960137010152565b805180835260209291819084018484015e5f828201840152601f01601f1916010190565b67ffffffffffffffff81116113b05760051b60200190565b9080601f830112156101f357813561154881611519565b92611556604051948561148d565b81845260208085019260051b8201019283116101f357602001905b82821061157e5750505090565b8135815260209182019101611571565b9080601f830112156101f3578160206115a9933591016114af565b90565b90602080835192838152019201905f5b8181106115c95750505090565b82518452602093840193909201916001016115bc565b906001600160a01b03821615611611575f5260656020526001600160a01b0360405f2091165f5260205260405f205490565b60405162461bcd60e51b815260206004820152602b60248201527f455243313135353a2062616c616e636520717565727920666f7220746865207a60448201527f65726f20616464726573730000000000000000000000000000000000000000006064820152608490fd5b90600182811c921680156116aa575b602083101461169657565b634e487b7160e01b5f52602260045260245ffd5b91607f169161168b565b80518210156116c85760209160051b010190565b634e487b7160e01b5f52603260045260245ffd5b156116e357565b60405162461bcd60e51b815260206004820152602160248201527f455243313135353a206d696e7420746f20746865207a65726f206164647265736044820152607360f81b6064820152608490fd5b1561173957565b60405162461bcd60e51b815260206004820152602860248201527f455243313135353a2069647320616e6420616d6f756e7473206c656e6774682060448201527f6d69736d617463680000000000000000000000000000000000000000000000006064820152608490fd5b919082018092116117b157565b634e487b7160e01b5f52601160045260245ffd5b90916117dc6115a9936040845260408401906115ac565b9160208184039101526115ac565b156117f157565b60405162461bcd60e51b815260206004820152602560248201527f455243313135353a207472616e7366657220746f20746865207a65726f20616460448201527f64726573730000000000000000000000000000000000000000000000000000006064820152608490fd5b1561186357565b60405162461bcd60e51b815260206004820152602a60248201527f455243313135353a20696e73756666696369656e742062616c616e636520666f60448201527f72207472616e73666572000000000000000000000000000000000000000000006064820152608490fd5b156118d557565b60405162461bcd60e51b815260206004820152602360248201527f455243313135353a206275726e2066726f6d20746865207a65726f206164647260448201526265737360e81b6064820152608490fd5b1561192d57565b60405162461bcd60e51b8152602060048201526024808201527f455243313135353a206275726e20616d6f756e7420657863656564732062616c604482015263616e636560e01b6064820152608490fd5b908160209103126101f357516001600160e01b0319811681036101f35790565b5f9060033d116119aa57565b905060045f803e5f5160e01c90565b5f60443d106115a9576040513d600319016004823e8051913d602484011167ffffffffffffffff841117611a27578282019283519167ffffffffffffffff8311611a1f573d84016003190185840160200111611a1f57506115a99291016020019061148d565b949350505050565b92915050565b60405190611a3c60408361148d565b600182526020808301903682378251156116c857529056fea2646970667358221220108d116a6b2093608d16f2a44dccce33a97a6117c1e9f92bd0571894284f98aa64736f6c634300081a0033","linkReferences":{}},"methodIdentifiers":{"balanceOf(address,uint256)":"00fdd58e","balanceOfBatch(address[],uint256[])":"4e1273f4","burn(address,uint256,uint256)":"f5298aca","burnBatch(address,uint256[],uint256[])":"6b20c454","isApprovedForAll(address,address)":"e985e9c5","mint(address,uint256,uint256,bytes)":"731133e9","mintBatch(address,uint256[],uint256[],bytes)":"1f7fdffa","pause()":"8456cb59","paused()":"5c975abb","safeBatchTransferFrom(address,address,uint256[],uint256[],bytes)":"2eb2c2d6","safeTransferFrom(address,address,uint256,uint256,bytes)":"f242432a","setApprovalForAll(address,bool)":"a22cb465","setURI(string)":"02fe5305","supportsInterface(bytes4)":"01ffc9a7","unpause()":"3f4ba83a","uri(uint256)":"0e89341c"},"id":330}