{"abi":[{"type":"constructor","inputs":[{"name":"name","type":"string","internalType":"string"},{"name":"symbol","type":"string","internalType":"string"},{"name":"initialAccount","type":"address","internalType":"address"},{"name":"initialBalance","type":"uint256","internalType":"uint256"}],"stateMutability":"nonpayable"},{"type":"function","name":"allowance","inputs":[{"name":"owner","type":"address","internalType":"address"},{"name":"spender","type":"address","internalType":"address"}],"outputs":[{"name":"","type":"uint256","internalType":"uint256"}],"stateMutability":"view"},{"type":"function","name":"approve","inputs":[{"name":"spender","type":"address","internalType":"address"},{"name":"amount","type":"uint256","internalType":"uint256"}],"outputs":[{"name":"","type":"bool","internalType":"bool"}],"stateMutability":"nonpayable"},{"type":"function","name":"balanceOf","inputs":[{"name":"account","type":"address","internalType":"address"}],"outputs":[{"name":"","type":"uint256","internalType":"uint256"}],"stateMutability":"view"},{"type":"function","name":"decimals","inputs":[],"outputs":[{"name":"","type":"uint8","internalType":"uint8"}],"stateMutability":"view"},{"type":"function","name":"decreaseAllowance","inputs":[{"name":"spender","type":"address","internalType":"address"},{"name":"subtractedValue","type":"uint256","internalType":"uint256"}],"outputs":[{"name":"","type":"bool","internalType":"bool"}],"stateMutability":"nonpayable"},{"type":"function","name":"flashFee","inputs":[{"name":"token","type":"address","internalType":"address"},{"name":"amount","type":"uint256","internalType":"uint256"}],"outputs":[{"name":"","type":"uint256","internalType":"uint256"}],"stateMutability":"view"},{"type":"function","name":"flashLoan","inputs":[{"name":"receiver","type":"address","internalType":"contract IERC3156FlashBorrower"},{"name":"token","type":"address","internalType":"address"},{"name":"amount","type":"uint256","internalType":"uint256"},{"name":"data","type":"bytes","internalType":"bytes"}],"outputs":[{"name":"","type":"bool","internalType":"bool"}],"stateMutability":"nonpayable"},{"type":"function","name":"increaseAllowance","inputs":[{"name":"spender","type":"address","internalType":"address"},{"name":"addedValue","type":"uint256","internalType":"uint256"}],"outputs":[{"name":"","type":"bool","internalType":"bool"}],"stateMutability":"nonpayable"},{"type":"function","name":"maxFlashLoan","inputs":[{"name":"token","type":"address","internalType":"address"}],"outputs":[{"name":"","type":"uint256","internalType":"uint256"}],"stateMutability":"view"},{"type":"function","name":"name","inputs":[],"outputs":[{"name":"","type":"string","internalType":"string"}],"stateMutability":"view"},{"type":"function","name":"symbol","inputs":[],"outputs":[{"name":"","type":"string","internalType":"string"}],"stateMutability":"view"},{"type":"function","name":"totalSupply","inputs":[],"outputs":[{"name":"","type":"uint256","internalType":"uint256"}],"stateMutability":"view"},{"type":"function","name":"transfer","inputs":[{"name":"recipient","type":"address","internalType":"address"},{"name":"amount","type":"uint256","internalType":"uint256"}],"outputs":[{"name":"","type":"bool","internalType":"bool"}],"stateMutability":"nonpayable"},{"type":"function","name":"transferFrom","inputs":[{"name":"sender","type":"address","internalType":"address"},{"name":"recipient","type":"address","internalType":"address"},{"name":"amount","type":"uint256","internalType":"uint256"}],"outputs":[{"name":"","type":"bool","internalType":"bool"}],"stateMutability":"nonpayable"},{"type":"event","name":"Approval","inputs":[{"name":"owner","type":"address","indexed":true,"internalType":"address"},{"name":"spender","type":"address","indexed":true,"internalType":"address"},{"name":"value","type":"uint256","indexed":false,"internalType":"uint256"}],"anonymous":false},{"type":"event","name":"Transfer","inputs":[{"name":"from","type":"address","indexed":true,"internalType":"address"},{"name":"to","type":"address","indexed":true,"internalType":"address"},{"name":"value","type":"uint256","indexed":false,"internalType":"uint256"}],"anonymous":false}],"bytecode":{"object":"0x6080604052346103d15761121780380380610019816103d5565b9283398101906080818303126103d15780516001600160401b0381116103d157826100459183016103fa565b602082015190926001600160401b0382116103d1576100659183016103fa565b604082015190916001600160a01b038216918290036103d1576060015183516001600160401b0381116102e257600354600181811c911680156103c7575b60208210146102c457601f8111610364575b50602094601f8211600114610301579481929394955f926102f6575b50508160011b915f199060031b1c1916176003555b82516001600160401b0381116102e257600454600181811c911680156102d8575b60208210146102c457601f8111610261575b506020601f82116001146101fe57819293945f926101f3575b50508160011b915f199060031b1c1916176004555b81156101ae577fddf252ad1be2c89b69c2b068fc378daa952ba7f163c4a11628f55a4df523b3ef60208261017e5f9460025461044b565b6002558484528382526040842061019682825461044b565b9055604051908152a3604051610daa908161046d8239f35b60405162461bcd60e51b815260206004820152601f60248201527f45524332303a206d696e7420746f20746865207a65726f2061646472657373006044820152606490fd5b015190505f80610132565b601f1982169060045f52805f20915f5b81811061024957509583600195969710610231575b505050811b01600455610147565b01515f1960f88460031b161c191690555f8080610223565b9192602060018192868b01518155019401920161020e565b60045f527f8a35acfbc15ff81a39ae7d344fd709f28e8600b4aa8c65c6b64bfe7fe36bd19b601f830160051c810191602084106102ba575b601f0160051c01905b8181106102af5750610119565b5f81556001016102a2565b9091508190610299565b634e487b7160e01b5f52602260045260245ffd5b90607f1690610107565b634e487b7160e01b5f52604160045260245ffd5b015190505f806100d1565b601f1982169560035f52805f20915f5b88811061034c57508360019596979810610334575b505050811b016003556100e6565b01515f1960f88460031b161c191690555f8080610326565b91926020600181928685015181550194019201610311565b60035f527fc2575a0e9e593c00f959f8c92f12db2869c3395a3b0502d05e2516446f71f85b601f830160051c810191602084106103bd575b601f0160051c01905b8181106103b257506100b5565b5f81556001016103a5565b909150819061039c565b90607f16906100a3565b5f80fd5b6040519190601f01601f191682016001600160401b038111838210176102e257604052565b81601f820112156103d1578051906001600160401b0382116102e257610429601f8301601f19166020016103d5565b92828452602083830101116103d157815f9260208093018386015e8301015290565b9190820180921161045857565b634e487b7160e01b5f52601160045260245ffdfe6080806040526004361015610012575f80fd5b5f3560e01c90816306fdde03146108f957508063095ea7b3146108d357806318160ddd146108b657806323b872dd146107dd578063313ce567146107c257806339509351146107735780635cffe9de1461039f578063613255ab1461036157806370a082311461032a57806395d89b4114610226578063a457c2d71461016a578063a9059cbb14610139578063d9d98ce41461010e5763dd62ed3e146100b6575f80fd5b3461010a57604036600319011261010a576100cf6109db565b6001600160a01b036100df6109f1565b91165f5260016020526001600160a01b0360405f2091165f52602052602060405f2054604051908152f35b5f80fd5b3461010a57604036600319011261010a57602061013161012c6109db565b610a6b565b604051908152f35b3461010a57604036600319011261010a5761015f6101556109db565b6024359033610bc8565b602060405160018152f35b3461010a57604036600319011261010a576101836109db565b60243590335f52600160205260405f206001600160a01b0382165f5260205260405f2054918083106101bb5761015f92039033610ac4565b60405162461bcd60e51b815260206004820152602560248201527f45524332303a2064656372656173656420616c6c6f77616e63652062656c6f7760448201527f207a65726f0000000000000000000000000000000000000000000000000000006064820152608490fd5b3461010a575f36600319011261010a576040515f6004548060011c90600181168015610320575b60208310811461030c578285529081156102e8575060011461028a575b6102868361027a81850382610a07565b604051918291826109b1565b0390f35b91905060045f527f8a35acfbc15ff81a39ae7d344fd709f28e8600b4aa8c65c6b64bfe7fe36bd19b915f905b8082106102ce5750909150810160200161027a61026a565b9192600181602092548385880101520191019092916102b6565b60ff191660208086019190915291151560051b8401909101915061027a905061026a565b634e487b7160e01b5f52602260045260245ffd5b91607f169161024d565b3461010a57602036600319011261010a576001600160a01b0361034b6109db565b165f525f602052602060405f2054604051908152f35b3461010a57602036600319011261010a5761037a6109db565b6001600160a01b0316300361039757602060025419604051908152f35b60205f610131565b3461010a57608036600319011261010a576004356001600160a01b03811680910361010a576103cc6109f1565b6044359060643567ffffffffffffffff811161010a573660238201121561010a57806004013567ffffffffffffffff811161010a57366024828401011161010a5761041683610a6b565b92851561072e5760c46001600160a01b039160209361043788600254610a3d565b600255885f525f855260405f2061044f898254610a3d565b9055885f7fddf252ad1be2c89b69c2b068fc378daa952ba7f163c4a11628f55a4df523b3ef876040518c8152a380602460405197889687956323e30c8b60e01b875233600488015216828601528a604486015289606486015260a060848601528260a486015201848401375f838284010152601f801991011681010301815f885af18015610723575f906106d1575b7f439148f0bbc682ca079e46d6e2c2f0c1e3b820f1a291b069d8882abf8cf18dd991500361068057825f52600160205260405f206001600160a01b0330165f5260205260405f2054916105318282610a3d565b8310610615576105576105508361054b8461055c97610a5e565b610a5e565b3086610ac4565b610a3d565b90805f525f60205260405f2054918083106105c5576020817fddf252ad1be2c89b69c2b068fc378daa952ba7f163c4a11628f55a4df523b3ef925f958587528684520360408620556105b081600254610a5e565b600255604051908152a3602060405160018152f35b60405162461bcd60e51b815260206004820152602260248201527f45524332303a206275726e20616d6f756e7420657863656564732062616c616e604482015261636560f01b6064820152608490fd5b60405162461bcd60e51b815260206004820152602f60248201527f4552433230466c6173684d696e743a20616c6c6f77616e636520646f6573206e60448201527f6f7420616c6c6f7720726566756e6400000000000000000000000000000000006064820152608490fd5b60405162461bcd60e51b8152602060048201526024808201527f4552433230466c6173684d696e743a20696e76616c69642072657475726e2076604482015263616c756560e01b6064820152608490fd5b506020813d60201161071b575b816106eb60209383610a07565b8101031261010a577f439148f0bbc682ca079e46d6e2c2f0c1e3b820f1a291b069d8882abf8cf18dd990516104de565b3d91506106de565b6040513d5f823e3d90fd5b60405162461bcd60e51b815260206004820152601f60248201527f45524332303a206d696e7420746f20746865207a65726f2061646472657373006044820152606490fd5b3461010a57604036600319011261010a5761015f61078f6109db565b335f52600160205260405f206001600160a01b0382165f526020526107bb60405f206024359054610a3d565b9033610ac4565b3461010a575f36600319011261010a57602060405160128152f35b3461010a57606036600319011261010a576107f66109db565b6107fe6109f1565b9061080d604435809383610bc8565b6001600160a01b0381165f52600160205260405f206001600160a01b0333165f5260205260405f20549180831061084b5761015f9203903390610ac4565b60405162461bcd60e51b815260206004820152602860248201527f45524332303a207472616e7366657220616d6f756e742065786365656473206160448201527f6c6c6f77616e63650000000000000000000000000000000000000000000000006064820152608490fd5b3461010a575f36600319011261010a576020600254604051908152f35b3461010a57604036600319011261010a5761015f6108ef6109db565b6024359033610ac4565b3461010a575f36600319011261010a575f6003548060011c906001811680156109a7575b60208310811461030c578285529081156102e85750600114610949576102868361027a81850382610a07565b91905060035f527fc2575a0e9e593c00f959f8c92f12db2869c3395a3b0502d05e2516446f71f85b915f905b80821061098d5750909150810160200161027a61026a565b919260018160209254838588010152019101909291610975565b91607f169161091d565b602060409281835280519182918282860152018484015e5f828201840152601f01601f1916010190565b600435906001600160a01b038216820361010a57565b602435906001600160a01b038216820361010a57565b90601f8019910116810190811067ffffffffffffffff821117610a2957604052565b634e487b7160e01b5f52604160045260245ffd5b91908201809211610a4a57565b634e487b7160e01b5f52601160045260245ffd5b91908203918211610a4a57565b6001600160a01b0330911603610a7f575f90565b60405162461bcd60e51b815260206004820152601b60248201527f4552433230466c6173684d696e743a2077726f6e6720746f6b656e00000000006044820152606490fd5b6001600160a01b0316908115610b77576001600160a01b0316918215610b275760207f8c5be1e5ebec7d5bd14f71427d1e84f3dd0314c0f7b2291e5b200ac8c7c3b92591835f526001825260405f20855f5282528060405f2055604051908152a3565b60405162461bcd60e51b815260206004820152602260248201527f45524332303a20617070726f766520746f20746865207a65726f206164647265604482015261737360f01b6064820152608490fd5b60405162461bcd60e51b8152602060048201526024808201527f45524332303a20617070726f76652066726f6d20746865207a65726f206164646044820152637265737360e01b6064820152608490fd5b6001600160a01b0316908115610d09576001600160a01b0316918215610cb857815f525f60205260405f2054818110610c4d57817fddf252ad1be2c89b69c2b068fc378daa952ba7f163c4a11628f55a4df523b3ef92602092855f525f84520360405f2055845f525f825260405f20610c42828254610a3d565b9055604051908152a3565b60405162461bcd60e51b815260206004820152602660248201527f45524332303a207472616e7366657220616d6f756e742065786365656473206260448201527f616c616e636500000000000000000000000000000000000000000000000000006064820152608490fd5b60405162461bcd60e51b815260206004820152602360248201527f45524332303a207472616e7366657220746f20746865207a65726f206164647260448201526265737360e81b6064820152608490fd5b60405162461bcd60e51b815260206004820152602560248201527f45524332303a207472616e736665722066726f6d20746865207a65726f20616460448201527f64726573730000000000000000000000000000000000000000000000000000006064820152608490fdfea2646970667358221220893a35ef4bf3cb042833424c17e5cb8eaec6b831818bbb16e3ff3a68487f91ee64736f6c634300081a0033","linkReferences":{}},"methodIdentifiers":{"allowance(address,address)":"dd62ed3e","approve(address,uint256)":"095ea7b3","balanceOf(address)":"70a08231","decimals()":"313ce567","decreaseAllowance(address,uint256)":"a457c2d7","flashFee(address,uint256)":"d9d98ce4","flashLoan(address,address,uint256,bytes)":"5cffe9de","increaseAllowance(address,uint256)":"39509351","maxFlashLoan(address)":"613255ab","name()":"06fdde03","symbol()":"95d89b41","totalSupply()":"18160ddd","transfer(address,uint256)":"a9059cbb","transferFrom(address,address,uint256)":"23b872dd"},"id":175}