{"abi":[{"type":"function","name":"initialize","inputs":[{"name":"value","type":"uint256","internalType":"uint256"}],"outputs":[],"stateMutability":"payable"},{"type":"function","name":"migrate","inputs":[{"name":"value","type":"uint256","internalType":"uint256"},{"name":"anotherValue","type":"uint256","internalType":"uint256"}],"outputs":[],"stateMutability":"payable"},{"type":"function","name":"migrate","inputs":[],"outputs":[],"stateMutability":"payable"},{"type":"function","name":"x","inputs":[],"outputs":[{"name":"","type":"uint256","internalType":"uint256"}],"stateMutability":"view"},{"type":"function","name":"y","inputs":[],"outputs":[{"name":"","type":"uint256","internalType":"uint256"}],"stateMutability":"view"}],"bytecode":{"object":"0x608080604052346015576101ed908161001a8239f35b5f80fdfe6080806040526004361015610012575f80fd5b5f3560e01c9081630c55699c1461019d575080633e54bacb1461016c5780638fd3ab801461013f578063a56dfe4a146101225763fe4b84df14610053575f80fd5b602036600319011261011e575f5460ff8160081c169081159182610113575b156100a85781610096575b5060043560015561008a57005b5f805461ff0019169055005b61ffff1916610101175f90815561007d565b60405162461bcd60e51b815260206004820152602e60248201527f496e697469616c697a61626c653a20636f6e747261637420697320616c72656160448201527f647920696e697469616c697a65640000000000000000000000000000000000006064820152608490fd5b5060ff811615610072565b5f80fd5b3461011e575f36600319011261011e576020600354604051908152f35b5f36600319011261011e5760045460ff811661011e57600180546003805483555560ff1990911617600455005b604036600319011261011e5760025460ff811661011e57600435600190815560243560035560ff1990911617600255005b3461011e575f36600319011261011e576020906001548152f3fea264697066735822122038a215844f9950e3bffa7fca201989d5a8073f7e90b873f91692925f98c8c27b64736f6c634300081a0033","linkReferences":{}},"methodIdentifiers":{"initialize(uint256)":"fe4b84df","migrate()":"8fd3ab80","migrate(uint256,uint256)":"3e54bacb","x()":"0c55699c","y()":"a56dfe4a"},"id":213}