{"abi":[{"type":"constructor","inputs":[{"name":"poolManager","type":"address","internalType":"contract IPoolManager"}],"stateMutability":"nonpayable"},{"type":"function","name":"currencyDelta","inputs":[{"name":"target","type":"address","internalType":"address"},{"name":"currency","type":"address","internalType":"Currency"}],"outputs":[{"name":"","type":"int256","internalType":"int256"}],"stateMutability":"view"},{"type":"function","name":"getFeeGrowthGlobals","inputs":[{"name":"poolId","type":"bytes32","internalType":"PoolId"}],"outputs":[{"name":"feeGrowthGlobal0","type":"uint256","internalType":"uint256"},{"name":"feeGrowthGlobal1","type":"uint256","internalType":"uint256"}],"stateMutability":"view"},{"type":"function","name":"getFeeGrowthInside","inputs":[{"name":"poolId","type":"bytes32","internalType":"PoolId"},{"name":"tickLower","type":"int24","internalType":"int24"},{"name":"tickUpper","type":"int24","internalType":"int24"}],"outputs":[{"name":"feeGrowthInside0X128","type":"uint256","internalType":"uint256"},{"name":"feeGrowthInside1X128","type":"uint256","internalType":"uint256"}],"stateMutability":"view"},{"type":"function","name":"getLiquidity","inputs":[{"name":"poolId","type":"bytes32","internalType":"PoolId"}],"outputs":[{"name":"liquidity","type":"uint128","internalType":"uint128"}],"stateMutability":"view"},{"type":"function","name":"getNonzeroDeltaCount","inputs":[],"outputs":[{"name":"","type":"uint256","internalType":"uint256"}],"stateMutability":"view"},{"type":"function","name":"getPositionInfo","inputs":[{"name":"poolId","type":"bytes32","internalType":"PoolId"},{"name":"positionId","type":"bytes32","internalType":"bytes32"}],"outputs":[{"name":"liquidity","type":"uint128","internalType":"uint128"},{"name":"feeGrowthInside0LastX128","type":"uint256","internalType":"uint256"},{"name":"feeGrowthInside1LastX128","type":"uint256","internalType":"uint256"}],"stateMutability":"view"},{"type":"function","name":"getPositionInfo","inputs":[{"name":"poolId","type":"bytes32","internalType":"PoolId"},{"name":"owner","type":"address","internalType":"address"},{"name":"tickLower","type":"int24","internalType":"int24"},{"name":"tickUpper","type":"int24","internalType":"int24"},{"name":"salt","type":"bytes32","internalType":"bytes32"}],"outputs":[{"name":"liquidity","type":"uint128","internalType":"uint128"},{"name":"feeGrowthInside0LastX128","type":"uint256","internalType":"uint256"},{"name":"feeGrowthInside1LastX128","type":"uint256","internalType":"uint256"}],"stateMutability":"view"},{"type":"function","name":"getPositionLiquidity","inputs":[{"name":"poolId","type":"bytes32","internalType":"PoolId"},{"name":"positionId","type":"bytes32","internalType":"bytes32"}],"outputs":[{"name":"liquidity","type":"uint128","internalType":"uint128"}],"stateMutability":"view"},{"type":"function","name":"getSlot0","inputs":[{"name":"poolId","type":"bytes32","internalType":"PoolId"}],"outputs":[{"name":"sqrtPriceX96","type":"uint160","internalType":"uint160"},{"name":"tick","type":"int24","internalType":"int24"},{"name":"protocolFee","type":"uint24","internalType":"uint24"},{"name":"lpFee","type":"uint24","internalType":"uint24"}],"stateMutability":"view"},{"type":"function","name":"getSyncedCurrency","inputs":[],"outputs":[{"name":"","type":"address","internalType":"Currency"}],"stateMutability":"view"},{"type":"function","name":"getSyncedReserves","inputs":[],"outputs":[{"name":"","type":"uint256","internalType":"uint256"}],"stateMutability":"view"},{"type":"function","name":"getTickBitmap","inputs":[{"name":"poolId","type":"bytes32","internalType":"PoolId"},{"name":"tick","type":"int16","internalType":"int16"}],"outputs":[{"name":"tickBitmap","type":"uint256","internalType":"uint256"}],"stateMutability":"view"},{"type":"function","name":"getTickFeeGrowthOutside","inputs":[{"name":"poolId","type":"bytes32","internalType":"PoolId"},{"name":"tick","type":"int24","internalType":"int24"}],"outputs":[{"name":"feeGrowthOutside0X128","type":"uint256","internalType":"uint256"},{"name":"feeGrowthOutside1X128","type":"uint256","internalType":"uint256"}],"stateMutability":"view"},{"type":"function","name":"getTickInfo","inputs":[{"name":"poolId","type":"bytes32","internalType":"PoolId"},{"name":"tick","type":"int24","internalType":"int24"}],"outputs":[{"name":"liquidityGross","type":"uint128","internalType":"uint128"},{"name":"liquidityNet","type":"int128","internalType":"int128"},{"name":"feeGrowthOutside0X128","type":"uint256","internalType":"uint256"},{"name":"feeGrowthOutside1X128","type":"uint256","internalType":"uint256"}],"stateMutability":"view"},{"type":"function","name":"getTickLiquidity","inputs":[{"name":"poolId","type":"bytes32","internalType":"PoolId"},{"name":"tick","type":"int24","internalType":"int24"}],"outputs":[{"name":"liquidityGross","type":"uint128","internalType":"uint128"},{"name":"liquidityNet","type":"int128","internalType":"int128"}],"stateMutability":"view"},{"type":"function","name":"isUnlocked","inputs":[],"outputs":[{"name":"","type":"bool","internalType":"bool"}],"stateMutability":"view"},{"type":"function","name":"manager","inputs":[],"outputs":[{"name":"","type":"address","internalType":"contract IPoolManager"}],"stateMutability":"view"}],"bytecode":{"object":"0x60a03460d657601f610fde38819003918201601f19168301916001600160401b0383118484101760da5780849260209460405283398101031260d657516001600160a01b038116810360d657608052604051610eef90816100ef823960805181818161011e015281816101fa015281816102900152818161036e0152818161040d015281816104b701528181610567015281816105bb0152818161060201528181610649015281816106b80152818161077401528181610832015281816108ed0152818161098b015281816109db0152610a270152f35b5f80fd5b634e487b7160e01b5f52604160045260245ffdfe60806040526004361015610011575f80fd5b5f3560e01c8063085998c314610a105780631a720488146109c45780631c7ccb4c14610911578063481c6a75146108ce57806353e9c1fb146108095780637c40f1fe1461072f5780638380edb71461066d5780638a2bb9e61461062657806397fd7b42146105eb5780639ec538c8146105a0578063a54b283114610503578063c815641c14610497578063caedab54146103c6578063dacf1d2f14610305578063db81718714610245578063f0928f29146101c05763fa6793d5146100d4575f80fd5b34610195576020366003190112610195576100f0600435610e2a565b600381018091116101ac5760405190631e2eaeaf60e01b825260048201526020816024816001600160a01b037f0000000000000000000000000000000000000000000000000000000000000000165afa80156101a1575f9061016a575b6020906fffffffffffffffffffffffffffffffff60405191168152f35b506020813d602011610199575b8161018460209383610a9f565b81010312610195576020905161014d565b5f80fd5b3d9150610177565b6040513d5f823e3d90fd5b634e487b7160e01b5f52601160045260245ffd5b34610195576101d76101d136610a73565b90610e86565b60405190631e2eaeaf60e01b825260048201526020816024816001600160a01b037f0000000000000000000000000000000000000000000000000000000000000000165afa80156101a1575f9061016a576020906fffffffffffffffffffffffffffffffff60405191168152f35b34610195575f3660031901126101955760405163789add5560e11b81527f7d4b3164c6e45b97e7d87b7125a44c5828d005af88f9d751cfd78729c5d99a0b60048201526020816024817f00000000000000000000000000000000000000000000000000000000000000006001600160a01b03165afa80156101a1575f906102d2575b602090604051908152f35b506020813d6020116102fd575b816102ec60209383610a9f565b8101031261019557602090516102c7565b3d91506102df565b346101955760a03660031901126101955761031e610a89565b610326610a63565b6064358060020b8103610195576103c292610392926040519260843560268501526006840152600383015281525f603a600c83012091816040820152816020820152526004357f0000000000000000000000000000000000000000000000000000000000000000610d14565b604080516fffffffffffffffffffffffffffffffff90941684526020840192909252908201529081906060820190565b0390f35b34610195576040366003190112610195576103ea6103e2610a53565b600435610e50565b60405190631e2eaeaf60e01b825260048201526020816024816001600160a01b037f0000000000000000000000000000000000000000000000000000000000000000165afa80156101a1575f90610464575b6040908151906fffffffffffffffffffffffffffffffff8116825260801d600f0b6020820152f35b506020813d60201161048f575b8161047e60209383610a9f565b81010312610195576040905161043c565b3d9150610471565b3461019557602036600319011261019557608062ffffff806104db6004357f0000000000000000000000000000000000000000000000000000000000000000610d91565b9294916001600160a01b036040519616865260020b6020860152166040840152166060820152f35b34610195576040366003190112610195576004356001600160a01b038116809103610195576001600160a01b0390610539610a89565b905f521660205260405f206040519063789add5560e11b825260048201526020816024816001600160a01b037f0000000000000000000000000000000000000000000000000000000000000000165afa80156101a1575f906102d257602090604051908152f35b346101955760203660031901126101955760406105df6004357f0000000000000000000000000000000000000000000000000000000000000000610d86565b82519182526020820152f35b34610195576103c26103926105ff36610a73565b907f0000000000000000000000000000000000000000000000000000000000000000610d14565b346101955760403660031901126101955760406105df610644610a53565b6004357f0000000000000000000000000000000000000000000000000000000000000000610c98565b34610195575f3660031901126101955760405163789add5560e11b81527fc090fc4683624cfc3884e9d8de5eca132f2d0ec062aff75d43c0465d5ceeab2360048201526020816024817f00000000000000000000000000000000000000000000000000000000000000006001600160a01b03165afa80156101a1575f906106fc575b6020906040519015158152f35b506020813d602011610727575b8161071660209383610a9f565b8101031261019557602090516106ef565b3d9150610709565b346101955760403660031901126101955761074b6103e2610a53565b60405190631afeb18d60e11b82526004820152600360248201525f816044816001600160a01b037f0000000000000000000000000000000000000000000000000000000000000000165afa80156101a1576080915f916107e7575b506020810151906060604082015191015190604051926fffffffffffffffffffffffffffffffff81168452841d600f0b602084015260408301526060820152f35b61080391503d805f833e6107fb8183610a9f565b810190610c13565b826107a6565b34610195576060366003190112610195576040600435610827610a53565b90610830610a63565b7f00000000000000000000000000000000000000000000000000000000000000009061085c8383610d86565b90610868868686610c98565b969093610881610879828989610c98565b989097610d91565b5050905060020b9160020b82125f146108a7575050505003910382519182526020820152f35b95969593949360020b136108bf5750500391036105df565b949392909403039203036105df565b34610195575f3660031901126101955760206040516001600160a01b037f0000000000000000000000000000000000000000000000000000000000000000168152f35b34610195576040366003190112610195576024358060010b8091036101955761093b600435610e2a565b600581018091116101ac576040519060208201928352604082015260408152610965606082610a9f565b51902060405190631e2eaeaf60e01b825260048201526020816024816001600160a01b037f0000000000000000000000000000000000000000000000000000000000000000165afa80156101a1575f906102d257602090604051908152f35b34610195575f3660031901126101955760206109ff7f0000000000000000000000000000000000000000000000000000000000000000610b78565b6001600160a01b0360405191168152f35b34610195575f366003190112610195576020610a4b7f0000000000000000000000000000000000000000000000000000000000000000610ad5565b604051908152f35b602435908160020b820361019557565b604435908160020b820361019557565b6040906003190112610195576004359060243590565b602435906001600160a01b038216820361019557565b90601f8019910116810190811067ffffffffffffffff821117610ac157604052565b634e487b7160e01b5f52604160045260245ffd5b6001600160a01b03610ae682610b78565b1615610b735760206001600160a01b039160246040518094819363789add5560e11b83527f1e0745a7db1623981f0b2a5d4232364c00787266eb75ad546f190e6cebe9bd956004840152165afa9081156101a1575f91610b44575090565b90506020813d602011610b6b575b81610b5f60209383610a9f565b81010312610195575190565b3d9150610b52565b505f90565b60206001600160a01b039160246040518094819363789add5560e11b83527f27e098c505d44ec3574004bca052aabf76bd35004c182099d8c575fb238593b96004840152165afa80156101a1575f90610bda575b6001600160a01b0391501690565b506020813d602011610c0b575b81610bf460209383610a9f565b81010312610195576001600160a01b039051610bcc565b3d9150610be7565b6020818303126101955780519067ffffffffffffffff821161019557019080601f830112156101955781519167ffffffffffffffff8311610ac1578260051b9060405193610c646020840186610a9f565b845260208085019282010192831161019557602001905b828210610c885750505090565b8151815260209182019101610c7b565b9291610ca391610e50565b600181018091116101ac576001600160a01b039260445f926040519586938492631afeb18d60e11b8452600484015260026024840152165afa9182156101a1575f92610cf8575b506040602083015192015190565b610d0d9192503d805f833e6107fb8183610a9f565b905f610cea565b6044610d296001600160a01b03945f94610e86565b6040519485938492631afeb18d60e11b8452600484015260036024840152165afa9081156101a1575f91610d6c575b506020810151916060604083015192015190565b610d8091503d805f833e6107fb8183610a9f565b5f610d58565b9190610ca390610e2a565b6020906024610da86001600160a01b039594610e2a565b6040519586938492631e2eaeaf60e01b84526004840152165afa9182156101a1575f92610df6575b506001600160a01b038216918060a01c60020b9162ffffff808360b81c169260d01c1690565b9091506020813d602011610e22575b81610e1260209383610a9f565b810103126101955751905f610dd0565b3d9150610e05565b604051602081019182526006604082015260408152610e4a606082610a9f565b51902090565b610e5990610e2a565b600481018091116101ac5760405190602082019260020b8352604082015260408152610e4a606082610a9f565b610e8f90610e2a565b600681018091116101ac576040519060208201928352604082015260408152610e4a606082610a9f56fea264697066735822122077d8907b0b4611d909af51afb6d30559d976a2c75b36ebdac943baaa44dfe79d64736f6c634300081a0033","linkReferences":{}},"methodIdentifiers":{"currencyDelta(address,address)":"a54b2831","getFeeGrowthGlobals(bytes32)":"9ec538c8","getFeeGrowthInside(bytes32,int24,int24)":"53e9c1fb","getLiquidity(bytes32)":"fa6793d5","getNonzeroDeltaCount()":"db817187","getPositionInfo(bytes32,address,int24,int24,bytes32)":"dacf1d2f","getPositionInfo(bytes32,bytes32)":"97fd7b42","getPositionLiquidity(bytes32,bytes32)":"f0928f29","getSlot0(bytes32)":"c815641c","getSyncedCurrency()":"1a720488","getSyncedReserves()":"085998c3","getTickBitmap(bytes32,int16)":"1c7ccb4c","getTickFeeGrowthOutside(bytes32,int24)":"8a2bb9e6","getTickInfo(bytes32,int24)":"7c40f1fe","getTickLiquidity(bytes32,int24)":"caedab54","isUnlocked()":"8380edb7","manager()":"481c6a75"},"id":469}