{"abi":[{"type":"function","name":"msgData","inputs":[{"name":"integerValue","type":"uint256","internalType":"uint256"},{"name":"stringValue","type":"string","internalType":"string"}],"outputs":[],"stateMutability":"nonpayable"},{"type":"function","name":"msgSender","inputs":[],"outputs":[],"stateMutability":"nonpayable"},{"type":"event","name":"Data","inputs":[{"name":"data","type":"bytes","indexed":false,"internalType":"bytes"},{"name":"integerValue","type":"uint256","indexed":false,"internalType":"uint256"},{"name":"stringValue","type":"string","indexed":false,"internalType":"string"}],"anonymous":false},{"type":"event","name":"Sender","inputs":[{"name":"sender","type":"address","indexed":false,"internalType":"address"}],"anonymous":false}],"bytecode":{"object":"0x608080604052346015576101ca908161001a8239f35b5f80fdfe6080806040526004361015610012575f80fd5b5f3560e01c908163376bf26214610072575063d737d0c714610032575f80fd5b3461006e575f36600319011261006e577fd6558c3ed910d959271054471fd1c326679d9fece99c5091b00ed89627cf2bfc6020604051338152a1005b5f80fd5b3461006e57604036600319011261006e576024359067ffffffffffffffff821161006e573660238301121561006e5781600401359167ffffffffffffffff831161018057601f8301601f19908116603f0116820167ffffffffffffffff8111838210176101805760405282825260208201366024858401011161006e575f6020857faf235354a0a47c91ee171961326335cb2d1a8e55b8a89859b0e61eb049e50ea0966024839601853785010152608060405193849260608452366060850152365f848601375f833686010152601f19601f3601168401916004358686015283858403016040860152518091818585015260a084015e5f8282018401860152601f01601f19160101030190a1005b634e487b7160e01b5f52604160045260245ffdfea2646970667358221220fb848d60f5bb6c36e413b2efebd63ed058f723314b235d35b6b23b7fe021c6af64736f6c634300081a0033","linkReferences":{}},"methodIdentifiers":{"msgData(uint256,string)":"376bf262","msgSender()":"d737d0c7"},"id":322}