{"abi":[{"type":"constructor","inputs":[{"name":"name","type":"string","internalType":"string"},{"name":"symbol","type":"string","internalType":"string"}],"stateMutability":"nonpayable"},{"type":"function","name":"approve","inputs":[{"name":"to","type":"address","internalType":"address"},{"name":"tokenId","type":"uint256","internalType":"uint256"}],"outputs":[],"stateMutability":"nonpayable"},{"type":"function","name":"balanceOf","inputs":[{"name":"owner","type":"address","internalType":"address"}],"outputs":[{"name":"","type":"uint256","internalType":"uint256"}],"stateMutability":"view"},{"type":"function","name":"baseURI","inputs":[],"outputs":[{"name":"","type":"string","internalType":"string"}],"stateMutability":"view"},{"type":"function","name":"burn","inputs":[{"name":"tokenId","type":"uint256","internalType":"uint256"}],"outputs":[],"stateMutability":"nonpayable"},{"type":"function","name":"exists","inputs":[{"name":"tokenId","type":"uint256","internalType":"uint256"}],"outputs":[{"name":"","type":"bool","internalType":"bool"}],"stateMutability":"view"},{"type":"function","name":"getApproved","inputs":[{"name":"tokenId","type":"uint256","internalType":"uint256"}],"outputs":[{"name":"","type":"address","internalType":"address"}],"stateMutability":"view"},{"type":"function","name":"isApprovedForAll","inputs":[{"name":"owner","type":"address","internalType":"address"},{"name":"operator","type":"address","internalType":"address"}],"outputs":[{"name":"","type":"bool","internalType":"bool"}],"stateMutability":"view"},{"type":"function","name":"mint","inputs":[{"name":"to","type":"address","internalType":"address"},{"name":"tokenId","type":"uint256","internalType":"uint256"}],"outputs":[],"stateMutability":"nonpayable"},{"type":"function","name":"name","inputs":[],"outputs":[{"name":"","type":"string","internalType":"string"}],"stateMutability":"view"},{"type":"function","name":"ownerOf","inputs":[{"name":"tokenId","type":"uint256","internalType":"uint256"}],"outputs":[{"name":"","type":"address","internalType":"address"}],"stateMutability":"view"},{"type":"function","name":"safeMint","inputs":[{"name":"to","type":"address","internalType":"address"},{"name":"tokenId","type":"uint256","internalType":"uint256"},{"name":"_data","type":"bytes","internalType":"bytes"}],"outputs":[],"stateMutability":"nonpayable"},{"type":"function","name":"safeMint","inputs":[{"name":"to","type":"address","internalType":"address"},{"name":"tokenId","type":"uint256","internalType":"uint256"}],"outputs":[],"stateMutability":"nonpayable"},{"type":"function","name":"safeTransferFrom","inputs":[{"name":"from","type":"address","internalType":"address"},{"name":"to","type":"address","internalType":"address"},{"name":"tokenId","type":"uint256","internalType":"uint256"}],"outputs":[],"stateMutability":"nonpayable"},{"type":"function","name":"safeTransferFrom","inputs":[{"name":"from","type":"address","internalType":"address"},{"name":"to","type":"address","internalType":"address"},{"name":"tokenId","type":"uint256","internalType":"uint256"},{"name":"_data","type":"bytes","internalType":"bytes"}],"outputs":[],"stateMutability":"nonpayable"},{"type":"function","name":"setApprovalForAll","inputs":[{"name":"operator","type":"address","internalType":"address"},{"name":"approved","type":"bool","internalType":"bool"}],"outputs":[],"stateMutability":"nonpayable"},{"type":"function","name":"supportsInterface","inputs":[{"name":"interfaceId","type":"bytes4","internalType":"bytes4"}],"outputs":[{"name":"","type":"bool","internalType":"bool"}],"stateMutability":"view"},{"type":"function","name":"symbol","inputs":[],"outputs":[{"name":"","type":"string","internalType":"string"}],"stateMutability":"view"},{"type":"function","name":"tokenURI","inputs":[{"name":"tokenId","type":"uint256","internalType":"uint256"}],"outputs":[{"name":"","type":"string","internalType":"string"}],"stateMutability":"view"},{"type":"function","name":"transferFrom","inputs":[{"name":"from","type":"address","internalType":"address"},{"name":"to","type":"address","internalType":"address"},{"name":"tokenId","type":"uint256","internalType":"uint256"}],"outputs":[],"stateMutability":"nonpayable"},{"type":"event","name":"Approval","inputs":[{"name":"owner","type":"address","indexed":true,"internalType":"address"},{"name":"approved","type":"address","indexed":true,"internalType":"address"},{"name":"tokenId","type":"uint256","indexed":true,"internalType":"uint256"}],"anonymous":false},{"type":"event","name":"ApprovalForAll","inputs":[{"name":"owner","type":"address","indexed":true,"internalType":"address"},{"name":"operator","type":"address","indexed":true,"internalType":"address"},{"name":"approved","type":"bool","indexed":false,"internalType":"bool"}],"anonymous":false},{"type":"event","name":"Transfer","inputs":[{"name":"from","type":"address","indexed":true,"internalType":"address"},{"name":"to","type":"address","indexed":true,"internalType":"address"},{"name":"tokenId","type":"uint256","indexed":true,"internalType":"uint256"}],"anonymous":false}],"bytecode":{"object":"0x60806040523461030b576119a8803803806100198161030f565b92833981019060408183031261030b5780516001600160401b03811161030b5782610045918301610334565b60208201519092906001600160401b03811161030b576100659201610334565b81516001600160401b038111610221575f54600181811c91168015610301575b602082101461020357601f811161029f575b50602092601f821160011461024057928192935f92610235575b50508160011b915f199060031b1c1916175f555b80516001600160401b03811161022157600154600181811c91168015610217575b602082101461020357601f81116101a0575b50602091601f8211600114610140579181925f92610135575b50508160011b915f199060031b1c1916176001555b60405161162290816103868239f35b015190505f80610111565b601f1982169260015f52805f20915f5b85811061018857508360019510610170575b505050811b01600155610126565b01515f1960f88460031b161c191690555f8080610162565b91926020600181928685015181550194019201610150565b60015f527fb10e2d527612073b26eecdfd717e6a320cf44b4afac2b0732d9fcbe2b7fa0cf6601f830160051c810191602084106101f9575b601f0160051c01905b8181106101ee57506100f8565b5f81556001016101e1565b90915081906101d8565b634e487b7160e01b5f52602260045260245ffd5b90607f16906100e6565b634e487b7160e01b5f52604160045260245ffd5b015190505f806100b1565b601f198216935f8052805f20915f5b868110610287575083600195961061026f575b505050811b015f556100c5565b01515f1960f88460031b161c191690555f8080610262565b9192602060018192868501518155019401920161024f565b5f80527f290decd9548b62a8d60345a988386fc84ba6bc95484008f6362f93160ef3e563601f830160051c810191602084106102f7575b601f0160051c01905b8181106102ec5750610097565b5f81556001016102df565b90915081906102d6565b90607f1690610085565b5f80fd5b6040519190601f01601f191682016001600160401b0381118382101761022157604052565b81601f8201121561030b578051906001600160401b03821161022157610363601f8301601f191660200161030f565b928284526020838301011161030b57815f9260208093018386015e830101529056fe60806040526004361015610011575f80fd5b5f3560e01c806301ffc9a71461014457806306fdde031461013f578063081812fc1461013a578063095ea7b31461013557806323b872dd1461013057806340c10f191461012b57806342842e0e1461012657806342966c68146101215780634f558e791461011c5780636352211e146101175780636c0360eb1461011257806370a082311461010d5780638832e6e31461010857806395d89b4114610103578063a1448194146100fe578063a22cb465146100f9578063b88d4fde146100f4578063c87b56dd146100ef5763e985e9c5146100ea575f80fd5b610b05565b610a08565b6109b9565b6108d0565b610892565b6107dd565b610783565b610633565b6105fb565b6105dd565b6105a0565b61050f565b6104e6565b6104c1565b610498565b610368565b61030d565b61021d565b610177565b7fffffffff0000000000000000000000000000000000000000000000000000000081160361017357565b5f80fd5b3461017357602036600319011261017357602060043561019681610149565b63ffffffff60e01b166380ac58cd60e01b81149081156101d4575b81156101c3575b506040519015158152f35b6301ffc9a760e01b1490505f6101b8565b635b5e139f60e01b811491506101b1565b805180835260209291819084018484015e5f828201840152601f01601f1916010190565b90602061021a9281815201906101e5565b90565b34610173575f366003190112610173576040515f80548060011c9060018116908115610303575b6020831082146102ef5782855260208501919081156102d65750600114610286575b61028284610276818603826106fa565b60405191829182610209565b0390f35b5f8080529250907f290decd9548b62a8d60345a988386fc84ba6bc95484008f6362f93160ef3e5635b8184106102c25750500161027682610266565b8054848401526020909301926001016102af565b60ff191682525090151560051b01905061027682610266565b634e487b7160e01b5f52602260045260245ffd5b91607f1691610244565b3461017357602036600319011261017357602061032b600435610b63565b6001600160a01b0360405191168152f35b600435906001600160a01b038216820361017357565b602435906001600160a01b038216820361017357565b346101735760403660031901126101735761038161033c565b60243561038d81610cf0565b916001600160a01b038316806001600160a01b0383161461040f576103c5936103c09133149081156103c7575b50610bf8565b610e07565b005b6104099150610402906103ec33916001600160a01b03165f52600560205260405f2090565b906001600160a01b03165f5260205260405f2090565b5460ff1690565b5f6103ba565b60405162461bcd60e51b815260206004820152602160248201527f4552433732313a20617070726f76616c20746f2063757272656e74206f776e656044820152603960f91b6064820152608490fd5b6060906003190112610173576004356001600160a01b038116810361017357906024356001600160a01b0381168103610173579060443590565b34610173576103c56104a93661045e565b916104bc6104b78433610e6e565b610c6a565b610ff8565b34610173576040366003190112610173576103c56104dd61033c565b60243590611145565b34610173576103c56104f73661045e565b90604051926105076020856106fa565b5f8452610d79565b34610173576020366003190112610173576004356001600160a01b0361053482610cf0565b61053d83610db4565b16805f52600360205260405f209081545f19810190811161059b575f92558282526002602052604082206001600160a01b031981541690557fddf252ad1be2c89b69c2b068fc378daa952ba7f163c4a11628f55a4df523b3ef8280a4005b610fba565b346101735760203660031901126101735760206105d36004355f5260026020526001600160a01b0360405f205416151590565b6040519015158152f35b3461017357602036600319011261017357602061032b600435610cf0565b34610173575f3660031901126101735761028260405161061c6020826106fa565b5f81526040519182916020835260208301906101e5565b34610173576020366003190112610173576001600160a01b0361065461033c565b16801561067b575f52600360205261028260405f2054604051918291829190602083019252565b60405162461bcd60e51b815260206004820152602a60248201527f4552433732313a2062616c616e636520717565727920666f7220746865207a6560448201527f726f2061646472657373000000000000000000000000000000000000000000006064820152608490fd5b634e487b7160e01b5f52604160045260245ffd5b90601f8019910116810190811067ffffffffffffffff82111761071c57604052565b6106e6565b67ffffffffffffffff811161071c57601f01601f191660200190565b81601f820112156101735780359061075482610721565b9261076260405194856106fa565b8284526020838301011161017357815f926020809301838601378301015290565b346101735760603660031901126101735761079c61033c565b602435906044359067ffffffffffffffff8211610173576103c5926107c86107d893369060040161073d565b916107d38282611145565b61147c565b611265565b34610173575f366003190112610173576040515f6001548060011c9060018116908115610888575b6020831082146102ef5782855260208501919081156102d657506001146108365761028284610276818603826106fa565b60015f9081529250907fb10e2d527612073b26eecdfd717e6a320cf44b4afac2b0732d9fcbe2b7fa0cf65b8184106108745750500161027682610266565b805484840152602090930192600101610861565b91607f1691610805565b34610173576040366003190112610173576103c56107d86108b161033c565b602435604051916108c36020846106fa565b5f83526107d38282611145565b34610173576040366003190112610173576108e961033c565b6024358015158103610173576001600160a01b03821691338314610974578161093161094292335f52600560205260405f20906001600160a01b03165f5260205260405f2090565b9060ff801983541691151516179055565b604051901515815233907f17307eab39ab6107e8899845ad3d59bd9653f200f220920489ca2b5937696c3190602090a3005b60405162461bcd60e51b815260206004820152601960248201527f4552433732313a20617070726f766520746f2063616c6c6572000000000000006044820152606490fd5b34610173576080366003190112610173576109d261033c565b6109da610352565b906044356064359267ffffffffffffffff841161017357610a026103c594369060040161073d565b92610d79565b3461017357602036600319011261017357600435610a3a815f5260026020526001600160a01b0360405f205416151590565b15610a9a57610a47610cdc565b805115610a8857610276610a7491610a7a610a646102829561133c565b6040519485936020850190610da2565b90610da2565b03601f1981018352826106fa565b5050610282610a95610cdc565b610276565b60405162461bcd60e51b815260206004820152602f60248201527f4552433732314d657461646174613a2055524920717565727920666f72206e6f60448201527f6e6578697374656e7420746f6b656e00000000000000000000000000000000006064820152608490fd5b3461017357604036600319011261017357602060ff610b57610b2561033c565b6001600160a01b03610b35610352565b91165f526005845260405f20906001600160a01b03165f5260205260405f2090565b54166040519015158152f35b610b81815f5260026020526001600160a01b0360405f205416151590565b15610b9e575f5260046020526001600160a01b0360405f20541690565b60405162461bcd60e51b815260206004820152602c60248201527f4552433732313a20617070726f76656420717565727920666f72206e6f6e657860448201526b34b9ba32b73a103a37b5b2b760a11b6064820152608490fd5b15610bff57565b60405162461bcd60e51b815260206004820152603860248201527f4552433732313a20617070726f76652063616c6c6572206973206e6f74206f7760448201527f6e6572206e6f7220617070726f76656420666f7220616c6c00000000000000006064820152608490fd5b15610c7157565b60405162461bcd60e51b815260206004820152603160248201527f4552433732313a207472616e736665722063616c6c6572206973206e6f74206f60448201527f776e6572206e6f7220617070726f7665640000000000000000000000000000006064820152608490fd5b60405190610ceb6020836106fa565b5f8252565b5f5260026020526001600160a01b0360405f2054168015610d0e5790565b60405162461bcd60e51b815260206004820152602960248201527f4552433732313a206f776e657220717565727920666f72206e6f6e657869737460448201527f656e7420746f6b656e00000000000000000000000000000000000000000000006064820152608490fd5b91610da093916107d893610d906104b78433610e6e565b610d9b838383610ff8565b6115ab565b565b805191908290602001825e015f815290565b805f52600460205260405f206001600160a01b031981541690555f6001600160a01b03610de083610cf0565b167f8c5be1e5ebec7d5bd14f71427d1e84f3dd0314c0f7b2291e5b200ac8c7c3b9258280a4565b815f526004602052610e328160405f20906001600160a01b03166001600160a01b0319825416179055565b6001600160a01b0380610e4484610cf0565b169116907f8c5be1e5ebec7d5bd14f71427d1e84f3dd0314c0f7b2291e5b200ac8c7c3b9255f80a4565b610e8c825f5260026020526001600160a01b0360405f205416151590565b15610f0857610e9a82610cf0565b6001600160a01b0382166001600160a01b0382168114938415610ee9575b50508215610ec557505090565b61021a9250906103ec610402926001600160a01b03165f52600560205260405f2090565b6001600160a01b0391929450610efe90610b63565b1614915f80610eb8565b60405162461bcd60e51b815260206004820152602c60248201527f4552433732313a206f70657261746f7220717565727920666f72206e6f6e657860448201526b34b9ba32b73a103a37b5b2b760a11b6064820152608490fd5b15610f6957565b60405162461bcd60e51b8152602060048201526024808201527f4552433732313a207472616e7366657220746f20746865207a65726f206164646044820152637265737360e01b6064820152608490fd5b634e487b7160e01b5f52601160045260245ffd5b5f1981019190821161059b57565b906001820180921161059b57565b603001908160301161059b57565b906001600160a01b039061100b84610cf0565b82841692839116036110da57806110546001600160a01b036110b4931694611034861515610f62565b61103d87610db4565b6001600160a01b03165f52600360205260405f2090565b61105e8154610fce565b905561107b816001600160a01b03165f52600360205260405f2090565b6110858154610fdc565b9055611099855f52600260205260405f2090565b906001600160a01b03166001600160a01b0319825416179055565b7fddf252ad1be2c89b69c2b068fc378daa952ba7f163c4a11628f55a4df523b3ef5f80a4565b60405162461bcd60e51b815260206004820152602960248201527f4552433732313a207472616e73666572206f6620746f6b656e2074686174206960448201527f73206e6f74206f776e00000000000000000000000000000000000000000000006064820152608490fd5b6001600160a01b03811690811561122157611174835f5260026020526001600160a01b0360405f205416151590565b6111dc57806111976111b5926001600160a01b03165f52600360205260405f2090565b6111a18154610fdc565b9055611099845f52600260205260405f2090565b5f7fddf252ad1be2c89b69c2b068fc378daa952ba7f163c4a11628f55a4df523b3ef8180a4565b60405162461bcd60e51b815260206004820152601c60248201527f4552433732313a20746f6b656e20616c7265616479206d696e746564000000006044820152606490fd5b606460405162461bcd60e51b815260206004820152602060248201527f4552433732313a206d696e7420746f20746865207a65726f20616464726573736044820152fd5b1561126c57565b60405162461bcd60e51b815260206004820152603260248201527f4552433732313a207472616e7366657220746f206e6f6e20455243373231526560448201527f63656976657220696d706c656d656e74657200000000000000000000000000006064820152608490fd5b5f19811461059b5760010190565b906112ef82610721565b6112fc60405191826106fa565b828152809261130d601f1991610721565b0190602036910137565b908151811015611328570160200190565b634e487b7160e01b5f52603260045260245ffd5b9081156113e9575f82805b6113ca57508061135784926112e5565b915b61136257509150565b61136e6113c391610fce565b936113af611387611381600a8406610fea565b60ff1690565b60f81b7fff000000000000000000000000000000000000000000000000000000000000001690565b5f1a6113bb8685611317565b53600a900490565b9283611359565b92906113d86113e0916112d7565b93600a900490565b80939193611347565b90506040516113f96040826106fa565b60018152600360fc1b602082015290565b90816020910312610173575161021a81610149565b90926001600160a01b036080938161021a9796168452166020830152604082015281606082015201906101e5565b3d15611477573d9061145e82610721565b9161146c60405193846106fa565b82523d5f602084013e565b606090565b91823b156115a3576114b2926020925f6001600160a01b03604051809781968295630a85bd0160e11b845285336004860161141f565b0393165af15f9181611572575b50611544576114cc61144d565b8051908161153f5760405162461bcd60e51b815260206004820152603260248201527f4552433732313a207472616e7366657220746f206e6f6e20455243373231526560448201527f63656976657220696d706c656d656e74657200000000000000000000000000006064820152608490fd5b602001fd5b7fffffffff0000000000000000000000000000000000000000000000000000000016630a85bd0160e11b1490565b61159591925060203d60201161159c575b61158d81836106fa565b81019061140a565b905f6114bf565b503d611583565b505050600190565b919290803b156115e3576114b2935f6001600160a01b0360209560405197889687958693630a85bd0160e11b8552336004860161141f565b5050505060019056fea264697066735822122088e58fff5af71cbf063e39cc7d00c87fd00a5b8a9b67524a737bbb7ec061446d64736f6c634300081a0033","linkReferences":{}},"methodIdentifiers":{"approve(address,uint256)":"095ea7b3","balanceOf(address)":"70a08231","baseURI()":"6c0360eb","burn(uint256)":"42966c68","exists(uint256)":"4f558e79","getApproved(uint256)":"081812fc","isApprovedForAll(address,address)":"e985e9c5","mint(address,uint256)":"40c10f19","name()":"06fdde03","ownerOf(uint256)":"6352211e","safeMint(address,uint256)":"a1448194","safeMint(address,uint256,bytes)":"8832e6e3","safeTransferFrom(address,address,uint256)":"42842e0e","safeTransferFrom(address,address,uint256,bytes)":"b88d4fde","setApprovalForAll(address,bool)":"a22cb465","supportsInterface(bytes4)":"01ffc9a7","symbol()":"95d89b41","tokenURI(uint256)":"c87b56dd","transferFrom(address,address,uint256)":"23b872dd"},"id":187}