{"abi":[{"type":"function","name":"computeAddress","inputs":[{"name":"salt","type":"bytes32","internalType":"bytes32"},{"name":"bytecodeHash","type":"bytes32","internalType":"bytes32"}],"outputs":[{"name":"","type":"address","internalType":"address"}],"stateMutability":"view"},{"type":"function","name":"deploy","inputs":[{"name":"salt","type":"bytes32","internalType":"bytes32"},{"name":"bytecode","type":"bytes","internalType":"bytes"}],"outputs":[{"name":"addr","type":"address","internalType":"address"}],"stateMutability":"nonpayable"},{"type":"event","name":"Deploy","inputs":[{"name":"addr","type":"address","indexed":false,"internalType":"address"}],"anonymous":false},{"type":"error","name":"Create2EmptyBytecode","inputs":[]},{"type":"error","name":"FailedDeployment","inputs":[]},{"type":"error","name":"InsufficientBalance","inputs":[{"name":"balance","type":"uint256","internalType":"uint256"},{"name":"needed","type":"uint256","internalType":"uint256"}]}],"bytecode":{"object":"0x608080604052346015576101f0908161001a8239f35b5f80fdfe6080806040526004361015610012575f80fd5b5f3560e01c908163481286e61461016c575063cdcb760a14610032575f80fd5b346101545760403660031901126101545760243567ffffffffffffffff811161015457366023820112156101545780600401359067ffffffffffffffff82116101585760405191601f8101601f19908116603f0116830167ffffffffffffffff811184821017610158576040528083526020830191366024838301011161015457815f92602460209301853784010152815115610145576004359151905ff53d151981151661013a5773ffffffffffffffffffffffffffffffffffffffff16801561012b576020907f55ea6c6b31543d8e2ec6a72f71a79c0f4b72ed0d4757172b043d8f4f4cd8484882604051838152a1604051908152f35b63b06ebf3d60e01b5f5260045ffd5b6040513d5f823e3d90fd5b631328927760e21b5f5260045ffd5b5f80fd5b634e487b7160e01b5f52604160045260245ffd5b346101545760403660031901126101545773ffffffffffffffffffffffffffffffffffffffff6055600b6020936024356040820152600435858201523081520160ff81532016604051908152f3fea2646970667358221220d026d2903fb033ec01e6f668da3079c35ef54ff90b325aee7873318e1ccbdc0564736f6c634300081a0033","linkReferences":{}},"methodIdentifiers":{"computeAddress(bytes32,bytes32)":"481286e6","deploy(bytes32,bytes)":"cdcb760a"},"id":467}