{"abi":[{"type":"function","name":"DEFAULT_ADMIN_ROLE","inputs":[],"outputs":[{"name":"","type":"bytes32","internalType":"bytes32"}],"stateMutability":"view"},{"type":"function","name":"MINTER_ROLE","inputs":[],"outputs":[{"name":"","type":"bytes32","internalType":"bytes32"}],"stateMutability":"view"},{"type":"function","name":"PAUSER_ROLE","inputs":[],"outputs":[{"name":"","type":"bytes32","internalType":"bytes32"}],"stateMutability":"view"},{"type":"function","name":"balanceOf","inputs":[{"name":"account","type":"address","internalType":"address"},{"name":"id","type":"uint256","internalType":"uint256"}],"outputs":[{"name":"","type":"uint256","internalType":"uint256"}],"stateMutability":"view"},{"type":"function","name":"balanceOfBatch","inputs":[{"name":"accounts","type":"address[]","internalType":"address[]"},{"name":"ids","type":"uint256[]","internalType":"uint256[]"}],"outputs":[{"name":"","type":"uint256[]","internalType":"uint256[]"}],"stateMutability":"view"},{"type":"function","name":"burn","inputs":[{"name":"account","type":"address","internalType":"address"},{"name":"id","type":"uint256","internalType":"uint256"},{"name":"value","type":"uint256","internalType":"uint256"}],"outputs":[],"stateMutability":"nonpayable"},{"type":"function","name":"burnBatch","inputs":[{"name":"account","type":"address","internalType":"address"},{"name":"ids","type":"uint256[]","internalType":"uint256[]"},{"name":"values","type":"uint256[]","internalType":"uint256[]"}],"outputs":[],"stateMutability":"nonpayable"},{"type":"function","name":"getRoleAdmin","inputs":[{"name":"role","type":"bytes32","internalType":"bytes32"}],"outputs":[{"name":"","type":"bytes32","internalType":"bytes32"}],"stateMutability":"view"},{"type":"function","name":"getRoleMember","inputs":[{"name":"role","type":"bytes32","internalType":"bytes32"},{"name":"index","type":"uint256","internalType":"uint256"}],"outputs":[{"name":"","type":"address","internalType":"address"}],"stateMutability":"view"},{"type":"function","name":"getRoleMemberCount","inputs":[{"name":"role","type":"bytes32","internalType":"bytes32"}],"outputs":[{"name":"","type":"uint256","internalType":"uint256"}],"stateMutability":"view"},{"type":"function","name":"grantRole","inputs":[{"name":"role","type":"bytes32","internalType":"bytes32"},{"name":"account","type":"address","internalType":"address"}],"outputs":[],"stateMutability":"nonpayable"},{"type":"function","name":"hasRole","inputs":[{"name":"role","type":"bytes32","internalType":"bytes32"},{"name":"account","type":"address","internalType":"address"}],"outputs":[{"name":"","type":"bool","internalType":"bool"}],"stateMutability":"view"},{"type":"function","name":"initialize","inputs":[{"name":"uri","type":"string","internalType":"string"}],"outputs":[],"stateMutability":"nonpayable"},{"type":"function","name":"isApprovedForAll","inputs":[{"name":"account","type":"address","internalType":"address"},{"name":"operator","type":"address","internalType":"address"}],"outputs":[{"name":"","type":"bool","internalType":"bool"}],"stateMutability":"view"},{"type":"function","name":"mint","inputs":[{"name":"to","type":"address","internalType":"address"},{"name":"id","type":"uint256","internalType":"uint256"},{"name":"amount","type":"uint256","internalType":"uint256"},{"name":"data","type":"bytes","internalType":"bytes"}],"outputs":[],"stateMutability":"nonpayable"},{"type":"function","name":"mintBatch","inputs":[{"name":"to","type":"address","internalType":"address"},{"name":"ids","type":"uint256[]","internalType":"uint256[]"},{"name":"amounts","type":"uint256[]","internalType":"uint256[]"},{"name":"data","type":"bytes","internalType":"bytes"}],"outputs":[],"stateMutability":"nonpayable"},{"type":"function","name":"pause","inputs":[],"outputs":[],"stateMutability":"nonpayable"},{"type":"function","name":"paused","inputs":[],"outputs":[{"name":"","type":"bool","internalType":"bool"}],"stateMutability":"view"},{"type":"function","name":"renounceRole","inputs":[{"name":"role","type":"bytes32","internalType":"bytes32"},{"name":"account","type":"address","internalType":"address"}],"outputs":[],"stateMutability":"nonpayable"},{"type":"function","name":"revokeRole","inputs":[{"name":"role","type":"bytes32","internalType":"bytes32"},{"name":"account","type":"address","internalType":"address"}],"outputs":[],"stateMutability":"nonpayable"},{"type":"function","name":"safeBatchTransferFrom","inputs":[{"name":"from","type":"address","internalType":"address"},{"name":"to","type":"address","internalType":"address"},{"name":"ids","type":"uint256[]","internalType":"uint256[]"},{"name":"amounts","type":"uint256[]","internalType":"uint256[]"},{"name":"data","type":"bytes","internalType":"bytes"}],"outputs":[],"stateMutability":"nonpayable"},{"type":"function","name":"safeTransferFrom","inputs":[{"name":"from","type":"address","internalType":"address"},{"name":"to","type":"address","internalType":"address"},{"name":"id","type":"uint256","internalType":"uint256"},{"name":"amount","type":"uint256","internalType":"uint256"},{"name":"data","type":"bytes","internalType":"bytes"}],"outputs":[],"stateMutability":"nonpayable"},{"type":"function","name":"setApprovalForAll","inputs":[{"name":"operator","type":"address","internalType":"address"},{"name":"approved","type":"bool","internalType":"bool"}],"outputs":[],"stateMutability":"nonpayable"},{"type":"function","name":"supportsInterface","inputs":[{"name":"interfaceId","type":"bytes4","internalType":"bytes4"}],"outputs":[{"name":"","type":"bool","internalType":"bool"}],"stateMutability":"view"},{"type":"function","name":"unpause","inputs":[],"outputs":[],"stateMutability":"nonpayable"},{"type":"function","name":"uri","inputs":[{"name":"","type":"uint256","internalType":"uint256"}],"outputs":[{"name":"","type":"string","internalType":"string"}],"stateMutability":"view"},{"type":"event","name":"ApprovalForAll","inputs":[{"name":"account","type":"address","indexed":true,"internalType":"address"},{"name":"operator","type":"address","indexed":true,"internalType":"address"},{"name":"approved","type":"bool","indexed":false,"internalType":"bool"}],"anonymous":false},{"type":"event","name":"Paused","inputs":[{"name":"account","type":"address","indexed":false,"internalType":"address"}],"anonymous":false},{"type":"event","name":"RoleAdminChanged","inputs":[{"name":"role","type":"bytes32","indexed":true,"internalType":"bytes32"},{"name":"previousAdminRole","type":"bytes32","indexed":true,"internalType":"bytes32"},{"name":"newAdminRole","type":"bytes32","indexed":true,"internalType":"bytes32"}],"anonymous":false},{"type":"event","name":"RoleGranted","inputs":[{"name":"role","type":"bytes32","indexed":true,"internalType":"bytes32"},{"name":"account","type":"address","indexed":true,"internalType":"address"},{"name":"sender","type":"address","indexed":true,"internalType":"address"}],"anonymous":false},{"type":"event","name":"RoleRevoked","inputs":[{"name":"role","type":"bytes32","indexed":true,"internalType":"bytes32"},{"name":"account","type":"address","indexed":true,"internalType":"address"},{"name":"sender","type":"address","indexed":true,"internalType":"address"}],"anonymous":false},{"type":"event","name":"TransferBatch","inputs":[{"name":"operator","type":"address","indexed":true,"internalType":"address"},{"name":"from","type":"address","indexed":true,"internalType":"address"},{"name":"to","type":"address","indexed":true,"internalType":"address"},{"name":"ids","type":"uint256[]","indexed":false,"internalType":"uint256[]"},{"name":"values","type":"uint256[]","indexed":false,"internalType":"uint256[]"}],"anonymous":false},{"type":"event","name":"TransferSingle","inputs":[{"name":"operator","type":"address","indexed":true,"internalType":"address"},{"name":"from","type":"address","indexed":true,"internalType":"address"},{"name":"to","type":"address","indexed":true,"internalType":"address"},{"name":"id","type":"uint256","indexed":false,"internalType":"uint256"},{"name":"value","type":"uint256","indexed":false,"internalType":"uint256"}],"anonymous":false},{"type":"event","name":"URI","inputs":[{"name":"value","type":"string","indexed":false,"internalType":"string"},{"name":"id","type":"uint256","indexed":true,"internalType":"uint256"}],"anonymous":false},{"type":"event","name":"Unpaused","inputs":[{"name":"account","type":"address","indexed":false,"internalType":"address"}],"anonymous":false}],"bytecode":{"object":"0x60808060405234601557612b16908161001a8239f35b5f80fdfe60806040526004361015610011575f80fd5b5f3560e01c8062fdd58e14611ed357806301ffc9a714611e315780630e89341c14611d525780631f7fdffa14611ba1578063248a9ca314611b6e5780632eb2c2d6146118905780632f2ff15d146117b457806336568abe146116fd5780633f4ba83a146115c65780634e1273f4146114115780635c975abb146113ee5780636b20c45414611229578063731133e9146110d65780638456cb5914610f9c5780639010d07c14610f5857806391d1485414610f0e578063a217fddf14610ef4578063a22cb46514610e00578063ca15c87314610dd6578063d539139314610d9c578063d547741f14610d35578063e63ab1e914610cfb578063e985e9c514610ca2578063f242432a14610939578063f5298aca146107d85763f62d188814610136575f80fd5b346107d45760203660031901126107d45760043567ffffffffffffffff81116107d457366023820112156107d457610178903690602481600401359101611ffd565b5f5460ff8160081c169081158092816107c9575b61019590612265565b6107b7575b505f5460ff8160081c169081158092816107ac575b6101b890612265565b61079a575b506101c6612a7e565b6101ce612a7e565b6101d6612a7e565b6101de612a7e565b5f5460ff8160081c1690811580928161078f575b6101fb90612265565b61077d575b50835167ffffffffffffffff81116107695761021d60cb54612121565b601f81116106c8575b50602094601f8211600114610647579481929394955f9261063c575b50508160011b915f199060031b1c19161760cb555b61062e575b610264612a7e565b5f5460ff8160081c16908115809281610623575b61028190612265565b610611575b5060ff1961012d541661012d55610603575b6102a0612a7e565b5f5460ff8160081c169081158092816105f8575b6102bd90612265565b6105e6575b50335f9081527fffdfc1249c027f9191656349feb0761381bb32c9f557e01f419fd08754bf5a1b602052604090205460ff1615610583575b5f8052609760205261032c337f683723e34a772b6e4f2c919bba7fa32ed8ea11a8325f54da7db716e9d9dd98c761289f565b50335f9081527fa0f6cebec7fb889cc5ac88647269c4c0108fb926abd2111b551f234b348876df602052604090205460ff16156104fe575b7f9f2df0fed2c77648de5860a4cc508cd0818c85b8b8a1ab4ceeef8d981c8956a65f5260976020526103b6337f81bcdf06b56c0ed62a68a6ae231e66722c27e6665c84ec0015693a6d86f2bb9361289f565b50335f9081527fbfe93621c6aa2dbf737e9056c9b79e4d30ee4f6b28b18be2cb71aac8a7bf258e602052604090205460ff1615610479575b7f65d7a28e3265b37a6474929f336521b332c1681b933f6cb9f3376673440d862a5f526097602052610440337f793844da0378ca0230b21a4013ef02cf55735b90b39c85241478ff94b5eceb2861289f565b5061046b575b61045d575b61045157005b5f805461ff0019169055005b61ff00195f54165f5561044b565b61ff00195f54165f55610446565b335f8181527fbfe93621c6aa2dbf737e9056c9b79e4d30ee4f6b28b18be2cb71aac8a7bf258e60205260408120805460ff1916600117905581907f65d7a28e3265b37a6474929f336521b332c1681b933f6cb9f3376673440d862a907f2f8788117e7eff1d82e926ec794901d17c78024a50270940304540a733656f0d9080a46103ee565b335f8181527fa0f6cebec7fb889cc5ac88647269c4c0108fb926abd2111b551f234b348876df60205260408120805460ff1916600117905581907f9f2df0fed2c77648de5860a4cc508cd0818c85b8b8a1ab4ceeef8d981c8956a6907f2f8788117e7eff1d82e926ec794901d17c78024a50270940304540a733656f0d9080a4610364565b335f8181527fffdfc1249c027f9191656349feb0761381bb32c9f557e01f419fd08754bf5a1b60205260408120805460ff1916600117905581907f2f8788117e7eff1d82e926ec794901d17c78024a50270940304540a733656f0d8180a46102fa565b61ffff1916610101175f9081556102c2565b5060ff8216156102b4565b61ff00195f54165f55610298565b61ffff1916610101175f908155610286565b5060ff821615610278565b61ff00195f54165f5561025c565b015190505f80610242565b601f1982169560cb5f527fa7ce836d032b2bf62b7e2097a8e0a6d8aeb35405ad15271e96d3b0188a1d06fb915f5b8881106106b057508360019596979810610698575b505050811b0160cb55610257565b01515f1960f88460031b161c191690555f808061068a565b91926020600181928685015181550194019201610675565b60cb5f52601f820160051c7fa7ce836d032b2bf62b7e2097a8e0a6d8aeb35405ad15271e96d3b0188a1d06fb019060208310610741575b601f0160051c7fa7ce836d032b2bf62b7e2097a8e0a6d8aeb35405ad15271e96d3b0188a1d06fb01905b8181106107365750610226565b5f8155600101610729565b7fa7ce836d032b2bf62b7e2097a8e0a6d8aeb35405ad15271e96d3b0188a1d06fb91506106ff565b634e487b7160e01b5f52604160045260245ffd5b61ffff1916610101175f908155610200565b5060ff8216156101f2565b61ffff1916610101175f9081556101bd565b5060ff8216156101af565b61ffff1916610101175f90815561019a565b5060ff82161561018c565b5f80fd5b346107d45760603660031901126107d4576107f1611efa565b604435906001600160a01b03166024353382148015610917575b610814906121f3565b61081f8215156124c9565b61082881612a57565b5061083283612a57565b506020925f6040516108448682611f4a565b5260ff61012d54166108bd575f9382855260c98152604085208486528152604085205461087383821015612521565b83865260c982526040862085875282528260408720910390556040519283528201527fc3d58168c5ae7397731d063d5bbf3d657854427343f4c083240f7aacaa2d0f6260403392a4005b60405162461bcd60e51b815260048101859052602c60248201527f455243313135355061757361626c653a20746f6b656e207472616e736665722060448201526b1dda1a5b19481c185d5cd95960a21b6064820152608490fd5b505f82815260ca6020908152604080832033845290915290205460ff1661080b565b346107d45760a03660031901126107d457610952611efa565b61095a611f10565b604435906064359060843567ffffffffffffffff81116107d45761098a6001600160a01b03913690600401612033565b9416923384148015610c80575b6109a0906121f3565b6001600160a01b038216916109b68315156123e5565b6109bf82612a57565b506109c984612a57565b5060ff61012d5416610c2657815f5260c960205260405f20855f5260205260405f20546109f885821015612457565b5f83815260c96020908152604080832089845290915280822092879003909255848152208054610a2990869061239f565b905582856040518481528660208201527fc3d58168c5ae7397731d063d5bbf3d657854427343f4c083240f7aacaa2d0f6260403392a43b610a6657005b5f602094610aa76040519788968795869463f23a6e6160e01b865233600487015260248601526044850152606484015260a0608484015260a4830190611f26565b03925af15f9181610bf5575b50610b7157610ac0612599565b6308c379a014610b3a575b60405162461bcd60e51b815260206004820152603460248201527f455243313135353a207472616e7366657220746f206e6f6e204552433131353560448201527f526563656976657220696d706c656d656e7465720000000000000000000000006064820152608490fd5b0390fd5b610b426125b4565b80610b4d5750610acb565b60405162461bcd60e51b815260206004820152908190610b36906024830190611f26565b6001600160e01b031916630dc5919f60e01b01610b8a57005b60405162461bcd60e51b815260206004820152602860248201527f455243313135353a204552433131353552656365697665722072656a6563746560448201527f6420746f6b656e730000000000000000000000000000000000000000000000006064820152608490fd5b610c1891925060203d602011610c1f575b610c108183611f4a565b810190612579565b9082610ab3565b503d610c06565b60405162461bcd60e51b815260206004820152602c60248201527f455243313135355061757361626c653a20746f6b656e207472616e736665722060448201526b1dda1a5b19481c185d5cd95960a21b6064820152608490fd5b505f84815260ca6020908152604080832033845290915290205460ff16610997565b346107d45760403660031901126107d457610cbb611efa565b6001600160a01b03610ccb611f10565b91165f5260ca6020526001600160a01b0360405f2091165f52602052602060ff60405f2054166040519015158152f35b346107d4575f3660031901126107d45760206040517f65d7a28e3265b37a6474929f336521b332c1681b933f6cb9f3376673440d862a8152f35b346107d45760403660031901126107d457610d9a600435610d54611f10565b90610d75610d6e825f526065602052600160405f20015490565b3390612628565b610d7f828261290e565b5f5260976020526001600160a01b0360405f20911690612992565b005b346107d4575f3660031901126107d45760206040517f9f2df0fed2c77648de5860a4cc508cd0818c85b8b8a1ab4ceeef8d981c8956a68152f35b346107d45760203660031901126107d4576004355f526097602052602060405f2054604051908152f35b346107d45760403660031901126107d457610e19611efa565b602435908115158092036107d4576001600160a01b031690813314610e8957335f5260ca60205260405f20825f5260205260405f2060ff1981541660ff83161790556040519081527f17307eab39ab6107e8899845ad3d59bd9653f200f220920489ca2b5937696c3160203392a3005b60405162461bcd60e51b815260206004820152602960248201527f455243313135353a2073657474696e6720617070726f76616c2073746174757360448201527f20666f722073656c6600000000000000000000000000000000000000000000006064820152608490fd5b346107d4575f3660031901126107d45760206040515f8152f35b346107d45760403660031901126107d457610f27611f10565b6004355f5260656020526001600160a01b0360405f2091165f52602052602060ff60405f2054166040519015158152f35b346107d45760403660031901126107d4576004355f52609760205260206001600160a01b03610f8c60243560405f2061288a565b90549060031b1c16604051908152f35b346107d4575f3660031901126107d457335f9081527fbfe93621c6aa2dbf737e9056c9b79e4d30ee4f6b28b18be2cb71aac8a7bf258e602052604090205460ff161561106b5761012d5460ff81166110265760019060ff19161761012d557f62e78cea01bee320cd4e420270b5ea74000d11b0c9f74754ebdbfc544b05a2586020604051338152a1005b60405162461bcd60e51b815260206004820152601060248201527f5061757361626c653a20706175736564000000000000000000000000000000006044820152606490fd5b60405162461bcd60e51b815260206004820152603960248201527f455243313135355072657365744d696e7465725061757365723a206d7573742060448201527f686176652070617573657220726f6c6520746f207061757365000000000000006064820152608490fd5b346107d45760803660031901126107d4576110ef611efa565b6024356044359160643567ffffffffffffffff81116107d457611116903690600401612033565b335f9081527fa0f6cebec7fb889cc5ac88647269c4c0108fb926abd2111b551f234b348876df60205260409020549091906111539060ff16612159565b6001600160a01b038116906111698215156122d7565b61117284612a57565b5061117c85612a57565b5060ff61012d5416610c2657835f5260c960205260405f20825f5260205260405f206111a986825461239f565b9055815f6040518681528760208201527fc3d58168c5ae7397731d063d5bbf3d657854427343f4c083240f7aacaa2d0f6260403392a43b6111e657005b610aa7935f6020946040519687958694859363f23a6e6160e01b85523360048601528560248601526044850152606484015260a0608484015260a4830190611f26565b346107d45760603660031901126107d457611242611efa565b60243567ffffffffffffffff81116107d457611262903690600401611f84565b9060443567ffffffffffffffff81116107d45761128b6001600160a01b03913690600401611f84565b91169033821480156113cc575b6112a1906121f3565b6112ac8215156124c9565b6112b9835182511461232d565b60205f6040516112c98382611f4a565b5260ff61012d5416611373575f5b845181101561133857806112ed600192876121cb565b516112f882866121cb565b51815f5260c9855260405f20875f52855260405f20549161131b82841015612521565b5f5260c9855260405f20875f52855260405f2091039055016112d7565b5f84867f4a39dc06d4c0dbc64b70af90fd698a233a518aa5d07e595d983b8c0526c8f7fb61136e876040519182913395836123c0565b0390a4005b6084906040519062461bcd60e51b82526004820152602c60248201527f455243313135355061757361626c653a20746f6b656e207472616e736665722060448201526b1dda1a5b19481c185d5cd95960a21b6064820152fd5b505f82815260ca6020908152604080832033845290915290205460ff16611298565b346107d4575f3660031901126107d457602060ff61012d54166040519015158152f35b346107d45760403660031901126107d45760043567ffffffffffffffff81116107d457366023820112156107d457806004013561144d81611f6c565b9161145b6040519384611f4a565b8183526024602084019260051b820101903682116107d457602401915b8183106115a6578360243567ffffffffffffffff81116107d4576114a0903690600401611f84565b90805182510361153b578051916114b683611f6c565b926114c46040519485611f4a565b8084526114d3601f1991611f6c565b013660208501375f5b825181101561152157806115106001600160a01b036114fd600194876121cb565b511661150983866121cb565b5190612084565b61151a82876121cb565b52016114dc565b6040516020808252819061153790820187612051565b0390f35b60405162461bcd60e51b815260206004820152602960248201527f455243313135353a206163636f756e747320616e6420696473206c656e67746860448201527f206d69736d6174636800000000000000000000000000000000000000000000006064820152608490fd5b82356001600160a01b03811681036107d457815260209283019201611478565b346107d4575f3660031901126107d457335f9081527fbfe93621c6aa2dbf737e9056c9b79e4d30ee4f6b28b18be2cb71aac8a7bf258e602052604090205460ff16156116925761012d5460ff81161561164d5760ff191661012d557f5db9ee0a495bf2e6ff9c91a7834c1ba4fdd244a5e8aa4e537bd38aeae4b073aa6020604051338152a1005b60405162461bcd60e51b815260206004820152601460248201527f5061757361626c653a206e6f74207061757365640000000000000000000000006044820152606490fd5b60405162461bcd60e51b815260206004820152603b60248201527f455243313135355072657365744d696e7465725061757365723a206d7573742060448201527f686176652070617573657220726f6c6520746f20756e706175736500000000006064820152608490fd5b346107d45760403660031901126107d457600435611719611f10565b906001600160a01b0382169033820361174957611739610d9a938261290e565b5f52609760205260405f20612992565b60405162461bcd60e51b815260206004820152602f60248201527f416363657373436f6e74726f6c3a2063616e206f6e6c792072656e6f756e636560448201527f20726f6c657320666f722073656c6600000000000000000000000000000000006064820152608490fd5b346107d45760403660031901126107d457610d9a6004356117d3611f10565b906117ed610d6e825f526065602052600160405f20015490565b805f52606560205260405f206001600160a01b0383165f5260205260ff60405f20541615611831575b5f5260976020526001600160a01b0360405f2091169061289f565b805f52606560205260405f206001600160a01b0383165f5260205260405f20600160ff19825416179055336001600160a01b038316827f2f8788117e7eff1d82e926ec794901d17c78024a50270940304540a733656f0d5f80a4611816565b346107d45760a03660031901126107d4576118a9611efa565b6118b1611f10565b60443567ffffffffffffffff81116107d4576118d1903690600401611f84565b60643567ffffffffffffffff81116107d4576118f1903690600401611f84565b9260843567ffffffffffffffff81116107d45761191a6001600160a01b03913690600401612033565b9116913383148015611b45575b15611ada57611939815186511461232d565b6001600160a01b0384169161194f8315156123e5565b60ff61012d5416610c26575f5b82518110156119e55780611972600192856121cb565b5161197d828a6121cb565b5190805f5260c960205260405f20885f5260205260405f20546119a283821015612457565b815f5260c960205260405f20895f526020528260405f20910390555f5260c960205260405f20865f526020526119dd60405f2091825461239f565b90550161195c565b509382846040517f4a39dc06d4c0dbc64b70af90fd698a233a518aa5d07e595d983b8c0526c8f7fb339180611a1b8c89836123c0565b0390a43b611a2557005b5f611a6393611a87602096611a75604051998a988997889663bc197c8160e01b8852336004890152602488015260a0604488015260a4870190612051565b85810360031901606487015290612051565b83810360031901608485015290611f26565b03925af15f9181611ab9575b50611aa057610ac0612599565b6001600160e01b0319166343e6837f60e01b01610b8a57005b611ad391925060203d602011610c1f57610c108183611f4a565b9082611a93565b60405162461bcd60e51b815260206004820152603260248201527f455243313135353a207472616e736665722063616c6c6572206973206e6f742060448201527f6f776e6572206e6f7220617070726f76656400000000000000000000000000006064820152608490fd5b50825f5260ca60205260405f206001600160a01b0333165f5260205260ff60405f205416611927565b346107d45760203660031901126107d4576020611b996004355f526065602052600160405f20015490565b604051908152f35b346107d45760803660031901126107d457611bba611efa565b60243567ffffffffffffffff81116107d457611bda903690600401611f84565b60443567ffffffffffffffff81116107d457611bfa903690600401611f84565b9060643567ffffffffffffffff81116107d457611c1b903690600401612033565b335f9081527fa0f6cebec7fb889cc5ac88647269c4c0108fb926abd2111b551f234b348876df6020526040902054909290611c589060ff16612159565b6001600160a01b03841690611c6e8215156122d7565b611c7b835182511461232d565b60ff61012d5416610c26575f5b8351811015611cd25780611c9e600192846121cb565b51611ca982876121cb565b515f5260c960205260405f20855f52602052611cca60405f2091825461239f565b905501611c88565b509193815f6040517f4a39dc06d4c0dbc64b70af90fd698a233a518aa5d07e595d983b8c0526c8f7fb339180611d09898c836123c0565b0390a43b611d1357005b611a635f611a7595611a876020966040519889978896879563bc197c8160e01b875233600488015287602488015260a0604488015260a4870190612051565b346107d45760203660031901126107d4576040515f60cb54611d7381612121565b8084529060018116908115611e0d5750600114611daf575b61153783611d9b81850382611f4a565b604051918291602083526020830190611f26565b91905060cb5f527fa7ce836d032b2bf62b7e2097a8e0a6d8aeb35405ad15271e96d3b0188a1d06fb915f905b808210611df357509091508101602001611d9b611d8b565b919260018160209254838588010152019101909291611ddb565b60ff191660208086019190915291151560051b84019091019150611d9b9050611d8b565b346107d45760203660031901126107d45760043563ffffffff60e01b81168091036107d457602090636cdb3d1360e11b8114908115611ec2575b8115611e7d575b506040519015158152f35b635a05180f60e01b811491508115611e97575b5082611e72565b637965db0b60e01b811491508115611eb1575b5082611e90565b6301ffc9a760e01b14905082611eaa565b6303a24d0760e21b81149150611e6b565b346107d45760403660031901126107d4576020611b99611ef1611efa565b60243590612084565b600435906001600160a01b03821682036107d457565b602435906001600160a01b03821682036107d457565b805180835260209291819084018484015e5f828201840152601f01601f1916010190565b90601f8019910116810190811067ffffffffffffffff82111761076957604052565b67ffffffffffffffff81116107695760051b60200190565b9080601f830112156107d4578135611f9b81611f6c565b92611fa96040519485611f4a565b81845260208085019260051b8201019283116107d457602001905b828210611fd15750505090565b8135815260209182019101611fc4565b67ffffffffffffffff811161076957601f01601f191660200190565b92919261200982611fe1565b916120176040519384611f4a565b8294818452818301116107d4578281602093845f960137010152565b9080601f830112156107d45781602061204e93359101611ffd565b90565b90602080835192838152019201905f5b81811061206e5750505090565b8251845260209384019390920191600101612061565b906001600160a01b038216156120b6575f5260c96020526001600160a01b0360405f2091165f5260205260405f205490565b60405162461bcd60e51b815260206004820152602b60248201527f455243313135353a2062616c616e636520717565727920666f7220746865207a60448201527f65726f20616464726573730000000000000000000000000000000000000000006064820152608490fd5b90600182811c9216801561214f575b602083101461213b57565b634e487b7160e01b5f52602260045260245ffd5b91607f1691612130565b1561216057565b60405162461bcd60e51b815260206004820152603860248201527f455243313135355072657365744d696e7465725061757365723a206d7573742060448201527f68617665206d696e74657220726f6c6520746f206d696e7400000000000000006064820152608490fd5b80518210156121df5760209160051b010190565b634e487b7160e01b5f52603260045260245ffd5b156121fa57565b60405162461bcd60e51b815260206004820152602960248201527f455243313135353a2063616c6c6572206973206e6f74206f776e6572206e6f7260448201527f20617070726f76656400000000000000000000000000000000000000000000006064820152608490fd5b1561226c57565b60405162461bcd60e51b815260206004820152602e60248201527f496e697469616c697a61626c653a20636f6e747261637420697320616c72656160448201527f647920696e697469616c697a65640000000000000000000000000000000000006064820152608490fd5b156122de57565b60405162461bcd60e51b815260206004820152602160248201527f455243313135353a206d696e7420746f20746865207a65726f206164647265736044820152607360f81b6064820152608490fd5b1561233457565b60405162461bcd60e51b815260206004820152602860248201527f455243313135353a2069647320616e6420616d6f756e7473206c656e6774682060448201527f6d69736d617463680000000000000000000000000000000000000000000000006064820152608490fd5b919082018092116123ac57565b634e487b7160e01b5f52601160045260245ffd5b90916123d761204e93604084526040840190612051565b916020818403910152612051565b156123ec57565b60405162461bcd60e51b815260206004820152602560248201527f455243313135353a207472616e7366657220746f20746865207a65726f20616460448201527f64726573730000000000000000000000000000000000000000000000000000006064820152608490fd5b1561245e57565b60405162461bcd60e51b815260206004820152602a60248201527f455243313135353a20696e73756666696369656e742062616c616e636520666f60448201527f72207472616e73666572000000000000000000000000000000000000000000006064820152608490fd5b156124d057565b60405162461bcd60e51b815260206004820152602360248201527f455243313135353a206275726e2066726f6d20746865207a65726f206164647260448201526265737360e81b6064820152608490fd5b1561252857565b60405162461bcd60e51b8152602060048201526024808201527f455243313135353a206275726e20616d6f756e7420657863656564732062616c604482015263616e636560e01b6064820152608490fd5b908160209103126107d457516001600160e01b0319811681036107d45790565b5f9060033d116125a557565b905060045f803e5f5160e01c90565b5f60443d1061204e576040513d600319016004823e8051913d602484011167ffffffffffffffff841117612622578282019283519167ffffffffffffffff831161261a573d8401600319018584016020011161261a575061204e92910160200190611f4a565b949350505050565b92915050565b90815f52606560205260405f206001600160a01b0382165f5260205260ff60405f20541615612655575050565b6001600160a01b0316612668602a611fe1565b916126766040519384611f4a565b602a8352612684602a611fe1565b602084019290601f19013684378351156121df57603083538351600110156121df576078602185015360295b6001811161284957506127c4576126c76042611fe1565b906126d56040519283611f4a565b604282526126e36042611fe1565b602083019190601f19013683378251156121df57603082538251600110156121df576078602184015360415b6001811161280857506127c457610b36936037601192846127a495506040519687947f416363657373436f6e74726f6c3a206163636f756e742000000000000000000060208701525180918587015e8401907f206973206d697373696e6720726f6c652000000000000000000000000000000084830152518092604883015e01015f838201520301601f198101835282611f4a565b60405162461bcd60e51b8152602060048201529182916024830190611f26565b606460405162461bcd60e51b815260206004820152602060248201527f537472696e67733a20686578206c656e67746820696e73756666696369656e746044820152fd5b90600f811660108110156121df576f181899199a1a9b1b9c1cb0b131b232b360811b901a6128368386612acf565b5360041c9080156123ac575f190161270f565b90600f811660108110156121df576f181899199a1a9b1b9c1cb0b131b232b360811b901a6128778387612acf565b5360041c9080156123ac575f19016126b0565b80548210156121df575f5260205f2001905f90565b6001810190825f528160205260405f2054155f1461290757805468010000000000000000811015610769576128f46128de82600187940185558461288a565b819391549060031b91821b915f19901b19161790565b905554915f5260205260405f2055600190565b5050505f90565b805f52606560205260405f206001600160a01b0383165f5260205260ff60405f205416612939575050565b805f52606560205260405f206001600160a01b0383165f5260205260405f2060ff1981541690556001600160a01b03339216907ff6391f5c32d9c69d2a47ea670b442974b53935d1edc7fd64eb21e047a839171b5f80a4565b906001820191815f528260205260405f20548015155f14612a4f575f1981018181116123ac5782545f198101919082116123ac57808203612a1a575b50505080548015612a06575f1901906129e7828261288a565b8154905f199060031b1b19169055555f526020525f6040812055600190565b634e487b7160e01b5f52603160045260245ffd5b612a3a612a2a6128de938661288a565b90549060031b1c9283928661288a565b90555f528360205260405f20555f80806129ce565b505050505f90565b60405190612a66604083611f4a565b600182526020808301903682378251156121df575290565b5f5460ff8160081c16908115809281612ac4575b612a9b90612265565b612ab2575b50612aa757565b61ff00195f54165f55565b61ffff1916610101175f908155612aa0565b5060ff821615612a92565b9081518110156121df57016020019056fea26469706673582212207100da6ab126c69bca11b524755d6eb712a93e854a5caa31ad57bb534bd6b55664736f6c634300081a0033","linkReferences":{}},"methodIdentifiers":{"DEFAULT_ADMIN_ROLE()":"a217fddf","MINTER_ROLE()":"d5391393","PAUSER_ROLE()":"e63ab1e9","balanceOf(address,uint256)":"00fdd58e","balanceOfBatch(address[],uint256[])":"4e1273f4","burn(address,uint256,uint256)":"f5298aca","burnBatch(address,uint256[],uint256[])":"6b20c454","getRoleAdmin(bytes32)":"248a9ca3","getRoleMember(bytes32,uint256)":"9010d07c","getRoleMemberCount(bytes32)":"ca15c873","grantRole(bytes32,address)":"2f2ff15d","hasRole(bytes32,address)":"91d14854","initialize(string)":"f62d1888","isApprovedForAll(address,address)":"e985e9c5","mint(address,uint256,uint256,bytes)":"731133e9","mintBatch(address,uint256[],uint256[],bytes)":"1f7fdffa","pause()":"8456cb59","paused()":"5c975abb","renounceRole(bytes32,address)":"36568abe","revokeRole(bytes32,address)":"d547741f","safeBatchTransferFrom(address,address,uint256[],uint256[],bytes)":"2eb2c2d6","safeTransferFrom(address,address,uint256,uint256,bytes)":"f242432a","setApprovalForAll(address,bool)":"a22cb465","supportsInterface(bytes4)":"01ffc9a7","unpause()":"3f4ba83a","uri(uint256)":"0e89341c"},"id":402}