{"abi":[{"type":"function","name":"toInt128","inputs":[{"name":"a","type":"int256","internalType":"int256"}],"outputs":[{"name":"","type":"int128","internalType":"int128"}],"stateMutability":"pure"},{"type":"function","name":"toInt16","inputs":[{"name":"a","type":"int256","internalType":"int256"}],"outputs":[{"name":"","type":"int16","internalType":"int16"}],"stateMutability":"pure"},{"type":"function","name":"toInt256","inputs":[{"name":"a","type":"uint256","internalType":"uint256"}],"outputs":[{"name":"","type":"int256","internalType":"int256"}],"stateMutability":"pure"},{"type":"function","name":"toInt32","inputs":[{"name":"a","type":"int256","internalType":"int256"}],"outputs":[{"name":"","type":"int32","internalType":"int32"}],"stateMutability":"pure"},{"type":"function","name":"toInt64","inputs":[{"name":"a","type":"int256","internalType":"int256"}],"outputs":[{"name":"","type":"int64","internalType":"int64"}],"stateMutability":"pure"},{"type":"function","name":"toInt8","inputs":[{"name":"a","type":"int256","internalType":"int256"}],"outputs":[{"name":"","type":"int8","internalType":"int8"}],"stateMutability":"pure"},{"type":"function","name":"toUint128","inputs":[{"name":"a","type":"uint256","internalType":"uint256"}],"outputs":[{"name":"","type":"uint128","internalType":"uint128"}],"stateMutability":"pure"},{"type":"function","name":"toUint16","inputs":[{"name":"a","type":"uint256","internalType":"uint256"}],"outputs":[{"name":"","type":"uint16","internalType":"uint16"}],"stateMutability":"pure"},{"type":"function","name":"toUint224","inputs":[{"name":"a","type":"uint256","internalType":"uint256"}],"outputs":[{"name":"","type":"uint224","internalType":"uint224"}],"stateMutability":"pure"},{"type":"function","name":"toUint256","inputs":[{"name":"a","type":"int256","internalType":"int256"}],"outputs":[{"name":"","type":"uint256","internalType":"uint256"}],"stateMutability":"pure"},{"type":"function","name":"toUint32","inputs":[{"name":"a","type":"uint256","internalType":"uint256"}],"outputs":[{"name":"","type":"uint32","internalType":"uint32"}],"stateMutability":"pure"},{"type":"function","name":"toUint64","inputs":[{"name":"a","type":"uint256","internalType":"uint256"}],"outputs":[{"name":"","type":"uint64","internalType":"uint64"}],"stateMutability":"pure"},{"type":"function","name":"toUint8","inputs":[{"name":"a","type":"uint256","internalType":"uint256"}],"outputs":[{"name":"","type":"uint8","internalType":"uint8"}],"stateMutability":"pure"},{"type":"function","name":"toUint96","inputs":[{"name":"a","type":"uint256","internalType":"uint256"}],"outputs":[{"name":"","type":"uint96","internalType":"uint96"}],"stateMutability":"pure"}],"bytecode":{"object":"0x6080806040523460155761081c908161001a8239f35b5f80fdfe60806040526004361015610011575f80fd5b5f3560e01c80630cc4681e146105955780631cf887fc146105015780632665fad0146104c55780635bb79860146103fa578063809fdd33146103ae5780639374068f1461037e5780639c6f59be14610337578063c819325514610303578063cf65b4d3146102c0578063d6bd32aa14610271578063dd2a031614610212578063dfbe873b14610161578063f136dc02146101215763fdcf791b146100b3575f80fd5b3461011d57602036600319011261011d576004355f81126100d957602090604051908152f35b606460405162461bcd60e51b815260206004820152602060248201527f53616665436173743a2076616c7565206d75737420626520706f7369746976656044820152fd5b5f80fd5b3461011d57602036600319011261011d576020600435607f1981121580610156575b61014c906105c3565b604051905f0b8152f35b50607f811315610143565b3461011d57602036600319011261011d576004357f7fffffffffffffffffffffffffffffffffffffffffffffffffffffffffffffff81116101a757602090604051908152f35b60405162461bcd60e51b815260206004820152602860248201527f53616665436173743a2076616c756520646f65736e27742066697420696e206160448201527f6e20696e743235360000000000000000000000000000000000000000000000006064820152608490fd5b3461011d57602036600319011261011d5760206004356f7fffffffffffffffffffffffffffffff1981121580610257575b61024c906106a7565b60405190600f0b8152f35b506f7fffffffffffffffffffffffffffffff811315610243565b3461011d57602036600319011261011d576020600435677fffffffffffffff19811215806102ae575b6102a390610635565b6040519060070b8152f35b50677fffffffffffffff81131561029a565b3461011d57602036600319011261011d576020600435617fff19811215806102f7575b6102ec90610719565b6040519060010b8152f35b50617fff8113156102e3565b3461011d57602036600319011261011d57602060043561032963ffffffff821115610774565b63ffffffff60405191168152f35b3461011d57602036600319011261011d576020600435637fffffff1981121580610370575b61036590610774565b6040519060030b8152f35b50637fffffff81131561035c565b3461011d57602036600319011261011d5760206004356103a261ffff821115610719565b61ffff60405191168152f35b3461011d57602036600319011261011d5760206004356103e06fffffffffffffffffffffffffffffffff8211156106a7565b6fffffffffffffffffffffffffffffffff60405191168152f35b3461011d57602036600319011261011d576004357bffffffffffffffffffffffffffffffffffffffffffffffffffffffff811161045a576020907bffffffffffffffffffffffffffffffffffffffffffffffffffffffff60405191168152f35b60405162461bcd60e51b815260206004820152602760248201527f53616665436173743a2076616c756520646f65736e27742066697420696e203260448201527f32342062697473000000000000000000000000000000000000000000000000006064820152608490fd5b3461011d57602036600319011261011d5760206004356104ef67ffffffffffffffff821115610635565b67ffffffffffffffff60405191168152f35b3461011d57602036600319011261011d576004356bffffffffffffffffffffffff8111610541576020906bffffffffffffffffffffffff60405191168152f35b60405162461bcd60e51b815260206004820152602660248201527f53616665436173743a2076616c756520646f65736e27742066697420696e203960448201526536206269747360d01b6064820152608490fd5b3461011d57602036600319011261011d5760206004356105b860ff8211156105c3565b60ff60405191168152f35b156105ca57565b60405162461bcd60e51b815260206004820152602560248201527f53616665436173743a2076616c756520646f65736e27742066697420696e203860448201527f20626974730000000000000000000000000000000000000000000000000000006064820152608490fd5b1561063c57565b60405162461bcd60e51b815260206004820152602660248201527f53616665436173743a2076616c756520646f65736e27742066697420696e203660448201527f34206269747300000000000000000000000000000000000000000000000000006064820152608490fd5b156106ae57565b60405162461bcd60e51b815260206004820152602760248201527f53616665436173743a2076616c756520646f65736e27742066697420696e203160448201527f32382062697473000000000000000000000000000000000000000000000000006064820152608490fd5b1561072057565b60405162461bcd60e51b815260206004820152602660248201527f53616665436173743a2076616c756520646f65736e27742066697420696e203160448201526536206269747360d01b6064820152608490fd5b1561077b57565b60405162461bcd60e51b815260206004820152602660248201527f53616665436173743a2076616c756520646f65736e27742066697420696e203360448201527f32206269747300000000000000000000000000000000000000000000000000006064820152608490fdfea2646970667358221220c3075dfff50d3541bb527562a255880c0b1b565c2d1487c544ad4afe7353a68b64736f6c634300081a0033","linkReferences":{}},"methodIdentifiers":{"toInt128(int256)":"dd2a0316","toInt16(int256)":"cf65b4d3","toInt256(uint256)":"dfbe873b","toInt32(int256)":"9c6f59be","toInt64(int256)":"d6bd32aa","toInt8(int256)":"f136dc02","toUint128(uint256)":"809fdd33","toUint16(uint256)":"9374068f","toUint224(uint256)":"5bb79860","toUint256(int256)":"fdcf791b","toUint32(uint256)":"c8193255","toUint64(uint256)":"2665fad0","toUint8(uint256)":"0cc4681e","toUint96(uint256)":"1cf887fc"},"id":208}