{"abi":[{"type":"function","name":"DEFAULT_ADMIN_ROLE","inputs":[],"outputs":[{"name":"","type":"bytes32","internalType":"bytes32"}],"stateMutability":"view"},{"type":"function","name":"allowance","inputs":[{"name":"owner","type":"address","internalType":"address"},{"name":"spender","type":"address","internalType":"address"}],"outputs":[{"name":"","type":"uint256","internalType":"uint256"}],"stateMutability":"view"},{"type":"function","name":"approve","inputs":[{"name":"spender","type":"address","internalType":"address"},{"name":"value","type":"uint256","internalType":"uint256"}],"outputs":[{"name":"","type":"bool","internalType":"bool"}],"stateMutability":"nonpayable"},{"type":"function","name":"balanceOf","inputs":[{"name":"account","type":"address","internalType":"address"}],"outputs":[{"name":"","type":"uint256","internalType":"uint256"}],"stateMutability":"view"},{"type":"function","name":"burn","inputs":[{"name":"value","type":"uint256","internalType":"uint256"}],"outputs":[],"stateMutability":"nonpayable"},{"type":"function","name":"burn","inputs":[{"name":"to","type":"address","internalType":"address"},{"name":"amount","type":"uint256","internalType":"uint256"}],"outputs":[],"stateMutability":"nonpayable"},{"type":"function","name":"burnFrom","inputs":[{"name":"account","type":"address","internalType":"address"},{"name":"value","type":"uint256","internalType":"uint256"}],"outputs":[],"stateMutability":"nonpayable"},{"type":"function","name":"decimals","inputs":[],"outputs":[{"name":"","type":"uint8","internalType":"uint8"}],"stateMutability":"pure"},{"type":"function","name":"getRoleAdmin","inputs":[{"name":"role","type":"bytes32","internalType":"bytes32"}],"outputs":[{"name":"","type":"bytes32","internalType":"bytes32"}],"stateMutability":"view"},{"type":"function","name":"grantRole","inputs":[{"name":"role","type":"bytes32","internalType":"bytes32"},{"name":"account","type":"address","internalType":"address"}],"outputs":[],"stateMutability":"nonpayable"},{"type":"function","name":"hasRole","inputs":[{"name":"role","type":"bytes32","internalType":"bytes32"},{"name":"account","type":"address","internalType":"address"}],"outputs":[{"name":"","type":"bool","internalType":"bool"}],"stateMutability":"view"},{"type":"function","name":"initialize","inputs":[{"name":"name","type":"string","internalType":"string"},{"name":"symbol","type":"string","internalType":"string"}],"outputs":[],"stateMutability":"nonpayable"},{"type":"function","name":"mint","inputs":[{"name":"to","type":"address","internalType":"address"},{"name":"amount","type":"uint256","internalType":"uint256"}],"outputs":[],"stateMutability":"nonpayable"},{"type":"function","name":"name","inputs":[],"outputs":[{"name":"","type":"string","internalType":"string"}],"stateMutability":"view"},{"type":"function","name":"renounceRole","inputs":[{"name":"role","type":"bytes32","internalType":"bytes32"},{"name":"callerConfirmation","type":"address","internalType":"address"}],"outputs":[],"stateMutability":"nonpayable"},{"type":"function","name":"revokeRole","inputs":[{"name":"role","type":"bytes32","internalType":"bytes32"},{"name":"account","type":"address","internalType":"address"}],"outputs":[],"stateMutability":"nonpayable"},{"type":"function","name":"supportsInterface","inputs":[{"name":"interfaceId","type":"bytes4","internalType":"bytes4"}],"outputs":[{"name":"","type":"bool","internalType":"bool"}],"stateMutability":"view"},{"type":"function","name":"symbol","inputs":[],"outputs":[{"name":"","type":"string","internalType":"string"}],"stateMutability":"view"},{"type":"function","name":"totalSupply","inputs":[],"outputs":[{"name":"","type":"uint256","internalType":"uint256"}],"stateMutability":"view"},{"type":"function","name":"transfer","inputs":[{"name":"to","type":"address","internalType":"address"},{"name":"value","type":"uint256","internalType":"uint256"}],"outputs":[{"name":"","type":"bool","internalType":"bool"}],"stateMutability":"nonpayable"},{"type":"function","name":"transferFrom","inputs":[{"name":"from","type":"address","internalType":"address"},{"name":"to","type":"address","internalType":"address"},{"name":"value","type":"uint256","internalType":"uint256"}],"outputs":[{"name":"","type":"bool","internalType":"bool"}],"stateMutability":"nonpayable"},{"type":"event","name":"Approval","inputs":[{"name":"owner","type":"address","indexed":true,"internalType":"address"},{"name":"spender","type":"address","indexed":true,"internalType":"address"},{"name":"value","type":"uint256","indexed":false,"internalType":"uint256"}],"anonymous":false},{"type":"event","name":"Initialized","inputs":[{"name":"version","type":"uint64","indexed":false,"internalType":"uint64"}],"anonymous":false},{"type":"event","name":"RoleAdminChanged","inputs":[{"name":"role","type":"bytes32","indexed":true,"internalType":"bytes32"},{"name":"previousAdminRole","type":"bytes32","indexed":true,"internalType":"bytes32"},{"name":"newAdminRole","type":"bytes32","indexed":true,"internalType":"bytes32"}],"anonymous":false},{"type":"event","name":"RoleGranted","inputs":[{"name":"role","type":"bytes32","indexed":true,"internalType":"bytes32"},{"name":"account","type":"address","indexed":true,"internalType":"address"},{"name":"sender","type":"address","indexed":true,"internalType":"address"}],"anonymous":false},{"type":"event","name":"RoleRevoked","inputs":[{"name":"role","type":"bytes32","indexed":true,"internalType":"bytes32"},{"name":"account","type":"address","indexed":true,"internalType":"address"},{"name":"sender","type":"address","indexed":true,"internalType":"address"}],"anonymous":false},{"type":"event","name":"Transfer","inputs":[{"name":"from","type":"address","indexed":true,"internalType":"address"},{"name":"to","type":"address","indexed":true,"internalType":"address"},{"name":"value","type":"uint256","indexed":false,"internalType":"uint256"}],"anonymous":false},{"type":"error","name":"AccessControlBadConfirmation","inputs":[]},{"type":"error","name":"AccessControlUnauthorizedAccount","inputs":[{"name":"account","type":"address","internalType":"address"},{"name":"neededRole","type":"bytes32","internalType":"bytes32"}]},{"type":"error","name":"ERC20InsufficientAllowance","inputs":[{"name":"spender","type":"address","internalType":"address"},{"name":"allowance","type":"uint256","internalType":"uint256"},{"name":"needed","type":"uint256","internalType":"uint256"}]},{"type":"error","name":"ERC20InsufficientBalance","inputs":[{"name":"sender","type":"address","internalType":"address"},{"name":"balance","type":"uint256","internalType":"uint256"},{"name":"needed","type":"uint256","internalType":"uint256"}]},{"type":"error","name":"ERC20InvalidApprover","inputs":[{"name":"approver","type":"address","internalType":"address"}]},{"type":"error","name":"ERC20InvalidReceiver","inputs":[{"name":"receiver","type":"address","internalType":"address"}]},{"type":"error","name":"ERC20InvalidSender","inputs":[{"name":"sender","type":"address","internalType":"address"}]},{"type":"error","name":"ERC20InvalidSpender","inputs":[{"name":"spender","type":"address","internalType":"address"}]},{"type":"error","name":"InvalidInitialization","inputs":[]},{"type":"error","name":"NotInitializing","inputs":[]}],"bytecode":{"object":"0x60808060405234601557611576908161001a8239f35b5f80fdfe6080806040526004361015610012575f80fd5b5f3560e01c90816301ffc9a714610deb5750806306fdde0314610d08578063095ea7b314610c3f57806318160ddd14610c0357806323b872dd14610bcb578063248a9ca314610b8c5780632f2ff15d14610b42578063313ce56714610b2757806336568abe14610ae357806340c10f19146109d957806342966c68146109bc5780634cd88b761461043e57806370a08231146103e757806379cc6790146103b757806391d148541461036157806395d89b41146102495780639dc29fac1461021c578063a217fddf14610202578063a9059cbb146101d1578063d547741f146101805763dd62ed3e14610103575f80fd5b3461017c57604036600319011261017c5761011c610e68565b6001600160a01b0361016661012f610e7e565b926001600160a01b03165f527f52c63247e1f47db19d5ce0460030c497f067ca4cebf71ba98eeadabe20bace0160205260405f2090565b91165f52602052602060405f2054604051908152f35b5f80fd5b3461017c57604036600319011261017c576101cf60043561019f610e7e565b906101ca6101c5825f525f80516020611521833981519152602052600160405f20015490565b6111a0565b611343565b005b3461017c57604036600319011261017c576101f76101ed610e68565b6024359033611047565b602060405160018152f35b3461017c575f36600319011261017c5760206040515f8152f35b3461017c57604036600319011261017c576101cf610238610e68565b610240611151565b602435906113e0565b3461017c575f36600319011261017c576040515f7f52c63247e1f47db19d5ce0460030c497f067ca4cebf71ba98eeadabe20bace045461028881610f0c565b808452906001811690811561033d57506001146102c0575b6102bc836102b081850382610e94565b60405191829182610e3e565b0390f35b7f52c63247e1f47db19d5ce0460030c497f067ca4cebf71ba98eeadabe20bace045f9081527f46a2803e59a4de4e7a4c574b1243f25977ac4c77d5a1a4a609b5394cebb4a2aa939250905b808210610323575090915081016020016102b06102a0565b91926001816020925483858801015201910190929161030b565b60ff191660208086019190915291151560051b840190910191506102b090506102a0565b3461017c57604036600319011261017c5761037a610e7e565b6004355f525f805160206115218339815191526020526001600160a01b0360405f2091165f52602052602060ff60405f2054166040519015158152f35b3461017c57604036600319011261017c576101cf6103d3610e68565b602435906103e2823383610f44565b6113e0565b3461017c57602036600319011261017c576001600160a01b03610408610e68565b165f527f52c63247e1f47db19d5ce0460030c497f067ca4cebf71ba98eeadabe20bace00602052602060405f2054604051908152f35b3461017c57604036600319011261017c5760043567ffffffffffffffff811161017c5761046f903690600401610eb6565b60243567ffffffffffffffff811161017c5761048f903690600401610eb6565b7ff0c57e16840df040f15088dc2f81fe391c3923bec73e23a9662efc9c229c6a005460ff8160401c16159067ffffffffffffffff8116801590816109b4575b60011490816109aa575b1590816109a1575b506109925767ffffffffffffffff1981166001177ff0c57e16840df040f15088dc2f81fe391c3923bec73e23a9662efc9c229c6a005581610953575b506105256114e2565b61052d6114e2565b825167ffffffffffffffff8111610811576105687f52c63247e1f47db19d5ce0460030c497f067ca4cebf71ba98eeadabe20bace0354610f0c565b601f81116108d1575b506020601f821160011461083057819293945f92610825575b50508160011b915f199060031b1c1916177f52c63247e1f47db19d5ce0460030c497f067ca4cebf71ba98eeadabe20bace03555b815167ffffffffffffffff8111610811576105f97f52c63247e1f47db19d5ce0460030c497f067ca4cebf71ba98eeadabe20bace0454610f0c565b601f811161078f575b50602092601f82116001146106f057928192935f926106e5575b50508160011b915f199060031b1c1916177f52c63247e1f47db19d5ce0460030c497f067ca4cebf71ba98eeadabe20bace04555b6106586114e2565b610661336111ed565b5061066857005b68ff0000000000000000197ff0c57e16840df040f15088dc2f81fe391c3923bec73e23a9662efc9c229c6a0054167ff0c57e16840df040f15088dc2f81fe391c3923bec73e23a9662efc9c229c6a00557fc7f505b2f371ae2175ee4913f4499e1f2633a7b5936321eed1cdaeb6115181d2602060405160018152a1005b01519050838061061c565b601f198216937f52c63247e1f47db19d5ce0460030c497f067ca4cebf71ba98eeadabe20bace045f52805f20915f5b868110610777575083600195961061075f575b505050811b017f52c63247e1f47db19d5ce0460030c497f067ca4cebf71ba98eeadabe20bace0455610650565b01515f1960f88460031b161c19169055838080610732565b9192602060018192868501518155019401920161071f565b7f52c63247e1f47db19d5ce0460030c497f067ca4cebf71ba98eeadabe20bace045f527f46a2803e59a4de4e7a4c574b1243f25977ac4c77d5a1a4a609b5394cebb4a2aa601f830160051c81019160208410610807575b601f0160051c01905b8181106107fc5750610602565b5f81556001016107ef565b90915081906107e6565b634e487b7160e01b5f52604160045260245ffd5b01519050848061058a565b601f198216907f52c63247e1f47db19d5ce0460030c497f067ca4cebf71ba98eeadabe20bace035f52805f20915f5b8181106108b9575095836001959697106108a1575b505050811b017f52c63247e1f47db19d5ce0460030c497f067ca4cebf71ba98eeadabe20bace03556105be565b01515f1960f88460031b161c19169055848080610874565b9192602060018192868b01518155019401920161085f565b7f52c63247e1f47db19d5ce0460030c497f067ca4cebf71ba98eeadabe20bace035f527f2ae08a8e29253f69ac5d979a101956ab8f8d9d7ded63fa7a83b16fc47648eab0601f830160051c81019160208410610949575b601f0160051c01905b81811061093e5750610571565b5f8155600101610931565b9091508190610928565b68ffffffffffffffffff191668010000000000000001177ff0c57e16840df040f15088dc2f81fe391c3923bec73e23a9662efc9c229c6a00558361051c565b63f92ee8a960e01b5f5260045ffd5b905015856104e0565b303b1591506104d8565b8391506104ce565b3461017c57602036600319011261017c576101cf600435336113e0565b3461017c57604036600319011261017c576109f2610e68565b6001600160a01b0360243591610a06611151565b16908115610ad0577f52c63247e1f47db19d5ce0460030c497f067ca4cebf71ba98eeadabe20bace025490808201809211610abc5760207fddf252ad1be2c89b69c2b068fc378daa952ba7f163c4a11628f55a4df523b3ef915f937f52c63247e1f47db19d5ce0460030c497f067ca4cebf71ba98eeadabe20bace02558484527f52c63247e1f47db19d5ce0460030c497f067ca4cebf71ba98eeadabe20bace00825260408420818154019055604051908152a3005b634e487b7160e01b5f52601160045260245ffd5b63ec442f0560e01b5f525f60045260245ffd5b3461017c57604036600319011261017c57610afc610e7e565b336001600160a01b03821603610b18576101cf90600435611343565b63334bd91960e11b5f5260045ffd5b3461017c575f36600319011261017c57602060405160068152f35b3461017c57604036600319011261017c576101cf600435610b61610e7e565b90610b876101c5825f525f80516020611521833981519152602052600160405f20015490565b61129c565b3461017c57602036600319011261017c576020610bc36004355f525f80516020611521833981519152602052600160405f20015490565b604051908152f35b3461017c57606036600319011261017c576101f7610be7610e68565b610bef610e7e565b60443591610bfe833383610f44565b611047565b3461017c575f36600319011261017c5760207f52c63247e1f47db19d5ce0460030c497f067ca4cebf71ba98eeadabe20bace0254604051908152f35b3461017c57604036600319011261017c57610c58610e68565b602435903315610cf5576001600160a01b0316908115610ce257335f9081527f52c63247e1f47db19d5ce0460030c497f067ca4cebf71ba98eeadabe20bace0160205260409020825f526020528060405f20556040519081527f8c5be1e5ebec7d5bd14f71427d1e84f3dd0314c0f7b2291e5b200ac8c7c3b92560203392a3602060405160018152f35b634a1406b160e11b5f525f60045260245ffd5b63e602df0560e01b5f525f60045260245ffd5b3461017c575f36600319011261017c576040515f7f52c63247e1f47db19d5ce0460030c497f067ca4cebf71ba98eeadabe20bace0354610d4781610f0c565b808452906001811690811561033d5750600114610d6e576102bc836102b081850382610e94565b7f52c63247e1f47db19d5ce0460030c497f067ca4cebf71ba98eeadabe20bace035f9081527f2ae08a8e29253f69ac5d979a101956ab8f8d9d7ded63fa7a83b16fc47648eab0939250905b808210610dd1575090915081016020016102b06102a0565b919260018160209254838588010152019101909291610db9565b3461017c57602036600319011261017c576004359063ffffffff60e01b821680920361017c57602091637965db0b60e01b8114908115610e2d575b5015158152f35b6301ffc9a760e01b14905083610e26565b602060409281835280519182918282860152018484015e5f828201840152601f01601f1916010190565b600435906001600160a01b038216820361017c57565b602435906001600160a01b038216820361017c57565b90601f8019910116810190811067ffffffffffffffff82111761081157604052565b81601f8201121561017c5780359067ffffffffffffffff82116108115760405192610eeb601f8401601f191660200185610e94565b8284526020838301011161017c57815f926020809301838601378301015290565b90600182811c92168015610f3a575b6020831014610f2657565b634e487b7160e01b5f52602260045260245ffd5b91607f1691610f1b565b9190610f80836001600160a01b03165f527f52c63247e1f47db19d5ce0460030c497f067ca4cebf71ba98eeadabe20bace0160205260405f2090565b6001600160a01b0382165f5260205260405f2054925f198403610fa4575b50505050565b828410611023576001600160a01b03811615610cf5576001600160a01b03821615610ce25761100b6001600160a01b03916001600160a01b03165f527f52c63247e1f47db19d5ce0460030c497f067ca4cebf71ba98eeadabe20bace0160205260405f2090565b91165f5260205260405f20910390555f808080610f9e565b506001600160a01b038391637dc7a0d960e11b5f521660045260245260445260645ffd5b6001600160a01b031690811561113e576001600160a01b0316918215610ad057815f527f52c63247e1f47db19d5ce0460030c497f067ca4cebf71ba98eeadabe20bace0060205260405f205481811061112557817fddf252ad1be2c89b69c2b068fc378daa952ba7f163c4a11628f55a4df523b3ef92602092855f527f52c63247e1f47db19d5ce0460030c497f067ca4cebf71ba98eeadabe20bace0084520360405f2055845f527f52c63247e1f47db19d5ce0460030c497f067ca4cebf71ba98eeadabe20bace00825260405f20818154019055604051908152a3565b8263391434e360e21b5f5260045260245260445260645ffd5b634b637e8f60e11b5f525f60045260245ffd5b335f9081527fb7db2dd08fcb62d0c9e08c51941cae53c267786a0b75803fb7960902fc8ef97d602052604090205460ff161561118957565b63e2517d3f60e01b5f52336004525f60245260445ffd5b805f525f8051602061152183398151915260205260405f206001600160a01b0333165f5260205260ff60405f205416156111d75750565b63e2517d3f60e01b5f523360045260245260445ffd5b6001600160a01b0381165f9081527fb7db2dd08fcb62d0c9e08c51941cae53c267786a0b75803fb7960902fc8ef97d602052604090205460ff16611297576001600160a01b03165f8181527fb7db2dd08fcb62d0c9e08c51941cae53c267786a0b75803fb7960902fc8ef97d60205260408120805460ff191660011790553391907f2f8788117e7eff1d82e926ec794901d17c78024a50270940304540a733656f0d8180a4600190565b505f90565b805f525f8051602061152183398151915260205260405f206001600160a01b0383165f5260205260ff60405f205416155f1461133d57805f525f8051602061152183398151915260205260405f206001600160a01b0383165f5260205260405f20600160ff198254161790556001600160a01b03339216907f2f8788117e7eff1d82e926ec794901d17c78024a50270940304540a733656f0d5f80a4600190565b50505f90565b805f525f8051602061152183398151915260205260405f206001600160a01b0383165f5260205260ff60405f2054165f1461133d57805f525f8051602061152183398151915260205260405f206001600160a01b0383165f5260205260405f2060ff1981541690556001600160a01b03339216907ff6391f5c32d9c69d2a47ea670b442974b53935d1edc7fd64eb21e047a839171b5f80a4600190565b9091906001600160a01b0316801561113e57805f527f52c63247e1f47db19d5ce0460030c497f067ca4cebf71ba98eeadabe20bace0060205260405f20548381106114c8576020845f94957fddf252ad1be2c89b69c2b068fc378daa952ba7f163c4a11628f55a4df523b3ef938587527f52c63247e1f47db19d5ce0460030c497f067ca4cebf71ba98eeadabe20bace008452036040862055807f52c63247e1f47db19d5ce0460030c497f067ca4cebf71ba98eeadabe20bace0254037f52c63247e1f47db19d5ce0460030c497f067ca4cebf71ba98eeadabe20bace0255604051908152a3565b915063391434e360e21b5f5260045260245260445260645ffd5b60ff7ff0c57e16840df040f15088dc2f81fe391c3923bec73e23a9662efc9c229c6a005460401c161561151157565b631afcd79f60e31b5f5260045ffdfe02dd7bc7dec4dceedda775e58dd541e08a116c6c53815c0bd028192f7b626800a2646970667358221220e59addac560ec0656189ff089166b4b69d720135a5a5b9cee52f69c4f20689e464736f6c634300081a0033","linkReferences":{}},"methodIdentifiers":{"DEFAULT_ADMIN_ROLE()":"a217fddf","allowance(address,address)":"dd62ed3e","approve(address,uint256)":"095ea7b3","balanceOf(address)":"70a08231","burn(address,uint256)":"9dc29fac","burn(uint256)":"42966c68","burnFrom(address,uint256)":"79cc6790","decimals()":"313ce567","getRoleAdmin(bytes32)":"248a9ca3","grantRole(bytes32,address)":"2f2ff15d","hasRole(bytes32,address)":"91d14854","initialize(string,string)":"4cd88b76","mint(address,uint256)":"40c10f19","name()":"06fdde03","renounceRole(bytes32,address)":"36568abe","revokeRole(bytes32,address)":"d547741f","supportsInterface(bytes4)":"01ffc9a7","symbol()":"95d89b41","totalSupply()":"18160ddd","transfer(address,uint256)":"a9059cbb","transferFrom(address,address,uint256)":"23b872dd"},"id":115}