{"abi":[{"type":"constructor","inputs":[{"name":"trustedForwarder","type":"address","internalType":"address"}],"stateMutability":"nonpayable"},{"type":"function","name":"isTrustedForwarder","inputs":[{"name":"forwarder","type":"address","internalType":"address"}],"outputs":[{"name":"","type":"bool","internalType":"bool"}],"stateMutability":"view"},{"type":"function","name":"msgData","inputs":[{"name":"integerValue","type":"uint256","internalType":"uint256"},{"name":"stringValue","type":"string","internalType":"string"}],"outputs":[],"stateMutability":"nonpayable"},{"type":"function","name":"msgSender","inputs":[],"outputs":[],"stateMutability":"nonpayable"},{"type":"event","name":"Data","inputs":[{"name":"data","type":"bytes","indexed":false,"internalType":"bytes"},{"name":"integerValue","type":"uint256","indexed":false,"internalType":"uint256"},{"name":"stringValue","type":"string","indexed":false,"internalType":"string"}],"anonymous":false},{"type":"event","name":"Sender","inputs":[{"name":"sender","type":"address","indexed":false,"internalType":"address"}],"anonymous":false}],"bytecode":{"object":"0x60a034607357601f61037238819003918201601f19168301916001600160401b03831184841017607757808492602094604052833981010312607357516001600160a01b03811681036073576080526040516102e6908161008c823960805181818160c40152818161021701526102730152f35b5f80fd5b634e487b7160e01b5f52604160045260245ffdfe6080806040526004361015610012575f80fd5b5f3560e01c908163376bf262146100e957508063572b6c051461008e5763d737d0c71461003d575f80fd5b3461008a575f36600319011261008a577fd6558c3ed910d959271054471fd1c326679d9fece99c5091b00ed89627cf2bfc6020610078610270565b6001600160a01b0360405191168152a1005b5f80fd5b3461008a57602036600319011261008a576004356001600160a01b03811680910361008a57602090604051906001600160a01b037f000000000000000000000000000000000000000000000000000000000000000016148152f35b3461008a57604036600319011261008a576024359067ffffffffffffffff821161008a573660238301121561008a5781600401359167ffffffffffffffff831161020057601f8301601f19908116603f0116820167ffffffffffffffff8111838210176102005760405282825260208201366024858401011161008a575f6020857faf235354a0a47c91ee171961326335cb2d1a8e55b8a89859b0e61eb049e50ea096602483960185378501015260806101a1610214565b9490928560405196879560608752816060880152858701375f848287010152601f80199101168401916004358686015283858403016040860152518091818585015260a084015e5f8282018401860152601f01601f19160101030190a1005b634e487b7160e01b5f52604160045260245ffd5b337f00000000000000000000000000000000000000000000000000000000000000006001600160a01b03160361026a57601319360190368211610256575f9190565b634e487b7160e01b5f52601160045260245ffd5b5f903690565b337f00000000000000000000000000000000000000000000000000000000000000006001600160a01b0316036102ac5736601319013560601c90565b339056fea264697066735822122063ec69fa2d6ac024f221688ba50a2c8a25d0a1977731506cb3927899f371cef764736f6c634300081a0033","linkReferences":{}},"methodIdentifiers":{"isTrustedForwarder(address)":"572b6c05","msgData(uint256,string)":"376bf262","msgSender()":"d737d0c7"},"id":183}