{"abi":[{"type":"function","name":"DEFAULT_ADMIN_ROLE","inputs":[],"outputs":[{"name":"","type":"bytes32","internalType":"bytes32"}],"stateMutability":"view"},{"type":"function","name":"getRegistrationProof","inputs":[{"name":"_issuer","type":"address","internalType":"address"}],"outputs":[{"name":"","type":"bytes32","internalType":"bytes32"}],"stateMutability":"view"},{"type":"function","name":"getRoleAdmin","inputs":[{"name":"role","type":"bytes32","internalType":"bytes32"}],"outputs":[{"name":"","type":"bytes32","internalType":"bytes32"}],"stateMutability":"view"},{"type":"function","name":"grantRole","inputs":[{"name":"role","type":"bytes32","internalType":"bytes32"},{"name":"account","type":"address","internalType":"address"}],"outputs":[],"stateMutability":"nonpayable"},{"type":"function","name":"hasRole","inputs":[{"name":"role","type":"bytes32","internalType":"bytes32"},{"name":"account","type":"address","internalType":"address"}],"outputs":[{"name":"","type":"bool","internalType":"bool"}],"stateMutability":"view"},{"type":"function","name":"initialize","inputs":[{"name":"_admin","type":"address","internalType":"address"}],"outputs":[],"stateMutability":"nonpayable"},{"type":"function","name":"isValidIssuer","inputs":[{"name":"_issuer","type":"address","internalType":"address"}],"outputs":[{"name":"","type":"bool","internalType":"bool"}],"stateMutability":"view"},{"type":"function","name":"register","inputs":[{"name":"_issuer","type":"address","internalType":"address"},{"name":"proof","type":"bytes32","internalType":"bytes32"}],"outputs":[],"stateMutability":"nonpayable"},{"type":"function","name":"renounceRole","inputs":[{"name":"role","type":"bytes32","internalType":"bytes32"},{"name":"account","type":"address","internalType":"address"}],"outputs":[],"stateMutability":"nonpayable"},{"type":"function","name":"revokeRole","inputs":[{"name":"role","type":"bytes32","internalType":"bytes32"},{"name":"account","type":"address","internalType":"address"}],"outputs":[],"stateMutability":"nonpayable"},{"type":"function","name":"supportsInterface","inputs":[{"name":"interfaceId","type":"bytes4","internalType":"bytes4"}],"outputs":[{"name":"","type":"bool","internalType":"bool"}],"stateMutability":"view"},{"type":"function","name":"unresiger","inputs":[{"name":"_issuer","type":"address","internalType":"address"}],"outputs":[],"stateMutability":"nonpayable"},{"type":"function","name":"version","inputs":[],"outputs":[{"name":"","type":"uint32","internalType":"uint32"}],"stateMutability":"pure"},{"type":"event","name":"IssuerAdded","inputs":[{"name":"issuer","type":"address","indexed":true,"internalType":"address"}],"anonymous":false},{"type":"event","name":"IssuerRemoved","inputs":[{"name":"issuer","type":"address","indexed":true,"internalType":"address"}],"anonymous":false},{"type":"event","name":"RoleAdminChanged","inputs":[{"name":"role","type":"bytes32","indexed":true,"internalType":"bytes32"},{"name":"previousAdminRole","type":"bytes32","indexed":true,"internalType":"bytes32"},{"name":"newAdminRole","type":"bytes32","indexed":true,"internalType":"bytes32"}],"anonymous":false},{"type":"event","name":"RoleGranted","inputs":[{"name":"role","type":"bytes32","indexed":true,"internalType":"bytes32"},{"name":"account","type":"address","indexed":true,"internalType":"address"},{"name":"sender","type":"address","indexed":true,"internalType":"address"}],"anonymous":false},{"type":"event","name":"RoleRevoked","inputs":[{"name":"role","type":"bytes32","indexed":true,"internalType":"bytes32"},{"name":"account","type":"address","indexed":true,"internalType":"address"},{"name":"sender","type":"address","indexed":true,"internalType":"address"}],"anonymous":false}],"bytecode":{"object":"0x60808060405234601557610be2908161001a8239f35b5f80fdfe6080806040526004361015610012575f80fd5b5f3560e01c90816301ffc9a714610661575080631e7a505f14610600578063248a9ca3146105cd5780632f2ff15d1461051157806336568abe14610471578063474f3c811461043757806352a7ca7b146103d857806354fd4d50146103bb57806391d1485414610371578063a217fddf14610357578063c4d66de81461012e578063d547741f146100e75763f2fa9131146100ab575f80fd5b346100e35760203660031901126100e3576001600160a01b036100cc6106b4565b165f526097602052602060405f2054604051908152f35b5f80fd5b346100e35760403660031901126100e35761012c6004356101066106ca565b90610127610120825f526065602052600160405f20015490565b33906108a9565b6108fa565b005b346100e35760203660031901126100e3576101476106b4565b5f549060ff8260081c1691821580938161034c575b610165906106e0565b61033b575b505f549060ff8260081c16918215809381610330575b610189906106e0565b61031f575b505f5460ff8160081c16908115809281610314575b6101ac906106e0565b610303575b506101ba610b5b565b6101c2610b5b565b6101ca610b5b565b6102f5575b5f549060ff8260081c169182158093816102ea575b6101ed906106e0565b6102d9575b506001600160a01b0381165f9081527fffdfc1249c027f9191656349feb0761381bb32c9f557e01f419fd08754bf5a1b602052604090205460ff161561026c575b5061025e575b610250575b61024457005b5f805461ff0019169055005b61ff00195f54165f5561023e565b61ff00195f54165f55610239565b6001600160a01b03165f8181527fffdfc1249c027f9191656349feb0761381bb32c9f557e01f419fd08754bf5a1b60205260408120805460ff191660011790553391907f2f8788117e7eff1d82e926ec794901d17c78024a50270940304540a733656f0d8180a483610233565b61ffff1916610101175f55846101f2565b5060ff8216156101e4565b61ff00195f54165f556101cf565b61ffff1916610101175f55846101b1565b5060ff8216156101a3565b61ffff1916610101175f558361018e565b5060ff821615610180565b61ffff1916610101175f558261016a565b5060ff82161561015c565b346100e3575f3660031901126100e35760206040515f8152f35b346100e35760403660031901126100e35761038a6106ca565b6004355f5260656020526001600160a01b0360405f2091165f52602052602060ff60405f2054166040519015158152f35b346100e3575f3660031901126100e3576020604051620f42418152f35b346100e35760203660031901126100e3576001600160a01b036103f96106b4565b61040233610788565b16805f5260976020525f60408120557faf66545c919a3be306ee446d8f42a9558b5b022620df880517bc9593ec0f2d525f80a2005b346100e35760203660031901126100e3576001600160a01b036104586106b4565b165f526097602052602060405f20541515604051908152f35b346100e35760403660031901126100e35761048a6106ca565b336001600160a01b038216036104a65761012c906004356108fa565b60405162461bcd60e51b815260206004820152602f60248201527f416363657373436f6e74726f6c3a2063616e206f6e6c792072656e6f756e636560448201527f20726f6c657320666f722073656c6600000000000000000000000000000000006064820152608490fd5b346100e35760403660031901126100e35760043561052d6106ca565b90610547610120825f526065602052600160405f20015490565b805f52606560205260405f206001600160a01b0383165f5260205260ff60405f2054161561057157005b805f52606560205260405f206001600160a01b0383165f5260205260405f20600160ff198254161790556001600160a01b03339216907f2f8788117e7eff1d82e926ec794901d17c78024a50270940304540a733656f0d5f80a4005b346100e35760203660031901126100e35760206105f86004355f526065602052600160405f20015490565b604051908152f35b346100e35760403660031901126100e3576001600160a01b036106216106b4565b61062a33610788565b16805f52609760205260243560405f20557f05e7c881d716bee8cb7ed92293133ba156704252439e5c502c277448f04e20c25f80a2005b346100e35760203660031901126100e3576004359063ffffffff60e01b82168092036100e357602091637965db0b60e01b81149081156106a3575b5015158152f35b6301ffc9a760e01b1490508361069c565b600435906001600160a01b03821682036100e357565b602435906001600160a01b03821682036100e357565b156106e757565b60405162461bcd60e51b815260206004820152602e60248201527f496e697469616c697a61626c653a20636f6e747261637420697320616c72656160448201527f647920696e697469616c697a65640000000000000000000000000000000000006064820152608490fd5b90601f8019910116810190811067ffffffffffffffff82111761077457604052565b634e487b7160e01b5f52604160045260245ffd5b6001600160a01b0381165f9081527fffdfc1249c027f9191656349feb0761381bb32c9f557e01f419fd08754bf5a1b602052604090205460ff16156107ca5750565b6001600160a01b036107dc91166109bf565b6044602061087160116107ee5f610ab9565b603760405194859281808501997f416363657373436f6e74726f6c3a206163636f756e74200000000000000000008b528051918291018587015e8401907f206973206d697373696e6720726f6c652000000000000000000000000000000084830152805192839101604883015e01015f838201520301601f198101835282610752565b60405192839162461bcd60e51b8352602060048401525180918160248501528484015e5f828201840152601f01601f19168101030190fd5b90815f52606560205260405f206001600160a01b0382165f5260205260ff60405f205416156108d6575050565b602061087160116107ee6108f46001600160a01b03604496166109bf565b95610ab9565b805f52606560205260405f206001600160a01b0383165f5260205260ff60405f205416610925575050565b805f52606560205260405f206001600160a01b0383165f5260205260405f2060ff1981541690556001600160a01b03339216907ff6391f5c32d9c69d2a47ea670b442974b53935d1edc7fd64eb21e047a839171b5f80a4565b67ffffffffffffffff811161077457601f01601f191660200190565b9081518110156109ab570160200190565b634e487b7160e01b5f52603260045260245ffd5b6109c9602a61097e565b906109d76040519283610752565b602a82526109e5602a61097e565b6020830190601f19013682378251156109ab57603090538151600110156109ab576078602183015360295b60018111610a645750610a205790565b606460405162461bcd60e51b815260206004820152602060248201527f537472696e67733a20686578206c656e67746820696e73756666696369656e746044820152fd5b90600f811660108110156109ab576f181899199a1a9b1b9c1cb0b131b232b360811b901a610a92838561099a565b5360041c908015610aa5575f1901610a10565b634e487b7160e01b5f52601160045260245ffd5b610ac3604261097e565b90610ad16040519283610752565b60428252610adf604261097e565b6020830190601f19013682378251156109ab57603090538151600110156109ab576078602183015360415b60018111610b1a5750610a205790565b90600f811660108110156109ab576f181899199a1a9b1b9c1cb0b131b232b360811b901a610b48838561099a565b5360041c908015610aa5575f1901610b0a565b5f5460ff8160081c16908115809281610ba1575b610b78906106e0565b610b8f575b50610b8457565b61ff00195f54165f55565b61ffff1916610101175f908155610b7d565b5060ff821615610b6f56fea26469706673582212204009f6f449b84f73c35686528709e63378354efa1710de4d6a95e3f2729efbd564736f6c634300081a0033","linkReferences":{}},"methodIdentifiers":{"DEFAULT_ADMIN_ROLE()":"a217fddf","getRegistrationProof(address)":"f2fa9131","getRoleAdmin(bytes32)":"248a9ca3","grantRole(bytes32,address)":"2f2ff15d","hasRole(bytes32,address)":"91d14854","initialize(address)":"c4d66de8","isValidIssuer(address)":"474f3c81","register(address,bytes32)":"1e7a505f","renounceRole(bytes32,address)":"36568abe","revokeRole(bytes32,address)":"d547741f","supportsInterface(bytes4)":"01ffc9a7","unresiger(address)":"52a7ca7b","version()":"54fd4d50"},"id":125}