{"abi":[{"type":"constructor","inputs":[{"name":"uri","type":"string","internalType":"string"}],"stateMutability":"nonpayable"},{"type":"function","name":"balanceOf","inputs":[{"name":"account","type":"address","internalType":"address"},{"name":"id","type":"uint256","internalType":"uint256"}],"outputs":[{"name":"","type":"uint256","internalType":"uint256"}],"stateMutability":"view"},{"type":"function","name":"balanceOfBatch","inputs":[{"name":"accounts","type":"address[]","internalType":"address[]"},{"name":"ids","type":"uint256[]","internalType":"uint256[]"}],"outputs":[{"name":"","type":"uint256[]","internalType":"uint256[]"}],"stateMutability":"view"},{"type":"function","name":"burn","inputs":[{"name":"account","type":"address","internalType":"address"},{"name":"id","type":"uint256","internalType":"uint256"},{"name":"value","type":"uint256","internalType":"uint256"}],"outputs":[],"stateMutability":"nonpayable"},{"type":"function","name":"burnBatch","inputs":[{"name":"account","type":"address","internalType":"address"},{"name":"ids","type":"uint256[]","internalType":"uint256[]"},{"name":"values","type":"uint256[]","internalType":"uint256[]"}],"outputs":[],"stateMutability":"nonpayable"},{"type":"function","name":"isApprovedForAll","inputs":[{"name":"account","type":"address","internalType":"address"},{"name":"operator","type":"address","internalType":"address"}],"outputs":[{"name":"","type":"bool","internalType":"bool"}],"stateMutability":"view"},{"type":"function","name":"mint","inputs":[{"name":"to","type":"address","internalType":"address"},{"name":"id","type":"uint256","internalType":"uint256"},{"name":"value","type":"uint256","internalType":"uint256"},{"name":"data","type":"bytes","internalType":"bytes"}],"outputs":[],"stateMutability":"nonpayable"},{"type":"function","name":"safeBatchTransferFrom","inputs":[{"name":"from","type":"address","internalType":"address"},{"name":"to","type":"address","internalType":"address"},{"name":"ids","type":"uint256[]","internalType":"uint256[]"},{"name":"amounts","type":"uint256[]","internalType":"uint256[]"},{"name":"data","type":"bytes","internalType":"bytes"}],"outputs":[],"stateMutability":"nonpayable"},{"type":"function","name":"safeTransferFrom","inputs":[{"name":"from","type":"address","internalType":"address"},{"name":"to","type":"address","internalType":"address"},{"name":"id","type":"uint256","internalType":"uint256"},{"name":"amount","type":"uint256","internalType":"uint256"},{"name":"data","type":"bytes","internalType":"bytes"}],"outputs":[],"stateMutability":"nonpayable"},{"type":"function","name":"setApprovalForAll","inputs":[{"name":"operator","type":"address","internalType":"address"},{"name":"approved","type":"bool","internalType":"bool"}],"outputs":[],"stateMutability":"nonpayable"},{"type":"function","name":"supportsInterface","inputs":[{"name":"interfaceId","type":"bytes4","internalType":"bytes4"}],"outputs":[{"name":"","type":"bool","internalType":"bool"}],"stateMutability":"view"},{"type":"function","name":"uri","inputs":[{"name":"","type":"uint256","internalType":"uint256"}],"outputs":[{"name":"","type":"string","internalType":"string"}],"stateMutability":"view"},{"type":"event","name":"ApprovalForAll","inputs":[{"name":"account","type":"address","indexed":true,"internalType":"address"},{"name":"operator","type":"address","indexed":true,"internalType":"address"},{"name":"approved","type":"bool","indexed":false,"internalType":"bool"}],"anonymous":false},{"type":"event","name":"TransferBatch","inputs":[{"name":"operator","type":"address","indexed":true,"internalType":"address"},{"name":"from","type":"address","indexed":true,"internalType":"address"},{"name":"to","type":"address","indexed":true,"internalType":"address"},{"name":"ids","type":"uint256[]","indexed":false,"internalType":"uint256[]"},{"name":"values","type":"uint256[]","indexed":false,"internalType":"uint256[]"}],"anonymous":false},{"type":"event","name":"TransferSingle","inputs":[{"name":"operator","type":"address","indexed":true,"internalType":"address"},{"name":"from","type":"address","indexed":true,"internalType":"address"},{"name":"to","type":"address","indexed":true,"internalType":"address"},{"name":"id","type":"uint256","indexed":false,"internalType":"uint256"},{"name":"value","type":"uint256","indexed":false,"internalType":"uint256"}],"anonymous":false},{"type":"event","name":"URI","inputs":[{"name":"value","type":"string","indexed":false,"internalType":"string"},{"name":"id","type":"uint256","indexed":true,"internalType":"uint256"}],"anonymous":false}],"bytecode":{"object":"0x6080604052346101f9576116f080380380610019816101fd565b9283398101906020818303126101f9578051906001600160401b0382116101f9570181601f820112156101f9578051906001600160401b0382116101e55761006a601f8301601f19166020016101fd565b92828452602083830101116101f957815f9260208093018386015e8301015280516001600160401b0381116101e557600254600181811c911680156101db575b60208210146101c757601f8111610164575b50602091601f8211600114610104579181925f926100f9575b50508160011b915f199060031b1c1916176002555b6040516114cd90816102238239f35b015190505f806100d5565b601f1982169260025f52805f20915f5b85811061014c57508360019510610134575b505050811b016002556100ea565b01515f1960f88460031b161c191690555f8080610126565b91926020600181928685015181550194019201610114565b60025f527f405787fa12a823e0f2b7631cc41b3ba8828b3321ca811111fa75cd3aa3bb5ace601f830160051c810191602084106101bd575b601f0160051c01905b8181106101b257506100bc565b5f81556001016101a5565b909150819061019c565b634e487b7160e01b5f52602260045260245ffd5b90607f16906100aa565b634e487b7160e01b5f52604160045260245ffd5b5f80fd5b6040519190601f01601f191682016001600160401b038111838210176101e55760405256fe60806040526004361015610011575f80fd5b5f3560e01c8062fdd58e14610e8957806301ffc9a714610e1b5780630e89341c14610d125780632eb2c2d614610a425780634e1273f41461088d5780636b20c4541461072e578063731133e9146105d9578063a22cb465146104e5578063e985e9c51461048c578063f242432a1461018b5763f5298aca14610091575f80fd5b34610187576060366003190112610187575f6100ab610eb8565b6001600160a01b03166024356044353383148015610166575b6100cd90611100565b6100d8831515611311565b6100e182611470565b506100eb81611470565b506020846040516100fc8382610f08565b52828552848152604085208486528152604085205461011d83821015611369565b8386528582526040862085875282528260408720910390556040519283528201527fc3d58168c5ae7397731d063d5bbf3d657854427343f4c083240f7aacaa2d0f6260403392a4005b5082845260016020908152604080862033875290915284205460ff166100c4565b5f80fd5b346101875760a0366003190112610187576101a4610eb8565b6101ac610ece565b604435906064359060843567ffffffffffffffff8111610187576101dc6001600160a01b03913690600401610fb3565b941692338414801561046a575b6101f290611100565b6001600160a01b038216916102088315156111e4565b61021182611470565b5061021b84611470565b50815f525f60205260405f20855f5260205260405f205461023e85821015611256565b5f838152602081815260408083208984529091528082209287900390925584815220805461026d9086906112c8565b905582856040518481528660208201527fc3d58168c5ae7397731d063d5bbf3d657854427343f4c083240f7aacaa2d0f6260403392a43b6102aa57005b5f6020946102eb6040519788968795869463f23a6e6160e01b865233600487015260248601526044850152606484015260a0608484015260a4830190610ee4565b03925af15f9181610439575b506103b5576103046113e1565b6308c379a01461037e575b60405162461bcd60e51b815260206004820152603460248201527f455243313135353a207472616e7366657220746f206e6f6e204552433131353560448201527f526563656976657220696d706c656d656e7465720000000000000000000000006064820152608490fd5b0390fd5b6103866113fc565b80610391575061030f565b60405162461bcd60e51b81526020600482015290819061037a906024830190610ee4565b6001600160e01b031916630dc5919f60e01b016103ce57005b60405162461bcd60e51b815260206004820152602860248201527f455243313135353a204552433131353552656365697665722072656a6563746560448201527f6420746f6b656e730000000000000000000000000000000000000000000000006064820152608490fd5b61045c91925060203d602011610463575b6104548183610f08565b8101906113c1565b90826102f7565b503d61044a565b505f84815260016020908152604080832033845290915290205460ff166101e9565b34610187576040366003190112610187576104a5610eb8565b6001600160a01b036104b5610ece565b91165f5260016020526001600160a01b0360405f2091165f52602052602060ff60405f2054166040519015158152f35b34610187576040366003190112610187576104fe610eb8565b60243590811515809203610187576001600160a01b03169081331461056e57335f52600160205260405f20825f5260205260405f2060ff1981541660ff83161790556040519081527f17307eab39ab6107e8899845ad3d59bd9653f200f220920489ca2b5937696c3160203392a3005b60405162461bcd60e51b815260206004820152602960248201527f455243313135353a2073657474696e6720617070726f76616c2073746174757360448201527f20666f722073656c6600000000000000000000000000000000000000000000006064820152608490fd5b34610187576080366003190112610187576105f2610eb8565b6024356044359160643567ffffffffffffffff811161018757610619903690600401610fb3565b906001600160a01b0381169081156106df5761063484611470565b5061063e85611470565b50835f525f60205260405f20825f5260205260405f2061065f8682546112c8565b9055815f6040518681528760208201527fc3d58168c5ae7397731d063d5bbf3d657854427343f4c083240f7aacaa2d0f6260403392a43b61069c57005b6102eb935f6020946040519687958694859363f23a6e6160e01b85523360048601528560248601526044850152606484015260a0608484015260a4830190610ee4565b60405162461bcd60e51b815260206004820152602160248201527f455243313135353a206d696e7420746f20746865207a65726f206164647265736044820152607360f81b6064820152608490fd5b3461018757606036600319011261018757610747610eb8565b60243567ffffffffffffffff811161018757610767903690600401610f56565b9060443567ffffffffffffffff8111610187576107906001600160a01b03913690600401610f56565b911690338214801561086b575b6107a690611100565b6107b1821515611311565b6107be8351825114611172565b60205f6040516107ce8382610f08565b525f5b845181101561083057806107e7600192876110d8565b516107f282866110d8565b51815f525f855260405f20875f52855260405f20549161081482841015611369565b5f525f855260405f20875f52855260405f2091039055016107d1565b5f84867f4a39dc06d4c0dbc64b70af90fd698a233a518aa5d07e595d983b8c0526c8f7fb610866876040519182913395836112e9565b0390a4005b505f82815260016020908152604080832033845290915290205460ff1661079d565b346101875760403660031901126101875760043567ffffffffffffffff811161018757366023820112156101875780600401356108c981610f3e565b916108d76040519384610f08565b8183526024602084019260051b8201019036821161018757602401915b818310610a22578360243567ffffffffffffffff81116101875761091c903690600401610f56565b9080518251036109b75780519161093283610f3e565b926109406040519485610f08565b80845261094f601f1991610f3e565b013660208501375f5b825181101561099d578061098c6001600160a01b03610979600194876110d8565b511661098583866110d8565b519061103c565b61099682876110d8565b5201610958565b604051602080825281906109b390820187611009565b0390f35b60405162461bcd60e51b815260206004820152602960248201527f455243313135353a206163636f756e747320616e6420696473206c656e67746860448201527f206d69736d6174636800000000000000000000000000000000000000000000006064820152608490fd5b82356001600160a01b0381168103610187578152602092830192016108f4565b346101875760a036600319011261018757610a5b610eb8565b610a63610ece565b60443567ffffffffffffffff811161018757610a83903690600401610f56565b60643567ffffffffffffffff811161018757610aa3903690600401610f56565b9260843567ffffffffffffffff811161018757610acc6001600160a01b03913690600401610fb3565b9116913383148015610ce9575b15610c7e57610aeb8151865114611172565b6001600160a01b03841691610b018315156111e4565b5f5b8251811015610b895780610b19600192856110d8565b51610b24828a6110d8565b5190805f525f60205260405f20885f5260205260405f2054610b4883821015611256565b815f525f60205260405f20895f526020528260405f20910390555f525f60205260405f20865f52602052610b8160405f209182546112c8565b905501610b03565b509382846040517f4a39dc06d4c0dbc64b70af90fd698a233a518aa5d07e595d983b8c0526c8f7fb339180610bbf8c89836112e9565b0390a43b610bc957005b5f610c0793610c2b602096610c19604051998a988997889663bc197c8160e01b8852336004890152602488015260a0604488015260a4870190611009565b85810360031901606487015290611009565b83810360031901608485015290610ee4565b03925af15f9181610c5d575b50610c44576103046113e1565b6001600160e01b0319166343e6837f60e01b016103ce57005b610c7791925060203d602011610463576104548183610f08565b9082610c37565b60405162461bcd60e51b815260206004820152603260248201527f455243313135353a207472616e736665722063616c6c6572206973206e6f742060448201527f6f776e6572206e6f7220617070726f76656400000000000000000000000000006064820152608490fd5b50825f52600160205260405f206001600160a01b0333165f5260205260ff60405f205416610ad9565b34610187576020366003190112610187576040515f6002548060011c90600181168015610e11575b602083108114610dfd57828552908115610dd95750600114610d7b575b6109b383610d6781850382610f08565b604051918291602083526020830190610ee4565b91905060025f527f405787fa12a823e0f2b7631cc41b3ba8828b3321ca811111fa75cd3aa3bb5ace915f905b808210610dbf57509091508101602001610d67610d57565b919260018160209254838588010152019101909291610da7565b60ff191660208086019190915291151560051b84019091019150610d679050610d57565b634e487b7160e01b5f52602260045260245ffd5b91607f1691610d3a565b346101875760203660031901126101875760043563ffffffff60e01b811680910361018757602090636cdb3d1360e11b8114908115610e78575b8115610e67575b506040519015158152f35b6301ffc9a760e01b14905082610e5c565b6303a24d0760e21b81149150610e55565b34610187576040366003190112610187576020610eb0610ea7610eb8565b6024359061103c565b604051908152f35b600435906001600160a01b038216820361018757565b602435906001600160a01b038216820361018757565b805180835260209291819084018484015e5f828201840152601f01601f1916010190565b90601f8019910116810190811067ffffffffffffffff821117610f2a57604052565b634e487b7160e01b5f52604160045260245ffd5b67ffffffffffffffff8111610f2a5760051b60200190565b9080601f83011215610187578135610f6d81610f3e565b92610f7b6040519485610f08565b81845260208085019260051b82010192831161018757602001905b828210610fa35750505090565b8135815260209182019101610f96565b81601f820112156101875780359067ffffffffffffffff8211610f2a5760405192610fe8601f8401601f191660200185610f08565b8284526020838301011161018757815f926020809301838601378301015290565b90602080835192838152019201905f5b8181106110265750505090565b8251845260209384019390920191600101611019565b906001600160a01b0382161561106d575f525f6020526001600160a01b0360405f2091165f5260205260405f205490565b60405162461bcd60e51b815260206004820152602b60248201527f455243313135353a2062616c616e636520717565727920666f7220746865207a60448201527f65726f20616464726573730000000000000000000000000000000000000000006064820152608490fd5b80518210156110ec5760209160051b010190565b634e487b7160e01b5f52603260045260245ffd5b1561110757565b60405162461bcd60e51b815260206004820152602960248201527f455243313135353a2063616c6c6572206973206e6f74206f776e6572206e6f7260448201527f20617070726f76656400000000000000000000000000000000000000000000006064820152608490fd5b1561117957565b60405162461bcd60e51b815260206004820152602860248201527f455243313135353a2069647320616e6420616d6f756e7473206c656e6774682060448201527f6d69736d617463680000000000000000000000000000000000000000000000006064820152608490fd5b156111eb57565b60405162461bcd60e51b815260206004820152602560248201527f455243313135353a207472616e7366657220746f20746865207a65726f20616460448201527f64726573730000000000000000000000000000000000000000000000000000006064820152608490fd5b1561125d57565b60405162461bcd60e51b815260206004820152602a60248201527f455243313135353a20696e73756666696369656e742062616c616e636520666f60448201527f72207472616e73666572000000000000000000000000000000000000000000006064820152608490fd5b919082018092116112d557565b634e487b7160e01b5f52601160045260245ffd5b909161130061130e93604084526040840190611009565b916020818403910152611009565b90565b1561131857565b60405162461bcd60e51b815260206004820152602360248201527f455243313135353a206275726e2066726f6d20746865207a65726f206164647260448201526265737360e81b6064820152608490fd5b1561137057565b60405162461bcd60e51b8152602060048201526024808201527f455243313135353a206275726e20616d6f756e7420657863656564732062616c604482015263616e636560e01b6064820152608490fd5b9081602091031261018757516001600160e01b0319811681036101875790565b5f9060033d116113ed57565b905060045f803e5f5160e01c90565b5f60443d1061130e576040513d600319016004823e8051913d602484011167ffffffffffffffff84111761146a578282019283519167ffffffffffffffff8311611462573d84016003190185840160200111611462575061130e92910160200190610f08565b949350505050565b92915050565b6040519061147f604083610f08565b600182526020808301903682378251156110ec57529056fea2646970667358221220491a945b4d1e41ff8cefd657fa24d78adb2969554fdc95f1cc67cca4b3103f9864736f6c634300081a0033","linkReferences":{}},"methodIdentifiers":{"balanceOf(address,uint256)":"00fdd58e","balanceOfBatch(address[],uint256[])":"4e1273f4","burn(address,uint256,uint256)":"f5298aca","burnBatch(address,uint256[],uint256[])":"6b20c454","isApprovedForAll(address,address)":"e985e9c5","mint(address,uint256,uint256,bytes)":"731133e9","safeBatchTransferFrom(address,address,uint256[],uint256[],bytes)":"2eb2c2d6","safeTransferFrom(address,address,uint256,uint256,bytes)":"f242432a","setApprovalForAll(address,bool)":"a22cb465","supportsInterface(bytes4)":"01ffc9a7","uri(uint256)":"0e89341c"},"id":159}