{"abi":[{"type":"function","name":"NATIVE","inputs":[],"outputs":[{"name":"","type":"address","internalType":"Currency"}],"stateMutability":"view"},{"type":"error","name":"Wrap__ERC20TransferFailed","inputs":[{"name":"token","type":"address","internalType":"address"},{"name":"reason","type":"bytes","internalType":"bytes"}]},{"type":"error","name":"Wrap__NativeTransferFailed","inputs":[{"name":"recipient","type":"address","internalType":"address"},{"name":"reason","type":"bytes","internalType":"bytes"}]}],"bytecode":{"object":"0x60808060405234601757606f9081601c823930815050f35b5f80fdfe60808060405260043610156011575f80fd5b5f3560e01c63a0cf0aea146023575f80fd5b5f366003190112603557805f60209252f35b5f80fdfea26469706673582212207b2f147f6a65b4c9ff437b54f3ef8247b530df1123c9fb2986dde79fa8b1941764736f6c634300081a0033","linkReferences":{}},"methodIdentifiers":{"NATIVE()":"a0cf0aea"},"id":0}