{"abi":[{"type":"constructor","inputs":[{"name":"_poolManager","type":"address","internalType":"contract IPoolManager"},{"name":"_verifier","type":"address","internalType":"contract IPureFiVerifier"},{"name":"_tokenA","type":"address","internalType":"contract IERC20"},{"name":"_tokenB","type":"address","internalType":"contract IERC20"},{"name":"_whitelist","type":"address","internalType":"contract PureFiMMWhitelist"}],"stateMutability":"nonpayable"},{"type":"function","name":"calculateLiquidityDelta","inputs":[{"name":"key","type":"tuple","internalType":"struct PoolKey","components":[{"name":"currency0","type":"address","internalType":"Currency"},{"name":"currency1","type":"address","internalType":"Currency"},{"name":"fee","type":"uint24","internalType":"uint24"},{"name":"tickSpacing","type":"int24","internalType":"int24"},{"name":"hooks","type":"address","internalType":"contract IHooks"}]},{"name":"tickLower","type":"int24","internalType":"int24"},{"name":"tickUpper","type":"int24","internalType":"int24"},{"name":"amount0","type":"uint256","internalType":"uint256"},{"name":"amount1","type":"uint256","internalType":"uint256"}],"outputs":[{"name":"","type":"uint128","internalType":"uint128"}],"stateMutability":"view"},{"type":"function","name":"isExpectedRule","inputs":[{"name":"ruleId","type":"uint256","internalType":"uint256"}],"outputs":[{"name":"","type":"bool","internalType":"bool"}],"stateMutability":"view"},{"type":"function","name":"manager","inputs":[],"outputs":[{"name":"","type":"address","internalType":"contract IPoolManager"}],"stateMutability":"view"},{"type":"function","name":"modifyLiquidity","inputs":[{"name":"key","type":"tuple","internalType":"struct PoolKey","components":[{"name":"currency0","type":"address","internalType":"Currency"},{"name":"currency1","type":"address","internalType":"Currency"},{"name":"fee","type":"uint24","internalType":"uint24"},{"name":"tickSpacing","type":"int24","internalType":"int24"},{"name":"hooks","type":"address","internalType":"contract IHooks"}]},{"name":"params","type":"tuple","internalType":"struct IPoolManager.ModifyLiquidityParams","components":[{"name":"tickLower","type":"int24","internalType":"int24"},{"name":"tickUpper","type":"int24","internalType":"int24"},{"name":"liquidityDelta","type":"int256","internalType":"int256"},{"name":"salt","type":"bytes32","internalType":"bytes32"}]},{"name":"hookData","type":"bytes","internalType":"bytes"},{"name":"settleUsingBurn","type":"bool","internalType":"bool"},{"name":"takeClaims","type":"bool","internalType":"bool"}],"outputs":[{"name":"delta","type":"int256","internalType":"BalanceDelta"}],"stateMutability":"payable"},{"type":"function","name":"modifyLiquidity","inputs":[{"name":"key","type":"tuple","internalType":"struct PoolKey","components":[{"name":"currency0","type":"address","internalType":"Currency"},{"name":"currency1","type":"address","internalType":"Currency"},{"name":"fee","type":"uint24","internalType":"uint24"},{"name":"tickSpacing","type":"int24","internalType":"int24"},{"name":"hooks","type":"address","internalType":"contract IHooks"}]},{"name":"params","type":"tuple","internalType":"struct IPoolManager.ModifyLiquidityParams","components":[{"name":"tickLower","type":"int24","internalType":"int24"},{"name":"tickUpper","type":"int24","internalType":"int24"},{"name":"liquidityDelta","type":"int256","internalType":"int256"},{"name":"salt","type":"bytes32","internalType":"bytes32"}]},{"name":"hookData","type":"bytes","internalType":"bytes"}],"outputs":[{"name":"delta","type":"int256","internalType":"BalanceDelta"}],"stateMutability":"payable"},{"type":"function","name":"owner","inputs":[],"outputs":[{"name":"","type":"address","internalType":"address"}],"stateMutability":"view"},{"type":"function","name":"renounceOwnership","inputs":[],"outputs":[],"stateMutability":"nonpayable"},{"type":"function","name":"setExpectedRuleIds","inputs":[{"name":"ruleIds","type":"uint256[]","internalType":"uint256[]"}],"outputs":[],"stateMutability":"nonpayable"},{"type":"function","name":"transferOwnership","inputs":[{"name":"newOwner","type":"address","internalType":"address"}],"outputs":[],"stateMutability":"nonpayable"},{"type":"function","name":"unlockCallback","inputs":[{"name":"rawData","type":"bytes","internalType":"bytes"}],"outputs":[{"name":"","type":"bytes","internalType":"bytes"}],"stateMutability":"nonpayable"},{"type":"function","name":"unsetExpectedRuleId","inputs":[{"name":"ruleIds","type":"uint256[]","internalType":"uint256[]"}],"outputs":[],"stateMutability":"nonpayable"},{"type":"function","name":"verifier","inputs":[],"outputs":[{"name":"","type":"address","internalType":"contract IPureFiVerifier"}],"stateMutability":"view"},{"type":"event","name":"OwnershipTransferred","inputs":[{"name":"previousOwner","type":"address","indexed":true,"internalType":"address"},{"name":"newOwner","type":"address","indexed":true,"internalType":"address"}],"anonymous":false},{"type":"error","name":"MessageSenderMismatch","inputs":[]},{"type":"error","name":"UnexpectedRule","inputs":[]}],"bytecode":{"object":"0x6101203461016857601f61223038819003918201601f19168301916001600160401b0383118484101761016c5780849260a094604052833981010312610168578051906001600160a01b0382168203610168576020810151906001600160a01b03821682036101685761007460408201610180565b608061008260608401610180565b920151926001600160a01b0384168403610168575f8054336001600160a01b0319821681178355604051979290916001600160a01b0316907f8be0079c531659141344cd1fd0a4f28419497f9722a3daafe3b4186f6b6457e09080a360805260a05260e0526101005260c05261209b9081610195823960805181818161029d01528181610abc01528181610b8601528181610c5b01528181611951015281816119f601528181611aa101528181611b0d01528181611c900152611d01015260a051818181610bc90152611304015260c05181611299015260e05181505061010051815050f35b5f80fd5b634e487b7160e01b5f52604160045260245ffd5b51906001600160a01b03821682036101685756fe60806040526004361015610011575f80fd5b5f3560e01c80630a5b11e414610d975780631b41045514610bed5780632b7ac3f314610baa578063481c6a7514610b675780635a6bcfda1461092e578063715018a6146108bd578063823226a41461084b5780638da5cb5b1461082657806391dd73461461024b5780639263aeff1461020a578063ddf11005146101995763f2fde38b1461009d575f80fd5b34610195576020366003190112610195576004356001600160a01b038116809103610195576100d76001600160a01b035f54163314611176565b801561012a576001600160a01b035f548273ffffffffffffffffffffffffffffffffffffffff198216175f55167f8be0079c531659141344cd1fd0a4f28419497f9722a3daafe3b4186f6b6457e05f80a3005b60405162461bcd60e51b815260206004820152602660248201527f4f776e61626c653a206e6577206f776e657220697320746865207a65726f206160448201527f64647265737300000000000000000000000000000000000000000000000000006064820152608490fd5b5f80fd5b34610195576101a7366110b8565b906101bd6001600160a01b035f54163314611176565b5f5b8281106101c857005b806101d660019285856111c1565b3560081c8260ff6101e88488886111c1565b3516825f528160205260405f2054925f52816020521b1760405f2055016101bf565b346101955760203660031901126101955760206102416004358060081c5f526001602052600160ff60405f205492161b8091161490565b6040519015158152f35b346101955760203660031901126101955760043567ffffffffffffffff8111610195573660238201121561019557806004013567ffffffffffffffff81116101955781016024810190368211610195577f00000000000000000000000000000000000000000000000000000000000000006001600160a01b03811693843303610195576020818403126101955760248101359067ffffffffffffffff82116101955701936101a085840312610195576040519161030783610eab565b61031360248701610f52565b835260a0601f198786030112610195576040519361033085610edb565b61033c60448801610f52565b855261034a60648801610f52565b6020860152608487013562ffffff8116810361019557604086015261037160a48801610f66565b606086015260c48701356001600160a01b03811681036101955760809160249183880152602086019687528860e319910301011261019557604051956103b687610ef7565b6103c260e48201610f66565b87526103d16101048201610f66565b6020880152610124810135604088015261014481013560608801526040840196875261016481013567ffffffffffffffff81116101955761050b96602461041a92840101611065565b916060850192835260406104456101a461043761018486016110ab565b9460808901958652016110ab565b9360a0870194855261047260a08951208b51805160020b6060602083015160020b920151923090886117e4565b5050956104dd5f8c61051f8c519151955187519e8f9788968795632d35e7ed60e11b875260048701906001600160a01b036080809282815116855282602082015116602086015262ffffff6040820151166040860152606081015160020b6060860152015116910152565b8051600290810b60a48701526020820151900b60c4860152604081015160e486015260600151610104850152565b61014061012484015261014483019061110c565b03925af196871561081b575f976107e5575b5061055a9060a087512090895190815160020b906060602084015160020b9301519330916117e4565b50509061057f6001600160a01b038751511630906001600160a01b0388511690611939565b939150506001600160801b036105b06001600160a01b0360208a5101511630906001600160a01b038a511690611939565b9791505016600f0b9060408a510151915f83820193841291129080158216911516176107d1576001600160801b0316600f0b0361078c576040610671985101515f81125f1461074757505f8213801561073e575b61060d906111e5565b5f82128015610735575b61062190156111e5565b5f8212610702575b5f84126106ca575b505f811361069e575b505f8213610675575b85856040519060208201526020815261065d604082610f30565b60405191829160208352602083019061110c565b0390f35b6001600160a01b0380602061069596510151169351169051151592611c7f565b82808080610643565b6106c4906001600160a01b0386515116906001600160a01b038651168451151592611c7f565b8661063a565b6106fc906001600160a01b0360208851015116906001600160a01b038751166106f287611200565b91511515926119e5565b87610631565b6107306001600160a01b03875151166001600160a01b0387511661072585611200565b9084511515926119e5565b610629565b505f8412610617565b505f8413610604565b5f1215610621575f82128015610783575b610761906111e5565b5f8213801561077a575b61077590156111e5565b610621565b505f841361076b565b505f8412610758565b60405162461bcd60e51b815260206004820152601a60248201527f6c6971756964697479206368616e676520696e636f72726563740000000000006044820152606490fd5b634e487b7160e01b5f52601160045260245ffd5b9096506040813d604011610813575b8161080160409383610f30565b8101031261019557519561055a610531565b3d91506107f4565b6040513d5f823e3d90fd5b34610195575f3660031901126101955760206001600160a01b035f5416604051908152f35b3461019557610859366110b8565b9061086f6001600160a01b035f54163314611176565b5f5b82811061087a57005b8061088860019285856111c1565b3560081c8260ff61089a8488886111c1565b3516825f528160205260405f2054925f52816020521b191660405f205501610871565b34610195575f366003190112610195576108e26001600160a01b035f54163314611176565b5f6001600160a01b03815473ffffffffffffffffffffffffffffffffffffffff1981168355167f8be0079c531659141344cd1fd0a4f28419497f9722a3daafe3b4186f6b6457e08280a3005b6101403660031901126101955761094436610f74565b61094d36610ffb565b90610124359167ffffffffffffffff831161019557610a8d5f926001600160a01b0392610981610aaf963690600401611065565b9161098b8361123c565b50610a6c6040519361099c85610eab565b338552602085019283526040850193845260608501908152610a576080860194898652610a2560a08801958b87526040519a8b996020808c0152511660408a01525160608901906001600160a01b036080809282815116855282602082015116602086015262ffffff6040820151166040860152606081015160020b6060860152015116910152565b518051600290810b6101008901526020820151900b610120880152604081015161014088015260600151610160870152565b516101a06101808601526101e085019061110c565b915115156101a08401525115156101c083015203601f198101835282610f30565b604051809381926348c8949160e01b835260206004840152602483019061110c565b0381836001600160a01b037f0000000000000000000000000000000000000000000000000000000000000000165af190811561081b575f91610b29575b5060208180518101031261019557602001514780610b10575b602082604051908152f35b5f80808093335af115610b235781610b05565b33611d6a565b90503d805f833e610b3a8183610f30565b810160208282031261019557815167ffffffffffffffff811161019557610b619201611130565b81610aec565b34610195575f3660031901126101955760206040516001600160a01b037f0000000000000000000000000000000000000000000000000000000000000000168152f35b34610195575f3660031901126101955760206040516001600160a01b037f0000000000000000000000000000000000000000000000000000000000000000168152f35b346101955761012036600319011261019557610c0836610f74565b60a4358060020b81036101955760c435908160020b82036101955760e43590610c3760a0610104359520611d9f565b9360405194631e2eaeaf60e01b865260048601526020856024816001600160a01b037f0000000000000000000000000000000000000000000000000000000000000000165afa94851561081b575f95610d61575b50610caa610ca46001600160a01b0360209716936114aa565b946114aa565b9182856001600160a01b0385166001600160a01b03821611610d55575b50506001600160a01b0385168111610cf5575050610ce492611e1e565b6001600160801b0360405191168152f35b909290916001600160a01b038116831015610d49578291610d1a91610d209594611e1e565b93611de5565b6001600160801b0381166001600160801b038316105f14610d4257505b610ce4565b9050610ce4565b915050610d3d92611de5565b90955092508680610cc7565b94506020853d602011610d8f575b81610d7c60209383610f30565b8101031261019557935193610caa610c8b565b3d9150610d6f565b61018036600319011261019557610dad36610f74565b610db636610ffb565b906101243567ffffffffffffffff811161019557610dd8903690600401611065565b91610144359283151580940361019557610164359283151580940361019557610aaf945f94610a6c610a8d94610a576001600160a01b0397610e198361123c565b50610a2560405197610e2a89610eab565b3389526020890190815260408901928352606089019485526080890197885260a089019687526040519a8b996020808c0152511660408a01525160608901906001600160a01b036080809282815116855282602082015116602086015262ffffff6040820151166040860152606081015160020b6060860152015116910152565b60c0810190811067ffffffffffffffff821117610ec757604052565b634e487b7160e01b5f52604160045260245ffd5b60a0810190811067ffffffffffffffff821117610ec757604052565b6080810190811067ffffffffffffffff821117610ec757604052565b610100810190811067ffffffffffffffff821117610ec757604052565b90601f8019910116810190811067ffffffffffffffff821117610ec757604052565b35906001600160a01b038216820361019557565b35908160020b820361019557565b60a09060031901126101955760405190610f8d82610edb565b816004356001600160a01b03811681036101955781526024356001600160a01b038116810361019557602082015260443562ffffff811681036101955760408201526064358060020b8103610195576060820152608435906001600160a01b03821682036101955760800152565b60809060a3190112610195576040519061101482610ef7565b8160a4358060020b810361019557815260c4358060020b810361019557602082015260e4356040820152606061010435910152565b67ffffffffffffffff8111610ec757601f01601f191660200190565b81601f820112156101955780359061107c82611049565b9261108a6040519485610f30565b8284526020838301011161019557815f926020809301838601378301015290565b3590811515820361019557565b9060206003198301126101955760043567ffffffffffffffff811161019557826023820112156101955780600401359267ffffffffffffffff84116101955760248460051b83010111610195576024019190565b805180835260209291819084018484015e5f828201840152601f01601f1916010190565b81601f820112156101955780519061114782611049565b926111556040519485610f30565b8284526020838301011161019557815f9260208093018386015e8301015290565b1561117d57565b606460405162461bcd60e51b815260206004820152602060248201527f4f776e61626c653a2063616c6c6572206973206e6f7420746865206f776e65726044820152fd5b91908110156111d15760051b0190565b634e487b7160e01b5f52603260045260245ffd5b156111ec57565b634e487b7160e01b5f52600160045260245ffd5b600160ff1b81146107d1575f0390565b90816020910312610195575180151581036101955790565b51906001600160a01b038216820361019557565b60405161124881610f13565b5f81525f60208201525f60408201525f60608201525f60808201525f60a08201525f60c0820152606060e08201526040516301fd3f7760e71b81523360048201526020816024816001600160a01b037f0000000000000000000000000000000000000000000000000000000000000000165afa90811561081b575f9161146c575b506114675750905f6112f79260405180948192630efd9c3b60e21b835260206004840152602483019061110c565b0381836001600160a01b037f0000000000000000000000000000000000000000000000000000000000000000165af191821561081b575f92611394575b508161135c60408201518060081c5f526001602052600160ff60405f205492161b8091161490565b15611385576001600160a01b03606033920151160361137757565b62d9c83560e81b5f5260045ffd5b6382a96de560e01b5f5260045ffd5b9091503d805f833e6113a68183610f30565b8101906020818303126101955780519067ffffffffffffffff821161019557016101008183031261019557604051916113de83610f13565b815160ff81168103610195578352602082015160208401526040820151604084015261140c60608301611228565b606084015261141d60808301611228565b608084015261142e60a08301611228565b60a084015260c082015160c084015260e082015167ffffffffffffffff81116101955761145b9201611130565b60e0820152905f611334565b905090565b61148e915060203d602011611494575b6114868183610f30565b810190611210565b5f6112c9565b503d61147c565b90816020910312610195575190565b60020b908160ff1d82810118620d89e881116117d15763ffffffff9192600182167001fffcb933bd6fad37aa2d162d1a594001027001000000000000000000000000000000001891600281166117b5575b60048116611799575b6008811661177d575b60108116611761575b60208116611745575b60408116611729575b6080811661170d575b61010081166116f1575b61020081166116d5575b61040081166116b9575b610800811661169d575b6110008116611681575b6120008116611665575b6140008116611649575b618000811661162d575b620100008116611611575b6202000081166115f6575b6204000081166115db575b62080000166115c2575b5f126115ba575b0160201c90565b5f19046115b3565b6b048a170391f7dc42444e8fa290910260801c906115ac565b6d2216e584f5fa1ea926041bedfe9890920260801c916115a2565b916e5d6af8dedb81196699c329225ee6040260801c91611597565b916f09aa508b5b7a84e1c677de54f3e99bc90260801c9161158c565b916f31be135f97d08fd981231505542fcfa60260801c91611581565b916f70d869a156d2a1b890bb3df62baf32f70260801c91611577565b916fa9f746462d870fdf8a65dc1f90e061e50260801c9161156d565b916fd097f3bdfd2022b8845ad8f792aa58250260801c91611563565b916fe7159475a2c29b7443b29c7fa6e889d90260801c91611559565b916ff3392b0822b70005940c7a398e4b70f30260801c9161154f565b916ff987a7253ac413176f2b074cf7815e540260801c91611545565b916ffcbe86c7900a88aedcffc83b479aa3a40260801c9161153b565b916ffe5dee046a99a2a811c461f1969c30530260801c91611531565b916fff2ea16466c96a3843ec78b326b528610260801c91611528565b916fff973b41fa98c081472e6896dfb254c00260801c9161151f565b916fffcb9843d60f6159c9db58835c9266440260801c91611516565b916fffe5caca7e10e4e61c3624eaa0941cd00260801c9161150d565b916ffff2e50f5f656932ef12357cf3c7fdcc0260801c91611504565b916ffff97272373d413259a46990580e213a0260801c916114fb565b826345c3193d60e11b5f5260045260245ffd5b94939261181e939291926040519560268701526006860152600385015283525f603a600c8501209381604082015281602082015252611d9f565b91600683018093116107d15760445f926001600160a01b03946040519060208201928352604082015260408152611856606082610f30565b5190206040519485938492631afeb18d60e11b8452600484015260036024840152165afa90811561081b575f9161189d575b50602081015160408201516060909201519092565b90503d805f833e6118ae8183610f30565b8101906020818303126101955780519067ffffffffffffffff821161019557019080601f830112156101955781519167ffffffffffffffff8311610ec7578260051b90604051936119026020840186610f30565b845260208085019282010192831161019557602001905b828210611929575050505f611888565b8151815260209182019101611919565b92906119459084611e6e565b926001600160a01b03807f000000000000000000000000000000000000000000000000000000000000000016918161197d8483611e6e565b95165f5216602052602060405f2060246040518094819363789add5560e11b835260048301525afa90811561081b575f916119b6575090565b90506020813d6020116119dd575b816119d160209383610f30565b81010312610195575190565b3d91506119c4565b919215611a75576001600160a01b037f000000000000000000000000000000000000000000000000000000000000000016803b1561019557604051637a94c56560e11b81526001600160a01b0392831660048201529290911660248301526044820192909252905f908290818381606481015b03925af1801561081b57611a695750565b5f611a7391610f30565b565b91906001600160a01b031680611b035750604051630476982d60e21b81529150602090829060049082907f00000000000000000000000000000000000000000000000000000000000000006001600160a01b03165af1801561081b57611ad85750565b611af99060203d602011611afc575b611af18183610f30565b81019061149b565b50565b503d611ae7565b6001600160a01b037f00000000000000000000000000000000000000000000000000000000000000001691823b1561019557604051632961046560e21b8152600481018390525f9490858160248183895af1801561081b57611c63575b506001600160a01b031684308214611c08576020929160649160405195869485936323b872dd60e01b8552600485015288602485015260448401525af18015611bfd57916020918493611be0575b505b600460405180958193630476982d60e21b83525af1908115611bd45750611ad85750565b604051903d90823e3d90fd5b611bf690833d8511611494576114868183610f30565b505f611bae565b6040513d85823e3d90fd5b9290506044602092604051948593849263a9059cbb60e01b845288600485015260248401525af18015611bfd57916020918493611c46575b50611bb0565b611c5c90833d8511611494576114868183610f30565b505f611c40565b611c709195505f90610f30565b5f936001600160a01b03611b60565b919215611cf6576001600160a01b037f000000000000000000000000000000000000000000000000000000000000000016803b1561019557604051630ab714fb60e11b81526001600160a01b0392831660048201529290911660248301526044820192909252905f90829081838160648101611a58565b916001600160a01b037f000000000000000000000000000000000000000000000000000000000000000016803b15610195575f92836064926001600160a01b0394856040519889978896630b0d9c0960e01b885216600487015216602485015260448401525af1801561081b57611a695750565b3d60405191638549db5960e01b8352600483015260406024830152806044830152805f606484013e601f801991011660640190fd5b604051602081019182526006604082015260408152611dbf606082610f30565b51902090565b906001600160a01b03809116911603906001600160a01b0382116107d157565b916001600160a01b03611e09611e1594611e109483811684831611611e1857611dc5565b1690611ebb565b61200c565b90565b90611dc5565b91611e1091611e15936001600160a01b0382166001600160a01b03821611611e68575b611e616001600160a01b0391611e5b838516848316611f43565b93611dc5565b1691611f8c565b90611e41565b6001600160a01b031680611e8157503190565b6040516370a0823160e01b81526001600160a01b039092166004830152602090829060249082905afa90811561081b575f916119b6575090565b908160601b905f19600160601b8409928280851094039380850394858411156101955714611f3c57600160601b82910981805f03168092046002816003021880820260020302808202600203028082026002030280820260020302808202600203028091026002030293600183805f03040190848311900302920304170290565b5091500490565b81810291905f1982820991838084109303928084039384600160601b11156101955714611f8357600160601b910990828211900360a01b910360601c1790565b50505060601c90565b91818302915f19818509938380861095039480860395868511156101955714612004579082910981805f03168092046002816003021880820260020302808202600203028082026002030280820260020302808202600203028091026002030293600183805f03040190848311900302920304170290565b505091500490565b906001600160801b03821691820361202057565b60405162461bcd60e51b815260206004820152601260248201527f6c6971756964697479206f766572666c6f7700000000000000000000000000006044820152606490fdfea264697066735822122061833296dd4d1dc406344f131a99fc76a92e73d1e73f86d568cfbb77cd48b2f764736f6c634300081a0033","linkReferences":{}},"methodIdentifiers":{"calculateLiquidityDelta((address,address,uint24,int24,address),int24,int24,uint256,uint256)":"1b410455","isExpectedRule(uint256)":"9263aeff","manager()":"481c6a75","modifyLiquidity((address,address,uint24,int24,address),(int24,int24,int256,bytes32),bytes)":"5a6bcfda","modifyLiquidity((address,address,uint24,int24,address),(int24,int24,int256,bytes32),bytes,bool,bool)":"0a5b11e4","owner()":"8da5cb5b","renounceOwnership()":"715018a6","setExpectedRuleIds(uint256[])":"ddf11005","transferOwnership(address)":"f2fde38b","unlockCallback(bytes)":"91dd7346","unsetExpectedRuleId(uint256[])":"823226a4","verifier()":"2b7ac3f3"},"id":0}