{"abi":[{"type":"constructor","inputs":[{"name":"_verifier","type":"address","internalType":"contract IPureFiVerifier"}],"stateMutability":"nonpayable"},{"type":"function","name":"DEFAULT_ADMIN_ROLE","inputs":[],"outputs":[{"name":"","type":"bytes32","internalType":"bytes32"}],"stateMutability":"view"},{"type":"function","name":"ISSUER","inputs":[],"outputs":[{"name":"","type":"bytes32","internalType":"bytes32"}],"stateMutability":"view"},{"type":"function","name":"authorizedMarketMakers","inputs":[{"name":"","type":"address","internalType":"address"}],"outputs":[{"name":"","type":"bool","internalType":"bool"}],"stateMutability":"view"},{"type":"function","name":"delist","inputs":[{"name":"user","type":"address","internalType":"address"}],"outputs":[],"stateMutability":"nonpayable"},{"type":"function","name":"delistMe","inputs":[{"name":"purefidata","type":"bytes","internalType":"bytes"}],"outputs":[],"stateMutability":"nonpayable"},{"type":"function","name":"enlistMe","inputs":[{"name":"purefidata","type":"bytes","internalType":"bytes"}],"outputs":[],"stateMutability":"nonpayable"},{"type":"function","name":"getRoleAdmin","inputs":[{"name":"role","type":"bytes32","internalType":"bytes32"}],"outputs":[{"name":"","type":"bytes32","internalType":"bytes32"}],"stateMutability":"view"},{"type":"function","name":"grantRole","inputs":[{"name":"role","type":"bytes32","internalType":"bytes32"},{"name":"account","type":"address","internalType":"address"}],"outputs":[],"stateMutability":"nonpayable"},{"type":"function","name":"hasRole","inputs":[{"name":"role","type":"bytes32","internalType":"bytes32"},{"name":"account","type":"address","internalType":"address"}],"outputs":[{"name":"","type":"bool","internalType":"bool"}],"stateMutability":"view"},{"type":"function","name":"isAuthorized","inputs":[{"name":"user","type":"address","internalType":"address"}],"outputs":[{"name":"","type":"bool","internalType":"bool"}],"stateMutability":"view"},{"type":"function","name":"renounceRole","inputs":[{"name":"role","type":"bytes32","internalType":"bytes32"},{"name":"account","type":"address","internalType":"address"}],"outputs":[],"stateMutability":"nonpayable"},{"type":"function","name":"revokeRole","inputs":[{"name":"role","type":"bytes32","internalType":"bytes32"},{"name":"account","type":"address","internalType":"address"}],"outputs":[],"stateMutability":"nonpayable"},{"type":"function","name":"supportsInterface","inputs":[{"name":"interfaceId","type":"bytes4","internalType":"bytes4"}],"outputs":[{"name":"","type":"bool","internalType":"bool"}],"stateMutability":"view"},{"type":"event","name":"AddressDelisted","inputs":[{"name":"","type":"address","indexed":false,"internalType":"address"}],"anonymous":false},{"type":"event","name":"AddressEnlisted","inputs":[{"name":"","type":"address","indexed":false,"internalType":"address"}],"anonymous":false},{"type":"event","name":"RoleAdminChanged","inputs":[{"name":"role","type":"bytes32","indexed":true,"internalType":"bytes32"},{"name":"previousAdminRole","type":"bytes32","indexed":true,"internalType":"bytes32"},{"name":"newAdminRole","type":"bytes32","indexed":true,"internalType":"bytes32"}],"anonymous":false},{"type":"event","name":"RoleGranted","inputs":[{"name":"role","type":"bytes32","indexed":true,"internalType":"bytes32"},{"name":"account","type":"address","indexed":true,"internalType":"address"},{"name":"sender","type":"address","indexed":true,"internalType":"address"}],"anonymous":false},{"type":"event","name":"RoleRevoked","inputs":[{"name":"role","type":"bytes32","indexed":true,"internalType":"bytes32"},{"name":"account","type":"address","indexed":true,"internalType":"address"},{"name":"sender","type":"address","indexed":true,"internalType":"address"}],"anonymous":false}],"bytecode":{"object":"0x608034607057601f610bb038819003918201601f19168301916001600160401b03831184841017607457808492602094604052833981010312607057516001600160a01b03811690819003607057600280546001600160a01b031916919091179055604051610b2790816100898239f35b5f80fd5b634e487b7160e01b5f52604160045260245ffdfe6080806040526004361015610012575f80fd5b5f3560e01c90816301ffc9a71461049d5750806304495f7b1461044c5780631d44e421146100ab578063248a9ca31461041a5780632f2ff15d1461036157806336568abe146102c15780634339b421146102875780636b2cc75c146101ef57806391d14854146101a6578063a217fddf1461018c578063b9c8f27914610132578063d547741f146100ec5763fe9fbb80146100ab575f80fd5b346100e85760203660031901126100e8576001600160a01b036100cc610541565b165f526001602052602060ff60405f2054166040519015158152f35b5f80fd5b346100e85760403660031901126100e85761013060043561010b610557565b9061012b610124825f525f602052600160405f20015490565b33906107be565b610a5e565b005b346100e857610149610143366104f0565b906105d3565b335f52600160205260405f20600160ff198254161790557ff198d2525a0a7dbe3975f5e1d5b718b5b03bc97483af633d7010393ae0e2d9866020604051338152a1005b346100e8575f3660031901126100e85760206040515f8152f35b346100e85760403660031901126100e8576101bf610557565b6004355f525f6020526001600160a01b0360405f2091165f52602052602060ff60405f2054166040519015158152f35b346100e85760203660031901126100e857610208610541565b335f9081527f81bd2629fb206e4de7577b5dd1f32d7fd6ff7e7620b73441d3fd29d1cc29951a602052604090205460ff16156100e85760206001600160a01b037f21bd8dceff1020876eac8bd01f2ef1d59cade579d03c211d99f025bb0e4399dc9216805f526001825260405f2060ff198154169055604051908152a1005b346100e8575f3660031901126100e85760206040517f76afa8a5929fef1b4c03674b2152ae5aaad1d974b8a4021c59477bcc846ccc1e8152f35b346100e85760403660031901126100e8576102da610557565b336001600160a01b038216036102f65761013090600435610a5e565b60405162461bcd60e51b815260206004820152602f60248201527f416363657373436f6e74726f6c3a2063616e206f6e6c792072656e6f756e636560448201527f20726f6c657320666f722073656c6600000000000000000000000000000000006064820152608490fd5b346100e85760403660031901126100e85760043561037d610557565b90610396610124825f525f602052600160405f20015490565b805f525f60205260405f206001600160a01b0383165f5260205260ff60405f205416156103bf57005b805f525f60205260405f206001600160a01b0383165f5260205260405f20600160ff198254161790556001600160a01b03339216907f2f8788117e7eff1d82e926ec794901d17c78024a50270940304540a733656f0d5f80a4005b346100e85760203660031901126100e85760206104446004355f525f602052600160405f20015490565b604051908152f35b346100e85761045d610143366104f0565b335f52600160205260405f2060ff1981541690557f21bd8dceff1020876eac8bd01f2ef1d59cade579d03c211d99f025bb0e4399dc6020604051338152a1005b346100e85760203660031901126100e8576004359063ffffffff60e01b82168092036100e857602091637965db0b60e01b81149081156104df575b5015158152f35b6301ffc9a760e01b149050836104d8565b9060206003198301126100e85760043567ffffffffffffffff81116100e857826023820112156100e85780600401359267ffffffffffffffff84116100e857602484830101116100e8576024019190565b600435906001600160a01b03821682036100e857565b602435906001600160a01b03821682036100e857565b90601f8019910116810190811067ffffffffffffffff82111761058f57604052565b634e487b7160e01b5f52604160045260245ffd5b51906001600160a01b03821682036100e857565b67ffffffffffffffff811161058f57601f01601f191660200190565b815f916001600160a01b036002541690836044604051809781968295630efd9c3b60e21b845260206004850152816024850152848401378181018301849052601f01601f191681010301925af19081156107b3575f91610689575b50606001516001600160a01b0316330361064457565b60405162461bcd60e51b815260206004820152600c60248201527f57726f6e672073656e64657200000000000000000000000000000000000000006044820152606490fd5b90503d805f833e61069a818361056d565b8101906020818303126100e85780519067ffffffffffffffff82116100e85701610100818303126100e85760405190610100820182811067ffffffffffffffff82111761058f57604052805160ff811681036100e85782526020810151602083015260408101516040830152610712606082016105a3565b6060830152610723608082016105a3565b608083015261073460a082016105a3565b60a083015260c081015160c083015260e08101519067ffffffffffffffff82116100e857019082601f830112156100e857815192610771846105b7565b9061077f604051928361056d565b848252602085850101116100e8575f6020856001600160a01b039682606097018386015e8301015260e0820152915061062e565b6040513d5f823e3d90fd5b90815f525f60205260405f206001600160a01b0382165f5260205260ff60405f205416156107ea575050565b6001600160a01b03166107fd602a6105b7565b9161080b604051938461056d565b602a8352610819602a6105b7565b602084019290601f1901368437835115610a095760308353835160011015610a09576078602185015360295b60018111610a1d5750610970579061085d60426105b7565b9061086b604051928361056d565b6042825261087960426105b7565b602083019390601f1901368537825115610a095760308453825160011015610a09576078602184015360415b600181116109b4575061097057601161093891603760449560405195869360208501997f416363657373436f6e74726f6c3a206163636f756e74200000000000000000008b525180918587015e8401907f206973206d697373696e6720726f6c652000000000000000000000000000000084830152518092604883015e01015f838201520301601f19810183528261056d565b60405192839162461bcd60e51b8352602060048401525180918160248501528484015e5f828201840152601f01601f19168101030190fd5b606460405162461bcd60e51b815260206004820152602060248201527f537472696e67733a20686578206c656e67746820696e73756666696369656e746044820152fd5b90600f81166010811015610a09576f181899199a1a9b1b9c1cb0b131b232b360811b901a6109e28386610ae0565b5360041c9080156109f5575f19016108a5565b634e487b7160e01b5f52601160045260245ffd5b634e487b7160e01b5f52603260045260245ffd5b90600f81166010811015610a09576f181899199a1a9b1b9c1cb0b131b232b360811b901a610a4b8387610ae0565b5360041c9080156109f5575f1901610845565b805f525f60205260405f206001600160a01b0383165f5260205260ff60405f205416610a88575050565b805f525f60205260405f206001600160a01b0383165f5260205260405f2060ff1981541690556001600160a01b03339216907ff6391f5c32d9c69d2a47ea670b442974b53935d1edc7fd64eb21e047a839171b5f80a4565b908151811015610a0957016020019056fea2646970667358221220b595987ae3e7a9087ba5861650d65ab4463d083906239d54ae37f33e2f3b81df64736f6c634300081a0033","linkReferences":{}},"methodIdentifiers":{"DEFAULT_ADMIN_ROLE()":"a217fddf","ISSUER()":"4339b421","authorizedMarketMakers(address)":"1d44e421","delist(address)":"6b2cc75c","delistMe(bytes)":"04495f7b","enlistMe(bytes)":"b9c8f279","getRoleAdmin(bytes32)":"248a9ca3","grantRole(bytes32,address)":"2f2ff15d","hasRole(bytes32,address)":"91d14854","isAuthorized(address)":"fe9fbb80","renounceRole(bytes32,address)":"36568abe","revokeRole(bytes32,address)":"d547741f","supportsInterface(bytes4)":"01ffc9a7"},"id":0}