{"abi":[{"type":"function","name":"FEE_GROWTH_GLOBAL0_OFFSET","inputs":[],"outputs":[{"name":"","type":"uint256","internalType":"uint256"}],"stateMutability":"view"},{"type":"function","name":"FEE_GROWTH_GLOBAL1_OFFSET","inputs":[],"outputs":[{"name":"","type":"uint256","internalType":"uint256"}],"stateMutability":"view"},{"type":"function","name":"LIQUIDITY_OFFSET","inputs":[],"outputs":[{"name":"","type":"uint256","internalType":"uint256"}],"stateMutability":"view"},{"type":"function","name":"POOLS_SLOT","inputs":[],"outputs":[{"name":"","type":"bytes32","internalType":"bytes32"}],"stateMutability":"view"},{"type":"function","name":"POSITIONS_OFFSET","inputs":[],"outputs":[{"name":"","type":"uint256","internalType":"uint256"}],"stateMutability":"view"},{"type":"function","name":"TICKS_OFFSET","inputs":[],"outputs":[{"name":"","type":"uint256","internalType":"uint256"}],"stateMutability":"view"},{"type":"function","name":"TICK_BITMAP_OFFSET","inputs":[],"outputs":[{"name":"","type":"uint256","internalType":"uint256"}],"stateMutability":"view"}],"bytecode":{"object":"0x6080806040523460195761013b908161001e823930815050f35b5f80fdfe6080806040526004361015610012575f80fd5b5f3560e01c9081632ba31c53146100f15750806357eb1da7146100db578063599751d8146100c5578063769323e3146100af5780637d35604a14610099578063b432004a146100835763ca24e3b514610069575f80fd5b5f36600319011261007f57602060405160018152f35b5f80fd5b5f36600319011261007f57602060405160038152f35b5f36600319011261007f57602060405160058152f35b5f36600319011261007f57602060405160048152f35b5f36600319011261007f57602060405160028152f35b5f36600319011261007f57602060405160068152f35b5f36600319011261007f5780600660209252f3fea2646970667358221220216e585e47b75803202ec7ed79e55955bbae7e1b4f824575195a8713ac5f4e8b64736f6c634300081a0033","linkReferences":{}},"methodIdentifiers":{"FEE_GROWTH_GLOBAL0_OFFSET()":"ca24e3b5","FEE_GROWTH_GLOBAL1_OFFSET()":"599751d8","LIQUIDITY_OFFSET()":"b432004a","POOLS_SLOT()":"57eb1da7","POSITIONS_OFFSET()":"2ba31c53","TICKS_OFFSET()":"769323e3","TICK_BITMAP_OFFSET()":"7d35604a"},"id":0}