{"abi":[{"type":"constructor","inputs":[{"name":"controllerGasLimit","type":"uint256","internalType":"uint256"}],"stateMutability":"nonpayable"},{"type":"function","name":"allowance","inputs":[{"name":"owner","type":"address","internalType":"address"},{"name":"spender","type":"address","internalType":"address"},{"name":"id","type":"uint256","internalType":"uint256"}],"outputs":[{"name":"amount","type":"uint256","internalType":"uint256"}],"stateMutability":"view"},{"type":"function","name":"approve","inputs":[{"name":"spender","type":"address","internalType":"address"},{"name":"id","type":"uint256","internalType":"uint256"},{"name":"amount","type":"uint256","internalType":"uint256"}],"outputs":[{"name":"","type":"bool","internalType":"bool"}],"stateMutability":"nonpayable"},{"type":"function","name":"balanceOf","inputs":[{"name":"owner","type":"address","internalType":"address"},{"name":"id","type":"uint256","internalType":"uint256"}],"outputs":[{"name":"balance","type":"uint256","internalType":"uint256"}],"stateMutability":"view"},{"type":"function","name":"burn","inputs":[{"name":"from","type":"address","internalType":"address"},{"name":"id","type":"uint256","internalType":"uint256"},{"name":"amount","type":"uint256","internalType":"uint256"}],"outputs":[],"stateMutability":"nonpayable"},{"type":"function","name":"clear","inputs":[{"name":"currency","type":"address","internalType":"Currency"},{"name":"amount","type":"uint256","internalType":"uint256"}],"outputs":[],"stateMutability":"nonpayable"},{"type":"function","name":"collectProtocolFees","inputs":[{"name":"recipient","type":"address","internalType":"address"},{"name":"currency","type":"address","internalType":"Currency"},{"name":"amount","type":"uint256","internalType":"uint256"}],"outputs":[{"name":"amountCollected","type":"uint256","internalType":"uint256"}],"stateMutability":"nonpayable"},{"type":"function","name":"donate","inputs":[{"name":"key","type":"tuple","internalType":"struct PoolKey","components":[{"name":"currency0","type":"address","internalType":"Currency"},{"name":"currency1","type":"address","internalType":"Currency"},{"name":"fee","type":"uint24","internalType":"uint24"},{"name":"tickSpacing","type":"int24","internalType":"int24"},{"name":"hooks","type":"address","internalType":"contract IHooks"}]},{"name":"amount0","type":"uint256","internalType":"uint256"},{"name":"amount1","type":"uint256","internalType":"uint256"},{"name":"hookData","type":"bytes","internalType":"bytes"}],"outputs":[{"name":"delta","type":"int256","internalType":"BalanceDelta"}],"stateMutability":"nonpayable"},{"type":"function","name":"extsload","inputs":[{"name":"slot","type":"bytes32","internalType":"bytes32"}],"outputs":[{"name":"","type":"bytes32","internalType":"bytes32"}],"stateMutability":"view"},{"type":"function","name":"extsload","inputs":[{"name":"startSlot","type":"bytes32","internalType":"bytes32"},{"name":"nSlots","type":"uint256","internalType":"uint256"}],"outputs":[{"name":"","type":"bytes32[]","internalType":"bytes32[]"}],"stateMutability":"view"},{"type":"function","name":"extsload","inputs":[{"name":"slots","type":"bytes32[]","internalType":"bytes32[]"}],"outputs":[{"name":"","type":"bytes32[]","internalType":"bytes32[]"}],"stateMutability":"view"},{"type":"function","name":"exttload","inputs":[{"name":"slots","type":"bytes32[]","internalType":"bytes32[]"}],"outputs":[{"name":"","type":"bytes32[]","internalType":"bytes32[]"}],"stateMutability":"view"},{"type":"function","name":"exttload","inputs":[{"name":"slot","type":"bytes32","internalType":"bytes32"}],"outputs":[{"name":"","type":"bytes32","internalType":"bytes32"}],"stateMutability":"view"},{"type":"function","name":"initialize","inputs":[{"name":"key","type":"tuple","internalType":"struct PoolKey","components":[{"name":"currency0","type":"address","internalType":"Currency"},{"name":"currency1","type":"address","internalType":"Currency"},{"name":"fee","type":"uint24","internalType":"uint24"},{"name":"tickSpacing","type":"int24","internalType":"int24"},{"name":"hooks","type":"address","internalType":"contract IHooks"}]},{"name":"sqrtPriceX96","type":"uint160","internalType":"uint160"},{"name":"hookData","type":"bytes","internalType":"bytes"}],"outputs":[{"name":"tick","type":"int24","internalType":"int24"}],"stateMutability":"nonpayable"},{"type":"function","name":"isOperator","inputs":[{"name":"owner","type":"address","internalType":"address"},{"name":"operator","type":"address","internalType":"address"}],"outputs":[{"name":"isOperator","type":"bool","internalType":"bool"}],"stateMutability":"view"},{"type":"function","name":"mint","inputs":[{"name":"to","type":"address","internalType":"address"},{"name":"id","type":"uint256","internalType":"uint256"},{"name":"amount","type":"uint256","internalType":"uint256"}],"outputs":[],"stateMutability":"nonpayable"},{"type":"function","name":"modifyLiquidity","inputs":[{"name":"key","type":"tuple","internalType":"struct PoolKey","components":[{"name":"currency0","type":"address","internalType":"Currency"},{"name":"currency1","type":"address","internalType":"Currency"},{"name":"fee","type":"uint24","internalType":"uint24"},{"name":"tickSpacing","type":"int24","internalType":"int24"},{"name":"hooks","type":"address","internalType":"contract IHooks"}]},{"name":"params","type":"tuple","internalType":"struct IPoolManager.ModifyLiquidityParams","components":[{"name":"tickLower","type":"int24","internalType":"int24"},{"name":"tickUpper","type":"int24","internalType":"int24"},{"name":"liquidityDelta","type":"int256","internalType":"int256"},{"name":"salt","type":"bytes32","internalType":"bytes32"}]},{"name":"hookData","type":"bytes","internalType":"bytes"}],"outputs":[{"name":"callerDelta","type":"int256","internalType":"BalanceDelta"},{"name":"feesAccrued","type":"int256","internalType":"BalanceDelta"}],"stateMutability":"nonpayable"},{"type":"function","name":"owner","inputs":[],"outputs":[{"name":"","type":"address","internalType":"address"}],"stateMutability":"view"},{"type":"function","name":"protocolFeeController","inputs":[],"outputs":[{"name":"","type":"address","internalType":"contract IProtocolFeeController"}],"stateMutability":"view"},{"type":"function","name":"protocolFeesAccrued","inputs":[{"name":"currency","type":"address","internalType":"Currency"}],"outputs":[{"name":"amount","type":"uint256","internalType":"uint256"}],"stateMutability":"view"},{"type":"function","name":"setOperator","inputs":[{"name":"operator","type":"address","internalType":"address"},{"name":"approved","type":"bool","internalType":"bool"}],"outputs":[{"name":"","type":"bool","internalType":"bool"}],"stateMutability":"nonpayable"},{"type":"function","name":"setProtocolFee","inputs":[{"name":"key","type":"tuple","internalType":"struct PoolKey","components":[{"name":"currency0","type":"address","internalType":"Currency"},{"name":"currency1","type":"address","internalType":"Currency"},{"name":"fee","type":"uint24","internalType":"uint24"},{"name":"tickSpacing","type":"int24","internalType":"int24"},{"name":"hooks","type":"address","internalType":"contract IHooks"}]},{"name":"newProtocolFee","type":"uint24","internalType":"uint24"}],"outputs":[],"stateMutability":"nonpayable"},{"type":"function","name":"setProtocolFeeController","inputs":[{"name":"controller","type":"address","internalType":"contract IProtocolFeeController"}],"outputs":[],"stateMutability":"nonpayable"},{"type":"function","name":"settle","inputs":[],"outputs":[{"name":"paid","type":"uint256","internalType":"uint256"}],"stateMutability":"payable"},{"type":"function","name":"settleFor","inputs":[{"name":"recipient","type":"address","internalType":"address"}],"outputs":[{"name":"paid","type":"uint256","internalType":"uint256"}],"stateMutability":"payable"},{"type":"function","name":"supportsInterface","inputs":[{"name":"interfaceId","type":"bytes4","internalType":"bytes4"}],"outputs":[{"name":"","type":"bool","internalType":"bool"}],"stateMutability":"view"},{"type":"function","name":"swap","inputs":[{"name":"key","type":"tuple","internalType":"struct PoolKey","components":[{"name":"currency0","type":"address","internalType":"Currency"},{"name":"currency1","type":"address","internalType":"Currency"},{"name":"fee","type":"uint24","internalType":"uint24"},{"name":"tickSpacing","type":"int24","internalType":"int24"},{"name":"hooks","type":"address","internalType":"contract IHooks"}]},{"name":"params","type":"tuple","internalType":"struct IPoolManager.SwapParams","components":[{"name":"zeroForOne","type":"bool","internalType":"bool"},{"name":"amountSpecified","type":"int256","internalType":"int256"},{"name":"sqrtPriceLimitX96","type":"uint160","internalType":"uint160"}]},{"name":"hookData","type":"bytes","internalType":"bytes"}],"outputs":[{"name":"swapDelta","type":"int256","internalType":"BalanceDelta"}],"stateMutability":"nonpayable"},{"type":"function","name":"sync","inputs":[{"name":"currency","type":"address","internalType":"Currency"}],"outputs":[],"stateMutability":"nonpayable"},{"type":"function","name":"take","inputs":[{"name":"currency","type":"address","internalType":"Currency"},{"name":"to","type":"address","internalType":"address"},{"name":"amount","type":"uint256","internalType":"uint256"}],"outputs":[],"stateMutability":"nonpayable"},{"type":"function","name":"transfer","inputs":[{"name":"receiver","type":"address","internalType":"address"},{"name":"id","type":"uint256","internalType":"uint256"},{"name":"amount","type":"uint256","internalType":"uint256"}],"outputs":[{"name":"","type":"bool","internalType":"bool"}],"stateMutability":"nonpayable"},{"type":"function","name":"transferFrom","inputs":[{"name":"sender","type":"address","internalType":"address"},{"name":"receiver","type":"address","internalType":"address"},{"name":"id","type":"uint256","internalType":"uint256"},{"name":"amount","type":"uint256","internalType":"uint256"}],"outputs":[{"name":"","type":"bool","internalType":"bool"}],"stateMutability":"nonpayable"},{"type":"function","name":"transferOwnership","inputs":[{"name":"newOwner","type":"address","internalType":"address"}],"outputs":[],"stateMutability":"nonpayable"},{"type":"function","name":"unlock","inputs":[{"name":"data","type":"bytes","internalType":"bytes"}],"outputs":[{"name":"result","type":"bytes","internalType":"bytes"}],"stateMutability":"nonpayable"},{"type":"function","name":"updateDynamicLPFee","inputs":[{"name":"key","type":"tuple","internalType":"struct PoolKey","components":[{"name":"currency0","type":"address","internalType":"Currency"},{"name":"currency1","type":"address","internalType":"Currency"},{"name":"fee","type":"uint24","internalType":"uint24"},{"name":"tickSpacing","type":"int24","internalType":"int24"},{"name":"hooks","type":"address","internalType":"contract IHooks"}]},{"name":"newDynamicLPFee","type":"uint24","internalType":"uint24"}],"outputs":[],"stateMutability":"nonpayable"},{"type":"event","name":"Approval","inputs":[{"name":"owner","type":"address","indexed":true,"internalType":"address"},{"name":"spender","type":"address","indexed":true,"internalType":"address"},{"name":"id","type":"uint256","indexed":true,"internalType":"uint256"},{"name":"amount","type":"uint256","indexed":false,"internalType":"uint256"}],"anonymous":false},{"type":"event","name":"Initialize","inputs":[{"name":"id","type":"bytes32","indexed":true,"internalType":"PoolId"},{"name":"currency0","type":"address","indexed":true,"internalType":"Currency"},{"name":"currency1","type":"address","indexed":true,"internalType":"Currency"},{"name":"fee","type":"uint24","indexed":false,"internalType":"uint24"},{"name":"tickSpacing","type":"int24","indexed":false,"internalType":"int24"},{"name":"hooks","type":"address","indexed":false,"internalType":"contract IHooks"},{"name":"sqrtPriceX96","type":"uint160","indexed":false,"internalType":"uint160"},{"name":"tick","type":"int24","indexed":false,"internalType":"int24"}],"anonymous":false},{"type":"event","name":"ModifyLiquidity","inputs":[{"name":"id","type":"bytes32","indexed":true,"internalType":"PoolId"},{"name":"sender","type":"address","indexed":true,"internalType":"address"},{"name":"tickLower","type":"int24","indexed":false,"internalType":"int24"},{"name":"tickUpper","type":"int24","indexed":false,"internalType":"int24"},{"name":"liquidityDelta","type":"int256","indexed":false,"internalType":"int256"},{"name":"salt","type":"bytes32","indexed":false,"internalType":"bytes32"}],"anonymous":false},{"type":"event","name":"OperatorSet","inputs":[{"name":"owner","type":"address","indexed":true,"internalType":"address"},{"name":"operator","type":"address","indexed":true,"internalType":"address"},{"name":"approved","type":"bool","indexed":false,"internalType":"bool"}],"anonymous":false},{"type":"event","name":"OwnershipTransferred","inputs":[{"name":"user","type":"address","indexed":true,"internalType":"address"},{"name":"newOwner","type":"address","indexed":true,"internalType":"address"}],"anonymous":false},{"type":"event","name":"ProtocolFeeControllerUpdated","inputs":[{"name":"protocolFeeController","type":"address","indexed":true,"internalType":"address"}],"anonymous":false},{"type":"event","name":"ProtocolFeeUpdated","inputs":[{"name":"id","type":"bytes32","indexed":true,"internalType":"PoolId"},{"name":"protocolFee","type":"uint24","indexed":false,"internalType":"uint24"}],"anonymous":false},{"type":"event","name":"Swap","inputs":[{"name":"id","type":"bytes32","indexed":true,"internalType":"PoolId"},{"name":"sender","type":"address","indexed":true,"internalType":"address"},{"name":"amount0","type":"int128","indexed":false,"internalType":"int128"},{"name":"amount1","type":"int128","indexed":false,"internalType":"int128"},{"name":"sqrtPriceX96","type":"uint160","indexed":false,"internalType":"uint160"},{"name":"liquidity","type":"uint128","indexed":false,"internalType":"uint128"},{"name":"tick","type":"int24","indexed":false,"internalType":"int24"},{"name":"fee","type":"uint24","indexed":false,"internalType":"uint24"}],"anonymous":false},{"type":"event","name":"Transfer","inputs":[{"name":"caller","type":"address","indexed":false,"internalType":"address"},{"name":"from","type":"address","indexed":true,"internalType":"address"},{"name":"to","type":"address","indexed":true,"internalType":"address"},{"name":"id","type":"uint256","indexed":true,"internalType":"uint256"},{"name":"amount","type":"uint256","indexed":false,"internalType":"uint256"}],"anonymous":false},{"type":"error","name":"AlreadyUnlocked","inputs":[]},{"type":"error","name":"CurrenciesOutOfOrderOrEqual","inputs":[{"name":"currency0","type":"address","internalType":"address"},{"name":"currency1","type":"address","internalType":"address"}]},{"type":"error","name":"CurrencyNotSettled","inputs":[]},{"type":"error","name":"DelegateCallNotAllowed","inputs":[]},{"type":"error","name":"InvalidCaller","inputs":[]},{"type":"error","name":"ManagerLocked","inputs":[]},{"type":"error","name":"MustClearExactPositiveDelta","inputs":[]},{"type":"error","name":"NonzeroNativeValue","inputs":[]},{"type":"error","name":"PoolNotInitialized","inputs":[]},{"type":"error","name":"ProtocolFeeCannotBeFetched","inputs":[]},{"type":"error","name":"ProtocolFeeTooLarge","inputs":[{"name":"fee","type":"uint24","internalType":"uint24"}]},{"type":"error","name":"SwapAmountCannotBeZero","inputs":[]},{"type":"error","name":"TickSpacingTooLarge","inputs":[{"name":"tickSpacing","type":"int24","internalType":"int24"}]},{"type":"error","name":"TickSpacingTooSmall","inputs":[{"name":"tickSpacing","type":"int24","internalType":"int24"}]},{"type":"error","name":"UnauthorizedDynamicLPFeeUpdate","inputs":[]}],"bytecode":{"object":"0x60c034609d57601f6148ae38819003918201601f19168301916001600160401b0383118484101760a157808492602094604052833981010312609d57515f80546001600160a01b03191633908117825560405192917f8be0079c531659141344cd1fd0a4f28419497f9722a3daafe3b4186f6b6457e08180a36080523060a0526147f890816100b6823960805181610dcf015260a0518161271c0152f35b5f80fd5b634e487b7160e01b5f52604160045260245ffdfe60a0806040526004361015610012575f80fd5b5f3560e01c908162fdd58e1461211c5750806301ffc9a7146120c6578063095bcdb6146120295780630b0d9c0914611fce57806311da60b414611fa4578063156e29f614611f145780631e2eaeaf14611ef8578063234266d714611d295780632d77138914611caa57806335fd631a14611c545780633dd45adb14611c21578063426a849314611baa57806348c89491146119fd5780635275965114611940578063558a7297146118b2578063598af9e7146118525780635a6bcfda14610fd1578063695c5bf514610b175780637e87ce7d14610a3257806380f0b44c146109905780638161b874146108f65780638da5cb5b146108d157806397e8cd4e146108995780639bf6645f1461084c578063a584119414610829578063b6363cf2146107d0578063dbd035ff1461077a578063f02de3b214610754578063f135baaa14610738578063f2fde38b146106c2578063f3cd914c14610436578063f5298aca146102ea5763fe99049a14610186575f80fd5b346102e65760803660031901126102e65761019f61215b565b6101a7612171565b90604435917f1b3d7edb2e9c0b0e7c525b20aaaef0f5940d2ed71663c7d39266ecafac72885961024e6001600160a01b038060643595169384331415806102c3575b61025c575b845f52600460205260405f20875f5260205260405f2061020f878254612342565b90551693845f52600460205260405f20865f5260205260405f2061023482825461234f565b905560408051338152602081019290925290918291820190565b0390a4602060405160018152f35b845f52600560205260405f208233165f5260205260405f20875f5260205260405f2054865f198203610290575b50506101ee565b61029991612342565b855f52600560205260405f208333165f5260205260405f20885f5260205260405f20555f86610289565b50845f52600360205260405f208233165f5260205260ff60405f205416156101e9565b5f80fd5b346102e6576102f836612187565b5f805160206147a38339815191525c15610427577f1b3d7edb2e9c0b0e7c525b20aaaef0f5940d2ed71663c7d39266ecafac7288596103836001600160a01b03805f9516956103516103498661246b565b339089612498565b169233841415806103fd575b610388575b83855260046020526040852086865260205260408520610234828254612342565b0390a4005b8385526005602052604085206001600160a01b033316865260205260408520868652602052604085205481861982036103c3575b5050610362565b6103cc91612342565b8486526005602052604086206001600160a01b033316875260205260408620878752602052604086205586816103bc565b508385526003602052604085206001600160a01b033316865260205260ff6040862054161561035d565b6354e3ca0d60e01b5f5260045ffd5b346102e6576101203660031901126102e65761045136612239565b60603660a31901126102e657604051906060820182811067ffffffffffffffff8211176106ae5760405260a43580151581036102e6578252602082019060c435825260e435906001600160a01b03821682036102e657604084019182526101043567ffffffffffffffff81116102e6576104cf9036906004016122c0565b9290935f805160206147a38339815191525c15610427576104ee612712565b511561069f5760a0822092835f52600660205260405f209061050f82612753565b60808401958482828a8a516001600160a01b03169361052d94612be5565b90949195606088015160020b968b51151591516001600160a01b031691604051986105578a6121e9565b895260208901526040880152606087015262ffffff166080860152885115155f149862ffffff610648986105a06106359860209d61068c576001600160a01b038b5116956139a2565b94929682919261066c575b50506001600160a01b036040850151169360606001600160801b0360a08301511691015160020b90604051958860801d600f0b875288600f0b60208801526040870152606086015260808501521660a08301527f40e9cecb9f5f1f1c5b9c97dec2917b7ee92e57ba5563708daca94dd84ad7112f60c03393a3866001600160a01b038a5116612da1565b80949194610650575b50508233916127ef565b604051908152f35b6001600160a01b0361066592511690836127ef565b848061063e565b6001600160a01b03165f5260018f5260405f209081540190558e806105ab565b6001600160a01b038e8c015116956139a2565b63be8b850760e01b5f5260045ffd5b634e487b7160e01b5f52604160045260245ffd5b346102e65760203660031901126102e65773ffffffffffffffffffffffffffffffffffffffff196106f161215b565b6001600160a01b035f5491610709828416331461235c565b1691829116175f55337f8be0079c531659141344cd1fd0a4f28419497f9722a3daafe3b4186f6b6457e05f80a3005b346102e65760203660031901126102e6576004355c5f5260205ff35b346102e6575f3660031901126102e65760206001600160a01b0360025416604051908152f35b346102e657610788366122ee565b6040519160408360208152836020820152019160051b8301916020806040850193925b83355481520191019084838210156107c75750602080916107ab565b60408186030190f35b346102e65760403660031901126102e6576107e961215b565b6001600160a01b036107f9612171565b91165f5260036020526001600160a01b0360405f2091165f52602052602060ff60405f2054166040519015158152f35b346102e65760203660031901126102e65761084a61084561215b565b6123c8565b005b346102e65761085a366122ee565b6040519160408360208152836020820152019160051b8301916020806040850193925b83355c81520191019084838210156107c757506020809161087d565b346102e65760203660031901126102e6576001600160a01b036108ba61215b565b165f526001602052602060405f2054604051908152f35b346102e6575f3660031901126102e65760206001600160a01b035f5416604051908152f35b346102e65760603660031901126102e65761090f61215b565b610917612171565b906044356001600160a01b0360025416330361098157602092610648918061097957506001600160a01b0381165f526001845260405f20549283915b6001600160a01b0381165f526001865260405f20610972848254612342565b9055612574565b928391610953565b6348f5c3ed60e01b5f5260045ffd5b346102e65760403660031901126102e6576109a961215b565b5f805160206147a38339815191525c1561042757335f9081526001600160a01b038216602052604090205c6109df60243561246b565b600f0b908103610a23576f7fffffffffffffffffffffffffffffff198114610a0f5761084a9133915f0390612498565b634e487b7160e01b5f52601160045260245ffd5b63bda73abf60e01b5f5260045ffd5b346102e65760c03660031901126102e657610a4c36612239565b610a54612227565b906001600160a01b03600254163303610981576103e9610fff831610623e900062fff0008416101615610aff57602060a07fe9c42593e71f84403b84352cd168d693e2c9fcd1fdbcc3feb21d92b43e6696f9922092835f526006825260405f20610abd81612753565b805462ffffff60b81b8360b81b16907fffffffffffff000000ffffffffffffffffffffffffffffffffffffffffffffff1617905562ffffff60405191168152a2005b62ffffff8263a7abe2f760e01b5f521660045260245ffd5b346102e65760e03660031901126102e657610b3136612239565b60a435906001600160a01b0382168083036102e65760c43567ffffffffffffffff81116102e657610b669036906004016122c0565b90610b6f612712565b6060840193845160020b617fff8113610fbf5750845160020b60018112610fad57506001600160a01b038151169260208201936001600160a01b038551169081811015610f98575050608082016001600160a01b03815116956040840196610bdd62ffffff89511682612a8b565b15610f865750610bf262ffffff885116612b3c565b9180516001600160a01b03811690813303610ee9575b505060a08520955f6001600160a01b036002541680610dca575b50875f52600660205260405f209081546001600160a01b0316610dbb576001600160a01b037fdd466e674ea557f56295e2d0218a125ea4b4f0f6f3307b95f85e6110838d64389860a09860209f98839662ffffff968596610c8962ffffff60d01b9d6136b8565b9c8d9460d01b169062ffffff60b81b8f62ffffff60a01b8f9188901b16179160b81b16171790558851908a86831692833303610cfe575b5050505050505116995116995116995160020b91511690604051998a528a8a01526040890152606088015260020b95866080820152a4604051908152f35b61100016610d0d575b81610cc0565b610d9d610dab92610db09660405196879463a910f80f60e01b6020870152336024870152610d7b604487018c6001600160a01b036080809282815116855282602082015116602086015262ffffff6040820151166040860152606081015160020b6060860152015116910152565b60e486015260020b6101048501526101206101248501526101448401916123a8565b03601f198101845283612205565b612f00565b508f8881808a610d07565b637983c05160e01b5f5260045ffd5b90505a7f0000000000000000000000000000000000000000000000000000000000000000809110610eda575f80916040519382602086019163553bfc3760e01b8352610e578d60248901906001600160a01b036080809282815116855282602082015116602086015262ffffff6040820151166040860152606081015160020b6060860152015116910152565b60a48752610e6660c488612205565b81965193f160203d141680610ec7575b80610eb9575b80610e9e575b15610e965762ffffff600191165b90610c22565b505f80610e90565b506103e9610fff821610623e900062fff00083161016610e82565b5062ffffff81168114610e7c565b60405191503d5f833e5f82519252610e76565b630f724b8160e11b5f5260045ffd5b61200016610ef8575b80610c08565b610f7f90604051906301a206c160e51b6020830152336024830152610f5d60448301896001600160a01b036080809282815116855282602082015116602086015262ffffff6040820151166040860152606081015160020b6060860152015116910152565b8460e4830152610100610104830152610dab82610d9d61012482018a8d6123a8565b508a610ef2565b630732d7b560e51b5f5260045260245ffd5b6306e6c98360e41b5f5260045260245260445ffd5b631d3d20b160e31b5f5260045260245ffd5b6316e0049f60e31b5f5260045260245ffd5b346102e6576101403660031901126102e657610fec36612239565b60803660a31901126102e65760405190611005826121b1565b60a4358060020b81036102e657825260c4358060020b81036102e657602083015260e43560408301526101043560608301526101243567ffffffffffffffff81116102e6576110589036906004016122c0565b92905f805160206147a38339815191525c1561042757611076612712565b60a0832093845f52600660205260405f209061109182612753565b60808501516001600160a01b038116908133036117ab575b5050835160020b92602085015160020b966110c760408701516128e2565b95606088015160020b9860608201516040519a6110e38c6121cd565b338c528860208d01528260408d015289600f0b60608d015260808c015260a08b01525f908088121561178d57620d89e719881261177a57620d89e8811361176857604051986111318a6121b1565b5f8a525f60208b01525f60408b01525f60608b015280600f0b61154b575b60048801988060020b5f528960205260405f20998360020b5f5260205260405f20895460a01c60020b8281125f146114f9575060028060018d0154600184015490039c015491015490039c5b60a06001600160a01b038251169101519060405191602683015284600683015282600383015281525f603a600c83012091816040820152816020820152525f526006890160205260405f20986001600160801b038a54169a83600f0b155f146114bd578b156114ae5761124860409f6113079c611242916113199f5b600183019561123a600261122e848a548503613044565b95019283548503613044565b96555561246b565b9161246b565b6001600160801b03169060801b179b5f84600f0b12611444575b5082600f0b611344575b505050506112936112848960801d8360801d016128e2565b9189600f0b90600f0b016128e2565b6001600160801b03169060801b1791815160020b90602083015160020b8b8401516060850151918d5194855260208501528c84015260608301527ff208f4912782fd25c7f114ca3723a2d5dd6f3bcc3ac8db5af63baa85f711d5ec60803393a3876001600160a01b03608082015116612997565b80949194611325575b508333916127ef565b82519182526020820152f35b61133e906001600160a01b0360808401511690836127ef565b85611310565b809192939450548060a01c60020b906001600160a01b0316908381125f1461139f575050509161138d9161138761137d6113929561328f565b91600f0b9261328f565b90613607565b6128e2565b60801b5b8a80808061126c565b948091939295125f14611419576001600160801b03926113ee61138d611404946113db61138d6003966113d58b600f0b9161328f565b87613607565b936113e989600f0b9261328f565b6135bc565b84169060801b17940192600f0b8284541661363c565b166001600160801b0319825416179055611396565b915061143693509161143061137d61138d9461328f565b906135bc565b6001600160801b0316611396565b808f9151611484575b015161145a575b8e611262565b61147f848260049160020b5f52016020525f6002604082208281558260018201550155565b611454565b6114a9848460049160020b5f52016020525f6002604082208281558260018201550155565b61144d565b632bbfae4960e21b5f5260045ffd5b61124860409f6113079c611242916113199f6001600160801b036114e48a600f0b8361363c565b166001600160801b0319845416178355611217565b909a90841361151f5760028060018d0154600184015490039c015491015490039c61119b565b99600260018b015460018d01549003600183015490039b81808d0154910154900391015490039c61119b565b8860020b5f5260048801602052886001600160801b0360405f2080549061159c838316928d61157d88600f0b8661363c565b9415968787871615141597611739575b505086600f0b9060801d612d69565b60801b8383161790551660208c01528a528160020b5f526004880160205260405f208054906001600160801b0382166115d884600f0b8261363c565b901592836001600160801b03831615141593611712575b84600f0b9060801d600f0b03916f7fffffffffffffffffffffffffffffff83136f7fffffffffffffffffffffffffffffff19841217610a0f57826001600160801b03935060801b8383161790551660608c015260408b0152898c5f83600f0b121561169a575b5051611680575b60408a01511561114f5761167b60808d015160020b8360058b01613243565b61114f565b61169560808d015160020b8a60058b01613243565b61165c565b60016001600160801b03602060808294015160020b94015116928080620d89e71905028180620d89e805020305018104168091116116ff576001600160801b0360608c015116116116ec57898c611655565b5063b8e3c38560e01b5f5260045260245ffd5b8963b8e3c38560e01b5f5260045260245ffd5b8b5460a01c60020b86136115ef5760018c0154600184015560028c015460028401556115ef565b815460a01c60020b121561174e575b8f61158d565b80600160029201546001860155015460028401558d611748565b63035aeeff60e31b5f5260045260245ffd5b8763d5e2f7ab60e01b5f5260045260245ffd5b876044916040519163c4433ed560e01b835260048301526024820152fd5b5f604087015113808091611845575b156117f357505060405163259982e560e01b60208201526117ea91610dab82610d9d86898b8d3360248701612842565b505b86806110a9565b159081611837575b50611807575b506117ec565b60405163021d0ee760e41b602082015261183091610dab82610d9d86898b8d3360248701612842565b5086611801565b6102009150161515886117fb565b50610800821615156117ba565b346102e65760603660031901126102e65761186b61215b565b6001600160a01b0361187b612171565b91165f5260056020526001600160a01b0360405f2091165f5260205260405f206044355f52602052602060405f2054604051908152f35b346102e65760403660031901126102e6576118cb61215b565b602435908115158092036102e6576001600160a01b0390335f52600360205260405f208282165f5260205260405f2060ff1981541660ff851617905560405192835216907fceb576d9f15e4e200fdb5096d64d5dfd667e16def20c1eefd14256d8e3faa26760203392a3602060405160018152f35b346102e65760c03660031901126102e65761195a36612239565b611962612227565b906280000062ffffff604083015116148015906119e6575b6119d75760a09061198a8361281e565b205f52600660205260405f20906119a082612753565b81547fffffff000000ffffffffffffffffffffffffffffffffffffffffffffffffffff1660d09190911b62ffffff60d01b16179055005b6330d2164160e01b5f5260045ffd5b506001600160a01b0360808201511633141561197a565b346102e65760203660031901126102e65760043567ffffffffffffffff81116102e657611a2e9036906004016122c0565b5f805160206147a38339815191525c611b9b57611a7b915f9160015f805160206147a38339815191525d6040516348eeb9a360e11b815260206004820152938492839260248401916123a8565b038183335af1908115611b90575f91611b06575b507f7d4b3164c6e45b97e7d87b7125a44c5828d005af88f9d751cfd78729c5d99a0b5c611af75760406020915f5f805160206147a38339815191525d815192839181835280519182918282860152018484015e5f828201840152601f01601f19168101030190f35b635212cba160e01b5f5260045ffd5b90503d805f833e611b178183612205565b8101906020818303126102e65780519067ffffffffffffffff82116102e6570181601f820112156102e65780519067ffffffffffffffff82116106ae5760405192611b6c601f8401601f191660200185612205565b828452602083830101116102e657815f9260208093018386015e8301015281611a8f565b6040513d5f823e3d90fd5b6328486b6360e11b5f5260045ffd5b346102e6576001600160a01b03611bc036612187565b91929092335f52600560205260405f208282165f5260205260405f20845f526020528260405f205560405192835216907fb3fd5071835887567a0671151121894ddccc2842f1d10bedad13e0d17cace9a760203392a4602060405160018152f35b60203660031901126102e657611c3561215b565b5f805160206147a38339815191525c1561042757610648602091612656565b346102e65760403660031901126102e6576024356004356040519160408360208152826020820152019060051b8301916001602060408501935b835481520191019084838210156107c757506020600191611c8e565b346102e65760203660031901126102e6576004356001600160a01b0381168091036102e657611ce46001600160a01b035f5416331461235c565b8073ffffffffffffffffffffffffffffffffffffffff1960025416176002557fb4bd8ef53df690b9943d3318996006dbb82a25f54719d8c8035b516a2a5b8acc5f80a2005b346102e6576101003660031901126102e657611d4436612239565b60c4359060a43560e43567ffffffffffffffff81116102e657611d6b9036906004016122c0565b9190935f805160206147a38339815191525c1561042757611d8a612712565b60a084205f52600660205260405f2094611da386612753565b608085019485516001600160a01b03811690813303611eb9575b50506001600160801b03600388015416958615611eaa57602097611de08661246b565b5f03611deb8661246b565b5f036001600160801b03169060801b179786611e91575b85611e76575b5050611e153388846127ef565b51926001600160a01b03841693843303611e34575b8888604051908152f35b601016611e42575b80611e2a565b611e6a95610dab93610d9d9260405197889563e1b4af6960e01b8d8801523360248801612773565b50828080808080611e3c565b611e8260029187612fbc565b91019081540190558880611e08565b611e9b8188612fbc565b60018301908154019055611e02565b63a74f97ab60e01b5f5260045ffd5b602016611ec7575b80611dbd565b604051635b54587d60e11b6020820152611ef191610dab82610d9d8a888a8c8a3360248801612773565b5087611ec1565b346102e65760203660031901126102e657600435545f5260205ff35b346102e657611f2236612187565b905f805160206147a38339815191525c15610427577f1b3d7edb2e9c0b0e7c525b20aaaef0f5940d2ed71663c7d39266ecafac7288596103836001600160a01b03805f941695611f81611f748761246b565b8603600f0b339089612498565b16938484526004602052604084208685526020526040842061023482825461234f565b5f3660031901126102e6575f805160206147a38339815191525c1561042757602061064833612656565b346102e65760603660031901126102e657611fe761215b565b611fef612171565b604435905f805160206147a38339815191525c156104275761084a926120246120178461246b565b5f03600f0b339083612498565b612574565b346102e6576001600160a01b0361203f36612187565b91929092335f52600460205260405f20845f5260205260405f20612064848254612342565b90551690815f52600460205260405f20835f5260205260405f2061208982825461234f565b9055604080513380825260208201939093527f1b3d7edb2e9c0b0e7c525b20aaaef0f5940d2ed71663c7d39266ecafac728859918190810161024e565b346102e65760203660031901126102e65760043563ffffffff60e01b81168091036102e6576020906301ffc9a760e01b811490811561210b575b506040519015158152f35b630f632fb360e01b14905082612100565b346102e65760403660031901126102e6576020906001600160a01b0361214061215b565b165f526004825260405f206024355f52825260405f20548152f35b600435906001600160a01b03821682036102e657565b602435906001600160a01b03821682036102e657565b60609060031901126102e6576004356001600160a01b03811681036102e657906024359060443590565b6080810190811067ffffffffffffffff8211176106ae57604052565b60c0810190811067ffffffffffffffff8211176106ae57604052565b60a0810190811067ffffffffffffffff8211176106ae57604052565b90601f8019910116810190811067ffffffffffffffff8211176106ae57604052565b60a4359062ffffff821682036102e657565b60a09060031901126102e65760405190612252826121e9565b816004356001600160a01b03811681036102e65781526024356001600160a01b03811681036102e657602082015260443562ffffff811681036102e65760408201526064358060020b81036102e6576060820152608435906001600160a01b03821682036102e65760800152565b9181601f840112156102e65782359167ffffffffffffffff83116102e657602083818601950101116102e657565b9060206003198301126102e65760043567ffffffffffffffff81116102e657826023820112156102e65780600401359267ffffffffffffffff84116102e65760248460051b830101116102e6576024019190565b91908203918211610a0f57565b91908201809211610a0f57565b1561236357565b60405162461bcd60e51b815260206004820152600c60248201527f554e415554484f52495a454400000000000000000000000000000000000000006044820152606490fd5b908060209392818452848401375f828201840152601f01601f1916010190565b6001600160a01b037f27e098c505d44ec3574004bca052aabf76bd35004c182099d8c575fb238593b95c1661245c576001600160a01b0381169081156124585761241190612b59565b907f27e098c505d44ec3574004bca052aabf76bd35004c182099d8c575fb238593b95d7f1e0745a7db1623981f0b2a5d4232364c00787266eb75ad546f190e6cebe9bd955d565b5050565b63996caf6560e01b5f5260045ffd5b6f8000000000000000000000000000000081101561248957600f0b90565b6393dafdf160e01b5f5260045ffd5b9190600f0b91821561256f576124c191906001600160a01b038092165f521660205260405f2090565b6124cd815c9283612bca565b80915d61251f57505f197f7d4b3164c6e45b97e7d87b7125a44c5828d005af88f9d751cfd78729c5d99a0b5c017f7d4b3164c6e45b97e7d87b7125a44c5828d005af88f9d751cfd78729c5d99a0b5d5b565b1561252657565b60017f7d4b3164c6e45b97e7d87b7125a44c5828d005af88f9d751cfd78729c5d99a0b5c017f7d4b3164c6e45b97e7d87b7125a44c5828d005af88f9d751cfd78729c5d99a0b5d565b505050565b9091906001600160a01b03811690816125ce5750505f80808093855af1156125995750565b3d60405191638549db5960e01b8352600483015260406024830152806044830152805f606484013e601f801991011660640190fd5b60205f6044819496826040956001600160a01b03988751998a9463a9059cbb60e01b865216600485015260248401525af13d15601f3d116001855114161716928281528260208201520152156126215750565b3d60405191632c4b17e760e21b8352600483015260406024830152806044830152805f606484013e601f801991011660640190fd5b7f27e098c505d44ec3574004bca052aabf76bd35004c182099d8c575fb238593b95c91906001600160a01b03831661269e5761251d9034935b6126988561246b565b90612498565b346127035761251d906126da7f1e0745a7db1623981f0b2a5d4232364c00787266eb75ad546f190e6cebe9bd955c6126d586612b59565b612342565b935f7f27e098c505d44ec3574004bca052aabf76bd35004c182099d8c575fb238593b95d61268f565b635876424f60e11b5f5260045ffd5b6001600160a01b037f000000000000000000000000000000000000000000000000000000000000000016300361274457565b6306c4a1c760e11b5f5260045ffd5b546001600160a01b03161561276457565b63486aa30760e01b5f5260045ffd5b91926127d4610120946001600160a01b036127ec99979416855260208501906001600160a01b036080809282815116855282602082015116602086015262ffffff6040820151166040860152606081015160020b6060860152015116910152565b60c083015260e08201528161010082015201916123a8565b90565b906001600160a01b03602061251d949361281185848351168660801d90612498565b01511690600f0b90612498565b62ffffff16620f424081116128305750565b631400211360e01b5f5260045260245ffd5b906127ec95936128a5610160946001600160a01b036128d49416855260208501906001600160a01b036080809282815116855282602082015116602086015262ffffff6040820151166040860152606081015160020b6060860152015116910152565b8051600290810b60c08501526020820151900b60e0840152604081015161010084015260600151610120830152565b8161014082015201916123a8565b9081600f0b91820361248957565b9161018093612954612983926001600160a01b036127ec9a989516865260208601906001600160a01b036080809282815116855282602082015116602086015262ffffff6040820151166040860152606081015160020b6060860152015116910152565b8051600290810b60c08601526020820151900b60e0850152604081015161010085015260600151610120840152565b6101408201528161016082015201916123a8565b929593945f956001600160a01b0385163314612a8157875f6040860151135f14612a2c5761040086166129cd575b505050505050565b612a2096989750612a0d92612a19969594926129ff92604051968795625a2a8160e81b602088015233602488016128f0565b03601f198101835282612205565b60028216151591613664565b8092613684565b915f80808080806129c5565b94939291906101008516612a4257505050505050565b612a20969850859750612a7592916129ff91612a19976040519687956346d95b2960e11b602088015233602488016128f0565b60018216151591613664565b505f955050505050565b608081161580612b30575b612b0657604081161580612b24575b612b065761040081161580612b18575b612b065761010081161580612b0c575b612b06576001600160a01b038116612ae6575062ffffff1662800000141590565b613fff161590811591612af7575090565b62800000915062ffffff161490565b50505f90565b50600181161515612ac5565b50600281161515612ab5565b50600481161515612aa5565b50600881161515612a96565b6280000062ffffff821614612b54576127ec8161281e565b505f90565b6001600160a01b031680612b6c57504790565b6020602491604051928380926370a0823160e01b82523060048301525afa908115611b90575f91612b9b575090565b90506020813d602011612bc2575b81612bb660209383612205565b810103126102e6575190565b3d9150612ba9565b9190915f8382019384129112908015821691151617610a0f57565b6020830151955f958695919491336001600160a01b03851614612d5c5760808416612c12575b5050505050565b612cc7926129ff612cc192612cad946040519586946315d7892d60e21b6020870152336024870152612c84604487018c6001600160a01b036080809282815116855282602082015116602086015262ffffff6040820151166040860152606081015160020b6060860152015116910152565b8051151560e48701526020810151610104870152604001516001600160a01b0316610124860152565b6101406101448501526101648401916123a8565b82612f00565b916060835103612d4d576040015162ffffff166280000014612d41575b600816612cf5575b80808080612c0b565b604001519250608083901d600f0b8015612cec57612d16905f861295612bca565b9315612d39575f84135b612d2a575f612cec565b637d05b8eb60e11b5f5260045ffd5b5f8412612d20565b60608201519350612ce4565b631e048e1d60e01b5f5260045ffd5b505f965086955050505050565b90600f0b90600f0b01906f7fffffffffffffffffffffffffffffff1982126f7fffffffffffffffffffffffffffffff831317610a0f57565b919695939492946001600160a01b0383163314612ef3578460801d94600f0b938860408516612e41575b50505050505f9481600f0b15801590612e35575b612deb575b5050509190565b612e199395505f60208201511290511515145f14612e21576001600160801b03169060801b175b8093613684565b5f8080612de4565b906001600160801b03169060801b17612e12565b5082600f0b1515612ddf565b612ed7612ee3946129ff61138d95612ee9999895612ebc612c849660405197889663b47b2fb160e01b602089015233602489015260448801906001600160a01b036080809282815116855282602082015116602086015262ffffff6040820151166040860152606081015160020b6060860152015116910152565b8c6101448501526101606101648501526101848401916123a8565b60048216151591613664565b90612d69565b5f80808088612dcb565b5050505050909150905f90565b9190915f80602085519501948582855af115612f7e575060405191601f19603f3d011683016040523d83523d9060208401915f833e6020845110918215612f4a575b5050612d4d57565b5190517fffffffff000000000000000000000000000000000000000000000000000000009182169116141590505f80612f42565b3d6001600160a01b036040519263319d54c360e01b845216600483015260406024830152806044830152805f606484013e601f801991011660640190fd5b908160801b905f19600160801b8409928280851094039380850394858411156102e6571461303d57600160801b82910981805f03168092046002816003021880820260020302808202600203028082026002030280820260020302808202600203028091026002030293600183805f03040190848311900302920304170290565b5091500490565b81810291905f1982820991838084109303928084039384600160801b11156102e6571461308457600160801b910990828211900360801b910360801c1790565b50505060801c90565b808202905f1983820990828083109203918083039283620f424011156102e657146130ed577fde8f6cefed634549b62c77574f722e1ac57e23f24d8fd5cb790fb65668c2613993620f4240910990828211900360fa1b910360061c170290565b5050620f424091500490565b81810291905f1982820991838084109303928084039384600160601b11156102e6571461313957600160601b910990828211900360a01b910360601c1790565b50505060601c90565b908160601b905f19600160601b8409928280851094039380850394858411156102e6571461303d57600160601b82910981805f03168092046002816003021880820260020302808202600203028082026002030280820260020302808202600203028091026002030293600183805f03040190848311900302920304170290565b91818302915f19818509938380861095039480860395868511156102e6571461323b579082910981805f03168092046002816003021880820260020302808202600203028082026002030280820260020302808202600203028091026002030293600183805f03040190848311900302920304170290565b505091500490565b919060020b9060020b908181076132715705908160081d5f52602052600160ff60405f2092161b8154189055565b601c906044926040519163d4d8f3e683526020830152604082015201fd5b60020b908160ff1d82810118620d89e881116135a95763ffffffff9192600182167001fffcb933bd6fad37aa2d162d1a59400102600160801b18916002811661358d575b60048116613571575b60088116613555575b60108116613539575b6020811661351d575b60408116613501575b608081166134e5575b61010081166134c9575b61020081166134ad575b6104008116613491575b6108008116613475575b6110008116613459575b612000811661343d575b6140008116613421575b6180008116613405575b6201000081166133e9575b6202000081166133ce575b6204000081166133b3575b620800001661339a575b5f12613392575b0160201c90565b5f190461338b565b6b048a170391f7dc42444e8fa290910260801c90613384565b6d2216e584f5fa1ea926041bedfe9890920260801c9161337a565b916e5d6af8dedb81196699c329225ee6040260801c9161336f565b916f09aa508b5b7a84e1c677de54f3e99bc90260801c91613364565b916f31be135f97d08fd981231505542fcfa60260801c91613359565b916f70d869a156d2a1b890bb3df62baf32f70260801c9161334f565b916fa9f746462d870fdf8a65dc1f90e061e50260801c91613345565b916fd097f3bdfd2022b8845ad8f792aa58250260801c9161333b565b916fe7159475a2c29b7443b29c7fa6e889d90260801c91613331565b916ff3392b0822b70005940c7a398e4b70f30260801c91613327565b916ff987a7253ac413176f2b074cf7815e540260801c9161331d565b916ffcbe86c7900a88aedcffc83b479aa3a40260801c91613313565b916ffe5dee046a99a2a811c461f1969c30530260801c91613309565b916fff2ea16466c96a3843ec78b326b528610260801c91613300565b916fff973b41fa98c081472e6896dfb254c00260801c916132f7565b916fffcb9843d60f6159c9db58835c9266440260801c916132ee565b916fffe5caca7e10e4e61c3624eaa0941cd00260801c916132e5565b916ffff2e50f5f656932ef12357cf3c7fdcc0260801c916132dc565b916ffff97272373d413259a46990580e213a0260801c916132d3565b826345c3193d60e11b5f5260045260245ffd5b905f83600f0b125f146135e8576135de925f036001600160801b031691614579565b5f81126124895790565b6135fb926001600160801b03169161453d565b5f8112612489575f0390565b905f83600f0b125f14613629576135de925f036001600160801b03169161461d565b6135fb926001600160801b0316916145a3565b906001600160801b0390600f0b911601908160801c61365757565b6393dafdf15f526004601cfd5b9061366e91612f00565b9015612b54576040815103612d4d576040015190565b6136a7906136998360801d8260801d036128e2565b92600f0b90600f0b036128e2565b6001600160801b03169060801b1790565b73fffd8963efd1fc6a506488495d951d51639616826401000276a21982016001600160a01b0316116139685777ffffffffffffffffffffffffffffffffffffffff000000008160201b16806001600160801b03811160071b90811c67ffffffffffffffff811160061b90811c63ffffffff811160051b90811c61ffff811160041b90811c9060ff821160031b91821c92600f841160021b93841c94600160038711811b96871c1196171717171717179060808210155f1461395e57607e1982011c5b800280607f1c8160ff1c1c800280607f1c8160ff1c1c800280607f1c8160ff1c1c800280607f1c8160ff1c1c800280607f1c8160ff1c1c800280607f1c8160ff1c1c80029081607f1c8260ff1c1c80029283607f1c8460ff1c1c80029485607f1c8660ff1c1c80029687607f1c8860ff1c1c80029889607f1c8a60ff1c1c80029a8b607f1c8c60ff1c1c80029c8d80607f1c9060ff1c1c800260cd1c6604000000000000169d60cc1c6608000000000000169c60cb1c6610000000000000169b60ca1c6620000000000000169a60c91c6640000000000000169960c81c6680000000000000169860c71c670100000000000000169760c61c670200000000000000169660c51c670400000000000000169560c41c670800000000000000169460c31c671000000000000000169360c21c672000000000000000169260c11c674000000000000000169160c01c6780000000000000001690607f190160401b1717171717171717171717171717693627a301d71055774c85026f028f6481ab7f045a5af012a19d003aa919810160801d60020b906fdb2df09e81959a81455e260799a0632f0160801d60020b918282145f146139355750905090565b6001600160a01b03166001600160a01b0361394f8461328f565b1611613959575090565b905090565b81607f031b61377a565b6001600160a01b03906318521d4960e21b5f521660045260245ffd5b811561398e570490565b634e487b7160e01b5f52601260045260245ffd5b5f604051936139b0856121cd565b5f85525f60208601525f60408601525f60608601525f60808601525f60a0860152848354602086015115956001600160801b036003870154169387155f1461452f57610fff8360b81c16945b604083015185525f6020860152836001600160a01b031660408601528360a01c60020b606086015288155f146145255760018801545b60808601528060a0860152608083015162400000811615155f146145165762bfffff16613a5e8161281e565b61ffff87166144f057935b845f60408601511296620f424062ffffff831614806144e8575b6144d9576040860151156144c45750508961447757606084016001600160a01b03815116826001600160a01b03168110156144505750516001600160a01b03166401000276a3811061443e57505b604051608081905267ffffffffffffffff60e082019081119111176106ae5760e0608051016040525f608051525f602060805101525f604060805101525f606060805101525f6080805101525f60a060805101525f60c060805101525b8a5115801561441b575b61431f576001600160a01b0360408c0151166080515260608b015160020b845160020b90815f81830712910503908b155f146142285760ff8216918060020b60081d60010b5f5260058c0160205260405f205f1960018086011b01905416801593841594855f14614214576102e657817f07060605060205040602030205040301060502050303040105050304000000006f8421084210842108cc6318c6db6d54be60ff946001600160801b031060071b83811c67ffffffffffffffff1060061b1783811c63ffffffff1060051b1783811c61ffff1060041b1783811c861060031b1792831c1c601f161a1790031660020b900360020b0260020b5b905b15156040608051015260020b8060206080510152620d89e7191215614203575b620d89e86020608051015160020b12156141f3575b896001600160a01b03613c866020608051015160020b61328f565b1680606060805101528c6001600160a01b036040820151166001600160a01b03606089015116906001600160801b0360a08401511692519262ffffff8b16946001600160a01b0360ff8815168583101885831802851816831015935f86125f146140885786620f42400391613cfd83885f0361308d565b861561406957613d1c858760ff8d1516868610188686180286186145a3565b975b888210613faf5750508160ff6001600160a01b039a15168183101891180218958691620f424082145f14613fa0575050845b935b15613f925791613d6192614579565b905b60c0608051015260a060805101526080805101521660408c015285155f14613f545760a060805101515f8112612489578b51038b52613dae60808051015160c060805101519061234f565b5f81126124895760208c018051918203918213600116610a0f57525b61ffff8716613f21575b6001600160801b0360a08c01511680613f01575b506001600160a01b0360408c0151166001600160a01b03606060805101511681145f14613ed0575060406080510151613e39575b60ff8a15166020608051015160020b0360020b60608c0152613b2e565b89613eb5576001600160801b03613e9c60808d015160028c01545b6020608051015160020b60020b5f5260048d0160205260405f2091600183019081549003905560028201908154900390555460801d8d8d15613ea7575b60a00151831661363c565b1660a08c0152613e1c565b5f91909103600f0b90613e91565b6001600160801b03613e9c8c608060018d0154910151613e54565b6001600160a01b0360805151168103613eea575b50613b2e565b613ef3906136b8565b60020b60608c01525f613ee4565b613f119060c06080510151612fbc565b60808c019081510190525f613de8565b96620f424060808051015161ffff89169060c06080510151010204908160c060805101510360c060805101520196613dd4565b60808051015160c06080510151015f8112612489578b51018b5260a060805101515f811261248957613f8b60208d01918251612bca565b9052613dca565b613f9b9261461d565b613d61565b613faa9187614687565b613d50565b975098505050508094501581151761405c576001600160a01b0394821561400a57613fdb908583614710565b935b848082848615613ffb57613ff0926145a3565b8095015f0393613d52565b916140059261453d565b613ff0565b61403d906140389087811161404357614030906001600160801b0388169060601b613984565b87841661234f565b61478e565b93613fdd565b614057906001600160801b03881690613142565b614030565b634f2461b85f526004601cfd5b6140828560ff8c1516858510188585180285188861453d565b97613d1e565b91969395949386156141d4576140ad888560ff84151686861018868618028618614579565b945b8581106141075750916001600160a01b0397918160ff6140f496951516818310189118021880965b156140f957916140e6926145a3565b809380620f42400391614687565b613d63565b6141029261453d565b6140e6565b945050505081851582151761405c5784156141b7576001600160a01b0381116141795760601b6001600160801b0386168082061515910401905b6001600160a01b038116958287111561416c576001600160a01b036140f493819803165b80966140d7565b634323a5555f526004601cfd5b6001600160801b03861661419281600160601b846131c3565b91811561398e57600160601b90096141ab575b90614141565b600101806141a5575f80fd5b90856141cf6140f4936001600160a01b0398846146b0565b614165565b6141ed8860ff831516858510188585180285188661461d565b946140af565b620d89e860206080510152613c6b565b620d89e71960206080510152613c56565b50905060020b900360020b0260020b613c34565b90600101908160020b8260ff16928160081d60010b5f5260058d0160205260405f2090600160ff5f1992161b0119905416801593841594855f14614307576102e65781600160ff931901167e1f0d1e100c1d070f090b19131c1706010e11080a1a141802121b1503160405601f6101e07f804040554300526644320000502061067405302602000010750620017611707760fc7fb6db6db6ddddddddd34d34d349249249210842108c6318c639ce739cffffffff860260f81c161b60f71c1692831c63d76453e004161a17031660020b0160020b0260020b5b90613c36565b5060ff809250031660020b0160020b0260020b614301565b90919996989397929550606087015160a01b62ffffff60a01b167fffffffffffffffffff00000000000000000000000000000000000000000000006001600160a01b0360408a0151169216171782556001600160801b0360a0870151168091036143f7575b5081156143e857600260808601519101555b15146143cb576143ba60406143ae60208501516128e2565b920151835190036128e2565b6001600160801b03169060801b1793565b6040015181516143db91036128e2565b6143ba60208301516128e2565b60016080860151910155614396565b6001600160801b03166001600160801b03196003830154161760038201555f614384565b506001600160a01b0360408c0151166001600160a01b0360608601511614613b38565b639e4d7cc760e01b5f5260045260245ffd5b8260449160405191637c9c6e8f60e01b83526001600160a01b031660048301526024820152fd5b606084016001600160a01b03815116826001600160a01b03168111156144505750516001600160a01b031673fffd8963efd1fc6a506488495d951d5263988d2681101561443e5750613ad1565b995099505050975050505050505f925f929190565b634b10312360e11b5f5260045ffd5b508715613a83565b62ffffff168061ffff881602620f424080820615159104019061ffff8816010393613a69565b508360d01c62ffffff16613a5e565b6002880154613a32565b610fff8360c41c16946139fc565b6001600160801b03600160601b916001600160a01b0380600195169116038060ff1d9081011893169261457081856130f9565b93091515160190565b6001600160801b03906001600160a01b03806127ec9594169116038060ff1d9081011891166130f9565b906001600160a01b0381166001600160a01b03831611614617575b6001600160a01b03821692831561460b576fffffffffffffffffffffffffffffffff60601b6001600160a01b036145ff948185169403169160601b16614687565b90808206151591040190565b62bfc9215f526004601cfd5b906145be565b6001600160a01b0382166001600160a01b03821611614681575b6001600160a01b03811691821561460b576127ec936fffffffffffffffffffffffffffffffff60601b6001600160a01b0361467c948185169403169160601b166131c3565b613984565b90614637565b9291906146958282866131c3565b93821561398e57096146a357565b906001019081156102e657565b9190811561470b576fffffffffffffffffffffffffffffffff60601b6001600160a01b039160601b1692169182820291838383119184041416156146fe576127ec9261403892820391614687565b63f5c787f15f526004601cfd5b505090565b90918015614788576001600160a01b036fffffffffffffffffffffffffffffffff60601b819460601b1692168082028161474a8483613984565b14614770575b509061475f6147649284613984565b61234f565b80820615159104011690565b830183811061475057915061478492614687565b1690565b50905090565b906001600160a01b0382169182036124895756fec090fc4683624cfc3884e9d8de5eca132f2d0ec062aff75d43c0465d5ceeab23a264697066735822122098c3e4ccfb9c4a2ea8c4368ff64c561e89f7d8b2974535621c567984e128cbe764736f6c634300081a0033","linkReferences":{}},"methodIdentifiers":{"allowance(address,address,uint256)":"598af9e7","approve(address,uint256,uint256)":"426a8493","balanceOf(address,uint256)":"00fdd58e","burn(address,uint256,uint256)":"f5298aca","clear(address,uint256)":"80f0b44c","collectProtocolFees(address,address,uint256)":"8161b874","donate((address,address,uint24,int24,address),uint256,uint256,bytes)":"234266d7","extsload(bytes32)":"1e2eaeaf","extsload(bytes32,uint256)":"35fd631a","extsload(bytes32[])":"dbd035ff","exttload(bytes32)":"f135baaa","exttload(bytes32[])":"9bf6645f","initialize((address,address,uint24,int24,address),uint160,bytes)":"695c5bf5","isOperator(address,address)":"b6363cf2","mint(address,uint256,uint256)":"156e29f6","modifyLiquidity((address,address,uint24,int24,address),(int24,int24,int256,bytes32),bytes)":"5a6bcfda","owner()":"8da5cb5b","protocolFeeController()":"f02de3b2","protocolFeesAccrued(address)":"97e8cd4e","setOperator(address,bool)":"558a7297","setProtocolFee((address,address,uint24,int24,address),uint24)":"7e87ce7d","setProtocolFeeController(address)":"2d771389","settle()":"11da60b4","settleFor(address)":"3dd45adb","supportsInterface(bytes4)":"01ffc9a7","swap((address,address,uint24,int24,address),(bool,int256,uint160),bytes)":"f3cd914c","sync(address)":"a5841194","take(address,address,uint256)":"0b0d9c09","transfer(address,uint256,uint256)":"095bcdb6","transferFrom(address,address,uint256,uint256)":"fe99049a","transferOwnership(address)":"f2fde38b","unlock(bytes)":"48c89491","updateDynamicLPFee((address,address,uint24,int24,address),uint24)":"52759651"},"id":57}