{"abi":[{"type":"function","name":"beneficiary","inputs":[],"outputs":[{"name":"","type":"address","internalType":"address payable"}],"stateMutability":"view"},{"type":"function","name":"beneficiaryWithdraw","inputs":[],"outputs":[],"stateMutability":"nonpayable"},{"type":"function","name":"close","inputs":[],"outputs":[],"stateMutability":"nonpayable"},{"type":"function","name":"deposit","inputs":[{"name":"refundee","type":"address","internalType":"address"}],"outputs":[],"stateMutability":"payable"},{"type":"function","name":"depositsOf","inputs":[{"name":"payee","type":"address","internalType":"address"}],"outputs":[{"name":"","type":"uint256","internalType":"uint256"}],"stateMutability":"view"},{"type":"function","name":"enableRefunds","inputs":[],"outputs":[],"stateMutability":"nonpayable"},{"type":"function","name":"initialize","inputs":[],"outputs":[],"stateMutability":"nonpayable"},{"type":"function","name":"owner","inputs":[],"outputs":[{"name":"","type":"address","internalType":"address"}],"stateMutability":"view"},{"type":"function","name":"renounceOwnership","inputs":[],"outputs":[],"stateMutability":"nonpayable"},{"type":"function","name":"state","inputs":[],"outputs":[{"name":"","type":"uint8","internalType":"enum RefundEscrowUpgradeable.State"}],"stateMutability":"view"},{"type":"function","name":"transferOwnership","inputs":[{"name":"newOwner","type":"address","internalType":"address"}],"outputs":[],"stateMutability":"nonpayable"},{"type":"function","name":"withdraw","inputs":[{"name":"payee","type":"address","internalType":"address payable"}],"outputs":[],"stateMutability":"nonpayable"},{"type":"function","name":"withdrawalAllowed","inputs":[{"name":"","type":"address","internalType":"address"}],"outputs":[{"name":"","type":"bool","internalType":"bool"}],"stateMutability":"view"},{"type":"event","name":"Deposited","inputs":[{"name":"payee","type":"address","indexed":true,"internalType":"address"},{"name":"weiAmount","type":"uint256","indexed":false,"internalType":"uint256"}],"anonymous":false},{"type":"event","name":"OwnershipTransferred","inputs":[{"name":"previousOwner","type":"address","indexed":true,"internalType":"address"},{"name":"newOwner","type":"address","indexed":true,"internalType":"address"}],"anonymous":false},{"type":"event","name":"RefundsClosed","inputs":[],"anonymous":false},{"type":"event","name":"RefundsEnabled","inputs":[],"anonymous":false},{"type":"event","name":"Withdrawn","inputs":[{"name":"payee","type":"address","indexed":true,"internalType":"address"},{"name":"weiAmount","type":"uint256","indexed":false,"internalType":"uint256"}],"anonymous":false}],"bytecode":{"object":"0x60808060405234601557610b39908161001a8239f35b5f80fdfe6080806040526004361015610012575f80fd5b5f3560e01c90816338af3eed146108355750806343d726d61461075e57806351cff8d91461065a578063685ca19414610623578063715018a6146105af5780638129fc1c146104915780638c52dc41146103ba5780638da5cb5b146103945780639af6549a146102eb578063c19d93fb146102c2578063e3a9db1a14610287578063f2fde38b146101d15763f340fa01146100ab575f80fd5b60203660031901126101cd576004356001600160a01b0381168091036101cd5760ff60c9541660038110156101b95761014e576100f46001600160a01b0360335416331461085b565b805f52606560205260405f2080549034820180921161013a57557f2da466a7b24304f47e87fa2e1e5a81b9831ce54fec19055ce277ca2f39ba42c46020604051348152a2005b634e487b7160e01b5f52601160045260245ffd5b60405162461bcd60e51b815260206004820152602b60248201527f526566756e64457363726f773a2063616e206f6e6c79206465706f736974207760448201527f68696c65206163746976650000000000000000000000000000000000000000006064820152608490fd5b634e487b7160e01b5f52602160045260245ffd5b5f80fd5b346101cd5760203660031901126101cd576004356001600160a01b0381168082036101cd5761020c6001600160a01b0360335416331461085b565b1561021c5761021a9061092d565b005b60405162461bcd60e51b815260206004820152602660248201527f4f776e61626c653a206e6577206f776e657220697320746865207a65726f206160448201527f64647265737300000000000000000000000000000000000000000000000000006064820152608490fd5b346101cd5760203660031901126101cd576004356001600160a01b0381168091036101cd575f526065602052602060405f2054604051908152f35b346101cd575f3660031901126101cd5760ff60c9541660405160038210156101b9576020918152f35b346101cd575f3660031901126101cd5760c95460ff811660038110156101b9576002036103295761021a906001600160a01b03479160081c16610980565b60405162461bcd60e51b815260206004820152603860248201527f526566756e64457363726f773a2062656e65666963696172792063616e206f6e60448201527f6c79207769746864726177207768696c6520636c6f73656400000000000000006064820152608490fd5b346101cd575f3660031901126101cd5760206001600160a01b0360335416604051908152f35b346101cd575f3660031901126101cd576103e06001600160a01b0360335416331461085b565b60ff60c9541660038110156101b95761042657600160ff1960c954161760c9557f599d8e5a83cffb867d051598c4d70e805d59802d8081c1c7d6dffc5b6aca2b895f80a1005b60405162461bcd60e51b815260206004820152603260248201527f526566756e64457363726f773a2063616e206f6e6c7920656e61626c6520726560448201527f66756e6473207768696c652061637469766500000000000000000000000000006064820152608490fd5b346101cd575f3660031901126101cd575f5460ff8160081c169081158092816105a4575b6104be906108bb565b610593575b505f5460ff8160081c16908115809281610588575b6104e1906108bb565b610577575b506104ef610ab2565b5f5460ff8160081c1690811580928161056c575b61050c906108bb565b61055b575b5061051b3361092d565b61054d575b610528610ab2565b61053f575b61053357005b5f805461ff0019169055005b61ff00195f54165f5561052d565b61ff00195f54165f55610520565b61ffff1916610101175f5583610511565b5060ff821615610503565b61ffff1916610101175f55826104e6565b5060ff8216156104d8565b61ffff1916610101175f55816104c3565b5060ff8216156104b5565b346101cd575f3660031901126101cd576105d56001600160a01b0360335416331461085b565b5f6001600160a01b0360335473ffffffffffffffffffffffffffffffffffffffff198116603355167f8be0079c531659141344cd1fd0a4f28419497f9722a3daafe3b4186f6b6457e08280a3005b346101cd5760203660031901126101cd576004356001600160a01b038116036101cd5760206106506108a6565b6040519015158152f35b346101cd5760203660031901126101cd576004356001600160a01b038116908181036101cd576106886108a6565b156106f35760207f7084f5476618d8e60b11ef0d7d3f06914655adb8793e28ff7f018d4c76d505d5916106c76001600160a01b0360335416331461085b565b835f52606582526106ea60405f20548092865f52606585525f6040812055610980565b604051908152a2005b60405162461bcd60e51b815260206004820152603360248201527f436f6e646974696f6e616c457363726f773a207061796565206973206e6f742060448201527f616c6c6f77656420746f207769746864726177000000000000000000000000006064820152608490fd5b346101cd575f3660031901126101cd576107846001600160a01b0360335416331461085b565b60ff60c9541660038110156101b9576107ca57600260ff1960c954161760c9557f088672c3a6e342f7cd94a65ba63b79df24a8973927b4d05d803c44bbf787d12f5f80a1005b60405162461bcd60e51b815260206004820152602960248201527f526566756e64457363726f773a2063616e206f6e6c7920636c6f73652077686960448201527f6c652061637469766500000000000000000000000000000000000000000000006064820152608490fd5b346101cd575f3660031901126101cd576020906001600160a01b0360c95460081c168152f35b1561086257565b606460405162461bcd60e51b815260206004820152602060248201527f4f776e61626c653a2063616c6c6572206973206e6f7420746865206f776e65726044820152fd5b60ff60c9541660038110156101b95760011490565b156108c257565b60405162461bcd60e51b815260206004820152602e60248201527f496e697469616c697a61626c653a20636f6e747261637420697320616c72656160448201527f647920696e697469616c697a65640000000000000000000000000000000000006064820152608490fd5b6001600160a01b03806033549216918273ffffffffffffffffffffffffffffffffffffffff19821617603355167f8be0079c531659141344cd1fd0a4f28419497f9722a3daafe3b4186f6b6457e05f80a3565b814710610a6d575f8080936001600160a01b038294165af13d15610a68573d67ffffffffffffffff8111610a545760405190601f8101601f19908116603f0116820167ffffffffffffffff811183821017610a545760405281525f60203d92013e5b156109e957565b60405162461bcd60e51b815260206004820152603a60248201527f416464726573733a20756e61626c6520746f2073656e642076616c75652c207260448201527f6563697069656e74206d617920686176652072657665727465640000000000006064820152608490fd5b634e487b7160e01b5f52604160045260245ffd5b6109e2565b60405162461bcd60e51b815260206004820152601d60248201527f416464726573733a20696e73756666696369656e742062616c616e63650000006044820152606490fd5b5f5460ff8160081c16908115809281610af8575b610acf906108bb565b610ae6575b50610adb57565b61ff00195f54165f55565b61ffff1916610101175f908155610ad4565b5060ff821615610ac656fea2646970667358221220433ab98b62a4a7cdd3406d12d33562e347642f962fc9ef84f27159d1b1cbf10264736f6c634300081a0033","linkReferences":{}},"methodIdentifiers":{"beneficiary()":"38af3eed","beneficiaryWithdraw()":"9af6549a","close()":"43d726d6","deposit(address)":"f340fa01","depositsOf(address)":"e3a9db1a","enableRefunds()":"8c52dc41","initialize()":"8129fc1c","owner()":"8da5cb5b","renounceOwnership()":"715018a6","state()":"c19d93fb","transferOwnership(address)":"f2fde38b","withdraw(address)":"51cff8d9","withdrawalAllowed(address)":"685ca194"},"id":452}