{"abi":[{"type":"constructor","inputs":[{"name":"_permit2","type":"address","internalType":"contract IAllowanceTransfer"}],"stateMutability":"nonpayable"},{"type":"function","name":"permit","inputs":[{"name":"owner","type":"address","internalType":"address"},{"name":"permitSingle","type":"tuple","internalType":"struct IAllowanceTransfer.PermitSingle","components":[{"name":"details","type":"tuple","internalType":"struct IAllowanceTransfer.PermitDetails","components":[{"name":"token","type":"address","internalType":"address"},{"name":"amount","type":"uint160","internalType":"uint160"},{"name":"expiration","type":"uint48","internalType":"uint48"},{"name":"nonce","type":"uint48","internalType":"uint48"}]},{"name":"spender","type":"address","internalType":"address"},{"name":"sigDeadline","type":"uint256","internalType":"uint256"}]},{"name":"signature","type":"bytes","internalType":"bytes"}],"outputs":[],"stateMutability":"payable"},{"type":"function","name":"permit2","inputs":[],"outputs":[{"name":"","type":"address","internalType":"contract IAllowanceTransfer"}],"stateMutability":"view"},{"type":"function","name":"permitBatch","inputs":[{"name":"owner","type":"address","internalType":"address"},{"name":"_permitBatch","type":"tuple","internalType":"struct IAllowanceTransfer.PermitBatch","components":[{"name":"details","type":"tuple[]","internalType":"struct IAllowanceTransfer.PermitDetails[]","components":[{"name":"token","type":"address","internalType":"address"},{"name":"amount","type":"uint160","internalType":"uint160"},{"name":"expiration","type":"uint48","internalType":"uint48"},{"name":"nonce","type":"uint48","internalType":"uint48"}]},{"name":"spender","type":"address","internalType":"address"},{"name":"sigDeadline","type":"uint256","internalType":"uint256"}]},{"name":"signature","type":"bytes","internalType":"bytes"}],"outputs":[],"stateMutability":"payable"}],"bytecode":{"object":"0x60a034607357601f61056d38819003918201601f19168301916001600160401b03831184841017607757808492602094604052833981010312607357516001600160a01b03811681036073576080526040516104e1908161008c8239608051818181608a015281816101cd01526102540152f35b5f80fd5b634e487b7160e01b5f52604160045260245ffdfe6080806040526004361015610012575f80fd5b5f905f3560e01c9081622a3e3a146101f15750806312261ee7146101ad57632b67b5701461003e575f80fd5b61010036600319011261019057806100546103ea565b60c03660231901126101aa5760e43567ffffffffffffffff81116101a657610080903690600401610414565b6001600160a01b037f000000000000000000000000000000000000000000000000000000000000000016803b156101a2576001600160a01b03604051946302b67b5760e41b86521660048501526024356001600160a01b03811680910361019e5760248501526044356001600160a01b03811680910361019e57604485015260643565ffffffffffff811680910361019e57606485015260843565ffffffffffff811680910361019e57608485015260a4356001600160a01b03811680910361019e57858561016e82968296839560a485015260c43560c485015261010060e485015261010484019161048b565b03925af180156101935761017f5750f35b8161018991610442565b6101905780f35b80fd5b6040513d84823e3d90fd5b8580fd5b8480fd5b5050fd5b50fd5b503461019057806003193601126101905760206040516001600160a01b037f0000000000000000000000000000000000000000000000000000000000000000168152f35b905060603660031901126103e6576102076103ea565b60243567ffffffffffffffff81116103e6578036039060606003198301126103e65760443567ffffffffffffffff81116103e657610249903690600401610414565b916001600160a01b037f00000000000000000000000000000000000000000000000000000000000000001694853b156103e6576001600160a01b0390632a2d80d160e01b88521660048701526060602487015260c4860193816004013590602219018112156103e65781016024600482013591019467ffffffffffffffff82116103e6578160071b360386136103e65760606064890152819052869460e48601949392915f905b8082106103655750505061033a5f9694869488946044856001600160a01b0361031c60248b9901610400565b166084880152013560a486015284830360031901604486015261048b565b03925af1801561035a5761034c575080f35b61035891505f90610442565b005b6040513d5f823e3d90fd5b919650919293946001600160a01b0361037d88610400565b1681526020870135906001600160a01b0382168092036103e65760808160019360208394015265ffffffffffff6103b660408c01610478565b16604082015265ffffffffffff6103cf60608c01610478565b1660608201520197019201889695949392916102f0565b5f80fd5b600435906001600160a01b03821682036103e657565b35906001600160a01b03821682036103e657565b9181601f840112156103e65782359167ffffffffffffffff83116103e657602083818601950101116103e657565b90601f8019910116810190811067ffffffffffffffff82111761046457604052565b634e487b7160e01b5f52604160045260245ffd5b359065ffffffffffff821682036103e657565b908060209392818452848401375f828201840152601f01601f191601019056fea2646970667358221220d5fa2effda78760d75d02c33c21fe52a3b06351d7f0290876f8e4180788f90a364736f6c634300081a0033","linkReferences":{}},"methodIdentifiers":{"permit(address,((address,uint160,uint48,uint48),address,uint256),bytes)":"2b67b570","permit2()":"12261ee7","permitBatch(address,((address,uint160,uint48,uint48)[],address,uint256),bytes)":"002a3e3a"},"id":103}